{"abi":[{"type":"function","name":"EPOCH_FEEDER","inputs":[],"outputs":[{"name":"","type":"address","internalType":"address"}],"stateMutability":"view"},{"type":"function","name":"GMITO","inputs":[],"outputs":[{"name":"","type":"address","internalType":"address"}],"stateMutability":"view"},{"type":"function","name":"GMMITO","inputs":[],"outputs":[{"name":"","type":"address","internalType":"address"}],"stateMutability":"view"},{"type":"function","name":"REWARD_DISTRIBUTOR","inputs":[],"outputs":[{"name":"","type":"address","internalType":"address"}],"stateMutability":"view"},{"type":"function","name":"TMITO","inputs":[],"outputs":[{"name":"","type":"address","internalType":"address"}],"stateMutability":"view"},{"type":"function","name":"VALIDATOR_MANAGER","inputs":[],"outputs":[{"name":"","type":"address","internalType":"address"}],"stateMutability":"view"},{"type":"function","name":"VALIDATOR_STAKING_GMITO","inputs":[],"outputs":[{"name":"","type":"address","internalType":"address"}],"stateMutability":"view"},{"type":"function","name":"VALIDATOR_STAKING_TMITO","inputs":[],"outputs":[{"name":"","type":"address","internalType":"address"}],"stateMutability":"view"},{"type":"function","name":"WMITO","inputs":[],"outputs":[{"name":"","type":"address","internalType":"address"}],"stateMutability":"view"},{"type":"function","name":"ZK_ORACLE_FEED","inputs":[],"outputs":[{"name":"","type":"address","internalType":"address"}],"stateMutability":"view"}],"bytecode":{"object":"0x6080604052348015600e575f5ffd5b5061022a8061001c5f395ff3fe608060405234801561000f575f5ffd5b50600436106100b9575f3560e01c80638de728e411610072578063b919ba1a11610058578063b919ba1a146101a3578063dd6b6456146101be578063f3adae77146101d9575f5ffd5b80638de728e41461016d578063ae9483e014610188575f5ffd5b80636397dca4116100a25780636397dca41461011c5780636b6e165e146101375780636e13b32814610152575f5ffd5b80634c455608146100bd5780635f8a471914610101575b5f5ffd5b6100d873124816324e4725e9f60cd3bf598fd22ec46f6d3881565b60405173ffffffffffffffffffffffffffffffffffffffff909116815260200160405180910390f35b6100d8738f3bcf26e63417c4ac1194ae086409e33b75d3f381565b6100d8731fbdeafb4e0e63e3f32cecbcd7d7ab797c5d8d9281565b6100d8730d4e7558a47fb76e573056534f015bf1a816a5d281565b6100d873124816324cde605064d4e75e8fc9b27efd7eae0f81565b6100d873124816321ac3a7f3a68cf2d36876e670beabc6c781565b6100d87312481632e81c446ecfa1cd8f93df4debc8f5acd281565b6100d873124816325006f97e7136942b134a9545d95b05fa81565b6100d8731248163272144fdbbbe6d1a8c43ca56de9bd5cea81565b6100d87312481632994cf256361643b20e432891e6ce2be78156fea2646970667358221220b7241bd3fe1b6efda06d73e44664942bcc6617899d584334c5e3a48d13898b3064736f6c634300081d0033","linkReferences":{}},"methodIdentifiers":{"EPOCH_FEEDER()":"f3adae77","GMITO()":"dd6b6456","GMMITO()":"6b6e165e","REWARD_DISTRIBUTOR()":"8de728e4","TMITO()":"5f8a4719","VALIDATOR_MANAGER()":"ae9483e0","VALIDATOR_STAKING_GMITO()":"4c455608","VALIDATOR_STAKING_TMITO()":"6e13b328","WMITO()":"b919ba1a","ZK_ORACLE_FEED()":"6397dca4"},"id":90}