{"abi":[{"type":"constructor","inputs":[{"name":"govMito","type":"address","internalType":"address"},{"name":"rewardDistributor","type":"address","internalType":"address"},{"name":"validatorStaking","type":"address","internalType":"address"},{"name":"validatorManager","type":"address","internalType":"address"},{"name":"withdrawalNFT","type":"address","internalType":"address"}],"stateMutability":"nonpayable"},{"type":"function","name":"DEFAULT_ADMIN_ROLE","inputs":[],"outputs":[{"name":"","type":"bytes32","internalType":"bytes32"}],"stateMutability":"view"},{"type":"function","name":"DOMAIN_SEPARATOR","inputs":[],"outputs":[{"name":"result","type":"bytes32","internalType":"bytes32"}],"stateMutability":"view"},{"type":"function","name":"GIT_COMMIT","inputs":[],"outputs":[{"name":"","type":"string","internalType":"string"}],"stateMutability":"view"},{"type":"function","name":"GIT_TAG","inputs":[],"outputs":[{"name":"","type":"string","internalType":"string"}],"stateMutability":"view"},{"type":"function","name":"GOV_MITO","inputs":[],"outputs":[{"name":"","type":"address","internalType":"contract IGovMITO"}],"stateMutability":"view"},{"type":"function","name":"REWARD_DISTRIBUTOR","inputs":[],"outputs":[{"name":"","type":"address","internalType":"contract IValidatorRewardDistributor"}],"stateMutability":"view"},{"type":"function","name":"UPGRADE_INTERFACE_VERSION","inputs":[],"outputs":[{"name":"","type":"string","internalType":"string"}],"stateMutability":"view"},{"type":"function","name":"VALIDATOR_MANAGER","inputs":[],"outputs":[{"name":"","type":"address","internalType":"contract IValidatorManager"}],"stateMutability":"view"},{"type":"function","name":"VALIDATOR_ROLE","inputs":[],"outputs":[{"name":"","type":"bytes32","internalType":"bytes32"}],"stateMutability":"view"},{"type":"function","name":"VALIDATOR_STAKING","inputs":[],"outputs":[{"name":"","type":"address","internalType":"contract IValidatorStaking"}],"stateMutability":"view"},{"type":"function","name":"WITHDRAWAL_NFT","inputs":[],"outputs":[{"name":"","type":"address","internalType":"contract IWithdrawalNFT"}],"stateMutability":"view"},{"type":"function","name":"allowance","inputs":[{"name":"owner","type":"address","internalType":"address"},{"name":"spender","type":"address","internalType":"address"}],"outputs":[{"name":"result","type":"uint256","internalType":"uint256"}],"stateMutability":"view"},{"type":"function","name":"approve","inputs":[{"name":"spender","type":"address","internalType":"address"},{"name":"amount","type":"uint256","internalType":"uint256"}],"outputs":[{"name":"","type":"bool","internalType":"bool"}],"stateMutability":"nonpayable"},{"type":"function","name":"asset","inputs":[],"outputs":[{"name":"","type":"address","internalType":"address"}],"stateMutability":"view"},{"type":"function","name":"balanceOf","inputs":[{"name":"owner","type":"address","internalType":"address"}],"outputs":[{"name":"result","type":"uint256","internalType":"uint256"}],"stateMutability":"view"},{"type":"function","name":"claimWithdraw","inputs":[{"name":"tokenIds","type":"uint256[]","internalType":"uint256[]"}],"outputs":[{"name":"","type":"uint256","internalType":"uint256"}],"stateMutability":"nonpayable"},{"type":"function","name":"compound","inputs":[],"outputs":[{"name":"totalCompounded","type":"uint256","internalType":"uint256"}],"stateMutability":"nonpayable"},{"type":"function","name":"convertToAssets","inputs":[{"name":"shares","type":"uint256","internalType":"uint256"}],"outputs":[{"name":"assets","type":"uint256","internalType":"uint256"}],"stateMutability":"view"},{"type":"function","name":"convertToShares","inputs":[{"name":"assets","type":"uint256","internalType":"uint256"}],"outputs":[{"name":"shares","type":"uint256","internalType":"uint256"}],"stateMutability":"view"},{"type":"function","name":"decimals","inputs":[],"outputs":[{"name":"","type":"uint8","internalType":"uint8"}],"stateMutability":"view"},{"type":"function","name":"deposit","inputs":[{"name":"","type":"uint256","internalType":"uint256"},{"name":"","type":"address","internalType":"address"}],"outputs":[{"name":"","type":"uint256","internalType":"uint256"}],"stateMutability":"pure"},{"type":"function","name":"getRoleAdmin","inputs":[{"name":"role","type":"bytes32","internalType":"bytes32"}],"outputs":[{"name":"","type":"bytes32","internalType":"bytes32"}],"stateMutability":"view"},{"type":"function","name":"getRoleMember","inputs":[{"name":"role","type":"bytes32","internalType":"bytes32"},{"name":"index","type":"uint256","internalType":"uint256"}],"outputs":[{"name":"","type":"address","internalType":"address"}],"stateMutability":"view"},{"type":"function","name":"getRoleMemberCount","inputs":[{"name":"role","type":"bytes32","internalType":"bytes32"}],"outputs":[{"name":"","type":"uint256","internalType":"uint256"}],"stateMutability":"view"},{"type":"function","name":"getRoleMembers","inputs":[{"name":"role","type":"bytes32","internalType":"bytes32"}],"outputs":[{"name":"","type":"address[]","internalType":"address[]"}],"stateMutability":"view"},{"type":"function","name":"grantRole","inputs":[{"name":"role","type":"bytes32","internalType":"bytes32"},{"name":"account","type":"address","internalType":"address"}],"outputs":[],"stateMutability":"nonpayable"},{"type":"function","name":"hasRole","inputs":[{"name":"role","type":"bytes32","internalType":"bytes32"},{"name":"account","type":"address","internalType":"address"}],"outputs":[{"name":"","type":"bool","internalType":"bool"}],"stateMutability":"view"},{"type":"function","name":"initialize","inputs":[{"name":"initialOwner","type":"address","internalType":"address"},{"name":"initialWithdrawalPeriod","type":"uint32","internalType":"uint32"},{"name":"initialMaxClaimsPerTx","type":"uint16","internalType":"uint16"}],"outputs":[],"stateMutability":"nonpayable"},{"type":"function","name":"maxClaimsPerTx","inputs":[],"outputs":[{"name":"","type":"uint16","internalType":"uint16"}],"stateMutability":"view"},{"type":"function","name":"maxDeposit","inputs":[{"name":"to","type":"address","internalType":"address"}],"outputs":[{"name":"maxAssets","type":"uint256","internalType":"uint256"}],"stateMutability":"view"},{"type":"function","name":"maxMint","inputs":[{"name":"to","type":"address","internalType":"address"}],"outputs":[{"name":"maxShares","type":"uint256","internalType":"uint256"}],"stateMutability":"view"},{"type":"function","name":"maxRedeem","inputs":[{"name":"owner","type":"address","internalType":"address"}],"outputs":[{"name":"maxShares","type":"uint256","internalType":"uint256"}],"stateMutability":"view"},{"type":"function","name":"maxWithdraw","inputs":[{"name":"owner","type":"address","internalType":"address"}],"outputs":[{"name":"maxAssets","type":"uint256","internalType":"uint256"}],"stateMutability":"view"},{"type":"function","name":"mint","inputs":[{"name":"","type":"uint256","internalType":"uint256"},{"name":"","type":"address","internalType":"address"}],"outputs":[{"name":"","type":"uint256","internalType":"uint256"}],"stateMutability":"pure"},{"type":"function","name":"name","inputs":[],"outputs":[{"name":"","type":"string","internalType":"string"}],"stateMutability":"pure"},{"type":"function","name":"nonces","inputs":[{"name":"owner","type":"address","internalType":"address"}],"outputs":[{"name":"result","type":"uint256","internalType":"uint256"}],"stateMutability":"view"},{"type":"function","name":"operatorMint","inputs":[{"name":"validators","type":"address[]","internalType":"address[]"},{"name":"recipient","type":"address","internalType":"address"}],"outputs":[{"name":"shares","type":"uint256","internalType":"uint256"}],"stateMutability":"nonpayable"},{"type":"function","name":"owner","inputs":[],"outputs":[{"name":"","type":"address","internalType":"address"}],"stateMutability":"view"},{"type":"function","name":"permit","inputs":[{"name":"owner","type":"address","internalType":"address"},{"name":"spender","type":"address","internalType":"address"},{"name":"value","type":"uint256","internalType":"uint256"},{"name":"deadline","type":"uint256","internalType":"uint256"},{"name":"v","type":"uint8","internalType":"uint8"},{"name":"r","type":"bytes32","internalType":"bytes32"},{"name":"s","type":"bytes32","internalType":"bytes32"}],"outputs":[],"stateMutability":"nonpayable"},{"type":"function","name":"previewDeposit","inputs":[{"name":"assets","type":"uint256","internalType":"uint256"}],"outputs":[{"name":"shares","type":"uint256","internalType":"uint256"}],"stateMutability":"view"},{"type":"function","name":"previewMint","inputs":[{"name":"shares","type":"uint256","internalType":"uint256"}],"outputs":[{"name":"assets","type":"uint256","internalType":"uint256"}],"stateMutability":"view"},{"type":"function","name":"previewRedeem","inputs":[{"name":"shares","type":"uint256","internalType":"uint256"}],"outputs":[{"name":"assets","type":"uint256","internalType":"uint256"}],"stateMutability":"view"},{"type":"function","name":"previewWithdraw","inputs":[{"name":"assets","type":"uint256","internalType":"uint256"}],"outputs":[{"name":"shares","type":"uint256","internalType":"uint256"}],"stateMutability":"view"},{"type":"function","name":"process","inputs":[],"outputs":[{"name":"","type":"uint256","internalType":"uint256"}],"stateMutability":"nonpayable"},{"type":"function","name":"proxiableUUID","inputs":[],"outputs":[{"name":"","type":"bytes32","internalType":"bytes32"}],"stateMutability":"view"},{"type":"function","name":"redeem","inputs":[{"name":"shares","type":"uint256","internalType":"uint256"},{"name":"receiver","type":"address","internalType":"address"},{"name":"owner","type":"address","internalType":"address"}],"outputs":[{"name":"assets","type":"uint256","internalType":"uint256"}],"stateMutability":"nonpayable"},{"type":"function","name":"renounceOwnership","inputs":[],"outputs":[],"stateMutability":"nonpayable"},{"type":"function","name":"renounceRole","inputs":[{"name":"role","type":"bytes32","internalType":"bytes32"},{"name":"callerConfirmation","type":"address","internalType":"address"}],"outputs":[],"stateMutability":"nonpayable"},{"type":"function","name":"revokeRole","inputs":[{"name":"role","type":"bytes32","internalType":"bytes32"},{"name":"account","type":"address","internalType":"address"}],"outputs":[],"stateMutability":"nonpayable"},{"type":"function","name":"setMaxClaimsPerTx","inputs":[{"name":"maxClaimsPerTx_","type":"uint16","internalType":"uint16"}],"outputs":[],"stateMutability":"nonpayable"},{"type":"function","name":"setWithdrawalPeriod","inputs":[{"name":"withdrawalPeriod_","type":"uint32","internalType":"uint32"}],"outputs":[],"stateMutability":"nonpayable"},{"type":"function","name":"supportsInterface","inputs":[{"name":"interfaceId","type":"bytes4","internalType":"bytes4"}],"outputs":[{"name":"","type":"bool","internalType":"bool"}],"stateMutability":"view"},{"type":"function","name":"symbol","inputs":[],"outputs":[{"name":"","type":"string","internalType":"string"}],"stateMutability":"pure"},{"type":"function","name":"totalAssets","inputs":[],"outputs":[{"name":"","type":"uint256","internalType":"uint256"}],"stateMutability":"view"},{"type":"function","name":"totalPendingWithdrawal","inputs":[],"outputs":[{"name":"","type":"uint256","internalType":"uint256"}],"stateMutability":"view"},{"type":"function","name":"totalSupply","inputs":[],"outputs":[{"name":"result","type":"uint256","internalType":"uint256"}],"stateMutability":"view"},{"type":"function","name":"transfer","inputs":[{"name":"to","type":"address","internalType":"address"},{"name":"amount","type":"uint256","internalType":"uint256"}],"outputs":[{"name":"","type":"bool","internalType":"bool"}],"stateMutability":"nonpayable"},{"type":"function","name":"transferFrom","inputs":[{"name":"from","type":"address","internalType":"address"},{"name":"to","type":"address","internalType":"address"},{"name":"amount","type":"uint256","internalType":"uint256"}],"outputs":[{"name":"","type":"bool","internalType":"bool"}],"stateMutability":"nonpayable"},{"type":"function","name":"transferOwnership","inputs":[{"name":"newOwner","type":"address","internalType":"address"}],"outputs":[],"stateMutability":"nonpayable"},{"type":"function","name":"upgradeToAndCall","inputs":[{"name":"newImplementation","type":"address","internalType":"address"},{"name":"data","type":"bytes","internalType":"bytes"}],"outputs":[],"stateMutability":"payable"},{"type":"function","name":"userMint","inputs":[{"name":"validators","type":"address[]","internalType":"address[]"},{"name":"recipient","type":"address","internalType":"address"}],"outputs":[{"name":"shares","type":"uint256","internalType":"uint256"}],"stateMutability":"nonpayable"},{"type":"function","name":"withdraw","inputs":[{"name":"assets","type":"uint256","internalType":"uint256"},{"name":"receiver","type":"address","internalType":"address"},{"name":"owner","type":"address","internalType":"address"}],"outputs":[{"name":"shares","type":"uint256","internalType":"uint256"}],"stateMutability":"nonpayable"},{"type":"function","name":"withdrawalPeriod","inputs":[],"outputs":[{"name":"","type":"uint32","internalType":"uint32"}],"stateMutability":"view"},{"type":"event","name":"Approval","inputs":[{"name":"owner","type":"address","indexed":true,"internalType":"address"},{"name":"spender","type":"address","indexed":true,"internalType":"address"},{"name":"amount","type":"uint256","indexed":false,"internalType":"uint256"}],"anonymous":false},{"type":"event","name":"Deposit","inputs":[{"name":"by","type":"address","indexed":true,"internalType":"address"},{"name":"owner","type":"address","indexed":true,"internalType":"address"},{"name":"assets","type":"uint256","indexed":false,"internalType":"uint256"},{"name":"shares","type":"uint256","indexed":false,"internalType":"uint256"}],"anonymous":false},{"type":"event","name":"GovMitoWithdrawalClaimed","inputs":[{"name":"amount","type":"uint256","indexed":false,"internalType":"uint256"}],"anonymous":false},{"type":"event","name":"Initialized","inputs":[{"name":"version","type":"uint64","indexed":false,"internalType":"uint64"}],"anonymous":false},{"type":"event","name":"MaxClaimsPerTxSet","inputs":[{"name":"maxClaimsPerTx","type":"uint16","indexed":false,"internalType":"uint16"}],"anonymous":false},{"type":"event","name":"OperatorRewardsClaimed","inputs":[{"name":"validator","type":"address","indexed":true,"internalType":"address"},{"name":"rewardManager","type":"address","indexed":true,"internalType":"address"},{"name":"recipient","type":"address","indexed":true,"internalType":"address"},{"name":"govMitoAmount","type":"uint256","indexed":false,"internalType":"uint256"},{"name":"gmMitoAmount","type":"uint256","indexed":false,"internalType":"uint256"}],"anonymous":false},{"type":"event","name":"OwnershipTransferred","inputs":[{"name":"previousOwner","type":"address","indexed":true,"internalType":"address"},{"name":"newOwner","type":"address","indexed":true,"internalType":"address"}],"anonymous":false},{"type":"event","name":"RewardsCompounded","inputs":[{"name":"validator","type":"address","indexed":true,"internalType":"address"},{"name":"govMitoAmount","type":"uint256","indexed":false,"internalType":"uint256"}],"anonymous":false},{"type":"event","name":"RewardsStaked","inputs":[{"name":"validator","type":"address","indexed":true,"internalType":"address"},{"name":"govMitoAmount","type":"uint256","indexed":false,"internalType":"uint256"}],"anonymous":false},{"type":"event","name":"RoleAdminChanged","inputs":[{"name":"role","type":"bytes32","indexed":true,"internalType":"bytes32"},{"name":"previousAdminRole","type":"bytes32","indexed":true,"internalType":"bytes32"},{"name":"newAdminRole","type":"bytes32","indexed":true,"internalType":"bytes32"}],"anonymous":false},{"type":"event","name":"RoleGranted","inputs":[{"name":"role","type":"bytes32","indexed":true,"internalType":"bytes32"},{"name":"account","type":"address","indexed":true,"internalType":"address"},{"name":"sender","type":"address","indexed":true,"internalType":"address"}],"anonymous":false},{"type":"event","name":"RoleRevoked","inputs":[{"name":"role","type":"bytes32","indexed":true,"internalType":"bytes32"},{"name":"account","type":"address","indexed":true,"internalType":"address"},{"name":"sender","type":"address","indexed":true,"internalType":"address"}],"anonymous":false},{"type":"event","name":"Transfer","inputs":[{"name":"from","type":"address","indexed":true,"internalType":"address"},{"name":"to","type":"address","indexed":true,"internalType":"address"},{"name":"amount","type":"uint256","indexed":false,"internalType":"uint256"}],"anonymous":false},{"type":"event","name":"UnstakeClaimed","inputs":[{"name":"vault","type":"address","indexed":true,"internalType":"address"},{"name":"amount","type":"uint256","indexed":false,"internalType":"uint256"}],"anonymous":false},{"type":"event","name":"UnstakeProcessed","inputs":[{"name":"amount","type":"uint256","indexed":false,"internalType":"uint256"}],"anonymous":false},{"type":"event","name":"UnstakeRequested","inputs":[{"name":"validator","type":"address","indexed":true,"internalType":"address"},{"name":"amount","type":"uint256","indexed":false,"internalType":"uint256"}],"anonymous":false},{"type":"event","name":"Upgraded","inputs":[{"name":"implementation","type":"address","indexed":true,"internalType":"address"}],"anonymous":false},{"type":"event","name":"UserRewardsClaimed","inputs":[{"name":"validator","type":"address","indexed":true,"internalType":"address"},{"name":"owner","type":"address","indexed":true,"internalType":"address"},{"name":"recipient","type":"address","indexed":true,"internalType":"address"},{"name":"govMitoAmount","type":"uint256","indexed":false,"internalType":"uint256"},{"name":"gmMitoAmount","type":"uint256","indexed":false,"internalType":"uint256"}],"anonymous":false},{"type":"event","name":"Withdraw","inputs":[{"name":"by","type":"address","indexed":true,"internalType":"address"},{"name":"to","type":"address","indexed":true,"internalType":"address"},{"name":"owner","type":"address","indexed":true,"internalType":"address"},{"name":"assets","type":"uint256","indexed":false,"internalType":"uint256"},{"name":"shares","type":"uint256","indexed":false,"internalType":"uint256"}],"anonymous":false},{"type":"event","name":"WithdrawalClaimed","inputs":[{"name":"user","type":"address","indexed":true,"internalType":"address"},{"name":"totalClaimed","type":"uint256","indexed":false,"internalType":"uint256"},{"name":"totalClaimedTokens","type":"uint256","indexed":false,"internalType":"uint256"},{"name":"tokenIds","type":"uint256[]","indexed":false,"internalType":"uint256[]"}],"anonymous":false},{"type":"event","name":"WithdrawalPeriodSet","inputs":[{"name":"withdrawalPeriod","type":"uint32","indexed":false,"internalType":"uint32"}],"anonymous":false},{"type":"event","name":"WithdrawalRequested","inputs":[{"name":"user","type":"address","indexed":true,"internalType":"address"},{"name":"assets","type":"uint256","indexed":false,"internalType":"uint256"},{"name":"shares","type":"uint256","indexed":false,"internalType":"uint256"},{"name":"tokenId","type":"uint256","indexed":false,"internalType":"uint256"}],"anonymous":false},{"type":"error","name":"AccessControlBadConfirmation","inputs":[]},{"type":"error","name":"AccessControlUnauthorizedAccount","inputs":[{"name":"account","type":"address","internalType":"address"},{"name":"neededRole","type":"bytes32","internalType":"bytes32"}]},{"type":"error","name":"AddressEmptyCode","inputs":[{"name":"target","type":"address","internalType":"address"}]},{"type":"error","name":"AllowanceOverflow","inputs":[]},{"type":"error","name":"AllowanceUnderflow","inputs":[]},{"type":"error","name":"AmountMismatch","inputs":[]},{"type":"error","name":"ArrayOutOfBounds","inputs":[]},{"type":"error","name":"DepositMoreThanMax","inputs":[]},{"type":"error","name":"DepositNotSupported","inputs":[]},{"type":"error","name":"ERC1967InvalidImplementation","inputs":[{"name":"implementation","type":"address","internalType":"address"}]},{"type":"error","name":"ERC1967NonPayable","inputs":[]},{"type":"error","name":"FailedCall","inputs":[]},{"type":"error","name":"InsufficientAllowance","inputs":[]},{"type":"error","name":"InsufficientBalance","inputs":[]},{"type":"error","name":"InsufficientGovMitoBalance","inputs":[]},{"type":"error","name":"InvalidAmount","inputs":[]},{"type":"error","name":"InvalidInitialization","inputs":[]},{"type":"error","name":"InvalidPermit","inputs":[]},{"type":"error","name":"MinStakingAmountNotMet","inputs":[]},{"type":"error","name":"MinUnstakingAmountNotMet","inputs":[]},{"type":"error","name":"MintMoreThanMax","inputs":[]},{"type":"error","name":"NoClaimableWithdrawals","inputs":[]},{"type":"error","name":"NoValidators","inputs":[]},{"type":"error","name":"NotApproved","inputs":[]},{"type":"error","name":"NotInitializing","inputs":[]},{"type":"error","name":"OwnableInvalidOwner","inputs":[{"name":"owner","type":"address","internalType":"address"}]},{"type":"error","name":"OwnableUnauthorizedAccount","inputs":[{"name":"account","type":"address","internalType":"address"}]},{"type":"error","name":"PeriodMustBeLongerThanGovMito","inputs":[]},{"type":"error","name":"Permit2AllowanceIsFixedAtInfinity","inputs":[]},{"type":"error","name":"PermitExpired","inputs":[]},{"type":"error","name":"RedeemMoreThanMax","inputs":[]},{"type":"error","name":"SafeCastOverflowedUintDowncast","inputs":[{"name":"bits","type":"uint8","internalType":"uint8"},{"name":"value","type":"uint256","internalType":"uint256"}]},{"type":"error","name":"TotalSupplyOverflow","inputs":[]},{"type":"error","name":"UUPSUnauthorizedCallContext","inputs":[]},{"type":"error","name":"UUPSUnsupportedProxiableUUID","inputs":[{"name":"slot","type":"bytes32","internalType":"bytes32"}]},{"type":"error","name":"Unauthorized","inputs":[]},{"type":"error","name":"WithdrawMoreThanMax","inputs":[]},{"type":"error","name":"ZeroAddress","inputs":[]},{"type":"error","name":"ZeroAmount","inputs":[]}],"bytecode":{"object":"0x61014060405230608052348015610014575f5ffd5b506040516158b83803806158b8833981016040819052610033916101f5565b6001600160a01b03851661005a5760405163d92e233d60e01b815260040160405180910390fd5b6001600160a01b0384166100815760405163d92e233d60e01b815260040160405180910390fd5b6001600160a01b0383166100a85760405163d92e233d60e01b815260040160405180910390fd5b6001600160a01b0382166100cf5760405163d92e233d60e01b815260040160405180910390fd5b6001600160a01b0381166100f65760405163d92e233d60e01b815260040160405180910390fd5b6100fe610128565b6001600160a01b0394851660a05292841660c05290831660e0528216610100521661012052610256565b7ff0c57e16840df040f15088dc2f81fe391c3923bec73e23a9662efc9c229c6a00805468010000000000000000900460ff16156101785760405163f92ee8a960e01b815260040160405180910390fd5b80546001600160401b03908116146101d75780546001600160401b0319166001600160401b0390811782556040519081527fc7f505b2f371ae2175ee4913f4499e1f2633a7b5936321eed1cdaeb6115181d29060200160405180910390a15b50565b80516001600160a01b03811681146101f0575f5ffd5b919050565b5f5f5f5f5f60a08688031215610209575f5ffd5b610212866101da565b9450610220602087016101da565b935061022e604087016101da565b925061023c606087016101da565b915061024a608087016101da565b90509295509295909350565b60805160a05160c05160e051610100516101205161552d61038b5f395f8181610546015281816126490152818161272f015261403801525f8181610ada015261134301525f81816109e201528181610f020152818161217601528181612a4901528181612ca301528181613030015281816130d9015281816133c3015281816135d101528181613bd901528181613db80152613e9a01525f81816108b50152818161143c01528181611515015281816115ee0152818161193a01528181611a1d01528181611afd01528181612b350152612bef01525f81816106be015281816109af01528181610e50015281816121b4015281816128710152818161291b015281816131bb015281816133130152818161400a015261419b01525f81816136fe0152818161372701526138d7015261552d5ff3fe6080604052600436106103a8575f3560e01c806395d89b41116101e9578063c49baebe11610108578063d547741f1161009d578063eb9259ef1161006d578063eb9259ef14610da5578063ef8b30f714610dc4578063f2fde38b14610de3578063f69e204614610e02575f5ffd5b8063d547741f14610d29578063d905777e14610d48578063dd62ed3e14610d67578063e9dc5e5b14610d86575f5ffd5b8063cd2ba69c116100d8578063cd2ba69c14610c7d578063ce96cb7714610c9c578063d41e972014610cbb578063d505accf14610d0a575f5ffd5b8063c49baebe14610c0c578063c63d75b614610701578063c6e6f59214610c3f578063ca15c87314610c5e575f5ffd5b8063ae9483e01161017e578063b8a15e3a1161014e578063b8a15e3a14610b82578063ba08765214610b96578063bca7093d14610bb5578063c33fb87714610bf8575f5ffd5b8063ae9483e014610ac9578063b175eb4d14610afc578063b3d7f6b914610b44578063b460af9414610b63575f5ffd5b8063a3246ad3116101b9578063a3246ad314610a17578063a856fb3d14610a43578063a9059cbb14610a62578063ad3cb1cc14610a81575f5ffd5b806395d89b41146109595780639b9bc7fa1461099e5780639f0c2ad2146109d1578063a217fddf14610a04575f5ffd5b80633f2a33f9116102d5578063715018a61161026a5780638de728e41161023a5780638de728e4146108a45780639010d07c146108d757806391d14854146108f657806394bf804d146107b4575f5ffd5b8063715018a6146108045780637ecebe00146108185780638b3dd269146108495780638da5cb5b14610868575f5ffd5b806352d1902d116102a557806352d1902d146107535780635f537db1146107675780636e553f65146107b457806370a08231146107d3575f5ffd5b80633f2a33f9146106e2578063402d267d146107015780634cdad506146107215780634f1ef28614610740575f5ffd5b806323b872dd1161034b578063313ce5671161031b578063313ce567146105a15780633644e515146105c757806336568abe1461069157806338d52e0f146106b0575f5ffd5b806323b872dd146104c9578063248a9ca3146104e8578063266ba696146105355780632f2ff15d14610580575f5ffd5b806307a2d13a1161038657806307a2d13a14610450578063095ea7b31461046f5780630a28a4771461048e57806318160ddd146104ad575f5ffd5b806301e1d114146103ac57806301ffc9a7146103d357806306fdde0314610402575b5f5ffd5b3480156103b7575f5ffd5b506103c0610e16565b6040519081526020015b60405180910390f35b3480156103de575f5ffd5b506103f26103ed366004614b1b565b610f7e565b60405190151581526020016103ca565b34801561040d575f5ffd5b5060408051808201909152601581527f4d756e6a6120476f7665726e616e6365204d49544f000000000000000000000060208201525b6040516103ca9190614b5a565b34801561045b575f5ffd5b506103c061046a366004614b8f565b610fd9565b34801561047a575f5ffd5b506103f2610489366004614bba565b61101d565b348015610499575f5ffd5b506103c06104a8366004614b8f565b61109c565b3480156104b8575f5ffd5b506805345cdf77eb68f44c546103c0565b3480156104d4575f5ffd5b506103f26104e3366004614be4565b6110d3565b3480156104f3575f5ffd5b506103c0610502366004614b8f565b5f9081527f02dd7bc7dec4dceedda775e58dd541e08a116c6c53815c0bd028192f7b626800602052604090206001015490565b348015610540575f5ffd5b506105687f000000000000000000000000000000000000000000000000000000000000000081565b6040516001600160a01b0390911681526020016103ca565b34801561058b575f5ffd5b5061059f61059a366004614c22565b6111a2565b005b3480156105ac575f5ffd5b506105b56111eb565b60405160ff90911681526020016103ca565b3480156105d2575f5ffd5b50604080518082018252601581527f4d756e6a6120476f7665726e616e6365204d49544f000000000000000000000060209182015281517f8b73c3c69bb8fe3d512ecc4cf759cc79239f7b179b0ffacaa9a75d522b39400f81527f509709fdad85d79baafa2bbb6f6f220180095ef3f1638b9d81b3ed8feec9a63f918101919091527fc89efdaa54c0f20c7adf612882df0950f5a951637e0307cdcb4c672f298b8bc69181019190915246606082015230608082015260a090206103c0565b34801561069c575f5ffd5b5061059f6106ab366004614c22565b611201565b3480156106bb575f5ffd5b507f0000000000000000000000000000000000000000000000000000000000000000610568565b3480156106ed575f5ffd5b506103c06106fc366004614c98565b611252565b34801561070c575f5ffd5b506103c061071b366004614ceb565b505f1990565b34801561072c575f5ffd5b506103c061073b366004614b8f565b61179f565b61059f61074e366004614dd8565b6117a9565b34801561075e575f5ffd5b506103c06117c8565b348015610772575f5ffd5b507f03095cd7fd0bfe73fb3319f5811c90a09c5ce65e066162906a6c2d3022d7d50054640100000000900461ffff1660405161ffff90911681526020016103ca565b3480156107bf575f5ffd5b506103c06107ce366004614c22565b6117f6565b3480156107de575f5ffd5b506103c06107ed366004614ceb565b6387a211a2600c9081525f91909152602090205490565b34801561080f575f5ffd5b5061059f611829565b348015610823575f5ffd5b506103c0610832366004614ceb565b6338377508600c9081525f91909152602090205490565b348015610854575f5ffd5b506103c0610863366004614c98565b61183c565b348015610873575f5ffd5b507f9016d09d72d40fdae2fd8ceac6b6234c7706214fd39c1cd1e609a0528c199300546001600160a01b0316610568565b3480156108af575f5ffd5b506105687f000000000000000000000000000000000000000000000000000000000000000081565b3480156108e2575f5ffd5b506105686108f1366004614e65565b611cbe565b348015610901575f5ffd5b506103f2610910366004614c22565b5f9182527f02dd7bc7dec4dceedda775e58dd541e08a116c6c53815c0bd028192f7b626800602090815260408084206001600160a01b0393909316845291905290205460ff1690565b348015610964575f5ffd5b5060408051808201909152600681527f676d4d49544f00000000000000000000000000000000000000000000000000006020820152610443565b3480156109a9575f5ffd5b506105687f000000000000000000000000000000000000000000000000000000000000000081565b3480156109dc575f5ffd5b506105687f000000000000000000000000000000000000000000000000000000000000000081565b348015610a0f575f5ffd5b506103c05f81565b348015610a22575f5ffd5b50610a36610a31366004614b8f565b611cfe565b6040516103ca9190614e85565b348015610a4e575f5ffd5b5061059f610a5d366004614ee6565b611d3a565b348015610a6d575f5ffd5b506103f2610a7c366004614bba565b611d6f565b348015610a8c575f5ffd5b506104436040518060400160405280600581526020017f352e302e3000000000000000000000000000000000000000000000000000000081525081565b348015610ad4575f5ffd5b506105687f000000000000000000000000000000000000000000000000000000000000000081565b348015610b07575f5ffd5b506104436040518060400160405280600681526020017f76302e302e33000000000000000000000000000000000000000000000000000081525081565b348015610b4f575f5ffd5b506103c0610b5e366004614b8f565b611de6565b348015610b6e575f5ffd5b506103c0610b7d366004614eff565b611e13565b348015610b8d575f5ffd5b50610443611ebd565b348015610ba1575f5ffd5b506103c0610bb0366004614eff565b611ed9565b348015610bc0575f5ffd5b507f03095cd7fd0bfe73fb3319f5811c90a09c5ce65e066162906a6c2d3022d7d5005460405163ffffffff90911681526020016103ca565b348015610c03575f5ffd5b506103c0611f74565b348015610c17575f5ffd5b506103c07f7f11e8a47c8f6f2761361211fdf25db4167076f4c74d7c390a15f4211bc8c21481565b348015610c4a575f5ffd5b506103c0610c59366004614b8f565b611f7d565b348015610c69575f5ffd5b506103c0610c78366004614b8f565b611faa565b348015610c88575f5ffd5b5061059f610c97366004614f46565b611fe1565b348015610ca7575f5ffd5b506103c0610cb6366004614ceb565b61228b565b348015610cc6575f5ffd5b507f03095cd7fd0bfe73fb3319f5811c90a09c5ce65e066162906a6c2d3022d7d50054660100000000000090046fffffffffffffffffffffffffffffffff166103c0565b348015610d15575f5ffd5b5061059f610d24366004614f88565b6122a8565b348015610d34575f5ffd5b5061059f610d43366004614c22565b6124b1565b348015610d53575f5ffd5b506103c0610d62366004614ceb565b6124f4565b348015610d72575f5ffd5b506103c0610d81366004614ff9565b61250d565b348015610d91575f5ffd5b5061059f610da0366004615025565b612561565b348015610db0575f5ffd5b506103c0610dbf36600461503e565b612593565b348015610dcf575f5ffd5b506103c0610dde366004614b8f565b612995565b348015610dee575f5ffd5b5061059f610dfd366004614ceb565b61299f565b348015610e0d575f5ffd5b506103c06129f7565b6040517f70a082310000000000000000000000000000000000000000000000000000000081523060048201525f9081906001600160a01b037f000000000000000000000000000000000000000000000000000000000000000016906370a0823190602401602060405180830381865afa158015610e95573d5f5f3e3d5ffd5b505050506040513d601f19601f82011682018060405250810190610eb9919061507d565b6040517f2d9a2c1c00000000000000000000000000000000000000000000000000000000815230600482015265ffffffffffff421660248201529091505f906001600160a01b037f00000000000000000000000000000000000000000000000000000000000000001690632d9a2c1c90604401602060405180830381865afa158015610f47573d5f5f3e3d5ffd5b505050506040513d601f19601f82011682018060405250810190610f6b919061507d565b9050610f7781836150c1565b9250505090565b5f7fffffffff0000000000000000000000000000000000000000000000000000000082167f5a05180f000000000000000000000000000000000000000000000000000000001480610fd35750610fd382612ded565b92915050565b5f610fe6565b9392505050565b5f610fdf83610ff3610e16565b610ffe9060016150c1565b6110186110126805345cdf77eb68f44c5490565b60010190565b612e83565b5f6001600160a01b0383166e22d473030f116ddee9f6b43ac78ba3188219151761104e57633f68539a5f526004601cfd5b82602052637f5e9f20600c52335f52816034600c2055815f52602c5160601c337f8c5be1e5ebec7d5bd14f71427d1e84f3dd0314c0f7b2291e5b200ac8c7c3b92560205fa350600192915050565b5f6110a7565b612f11565b5f610fdf836110bd6805345cdf77eb68f44c5490565b6110c89060016150c1565b6110a2611012610e16565b5f8360601b6e22d473030f116ddee9f6b43ac78ba333146111285733602052637f5e9f208117600c526034600c208054801915611125578085111561111f576313be252b5f526004601cfd5b84810382555b50505b6387a211a28117600c526020600c2080548085111561114e5763f4d678b85f526004601cfd5b84810382555050835f526020600c208381540181555082602052600c5160601c8160601c7fddf252ad1be2c89b69c2b068fc378daa952ba7f163c4a11628f55a4df523b3ef602080a3505060019392505050565b5f8281527f02dd7bc7dec4dceedda775e58dd541e08a116c6c53815c0bd028192f7b62680060205260409020600101546111db81612f3d565b6111e58383612f47565b50505050565b5f6111f6565b905090565b6111f15f6012615113565b6001600160a01b0381163314611243576040517f6697b23200000000000000000000000000000000000000000000000000000000815260040160405180910390fd5b61124d8282612f9c565b505050565b5f8261128a576040517f1f2a200500000000000000000000000000000000000000000000000000000000815260040160405180910390fd5b6001600160a01b0382166112ca576040517fd92e233d00000000000000000000000000000000000000000000000000000000815260040160405180910390fd5b6112d2612fe8565b505f805b8481101561170d575f8686838181106112f1576112f161512c565b90506020020160208101906113069190614ceb565b6040517f4f1811dd0000000000000000000000000000000000000000000000000000000081526001600160a01b0380831660048301529192505f917f00000000000000000000000000000000000000000000000000000000000000001690634f1811dd906024015f60405180830381865afa158015611387573d5f5f3e3d5ffd5b505050506040513d5f823e601f3d908101601f191682016040526113ae91908101906151b1565b6060015190506001600160a01b03811633146113f6576040517f82b4290000000000000000000000000000000000000000000000000000000000815260040160405180910390fd5b6040517f548c81cd0000000000000000000000000000000000000000000000000000000081526001600160a01b03828116600483015283811660248301523060448301527f0000000000000000000000000000000000000000000000000000000000000000169063548c81cd90606401602060405180830381865afa158015611481573d5f5f3e3d5ffd5b505050506040513d601f19601f820116820180604052508101906114a5919061529a565b6114db576040517fc19f17a900000000000000000000000000000000000000000000000000000000815260040160405180910390fd5b6040517f0c1b8fd90000000000000000000000000000000000000000000000000000000081526001600160a01b0383811660048301525f917f000000000000000000000000000000000000000000000000000000000000000090911690630c1b8fd9906024016040805180830381865afa15801561155b573d5f5f3e3d5ffd5b505050506040513d601f19601f8201168201806040525081019061157f91906152b9565b509050805f0361159157505050611705565b5f61159b82612995565b90506115a78882613267565b6115b181886150c1565b6040517f2fad885c0000000000000000000000000000000000000000000000000000000081526001600160a01b0386811660048301529198505f917f00000000000000000000000000000000000000000000000000000000000000001690632fad885c906024016020604051808303815f875af1158015611634573d5f5f3e3d5ffd5b505050506040513d601f19601f82011682018060405250810190611658919061507d565b9050828114611693576040517f55e97b0d00000000000000000000000000000000000000000000000000000000815260040160405180910390fd5b61169d81886150c1565b9650886001600160a01b0316846001600160a01b0316866001600160a01b03167f99c316a57461c45196b8ac0ed66bf269bcc09fab7d72e9502da47dd02acdc1a884866040516116f7929190918252602082015260400190565b60405180910390a450505050505b6001016112d6565b505f8211611747576040517f1f2a200500000000000000000000000000000000000000000000000000000000815260040160405180910390fd5b60408051828152602081018490526001600160a01b0385169133917fdcbc1c05240f31ff3ad067ef1ee35ce4997762752e3a095284754544f4c709d7910160405180910390a361179781836132e3565b509392505050565b5f610fd382610fd9565b6117b16136f3565b6117ba826137c3565b6117c482826137cb565b5050565b5f6117d16138cc565b507f360894a13ba1a3210667c828492db98dca3e2076cc3735a920a3ca505d382bbc90565b5f6040517fb5f7241000000000000000000000000000000000000000000000000000000000815260040160405180910390fd5b61183161392e565b61183a5f6139a2565b565b5f82611874576040517f1f2a200500000000000000000000000000000000000000000000000000000000815260040160405180910390fd5b6001600160a01b0382166118b4576040517fd92e233d00000000000000000000000000000000000000000000000000000000815260040160405180910390fd5b6118bc612fe8565b50335f805b85811015611c1b575f8787838181106118dc576118dc61512c565b90506020020160208101906118f19190614ceb565b6040517f8d12c2c60000000000000000000000000000000000000000000000000000000081526001600160a01b03868116600483015280831660248301523060448301529192507f000000000000000000000000000000000000000000000000000000000000000090911690638d12c2c690606401602060405180830381865afa158015611981573d5f5f3e3d5ffd5b505050506040513d601f19601f820116820180604052508101906119a5919061529a565b6119db576040517fc19f17a900000000000000000000000000000000000000000000000000000000815260040160405180910390fd5b6040517ffca49d590000000000000000000000000000000000000000000000000000000081526001600160a01b03858116600483015282811660248301525f917f00000000000000000000000000000000000000000000000000000000000000009091169063fca49d59906044016040805180830381865afa158015611a63573d5f5f3e3d5ffd5b505050506040513d601f19601f82011682018060405250810190611a8791906152b9565b509050805f03611a98575050611c13565b5f611aa282612995565b9050611aae8882613267565b611ab881886150c1565b6040517f9977de770000000000000000000000000000000000000000000000000000000081526001600160a01b03888116600483015285811660248301529198505f917f00000000000000000000000000000000000000000000000000000000000000001690639977de77906044016020604051808303815f875af1158015611b43573d5f5f3e3d5ffd5b505050506040513d601f19601f82011682018060405250810190611b67919061507d565b9050828114611ba2576040517f55e97b0d00000000000000000000000000000000000000000000000000000000815260040160405180910390fd5b611bac81876150c1565b9550886001600160a01b0316876001600160a01b0316856001600160a01b03167feb5d7a0e4ba9555224d64f675f956a38e2522382ac84636423af615e9140de168486604051611c06929190918252602082015260400190565b60405180910390a4505050505b6001016118c1565b505f8311611c55576040517f1f2a200500000000000000000000000000000000000000000000000000000000815260040160405180910390fd5b836001600160a01b0316826001600160a01b03167fdcbc1c05240f31ff3ad067ef1ee35ce4997762752e3a095284754544f4c709d78386604051611ca3929190918252602082015260400190565b60405180910390a3611cb581846132e3565b50509392505050565b5f8281527fc1f6fe24621ce81ec5827caf0253cadb74709b061630e6b55e82371705932000602081905260408220611cf69084613a2a565b949350505050565b5f8181527fc1f6fe24621ce81ec5827caf0253cadb74709b061630e6b55e823717059320006020819052604090912060609190610fdf90613a35565b611d4261392e565b611d6c7f03095cd7fd0bfe73fb3319f5811c90a09c5ce65e066162906a6c2d3022d7d50082613a41565b50565b5f6387a211a2600c52335f526020600c20805480841115611d975763f4d678b85f526004601cfd5b83810382555050825f526020600c208281540181555081602052600c5160601c337fddf252ad1be2c89b69c2b068fc378daa952ba7f163c4a11628f55a4df523b3ef602080a350600192915050565b5f5f610fdf83611df4610e16565b611dff9060016150c1565b6110a26110126805345cdf77eb68f44c5490565b5f611e1d8461109c565b9050336001600160a01b03831614611e3a57611e3a823383613aed565b611e448282613b61565b611e4f838583613bd5565b50816001600160a01b0316836001600160a01b0316611e6b3390565b6001600160a01b03167ffbde797d201c681b91056529119e0b02407c7bb96a4a2c75c01fc9667232c8db8785604051611eae929190918252602082015260400190565b60405180910390a49392505050565b6040518060600160405280602881526020016154d06028913981565b5f611ee38461179f565b9050336001600160a01b03831614611f0057611f00823386613aed565b611f0a8285613b61565b611f15838286613bd5565b50816001600160a01b0316836001600160a01b0316611f313390565b6001600160a01b03167ffbde797d201c681b91056529119e0b02407c7bb96a4a2c75c01fc9667232c8db8488604051611eae929190918252602082015260400190565b5f6111f1612fe8565b5f5f610fdf83611f946805345cdf77eb68f44c5490565b611f9f9060016150c1565b611018611012610e16565b5f8181527fc1f6fe24621ce81ec5827caf0253cadb74709b061630e6b55e82371705932000602081905260408220610fdf90614176565b7ff0c57e16840df040f15088dc2f81fe391c3923bec73e23a9662efc9c229c6a00805468010000000000000000810460ff16159067ffffffffffffffff165f8115801561202b5750825b90505f8267ffffffffffffffff1660011480156120475750303b155b905081158015612055575080155b1561208c576040517ff92ee8a900000000000000000000000000000000000000000000000000000000815260040160405180910390fd5b84547fffffffffffffffffffffffffffffffffffffffffffffffff000000000000000016600117855583156120ed5784547fffffffffffffffffffffffffffffffffffffffffffffff00ffffffffffffffff16680100000000000000001785555b6120f68861417f565b6120fe614190565b612106614190565b7f03095cd7fd0bfe73fb3319f5811c90a09c5ce65e066162906a6c2d3022d7d5006121318189614198565b61213b8188613a41565b6121455f8a612f47565b506040517f095ea7b30000000000000000000000000000000000000000000000000000000081526001600160a01b037f0000000000000000000000000000000000000000000000000000000000000000811660048301526fffffffffffffffffffffffffffffffff60248301527f0000000000000000000000000000000000000000000000000000000000000000169063095ea7b3906044016020604051808303815f875af11580156121fa573d5f5f3e3d5ffd5b505050506040513d601f19601f8201168201806040525081019061221e919061529a565b505083156122815784547fffffffffffffffffffffffffffffffffffffffffffffff00ffffffffffffffff168555604051600181527fc7f505b2f371ae2175ee4913f4499e1f2633a7b5936321eed1cdaeb6115181d29060200160405180910390a15b5050505050505050565b6387a211a2600c9081525f828152602090912054610fd390610fd9565b6001600160a01b0386166e22d473030f116ddee9f6b43ac78ba318851915176122d857633f68539a5f526004601cfd5b60408051808201909152601581527f4d756e6a6120476f7665726e616e6365204d49544f00000000000000000000006020909101527f509709fdad85d79baafa2bbb6f6f220180095ef3f1638b9d81b3ed8feec9a63f7fc89efdaa54c0f20c7adf612882df0950f5a951637e0307cdcb4c672f298b8bc64286101561236457631a15a3cc5f526004601cfd5b6040518960601b60601c99508860601b60601c985065383775081901600e52895f526020600c2080547f8b73c3c69bb8fe3d512ecc4cf759cc79239f7b179b0ffacaa9a75d522b39400f835284602084015283604084015246606084015230608084015260a08320602e527f6e71edae12b1b97f4d1f60370fef10105fa2faae0126114a169c64845d6126c983528b60208401528a60408401528960608401528060808401528860a084015260c08320604e526042602c205f528760ff16602052866040528560605260208060805f60015afa8c3d511461244c5763ddafbaef5f526004601cfd5b019055777f5e9f20000000000000000000000000000000000000000089176040526034602c20889055888a7f8c5be1e5ebec7d5bd14f71427d1e84f3dd0314c0f7b2291e5b200ac8c7c3b925602060608501a360405250505f60605250505050505050565b5f8281527f02dd7bc7dec4dceedda775e58dd541e08a116c6c53815c0bd028192f7b62680060205260409020600101546124ea81612f3d565b6111e58383612f9c565b6387a211a2600c9081525f828152602090912054610fd3565b5f7fffffffffffffffffffffffffffffffffffdd2b8cfcf0ee922116094bc538745d6001600160a01b0383160161254657505f19610fd3565b50602052637f5e9f20600c9081525f91909152603490205490565b61256961392e565b611d6c7f03095cd7fd0bfe73fb3319f5811c90a09c5ce65e066162906a6c2d3022d7d50082614198565b5f7f03095cd7fd0bfe73fb3319f5811c90a09c5ce65e066162906a6c2d3022d7d5008280158015906125d257508154640100000000900461ffff168111155b612608576040517f7f52b2bf00000000000000000000000000000000000000000000000000000000815260040160405180910390fd5b81545f9061261c9063ffffffff16426152db565b90505f80805b8481101561279c575f89898381811061263d5761263d61512c565b9050602002013590505f7f00000000000000000000000000000000000000000000000000000000000000006001600160a01b031663ae485651836040518263ffffffff1660e01b815260040161269591815260200190565b60e060405180830381865afa1580156126b0573d5f5f3e3d5ffd5b505050506040513d601f19601f820116820180604052508101906126d491906152ee565b9050858160800151116127005760408101516126f090866150c1565b9450836126fc81615373565b9450505b6040517f42966c68000000000000000000000000000000000000000000000000000000008152600481018390527f00000000000000000000000000000000000000000000000000000000000000006001600160a01b0316906342966c68906024015f604051808303815f87803b158015612778575f5ffd5b505af115801561278a573d5f5f3e3d5ffd5b50506001909401935061262292505050565b505f82116127d6576040517fde3ae6c900000000000000000000000000000000000000000000000000000000815260040160405180910390fd5b6127df826142c2565b8554869060069061280d908490660100000000000090046fffffffffffffffffffffffffffffffff1661538b565b82546fffffffffffffffffffffffffffffffff9182166101009390930a9283029190920219909116179055506040517f516c49d90000000000000000000000000000000000000000000000000000000081523060048201525f906001600160a01b037f0000000000000000000000000000000000000000000000000000000000000000169063516c49d9906024016020604051808303815f875af11580156128b7573d5f5f3e3d5ffd5b505050506040513d601f19601f820116820180604052508101906128db919061507d565b9050828114612916576040517f55e97b0d00000000000000000000000000000000000000000000000000000000815260040160405180910390fd5b6129417f0000000000000000000000000000000000000000000000000000000000000000338361431b565b336001600160a01b03167f275d1eddff96a5dd267d837827edbe3c4b5cc47da462722167639c6fb26cad9984848c8c60405161298094939291906153b3565b60405180910390a25090979650505050505050565b5f610fd382611f7d565b6129a761392e565b6001600160a01b0381166129ee576040517f1e4fbdf70000000000000000000000000000000000000000000000000000000081525f60048201526024015b60405180910390fd5b611d6c816139a2565b5f612a00612fe8565b505f612a0a61436e565b90505f815111612a46576040517f9fc51d3800000000000000000000000000000000000000000000000000000000815260040160405180910390fd5b5f7f00000000000000000000000000000000000000000000000000000000000000006001600160a01b03166325c065b16040518163ffffffff1660e01b8152600401602060405180830381865afa158015612aa3573d5f5f3e3d5ffd5b505050506040513d601f19601f82011682018060405250810190612ac7919061507d565b90505f5b8251811015612dae575f838281518110612ae757612ae761512c565b60209081029190910101516040517ffca49d590000000000000000000000000000000000000000000000000000000081523060048201526001600160a01b0380831660248301529192505f917f0000000000000000000000000000000000000000000000000000000000000000169063fca49d59906044016040805180830381865afa158015612b79573d5f5f3e3d5ffd5b505050506040513d601f19601f82011682018060405250810190612b9d91906152b9565b50905083811015612baf575050612da6565b6040517f9977de770000000000000000000000000000000000000000000000000000000081523060048201526001600160a01b0383811660248301525f917f000000000000000000000000000000000000000000000000000000000000000090911690639977de77906044016020604051808303815f875af1158015612c37573d5f5f3e3d5ffd5b505050506040513d601f19601f82011682018060405250810190612c5b919061507d565b6040517fbf6eac2f0000000000000000000000000000000000000000000000000000000081526001600160a01b038581166004830152306024830152604482018390529192507f00000000000000000000000000000000000000000000000000000000000000009091169063bf6eac2f906064016020604051808303815f875af1158015612ceb573d5f5f3e3d5ffd5b505050506040513d601f19601f82011682018060405250810190612d0f919061507d565b50826001600160a01b03167fee7393505f4f8617cad79e74b3325ee5423113e8026ff3ae90ff72f8c0afcc6182604051612d4b91815260200190565b60405180910390a2826001600160a01b03167f8ce0a2fad3764c1fd039c26f784a2d7490f96db7928a834db2330abc1efd294482604051612d8e91815260200190565b60405180910390a2612da081886150c1565b96505050505b600101612acb565b505f8311612de8576040517f1f2a200500000000000000000000000000000000000000000000000000000000815260040160405180910390fd5b505090565b5f7fffffffff0000000000000000000000000000000000000000000000000000000082167f7965db0b000000000000000000000000000000000000000000000000000000001480610fd357507f01ffc9a7000000000000000000000000000000000000000000000000000000007fffffffff00000000000000000000000000000000000000000000000000000000831614610fd3565b82820281838583041485151702612f0a575f198385098181108201900382848609835f038416828511612ebd5763ae47f7025f526004601cfd5b93849004938382119092035f839003839004600101029203041760026003830281188084028203028084028203028084028203028084028203028084028203028084029091030202610fdf565b0492915050565b5f612f1d848484612e83565b90508183850915610fdf5760010180610fdf5763ae47f7025f526004601cfd5b611d6c813361444f565b5f7fc1f6fe24621ce81ec5827caf0253cadb74709b061630e6b55e8237170593200081612f7485856144db565b90508015611cf6575f858152602083905260409020612f9390856145c5565b50949350505050565b5f7fc1f6fe24621ce81ec5827caf0253cadb74709b061630e6b55e8237170593200081612fc985856145d9565b90508015611cf6575f858152602083905260409020612f93908561469b565b6040517f0f1ea03100000000000000000000000000000000000000000000000000000000815230600482015265ffffffffffff421660248201525f9081906001600160a01b037f00000000000000000000000000000000000000000000000000000000000000001690630f1ea031906044016040805180830381865afa158015613074573d5f5f3e3d5ffd5b505050506040513d601f19601f8201168201806040525081019061309891906152b9565b915050805f036130a9575f91505090565b6040517fd11531da0000000000000000000000000000000000000000000000000000000081523060048201525f907f00000000000000000000000000000000000000000000000000000000000000006001600160a01b03169063d11531da906024016020604051808303815f875af1158015613127573d5f5f3e3d5ffd5b505050506040513d601f19601f8201168201806040525081019061314b919061507d565b9050818114613186576040517f55e97b0d00000000000000000000000000000000000000000000000000000000815260040160405180910390fd5b6040517f397a1b28000000000000000000000000000000000000000000000000000000008152306004820152602481018290527f00000000000000000000000000000000000000000000000000000000000000006001600160a01b03169063397a1b28906044016020604051808303815f875af1158015613209573d5f5f3e3d5ffd5b505050506040513d601f19601f8201168201806040525081019061322d919061507d565b506040518181527f518c51e3382bb09bfde923e7d331c1b3380260c646c9151d2695065ec3b035e79060200160405180910390a192915050565b6805345cdf77eb68f44c548181018181101561328a5763e5cfe9575f526004601cfd5b806805345cdf77eb68f44c5550506387a211a2600c52815f526020600c208181540181555080602052600c5160601c5f7fddf252ad1be2c89b69c2b068fc378daa952ba7f163c4a11628f55a4df523b3ef602080a35050565b6040517f70a082310000000000000000000000000000000000000000000000000000000081523060048201525f907f00000000000000000000000000000000000000000000000000000000000000006001600160a01b0316906370a0823190602401602060405180830381865afa158015613360573d5f5f3e3d5ffd5b505050506040513d601f19601f82011682018060405250810190613384919061507d565b9050808311156133c0576040517f2c5211c600000000000000000000000000000000000000000000000000000000815260040160405180910390fd5b5f7f00000000000000000000000000000000000000000000000000000000000000006001600160a01b03166325c065b16040518163ffffffff1660e01b8152600401602060405180830381865afa15801561341d573d5f5f3e3d5ffd5b505050506040513d601f19601f82011682018060405250810190613441919061507d565b90508084101561347d576040517f2cd4a12300000000000000000000000000000000000000000000000000000000815260040160405180910390fd5b5f61348661436e565b90505f8151116134c2576040517f9fc51d3800000000000000000000000000000000000000000000000000000000815260040160405180910390fd5b80517f03095cd7fd0bfe73fb3319f5811c90a09c5ce65e066162906a6c2d3022d7d5008054909190760100000000000000000000000000000000000000000000900460ff165f613512868a61543e565b90508281111561351f5750815b5f5b8181101561368a575f8461353583866150c1565b61353f9190615451565b90505f8782815181106135545761355461512c565b602002602001015190505f848d61356b919061543e565b9050613577858e615451565b84101561358c576135896001826150c1565b90505b6040517fbf6eac2f0000000000000000000000000000000000000000000000000000000081526001600160a01b038381166004830152306024830152604482018390527f0000000000000000000000000000000000000000000000000000000000000000169063bf6eac2f906064016020604051808303815f875af1158015613617573d5f5f3e3d5ffd5b505050506040513d601f19601f8201168201806040525081019061363b919061507d565b50816001600160a01b03167fee7393505f4f8617cad79e74b3325ee5423113e8026ff3ae90ff72f8c0afcc618260405161367791815260200190565b60405180910390a2505050600101613521565b508261369682846150c1565b6136a09190615451565b845460ff91909116760100000000000000000000000000000000000000000000027fffffffffffffffffff00ffffffffffffffffffffffffffffffffffffffffffff909116179093555050505050505050565b306001600160a01b037f000000000000000000000000000000000000000000000000000000000000000016148061378c57507f00000000000000000000000000000000000000000000000000000000000000006001600160a01b03166137807f360894a13ba1a3210667c828492db98dca3e2076cc3735a920a3ca505d382bbc546001600160a01b031690565b6001600160a01b031614155b1561183a576040517fe07c8dba00000000000000000000000000000000000000000000000000000000815260040160405180910390fd5b611d6c61392e565b816001600160a01b03166352d1902d6040518163ffffffff1660e01b8152600401602060405180830381865afa925050508015613825575060408051601f3d908101601f191682019092526138229181019061507d565b60015b613866576040517f4c9c8ce30000000000000000000000000000000000000000000000000000000081526001600160a01b03831660048201526024016129e5565b7f360894a13ba1a3210667c828492db98dca3e2076cc3735a920a3ca505d382bbc81146138c2576040517faa1d49a4000000000000000000000000000000000000000000000000000000008152600481018290526024016129e5565b61124d83836146af565b306001600160a01b037f0000000000000000000000000000000000000000000000000000000000000000161461183a576040517fe07c8dba00000000000000000000000000000000000000000000000000000000815260040160405180910390fd5b336139607f9016d09d72d40fdae2fd8ceac6b6234c7706214fd39c1cd1e609a0528c199300546001600160a01b031690565b6001600160a01b03161461183a576040517f118cdaa70000000000000000000000000000000000000000000000000000000081523360048201526024016129e5565b7f9016d09d72d40fdae2fd8ceac6b6234c7706214fd39c1cd1e609a0528c19930080547fffffffffffffffffffffffff000000000000000000000000000000000000000081166001600160a01b03848116918217845560405192169182907f8be0079c531659141344cd1fd0a4f28419497f9722a3daafe3b4186f6b6457e0905f90a3505050565b5f610fdf8383614704565b60605f610fdf8361472a565b5f8161ffff1611613a7e576040517f1f2a200500000000000000000000000000000000000000000000000000000000815260040160405180910390fd5b81547fffffffffffffffffffffffffffffffffffffffffffffffffffff0000ffffffff1664010000000061ffff83169081029190911783556040519081527fbcc67804a344da64a5fefefd56b8a0ac6f24d86f0081fb606a152177f28477de9060200160405180910390a15050565b7fffffffffffffffffffffffffffffffffffdd2b8cfcf0ee922116094bc538745d6001600160a01b03831601613b2257505050565b81602052637f5e9f20600c52825f526034600c208054801915613b5a5780831115613b54576313be252b5f526004601cfd5b82810382555b5050505050565b6387a211a2600c52815f526020600c20805480831115613b885763f4d678b85f526004601cfd5b82900390556805345cdf77eb68f44c805482900390555f8181526001600160a01b0383167fddf252ad1be2c89b69c2b068fc378daa952ba7f163c4a11628f55a4df523b3ef602083a35050565b5f5f7f00000000000000000000000000000000000000000000000000000000000000006001600160a01b0316633a152f1b6040518163ffffffff1660e01b8152600401602060405180830381865afa158015613c33573d5f5f3e3d5ffd5b505050506040513d601f19601f82011682018060405250810190613c57919061507d565b905080841015613c93576040517f9e910a2800000000000000000000000000000000000000000000000000000000815260040160405180910390fd5b5f613c9c61436e565b805190915080613cd8576040517f9fc51d3800000000000000000000000000000000000000000000000000000000815260040160405180910390fd5b7f03095cd7fd0bfe73fb3319f5811c90a09c5ce65e066162906a6c2d3022d7d500805477010000000000000000000000000000000000000000000000900460ff164288825f5b8681108015613d2c57505f83115b15613f40575f87613d3d83886150c1565b613d479190615451565b90505f898281518110613d5c57613d5c61512c565b60209081029190910101516040517fbcdf1d8b0000000000000000000000000000000000000000000000000000000081526001600160a01b03808316600483015230602483015265ffffffffffff891660448301529192505f917f0000000000000000000000000000000000000000000000000000000000000000169063bcdf1d8b90606401602060405180830381865afa158015613dfd573d5f5f3e3d5ffd5b505050506040513d601f19601f82011682018060405250810190613e21919061507d565b9050805f03613e3257505050613f2e565b5f818711613e405786613e42565b815b90508c811015613e555750505050613f2e565b6040517f4288d3aa0000000000000000000000000000000000000000000000000000000081526001600160a01b038481166004830152306024830152604482018390527f00000000000000000000000000000000000000000000000000000000000000001690634288d3aa906064016020604051808303815f875af1158015613ee0573d5f5f3e3d5ffd5b505050506040513d601f19601f82011682018060405250810190613f04919061507d565b50613f0f81886152db565b96508a613f1d8560016150c1565b613f279190615451565b9550505050505b80613f3881615373565b915050613d1e565b508115613f79576040517f1645a15300000000000000000000000000000000000000000000000000000000815260040160405180910390fd5b84547fffffffffffffffff00ffffffffffffffffffffffffffffffffffffffffffffff167701000000000000000000000000000000000000000000000060ff8316021785556040517fff525efa0000000000000000000000000000000000000000000000000000000081526001600160a01b038d81166004830152602482018d9052604482018c90524260648301527f0000000000000000000000000000000000000000000000000000000000000000811660848301523060a48301527f0000000000000000000000000000000000000000000000000000000000000000169063ff525efa9060c4016020604051808303815f875af115801561407e573d5f5f3e3d5ffd5b505050506040513d601f19601f820116820180604052508101906140a2919061507d565b98506140ad8b6142c2565b855486906006906140db908490660100000000000090046fffffffffffffffffffffffffffffffff16615464565b92506101000a8154816fffffffffffffffffffffffffffffffff02191690836fffffffffffffffffffffffffffffffff1602179055508b6001600160a01b03167f38e3d972947cfef94205163d483d6287ef27eb312e20cb8e0b13a49989db232e8c8c8c60405161415f939291909283526020830191909152604082015260600190565b60405180910390a250505050505050509392505050565b5f610fd3825490565b614187614783565b611d6c816147ea565b61183a614783565b5f7f00000000000000000000000000000000000000000000000000000000000000006001600160a01b031663bca7093d6040518163ffffffff1660e01b8152600401602060405180830381865afa1580156141f5573d5f5f3e3d5ffd5b505050506040513d601f19601f82011682018060405250810190614219919061507d565b90508163ffffffff16811061425a576040517f106d4b7900000000000000000000000000000000000000000000000000000000815260040160405180910390fd5b82547fffffffffffffffffffffffffffffffffffffffffffffffffffffffff000000001663ffffffff831690811784556040519081527f208c92ef4d5bbb2d8447ddf6bbc0d213383e81bb886d96320112c35b5f5209079060200160405180910390a1505050565b5f6fffffffffffffffffffffffffffffffff821115614317576040517f6dfcc65000000000000000000000000000000000000000000000000000000000815260806004820152602481018390526044016129e5565b5090565b81601452806034526fa9059cbb0000000000000000000000005f5260205f604460105f875af18060015f51141661436457803d853b151710614364576390b8ec185f526004601cfd5b505f603452505050565b60605f61439a7f7f11e8a47c8f6f2761361211fdf25db4167076f4c74d7c390a15f4211bc8c214611faa565b90505f8167ffffffffffffffff8111156143b6576143b6614d06565b6040519080825280602002602001820160405280156143df578160200160208202803683370190505b5090505f5b82811015614448576144167f7f11e8a47c8f6f2761361211fdf25db4167076f4c74d7c390a15f4211bc8c21482611cbe565b8282815181106144285761442861512c565b6001600160a01b03909216602092830291909101909101526001016143e4565b5092915050565b5f8281527f02dd7bc7dec4dceedda775e58dd541e08a116c6c53815c0bd028192f7b626800602090815260408083206001600160a01b038516845290915290205460ff166117c4576040517fe2517d3f0000000000000000000000000000000000000000000000000000000081526001600160a01b0382166004820152602481018390526044016129e5565b5f8281527f02dd7bc7dec4dceedda775e58dd541e08a116c6c53815c0bd028192f7b626800602081815260408084206001600160a01b038616855290915282205460ff166145bc575f848152602082815260408083206001600160a01b0387168452909152902080547fffffffffffffffffffffffffffffffffffffffffffffffffffffffffffffff001660011790556145723390565b6001600160a01b0316836001600160a01b0316857f2f8788117e7eff1d82e926ec794901d17c78024a50270940304540a733656f0d60405160405180910390a46001915050610fd3565b5f915050610fd3565b5f610fdf836001600160a01b0384166147f2565b5f8281527f02dd7bc7dec4dceedda775e58dd541e08a116c6c53815c0bd028192f7b626800602081815260408084206001600160a01b038616855290915282205460ff16156145bc575f848152602082815260408083206001600160a01b038716808552925280832080547fffffffffffffffffffffffffffffffffffffffffffffffffffffffffffffff0016905551339287917ff6391f5c32d9c69d2a47ea670b442974b53935d1edc7fd64eb21e047a839171b9190a46001915050610fd3565b5f610fdf836001600160a01b03841661483e565b6146b882614918565b6040516001600160a01b038316907fbc7cd75a20ee27fd9adebab32041f755214dbc6bffa90cc0225b39da2e5c2d3b905f90a28051156146fc5761124d82826149bf565b6117c4614a31565b5f825f0182815481106147195761471961512c565b905f5260205f200154905092915050565b6060815f0180548060200260200160405190810160405280929190818152602001828054801561477757602002820191905f5260205f20905b815481526020019060010190808311614763575b50505050509050919050565b7ff0c57e16840df040f15088dc2f81fe391c3923bec73e23a9662efc9c229c6a005468010000000000000000900460ff1661183a576040517fd7e6bcf800000000000000000000000000000000000000000000000000000000815260040160405180910390fd5b6129a7614783565b5f81815260018301602052604081205461483757508154600181810184555f848152602080822090930184905584548482528286019093526040902091909155610fd3565b505f610fd3565b5f81815260018301602052604081205480156145bc575f6148606001836152db565b85549091505f90614873906001906152db565b90508082146148d2575f865f0182815481106148915761489161512c565b905f5260205f200154905080875f0184815481106148b1576148b161512c565b5f918252602080832090910192909255918252600188019052604090208390555b85548690806148e3576148e361548c565b600190038181905f5260205f20015f90559055856001015f8681526020019081526020015f205f905560019350505050610fd3565b806001600160a01b03163b5f03614966576040517f4c9c8ce30000000000000000000000000000000000000000000000000000000081526001600160a01b03821660048201526024016129e5565b7f360894a13ba1a3210667c828492db98dca3e2076cc3735a920a3ca505d382bbc80547fffffffffffffffffffffffff0000000000000000000000000000000000000000166001600160a01b0392909216919091179055565b60605f5f846001600160a01b0316846040516149db91906154b9565b5f60405180830381855af49150503d805f8114614a13576040519150601f19603f3d011682016040523d82523d5f602084013e614a18565b606091505b5091509150614a28858383614a69565b95945050505050565b341561183a576040517fb398979f00000000000000000000000000000000000000000000000000000000815260040160405180910390fd5b606082614a7957610fdf82614ad9565b8151158015614a9057506001600160a01b0384163b155b15614ad2576040517f9996b3150000000000000000000000000000000000000000000000000000000081526001600160a01b03851660048201526024016129e5565b5080610fdf565b805115614ae95780518082602001fd5b6040517fd6bda27500000000000000000000000000000000000000000000000000000000815260040160405180910390fd5b5f60208284031215614b2b575f5ffd5b81357fffffffff0000000000000000000000000000000000000000000000000000000081168114610fdf575f5ffd5b602081525f82518060208401528060208501604085015e5f604082850101526040601f19601f83011684010191505092915050565b5f60208284031215614b9f575f5ffd5b5035919050565b6001600160a01b0381168114611d6c575f5ffd5b5f5f60408385031215614bcb575f5ffd5b8235614bd681614ba6565b946020939093013593505050565b5f5f5f60608486031215614bf6575f5ffd5b8335614c0181614ba6565b92506020840135614c1181614ba6565b929592945050506040919091013590565b5f5f60408385031215614c33575f5ffd5b823591506020830135614c4581614ba6565b809150509250929050565b5f5f83601f840112614c60575f5ffd5b50813567ffffffffffffffff811115614c77575f5ffd5b6020830191508360208260051b8501011115614c91575f5ffd5b9250929050565b5f5f5f60408486031215614caa575f5ffd5b833567ffffffffffffffff811115614cc0575f5ffd5b614ccc86828701614c50565b9094509250506020840135614ce081614ba6565b809150509250925092565b5f60208284031215614cfb575f5ffd5b8135610fdf81614ba6565b7f4e487b71000000000000000000000000000000000000000000000000000000005f52604160045260245ffd5b604051610100810167ffffffffffffffff81118282101715614d5757614d57614d06565b60405290565b60405160e0810167ffffffffffffffff81118282101715614d5757614d57614d06565b604051601f8201601f1916810167ffffffffffffffff81118282101715614da957614da9614d06565b604052919050565b5f67ffffffffffffffff821115614dca57614dca614d06565b50601f01601f191660200190565b5f5f60408385031215614de9575f5ffd5b8235614df481614ba6565b9150602083013567ffffffffffffffff811115614e0f575f5ffd5b8301601f81018513614e1f575f5ffd5b8035614e32614e2d82614db1565b614d80565b818152866020838501011115614e46575f5ffd5b816020840160208301375f602083830101528093505050509250929050565b5f5f60408385031215614e76575f5ffd5b50508035926020909101359150565b602080825282518282018190525f918401906040840190835b81811015614ec55783516001600160a01b0316835260209384019390920191600101614e9e565b509095945050505050565b803561ffff81168114614ee1575f5ffd5b919050565b5f60208284031215614ef6575f5ffd5b610fdf82614ed0565b5f5f5f60608486031215614f11575f5ffd5b833592506020840135614f2381614ba6565b91506040840135614ce081614ba6565b803563ffffffff81168114614ee1575f5ffd5b5f5f5f60608486031215614f58575f5ffd5b8335614f6381614ba6565b9250614f7160208501614f33565b9150614f7f60408501614ed0565b90509250925092565b5f5f5f5f5f5f5f60e0888a031215614f9e575f5ffd5b8735614fa981614ba6565b96506020880135614fb981614ba6565b95506040880135945060608801359350608088013560ff81168114614fdc575f5ffd5b9699959850939692959460a0840135945060c09093013592915050565b5f5f6040838503121561500a575f5ffd5b823561501581614ba6565b91506020830135614c4581614ba6565b5f60208284031215615035575f5ffd5b610fdf82614f33565b5f5f6020838503121561504f575f5ffd5b823567ffffffffffffffff811115615065575f5ffd5b61507185828601614c50565b90969095509350505050565b5f6020828403121561508d575f5ffd5b5051919050565b7f4e487b71000000000000000000000000000000000000000000000000000000005f52601160045260245ffd5b80820180821115610fd357610fd3615094565b600184111561510b578085048111156150ef576150ef615094565b60018416156150fd57908102905b60019390931c9280026150d4565b935093915050565b60ff8181168382160190811115610fd357610fd3615094565b7f4e487b71000000000000000000000000000000000000000000000000000000005f52603260045260245ffd5b8051614ee181614ba6565b5f82601f830112615173575f5ffd5b8151615181614e2d82614db1565b818152846020838601011115615195575f5ffd5b8160208501602083015e5f918101602001919091529392505050565b5f602082840312156151c1575f5ffd5b815167ffffffffffffffff8111156151d7575f5ffd5b820161010081850312156151e9575f5ffd5b6151f1614d33565b6151fa82615159565b8152602082015167ffffffffffffffff811115615215575f5ffd5b61522186828501615164565b60208301525061523360408301615159565b604082015261524460608301615159565b60608201526080828101519082015260a0808301519082015260c0808301519082015260e082015167ffffffffffffffff811115615280575f5ffd5b61528c86828501615164565b60e083015250949350505050565b5f602082840312156152aa575f5ffd5b81518015158114610fdf575f5ffd5b5f5f604083850312156152ca575f5ffd5b505080516020909101519092909150565b81810381811115610fd357610fd3615094565b5f60e08284031280156152ff575f5ffd5b50615308614d5d565b825161531381614ba6565b8152602083015161532381614ba6565b602082015260408381015190820152606080840151908201526080808401519082015260a083015161535481614ba6565b60a082015260c083015161536781614ba6565b60c08201529392505050565b5f5f19820361538457615384615094565b5060010190565b6fffffffffffffffffffffffffffffffff8281168282160390811115610fd357610fd3615094565b848152836020820152606060408201528160608201525f7f07ffffffffffffffffffffffffffffffffffffffffffffffffffffffffffffff8311156153f6575f5ffd5b8260051b808560808501379190910160800195945050505050565b7f4e487b71000000000000000000000000000000000000000000000000000000005f52601260045260245ffd5b5f8261544c5761544c615411565b500490565b5f8261545f5761545f615411565b500690565b6fffffffffffffffffffffffffffffffff8181168382160190811115610fd357610fd3615094565b7f4e487b71000000000000000000000000000000000000000000000000000000005f52603160045260245ffd5b5f82518060208501845e5f92019182525091905056fe62643731663266646233373135623838633465616137393962666262323365343631623931373163a26469706673582212201a35bbd73324e786cdcf188973b341f70e27474a602a2160ee96b29c79d179ff64736f6c634300081d0033","linkReferences":{}},"methodIdentifiers":{"DEFAULT_ADMIN_ROLE()":"a217fddf","DOMAIN_SEPARATOR()":"3644e515","GIT_COMMIT()":"b8a15e3a","GIT_TAG()":"b175eb4d","GOV_MITO()":"9b9bc7fa","REWARD_DISTRIBUTOR()":"8de728e4","UPGRADE_INTERFACE_VERSION()":"ad3cb1cc","VALIDATOR_MANAGER()":"ae9483e0","VALIDATOR_ROLE()":"c49baebe","VALIDATOR_STAKING()":"9f0c2ad2","WITHDRAWAL_NFT()":"266ba696","allowance(address,address)":"dd62ed3e","approve(address,uint256)":"095ea7b3","asset()":"38d52e0f","balanceOf(address)":"70a08231","claimWithdraw(uint256[])":"eb9259ef","compound()":"f69e2046","convertToAssets(uint256)":"07a2d13a","convertToShares(uint256)":"c6e6f592","decimals()":"313ce567","deposit(uint256,address)":"6e553f65","getRoleAdmin(bytes32)":"248a9ca3","getRoleMember(bytes32,uint256)":"9010d07c","getRoleMemberCount(bytes32)":"ca15c873","getRoleMembers(bytes32)":"a3246ad3","grantRole(bytes32,address)":"2f2ff15d","hasRole(bytes32,address)":"91d14854","initialize(address,uint32,uint16)":"cd2ba69c","maxClaimsPerTx()":"5f537db1","maxDeposit(address)":"402d267d","maxMint(address)":"c63d75b6","maxRedeem(address)":"d905777e","maxWithdraw(address)":"ce96cb77","mint(uint256,address)":"94bf804d","name()":"06fdde03","nonces(address)":"7ecebe00","operatorMint(address[],address)":"3f2a33f9","owner()":"8da5cb5b","permit(address,address,uint256,uint256,uint8,bytes32,bytes32)":"d505accf","previewDeposit(uint256)":"ef8b30f7","previewMint(uint256)":"b3d7f6b9","previewRedeem(uint256)":"4cdad506","previewWithdraw(uint256)":"0a28a477","process()":"c33fb877","proxiableUUID()":"52d1902d","redeem(uint256,address,address)":"ba087652","renounceOwnership()":"715018a6","renounceRole(bytes32,address)":"36568abe","revokeRole(bytes32,address)":"d547741f","setMaxClaimsPerTx(uint16)":"a856fb3d","setWithdrawalPeriod(uint32)":"e9dc5e5b","supportsInterface(bytes4)":"01ffc9a7","symbol()":"95d89b41","totalAssets()":"01e1d114","totalPendingWithdrawal()":"d41e9720","totalSupply()":"18160ddd","transfer(address,uint256)":"a9059cbb","transferFrom(address,address,uint256)":"23b872dd","transferOwnership(address)":"f2fde38b","upgradeToAndCall(address,bytes)":"4f1ef286","userMint(address[],address)":"8b3dd269","withdraw(uint256,address,address)":"b460af94","withdrawalPeriod()":"bca7093d"},"id":122}