{"abi":[{"type":"function","name":"Verify","inputs":[{"name":"proof","type":"uint256[8]","internalType":"uint256[8]"},{"name":"input","type":"uint256[2]","internalType":"uint256[2]"}],"outputs":[],"stateMutability":"view"},{"type":"function","name":"compressProof","inputs":[{"name":"proof","type":"uint256[8]","internalType":"uint256[8]"}],"outputs":[{"name":"compressed","type":"uint256[4]","internalType":"uint256[4]"}],"stateMutability":"view"},{"type":"function","name":"verifyCompressedProof","inputs":[{"name":"compressedProof","type":"uint256[4]","internalType":"uint256[4]"},{"name":"input","type":"uint256[2]","internalType":"uint256[2]"}],"outputs":[],"stateMutability":"view"},{"type":"error","name":"ProofInvalid","inputs":[]},{"type":"error","name":"PublicInputNotInField","inputs":[]}],"bytecode":{"object":"0x6080604052348015600e575f5ffd5b5061198a8061001c5f395ff3fe608060405234801561000f575f5ffd5b506004361061003f575f3560e01c806344f6369214610043578063eddf243c1461006c578063f11817b214610081575b5f5ffd5b610056610051366004611820565b610094565b6040516100639190611842565b60405180910390f35b61007f61007a366004611882565b6100f1565b005b61007f61008f3660046118b7565b610387565b61009c6117b4565b6100af82358360015b60200201356106b9565b81526100cd6060830135604084013560a08501356080860135610855565b602083015260408201526100e760c08301358360076100a5565b6060820152919050565b5f5f6100fc83610d25565b915091505f6040516101008682377f1cc7cb8de715675f21f01ecc9b46d236e0865e0cc020024521998269845f74e66101008201527f03ff41f4ba0c37fe2caf27354d28e4b8f83d3b76777a63b327d736bffb0122ed6101208201527f01909cd7827e0278e6b60843a4abc7b111d7f8b2725cd5902a6b20da7a2938fb6101408201527f192bd3274441670227b4f69a44005b8711266e474227c6439ca25ca8e1ec1fc26101608201527f2d4d9aa7e302d9df41749d5507949d05dbea33fbb16c643b22f599a2be6df2e26101808201527f14bedd503c37ceb061d8ec60209fe345ce89830a19230301f076caff004d19266101a08201527f0967032fcbf776d1afc985f88877f182d38480a653f2decaa9794cbc3bf3060c6101c08201527f0e187847ad4c798374d0d6732bf501847dd68bc0e071241e0213bc7fc13db7ab6101e08201527e1752a100a72fdf1e5a5d6ea841cc20ec838bccfcf7bd559e79f1c9c759b6a06102008201527f192a8cc13cd9f762871f21e43451c6ca9eeab2cb2987c4e366a185c25dac2e7f61022082015283610240820152826102608201527f198e9393920d483a7260bfb731fb5d25f1aa493335a9e71297e485b7aef312c26102808201527f1800deef121f1e76426a00665e5c4479674322d4f75edadd46debd5cd992f6ed6102a08201527f275dc4a288d1afb3cbb1ac09187524c7db36395df7be3b99e673b13a075a65ec6102c08201527f1d9befcd05a5323e6da4d435f3b617cdb3af83285c2df711ef39c01571827f9d6102e08201526020816103008360085afa905116905080610380576040517f7fcdd1f400000000000000000000000000000000000000000000000000000000815260040160405180910390fd5b5050505050565b61038f6117d2565b5f806103a185825b6020020135610ef5565b90925090505f8080806103bc60408a013560208b0135611016565b929650909450925090505f806103d38b6003610397565b915091505f5f6103e28c610d25565b8b8d5260208d018b905260408d0189905260608d018a905260808d0187905260a08d0188905260c08d0186905260e08d018590527f1cc7cb8de715675f21f01ecc9b46d236e0865e0cc020024521998269845f74e66101008e01527f03ff41f4ba0c37fe2caf27354d28e4b8f83d3b76777a63b327d736bffb0122ed6101208e01527f01909cd7827e0278e6b60843a4abc7b111d7f8b2725cd5902a6b20da7a2938fb6101408e01527f192bd3274441670227b4f69a44005b8711266e474227c6439ca25ca8e1ec1fc26101608e01527f2d4d9aa7e302d9df41749d5507949d05dbea33fbb16c643b22f599a2be6df2e26101808e01527f14bedd503c37ceb061d8ec60209fe345ce89830a19230301f076caff004d19266101a08e01527f0967032fcbf776d1afc985f88877f182d38480a653f2decaa9794cbc3bf3060c6101c08e01527f0e187847ad4c798374d0d6732bf501847dd68bc0e071241e0213bc7fc13db7ab6101e08e01527e1752a100a72fdf1e5a5d6ea841cc20ec838bccfcf7bd559e79f1c9c759b6a06102008e01527f192a8cc13cd9f762871f21e43451c6ca9eeab2cb2987c4e366a185c25dac2e7f6102208e01526102408d018290526102608d018190527f198e9393920d483a7260bfb731fb5d25f1aa493335a9e71297e485b7aef312c26102808e01527f1800deef121f1e76426a00665e5c4479674322d4f75edadd46debd5cd992f6ed6102a08e01527f275dc4a288d1afb3cbb1ac09187524c7db36395df7be3b99e673b13a075a65ec6102c08e01527f1d9befcd05a5323e6da4d435f3b617cdb3af83285c2df711ef39c01571827f9d6102e08e015290925090505f6106556117f1565b6020816103008f60085afa915081158061067157508051600114155b156106a8576040517f7fcdd1f400000000000000000000000000000000000000000000000000000000815260040160405180910390fd5b505050505050505050505050505050565b5f7f30644e72e131a029b85045b68181585d97816a916871ca8d3c208c16d87cfd478310158061070957507f30644e72e131a029b85045b68181585d97816a916871ca8d3c208c16d87cfd478210155b15610740576040517f7fcdd1f400000000000000000000000000000000000000000000000000000000815260040160405180910390fd5b8215801561074c575081155b1561075857505f61084f565b5f6107cc7f30644e72e131a029b85045b68181585d97816a916871ca8d3c208c16d87cfd4760037f30644e72e131a029b85045b68181585d97816a916871ca8d3c208c16d87cfd47877f30644e72e131a029b85045b68181585d97816a916871ca8d3c208c16d87cfd47898a09090861135c565b90508083036107e1575050600182901b61084f565b7f30644e72e131a029b85045b68181585d97816a916871ca8d3c208c16d87cfd47808206810306830361081b575050600182811b1761084f565b6040517f7fcdd1f400000000000000000000000000000000000000000000000000000000815260040160405180910390fd5b505b92915050565b5f5f7f30644e72e131a029b85045b68181585d97816a916871ca8d3c208c16d87cfd47861015806108a657507f30644e72e131a029b85045b68181585d97816a916871ca8d3c208c16d87cfd478510155b806108d157507f30644e72e131a029b85045b68181585d97816a916871ca8d3c208c16d87cfd478410155b806108fc57507f30644e72e131a029b85045b68181585d97816a916871ca8d3c208c16d87cfd478310155b15610933576040517f7fcdd1f400000000000000000000000000000000000000000000000000000000815260040160405180910390fd5b828486881717175f0361094a57505f905080610d1c565b5f80807f30644e72e131a029b85045b68181585d97816a916871ca8d3c208c16d87cfd4761099960037f30644e72e131a029b85045b68181585d97816a916871ca8d3c208c16d87cfd4761191c565b7f30644e72e131a029b85045b68181585d97816a916871ca8d3c208c16d87cfd478a8c090990505f7f30644e72e131a029b85045b68181585d97816a916871ca8d3c208c16d87cfd478a7f30644e72e131a029b85045b68181585d97816a916871ca8d3c208c16d87cfd478c8d090990505f7f30644e72e131a029b85045b68181585d97816a916871ca8d3c208c16d87cfd478a7f30644e72e131a029b85045b68181585d97816a916871ca8d3c208c16d87cfd478c8d090990507f30644e72e131a029b85045b68181585d97816a916871ca8d3c208c16d87cfd47807f30644e72e131a029b85045b68181585d97816a916871ca8d3c208c16d87cfd478c860984087f2b149d40ceb8aaae81be18991be06ac3b5b4c5e559dbefa33267e6dc24a138e5089450610b587f30644e72e131a029b85045b68181585d97816a916871ca8d3c208c16d87cfd47807f30644e72e131a029b85045b68181585d97816a916871ca8d3c208c16d87cfd478e870984087f2fcd3ac2a640a154eb23960892a85a68f031ca0c8344b23a577dcf1052b9e775087f30644e72e131a029b85045b68181585d97816a916871ca8d3c208c16d87cfd479081900681030690565b93505050505f5f610bde7f30644e72e131a029b85045b68181585d97816a916871ca8d3c208c16d87cfd4780610b9057610b906118ef565b7f30644e72e131a029b85045b68181585d97816a916871ca8d3c208c16d87cfd478586097f30644e72e131a029b85045b68181585d97816a916871ca8d3c208c16d87cfd478788090861135c565b9050610c4f7f30644e72e131a029b85045b68181585d97816a916871ca8d3c208c16d87cfd477f183227397098d014dc2822db40c0ac2ecbc0b548b438e5469e10460b6c3e7ea47f30644e72e131a029b85045b68181585d97816a916871ca8d3c208c16d87cfd47848808096113ea565b15915050610c5e838383611445565b90935091508683148015610c7157508186145b15610c995780610c81575f610c84565b60025b60ff1660028a901b175f179450879350610d18565b7f30644e72e131a029b85045b68181585d97816a916871ca8d3c208c16d87cfd4780840681030687148015610cf357507f30644e72e131a029b85045b68181585d97816a916871ca8d3c208c16d87cfd4780830681030686145b1561081b5780610d03575f610d06565b60025b60ff1660028a901b1760011794508793505b5050505b94509492505050565b5f5f5f60019050604051604081015f7f26091e1cafb0ad8a4ea0a694cd3743ebf524779233db734c451d28b58aa9758e83527e9ff50a6b8b11c3ca6fdb2690a124f8ce25489fefa65a3e782e7ba70b66690e60208401527f061c3fd0fd3da25d2607c227d090cca750ed36c6ec878755e537c1c48951fb4c82527f0fa17ae9c2033379df7b5c65eff0e107055e9a273e6119a212dd09eb517072196020830152863590508060408301527f30644e72e131a029b85045b68181585d2833e84879b9709143e1f593f000000181108416935060408260608460075afa8416935060408360808560065afa841693507f04eab241388a79817fe0e0e2ead0b2ec4ffdec51a16028dee020634fd129e71c82527f07236256d21c60d02f0bdbf95cff83e03ea9e16fca56b18d5544b0889a65c1f56020830152602087013590508060408301527f30644e72e131a029b85045b68181585d2833e84879b9709143e1f593f00000018110841693505060408160608360075afa831692505060408160808360065afa81516020909201519194509092501680610eef576040517fa54f8e2700000000000000000000000000000000000000000000000000000000815260040160405180910390fd5b50915091565b5f5f825f03610f0857505f928392509050565b600183811c9250808416147f30644e72e131a029b85045b68181585d97816a916871ca8d3c208c16d87cfd478310610f6c576040517f7fcdd1f400000000000000000000000000000000000000000000000000000000815260040160405180910390fd5b610fdf7f30644e72e131a029b85045b68181585d97816a916871ca8d3c208c16d87cfd4760037f30644e72e131a029b85045b68181585d97816a916871ca8d3c208c16d87cfd47867f30644e72e131a029b85045b68181585d97816a916871ca8d3c208c16d87cfd47888909090861135c565b91508015610eef577f30644e72e131a029b85045b68181585d97816a916871ca8d3c208c16d87cfd47808306810306915050915091565b5f80808085158015611026575084155b1561103b57505f925082915081905080611353565b600286811c945085935060018088161490808816147f30644e72e131a029b85045b68181585d97816a916871ca8d3c208c16d87cfd478610158061109f57507f30644e72e131a029b85045b68181585d97816a916871ca8d3c208c16d87cfd478510155b156110d6576040517f7fcdd1f400000000000000000000000000000000000000000000000000000000815260040160405180910390fd5b5f7f30644e72e131a029b85045b68181585d97816a916871ca8d3c208c16d87cfd4761112360037f30644e72e131a029b85045b68181585d97816a916871ca8d3c208c16d87cfd4761191c565b7f30644e72e131a029b85045b68181585d97816a916871ca8d3c208c16d87cfd47888a090990505f7f30644e72e131a029b85045b68181585d97816a916871ca8d3c208c16d87cfd47887f30644e72e131a029b85045b68181585d97816a916871ca8d3c208c16d87cfd478a8b090990505f7f30644e72e131a029b85045b68181585d97816a916871ca8d3c208c16d87cfd47887f30644e72e131a029b85045b68181585d97816a916871ca8d3c208c16d87cfd478a8b090990507f30644e72e131a029b85045b68181585d97816a916871ca8d3c208c16d87cfd47807f30644e72e131a029b85045b68181585d97816a916871ca8d3c208c16d87cfd478a860984087f2b149d40ceb8aaae81be18991be06ac3b5b4c5e559dbefa33267e6dc24a138e50896506112e27f30644e72e131a029b85045b68181585d97816a916871ca8d3c208c16d87cfd47807f30644e72e131a029b85045b68181585d97816a916871ca8d3c208c16d87cfd478c870984087f2fcd3ac2a640a154eb23960892a85a68f031ca0c8344b23a577dcf1052b9e775087f30644e72e131a029b85045b68181585d97816a916871ca8d3c208c16d87cfd479081900681030690565b95506112ef878786611445565b9097509550841561134d577f30644e72e131a029b85045b68181585d97816a916871ca8d3c208c16d87cfd4780880681030696507f30644e72e131a029b85045b68181585d97816a916871ca8d3c208c16d87cfd4780870681030695505b50505050505b92959194509250565b5f611387827f0c19139cb84c680a6e14116da060561765e05aa45a1c72a34f082305b61f3f5261169b565b9050817f30644e72e131a029b85045b68181585d97816a916871ca8d3c208c16d87cfd47828309146113e5576040517f7fcdd1f400000000000000000000000000000000000000000000000000000000815260040160405180910390fd5b919050565b5f5f611416837f0c19139cb84c680a6e14116da060561765e05aa45a1c72a34f082305b61f3f5261169b565b9050827f30644e72e131a029b85045b68181585d97816a916871ca8d3c208c16d87cfd47828309149392505050565b5f808061149a7f30644e72e131a029b85045b68181585d97816a916871ca8d3c208c16d87cfd47808788097f30644e72e131a029b85045b68181585d97816a916871ca8d3c208c16d87cfd47898a090861135c565b905083156114cb577f30644e72e131a029b85045b68181585d97816a916871ca8d3c208c16d87cfd47908190068103065b61153a7f30644e72e131a029b85045b68181585d97816a916871ca8d3c208c16d87cfd477f183227397098d014dc2822db40c0ac2ecbc0b548b438e5469e10460b6c3e7ea47f30644e72e131a029b85045b68181585d97816a916871ca8d3c208c16d87cfd47848a080961135c565b92507f30644e72e131a029b85045b68181585d97816a916871ca8d3c208c16d87cfd4761158a7f30644e72e131a029b85045b68181585d97816a916871ca8d3c208c16d87cfd476002860961172a565b860991507f30644e72e131a029b85045b68181585d97816a916871ca8d3c208c16d87cfd476116017f30644e72e131a029b85045b68181585d97816a916871ca8d3c208c16d87cfd478485097f30644e72e131a029b85045b68181585d97816a916871ca8d3c208c16d87cfd479081900681030690565b7f30644e72e131a029b85045b68181585d97816a916871ca8d3c208c16d87cfd47858609088614158061165b57507f30644e72e131a029b85045b68181585d97816a916871ca8d3c208c16d87cfd47808385096002098514155b15611692576040517f7fcdd1f400000000000000000000000000000000000000000000000000000000815260040160405180910390fd5b50935093915050565b5f5f60405160208152602080820152602060408201528460608201528360808201527f30644e72e131a029b85045b68181585d97816a916871ca8d3c208c16d87cfd4760a082015260208160c08360055afa9051925090508061084d576040517f7fcdd1f400000000000000000000000000000000000000000000000000000000815260040160405180910390fd5b5f611755827f30644e72e131a029b85045b68181585d97816a916871ca8d3c208c16d87cfd4561169b565b90507f30644e72e131a029b85045b68181585d97816a916871ca8d3c208c16d87cfd478183096001146113e5576040517f7fcdd1f400000000000000000000000000000000000000000000000000000000815260040160405180910390fd5b60405180608001604052806004906020820280368337509192915050565b6040518061030001604052806018906020820280368337509192915050565b60405180602001604052806001906020820280368337509192915050565b80610100810183101561084f575f5ffd5b5f6101008284031215611831575f5ffd5b61183b838361180f565b9392505050565b6080810181835f5b600481101561186957815183526020928301929091019060010161184a565b50505092915050565b806040810183101561084f575f5ffd5b5f5f6101408385031215611894575f5ffd5b61189e848461180f565b91506118ae846101008501611872565b90509250929050565b5f5f60c083850312156118c8575f5ffd5b60808301848111156118d8575f5ffd5b8392506118e58582611872565b9150509250929050565b7f4e487b71000000000000000000000000000000000000000000000000000000005f52601260045260245ffd5b8181038181111561084f577f4e487b71000000000000000000000000000000000000000000000000000000005f52601160045260245ffdfea2646970667358221220ee6eb8c8a03aca2c6cbc50a5e98a2e900cd15bd5424b9802b7eb81332dfcda7564736f6c634300081d0033","linkReferences":{}},"methodIdentifiers":{"Verify(uint256[8],uint256[2])":"eddf243c","compressProof(uint256[8])":"44f63692","verifyCompressedProof(uint256[4],uint256[2])":"f11817b2"},"id":85}