{"abi":[{"type":"constructor","inputs":[],"stateMutability":"nonpayable"},{"type":"function","name":"DEFAULT_ADMIN_ROLE","inputs":[],"outputs":[{"name":"","type":"bytes32","internalType":"bytes32"}],"stateMutability":"view"},{"type":"function","name":"FEEDER_ROLE","inputs":[],"outputs":[{"name":"","type":"bytes32","internalType":"bytes32"}],"stateMutability":"view"},{"type":"function","name":"GIT_COMMIT","inputs":[],"outputs":[{"name":"","type":"string","internalType":"string"}],"stateMutability":"view"},{"type":"function","name":"GIT_TAG","inputs":[],"outputs":[{"name":"","type":"string","internalType":"string"}],"stateMutability":"view"},{"type":"function","name":"UPGRADE_INTERFACE_VERSION","inputs":[],"outputs":[{"name":"","type":"string","internalType":"string"}],"stateMutability":"view"},{"type":"function","name":"feed","inputs":[{"name":"targetTimestamp","type":"uint48","internalType":"uint48"},{"name":"valAddr","type":"address","internalType":"address"},{"name":"validator","type":"tuple","internalType":"struct ICollateralOracleFeed.Validator","components":[{"name":"collateral","type":"uint256","internalType":"uint256"},{"name":"collateralShares","type":"uint256","internalType":"uint256"},{"name":"extraVotingPower","type":"uint256","internalType":"uint256"},{"name":"votingPower","type":"uint256","internalType":"uint256"}]},{"name":"ownerships","type":"tuple[]","internalType":"struct ICollateralOracleFeed.CollateralOwnership[]","components":[{"name":"owner","type":"address","internalType":"address"},{"name":"shares","type":"uint256","internalType":"uint256"}]}],"outputs":[],"stateMutability":"nonpayable"},{"type":"function","name":"feedType","inputs":[],"outputs":[{"name":"","type":"uint8","internalType":"enum ICollateralOracleFeed.FeedType"}],"stateMutability":"pure"},{"type":"function","name":"getCollateralOwnership","inputs":[{"name":"timestamp","type":"uint48","internalType":"uint48"},{"name":"validator","type":"address","internalType":"address"},{"name":"owner","type":"address","internalType":"address"}],"outputs":[{"name":"","type":"tuple","internalType":"struct ICollateralOracleFeed.CollateralOwnership","components":[{"name":"owner","type":"address","internalType":"address"},{"name":"shares","type":"uint256","internalType":"uint256"}]}],"stateMutability":"view"},{"type":"function","name":"getCollateralOwnershipTWAB","inputs":[{"name":"startTime","type":"uint48","internalType":"uint48"},{"name":"endTime","type":"uint48","internalType":"uint48"},{"name":"validator","type":"address","internalType":"address"},{"name":"owner","type":"address","internalType":"address"}],"outputs":[{"name":"","type":"uint256","internalType":"uint256"}],"stateMutability":"view"},{"type":"function","name":"getCollateralOwnerships","inputs":[{"name":"timestamp","type":"uint48","internalType":"uint48"},{"name":"validator","type":"address","internalType":"address"}],"outputs":[{"name":"","type":"tuple[]","internalType":"struct ICollateralOracleFeed.CollateralOwnership[]","components":[{"name":"owner","type":"address","internalType":"address"},{"name":"shares","type":"uint256","internalType":"uint256"}]}],"stateMutability":"view"},{"type":"function","name":"getCollateralOwnershipsTWAB","inputs":[{"name":"startTime","type":"uint48","internalType":"uint48"},{"name":"endTime","type":"uint48","internalType":"uint48"},{"name":"validator","type":"address","internalType":"address"}],"outputs":[{"name":"","type":"tuple[]","internalType":"struct ICollateralOracleFeed.CollateralOwnership[]","components":[{"name":"owner","type":"address","internalType":"address"},{"name":"shares","type":"uint256","internalType":"uint256"}]}],"stateMutability":"view"},{"type":"function","name":"getHistoricalOwners","inputs":[{"name":"validator","type":"address","internalType":"address"}],"outputs":[{"name":"","type":"address[]","internalType":"address[]"}],"stateMutability":"view"},{"type":"function","name":"getHistoricalOwnersCount","inputs":[{"name":"validator","type":"address","internalType":"address"}],"outputs":[{"name":"","type":"uint256","internalType":"uint256"}],"stateMutability":"view"},{"type":"function","name":"getLastFeedTimestamp","inputs":[{"name":"validator","type":"address","internalType":"address"}],"outputs":[{"name":"","type":"uint48","internalType":"uint48"}],"stateMutability":"view"},{"type":"function","name":"getRoleAdmin","inputs":[{"name":"role","type":"bytes32","internalType":"bytes32"}],"outputs":[{"name":"","type":"bytes32","internalType":"bytes32"}],"stateMutability":"view"},{"type":"function","name":"getRoleMember","inputs":[{"name":"role","type":"bytes32","internalType":"bytes32"},{"name":"index","type":"uint256","internalType":"uint256"}],"outputs":[{"name":"","type":"address","internalType":"address"}],"stateMutability":"view"},{"type":"function","name":"getRoleMemberCount","inputs":[{"name":"role","type":"bytes32","internalType":"bytes32"}],"outputs":[{"name":"","type":"uint256","internalType":"uint256"}],"stateMutability":"view"},{"type":"function","name":"getRoleMembers","inputs":[{"name":"role","type":"bytes32","internalType":"bytes32"}],"outputs":[{"name":"","type":"address[]","internalType":"address[]"}],"stateMutability":"view"},{"type":"function","name":"getTotalTWAB","inputs":[{"name":"validator","type":"address","internalType":"address"},{"name":"startTime","type":"uint48","internalType":"uint48"},{"name":"endTime","type":"uint48","internalType":"uint48"}],"outputs":[{"name":"","type":"uint256","internalType":"uint256"}],"stateMutability":"view"},{"type":"function","name":"getValidator","inputs":[{"name":"timestamp","type":"uint48","internalType":"uint48"},{"name":"validator","type":"address","internalType":"address"}],"outputs":[{"name":"","type":"tuple","internalType":"struct ICollateralOracleFeed.Validator","components":[{"name":"collateral","type":"uint256","internalType":"uint256"},{"name":"collateralShares","type":"uint256","internalType":"uint256"},{"name":"extraVotingPower","type":"uint256","internalType":"uint256"},{"name":"votingPower","type":"uint256","internalType":"uint256"}]}],"stateMutability":"view"},{"type":"function","name":"getValidatorAddressByIndex","inputs":[{"name":"index","type":"uint256","internalType":"uint256"}],"outputs":[{"name":"","type":"address","internalType":"address"}],"stateMutability":"view"},{"type":"function","name":"getValidatorAddressCount","inputs":[],"outputs":[{"name":"","type":"uint256","internalType":"uint256"}],"stateMutability":"view"},{"type":"function","name":"grantRole","inputs":[{"name":"role","type":"bytes32","internalType":"bytes32"},{"name":"account","type":"address","internalType":"address"}],"outputs":[],"stateMutability":"nonpayable"},{"type":"function","name":"hasRole","inputs":[{"name":"role","type":"bytes32","internalType":"bytes32"},{"name":"account","type":"address","internalType":"address"}],"outputs":[{"name":"","type":"bool","internalType":"bool"}],"stateMutability":"view"},{"type":"function","name":"initialize","inputs":[{"name":"initialOwner","type":"address","internalType":"address"}],"outputs":[],"stateMutability":"nonpayable"},{"type":"function","name":"proxiableUUID","inputs":[],"outputs":[{"name":"","type":"bytes32","internalType":"bytes32"}],"stateMutability":"view"},{"type":"function","name":"renounceRole","inputs":[{"name":"role","type":"bytes32","internalType":"bytes32"},{"name":"callerConfirmation","type":"address","internalType":"address"}],"outputs":[],"stateMutability":"nonpayable"},{"type":"function","name":"revokeRole","inputs":[{"name":"role","type":"bytes32","internalType":"bytes32"},{"name":"account","type":"address","internalType":"address"}],"outputs":[],"stateMutability":"nonpayable"},{"type":"function","name":"supportsInterface","inputs":[{"name":"interfaceId","type":"bytes4","internalType":"bytes4"}],"outputs":[{"name":"","type":"bool","internalType":"bool"}],"stateMutability":"view"},{"type":"function","name":"upgradeToAndCall","inputs":[{"name":"newImplementation","type":"address","internalType":"address"},{"name":"data","type":"bytes","internalType":"bytes"}],"outputs":[],"stateMutability":"payable"},{"type":"event","name":"FeedUpdated","inputs":[{"name":"timestamp","type":"uint48","indexed":true,"internalType":"uint48"},{"name":"validator","type":"address","indexed":true,"internalType":"address"},{"name":"ownershipCount","type":"uint256","indexed":false,"internalType":"uint256"},{"name":"metadata","type":"bytes","indexed":false,"internalType":"bytes"}],"anonymous":false},{"type":"event","name":"Initialized","inputs":[{"name":"version","type":"uint64","indexed":false,"internalType":"uint64"}],"anonymous":false},{"type":"event","name":"RoleAdminChanged","inputs":[{"name":"role","type":"bytes32","indexed":true,"internalType":"bytes32"},{"name":"previousAdminRole","type":"bytes32","indexed":true,"internalType":"bytes32"},{"name":"newAdminRole","type":"bytes32","indexed":true,"internalType":"bytes32"}],"anonymous":false},{"type":"event","name":"RoleGranted","inputs":[{"name":"role","type":"bytes32","indexed":true,"internalType":"bytes32"},{"name":"account","type":"address","indexed":true,"internalType":"address"},{"name":"sender","type":"address","indexed":true,"internalType":"address"}],"anonymous":false},{"type":"event","name":"RoleRevoked","inputs":[{"name":"role","type":"bytes32","indexed":true,"internalType":"bytes32"},{"name":"account","type":"address","indexed":true,"internalType":"address"},{"name":"sender","type":"address","indexed":true,"internalType":"address"}],"anonymous":false},{"type":"event","name":"Upgraded","inputs":[{"name":"implementation","type":"address","indexed":true,"internalType":"address"}],"anonymous":false},{"type":"error","name":"AccessControlBadConfirmation","inputs":[]},{"type":"error","name":"AccessControlUnauthorizedAccount","inputs":[{"name":"account","type":"address","internalType":"address"},{"name":"neededRole","type":"bytes32","internalType":"bytes32"}]},{"type":"error","name":"AddressEmptyCode","inputs":[{"name":"target","type":"address","internalType":"address"}]},{"type":"error","name":"CheckpointUnorderedInsertion","inputs":[]},{"type":"error","name":"CollateralOwnershipFeedNotFound","inputs":[]},{"type":"error","name":"ERC1967InvalidImplementation","inputs":[{"name":"implementation","type":"address","internalType":"address"}]},{"type":"error","name":"ERC1967NonPayable","inputs":[]},{"type":"error","name":"FailedCall","inputs":[]},{"type":"error","name":"FeedNotFound","inputs":[]},{"type":"error","name":"FeedTargetOutdated","inputs":[{"name":"timestamp","type":"uint48","internalType":"uint48"},{"name":"lastTimestamp","type":"uint48","internalType":"uint48"}]},{"type":"error","name":"InvalidInitialization","inputs":[]},{"type":"error","name":"InvalidTimeRange","inputs":[]},{"type":"error","name":"NoDataInRange","inputs":[]},{"type":"error","name":"NotInitializing","inputs":[]},{"type":"error","name":"SafeCastOverflowedUintDowncast","inputs":[{"name":"bits","type":"uint8","internalType":"uint8"},{"name":"value","type":"uint256","internalType":"uint256"}]},{"type":"error","name":"UUPSUnauthorizedCallContext","inputs":[]},{"type":"error","name":"UUPSUnsupportedProxiableUUID","inputs":[{"name":"slot","type":"bytes32","internalType":"bytes32"}]}],"bytecode":{"object":"0x60a060405230608052348015610013575f5ffd5b5061001c610021565b6100d3565b7ff0c57e16840df040f15088dc2f81fe391c3923bec73e23a9662efc9c229c6a00805468010000000000000000900460ff16156100715760405163f92ee8a960e01b815260040160405180910390fd5b80546001600160401b03908116146100d05780546001600160401b0319166001600160401b0390811782556040519081527fc7f505b2f371ae2175ee4913f4499e1f2633a7b5936321eed1cdaeb6115181d29060200160405180910390a15b50565b608051613dec6100f95f395f81816111540152818161117d01526113880152613dec5ff3fe6080604052600436106101c5575f3560e01c80638e892d79116100f2578063b175eb4d11610092578063ceb2097111610062578063ceb2097114610624578063d547741f14610657578063eca1c8d114610676578063f6e03f71146106a2575f5ffd5b8063b175eb4d1461058a578063b8a15e3a146105d2578063c4d66de8146105e6578063ca15c87314610605575f5ffd5b806391d14854116100cd57806391d1485414610493578063a217fddf146104f6578063a3246ad314610509578063ad3cb1cc14610535575f5ffd5b80638e892d79146104365780639010d07c1461045557806390aaa04614610474575f5ffd5b80634f1ef2861161016857806356355c181161013857806356355c18146103a65780635826cf52146103c15780635e27c123146103f85780637db1eaff14610417575f5ffd5b80634f1ef2861461031d57806351e7ba441461033057806352d1902d14610366578063547c477d1461037a575f5ffd5b80632cba54da116101a35780632cba54da146102aa5780632f2ff15d146102c957806333caa716146102ea57806336568abe146102fe575f5ffd5b806301ffc9a7146101c95780631714b74d146101fd578063248a9ca31461024f575b5f5ffd5b3480156101d4575f5ffd5b506101e86101e336600461367e565b6106c1565b60405190151581526020015b60405180910390f35b348015610208575f5ffd5b5061021c6102173660046136ed565b61071c565b6040516101f491908151815260208083015190820152604080830151908201526060918201519181019190915260800190565b34801561025a575f5ffd5b5061029c61026936600461371e565b5f9081527f02dd7bc7dec4dceedda775e58dd541e08a116c6c53815c0bd028192f7b626800602052604090206001015490565b6040519081526020016101f4565b3480156102b5575f5ffd5b5061029c6102c4366004613735565b610775565b3480156102d4575f5ffd5b506102e86102e3366004613775565b6107aa565b005b3480156102f5575f5ffd5b5061029c6107f3565b348015610309575f5ffd5b506102e8610318366004613775565b610822565b6102e861032b3660046137c3565b610873565b34801561033b575f5ffd5b5061034f61034a3660046138c4565b610892565b60405165ffffffffffff90911681526020016101f4565b348015610371575f5ffd5b5061029c6108bd565b348015610385575f5ffd5b506103996103943660046138dd565b6108eb565b6040516101f49190613914565b3480156103b1575f5ffd5b5060016040516101f49190613974565b3480156103cc575f5ffd5b506103e06103db36600461371e565b610919565b6040516001600160a01b0390911681526020016101f4565b348015610403575f5ffd5b506103996104123660046136ed565b610944565b348015610422575f5ffd5b506102e86104313660046139b3565b610971565b348015610441575f5ffd5b5061029c6104503660046138c4565b610a65565b348015610460575f5ffd5b506103e061046f366004613a7b565b610a90565b34801561047f575f5ffd5b5061029c61048e366004613a9b565b610ac8565b34801561049e575f5ffd5b506101e86104ad366004613775565b5f9182527f02dd7bc7dec4dceedda775e58dd541e08a116c6c53815c0bd028192f7b626800602090815260408084206001600160a01b0393909316845291905290205460ff1690565b348015610501575f5ffd5b5061029c5f81565b348015610514575f5ffd5b5061052861052336600461371e565b610aff565b6040516101f49190613aec565b348015610540575f5ffd5b5061057d6040518060400160405280600581526020017f352e302e3000000000000000000000000000000000000000000000000000000081525081565b6040516101f49190613b2c565b348015610595575f5ffd5b5061057d6040518060400160405280600681526020017f76302e302e33000000000000000000000000000000000000000000000000000081525081565b3480156105dd575f5ffd5b5061057d610b3b565b3480156105f1575f5ffd5b506102e86106003660046138c4565b610b57565b348015610610575f5ffd5b5061029c61061f36600461371e565b610cef565b34801561062f575f5ffd5b5061029c7fe6e69a693a749cd395954f571a1f928763ac28c5ebd853c3b42503bef838bfd181565b348015610662575f5ffd5b506102e8610671366004613775565b610d26565b348015610681575f5ffd5b50610695610690366004613b7f565b610d69565b6040516101f49190613ba8565b3480156106ad575f5ffd5b506105286106bc3660046138c4565b610da8565b5f7fffffffff0000000000000000000000000000000000000000000000000000000082167f5a05180f000000000000000000000000000000000000000000000000000000001480610716575061071682610dd4565b92915050565b61074360405180608001604052805f81526020015f81526020015f81526020015f81525090565b61076e7f88785c098aef98cf22acd5c5c09ab37e1ee6507973d121390c77e8b3654771008484610e6a565b9392505050565b5f6107a27f88785c098aef98cf22acd5c5c09ab37e1ee6507973d121390c77e8b365477100848487610fd9565b949350505050565b5f8281527f02dd7bc7dec4dceedda775e58dd541e08a116c6c53815c0bd028192f7b62680060205260409020600101546107e381611091565b6107ed838361109e565b50505050565b5f61081d7f88785c098aef98cf22acd5c5c09ab37e1ee6507973d121390c77e8b3654771006110f3565b905090565b6001600160a01b0381163314610864576040517f6697b23200000000000000000000000000000000000000000000000000000000815260040160405180910390fd5b61086e82826110fd565b505050565b61087b611149565b6108848261121b565b61088e8282611225565b5050565b5f6107167f88785c098aef98cf22acd5c5c09ab37e1ee6507973d121390c77e8b36547710083611349565b5f6108c661137d565b507f360894a13ba1a3210667c828492db98dca3e2076cc3735a920a3ca505d382bbc90565b60606107a27f88785c098aef98cf22acd5c5c09ab37e1ee6507973d121390c77e8b3654771008585856113df565b5f6107167f88785c098aef98cf22acd5c5c09ab37e1ee6507973d121390c77e8b3654771008361164b565b606061076e7f88785c098aef98cf22acd5c5c09ab37e1ee6507973d121390c77e8b3654771008484611656565b7fe6e69a693a749cd395954f571a1f928763ac28c5ebd853c3b42503bef838bfd161099b81611091565b6109d97f88785c098aef98cf22acd5c5c09ab37e1ee6507973d121390c77e8b36547710087876109ca88611791565b6109d48888611861565b611919565b846001600160a01b03168665ffffffffffff167f2362fd90e550bdcea313caf72e3d8946648b9d32fd79ef839b8d7287cfdb40bd85859050604051610a559181526040602082018190526012908201527f7b2274797065223a226d616e61676564227d0000000000000000000000000000606082015260800190565b60405180910390a3505050505050565b5f6107167f88785c098aef98cf22acd5c5c09ab37e1ee6507973d121390c77e8b36547710083611d10565b5f8281527fc1f6fe24621ce81ec5827caf0253cadb74709b061630e6b55e823717059320006020819052604082206107a29084611d35565b5f610af67f88785c098aef98cf22acd5c5c09ab37e1ee6507973d121390c77e8b36547710086868686611d40565b95945050505050565b5f8181527fc1f6fe24621ce81ec5827caf0253cadb74709b061630e6b55e82371705932000602081905260409091206060919061076e90611ed5565b604051806060016040528060288152602001613d8f6028913981565b7ff0c57e16840df040f15088dc2f81fe391c3923bec73e23a9662efc9c229c6a00805468010000000000000000810460ff16159067ffffffffffffffff165f81158015610ba15750825b90505f8267ffffffffffffffff166001148015610bbd5750303b155b905081158015610bcb575080155b15610c02576040517ff92ee8a900000000000000000000000000000000000000000000000000000000815260040160405180910390fd5b84547fffffffffffffffffffffffffffffffffffffffffffffffff00000000000000001660011785558315610c635784547fffffffffffffffffffffffffffffffffffffffffffffff00ffffffffffffffff16680100000000000000001785555b610c6b611ee1565b610c73611ee1565b610c7b611ee1565b610c855f8761109e565b508315610ce75784547fffffffffffffffffffffffffffffffffffffffffffffff00ffffffffffffffff168555604051600181527fc7f505b2f371ae2175ee4913f4499e1f2633a7b5936321eed1cdaeb6115181d29060200160405180910390a15b505050505050565b5f8181527fc1f6fe24621ce81ec5827caf0253cadb74709b061630e6b55e8237170593200060208190526040822061076e90611ee9565b5f8281527f02dd7bc7dec4dceedda775e58dd541e08a116c6c53815c0bd028192f7b6268006020526040902060010154610d5f81611091565b6107ed83836110fd565b604080518082019091525f80825260208201526107a27f88785c098aef98cf22acd5c5c09ab37e1ee6507973d121390c77e8b365477100858585611ef2565b60606107167f88785c098aef98cf22acd5c5c09ab37e1ee6507973d121390c77e8b365477100836120c3565b5f7fffffffff0000000000000000000000000000000000000000000000000000000082167f7965db0b00000000000000000000000000000000000000000000000000000000148061071657507f01ffc9a7000000000000000000000000000000000000000000000000000000007fffffffff00000000000000000000000000000000000000000000000000000000831614610716565b610e9160405180608001604052805f81526020015f81526020015f81526020015f81525090565b6001600160a01b0382165f908152600385016020526040812090610eb58286612184565b90505f8179ffffffffffffffffffffffffffffffffffffffffffffffffffff1611610f0c576040517ffaa708d200000000000000000000000000000000000000000000000000000000815260040160405180910390fd5b79ffffffffffffffffffffffffffffffffffffffffffffffffffff81165f90815260018084016020908152604092839020835160c08101855281546bffffffffffffffffffffffff80821683526c0100000000000000000000000080830482169584019590955267ffffffffffffffff78010000000000000000000000000000000000000000000000009283900481169784019790975292909401548083166060830152928304909116608082015291900490911660a0820152610fcf9061224a565b9695505050505050565b5f8265ffffffffffff168465ffffffffffff1610611023576040517f536a71af00000000000000000000000000000000000000000000000000000000815260040160405180910390fd5b6001600160a01b0382165f908152600386016020526040812060088101549091600783019165ffffffffffff169003611060575f925050506107a2565b5f61106b83886122e0565b90505f61107884886122e0565b90506110848282613bf5565b9998505050505050505050565b61109b813361241f565b50565b5f7fc1f6fe24621ce81ec5827caf0253cadb74709b061630e6b55e82371705932000816110cb85856124ab565b905080156107a2575f8581526020839052604090206110ea9085612595565b50949350505050565b5f61071682611ee9565b5f7fc1f6fe24621ce81ec5827caf0253cadb74709b061630e6b55e823717059320008161112a85856125a9565b905080156107a2575f8581526020839052604090206110ea908561266b565b306001600160a01b037f00000000000000000000000000000000000000000000000000000000000000001614806111e257507f00000000000000000000000000000000000000000000000000000000000000006001600160a01b03166111d67f360894a13ba1a3210667c828492db98dca3e2076cc3735a920a3ca505d382bbc546001600160a01b031690565b6001600160a01b031614155b15611219576040517fe07c8dba00000000000000000000000000000000000000000000000000000000815260040160405180910390fd5b565b5f61088e81611091565b816001600160a01b03166352d1902d6040518163ffffffff1660e01b8152600401602060405180830381865afa92505050801561129d575060408051601f3d9081017fffffffffffffffffffffffffffffffffffffffffffffffffffffffffffffffe016820190925261129a91810190613c08565b60015b6112e3576040517f4c9c8ce30000000000000000000000000000000000000000000000000000000081526001600160a01b03831660048201526024015b60405180910390fd5b7f360894a13ba1a3210667c828492db98dca3e2076cc3735a920a3ca505d382bbc811461133f576040517faa1d49a4000000000000000000000000000000000000000000000000000000008152600481018290526024016112da565b61086e838361267f565b6001600160a01b0381165f9081526003830160205260408120818061136d836126d4565b509150915081610af6575f610fcf565b306001600160a01b037f00000000000000000000000000000000000000000000000000000000000000001614611219576040517fe07c8dba00000000000000000000000000000000000000000000000000000000815260040160405180910390fd5b60608265ffffffffffff168465ffffffffffff161061142a576040517f536a71af00000000000000000000000000000000000000000000000000000000815260040160405180910390fd5b6001600160a01b0382165f90815260038601602052604081209061145060058301611ee9565b90505f808267ffffffffffffffff81111561146d5761146d613796565b604051908082528060200260200182016040528015611496578160200160208202803683370190505b5090505f5b83811015611534575f6114b16005870183611d35565b6001600160a01b0381165f90815260048801602052604081206001015491925065ffffffffffff90911690036114e7575061152c565b5f6114f58c8c8c8c86611d40565b90508084848151811061150a5761150a613c1f565b60209081029190910101528015611529578461152581613c4c565b9550505b50505b60010161149b565b508167ffffffffffffffff81111561154e5761154e613796565b60405190808252806020026020018201604052801561159257816020015b604080518082019091525f808252602082015281526020019060019003908161156c5790505b5094505f805b8481101561163d575f8382815181106115b3576115b3613c1f565b60200260200101511115611635575f6115cf6005880183611d35565b90506040518060400160405280826001600160a01b031681526020018584815181106115fd576115fd613c1f565b602002602001015181525088848151811061161a5761161a613c1f565b6020026020010181905250828061163090613c4c565b935050505b600101611598565b505050505050949350505050565b5f61076e8383611d35565b6001600160a01b0381165f908152600384016020526040812060609161167c8286612184565b90505f8179ffffffffffffffffffffffffffffffffffffffffffffffffffff16116116d3576040517ffaa708d200000000000000000000000000000000000000000000000000000000815260040160405180910390fd5b610fcf826002015f8379ffffffffffffffffffffffffffffffffffffffffffffffffffff1681526020019081526020015f20805480602002602001604051908101604052809291908181526020015f905b82821015611788575f84815260209081902060408051808201909152908401546001600160a01b03811682527401000000000000000000000000000000000000000090046bffffffffffffffffffffffff1681830152825260019092019101611724565b50505050612749565b6040805160c080820183525f80835260208301819052828401819052606083018190526080830181905260a0830152825190810190925290806117d48435612843565b6bffffffffffffffffffffffff1681526020016117f48460200135612843565b6bffffffffffffffffffffffff1681526020015f67ffffffffffffffff1681526020016118248460400135612843565b6bffffffffffffffffffffffff1681526020016118448460600135612843565b6bffffffffffffffffffffffff1681525f60209091015292915050565b60608167ffffffffffffffff81111561187c5761187c613796565b6040519080825280602002602001820160405280156118c057816020015b604080518082019091525f808252602082015281526020019060019003908161189a5790505b5090505f5b82811015611912576118ed8484838181106118e2576118e2613c1f565b905060400201612898565b8282815181106118ff576118ff613c1f565b60209081029190910101526001016118c5565b5092915050565b6001600160a01b0383165f908152600386016020526040902061193c86856128f4565b6119645761194a8685612595565b50611961611959600187613c83565b82905f612915565b50505b5f8080611970846126d4565b92509250925082801561199257508765ffffffffffff168265ffffffffffff16105b888390916119de576040517f8f1725a700000000000000000000000000000000000000000000000000000000815265ffffffffffff9283166004820152911660248201526044016112da565b505f90506119ed826001613ca1565b79ffffffffffffffffffffffffffffffffffffffffffffffffffff169050838015611a1f57505f8365ffffffffffff16115b15611a3057611a3085848b8561292f565b611a4589611a3d83612ae4565b879190612915565b505086856001015f8381526020019081526020015f205f820151815f015f6101000a8154816bffffffffffffffffffffffff02191690836bffffffffffffffffffffffff1602179055506020820151815f01600c6101000a8154816bffffffffffffffffffffffff02191690836bffffffffffffffffffffffff1602179055506040820151815f0160186101000a81548167ffffffffffffffff021916908367ffffffffffffffff1602179055506060820151816001015f6101000a8154816bffffffffffffffffffffffff02191690836bffffffffffffffffffffffff160217905550608082015181600101600c6101000a8154816bffffffffffffffffffffffff02191690836bffffffffffffffffffffffff16021790555060a08201518160010160186101000a81548167ffffffffffffffff021916908367ffffffffffffffff1602179055509050505f5f90505b8651811015611d03575f878281518110611bb357611bb3613c1f565b60200260200101515f01519050866002015f8481526020019081526020015f20888381518110611be557611be5613c1f565b6020908102919091018101518254600181810185555f94855293839020825192909301516bffffffffffffffffffffffff1674010000000000000000000000000000000000000000026001600160a01b0390921691909117910155611c4b908390613cd3565b5f84815260038901602090815260408083206001600160a01b038616845282528083209390935560048a0190529081206001015465ffffffffffff169003611cda576001600160a01b0381165f908152600488016020526040902060010180547fffffffffffffffffffffffffffffffffffffffffffffffffffff0000000000001665ffffffffffff8d161790555b611ce760058801826128f4565b611cfa57611cf86005880182612595565b505b50600101611b97565b5050505050505050505050565b6001600160a01b0381165f908152600383016020526040812061076e90600501611ee9565b5f61076e8383612b43565b5f8365ffffffffffff168565ffffffffffff1610611d8a576040517f536a71af00000000000000000000000000000000000000000000000000000000815260040160405180910390fd5b6001600160a01b038084165f90815260038801602090815260408083209386168352600484019091529020600181015465ffffffffffff16611df8576040517ffaa708d200000000000000000000000000000000000000000000000000000000815260040160405180910390fd5b600181015465ffffffffffff9081169087161115611e42576040517f0a174d5a00000000000000000000000000000000000000000000000000000000815260040160405180910390fd5b5f611e4e838689612b69565b90505f611e5c84878b612b69565b90505f611e698284613bf5565b90505f611e768b8b613c83565b65ffffffffffff1690505f8111611eb9576040517f536a71af00000000000000000000000000000000000000000000000000000000815260040160405180910390fd5b611ec582600183612c90565b9c9b505050505050505050505050565b60605f61076e83612d3d565b611219612d96565b5f610716825490565b604080518082019091525f80825260208201526001600160a01b0383165f908152600386016020526040812090611f298287612184565b90505f8179ffffffffffffffffffffffffffffffffffffffffffffffffffff1611611f80576040517ffaa708d200000000000000000000000000000000000000000000000000000000815260040160405180910390fd5b79ffffffffffffffffffffffffffffffffffffffffffffffffffff81165f90815260038301602090815260408083206001600160a01b038816845290915290205480611ff8576040517f95389b8d00000000000000000000000000000000000000000000000000000000815260040160405180910390fd5b6120b7836002015f8479ffffffffffffffffffffffffffffffffffffffffffffffffffff1681526020019081526020015f20828154811061203b5761203b613c1f565b5f918252602080832060408051808201825293909101546001600160a01b038082168552740100000000000000000000000000000000000000009091046bffffffffffffffffffffffff908116858501908152835180850185528781528501969096528251808401909352935116815292519091169082015290565b98975050505050505050565b6001600160a01b0381165f90815260038301602052604081206060916120eb60058301611ee9565b90508067ffffffffffffffff81111561210657612106613796565b60405190808252806020026020018201604052801561212f578160200160208202803683370190505b5092505f5b8181101561217b576121496005840182611d35565b84828151811061215b5761215b613c1f565b6001600160a01b0390921660209283029190910190910152600101612134565b50505092915050565b81545f90818160058111156121e0575f61219d84612dfd565b6121a79085613bf5565b5f8881526020902090915081015465ffffffffffff90811690871610156121d0578091506121de565b6121db816001613cd3565b92505b505b5f6121ed87878585612f62565b9050801561223d5761221187612204600184613bf5565b5f91825260209091200190565b546601000000000000900479ffffffffffffffffffffffffffffffffffffffffffffffffffff1661223f565b5f5b979650505050505050565b61227160405180608001604052805f81526020015f81526020015f81526020015f81525090565b6040518060800160405280835f01516bffffffffffffffffffffffff16815260200183602001516bffffffffffffffffffffffff16815260200183606001516bffffffffffffffffffffffff16815260200183608001516bffffffffffffffffffffffff168152509050919050565b60088201545f90600784019065ffffffffffff9081169084161061230657549050610716565b835f612310825490565b9050805f03612324575f9350505050610716565b5f612330838784612fc1565b90505f6002880181612343846001613cd3565b79ffffffffffffffffffffffffffffffffffffffffffffffffffff16815260208101919091526040015f9081209150805b82548110156123d45782818154811061238f5761238f613c1f565b5f918252602090912001546123ca907401000000000000000000000000000000000000000090046bffffffffffffffffffffffff1683613cd3565b9150600101612374565b5060018601545f906123ef908a9065ffffffffffff16613c83565b65ffffffffffff16905061240582826001612c90565b87546124119190613bf5565b9a9950505050505050505050565b5f8281527f02dd7bc7dec4dceedda775e58dd541e08a116c6c53815c0bd028192f7b626800602090815260408083206001600160a01b038516845290915290205460ff1661088e576040517fe2517d3f0000000000000000000000000000000000000000000000000000000081526001600160a01b0382166004820152602481018390526044016112da565b5f8281527f02dd7bc7dec4dceedda775e58dd541e08a116c6c53815c0bd028192f7b626800602081815260408084206001600160a01b038616855290915282205460ff1661258c575f848152602082815260408083206001600160a01b0387168452909152902080547fffffffffffffffffffffffffffffffffffffffffffffffffffffffffffffff001660011790556125423390565b6001600160a01b0316836001600160a01b0316857f2f8788117e7eff1d82e926ec794901d17c78024a50270940304540a733656f0d60405160405180910390a46001915050610716565b5f915050610716565b5f61076e836001600160a01b038416613029565b5f8281527f02dd7bc7dec4dceedda775e58dd541e08a116c6c53815c0bd028192f7b626800602081815260408084206001600160a01b038616855290915282205460ff161561258c575f848152602082815260408083206001600160a01b038716808552925280832080547fffffffffffffffffffffffffffffffffffffffffffffffffffffffffffffff0016905551339287917ff6391f5c32d9c69d2a47ea670b442974b53935d1edc7fd64eb21e047a839171b9190a46001915050610716565b5f61076e836001600160a01b038416613075565b6126888261314f565b6040516001600160a01b038316907fbc7cd75a20ee27fd9adebab32041f755214dbc6bffa90cc0225b39da2e5c2d3b905f90a28051156126cc5761086e82826131f6565b61088e61325f565b80545f90819081908082036126f2575f5f5f93509350935050612742565b5f61270286612204600185613bf5565b546001955065ffffffffffff811694506601000000000000900479ffffffffffffffffffffffffffffffffffffffffffffffffffff169250612742915050565b9193909250565b6060815167ffffffffffffffff81111561276557612765613796565b6040519080825280602002602001820160405280156127a957816020015b604080518082019091525f80825260208201528152602001906001900390816127835790505b5090505f5b825181101561283d576128188382815181106127cc576127cc613c1f565b60200260200101516040805180820182525f808252602091820152815180830190925282516001600160a01b03168252918201516bffffffffffffffffffffffff169181019190915290565b82828151811061282a5761282a613c1f565b60209081029190910101526001016127ae565b50919050565b5f6bffffffffffffffffffffffff821115612894576040517f6dfcc65000000000000000000000000000000000000000000000000000000000815260606004820152602481018390526044016112da565b5090565b604080518082019091525f808252602082015260408051808201909152806128c360208501856138c4565b6001600160a01b031681526020016128de8460200135612843565b6bffffffffffffffffffffffff16905292915050565b6001600160a01b0381165f908152600183016020526040812054151561076e565b5f80612922858585613297565b915091505b935093915050565b5f61293a8484613c83565b79ffffffffffffffffffffffffffffffffffffffffffffffffffff83165f908152600287016020526040812065ffffffffffff929092169250805b8254811015612a7c575f83828154811061299157612991613c1f565b5f91825260208220015485546001600160a01b0390911692508590849081106129bc576129bc613c1f565b5f918252602080832091909101546001600160a01b038516835260048d019091526040909120740100000000000000000000000000000000000000009091046bffffffffffffffffffffffff169150612a1782886001612c90565b815f015f828254612a289190613cd3565b90915550506001810180547fffffffffffffffffffffffffffffffffffffffffffffffffffff0000000000001665ffffffffffff8b16179055612a6b8286613cd3565b945050600190920191506129759050565b5060078701612a8d82856001612c90565b815f015f828254612a9e9190613cd3565b909155505060010180547fffffffffffffffffffffffffffffffffffffffffffffffffffff0000000000001665ffffffffffff9690961695909517909455505050505050565b5f79ffffffffffffffffffffffffffffffffffffffffffffffffffff821115612894576040517f6dfcc65000000000000000000000000000000000000000000000000000000000815260d06004820152602481018390526044016112da565b5f825f018281548110612b5857612b58613c1f565b905f5260205f200154905092915050565b6001600160a01b0382165f9081526004840160205260408120600181015465ffffffffffff90811690841603612ba15754905061076e565b845f612bad8286612184565b90505f8179ffffffffffffffffffffffffffffffffffffffffffffffffffff1611612c04576040517ffaa708d200000000000000000000000000000000000000000000000000000000815260040160405180910390fd5b5f612c10888389613458565b845460018601549192509065ffffffffffff808916911611156120b75760018501545f90612c4790899065ffffffffffff16613c83565b65ffffffffffff1690505f612c5e84836001612c90565b905082811115612c77575f97505050505050505061076e565b612c818184613bf5565b9b9a5050505050505050505050565b82820281838583041485151702612d36577fffffffffffffffffffffffffffffffffffffffffffffffffffffffffffffffff8385098181108201900382848609835f038416828511612ce95763ae47f7025f526004601cfd5b93849004938382119092035f83900383900460010102920304176002600383028118808402820302808402820302808402820302808402820302808402820302808402909103020261076e565b0492915050565b6060815f01805480602002602001604051908101604052809291908181526020018280548015612d8a57602002820191905f5260205f20905b815481526020019060010190808311612d76575b50505050509050919050565b7ff0c57e16840df040f15088dc2f81fe391c3923bec73e23a9662efc9c229c6a005468010000000000000000900460ff16611219576040517fd7e6bcf800000000000000000000000000000000000000000000000000000000815260040160405180910390fd5b5f60018211612e0a575090565b8160017001000000000000000000000000000000008210612e305760809190911c9060401b5b680100000000000000008210612e4b5760409190911c9060201b5b6401000000008210612e625760209190911c9060101b5b620100008210612e775760109190911c9060081b5b6101008210612e8b5760089190911c9060041b5b60108210612e9e5760049190911c9060021b5b60048210612eaa5760011b5b600302600190811c90818581612ec257612ec2613ce6565b048201901c90506001818581612eda57612eda613ce6565b048201901c90506001818581612ef257612ef2613ce6565b048201901c90506001818581612f0a57612f0a613ce6565b048201901c90506001818581612f2257612f22613ce6565b048201901c90506001818581612f3a57612f3a613ce6565b048201901c9050612f59818581612f5357612f53613ce6565b04821190565b90039392505050565b5f5b81831015612fb9575f612f77848461352a565b5f8781526020902090915065ffffffffffff86169082015465ffffffffffff161115612fa557809250612fb3565b612fb0816001613cd3565b93505b50612f64565b509392505050565b5f805b8281101561301d575f612fd78683613544565b90508465ffffffffffff16815f015165ffffffffffff1610613014575f8211613000575f61300b565b61300b600183613bf5565b9250505061076e565b50600101612fc4565b506107a2600183613bf5565b5f81815260018301602052604081205461306e57508154600181810184555f848152602080822090930184905584548482528286019093526040902091909155610716565b505f610716565b5f818152600183016020526040812054801561258c575f613097600183613bf5565b85549091505f906130aa90600190613bf5565b9050808214613109575f865f0182815481106130c8576130c8613c1f565b905f5260205f200154905080875f0184815481106130e8576130e8613c1f565b5f918252602080832090910192909255918252600188019052604090208390555b855486908061311a5761311a613d13565b600190038181905f5260205f20015f90559055856001015f8681526020019081526020015f205f905560019350505050610716565b806001600160a01b03163b5f0361319d576040517f4c9c8ce30000000000000000000000000000000000000000000000000000000081526001600160a01b03821660048201526024016112da565b7f360894a13ba1a3210667c828492db98dca3e2076cc3735a920a3ca505d382bbc80547fffffffffffffffffffffffff0000000000000000000000000000000000000000166001600160a01b0392909216919091179055565b60605f5f846001600160a01b0316846040516132129190613d40565b5f60405180830381855af49150503d805f811461324a576040519150601f19603f3d011682016040523d82523d5f602084013e61324f565b606091505b5091509150610af68583836135c7565b3415611219576040517fb398979f00000000000000000000000000000000000000000000000000000000815260040160405180910390fd5b82545f90819080156133e8575f6132b387612204600185613bf5565b805490915065ffffffffffff808216916601000000000000900479ffffffffffffffffffffffffffffffffffffffffffffffffffff16908816821115613325576040517f2520601d00000000000000000000000000000000000000000000000000000000815260040160405180910390fd5b8765ffffffffffff168265ffffffffffff160361337457825465ffffffffffff16660100000000000079ffffffffffffffffffffffffffffffffffffffffffffffffffff8916021783556133da565b6040805180820190915265ffffffffffff808a16825279ffffffffffffffffffffffffffffffffffffffffffffffffffff808a1660208085019182528d54600181018f555f8f815291909120945191519092166601000000000000029216919091179101555b945085935061292792505050565b50506040805180820190915265ffffffffffff808516825279ffffffffffffffffffffffffffffffffffffffffffffffffffff80851660208085019182528854600181018a555f8a8152918220955192519093166601000000000000029190931617920191909155905081612927565b79ffffffffffffffffffffffffffffffffffffffffffffffffffff82165f90815260038401602090815260408083206001600160a01b03851684529091528120548082036134a9575f91505061076e565b79ffffffffffffffffffffffffffffffffffffffffffffffffffff84165f90815260028601602052604090206134e0600183613bf5565b815481106134f0576134f0613c1f565b5f918252602090912001547401000000000000000000000000000000000000000090046bffffffffffffffffffffffff1695945050505050565b5f6135386002848418613d56565b61076e90848416613cd3565b604080518082019091525f8082526020820152825f018263ffffffff168154811061357157613571613c1f565b5f9182526020918290206040805180820190915291015465ffffffffffff811682526601000000000000900479ffffffffffffffffffffffffffffffffffffffffffffffffffff16918101919091529392505050565b6060826135dc576135d78261363c565b61076e565b81511580156135f357506001600160a01b0384163b155b15613635576040517f9996b3150000000000000000000000000000000000000000000000000000000081526001600160a01b03851660048201526024016112da565b508061076e565b80511561364c5780518082602001fd5b6040517fd6bda27500000000000000000000000000000000000000000000000000000000815260040160405180910390fd5b5f6020828403121561368e575f5ffd5b81357fffffffff000000000000000000000000000000000000000000000000000000008116811461076e575f5ffd5b803565ffffffffffff811681146136d2575f5ffd5b919050565b80356001600160a01b03811681146136d2575f5ffd5b5f5f604083850312156136fe575f5ffd5b613707836136bd565b9150613715602084016136d7565b90509250929050565b5f6020828403121561372e575f5ffd5b5035919050565b5f5f5f60608486031215613747575f5ffd5b613750846136d7565b925061375e602085016136bd565b915061376c604085016136bd565b90509250925092565b5f5f60408385031215613786575f5ffd5b82359150613715602084016136d7565b7f4e487b71000000000000000000000000000000000000000000000000000000005f52604160045260245ffd5b5f5f604083850312156137d4575f5ffd5b6137dd836136d7565b9150602083013567ffffffffffffffff8111156137f8575f5ffd5b8301601f81018513613808575f5ffd5b803567ffffffffffffffff81111561382257613822613796565b6040517fffffffffffffffffffffffffffffffffffffffffffffffffffffffffffffffe0603f7fffffffffffffffffffffffffffffffffffffffffffffffffffffffffffffffe0601f8501160116810181811067ffffffffffffffff8211171561388e5761388e613796565b6040528181528282016020018710156138a5575f5ffd5b816020840160208301375f602083830101528093505050509250929050565b5f602082840312156138d4575f5ffd5b61076e826136d7565b5f5f5f606084860312156138ef575f5ffd5b6138f8846136bd565b9250613906602085016136bd565b915061376c604085016136d7565b602080825282518282018190525f918401906040840190835b818110156139695761395383855180516001600160a01b03168252602090810151910152565b602093909301926040929092019160010161392d565b509095945050505050565b60208101600383106139ad577f4e487b71000000000000000000000000000000000000000000000000000000005f52602160045260245ffd5b91905290565b5f5f5f5f5f85870360e08112156139c8575f5ffd5b6139d1876136bd565b95506139df602088016136d7565b945060807fffffffffffffffffffffffffffffffffffffffffffffffffffffffffffffffc082011215613a10575f5ffd5b5060408601925060c086013567ffffffffffffffff811115613a30575f5ffd5b8601601f81018813613a40575f5ffd5b803567ffffffffffffffff811115613a56575f5ffd5b8860208260061b8401011115613a6a575f5ffd5b959894975092955050506020019190565b5f5f60408385031215613a8c575f5ffd5b50508035926020909101359150565b5f5f5f5f60808587031215613aae575f5ffd5b613ab7856136bd565b9350613ac5602086016136bd565b9250613ad3604086016136d7565b9150613ae1606086016136d7565b905092959194509250565b602080825282518282018190525f918401906040840190835b818110156139695783516001600160a01b0316835260209384019390920191600101613b05565b602081525f82518060208401528060208501604085015e5f6040828501015260407fffffffffffffffffffffffffffffffffffffffffffffffffffffffffffffffe0601f83011684010191505092915050565b5f5f5f60608486031215613b91575f5ffd5b613b9a846136bd565b9250613906602085016136d7565b81516001600160a01b031681526020808301519082015260408101610716565b7f4e487b71000000000000000000000000000000000000000000000000000000005f52601160045260245ffd5b8181038181111561071657610716613bc8565b5f60208284031215613c18575f5ffd5b5051919050565b7f4e487b71000000000000000000000000000000000000000000000000000000005f52603260045260245ffd5b5f7fffffffffffffffffffffffffffffffffffffffffffffffffffffffffffffffff8203613c7c57613c7c613bc8565b5060010190565b65ffffffffffff828116828216039081111561071657610716613bc8565b79ffffffffffffffffffffffffffffffffffffffffffffffffffff818116838216019081111561071657610716613bc8565b8082018082111561071657610716613bc8565b7f4e487b71000000000000000000000000000000000000000000000000000000005f52601260045260245ffd5b7f4e487b71000000000000000000000000000000000000000000000000000000005f52603160045260245ffd5b5f82518060208501845e5f920191825250919050565b5f82613d89577f4e487b71000000000000000000000000000000000000000000000000000000005f52601260045260245ffd5b50049056fe64306262623263326630613235333062656131633333303435336265346633333834366530303930a2646970667358221220f7efb67e382d1aa7fccb9e1c7fc088a21732d2afc9f70a6b506017468efda27564736f6c634300081d0033","linkReferences":{}},"methodIdentifiers":{"DEFAULT_ADMIN_ROLE()":"a217fddf","FEEDER_ROLE()":"ceb20971","GIT_COMMIT()":"b8a15e3a","GIT_TAG()":"b175eb4d","UPGRADE_INTERFACE_VERSION()":"ad3cb1cc","feed(uint48,address,(uint256,uint256,uint256,uint256),(address,uint256)[])":"7db1eaff","feedType()":"56355c18","getCollateralOwnership(uint48,address,address)":"eca1c8d1","getCollateralOwnershipTWAB(uint48,uint48,address,address)":"90aaa046","getCollateralOwnerships(uint48,address)":"5e27c123","getCollateralOwnershipsTWAB(uint48,uint48,address)":"547c477d","getHistoricalOwners(address)":"f6e03f71","getHistoricalOwnersCount(address)":"8e892d79","getLastFeedTimestamp(address)":"51e7ba44","getRoleAdmin(bytes32)":"248a9ca3","getRoleMember(bytes32,uint256)":"9010d07c","getRoleMemberCount(bytes32)":"ca15c873","getRoleMembers(bytes32)":"a3246ad3","getTotalTWAB(address,uint48,uint48)":"2cba54da","getValidator(uint48,address)":"1714b74d","getValidatorAddressByIndex(uint256)":"5826cf52","getValidatorAddressCount()":"33caa716","grantRole(bytes32,address)":"2f2ff15d","hasRole(bytes32,address)":"91d14854","initialize(address)":"c4d66de8","proxiableUUID()":"52d1902d","renounceRole(bytes32,address)":"36568abe","revokeRole(bytes32,address)":"d547741f","supportsInterface(bytes4)":"01ffc9a7","upgradeToAndCall(address,bytes)":"4f1ef286"},"id":116}