{"abi":[{"type":"constructor","inputs":[{"name":"tmito","type":"address","internalType":"address"},{"name":"wmito","type":"address","internalType":"address"},{"name":"gmMito","type":"address","internalType":"address"},{"name":"validatorManager","type":"address","internalType":"address"},{"name":"tmitoStaking","type":"address","internalType":"address"},{"name":"rewardDistributor","type":"address","internalType":"address"},{"name":"withdrawalNFT","type":"address","internalType":"address"}],"stateMutability":"nonpayable"},{"type":"function","name":"DEFAULT_ADMIN_ROLE","inputs":[],"outputs":[{"name":"","type":"bytes32","internalType":"bytes32"}],"stateMutability":"view"},{"type":"function","name":"DOMAIN_SEPARATOR","inputs":[],"outputs":[{"name":"result","type":"bytes32","internalType":"bytes32"}],"stateMutability":"view"},{"type":"function","name":"GIT_COMMIT","inputs":[],"outputs":[{"name":"","type":"string","internalType":"string"}],"stateMutability":"view"},{"type":"function","name":"GIT_TAG","inputs":[],"outputs":[{"name":"","type":"string","internalType":"string"}],"stateMutability":"view"},{"type":"function","name":"GM_MITO","inputs":[],"outputs":[{"name":"","type":"address","internalType":"contract IgmMITO"}],"stateMutability":"view"},{"type":"function","name":"OPERATOR_ROLE","inputs":[],"outputs":[{"name":"","type":"bytes32","internalType":"bytes32"}],"stateMutability":"view"},{"type":"function","name":"REWARD_DISTRIBUTOR","inputs":[],"outputs":[{"name":"","type":"address","internalType":"contract IValidatorRewardDistributor"}],"stateMutability":"view"},{"type":"function","name":"TMITO","inputs":[],"outputs":[{"name":"","type":"address","internalType":"contract ItMITO"}],"stateMutability":"view"},{"type":"function","name":"TMITO_STAKING","inputs":[],"outputs":[{"name":"","type":"address","internalType":"contract IValidatorStaking"}],"stateMutability":"view"},{"type":"function","name":"UPGRADE_INTERFACE_VERSION","inputs":[],"outputs":[{"name":"","type":"string","internalType":"string"}],"stateMutability":"view"},{"type":"function","name":"VALIDATOR_MANAGER","inputs":[],"outputs":[{"name":"","type":"address","internalType":"contract IValidatorManager"}],"stateMutability":"view"},{"type":"function","name":"VALIDATOR_ROLE","inputs":[],"outputs":[{"name":"","type":"bytes32","internalType":"bytes32"}],"stateMutability":"view"},{"type":"function","name":"WITHDRAWAL_NFT","inputs":[],"outputs":[{"name":"","type":"address","internalType":"contract IWithdrawalNFT"}],"stateMutability":"view"},{"type":"function","name":"WMITO","inputs":[],"outputs":[{"name":"","type":"address","internalType":"contract WETH"}],"stateMutability":"view"},{"type":"function","name":"allowance","inputs":[{"name":"owner","type":"address","internalType":"address"},{"name":"spender","type":"address","internalType":"address"}],"outputs":[{"name":"result","type":"uint256","internalType":"uint256"}],"stateMutability":"view"},{"type":"function","name":"approve","inputs":[{"name":"spender","type":"address","internalType":"address"},{"name":"amount","type":"uint256","internalType":"uint256"}],"outputs":[{"name":"","type":"bool","internalType":"bool"}],"stateMutability":"nonpayable"},{"type":"function","name":"balanceOf","inputs":[{"name":"owner","type":"address","internalType":"address"}],"outputs":[{"name":"result","type":"uint256","internalType":"uint256"}],"stateMutability":"view"},{"type":"function","name":"claimAndConvertRewards","inputs":[{"name":"validators","type":"address[]","internalType":"address[]"}],"outputs":[{"name":"gmMitoReceived","type":"uint256","internalType":"uint256"}],"stateMutability":"nonpayable"},{"type":"function","name":"claimRewards","inputs":[],"outputs":[{"name":"reward","type":"uint256","internalType":"uint256"}],"stateMutability":"nonpayable"},{"type":"function","name":"claimRewards","inputs":[{"name":"validators","type":"address[]","internalType":"address[]"}],"outputs":[{"name":"totalClaimed","type":"uint256","internalType":"uint256"}],"stateMutability":"nonpayable"},{"type":"function","name":"claimWithdrawals","inputs":[{"name":"tokenIds","type":"uint256[]","internalType":"uint256[]"},{"name":"validator","type":"address","internalType":"address"}],"outputs":[{"name":"totalClaimed","type":"uint256","internalType":"uint256"}],"stateMutability":"nonpayable"},{"type":"function","name":"compoundToStaking","inputs":[{"name":"validator","type":"address","internalType":"address"},{"name":"amount","type":"uint256","internalType":"uint256"}],"outputs":[],"stateMutability":"nonpayable"},{"type":"function","name":"decimals","inputs":[],"outputs":[{"name":"","type":"uint8","internalType":"uint8"}],"stateMutability":"pure"},{"type":"function","name":"distributeRewards","inputs":[{"name":"amount","type":"uint256","internalType":"uint256"}],"outputs":[],"stateMutability":"nonpayable"},{"type":"function","name":"earnedRewards","inputs":[{"name":"account","type":"address","internalType":"address"}],"outputs":[{"name":"","type":"uint256","internalType":"uint256"}],"stateMutability":"view"},{"type":"function","name":"getAuthorizedValidators","inputs":[],"outputs":[{"name":"","type":"address[]","internalType":"address[]"}],"stateMutability":"view"},{"type":"function","name":"getRoleAdmin","inputs":[{"name":"role","type":"bytes32","internalType":"bytes32"}],"outputs":[{"name":"","type":"bytes32","internalType":"bytes32"}],"stateMutability":"view"},{"type":"function","name":"getRoleMember","inputs":[{"name":"role","type":"bytes32","internalType":"bytes32"},{"name":"index","type":"uint256","internalType":"uint256"}],"outputs":[{"name":"","type":"address","internalType":"address"}],"stateMutability":"view"},{"type":"function","name":"getRoleMemberCount","inputs":[{"name":"role","type":"bytes32","internalType":"bytes32"}],"outputs":[{"name":"","type":"uint256","internalType":"uint256"}],"stateMutability":"view"},{"type":"function","name":"getRoleMembers","inputs":[{"name":"role","type":"bytes32","internalType":"bytes32"}],"outputs":[{"name":"","type":"address[]","internalType":"address[]"}],"stateMutability":"view"},{"type":"function","name":"grantRole","inputs":[{"name":"role","type":"bytes32","internalType":"bytes32"},{"name":"account","type":"address","internalType":"address"}],"outputs":[],"stateMutability":"nonpayable"},{"type":"function","name":"hasRole","inputs":[{"name":"role","type":"bytes32","internalType":"bytes32"},{"name":"account","type":"address","internalType":"address"}],"outputs":[{"name":"","type":"bool","internalType":"bool"}],"stateMutability":"view"},{"type":"function","name":"initialize","inputs":[{"name":"initialOwner","type":"address","internalType":"address"},{"name":"initialWithdrawalPeriod","type":"uint32","internalType":"uint32"},{"name":"initialMaxClaimsPerTx","type":"uint16","internalType":"uint16"}],"outputs":[],"stateMutability":"nonpayable"},{"type":"function","name":"maxClaimsPerTx","inputs":[],"outputs":[{"name":"","type":"uint16","internalType":"uint16"}],"stateMutability":"view"},{"type":"function","name":"name","inputs":[],"outputs":[{"name":"","type":"string","internalType":"string"}],"stateMutability":"pure"},{"type":"function","name":"nonces","inputs":[{"name":"owner","type":"address","internalType":"address"}],"outputs":[{"name":"result","type":"uint256","internalType":"uint256"}],"stateMutability":"view"},{"type":"function","name":"permit","inputs":[{"name":"owner","type":"address","internalType":"address"},{"name":"spender","type":"address","internalType":"address"},{"name":"value","type":"uint256","internalType":"uint256"},{"name":"deadline","type":"uint256","internalType":"uint256"},{"name":"v","type":"uint8","internalType":"uint8"},{"name":"r","type":"bytes32","internalType":"bytes32"},{"name":"s","type":"bytes32","internalType":"bytes32"}],"outputs":[],"stateMutability":"nonpayable"},{"type":"function","name":"proxiableUUID","inputs":[],"outputs":[{"name":"","type":"bytes32","internalType":"bytes32"}],"stateMutability":"view"},{"type":"function","name":"renounceRole","inputs":[{"name":"role","type":"bytes32","internalType":"bytes32"},{"name":"callerConfirmation","type":"address","internalType":"address"}],"outputs":[],"stateMutability":"nonpayable"},{"type":"function","name":"requestUnstake","inputs":[{"name":"validator","type":"address","internalType":"address"},{"name":"amount","type":"uint256","internalType":"uint256"}],"outputs":[{"name":"tokenId","type":"uint256","internalType":"uint256"}],"stateMutability":"nonpayable"},{"type":"function","name":"revokeRole","inputs":[{"name":"role","type":"bytes32","internalType":"bytes32"},{"name":"account","type":"address","internalType":"address"}],"outputs":[],"stateMutability":"nonpayable"},{"type":"function","name":"rewardBalance","inputs":[],"outputs":[{"name":"","type":"uint256","internalType":"uint256"}],"stateMutability":"view"},{"type":"function","name":"rewardPerShare","inputs":[],"outputs":[{"name":"","type":"uint256","internalType":"uint256"}],"stateMutability":"view"},{"type":"function","name":"stake","inputs":[{"name":"validator","type":"address","internalType":"address"},{"name":"amount","type":"uint256","internalType":"uint256"}],"outputs":[],"stateMutability":"nonpayable"},{"type":"function","name":"supportsInterface","inputs":[{"name":"interfaceId","type":"bytes4","internalType":"bytes4"}],"outputs":[{"name":"","type":"bool","internalType":"bool"}],"stateMutability":"view"},{"type":"function","name":"symbol","inputs":[],"outputs":[{"name":"","type":"string","internalType":"string"}],"stateMutability":"pure"},{"type":"function","name":"totalStaked","inputs":[],"outputs":[{"name":"","type":"uint256","internalType":"uint256"}],"stateMutability":"view"},{"type":"function","name":"totalSupply","inputs":[],"outputs":[{"name":"result","type":"uint256","internalType":"uint256"}],"stateMutability":"view"},{"type":"function","name":"transfer","inputs":[{"name":"to","type":"address","internalType":"address"},{"name":"amount","type":"uint256","internalType":"uint256"}],"outputs":[{"name":"","type":"bool","internalType":"bool"}],"stateMutability":"nonpayable"},{"type":"function","name":"transferFrom","inputs":[{"name":"from","type":"address","internalType":"address"},{"name":"to","type":"address","internalType":"address"},{"name":"amount","type":"uint256","internalType":"uint256"}],"outputs":[{"name":"","type":"bool","internalType":"bool"}],"stateMutability":"nonpayable"},{"type":"function","name":"upgradeToAndCall","inputs":[{"name":"newImplementation","type":"address","internalType":"address"},{"name":"data","type":"bytes","internalType":"bytes"}],"outputs":[],"stateMutability":"payable"},{"type":"function","name":"userRewardPerSharePaid","inputs":[{"name":"account","type":"address","internalType":"address"}],"outputs":[{"name":"","type":"uint256","internalType":"uint256"}],"stateMutability":"view"},{"type":"function","name":"validatorStake","inputs":[{"name":"validator","type":"address","internalType":"address"}],"outputs":[{"name":"","type":"uint256","internalType":"uint256"}],"stateMutability":"view"},{"type":"function","name":"withdrawalPeriod","inputs":[],"outputs":[{"name":"","type":"uint32","internalType":"uint32"}],"stateMutability":"view"},{"type":"event","name":"Approval","inputs":[{"name":"owner","type":"address","indexed":true,"internalType":"address"},{"name":"spender","type":"address","indexed":true,"internalType":"address"},{"name":"amount","type":"uint256","indexed":false,"internalType":"uint256"}],"anonymous":false},{"type":"event","name":"Initialized","inputs":[{"name":"version","type":"uint64","indexed":false,"internalType":"uint64"}],"anonymous":false},{"type":"event","name":"RewardClaimed","inputs":[{"name":"user","type":"address","indexed":true,"internalType":"address"},{"name":"amount","type":"uint256","indexed":false,"internalType":"uint256"}],"anonymous":false},{"type":"event","name":"RewardDistributed","inputs":[{"name":"amount","type":"uint256","indexed":false,"internalType":"uint256"},{"name":"rewardPerShare","type":"uint256","indexed":false,"internalType":"uint256"}],"anonymous":false},{"type":"event","name":"RoleAdminChanged","inputs":[{"name":"role","type":"bytes32","indexed":true,"internalType":"bytes32"},{"name":"previousAdminRole","type":"bytes32","indexed":true,"internalType":"bytes32"},{"name":"newAdminRole","type":"bytes32","indexed":true,"internalType":"bytes32"}],"anonymous":false},{"type":"event","name":"RoleGranted","inputs":[{"name":"role","type":"bytes32","indexed":true,"internalType":"bytes32"},{"name":"account","type":"address","indexed":true,"internalType":"address"},{"name":"sender","type":"address","indexed":true,"internalType":"address"}],"anonymous":false},{"type":"event","name":"RoleRevoked","inputs":[{"name":"role","type":"bytes32","indexed":true,"internalType":"bytes32"},{"name":"account","type":"address","indexed":true,"internalType":"address"},{"name":"sender","type":"address","indexed":true,"internalType":"address"}],"anonymous":false},{"type":"event","name":"Staked","inputs":[{"name":"user","type":"address","indexed":true,"internalType":"address"},{"name":"validator","type":"address","indexed":true,"internalType":"address"},{"name":"amount","type":"uint256","indexed":false,"internalType":"uint256"}],"anonymous":false},{"type":"event","name":"Transfer","inputs":[{"name":"from","type":"address","indexed":true,"internalType":"address"},{"name":"to","type":"address","indexed":true,"internalType":"address"},{"name":"amount","type":"uint256","indexed":false,"internalType":"uint256"}],"anonymous":false},{"type":"event","name":"UnstakeRequested","inputs":[{"name":"user","type":"address","indexed":true,"internalType":"address"},{"name":"validator","type":"address","indexed":true,"internalType":"address"},{"name":"amount","type":"uint256","indexed":false,"internalType":"uint256"}],"anonymous":false},{"type":"event","name":"Upgraded","inputs":[{"name":"implementation","type":"address","indexed":true,"internalType":"address"}],"anonymous":false},{"type":"event","name":"WithdrawalClaimed","inputs":[{"name":"user","type":"address","indexed":true,"internalType":"address"},{"name":"amount","type":"uint256","indexed":false,"internalType":"uint256"},{"name":"tokenIds","type":"uint256[]","indexed":false,"internalType":"uint256[]"}],"anonymous":false},{"type":"error","name":"AccessControlBadConfirmation","inputs":[]},{"type":"error","name":"AccessControlUnauthorizedAccount","inputs":[{"name":"account","type":"address","internalType":"address"},{"name":"neededRole","type":"bytes32","internalType":"bytes32"}]},{"type":"error","name":"AddressEmptyCode","inputs":[{"name":"target","type":"address","internalType":"address"}]},{"type":"error","name":"AllowanceOverflow","inputs":[]},{"type":"error","name":"AllowanceUnderflow","inputs":[]},{"type":"error","name":"ApproveFailed","inputs":[]},{"type":"error","name":"ERC1967InvalidImplementation","inputs":[{"name":"implementation","type":"address","internalType":"address"}]},{"type":"error","name":"ERC1967NonPayable","inputs":[]},{"type":"error","name":"FailedCall","inputs":[]},{"type":"error","name":"InsufficientAllowance","inputs":[]},{"type":"error","name":"InsufficientBalance","inputs":[]},{"type":"error","name":"InsufficientStake","inputs":[]},{"type":"error","name":"InvalidAmount","inputs":[]},{"type":"error","name":"InvalidInitialization","inputs":[]},{"type":"error","name":"InvalidLength","inputs":[]},{"type":"error","name":"InvalidPermit","inputs":[]},{"type":"error","name":"InvalidValidator","inputs":[]},{"type":"error","name":"MinStakingAmountNotMet","inputs":[]},{"type":"error","name":"MinUnstakingAmountNotMet","inputs":[]},{"type":"error","name":"NoShares","inputs":[]},{"type":"error","name":"NotInitializing","inputs":[]},{"type":"error","name":"NotOwner","inputs":[]},{"type":"error","name":"Permit2AllowanceIsFixedAtInfinity","inputs":[]},{"type":"error","name":"PermitExpired","inputs":[]},{"type":"error","name":"ReentrancyGuardReentrantCall","inputs":[]},{"type":"error","name":"TotalSupplyOverflow","inputs":[]},{"type":"error","name":"TransferFailed","inputs":[]},{"type":"error","name":"UUPSUnauthorizedCallContext","inputs":[]},{"type":"error","name":"UUPSUnsupportedProxiableUUID","inputs":[{"name":"slot","type":"bytes32","internalType":"bytes32"}]},{"type":"error","name":"Unauthorized","inputs":[]},{"type":"error","name":"WithdrawalNotMatured","inputs":[]},{"type":"error","name":"ZeroAddress","inputs":[]},{"type":"error","name":"ZeroAmount","inputs":[]}],"bytecode":{"object":"0x61018060405230608052348015610014575f5ffd5b5060405161479a38038061479a83398101604081905261003391610250565b6001600160a01b03871661005a5760405163d92e233d60e01b815260040160405180910390fd5b6001600160a01b0386166100815760405163d92e233d60e01b815260040160405180910390fd5b6001600160a01b0385166100a85760405163d92e233d60e01b815260040160405180910390fd5b6001600160a01b0384166100cf5760405163d92e233d60e01b815260040160405180910390fd5b6001600160a01b0383166100f65760405163d92e233d60e01b815260040160405180910390fd5b6001600160a01b03821661011d5760405163d92e233d60e01b815260040160405180910390fd5b6001600160a01b0381166101445760405163d92e233d60e01b815260040160405180910390fd5b61014c610183565b6001600160a01b0396871660a05294861660c05292851660e0529084166101005283166101205282166101405216610160526102d1565b7ff0c57e16840df040f15088dc2f81fe391c3923bec73e23a9662efc9c229c6a00805468010000000000000000900460ff16156101d35760405163f92ee8a960e01b815260040160405180910390fd5b80546001600160401b03908116146102325780546001600160401b0319166001600160401b0390811782556040519081527fc7f505b2f371ae2175ee4913f4499e1f2633a7b5936321eed1cdaeb6115181d29060200160405180910390a15b50565b80516001600160a01b038116811461024b575f5ffd5b919050565b5f5f5f5f5f5f5f60e0888a031215610266575f5ffd5b61026f88610235565b965061027d60208901610235565b955061028b60408901610235565b945061029960608901610235565b93506102a760808901610235565b92506102b560a08901610235565b91506102c360c08901610235565b905092959891949750929550565b60805160a05160c05160e051610100516101205161014051610160516143bf6103db5f395f81816104b001528181611aa401528181611c9c0152611df601525f818161096b01526127d801525f81816106ba015281816114d60152818161160d0152818161172101528181611856015281816119f101528181612fc70152818161323b0152818161334f015261346301525f610b3101525f818161068701528181610efe015281816112280152818161138a015261211701525f610bc001525f81816107b3015281816115b60152818161163c01528181611b2401528181611f12015281816132fa015261337e01525f8181612bef01528181612c180152612dd101526143bf5ff3fe608060405260043610610345575f3560e01c8063817b1cd2116101b2578063adc9772e116100f2578063ca15c87311610092578063d547741f1161006d578063d547741f14610cb5578063dd62ed3e14610cd4578063f5b541a614610cf3578063f9f031df14610d26575f5ffd5b8063ca15c87314610c58578063cd2ba69c14610c77578063d505accf14610c96575f5ffd5b8063b8a15e3a116100cd578063b8a15e3a14610b9b578063b919ba1a14610baf578063bca7093d14610be2578063c49baebe14610c25575f5ffd5b8063adc9772e14610b01578063ae9483e014610b20578063b175eb4d14610b53575f5ffd5b806391d148541161015d578063a3246ad311610138578063a3246ad314610a67578063a9059cbb14610a86578063aa5c3ab414610aa5578063ad3cb1cc14610ab9575f5ffd5b806391d14854146109ac57806395d89b4114610a0f578063a217fddf14610a54575f5ffd5b806388b1310d1161018d57806388b1310d146109395780638de728e41461095a5780639010d07c1461098d575f5ffd5b8063817b1cd214610894578063818ae1ce146108c757806382d366d01461091a575f5ffd5b806339b7fcc6116102885780635f537db11161022857806370a082311161020357806370a08231146107f4578063710ba631146108255780637ecebe00146108445780637f21f76014610875575f5ffd5b80635f537db1146107555780635f8a4719146107a257806360b05e51146107d5575f5ffd5b8063446a2ec811610263578063446a2ec8146106dc5780634f1ef2861461070f57806352d1902d1461072257806359974e3814610736575f5ffd5b806339b7fcc6146106235780633bed90ce1461067657806342b60869146106a9575f5ffd5b8063248a9ca3116102f3578063313ce567116102ce578063313ce5671461050b5780633644e5151461052657806336568abe146105f0578063372500ab1461060f575f5ffd5b8063248a9ca314610452578063266ba6961461049f5780632f2ff15d146104ea575f5ffd5b806314e21a911161032357806314e21a91146103ea57806318160ddd1461041757806323b872dd14610433575f5ffd5b806301ffc9a71461034957806306fdde031461037d578063095ea7b3146103cb575b5f5ffd5b348015610354575f5ffd5b50610368610363366004613c82565b610d45565b60405190151581526020015b60405180910390f35b348015610388575f5ffd5b5060408051808201909152601981527f4d756e6a6120744d49544f205374616b696e67205661756c740000000000000060208201525b6040516103749190613cc1565b3480156103d6575f5ffd5b506103686103e5366004613d0a565b610da0565b3480156103f5575f5ffd5b50610409610404366004613d7c565b610e1f565b604051908152602001610374565b348015610422575f5ffd5b506805345cdf77eb68f44c54610409565b34801561043e575f5ffd5b5061036861044d366004613dbb565b61103c565b34801561045d575f5ffd5b5061040961046c366004613df9565b5f9081527f02dd7bc7dec4dceedda775e58dd541e08a116c6c53815c0bd028192f7b626800602052604090206001015490565b3480156104aa575f5ffd5b506104d27f000000000000000000000000000000000000000000000000000000000000000081565b6040516001600160a01b039091168152602001610374565b3480156104f5575f5ffd5b50610509610504366004613e10565b611117565b005b348015610516575f5ffd5b5060405160128152602001610374565b348015610531575f5ffd5b50604080518082018252601981527f4d756e6a6120744d49544f205374616b696e67205661756c740000000000000060209182015281517f8b73c3c69bb8fe3d512ecc4cf759cc79239f7b179b0ffacaa9a75d522b39400f81527fa6f526b992e60c9fcac64c62e4182c9dc613032a8581cdb848564ec282dee4f6918101919091527fc89efdaa54c0f20c7adf612882df0950f5a951637e0307cdcb4c672f298b8bc69181019190915246606082015230608082015260a09020610409565b3480156105fb575f5ffd5b5061050961060a366004613e10565b611160565b34801561061a575f5ffd5b506104096111b1565b34801561062e575f5ffd5b5061040961063d366004613e3e565b6001600160a01b03165f9081527f3b5beb8fd5438e0ef1cfd74239cc665848b29ad98eb2b1f1c941d9191a1b4702602052604090205490565b348015610681575f5ffd5b506104d27f000000000000000000000000000000000000000000000000000000000000000081565b3480156106b4575f5ffd5b506104d27f000000000000000000000000000000000000000000000000000000000000000081565b3480156106e7575f5ffd5b507f3b5beb8fd5438e0ef1cfd74239cc665848b29ad98eb2b1f1c941d9191a1b470354610409565b61050961071d366004613ee0565b611288565b34801561072d575f5ffd5b506104096112a7565b348015610741575f5ffd5b50610509610750366004613df9565b6112d5565b348015610760575f5ffd5b507f3b5beb8fd5438e0ef1cfd74239cc665848b29ad98eb2b1f1c941d9191a1b470054640100000000900461ffff1660405161ffff9091168152602001610374565b3480156107ad575f5ffd5b506104d27f000000000000000000000000000000000000000000000000000000000000000081565b3480156107e0575f5ffd5b506105096107ef366004613d0a565b611439565b3480156107ff575f5ffd5b5061040961080e366004613e3e565b6387a211a2600c9081525f91909152602090205490565b348015610830575f5ffd5b5061040961083f366004613d0a565b611819565b34801561084f575f5ffd5b5061040961085e366004613e3e565b6338377508600c9081525f91909152602090205490565b348015610880575f5ffd5b5061040961088f366004613f87565b611beb565b34801561089f575f5ffd5b507f3b5beb8fd5438e0ef1cfd74239cc665848b29ad98eb2b1f1c941d9191a1b470154610409565b3480156108d2575f5ffd5b506104096108e1366004613e3e565b6001600160a01b03165f9081527f3b5beb8fd5438e0ef1cfd74239cc665848b29ad98eb2b1f1c941d9191a1b4704602052604090205490565b348015610925575f5ffd5b50610409610934366004613e3e565b611f8a565b348015610944575f5ffd5b5061094d611fda565b6040516103749190613fda565b348015610965575f5ffd5b506104d27f000000000000000000000000000000000000000000000000000000000000000081565b348015610998575f5ffd5b506104d26109a7366004614025565b611fe9565b3480156109b7575f5ffd5b506103686109c6366004613e10565b5f9182527f02dd7bc7dec4dceedda775e58dd541e08a116c6c53815c0bd028192f7b626800602090815260408084206001600160a01b0393909316845291905290205460ff1690565b348015610a1a575f5ffd5b5060408051808201909152600681527f6d4d49544f73000000000000000000000000000000000000000000000000000060208201526103be565b348015610a5f575f5ffd5b506104095f81565b348015610a72575f5ffd5b5061094d610a81366004613df9565b612029565b348015610a91575f5ffd5b50610368610aa0366004613d0a565b612065565b348015610ab0575f5ffd5b506104096120e7565b348015610ac4575f5ffd5b506103be6040518060400160405280600581526020017f352e302e3000000000000000000000000000000000000000000000000000000081525081565b348015610b0c575f5ffd5b50610509610b1b366004613d0a565b612188565b348015610b2b575f5ffd5b506104d27f000000000000000000000000000000000000000000000000000000000000000081565b348015610b5e575f5ffd5b506103be6040518060400160405280600681526020017f76302e302e34000000000000000000000000000000000000000000000000000081525081565b348015610ba6575f5ffd5b506103be612219565b348015610bba575f5ffd5b506104d27f000000000000000000000000000000000000000000000000000000000000000081565b348015610bed575f5ffd5b507f3b5beb8fd5438e0ef1cfd74239cc665848b29ad98eb2b1f1c941d9191a1b47005460405163ffffffff9091168152602001610374565b348015610c30575f5ffd5b506104097f7f11e8a47c8f6f2761361211fdf25db4167076f4c74d7c390a15f4211bc8c21481565b348015610c63575f5ffd5b50610409610c72366004613df9565b612235565b348015610c82575f5ffd5b50610509610c91366004614045565b61226c565b348015610ca1575f5ffd5b50610509610cb0366004614090565b6124e1565b348015610cc0575f5ffd5b50610509610ccf366004613e10565b6126ea565b348015610cdf575f5ffd5b50610409610cee366004614101565b61272d565b348015610cfe575f5ffd5b506104097f46a52cf33029de9f84853745a87af28464c80bf0346df1b32e205fc73319f62281565b348015610d31575f5ffd5b50610409610d40366004613d7c565b6127a0565b5f7fffffffff0000000000000000000000000000000000000000000000000000000082167f5a05180f000000000000000000000000000000000000000000000000000000001480610d9a5750610d9a826128d0565b92915050565b5f6001600160a01b0383166e22d473030f116ddee9f6b43ac78ba31882191517610dd157633f68539a5f526004601cfd5b82602052637f5e9f20600c52335f52816034600c2055815f52602c5160601c337f8c5be1e5ebec7d5bd14f71427d1e84f3dd0314c0f7b2291e5b200ac8c7c3b92560205fa350600192915050565b5f7f46a52cf33029de9f84853745a87af28464c80bf0346df1b32e205fc73319f622610e4a81612966565b82610e81576040517f1f2a200500000000000000000000000000000000000000000000000000000000815260040160405180910390fd5b5f610e936805345cdf77eb68f44c5490565b90505f8111610ece576040517fb317087b00000000000000000000000000000000000000000000000000000000815260040160405180910390fd5b6040517f8b3dd2690000000000000000000000000000000000000000000000000000000081526001600160a01b037f00000000000000000000000000000000000000000000000000000000000000001690638b3dd26990610f379088908890309060040161412d565b6020604051808303815f875af1158015610f53573d5f5f3e3d5ffd5b505050506040513d601f19601f82011682018060405250810190610f77919061418c565b92505f8311610fb2576040517f1f2a200500000000000000000000000000000000000000000000000000000000815260040160405180910390fd5b7f3b5beb8fd5438e0ef1cfd74239cc665848b29ad98eb2b1f1c941d9191a1b47035f610fe785670de0b6b3a764000085612973565b8254610ff391906141d0565b80835560408051878152602081018390529192507feaf3d57629d9b1ce95715ccd98d6f5bf48023be1d5a06e09f64ab7f6d8be01d5910160405180910390a15050505092915050565b5f611048848484612a20565b8360601b6e22d473030f116ddee9f6b43ac78ba3331461109c5733602052637f5e9f208117600c526034600c2080548019156110995780851115611093576313be252b5f526004601cfd5b84810382555b50505b6387a211a28117600c526020600c208054808511156110c25763f4d678b85f526004601cfd5b84810382555050835f526020600c208381540181555082602052600c5160601c8160601c7fddf252ad1be2c89b69c2b068fc378daa952ba7f163c4a11628f55a4df523b3ef602080a3505060015b9392505050565b5f8281527f02dd7bc7dec4dceedda775e58dd541e08a116c6c53815c0bd028192f7b626800602052604090206001015461115081612966565b61115a8383612a70565b50505050565b6001600160a01b03811633146111a2576040517f6697b23200000000000000000000000000000000000000000000000000000000815260040160405180910390fd5b6111ac8282612ac5565b505050565b5f6111bb33612b11565b50335f9081527f3b5beb8fd5438e0ef1cfd74239cc665848b29ad98eb2b1f1c941d9191a1b470560205260409020547f3b5beb8fd5438e0ef1cfd74239cc665848b29ad98eb2b1f1c941d9191a1b4703811561128457335f81815260028301602052604081205561124e907f00000000000000000000000000000000000000000000000000000000000000009084612b91565b60405182815233907f106f923f993c2149d49b4255ff723acafa1f2d94393f561d3eda32ae348f72419060200160405180910390a25b5090565b611290612be4565b61129982612cb6565b6112a38282612cc0565b5050565b5f6112b0612dc6565b507f360894a13ba1a3210667c828492db98dca3e2076cc3735a920a3ca505d382bbc90565b7f46a52cf33029de9f84853745a87af28464c80bf0346df1b32e205fc73319f6226112ff81612966565b5f8211611338576040517f1f2a200500000000000000000000000000000000000000000000000000000000815260040160405180910390fd5b5f61134a6805345cdf77eb68f44c5490565b90505f8111611385576040517fb317087b00000000000000000000000000000000000000000000000000000000815260040160405180910390fd5b6113b27f0000000000000000000000000000000000000000000000000000000000000000335b3086612e28565b7f3b5beb8fd5438e0ef1cfd74239cc665848b29ad98eb2b1f1c941d9191a1b47035f6113e785670de0b6b3a764000085612973565b82546113f391906141d0565b80835560408051878152602081018390529192507feaf3d57629d9b1ce95715ccd98d6f5bf48023be1d5a06e09f64ab7f6d8be01d5910160405180910390a15050505050565b7f46a52cf33029de9f84853745a87af28464c80bf0346df1b32e205fc73319f62261146381612966565b6001600160a01b0383165f9081527f33bba9d53c7b3593a910d5d91ae2186e0b76d797cad9e6b6cd5b9a64588c2ea2602052604090205460ff166114d3576040517f682a6e7c00000000000000000000000000000000000000000000000000000000815260040160405180910390fd5b5f7f00000000000000000000000000000000000000000000000000000000000000006001600160a01b03166325c065b16040518163ffffffff1660e01b8152600401602060405180830381865afa158015611530573d5f5f3e3d5ffd5b505050506040513d601f19601f82011682018060405250810190611554919061418c565b905080831015611590576040517f2cd4a12300000000000000000000000000000000000000000000000000000000815260040160405180910390fd5b7f3b5beb8fd5438e0ef1cfd74239cc665848b29ad98eb2b1f1c941d9191a1b47016115dd7f0000000000000000000000000000000000000000000000000000000000000000333087612e28565b6040517f095ea7b30000000000000000000000000000000000000000000000000000000081526001600160a01b037f000000000000000000000000000000000000000000000000000000000000000081166004830152602482018690527f0000000000000000000000000000000000000000000000000000000000000000169063095ea7b3906044016020604051808303815f875af1158015611682573d5f5f3e3d5ffd5b505050506040513d601f19601f820116820180604052508101906116a691906141e3565b6116dc576040517f3e3f8f7300000000000000000000000000000000000000000000000000000000815260040160405180910390fd5b6040517fbf6eac2f0000000000000000000000000000000000000000000000000000000081526001600160a01b038681166004830152306024830152604482018690527f0000000000000000000000000000000000000000000000000000000000000000169063bf6eac2f906064016020604051808303815f875af1158015611767573d5f5f3e3d5ffd5b505050506040513d601f19601f8201168201806040525081019061178b919061418c565b506001600160a01b0385165f908152600182016020526040812080548692906117b59084906141d0565b90915550508054849082905f906117cd9084906141d0565b90915550506040518481526001600160a01b0386169030907f5dac0c1b1112564a045ba943c9d50270893e8e826c49be8e7073adc713ab7bd79060200160405180910390a35050505050565b5f5f8211611853576040517f1f2a200500000000000000000000000000000000000000000000000000000000815260040160405180910390fd5b5f7f00000000000000000000000000000000000000000000000000000000000000006001600160a01b0316633a152f1b6040518163ffffffff1660e01b8152600401602060405180830381865afa1580156118b0573d5f5f3e3d5ffd5b505050506040513d601f19601f820116820180604052508101906118d4919061418c565b905080831015611910576040517f9e910a2800000000000000000000000000000000000000000000000000000000815260040160405180910390fd5b6001600160a01b0384165f9081527f3b5beb8fd5438e0ef1cfd74239cc665848b29ad98eb2b1f1c941d9191a1b470260205260409020547f3b5beb8fd5438e0ef1cfd74239cc665848b29ad98eb2b1f1c941d9191a1b4701908411156119a2576040517ff1bc94d200000000000000000000000000000000000000000000000000000000815260040160405180910390fd5b6119ac3385612e8a565b6040517f4288d3aa0000000000000000000000000000000000000000000000000000000081526001600160a01b038681166004830152306024830152604482018690527f00000000000000000000000000000000000000000000000000000000000000001690634288d3aa906064016020604051808303815f875af1158015611a37573d5f5f3e3d5ffd5b505050506040513d601f19601f82011682018060405250810190611a5b919061418c565b506001600160a01b0385165f90815260018201602052604081208054869290611a85908490614202565b90915550508054849082905f90611a9d908490614202565b90915550507f00000000000000000000000000000000000000000000000000000000000000006001600160a01b031663ff525efa3360405160e083901b7fffffffff000000000000000000000000000000000000000000000000000000001681526001600160a01b03918216600482015260248101889052604481018890524260648201527f000000000000000000000000000000000000000000000000000000000000000090911660848201523060a482015260c4016020604051808303815f875af1158015611b70573d5f5f3e3d5ffd5b505050506040513d601f19601f82011682018060405250810190611b94919061418c565b92506001600160a01b038516336001600160a01b03167f29e5c34529a155fb355cdebf281f1944fe4bc7a3c7ae1d5bb0ba0589bac4105d86604051611bdb91815260200190565b60405180910390a3505092915050565b5f611bf4612f09565b7f3b5beb8fd5438e0ef1cfd74239cc665848b29ad98eb2b1f1c941d9191a1b4700838015801590611c3257508154640100000000900461ffff168111155b611c68576040517f947d5a8400000000000000000000000000000000000000000000000000000000815260040160405180910390fd5b8154429063ffffffff16335f5b84811015611e73575f8a8a83818110611c9057611c90614215565b9050602002013590505f7f00000000000000000000000000000000000000000000000000000000000000006001600160a01b031663ae485651836040518263ffffffff1660e01b8152600401611ce891815260200190565b60e060405180830381865afa158015611d03573d5f5f3e3d5ffd5b505050506040513d601f19601f82011682018060405250810190611d279190614242565b90508463ffffffff168160800151611d3f91906141d0565b861015611d78576040517f480426e400000000000000000000000000000000000000000000000000000000815260040160405180910390fd5b836001600160a01b031681602001516001600160a01b031614611dc7576040517f30cd747100000000000000000000000000000000000000000000000000000000815260040160405180910390fd5b6040517f42966c68000000000000000000000000000000000000000000000000000000008152600481018390527f00000000000000000000000000000000000000000000000000000000000000006001600160a01b0316906342966c68906024015f604051808303815f87803b158015611e3f575f5ffd5b505af1158015611e51573d5f5f3e3d5ffd5b5050506040820151611e6491508a6141d0565b98505050806001019050611c75565b505f8611611ead576040517f1f2a200500000000000000000000000000000000000000000000000000000000815260040160405180910390fd5b6001600160a01b03871615611eca57611ec587612f8f565b611f0d565b5f611ed3613034565b90505f5b8151811015611f0a57611f02828281518110611ef557611ef5614215565b6020026020010151612f8f565b600101611ed7565b50505b611f387f00000000000000000000000000000000000000000000000000000000000000008288612b91565b806001600160a01b03167f90ce89e46e65f752d55048ae58f3b4e9af261bac67ba9233f4faa0427a8c7ef4878b8b604051611f75939291906142c7565b60405180910390a25050505050611110613115565b5f7f3b5beb8fd5438e0ef1cfd74239cc665848b29ad98eb2b1f1c941d9191a1b4703611fb6818461313f565b6001600160a01b0384165f90815260028301602052604090205461111091906141d0565b6060611fe4613034565b905090565b5f8281527fc1f6fe24621ce81ec5827caf0253cadb74709b061630e6b55e82371705932000602081905260408220612021908461318f565b949350505050565b5f8181527fc1f6fe24621ce81ec5827caf0253cadb74709b061630e6b55e8237170593200060208190526040909120606091906111109061319a565b5f612071338484612a20565b6387a211a2600c52335f526020600c208054808411156120985763f4d678b85f526004601cfd5b83810382555050825f526020600c208281540181555081602052600c5160601c337fddf252ad1be2c89b69c2b068fc378daa952ba7f163c4a11628f55a4df523b3ef602080a350600192915050565b6040517f70a082310000000000000000000000000000000000000000000000000000000081523060048201525f907f00000000000000000000000000000000000000000000000000000000000000006001600160a01b0316906370a0823190602401602060405180830381865afa158015612164573d5f5f3e3d5ffd5b505050506040513d601f19601f82011682018060405250810190611fe4919061418c565b5f81116121c1576040517f1f2a200500000000000000000000000000000000000000000000000000000000815260040160405180910390fd5b6121cb82826131a6565b6121d5338261351a565b6040518181526001600160a01b0383169033907f5dac0c1b1112564a045ba943c9d50270893e8e826c49be8e7073adc713ab7bd79060200160405180910390a35050565b6040518060600160405280602881526020016143626028913981565b5f8181527fc1f6fe24621ce81ec5827caf0253cadb74709b061630e6b55e82371705932000602081905260408220611110906135a1565b7ff0c57e16840df040f15088dc2f81fe391c3923bec73e23a9662efc9c229c6a00805468010000000000000000810460ff16159067ffffffffffffffff165f811580156122b65750825b90505f8267ffffffffffffffff1660011480156122d25750303b155b9050811580156122e0575080155b15612317576040517ff92ee8a900000000000000000000000000000000000000000000000000000000815260040160405180910390fd5b84547fffffffffffffffffffffffffffffffffffffffffffffffff000000000000000016600117855583156123785784547fffffffffffffffffffffffffffffffffffffffffffffff00ffffffffffffffff16680100000000000000001785555b6001600160a01b0388166123b8576040517fd92e233d00000000000000000000000000000000000000000000000000000000815260040160405180910390fd5b5f8661ffff16116123f5576040517f1f2a200500000000000000000000000000000000000000000000000000000000815260040160405180910390fd5b6123fd6135aa565b6124056135aa565b61240d6135aa565b6124175f89612a70565b507f3b5beb8fd5438e0ef1cfd74239cc665848b29ad98eb2b1f1c941d9191a1b4700805463ffffffff89167fffffffffffffffffffffffffffffffffffffffffffffffffffff0000000000009091161764010000000061ffff89160217905583156124d75784547fffffffffffffffffffffffffffffffffffffffffffffff00ffffffffffffffff168555604051600181527fc7f505b2f371ae2175ee4913f4499e1f2633a7b5936321eed1cdaeb6115181d29060200160405180910390a15b5050505050505050565b6001600160a01b0386166e22d473030f116ddee9f6b43ac78ba3188519151761251157633f68539a5f526004601cfd5b60408051808201909152601981527f4d756e6a6120744d49544f205374616b696e67205661756c74000000000000006020909101527fa6f526b992e60c9fcac64c62e4182c9dc613032a8581cdb848564ec282dee4f67fc89efdaa54c0f20c7adf612882df0950f5a951637e0307cdcb4c672f298b8bc64286101561259d57631a15a3cc5f526004601cfd5b6040518960601b60601c99508860601b60601c985065383775081901600e52895f526020600c2080547f8b73c3c69bb8fe3d512ecc4cf759cc79239f7b179b0ffacaa9a75d522b39400f835284602084015283604084015246606084015230608084015260a08320602e527f6e71edae12b1b97f4d1f60370fef10105fa2faae0126114a169c64845d6126c983528b60208401528a60408401528960608401528060808401528860a084015260c08320604e526042602c205f528760ff16602052866040528560605260208060805f60015afa8c3d51146126855763ddafbaef5f526004601cfd5b019055777f5e9f20000000000000000000000000000000000000000089176040526034602c20889055888a7f8c5be1e5ebec7d5bd14f71427d1e84f3dd0314c0f7b2291e5b200ac8c7c3b925602060608501a360405250505f60605250505050505050565b5f8281527f02dd7bc7dec4dceedda775e58dd541e08a116c6c53815c0bd028192f7b626800602052604090206001015461272381612966565b61115a8383612ac5565b5f7fffffffffffffffffffffffffffffffffffdd2b8cfcf0ee922116094bc538745d6001600160a01b0383160161278557507fffffffffffffffffffffffffffffffffffffffffffffffffffffffffffffffff610d9a565b50602052637f5e9f20600c9081525f91909152603490205490565b5f7f46a52cf33029de9f84853745a87af28464c80bf0346df1b32e205fc73319f6226127cb81612966565b825f5b818110156128c7577f00000000000000000000000000000000000000000000000000000000000000006001600160a01b0316639977de773088888581811061281857612818614215565b905060200201602081019061282d9190613e3e565b6040517fffffffff0000000000000000000000000000000000000000000000000000000060e085901b1681526001600160a01b039283166004820152911660248201526044016020604051808303815f875af115801561288f573d5f5f3e3d5ffd5b505050506040513d601f19601f820116820180604052508101906128b3919061418c565b6128bd90856141d0565b93506001016127ce565b50505092915050565b5f7fffffffff0000000000000000000000000000000000000000000000000000000082167f7965db0b000000000000000000000000000000000000000000000000000000001480610d9a57507f01ffc9a7000000000000000000000000000000000000000000000000000000007fffffffff00000000000000000000000000000000000000000000000000000000831614610d9a565b61297081336135b2565b50565b82820281838583041485151702612a19577fffffffffffffffffffffffffffffffffffffffffffffffffffffffffffffffff8385098181108201900382848609835f0384168285116129cc5763ae47f7025f526004601cfd5b93849004938382119092035f839003839004600101029203041760026003830281188084028203028084028203028084028203028084028203028084028203028084029091030202611110565b0492915050565b6001600160a01b03831615612a3857612a3883612b11565b6001600160a01b03821615801590612a625750826001600160a01b0316826001600160a01b031614155b156111ac576111ac82612b11565b5f7fc1f6fe24621ce81ec5827caf0253cadb74709b061630e6b55e8237170593200081612a9d858561363e565b90508015612021575f858152602083905260409020612abc9085613728565b50949350505050565b5f7fc1f6fe24621ce81ec5827caf0253cadb74709b061630e6b55e8237170593200081612af2858561373c565b90508015612021575f858152602083905260409020612abc90856137fe565b7f3b5beb8fd5438e0ef1cfd74239cc665848b29ad98eb2b1f1c941d9191a1b47035f612b3d828461313f565b6001600160a01b0384165f908152600284016020526040812080549293508392909190612b6b9084906141d0565b909155505081546001600160a01b039093165f9081526001909201602052506040902055565b81601452806034526fa9059cbb0000000000000000000000005f5260205f604460105f875af18060015f511416612bda57803d853b151710612bda576390b8ec185f526004601cfd5b505f603452505050565b306001600160a01b037f0000000000000000000000000000000000000000000000000000000000000000161480612c7d57507f00000000000000000000000000000000000000000000000000000000000000006001600160a01b0316612c717f360894a13ba1a3210667c828492db98dca3e2076cc3735a920a3ca505d382bbc546001600160a01b031690565b6001600160a01b031614155b15612cb4576040517fe07c8dba00000000000000000000000000000000000000000000000000000000815260040160405180910390fd5b565b5f6112a381612966565b816001600160a01b03166352d1902d6040518163ffffffff1660e01b8152600401602060405180830381865afa925050508015612d1a575060408051601f3d908101601f19168201909252612d179181019061418c565b60015b612d60576040517f4c9c8ce30000000000000000000000000000000000000000000000000000000081526001600160a01b03831660048201526024015b60405180910390fd5b7f360894a13ba1a3210667c828492db98dca3e2076cc3735a920a3ca505d382bbc8114612dbc576040517faa1d49a400000000000000000000000000000000000000000000000000000000815260048101829052602401612d57565b6111ac8383613812565b306001600160a01b037f00000000000000000000000000000000000000000000000000000000000000001614612cb4576040517fe07c8dba00000000000000000000000000000000000000000000000000000000815260040160405180910390fd5b60405181606052826040528360601b602c526f23b872dd000000000000000000000000600c5260205f6064601c5f895af18060015f511416612e7c57803d873b151710612e7c57637939f4245f526004601cfd5b505f60605260405250505050565b612e95825f83612a20565b6387a211a2600c52815f526020600c20805480831115612ebc5763f4d678b85f526004601cfd5b82900390556805345cdf77eb68f44c805482900390555f8181526001600160a01b0383167fddf252ad1be2c89b69c2b068fc378daa952ba7f163c4a11628f55a4df523b3ef602083a35050565b7f9b779b17422d0df92223018b32b4d1fa46e071723d6817e2486d003becc55f005c15612f62576040517f3ee5aeb500000000000000000000000000000000000000000000000000000000815260040160405180910390fd5b612cb460017f9b779b17422d0df92223018b32b4d1fa46e071723d6817e2486d003becc55f005b90613867565b6040517fd11531da0000000000000000000000000000000000000000000000000000000081526001600160a01b0382811660048301527f0000000000000000000000000000000000000000000000000000000000000000169063d11531da906024016020604051808303815f875af192505050801561302b575060408051601f3d908101601f191682019092526130289181019061418c565b60015b15612970575050565b60605f6130607f7f11e8a47c8f6f2761361211fdf25db4167076f4c74d7c390a15f4211bc8c214612235565b90505f8167ffffffffffffffff81111561307c5761307c613e59565b6040519080825280602002602001820160405280156130a5578160200160208202803683370190505b5090505f5b8281101561310e576130dc7f7f11e8a47c8f6f2761361211fdf25db4167076f4c74d7c390a15f4211bc8c21482611fe9565b8282815181106130ee576130ee614215565b6001600160a01b03909216602092830291909101909101526001016130aa565b5092915050565b612cb45f7f9b779b17422d0df92223018b32b4d1fa46e071723d6817e2486d003becc55f00612f89565b6387a211a2600c9081525f828152602091829020546001600160a01b038416825260018501909252604081205484549192916120219183916131819190614202565b670de0b6b3a7640000612973565b5f611110838361386e565b60605f61111083613894565b6001600160a01b0382165f9081527f33bba9d53c7b3593a910d5d91ae2186e0b76d797cad9e6b6cd5b9a64588c2ea260205260409020547f3b5beb8fd5438e0ef1cfd74239cc665848b29ad98eb2b1f1c941d9191a1b47019060ff16613238576040517f682a6e7c00000000000000000000000000000000000000000000000000000000815260040160405180910390fd5b5f7f00000000000000000000000000000000000000000000000000000000000000006001600160a01b03166325c065b16040518163ffffffff1660e01b8152600401602060405180830381865afa158015613295573d5f5f3e3d5ffd5b505050506040513d601f19601f820116820180604052508101906132b9919061418c565b9050808310156132f5576040517f2cd4a12300000000000000000000000000000000000000000000000000000000815260040160405180910390fd5b61331f7f0000000000000000000000000000000000000000000000000000000000000000336113ab565b6040517f095ea7b30000000000000000000000000000000000000000000000000000000081526001600160a01b037f000000000000000000000000000000000000000000000000000000000000000081166004830152602482018590527f0000000000000000000000000000000000000000000000000000000000000000169063095ea7b3906044016020604051808303815f875af11580156133c4573d5f5f3e3d5ffd5b505050506040513d601f19601f820116820180604052508101906133e891906141e3565b61341e576040517f3e3f8f7300000000000000000000000000000000000000000000000000000000815260040160405180910390fd5b6040517fbf6eac2f0000000000000000000000000000000000000000000000000000000081526001600160a01b038581166004830152306024830152604482018590527f0000000000000000000000000000000000000000000000000000000000000000169063bf6eac2f906064016020604051808303815f875af11580156134a9573d5f5f3e3d5ffd5b505050506040513d601f19601f820116820180604052508101906134cd919061418c565b506001600160a01b0384165f908152600183016020526040812080548592906134f79084906141d0565b90915550508154839083905f9061350f9084906141d0565b909155505050505050565b6135255f8383612a20565b6805345cdf77eb68f44c54818101818110156135485763e5cfe9575f526004601cfd5b806805345cdf77eb68f44c5550506387a211a2600c52815f526020600c208181540181555080602052600c5160601c5f7fddf252ad1be2c89b69c2b068fc378daa952ba7f163c4a11628f55a4df523b3ef602080a35050565b5f610d9a825490565b612cb46138ed565b5f8281527f02dd7bc7dec4dceedda775e58dd541e08a116c6c53815c0bd028192f7b626800602090815260408083206001600160a01b038516845290915290205460ff166112a3576040517fe2517d3f0000000000000000000000000000000000000000000000000000000081526001600160a01b038216600482015260248101839052604401612d57565b5f8281527f02dd7bc7dec4dceedda775e58dd541e08a116c6c53815c0bd028192f7b626800602081815260408084206001600160a01b038616855290915282205460ff1661371f575f848152602082815260408083206001600160a01b0387168452909152902080547fffffffffffffffffffffffffffffffffffffffffffffffffffffffffffffff001660011790556136d53390565b6001600160a01b0316836001600160a01b0316857f2f8788117e7eff1d82e926ec794901d17c78024a50270940304540a733656f0d60405160405180910390a46001915050610d9a565b5f915050610d9a565b5f611110836001600160a01b038416613954565b5f8281527f02dd7bc7dec4dceedda775e58dd541e08a116c6c53815c0bd028192f7b626800602081815260408084206001600160a01b038616855290915282205460ff161561371f575f848152602082815260408083206001600160a01b038716808552925280832080547fffffffffffffffffffffffffffffffffffffffffffffffffffffffffffffff0016905551339287917ff6391f5c32d9c69d2a47ea670b442974b53935d1edc7fd64eb21e047a839171b9190a46001915050610d9a565b5f611110836001600160a01b0384166139a0565b61381b82613a7a565b6040516001600160a01b038316907fbc7cd75a20ee27fd9adebab32041f755214dbc6bffa90cc0225b39da2e5c2d3b905f90a280511561385f576111ac8282613b21565b6112a3613b93565b80825d5050565b5f825f01828154811061388357613883614215565b905f5260205f200154905092915050565b6060815f018054806020026020016040519081016040528092919081815260200182805480156138e157602002820191905f5260205f20905b8154815260200190600101908083116138cd575b50505050509050919050565b7ff0c57e16840df040f15088dc2f81fe391c3923bec73e23a9662efc9c229c6a005468010000000000000000900460ff16612cb4576040517fd7e6bcf800000000000000000000000000000000000000000000000000000000815260040160405180910390fd5b5f81815260018301602052604081205461399957508154600181810184555f848152602080822090930184905584548482528286019093526040902091909155610d9a565b505f610d9a565b5f818152600183016020526040812054801561371f575f6139c2600183614202565b85549091505f906139d590600190614202565b9050808214613a34575f865f0182815481106139f3576139f3614215565b905f5260205f200154905080875f018481548110613a1357613a13614215565b5f918252602080832090910192909255918252600188019052604090208390555b8554869080613a4557613a4561431e565b600190038181905f5260205f20015f90559055856001015f8681526020019081526020015f205f905560019350505050610d9a565b806001600160a01b03163b5f03613ac8576040517f4c9c8ce30000000000000000000000000000000000000000000000000000000081526001600160a01b0382166004820152602401612d57565b7f360894a13ba1a3210667c828492db98dca3e2076cc3735a920a3ca505d382bbc80547fffffffffffffffffffffffff0000000000000000000000000000000000000000166001600160a01b0392909216919091179055565b60605f5f846001600160a01b031684604051613b3d919061434b565b5f60405180830381855af49150503d805f8114613b75576040519150601f19603f3d011682016040523d82523d5f602084013e613b7a565b606091505b5091509150613b8a858383613bcb565b95945050505050565b3415612cb4576040517fb398979f00000000000000000000000000000000000000000000000000000000815260040160405180910390fd5b606082613be057613bdb82613c40565b611110565b8151158015613bf757506001600160a01b0384163b155b15613c39576040517f9996b3150000000000000000000000000000000000000000000000000000000081526001600160a01b0385166004820152602401612d57565b5080611110565b805115613c505780518082602001fd5b6040517fd6bda27500000000000000000000000000000000000000000000000000000000815260040160405180910390fd5b5f60208284031215613c92575f5ffd5b81357fffffffff0000000000000000000000000000000000000000000000000000000081168114611110575f5ffd5b602081525f82518060208401528060208501604085015e5f604082850101526040601f19601f83011684010191505092915050565b6001600160a01b0381168114612970575f5ffd5b5f5f60408385031215613d1b575f5ffd5b8235613d2681613cf6565b946020939093013593505050565b5f5f83601f840112613d44575f5ffd5b50813567ffffffffffffffff811115613d5b575f5ffd5b6020830191508360208260051b8501011115613d75575f5ffd5b9250929050565b5f5f60208385031215613d8d575f5ffd5b823567ffffffffffffffff811115613da3575f5ffd5b613daf85828601613d34565b90969095509350505050565b5f5f5f60608486031215613dcd575f5ffd5b8335613dd881613cf6565b92506020840135613de881613cf6565b929592945050506040919091013590565b5f60208284031215613e09575f5ffd5b5035919050565b5f5f60408385031215613e21575f5ffd5b823591506020830135613e3381613cf6565b809150509250929050565b5f60208284031215613e4e575f5ffd5b813561111081613cf6565b7f4e487b71000000000000000000000000000000000000000000000000000000005f52604160045260245ffd5b60405160e0810167ffffffffffffffff81118282101715613ea957613ea9613e59565b60405290565b604051601f8201601f1916810167ffffffffffffffff81118282101715613ed857613ed8613e59565b604052919050565b5f5f60408385031215613ef1575f5ffd5b8235613efc81613cf6565b9150602083013567ffffffffffffffff811115613f17575f5ffd5b8301601f81018513613f27575f5ffd5b803567ffffffffffffffff811115613f4157613f41613e59565b613f546020601f19601f84011601613eaf565b818152866020838501011115613f68575f5ffd5b816020840160208301375f602083830101528093505050509250929050565b5f5f5f60408486031215613f99575f5ffd5b833567ffffffffffffffff811115613faf575f5ffd5b613fbb86828701613d34565b9094509250506020840135613fcf81613cf6565b809150509250925092565b602080825282518282018190525f918401906040840190835b8181101561401a5783516001600160a01b0316835260209384019390920191600101613ff3565b509095945050505050565b5f5f60408385031215614036575f5ffd5b50508035926020909101359150565b5f5f5f60608486031215614057575f5ffd5b833561406281613cf6565b9250602084013563ffffffff8116811461407a575f5ffd5b9150604084013561ffff81168114613fcf575f5ffd5b5f5f5f5f5f5f5f60e0888a0312156140a6575f5ffd5b87356140b181613cf6565b965060208801356140c181613cf6565b95506040880135945060608801359350608088013560ff811681146140e4575f5ffd5b9699959850939692959460a0840135945060c09093013592915050565b5f5f60408385031215614112575f5ffd5b823561411d81613cf6565b91506020830135613e3381613cf6565b604080825281018390525f8460608301825b8681101561416f57823561415281613cf6565b6001600160a01b031682526020928301929091019060010161413f565b5080925050506001600160a01b0383166020830152949350505050565b5f6020828403121561419c575f5ffd5b5051919050565b7f4e487b71000000000000000000000000000000000000000000000000000000005f52601160045260245ffd5b80820180821115610d9a57610d9a6141a3565b5f602082840312156141f3575f5ffd5b81518015158114611110575f5ffd5b81810381811115610d9a57610d9a6141a3565b7f4e487b71000000000000000000000000000000000000000000000000000000005f52603260045260245ffd5b5f60e0828403128015614253575f5ffd5b5061425c613e86565b825161426781613cf6565b8152602083015161427781613cf6565b602082015260408381015190820152606080840151908201526080808401519082015260a08301516142a881613cf6565b60a082015260c08301516142bb81613cf6565b60c08201529392505050565b838152604060208201528160408201525f7f07ffffffffffffffffffffffffffffffffffffffffffffffffffffffffffffff831115614304575f5ffd5b8260051b8085606085013791909101606001949350505050565b7f4e487b71000000000000000000000000000000000000000000000000000000005f52603160045260245ffd5b5f82518060208501845e5f92019182525091905056fe30633164383962343035633933336537333235643762356464636330353964393138376634623763a2646970667358221220998cb8a0a2bad219123889f8063f692177120fca2019e66f1e563c3823bab46b64736f6c634300081d0033","linkReferences":{}},"methodIdentifiers":{"DEFAULT_ADMIN_ROLE()":"a217fddf","DOMAIN_SEPARATOR()":"3644e515","GIT_COMMIT()":"b8a15e3a","GIT_TAG()":"b175eb4d","GM_MITO()":"3bed90ce","OPERATOR_ROLE()":"f5b541a6","REWARD_DISTRIBUTOR()":"8de728e4","TMITO()":"5f8a4719","TMITO_STAKING()":"42b60869","UPGRADE_INTERFACE_VERSION()":"ad3cb1cc","VALIDATOR_MANAGER()":"ae9483e0","VALIDATOR_ROLE()":"c49baebe","WITHDRAWAL_NFT()":"266ba696","WMITO()":"b919ba1a","allowance(address,address)":"dd62ed3e","approve(address,uint256)":"095ea7b3","balanceOf(address)":"70a08231","claimAndConvertRewards(address[])":"14e21a91","claimRewards()":"372500ab","claimRewards(address[])":"f9f031df","claimWithdrawals(uint256[],address)":"7f21f760","compoundToStaking(address,uint256)":"60b05e51","decimals()":"313ce567","distributeRewards(uint256)":"59974e38","earnedRewards(address)":"82d366d0","getAuthorizedValidators()":"88b1310d","getRoleAdmin(bytes32)":"248a9ca3","getRoleMember(bytes32,uint256)":"9010d07c","getRoleMemberCount(bytes32)":"ca15c873","getRoleMembers(bytes32)":"a3246ad3","grantRole(bytes32,address)":"2f2ff15d","hasRole(bytes32,address)":"91d14854","initialize(address,uint32,uint16)":"cd2ba69c","maxClaimsPerTx()":"5f537db1","name()":"06fdde03","nonces(address)":"7ecebe00","permit(address,address,uint256,uint256,uint8,bytes32,bytes32)":"d505accf","proxiableUUID()":"52d1902d","renounceRole(bytes32,address)":"36568abe","requestUnstake(address,uint256)":"710ba631","revokeRole(bytes32,address)":"d547741f","rewardBalance()":"aa5c3ab4","rewardPerShare()":"446a2ec8","stake(address,uint256)":"adc9772e","supportsInterface(bytes4)":"01ffc9a7","symbol()":"95d89b41","totalStaked()":"817b1cd2","totalSupply()":"18160ddd","transfer(address,uint256)":"a9059cbb","transferFrom(address,address,uint256)":"23b872dd","upgradeToAndCall(address,bytes)":"4f1ef286","userRewardPerSharePaid(address)":"818ae1ce","validatorStake(address)":"39b7fcc6","withdrawalPeriod()":"bca7093d"},"id":125}