{"abi":[{"type":"constructor","inputs":[{"name":"wmito","type":"address","internalType":"address"},{"name":"gmMito","type":"address","internalType":"address"},{"name":"collateralOracle","type":"address","internalType":"address"},{"name":"validatorManager","type":"address","internalType":"address"},{"name":"withdrawalNFT","type":"address","internalType":"address"},{"name":"rewardRouter","type":"address","internalType":"address"}],"stateMutability":"nonpayable"},{"type":"receive","stateMutability":"payable"},{"type":"function","name":"COLLATERAL_ORACLE","inputs":[],"outputs":[{"name":"","type":"address","internalType":"contract ICollateralOracleFeed"}],"stateMutability":"view"},{"type":"function","name":"DEFAULT_ADMIN_ROLE","inputs":[],"outputs":[{"name":"","type":"bytes32","internalType":"bytes32"}],"stateMutability":"view"},{"type":"function","name":"DOMAIN_SEPARATOR","inputs":[],"outputs":[{"name":"result","type":"bytes32","internalType":"bytes32"}],"stateMutability":"view"},{"type":"function","name":"GIT_COMMIT","inputs":[],"outputs":[{"name":"","type":"string","internalType":"string"}],"stateMutability":"view"},{"type":"function","name":"GIT_TAG","inputs":[],"outputs":[{"name":"","type":"string","internalType":"string"}],"stateMutability":"view"},{"type":"function","name":"GM_MITO","inputs":[],"outputs":[{"name":"","type":"address","internalType":"contract IgmMITO"}],"stateMutability":"view"},{"type":"function","name":"OPERATOR_ROLE","inputs":[],"outputs":[{"name":"","type":"bytes32","internalType":"bytes32"}],"stateMutability":"view"},{"type":"function","name":"REWARD_ROUTER","inputs":[],"outputs":[{"name":"","type":"address","internalType":"contract IRewardRouter"}],"stateMutability":"view"},{"type":"function","name":"UPGRADE_INTERFACE_VERSION","inputs":[],"outputs":[{"name":"","type":"string","internalType":"string"}],"stateMutability":"view"},{"type":"function","name":"VALIDATOR_MANAGER","inputs":[],"outputs":[{"name":"","type":"address","internalType":"contract IValidatorManager"}],"stateMutability":"view"},{"type":"function","name":"VALIDATOR_ROLE","inputs":[],"outputs":[{"name":"","type":"bytes32","internalType":"bytes32"}],"stateMutability":"view"},{"type":"function","name":"WITHDRAWAL_NFT","inputs":[],"outputs":[{"name":"","type":"address","internalType":"contract IWithdrawalNFT"}],"stateMutability":"view"},{"type":"function","name":"WMITO","inputs":[],"outputs":[{"name":"","type":"address","internalType":"contract WETH"}],"stateMutability":"view"},{"type":"function","name":"allowance","inputs":[{"name":"owner","type":"address","internalType":"address"},{"name":"spender","type":"address","internalType":"address"}],"outputs":[{"name":"result","type":"uint256","internalType":"uint256"}],"stateMutability":"view"},{"type":"function","name":"approve","inputs":[{"name":"spender","type":"address","internalType":"address"},{"name":"amount","type":"uint256","internalType":"uint256"}],"outputs":[{"name":"","type":"bool","internalType":"bool"}],"stateMutability":"nonpayable"},{"type":"function","name":"asset","inputs":[],"outputs":[{"name":"","type":"address","internalType":"address"}],"stateMutability":"view"},{"type":"function","name":"balanceOf","inputs":[{"name":"owner","type":"address","internalType":"address"}],"outputs":[{"name":"result","type":"uint256","internalType":"uint256"}],"stateMutability":"view"},{"type":"function","name":"checkpointHistoryLength","inputs":[],"outputs":[{"name":"","type":"uint256","internalType":"uint256"}],"stateMutability":"view"},{"type":"function","name":"claimRewards","inputs":[],"outputs":[{"name":"reward","type":"uint256","internalType":"uint256"}],"stateMutability":"nonpayable"},{"type":"function","name":"claimValidatorRewards","inputs":[{"name":"validator","type":"address","internalType":"address"},{"name":"fromEpoch","type":"uint256","internalType":"uint256"},{"name":"toEpoch","type":"uint256","internalType":"uint256"}],"outputs":[{"name":"gmMitoAmount","type":"uint256","internalType":"uint256"}],"stateMutability":"nonpayable"},{"type":"function","name":"claimWithdraw","inputs":[{"name":"tokenIds","type":"uint256[]","internalType":"uint256[]"}],"outputs":[{"name":"claimed","type":"uint256","internalType":"uint256"}],"stateMutability":"nonpayable"},{"type":"function","name":"compoundToCollateral","inputs":[{"name":"validator","type":"address","internalType":"address"},{"name":"amount","type":"uint256","internalType":"uint256"}],"outputs":[],"stateMutability":"nonpayable"},{"type":"function","name":"convertToAssets","inputs":[{"name":"shares","type":"uint256","internalType":"uint256"}],"outputs":[{"name":"assets","type":"uint256","internalType":"uint256"}],"stateMutability":"view"},{"type":"function","name":"convertToShares","inputs":[{"name":"assets","type":"uint256","internalType":"uint256"}],"outputs":[{"name":"shares","type":"uint256","internalType":"uint256"}],"stateMutability":"view"},{"type":"function","name":"decimals","inputs":[],"outputs":[{"name":"","type":"uint8","internalType":"uint8"}],"stateMutability":"view"},{"type":"function","name":"deposit","inputs":[{"name":"assets","type":"uint256","internalType":"uint256"},{"name":"receiver","type":"address","internalType":"address"}],"outputs":[{"name":"shares","type":"uint256","internalType":"uint256"}],"stateMutability":"nonpayable"},{"type":"function","name":"depositCollateral","inputs":[{"name":"validator","type":"address","internalType":"address"},{"name":"amount","type":"uint256","internalType":"uint256"}],"outputs":[],"stateMutability":"nonpayable"},{"type":"function","name":"earnedRewards","inputs":[{"name":"account","type":"address","internalType":"address"}],"outputs":[{"name":"","type":"uint256","internalType":"uint256"}],"stateMutability":"view"},{"type":"function","name":"getCheckpointAt","inputs":[{"name":"timestamp","type":"uint48","internalType":"uint48"}],"outputs":[{"name":"","type":"tuple","internalType":"struct Checkpoints.Checkpoint","components":[{"name":"timestamp","type":"uint48","internalType":"uint48"},{"name":"totalAssets","type":"uint104","internalType":"uint104"},{"name":"totalShares","type":"uint104","internalType":"uint104"}]}],"stateMutability":"view"},{"type":"function","name":"getClaimableValidatorRewards","inputs":[{"name":"validator","type":"address","internalType":"address"},{"name":"fromEpoch","type":"uint256","internalType":"uint256"},{"name":"toEpoch","type":"uint256","internalType":"uint256"}],"outputs":[{"name":"","type":"uint256","internalType":"uint256"}],"stateMutability":"view"},{"type":"function","name":"getCollateralOwnershipTWAB","inputs":[{"name":"validator","type":"address","internalType":"address"},{"name":"startTime","type":"uint48","internalType":"uint48"},{"name":"endTime","type":"uint48","internalType":"uint48"}],"outputs":[{"name":"","type":"uint256","internalType":"uint256"}],"stateMutability":"view"},{"type":"function","name":"getOracleCollateralOwnership","inputs":[{"name":"validator","type":"address","internalType":"address"},{"name":"owner","type":"address","internalType":"address"}],"outputs":[{"name":"","type":"tuple","internalType":"struct ICollateralOracleFeed.CollateralOwnership","components":[{"name":"owner","type":"address","internalType":"address"},{"name":"shares","type":"uint256","internalType":"uint256"}]}],"stateMutability":"view"},{"type":"function","name":"getOracleValidatorCollateral","inputs":[{"name":"validator","type":"address","internalType":"address"}],"outputs":[{"name":"","type":"tuple","internalType":"struct ICollateralOracleFeed.Validator","components":[{"name":"collateral","type":"uint256","internalType":"uint256"},{"name":"collateralShares","type":"uint256","internalType":"uint256"},{"name":"extraVotingPower","type":"uint256","internalType":"uint256"},{"name":"votingPower","type":"uint256","internalType":"uint256"}]}],"stateMutability":"view"},{"type":"function","name":"getRoleAdmin","inputs":[{"name":"role","type":"bytes32","internalType":"bytes32"}],"outputs":[{"name":"","type":"bytes32","internalType":"bytes32"}],"stateMutability":"view"},{"type":"function","name":"getRoleMember","inputs":[{"name":"role","type":"bytes32","internalType":"bytes32"},{"name":"index","type":"uint256","internalType":"uint256"}],"outputs":[{"name":"","type":"address","internalType":"address"}],"stateMutability":"view"},{"type":"function","name":"getRoleMemberCount","inputs":[{"name":"role","type":"bytes32","internalType":"bytes32"}],"outputs":[{"name":"","type":"uint256","internalType":"uint256"}],"stateMutability":"view"},{"type":"function","name":"getRoleMembers","inputs":[{"name":"role","type":"bytes32","internalType":"bytes32"}],"outputs":[{"name":"","type":"address[]","internalType":"address[]"}],"stateMutability":"view"},{"type":"function","name":"getTotalTWAB","inputs":[{"name":"validator","type":"address","internalType":"address"},{"name":"startTime","type":"uint48","internalType":"uint48"},{"name":"endTime","type":"uint48","internalType":"uint48"}],"outputs":[{"name":"","type":"uint256","internalType":"uint256"}],"stateMutability":"view"},{"type":"function","name":"getTrackedValidators","inputs":[],"outputs":[{"name":"","type":"address[]","internalType":"address[]"}],"stateMutability":"view"},{"type":"function","name":"grantRole","inputs":[{"name":"role","type":"bytes32","internalType":"bytes32"},{"name":"account","type":"address","internalType":"address"}],"outputs":[],"stateMutability":"nonpayable"},{"type":"function","name":"hasRole","inputs":[{"name":"role","type":"bytes32","internalType":"bytes32"},{"name":"account","type":"address","internalType":"address"}],"outputs":[{"name":"","type":"bool","internalType":"bool"}],"stateMutability":"view"},{"type":"function","name":"initialize","inputs":[{"name":"initialOwner","type":"address","internalType":"address"},{"name":"initialWithdrawalPeriod","type":"uint32","internalType":"uint32"},{"name":"initialMaxClaimsPerTx","type":"uint16","internalType":"uint16"}],"outputs":[],"stateMutability":"nonpayable"},{"type":"function","name":"latestCheckpoint","inputs":[],"outputs":[{"name":"","type":"tuple","internalType":"struct Checkpoints.Checkpoint","components":[{"name":"timestamp","type":"uint48","internalType":"uint48"},{"name":"totalAssets","type":"uint104","internalType":"uint104"},{"name":"totalShares","type":"uint104","internalType":"uint104"}]}],"stateMutability":"view"},{"type":"function","name":"maxClaimsPerTx","inputs":[],"outputs":[{"name":"","type":"uint16","internalType":"uint16"}],"stateMutability":"view"},{"type":"function","name":"maxDeposit","inputs":[{"name":"to","type":"address","internalType":"address"}],"outputs":[{"name":"maxAssets","type":"uint256","internalType":"uint256"}],"stateMutability":"view"},{"type":"function","name":"maxMint","inputs":[{"name":"to","type":"address","internalType":"address"}],"outputs":[{"name":"maxShares","type":"uint256","internalType":"uint256"}],"stateMutability":"view"},{"type":"function","name":"maxRedeem","inputs":[{"name":"owner","type":"address","internalType":"address"}],"outputs":[{"name":"maxShares","type":"uint256","internalType":"uint256"}],"stateMutability":"view"},{"type":"function","name":"maxWithdraw","inputs":[{"name":"owner","type":"address","internalType":"address"}],"outputs":[{"name":"maxAssets","type":"uint256","internalType":"uint256"}],"stateMutability":"view"},{"type":"function","name":"mint","inputs":[{"name":"shares","type":"uint256","internalType":"uint256"},{"name":"receiver","type":"address","internalType":"address"}],"outputs":[{"name":"assets","type":"uint256","internalType":"uint256"}],"stateMutability":"nonpayable"},{"type":"function","name":"name","inputs":[],"outputs":[{"name":"","type":"string","internalType":"string"}],"stateMutability":"pure"},{"type":"function","name":"nonces","inputs":[{"name":"owner","type":"address","internalType":"address"}],"outputs":[{"name":"result","type":"uint256","internalType":"uint256"}],"stateMutability":"view"},{"type":"function","name":"pendingWithdrawals","inputs":[],"outputs":[{"name":"","type":"uint256","internalType":"uint256"}],"stateMutability":"view"},{"type":"function","name":"permit","inputs":[{"name":"owner","type":"address","internalType":"address"},{"name":"spender","type":"address","internalType":"address"},{"name":"value","type":"uint256","internalType":"uint256"},{"name":"deadline","type":"uint256","internalType":"uint256"},{"name":"v","type":"uint8","internalType":"uint8"},{"name":"r","type":"bytes32","internalType":"bytes32"},{"name":"s","type":"bytes32","internalType":"bytes32"}],"outputs":[],"stateMutability":"nonpayable"},{"type":"function","name":"previewDeposit","inputs":[{"name":"assets","type":"uint256","internalType":"uint256"}],"outputs":[{"name":"shares","type":"uint256","internalType":"uint256"}],"stateMutability":"view"},{"type":"function","name":"previewMint","inputs":[{"name":"shares","type":"uint256","internalType":"uint256"}],"outputs":[{"name":"assets","type":"uint256","internalType":"uint256"}],"stateMutability":"view"},{"type":"function","name":"previewRedeem","inputs":[{"name":"shares","type":"uint256","internalType":"uint256"}],"outputs":[{"name":"assets","type":"uint256","internalType":"uint256"}],"stateMutability":"view"},{"type":"function","name":"previewWithdraw","inputs":[{"name":"assets","type":"uint256","internalType":"uint256"}],"outputs":[{"name":"shares","type":"uint256","internalType":"uint256"}],"stateMutability":"view"},{"type":"function","name":"proxiableUUID","inputs":[],"outputs":[{"name":"","type":"bytes32","internalType":"bytes32"}],"stateMutability":"view"},{"type":"function","name":"redeem","inputs":[{"name":"shares","type":"uint256","internalType":"uint256"},{"name":"receiver","type":"address","internalType":"address"},{"name":"owner","type":"address","internalType":"address"}],"outputs":[{"name":"assets","type":"uint256","internalType":"uint256"}],"stateMutability":"nonpayable"},{"type":"function","name":"renounceRole","inputs":[{"name":"role","type":"bytes32","internalType":"bytes32"},{"name":"callerConfirmation","type":"address","internalType":"address"}],"outputs":[],"stateMutability":"nonpayable"},{"type":"function","name":"requestWithdrawCollateral","inputs":[{"name":"validator","type":"address","internalType":"address"},{"name":"amount","type":"uint256","internalType":"uint256"}],"outputs":[],"stateMutability":"payable"},{"type":"function","name":"revokeRole","inputs":[{"name":"role","type":"bytes32","internalType":"bytes32"},{"name":"account","type":"address","internalType":"address"}],"outputs":[],"stateMutability":"nonpayable"},{"type":"function","name":"rewardBalance","inputs":[],"outputs":[{"name":"","type":"uint256","internalType":"uint256"}],"stateMutability":"view"},{"type":"function","name":"rewardPerShare","inputs":[],"outputs":[{"name":"","type":"uint256","internalType":"uint256"}],"stateMutability":"view"},{"type":"function","name":"setMaxClaimsPerTx","inputs":[{"name":"max","type":"uint16","internalType":"uint16"}],"outputs":[],"stateMutability":"nonpayable"},{"type":"function","name":"setWithdrawalPeriod","inputs":[{"name":"period","type":"uint32","internalType":"uint32"}],"outputs":[],"stateMutability":"nonpayable"},{"type":"function","name":"supportsInterface","inputs":[{"name":"interfaceId","type":"bytes4","internalType":"bytes4"}],"outputs":[{"name":"","type":"bool","internalType":"bool"}],"stateMutability":"view"},{"type":"function","name":"symbol","inputs":[],"outputs":[{"name":"","type":"string","internalType":"string"}],"stateMutability":"pure"},{"type":"function","name":"syncCollateral","inputs":[{"name":"validator","type":"address","internalType":"address"}],"outputs":[],"stateMutability":"nonpayable"},{"type":"function","name":"totalAssets","inputs":[],"outputs":[{"name":"","type":"uint256","internalType":"uint256"}],"stateMutability":"view"},{"type":"function","name":"totalCollateralDeposited","inputs":[],"outputs":[{"name":"","type":"uint256","internalType":"uint256"}],"stateMutability":"view"},{"type":"function","name":"totalPendingWithdrawal","inputs":[],"outputs":[{"name":"","type":"uint256","internalType":"uint256"}],"stateMutability":"view"},{"type":"function","name":"totalSupply","inputs":[],"outputs":[{"name":"result","type":"uint256","internalType":"uint256"}],"stateMutability":"view"},{"type":"function","name":"transfer","inputs":[{"name":"to","type":"address","internalType":"address"},{"name":"amount","type":"uint256","internalType":"uint256"}],"outputs":[{"name":"","type":"bool","internalType":"bool"}],"stateMutability":"nonpayable"},{"type":"function","name":"transferFrom","inputs":[{"name":"from","type":"address","internalType":"address"},{"name":"to","type":"address","internalType":"address"},{"name":"amount","type":"uint256","internalType":"uint256"}],"outputs":[{"name":"","type":"bool","internalType":"bool"}],"stateMutability":"nonpayable"},{"type":"function","name":"upgradeToAndCall","inputs":[{"name":"newImplementation","type":"address","internalType":"address"},{"name":"data","type":"bytes","internalType":"bytes"}],"outputs":[],"stateMutability":"payable"},{"type":"function","name":"validatorCollateral","inputs":[{"name":"validator","type":"address","internalType":"address"}],"outputs":[{"name":"","type":"uint256","internalType":"uint256"}],"stateMutability":"view"},{"type":"function","name":"withdraw","inputs":[{"name":"assets","type":"uint256","internalType":"uint256"},{"name":"receiver","type":"address","internalType":"address"},{"name":"owner","type":"address","internalType":"address"}],"outputs":[{"name":"shares","type":"uint256","internalType":"uint256"}],"stateMutability":"nonpayable"},{"type":"function","name":"withdrawalPeriod","inputs":[],"outputs":[{"name":"","type":"uint32","internalType":"uint32"}],"stateMutability":"view"},{"type":"event","name":"Approval","inputs":[{"name":"owner","type":"address","indexed":true,"internalType":"address"},{"name":"spender","type":"address","indexed":true,"internalType":"address"},{"name":"amount","type":"uint256","indexed":false,"internalType":"uint256"}],"anonymous":false},{"type":"event","name":"CollateralDeposited","inputs":[{"name":"validator","type":"address","indexed":true,"internalType":"address"},{"name":"amount","type":"uint256","indexed":false,"internalType":"uint256"}],"anonymous":false},{"type":"event","name":"CollateralSynced","inputs":[{"name":"validator","type":"address","indexed":true,"internalType":"address"},{"name":"oldValue","type":"uint256","indexed":false,"internalType":"uint256"},{"name":"newValue","type":"uint256","indexed":false,"internalType":"uint256"}],"anonymous":false},{"type":"event","name":"CollateralWithdrawalRequested","inputs":[{"name":"validator","type":"address","indexed":true,"internalType":"address"},{"name":"amount","type":"uint256","indexed":false,"internalType":"uint256"}],"anonymous":false},{"type":"event","name":"Deposit","inputs":[{"name":"by","type":"address","indexed":true,"internalType":"address"},{"name":"owner","type":"address","indexed":true,"internalType":"address"},{"name":"assets","type":"uint256","indexed":false,"internalType":"uint256"},{"name":"shares","type":"uint256","indexed":false,"internalType":"uint256"}],"anonymous":false},{"type":"event","name":"Initialized","inputs":[{"name":"version","type":"uint64","indexed":false,"internalType":"uint64"}],"anonymous":false},{"type":"event","name":"MaxClaimsPerTxSet","inputs":[{"name":"maxClaimsPerTx","type":"uint16","indexed":false,"internalType":"uint16"}],"anonymous":false},{"type":"event","name":"PendingWithdrawalSlashed","inputs":[{"name":"validator","type":"address","indexed":true,"internalType":"address"},{"name":"lostAmount","type":"uint256","indexed":false,"internalType":"uint256"},{"name":"newTotal","type":"uint256","indexed":false,"internalType":"uint256"}],"anonymous":false},{"type":"event","name":"RewardClaimed","inputs":[{"name":"user","type":"address","indexed":true,"internalType":"address"},{"name":"amount","type":"uint256","indexed":false,"internalType":"uint256"}],"anonymous":false},{"type":"event","name":"RewardDistributed","inputs":[{"name":"amount","type":"uint256","indexed":false,"internalType":"uint256"},{"name":"rewardPerShare","type":"uint256","indexed":false,"internalType":"uint256"}],"anonymous":false},{"type":"event","name":"RoleAdminChanged","inputs":[{"name":"role","type":"bytes32","indexed":true,"internalType":"bytes32"},{"name":"previousAdminRole","type":"bytes32","indexed":true,"internalType":"bytes32"},{"name":"newAdminRole","type":"bytes32","indexed":true,"internalType":"bytes32"}],"anonymous":false},{"type":"event","name":"RoleGranted","inputs":[{"name":"role","type":"bytes32","indexed":true,"internalType":"bytes32"},{"name":"account","type":"address","indexed":true,"internalType":"address"},{"name":"sender","type":"address","indexed":true,"internalType":"address"}],"anonymous":false},{"type":"event","name":"RoleRevoked","inputs":[{"name":"role","type":"bytes32","indexed":true,"internalType":"bytes32"},{"name":"account","type":"address","indexed":true,"internalType":"address"},{"name":"sender","type":"address","indexed":true,"internalType":"address"}],"anonymous":false},{"type":"event","name":"SlashingDetected","inputs":[{"name":"validator","type":"address","indexed":true,"internalType":"address"},{"name":"lossAmount","type":"uint256","indexed":false,"internalType":"uint256"},{"name":"newCollateral","type":"uint256","indexed":false,"internalType":"uint256"}],"anonymous":false},{"type":"event","name":"Transfer","inputs":[{"name":"from","type":"address","indexed":true,"internalType":"address"},{"name":"to","type":"address","indexed":true,"internalType":"address"},{"name":"amount","type":"uint256","indexed":false,"internalType":"uint256"}],"anonymous":false},{"type":"event","name":"Upgraded","inputs":[{"name":"implementation","type":"address","indexed":true,"internalType":"address"}],"anonymous":false},{"type":"event","name":"Withdraw","inputs":[{"name":"by","type":"address","indexed":true,"internalType":"address"},{"name":"to","type":"address","indexed":true,"internalType":"address"},{"name":"owner","type":"address","indexed":true,"internalType":"address"},{"name":"assets","type":"uint256","indexed":false,"internalType":"uint256"},{"name":"shares","type":"uint256","indexed":false,"internalType":"uint256"}],"anonymous":false},{"type":"event","name":"WithdrawalClaimed","inputs":[{"name":"user","type":"address","indexed":true,"internalType":"address"},{"name":"assets","type":"uint256","indexed":false,"internalType":"uint256"},{"name":"tokenIds","type":"uint256[]","indexed":false,"internalType":"uint256[]"}],"anonymous":false},{"type":"event","name":"WithdrawalPeriodSet","inputs":[{"name":"withdrawalPeriod","type":"uint32","indexed":false,"internalType":"uint32"}],"anonymous":false},{"type":"event","name":"WithdrawalRequested","inputs":[{"name":"user","type":"address","indexed":true,"internalType":"address"},{"name":"assets","type":"uint256","indexed":false,"internalType":"uint256"},{"name":"shares","type":"uint256","indexed":false,"internalType":"uint256"},{"name":"tokenId","type":"uint256","indexed":false,"internalType":"uint256"}],"anonymous":false},{"type":"error","name":"AccessControlBadConfirmation","inputs":[]},{"type":"error","name":"AccessControlUnauthorizedAccount","inputs":[{"name":"account","type":"address","internalType":"address"},{"name":"neededRole","type":"bytes32","internalType":"bytes32"}]},{"type":"error","name":"AddressEmptyCode","inputs":[{"name":"target","type":"address","internalType":"address"}]},{"type":"error","name":"AllowanceOverflow","inputs":[]},{"type":"error","name":"AllowanceUnderflow","inputs":[]},{"type":"error","name":"CheckpointNotFound","inputs":[]},{"type":"error","name":"DepositMoreThanMax","inputs":[]},{"type":"error","name":"DepositNotSupported","inputs":[]},{"type":"error","name":"ERC1967InvalidImplementation","inputs":[{"name":"implementation","type":"address","internalType":"address"}]},{"type":"error","name":"ERC1967NonPayable","inputs":[]},{"type":"error","name":"FailedCall","inputs":[]},{"type":"error","name":"InsufficientAllowance","inputs":[]},{"type":"error","name":"InsufficientBalance","inputs":[]},{"type":"error","name":"InsufficientCollateral","inputs":[]},{"type":"error","name":"InvalidInitialization","inputs":[]},{"type":"error","name":"InvalidPermit","inputs":[]},{"type":"error","name":"InvalidValidator","inputs":[]},{"type":"error","name":"MintMoreThanMax","inputs":[]},{"type":"error","name":"NoClaimableWithdrawals","inputs":[]},{"type":"error","name":"NoClaimableWithdrawals","inputs":[]},{"type":"error","name":"NotInitializing","inputs":[]},{"type":"error","name":"NotNFTOwner","inputs":[]},{"type":"error","name":"Permit2AllowanceIsFixedAtInfinity","inputs":[]},{"type":"error","name":"PermitExpired","inputs":[]},{"type":"error","name":"RedeemMoreThanMax","inputs":[]},{"type":"error","name":"SafeCastOverflowedUintDowncast","inputs":[{"name":"bits","type":"uint8","internalType":"uint8"},{"name":"value","type":"uint256","internalType":"uint256"}]},{"type":"error","name":"TotalSupplyOverflow","inputs":[]},{"type":"error","name":"UUPSUnauthorizedCallContext","inputs":[]},{"type":"error","name":"UUPSUnsupportedProxiableUUID","inputs":[{"name":"slot","type":"bytes32","internalType":"bytes32"}]},{"type":"error","name":"Unauthorized","inputs":[]},{"type":"error","name":"WithdrawMoreThanMax","inputs":[]},{"type":"error","name":"WithdrawalNotMatured","inputs":[]},{"type":"error","name":"ZeroAddress","inputs":[]},{"type":"error","name":"ZeroAmount","inputs":[]}],"bytecode":{"object":"0x61016060405230608052348015610014575f5ffd5b5060405161608d38038061608d83398101604081905261003391610222565b6001600160a01b03861661005a5760405163d92e233d60e01b815260040160405180910390fd5b6001600160a01b0385166100815760405163d92e233d60e01b815260040160405180910390fd5b6001600160a01b0384166100a85760405163d92e233d60e01b815260040160405180910390fd5b6001600160a01b0383166100cf5760405163d92e233d60e01b815260040160405180910390fd5b6001600160a01b0382166100f65760405163d92e233d60e01b815260040160405180910390fd5b6001600160a01b03811661011d5760405163d92e233d60e01b815260040160405180910390fd5b610125610155565b6001600160a01b0395861660a05293851660c05291841660e0528316610100528216610120521661014052610292565b7ff0c57e16840df040f15088dc2f81fe391c3923bec73e23a9662efc9c229c6a00805468010000000000000000900460ff16156101a55760405163f92ee8a960e01b815260040160405180910390fd5b80546001600160401b03908116146102045780546001600160401b0319166001600160401b0390811782556040519081527fc7f505b2f371ae2175ee4913f4499e1f2633a7b5936321eed1cdaeb6115181d29060200160405180910390a15b50565b80516001600160a01b038116811461021d575f5ffd5b919050565b5f5f5f5f5f5f60c08789031215610237575f5ffd5b61024087610207565b955061024e60208801610207565b945061025c60408801610207565b935061026a60608801610207565b925061027860808801610207565b915061028660a08801610207565b90509295509295509295565b60805160a05160c05160e051610100516101205161014051615cfb6103925f395f81816108e801528181611db60152612db301525f818161083901528181612ca901526148fc01525f8181610f0301528181611af001528181613c580152613e3401525f8181610c060152818161176301528181611f9501528181612a1d01528181612b4801528181612e0701526145cb01525f8181610a4a015281816118fe015261220101525f8181610543015281816105d001528181610a1501528181610fd0015281816113f101528181612cce015281816139ac01528181613d9f01526148cb01525f81816134420152818161346b015261361f0152615cfb5ff3fe60806040526004361061053c575f3560e01c806396aadc62116102b9578063c49baebe11610170578063dd62ed3e116100d1578063ebd0a6be11610087578063f5b541a61161006d578063f5b541a6146112d2578063f90423ad14611305578063ff3281a614611358575f5ffd5b8063ebd0a6be14611294578063ef8b30f7146112b3575f5ffd5b8063e9dc5e5b116100b7578063e9dc5e5b14611204578063ea82792f14611223578063eb9259ef14611275575f5ffd5b8063dd62ed3e146111c6578063e4cbe247146111e5575f5ffd5b8063ce96cb7711610126578063d505accf1161010c578063d505accf14611169578063d547741f14611188578063d905777e146111a7575f5ffd5b8063ce96cb7714611117578063d41e972014611136575f5ffd5b8063c6e6f59211610156578063c6e6f592146110ba578063ca15c873146110d9578063cd2ba69c146110f8575f5ffd5b8063c49baebe14611087578063c63d75b614610a8d575f5ffd5b8063ae9483e01161021a578063b8a15e3a116101d0578063ba087652116101b6578063ba08765214610ff2578063bca7093d14611011578063beca03d514611054575f5ffd5b8063b8a15e3a14610fab578063b919ba1a14610fbf575f5ffd5b8063b175eb4d11610200578063b175eb4d14610f25578063b3d7f6b914610f6d578063b460af9414610f8c575f5ffd5b8063ae9483e014610ef2578063af83fa9914610e06575f5ffd5b8063a856fb3d1161026f578063a9de314911610255578063a9de314914610e63578063aa5c3ab414610e96578063ad3cb1cc14610eaa575f5ffd5b8063a856fb3d14610e25578063a9059cbb14610e44575f5ffd5b8063a27102421161029f578063a271024214610da4578063a3246ad314610de7578063a5d5db0c14610e06575f5ffd5b806396aadc6214610d72578063a217fddf14610d91575f5ffd5b80633bed90ce1161040d5780636e553f651161036e5780639010d07c1161032457806391d148541161030a57806391d1485414610cab57806394bf804d14610d0e57806395d89b4114610d2d575f5ffd5b80639010d07c14610c78578063907c0f9214610c97575f5ffd5b80637a79bd5c116103545780637a79bd5c14610bf55780637ecebe0014610c2857806382d366d014610c59575f5ffd5b80636e553f6514610ba557806370a0823114610bc4575f5ffd5b80634f1ef286116103c3578063588c8d2d116103a9578063588c8d2d14610b265780635f537db114610b455780636c0a28d114610b92575f5ffd5b80634f1ef28614610aff57806352d1902d14610b12575f5ffd5b8063402d267d116103f3578063402d267d14610a8d578063446a2ec814610aad5780634cdad50614610ae0575f5ffd5b80633bed90ce14610a395780633c5de03014610a6c575f5ffd5b8063248a9ca3116104b757806332f6cfba1161046d57806336568abe1161045357806336568abe146109d4578063372500ab146109f357806338d52e0f14610a07575f5ffd5b806332f6cfba146108d75780633644e5151461090a575f5ffd5b80632cba54da1161049d5780632cba54da146108735780632f2ff15d14610892578063313ce567146108b1575f5ffd5b8063248a9ca3146107db578063266ba69614610828575f5ffd5b8063095ea7b31161050c57806318160ddd116104f257806318160ddd1461074057806318253e9c1461075c57806323b872dd146107bc575f5ffd5b8063095ea7b3146107025780630a28a47714610721575f5ffd5b806301e1d1141461063f57806301ffc9a71461066657806306fdde031461069557806307a2d13a146106e3575f5ffd5b3661063b577f00000000000000000000000000000000000000000000000000000000000000006001600160a01b0316330361057357005b7f6b07ffc886efe9d230e1d814063a7ba84fa345fe62a3ce3cd22b17465f0ef30480547f6b07ffc886efe9d230e1d814063a7ba84fa345fe62a3ce3cd22b17465f0ef3009134915f906105c7908490615375565b925050819055507f00000000000000000000000000000000000000000000000000000000000000006001600160a01b031663d0e30db0346040518263ffffffff1660e01b81526004015f604051808303818588803b158015610627575f5ffd5b505af1158015610639573d5f5f3e3d5ffd5b005b5f5ffd5b34801561064a575f5ffd5b5061065361138b565b6040519081526020015b60405180910390f35b348015610671575f5ffd5b50610685610680366004615388565b611493565b604051901515815260200161065d565b3480156106a0575f5ffd5b5060408051808201909152601b81527f4d756e6a61204d49544f20436f6c6c61746572616c205661756c74000000000060208201525b60405161065d91906153c7565b3480156106ee575f5ffd5b506106536106fd3660046153fc565b6114ee565b34801561070d575f5ffd5b5061068561071c366004615427565b611532565b34801561072c575f5ffd5b5061065361073b3660046153fc565b6115b1565b34801561074b575f5ffd5b506805345cdf77eb68f44c54610653565b348015610767575f5ffd5b5061077b61077636600461546b565b6115e8565b60408051825165ffffffffffff1681526020808401516cffffffffffffffffffffffffff90811691830191909152928201519092169082015260600161065d565b3480156107c7575f5ffd5b506106856107d6366004615484565b61162e565b3480156107e6575f5ffd5b506106536107f53660046153fc565b5f9081527f02dd7bc7dec4dceedda775e58dd541e08a116c6c53815c0bd028192f7b626800602052604090206001015490565b348015610833575f5ffd5b5061085b7f000000000000000000000000000000000000000000000000000000000000000081565b6040516001600160a01b03909116815260200161065d565b34801561087e575f5ffd5b5061065361088d3660046154c2565b611713565b34801561089d575f5ffd5b506106396108ac366004615504565b6117d7565b3480156108bc575f5ffd5b506108c5611820565b60405160ff909116815260200161065d565b3480156108e2575f5ffd5b5061085b7f000000000000000000000000000000000000000000000000000000000000000081565b348015610915575f5ffd5b50604080518082018252601b81527f4d756e6a61204d49544f20436f6c6c61746572616c205661756c74000000000060209182015281517f8b73c3c69bb8fe3d512ecc4cf759cc79239f7b179b0ffacaa9a75d522b39400f81527f55b87dd88b8006100b4ed36ebba5cf078ab2676d3c88fab9549a913366da4975918101919091527fc89efdaa54c0f20c7adf612882df0950f5a951637e0307cdcb4c672f298b8bc69181019190915246606082015230608082015260a09020610653565b3480156109df575f5ffd5b506106396109ee366004615504565b611836565b3480156109fe575f5ffd5b50610653611887565b348015610a12575f5ffd5b507f000000000000000000000000000000000000000000000000000000000000000061085b565b348015610a44575f5ffd5b5061085b7f000000000000000000000000000000000000000000000000000000000000000081565b348015610a77575f5ffd5b50610a8061195e565b60405161065d9190615532565b348015610a98575f5ffd5b50610653610aa736600461557d565b505f1990565b348015610ab8575f5ffd5b507f6b07ffc886efe9d230e1d814063a7ba84fa345fe62a3ce3cd22b17465f0ef30854610653565b348015610aeb575f5ffd5b50610653610afa3660046153fc565b611968565b610639610b0d36600461561f565b611972565b348015610b1d575f5ffd5b50610653611991565b348015610b31575f5ffd5b50610639610b4036600461557d565b6119bf565b348015610b50575f5ffd5b507f6b07ffc886efe9d230e1d814063a7ba84fa345fe62a3ce3cd22b17465f0ef30054640100000000900461ffff1660405161ffff909116815260200161065d565b610639610ba0366004615427565b6119cb565b348015610bb0575f5ffd5b50610653610bbf366004615504565b611b9e565b348015610bcf575f5ffd5b50610653610bde36600461557d565b6387a211a2600c9081525f91909152602090205490565b348015610c00575f5ffd5b5061085b7f000000000000000000000000000000000000000000000000000000000000000081565b348015610c33575f5ffd5b50610653610c4236600461557d565b6338377508600c9081525f91909152602090205490565b348015610c64575f5ffd5b50610653610c7336600461557d565b611c2e565b348015610c83575f5ffd5b5061085b610c923660046156c6565b611c38565b348015610ca2575f5ffd5b5061077b611c70565b348015610cb6575f5ffd5b50610685610cc5366004615504565b5f9182527f02dd7bc7dec4dceedda775e58dd541e08a116c6c53815c0bd028192f7b626800602090815260408084206001600160a01b0393909316845291905290205460ff1690565b348015610d19575f5ffd5b50610653610d28366004615504565b611cb5565b348015610d38575f5ffd5b5060408051808201909152600681527f6d4d49544f63000000000000000000000000000000000000000000000000000060208201526106d6565b348015610d7d575f5ffd5b50610653610d8c3660046156e6565b611d45565b348015610d9c575f5ffd5b506106535f81565b348015610daf575f5ffd5b50610dc3610dbe366004615718565b611f36565b6040805182516001600160a01b03168152602092830151928101929092520161065d565b348015610df2575f5ffd5b50610a80610e013660046153fc565b611ffd565b348015610e11575f5ffd5b50610639610e20366004615427565b612039565b348015610e30575f5ffd5b50610639610e3f366004615755565b61206d565b348015610e4f575f5ffd5b50610685610e5e366004615427565b612144565b348015610e6e575f5ffd5b507f6b07ffc886efe9d230e1d814063a7ba84fa345fe62a3ce3cd22b17465f0ef30154610653565b348015610ea1575f5ffd5b506106536121d1565b348015610eb5575f5ffd5b506106d66040518060400160405280600581526020017f352e302e3000000000000000000000000000000000000000000000000000000081525081565b348015610efd575f5ffd5b5061085b7f000000000000000000000000000000000000000000000000000000000000000081565b348015610f30575f5ffd5b506106d66040518060400160405280600681526020017f76302e302e35000000000000000000000000000000000000000000000000000081525081565b348015610f78575f5ffd5b50610653610f873660046153fc565b612272565b348015610f97575f5ffd5b50610653610fa636600461576e565b61229f565b348015610fb6575f5ffd5b506106d66122f8565b348015610fca575f5ffd5b5061085b7f000000000000000000000000000000000000000000000000000000000000000081565b348015610ffd575f5ffd5b5061065361100c36600461576e565b612314565b34801561101c575f5ffd5b507f6b07ffc886efe9d230e1d814063a7ba84fa345fe62a3ce3cd22b17465f0ef3005460405163ffffffff909116815260200161065d565b34801561105f575f5ffd5b507f6b07ffc886efe9d230e1d814063a7ba84fa345fe62a3ce3cd22b17465f0ef30454610653565b348015611092575f5ffd5b506106537f7f11e8a47c8f6f2761361211fdf25db4167076f4c74d7c390a15f4211bc8c21481565b3480156110c5575f5ffd5b506106536110d43660046153fc565b61236d565b3480156110e4575f5ffd5b506106536110f33660046153fc565b61239a565b348015611103575f5ffd5b506106396111123660046157c0565b6123d1565b348015611122575f5ffd5b5061065361113136600461557d565b6126f1565b348015611141575f5ffd5b507f6b07ffc886efe9d230e1d814063a7ba84fa345fe62a3ce3cd22b17465f0ef30554610653565b348015611174575f5ffd5b506106396111833660046157f9565b61270e565b348015611193575f5ffd5b506106396111a2366004615504565b612917565b3480156111b2575f5ffd5b506106536111c136600461557d565b61295a565b3480156111d1575f5ffd5b506106536111e0366004615718565b612973565b3480156111f0575f5ffd5b506106536111ff3660046154c2565b6129c7565b34801561120f575f5ffd5b5061063961121e36600461586a565b612a4e565b34801561122e575f5ffd5b5061124261123d36600461557d565b612adb565b60405161065d91908151815260208083015190820152604080830151908201526060918201519181019190915260800190565b348015611280575f5ffd5b5061065361128f366004615883565b612bb1565b34801561129f575f5ffd5b506106536112ae3660046156e6565b612d65565b3480156112be575f5ffd5b506106536112cd3660046153fc565b612de4565b3480156112dd575f5ffd5b506106537f46a52cf33029de9f84853745a87af28464c80bf0346df1b32e205fc73319f62281565b348015611310575f5ffd5b5061065361131f36600461557d565b6001600160a01b03165f9081527f6b07ffc886efe9d230e1d814063a7ba84fa345fe62a3ce3cd22b17465f0ef302602052604090205490565b348015611363575f5ffd5b507f6b07ffc886efe9d230e1d814063a7ba84fa345fe62a3ce3cd22b17465f0ef30654610653565b5f7f6b07ffc886efe9d230e1d814063a7ba84fa345fe62a3ce3cd22b17465f0ef300816113b6612dee565b6040517f70a082310000000000000000000000000000000000000000000000000000000081523060048201529091505f906001600160a01b037f000000000000000000000000000000000000000000000000000000000000000016906370a0823190602401602060405180830381865afa158015611436573d5f5f3e3d5ffd5b505050506040513d601f19601f8201168201806040525081019061145a91906158f4565b90505f6114678284615375565b6005850154909150811161147b575f61148a565b600584015461148a908261590b565b94505050505090565b5f7fffffffff0000000000000000000000000000000000000000000000000000000082167f5a05180f0000000000000000000000000000000000000000000000000000000014806114e857506114e882612e35565b92915050565b5f6114fb565b9392505050565b5f6114f48361150861138b565b611513906001615375565b61152d6115276805345cdf77eb68f44c5490565b60010190565b612ecb565b5f6001600160a01b0383166e22d473030f116ddee9f6b43ac78ba3188219151761156357633f68539a5f526004601cfd5b82602052637f5e9f20600c52335f52816034600c2055815f52602c5160601c337f8c5be1e5ebec7d5bd14f71427d1e84f3dd0314c0f7b2291e5b200ac8c7c3b92560205fa350600192915050565b5f6115bc565b612f59565b5f6114f4836115d26805345cdf77eb68f44c5490565b6115dd906001615375565b6115b761152761138b565b604080516060810182525f80825260208201819052918101919091526114e87f6b07ffc886efe9d230e1d814063a7ba84fa345fe62a3ce3cd22b17465f0ef30683612f85565b5f61163a848484613113565b8360601b6e22d473030f116ddee9f6b43ac78ba3331461168e5733602052637f5e9f208117600c526034600c20805480191561168b5780851115611685576313be252b5f526004601cfd5b84810382555b50505b6387a211a28117600c526020600c208054808511156116b45763f4d678b85f526004601cfd5b84810382555050835f526020600c208381540181555082602052600c5160601c8160601c7fddf252ad1be2c89b69c2b068fc378daa952ba7f163c4a11628f55a4df523b3ef602080a350611709848484613163565b5060019392505050565b6040517f2cba54da0000000000000000000000000000000000000000000000000000000081526001600160a01b03848116600483015265ffffffffffff8085166024840152831660448301525f917f000000000000000000000000000000000000000000000000000000000000000090911690632cba54da906064015b602060405180830381865afa1580156117ab573d5f5f3e3d5ffd5b505050506040513d601f19601f820116820180604052508101906117cf91906158f4565b949350505050565b5f8281527f02dd7bc7dec4dceedda775e58dd541e08a116c6c53815c0bd028192f7b62680060205260409020600101546118108161316b565b61181a8383613175565b50505050565b5f61182b565b905090565b6118265f6012615a01565b6001600160a01b0381163314611878576040517f6697b23200000000000000000000000000000000000000000000000000000000815260040160405180910390fd5b61188282826131ca565b505050565b5f61189133613216565b50335f9081527f6b07ffc886efe9d230e1d814063a7ba84fa345fe62a3ce3cd22b17465f0ef30a60205260409020547f6b07ffc886efe9d230e1d814063a7ba84fa345fe62a3ce3cd22b17465f0ef308811561195a57335f818152600283016020526040812055611924907f00000000000000000000000000000000000000000000000000000000000000009084613303565b60405182815233907f106f923f993c2149d49b4255ff723acafa1f2d94393f561d3eda32ae348f72419060200160405180910390a25b5090565b6060611826613356565b5f6114e8826114ee565b61197a613437565b61198382613509565b61198d8282613513565b5050565b5f61199a613614565b507f360894a13ba1a3210667c828492db98dca3e2076cc3735a920a3ca505d382bbc90565b6119c881613676565b50565b7f46a52cf33029de9f84853745a87af28464c80bf0346df1b32e205fc73319f6226119f58161316b565b5f8211611a2e576040517f1f2a200500000000000000000000000000000000000000000000000000000000815260040160405180910390fd5b7f6b07ffc886efe9d230e1d814063a7ba84fa345fe62a3ce3cd22b17465f0ef300611a5884613676565b6001600160a01b0384165f908152600282016020526040902054831115611aab576040517f3a23d82500000000000000000000000000000000000000000000000000000000815260040160405180910390fd5b6040517f2ae8bdfe0000000000000000000000000000000000000000000000000000000081526001600160a01b038581166004830152306024830152604482018590527f00000000000000000000000000000000000000000000000000000000000000001690632ae8bdfe9034906064015f604051808303818588803b158015611b33575f5ffd5b505af1158015611b45573d5f5f3e3d5ffd5b5050505050611b5584845f61388c565b836001600160a01b03167f8da249024f8b8944871f76a90e3cdec6f88c81459518bf6b9f47fda47d4244d884604051611b9091815260200190565b60405180910390a250505050565b5f5f8311611bd8576040517f1f2a200500000000000000000000000000000000000000000000000000000000815260040160405180910390fd5b6001600160a01b038216611c18576040517fd92e233d00000000000000000000000000000000000000000000000000000000815260040160405180910390fd5b611c2183612de4565b90506114e88382846139a7565b5f6114e882613a28565b5f8281527fc1f6fe24621ce81ec5827caf0253cadb74709b061630e6b55e823717059320006020819052604082206117cf9084613af5565b604080516060810182525f80825260208201819052918101919091526118267f6b07ffc886efe9d230e1d814063a7ba84fa345fe62a3ce3cd22b17465f0ef306613b00565b5f5f8311611cef576040517f1f2a200500000000000000000000000000000000000000000000000000000000815260040160405180910390fd5b6001600160a01b038216611d2f576040517fd92e233d00000000000000000000000000000000000000000000000000000000815260040160405180910390fd5b611d3883612272565b90506114e88184846139a7565b5f7f46a52cf33029de9f84853745a87af28464c80bf0346df1b32e205fc73319f622611d708161316b565b6040517f7ca352090000000000000000000000000000000000000000000000000000000081526001600160a01b03868116600483015260248201869052604482018590527f00000000000000000000000000000000000000000000000000000000000000001690637ca35209906064016020604051808303815f875af1158015611dfc573d5f5f3e3d5ffd5b505050506040513d601f19601f82011682018060405250810190611e2091906158f4565b91508115611f2e575f611e3a6805345cdf77eb68f44c5490565b90505f8111611eaa576040517f08c379a000000000000000000000000000000000000000000000000000000000815260206004820152600960248201527f4e6f20736861726573000000000000000000000000000000000000000000000060448201526064015b60405180910390fd5b7f6b07ffc886efe9d230e1d814063a7ba84fa345fe62a3ce3cd22b17465f0ef3085f611edf85670de0b6b3a764000085612ecb565b8254611eeb9190615375565b80835560408051878152602081018390529192507feaf3d57629d9b1ce95715ccd98d6f5bf48023be1d5a06e09f64ab7f6d8be01d5910160405180910390a15050505b509392505050565b6040805180820182525f808252602082015290517feca1c8d10000000000000000000000000000000000000000000000000000000081524265ffffffffffff1660048201526001600160a01b03848116602483015283811660448301527f0000000000000000000000000000000000000000000000000000000000000000169063eca1c8d1906064016040805180830381865afa158015611fd9573d5f5f3e3d5ffd5b505050506040513d601f19601f820116820180604052508101906114f49190615a1a565b5f8181527fc1f6fe24621ce81ec5827caf0253cadb74709b061630e6b55e8237170593200060208190526040909120606091906114f490613bdb565b7f46a52cf33029de9f84853745a87af28464c80bf0346df1b32e205fc73319f6226120638161316b565b6118828383613be7565b5f6120778161316b565b5f8261ffff16116120b4576040517f1f2a200500000000000000000000000000000000000000000000000000000000815260040160405180910390fd5b817f6b07ffc886efe9d230e1d814063a7ba84fa345fe62a3ce3cd22b17465f0ef30080547fffffffffffffffffffffffffffffffffffffffffffffffffffff0000ffffffff1664010000000061ffff9384160217905560405190831681527fbcc67804a344da64a5fefefd56b8a0ac6f24d86f0081fb606a152177f28477de906020015b60405180910390a15050565b5f612150338484613113565b6387a211a2600c52335f526020600c208054808411156121775763f4d678b85f526004601cfd5b83810382555050825f526020600c208281540181555081602052600c5160601c337fddf252ad1be2c89b69c2b068fc378daa952ba7f163c4a11628f55a4df523b3ef602080a36121c8338484613163565b50600192915050565b6040517f70a082310000000000000000000000000000000000000000000000000000000081523060048201525f907f00000000000000000000000000000000000000000000000000000000000000006001600160a01b0316906370a0823190602401602060405180830381865afa15801561224e573d5f5f3e3d5ffd5b505050506040513d601f19601f8201168201806040525081019061182691906158f4565b5f5f6114f48361228061138b565b61228b906001615375565b6115b76115276805345cdf77eb68f44c5490565b5f5f84116122d9576040517f1f2a200500000000000000000000000000000000000000000000000000000000815260040160405180910390fd5b6122e1613ee3565b6122ea846115b1565b90506114f484828585613f23565b604051806060016040528060288152602001615c9e6028913981565b5f5f841161234e576040517f1f2a200500000000000000000000000000000000000000000000000000000000815260040160405180910390fd5b612356613ee3565b61235f84611968565b90506114f481858585613f23565b5f5f6114f4836123846805345cdf77eb68f44c5490565b61238f906001615375565b61152d61152761138b565b5f8181527fc1f6fe24621ce81ec5827caf0253cadb74709b061630e6b55e823717059320006020819052604082206114f490613fc0565b7ff0c57e16840df040f15088dc2f81fe391c3923bec73e23a9662efc9c229c6a00805468010000000000000000810460ff16159067ffffffffffffffff165f8115801561241b5750825b90505f8267ffffffffffffffff1660011480156124375750303b155b905081158015612445575080155b1561247c576040517ff92ee8a900000000000000000000000000000000000000000000000000000000815260040160405180910390fd5b84547fffffffffffffffffffffffffffffffffffffffffffffffff000000000000000016600117855583156124dd5784547fffffffffffffffffffffffffffffffffffffffffffffff00ffffffffffffffff16680100000000000000001785555b6001600160a01b03881661251d576040517fd92e233d00000000000000000000000000000000000000000000000000000000815260040160405180910390fd5b5f8661ffff161161255a576040517f1f2a200500000000000000000000000000000000000000000000000000000000815260040160405180910390fd5b612562613fc9565b61256a613fc9565b6125745f89613175565b507f6b07ffc886efe9d230e1d814063a7ba84fa345fe62a3ce3cd22b17465f0ef300805463ffffffff89167fffffffffffffffffffffffffffffffffffffffffffffffffffff000000000000909116811764010000000061ffff8a16021782557f6b07ffc886efe9d230e1d814063a7ba84fa345fe62a3ce3cd22b17465f0ef30780547fffffffffffffffffffffffffffffffffffffffffffffffffffffffffffffff0016905560408051918252517f208c92ef4d5bbb2d8447ddf6bbc0d213383e81bb886d96320112c35b5f520907916020908290030190a160405161ffff881681527fbcc67804a344da64a5fefefd56b8a0ac6f24d86f0081fb606a152177f28477de9060200160405180910390a15083156126e75784547fffffffffffffffffffffffffffffffffffffffffffffff00ffffffffffffffff168555604051600181527fc7f505b2f371ae2175ee4913f4499e1f2633a7b5936321eed1cdaeb6115181d29060200160405180910390a15b5050505050505050565b6387a211a2600c9081525f8281526020909120546114e8906114ee565b6001600160a01b0386166e22d473030f116ddee9f6b43ac78ba3188519151761273e57633f68539a5f526004601cfd5b60408051808201909152601b81527f4d756e6a61204d49544f20436f6c6c61746572616c205661756c7400000000006020909101527f55b87dd88b8006100b4ed36ebba5cf078ab2676d3c88fab9549a913366da49757fc89efdaa54c0f20c7adf612882df0950f5a951637e0307cdcb4c672f298b8bc6428610156127ca57631a15a3cc5f526004601cfd5b6040518960601b60601c99508860601b60601c985065383775081901600e52895f526020600c2080547f8b73c3c69bb8fe3d512ecc4cf759cc79239f7b179b0ffacaa9a75d522b39400f835284602084015283604084015246606084015230608084015260a08320602e527f6e71edae12b1b97f4d1f60370fef10105fa2faae0126114a169c64845d6126c983528b60208401528a60408401528960608401528060808401528860a084015260c08320604e526042602c205f528760ff16602052866040528560605260208060805f60015afa8c3d51146128b25763ddafbaef5f526004601cfd5b019055777f5e9f20000000000000000000000000000000000000000089176040526034602c20889055888a7f8c5be1e5ebec7d5bd14f71427d1e84f3dd0314c0f7b2291e5b200ac8c7c3b925602060608501a360405250505f60605250505050505050565b5f8281527f02dd7bc7dec4dceedda775e58dd541e08a116c6c53815c0bd028192f7b62680060205260409020600101546129508161316b565b61181a83836131ca565b6387a211a2600c9081525f8281526020909120546114e8565b5f7fffffffffffffffffffffffffffffffffffdd2b8cfcf0ee922116094bc538745d6001600160a01b038316016129ac57505f196114e8565b50602052637f5e9f20600c9081525f91909152603490205490565b6040517f90aaa04600000000000000000000000000000000000000000000000000000000815265ffffffffffff8084166004830152821660248201526001600160a01b0384811660448301523060648301525f917f0000000000000000000000000000000000000000000000000000000000000000909116906390aaa04690608401611790565b5f612a588161316b565b817f6b07ffc886efe9d230e1d814063a7ba84fa345fe62a3ce3cd22b17465f0ef30080547fffffffffffffffffffffffffffffffffffffffffffffffffffffffff000000001663ffffffff92831617905560405190831681527f208c92ef4d5bbb2d8447ddf6bbc0d213383e81bb886d96320112c35b5f52090790602001612138565b612b0260405180608001604052805f81526020015f81526020015f81526020015f81525090565b6040517f1714b74d00000000000000000000000000000000000000000000000000000000815265ffffffffffff421660048201526001600160a01b0383811660248301527f00000000000000000000000000000000000000000000000000000000000000001690631714b74d90604401608060405180830381865afa158015612b8d573d5f5f3e3d5ffd5b505050506040513d601f19601f820116820180604052508101906114e89190615a72565b5f7f6b07ffc886efe9d230e1d814063a7ba84fa345fe62a3ce3cd22b17465f0ef300807f6b07ffc886efe9d230e1d814063a7ba84fa345fe62a3ce3cd22b17465f0ef30484612c2c576040517f1f2a200500000000000000000000000000000000000000000000000000000000815260040160405180910390fd5b8154640100000000900461ffff16851115612ca3576040517f08c379a000000000000000000000000000000000000000000000000000000000815260206004820152600f60248201527f546f6f206d616e7920636c61696d7300000000000000000000000000000000006044820152606401611ea1565b5f612cfd7f0000000000000000000000000000000000000000000000000000000000000000600284017f000000000000000000000000000000000000000000000000000000000000000033875463ffffffff168c8c613fd1565b809250819650505080826001015f828254612d18919061590b565b909155505060405133907f90ce89e46e65f752d55048ae58f3b4e9af261bac67ba9233f4faa0427a8c7ef490612d539088908b908b90615ad5565b60405180910390a25050505092915050565b6040517f3075fe4e0000000000000000000000000000000000000000000000000000000081526001600160a01b03848116600483015230602483015260448201849052606482018390525f917f000000000000000000000000000000000000000000000000000000000000000090911690633075fe4e90608401611790565b5f6114e88261236d565b5f5f612df8613356565b9050612e2f6001600160a01b037f0000000000000000000000000000000000000000000000000000000000000000168230426141ef565b91505090565b5f7fffffffff0000000000000000000000000000000000000000000000000000000082167f7965db0b0000000000000000000000000000000000000000000000000000000014806114e857507f01ffc9a7000000000000000000000000000000000000000000000000000000007fffffffff000000000000000000000000000000000000000000000000000000008316146114e8565b82820281838583041485151702612f52575f198385098181108201900382848609835f038416828511612f055763ae47f7025f526004601cfd5b93849004938382119092035f8390038390046001010292030417600260038302811880840282030280840282030280840282030280840282030280840282030280840290910302026114f4565b0492915050565b5f612f65848484612ecb565b905081838509156114f457600101806114f45763ae47f7025f526004601cfd5b604080516060810182525f8082526020820181905291810191909152825480612fda576040517fbe72dda600000000000000000000000000000000000000000000000000000000815260040160405180910390fd5b5f815b80821015613050575f6002612ff28385615375565b612ffc9190615b2c565b90508565ffffffffffff16875f01828154811061301b5761301b615b64565b5f9182526020909120015465ffffffffffff16111561303c5780915061304a565b613047816001615375565b92505b50612fdd565b5f8211613089576040517fbe72dda600000000000000000000000000000000000000000000000000000000815260040160405180910390fd5b8561309560018461590b565b815481106130a5576130a5615b64565b5f91825260209182902060408051606081018252919092015465ffffffffffff811682526cffffffffffffffffffffffffff66010000000000008204811694830194909452730100000000000000000000000000000000000000900490921690820152935050505092915050565b6001600160a01b0383161561312b5761312b83613216565b6001600160a01b038216158015906131555750826001600160a01b0316826001600160a01b031614155b156118825761188282613216565b611882614234565b6119c88133614308565b5f7fc1f6fe24621ce81ec5827caf0253cadb74709b061630e6b55e82371705932000816131a28585614394565b905080156117cf575f8581526020839052604090206131c1908561447e565b50949350505050565b5f7fc1f6fe24621ce81ec5827caf0253cadb74709b061630e6b55e82371705932000816131f78585614492565b905080156117cf575f8581526020839052604090206131c19085614554565b6387a211a2600c9081525f828152602091829020547f6b07ffc886efe9d230e1d814063a7ba84fa345fe62a3ce3cd22b17465f0ef30880546001600160a01b03861684527f6b07ffc886efe9d230e1d814063a7ba84fa345fe62a3ce3cd22b17465f0ef30990945260408320549093919290670de0b6b3a76400009061329c908461590b565b6132a69085615b91565b6132b09190615b2c565b6001600160a01b0386165f9081526002860160205260408120805492935083929091906132de908490615375565b9091555050506001600160a01b039093165f9081526001909201602052506040902055565b81601452806034526fa9059cbb0000000000000000000000005f5260205f604460105f875af18060015f51141661334c57803d853b15171061334c576390b8ec185f526004601cfd5b505f603452505050565b60605f6133827f7f11e8a47c8f6f2761361211fdf25db4167076f4c74d7c390a15f4211bc8c21461239a565b90505f8167ffffffffffffffff81111561339e5761339e615598565b6040519080825280602002602001820160405280156133c7578160200160208202803683370190505b5090505f5b82811015613430576133fe7f7f11e8a47c8f6f2761361211fdf25db4167076f4c74d7c390a15f4211bc8c21482611c38565b82828151811061341057613410615b64565b6001600160a01b03909216602092830291909101909101526001016133cc565b5092915050565b306001600160a01b037f00000000000000000000000000000000000000000000000000000000000000001614806134d057507f00000000000000000000000000000000000000000000000000000000000000006001600160a01b03166134c47f360894a13ba1a3210667c828492db98dca3e2076cc3735a920a3ca505d382bbc546001600160a01b031690565b6001600160a01b031614155b15613507576040517fe07c8dba00000000000000000000000000000000000000000000000000000000815260040160405180910390fd5b565b5f61198d8161316b565b816001600160a01b03166352d1902d6040518163ffffffff1660e01b8152600401602060405180830381865afa92505050801561356d575060408051601f3d908101601f1916820190925261356a918101906158f4565b60015b6135ae576040517f4c9c8ce30000000000000000000000000000000000000000000000000000000081526001600160a01b0383166004820152602401611ea1565b7f360894a13ba1a3210667c828492db98dca3e2076cc3735a920a3ca505d382bbc811461360a576040517faa1d49a400000000000000000000000000000000000000000000000000000000815260048101829052602401611ea1565b6118828383614568565b306001600160a01b037f00000000000000000000000000000000000000000000000000000000000000001614613507576040517fe07c8dba00000000000000000000000000000000000000000000000000000000815260040160405180910390fd5b7f6b07ffc886efe9d230e1d814063a7ba84fa345fe62a3ce3cd22b17465f0ef3007f6b07ffc886efe9d230e1d814063a7ba84fa345fe62a3ce3cd22b17465f0ef3015f6136c2846145bd565b6001600160a01b0385165f90815260018401602052604090205490915080820361370957506001600160a01b039093165f9081526002909101602052604090209190915550565b82545f83613717848461590b565b6137219190615375565b8086556001600160a01b0388165f818152600188016020908152604080832089905560028a01825291829020889055815187815290810188905292935090917f34018ede8dca196ceedd96cf9aa8e0b40357a8dfa526b0665345372b6452362b910160405180910390a282841015613883575f61379e858561590b565b6005880154909150600488019080158015906137b957505f85115b80156137c457508484105b15613833575f6137d5828688612ecb565b90505f6137e2828461590b565b6001850183905560408051828152602081018590529192506001600160a01b038e16917f19f03a86b0d5f292e0bdf8d62c134cc6d161c285faf5632a0958b77a239e2519910160405180910390a250505b60408051848152602081018990526001600160a01b038c16917fb9164aa2bb73baf419569d7fc586c67110b41ba1735b0ca1692782ef112247e2910160405180910390a261387f614234565b5050505b50505050505050565b7f6b07ffc886efe9d230e1d814063a7ba84fa345fe62a3ce3cd22b17465f0ef301811561392d576001600160a01b0384165f908152600182016020526040812080548592906138dc908490615375565b90915550508054839082905f906138f4908490615375565b90915550506001600160a01b0384165f90815260028201602052604081208054859290613922908490615375565b9091555061181a9050565b6001600160a01b0384165f9081526001820160205260408120805485929061395690849061590b565b90915550508054839082905f9061396e90849061590b565b90915550506001600160a01b0384165f9081526002820160205260408120805485929061399c90849061590b565b909155505050505050565b6139d37f00000000000000000000000000000000000000000000000000000000000000003330866145f3565b6139dd8183614655565b60408051848152602081018490526001600160a01b0383169133917fdcbc1c05240f31ff3ad067ef1ee35ce4997762752e3a095284754544f4c709d7910160405180910390a3505050565b6387a211a2600c9081525f828152602091829020546001600160a01b03841682527f6b07ffc886efe9d230e1d814063a7ba84fa345fe62a3ce3cd22b17465f0ef30990925260408120547f6b07ffc886efe9d230e1d814063a7ba84fa345fe62a3ce3cd22b17465f0ef30880549293909290918491670de0b6b3a764000091613ab09161590b565b613aba9084615b91565b613ac49190615b2c565b6001600160a01b0386165f908152600285016020526040902054909150613aec908290615375565b95945050505050565b5f6114f483836146e3565b604080516060810182525f8082526020820181905291810191909152815480613b55576040517fbe72dda600000000000000000000000000000000000000000000000000000000815260040160405180910390fd5b82613b6160018361590b565b81548110613b7157613b71615b64565b5f91825260209182902060408051606081018252919092015465ffffffffffff811682526cffffffffffffffffffffffffff660100000000000082048116948301949094527301000000000000000000000000000000000000009004909216908201529392505050565b60605f6114f483614709565b5f8111613c20576040517f1f2a200500000000000000000000000000000000000000000000000000000000815260040160405180910390fd5b6040517ffacd743b0000000000000000000000000000000000000000000000000000000081526001600160a01b0383811660048301527f0000000000000000000000000000000000000000000000000000000000000000169063facd743b90602401602060405180830381865afa158015613c9d573d5f5f3e3d5ffd5b505050506040513d601f19601f82011682018060405250810190613cc19190615ba8565b613cf7576040517f682a6e7c00000000000000000000000000000000000000000000000000000000815260040160405180910390fd5b6001600160a01b0382165f9081527f33bba9d53c7b3593a910d5d91ae2186e0b76d797cad9e6b6cd5b9a64588c2ea2602052604090205460ff16613d67576040517f682a6e7c00000000000000000000000000000000000000000000000000000000815260040160405180910390fd5b613d7082613676565b6040517f2e1a7d4d000000000000000000000000000000000000000000000000000000008152600481018290527f00000000000000000000000000000000000000000000000000000000000000006001600160a01b031690632e1a7d4d906024015f604051808303815f87803b158015613de8575f5ffd5b505af1158015613dfa573d5f5f3e3d5ffd5b50506040517f97d475d70000000000000000000000000000000000000000000000000000000081526001600160a01b0385811660048301527f00000000000000000000000000000000000000000000000000000000000000001692506397d475d7915083906024015f604051808303818588803b158015613e79575f5ffd5b505af1158015613e8b573d5f5f3e3d5ffd5b5050505050613e9c8282600161388c565b816001600160a01b03167fd7243f6f8212d5188fd054141cf6ea89cfc0d91facb8c3afe2f88a135848014282604051613ed791815260200190565b60405180910390a25050565b5f613eec613356565b90505f5b815181101561198d57613f1b828281518110613f0e57613f0e615b64565b6020026020010151613676565b600101613ef0565b336001600160a01b03821614613f3e57613f3e813385614762565b613f4881846147d6565b613f5382858561485c565b50806001600160a01b0316826001600160a01b0316613f6f3390565b6001600160a01b03167ffbde797d201c681b91056529119e0b02407c7bb96a4a2c75c01fc9667232c8db8787604051613fb2929190918252602082015260400190565b60405180910390a450505050565b5f6114e8825490565b6135076149d9565b5f8042815b8481101561419d575f868683818110613ff157613ff1615b64565b9050602002013590505f8c6001600160a01b031663ae485651836040518263ffffffff1660e01b815260040161402991815260200190565b60e060405180830381865afa158015614044573d5f5f3e3d5ffd5b505050506040513d601f19601f820116820180604052508101906140689190615bc7565b9050896001600160a01b031681602001516001600160a01b0316146140b9576040517f4088c61c00000000000000000000000000000000000000000000000000000000815260040160405180910390fd5b8863ffffffff1681608001516140cf9190615375565b841015614108576040517f480426e400000000000000000000000000000000000000000000000000000000815260040160405180910390fd5b5f5f6141158f8f86614a40565b90925090506141248289615375565b97506141308188615375565b96508e6001600160a01b03166342966c68856040518263ffffffff1660e01b815260040161416091815260200190565b5f604051808303815f87803b158015614177575f5ffd5b505af1158015614189573d5f5f3e3d5ffd5b505060019096019550613fd6945050505050565b50825f036141d7576040517fde3ae6c900000000000000000000000000000000000000000000000000000000815260040160405180910390fd5b6141e2888885613303565b5097509795505050505050565b5f805b84518110156131c1576142208686838151811061421157614211615b64565b60200260200101518686614b16565b61422a9083615375565b91506001016141f2565b7f6b07ffc886efe9d230e1d814063a7ba84fa345fe62a3ce3cd22b17465f0ef3005f61425e61138b565b90505f6142726805345cdf77eb68f44c5490565b90505f614280600685015490565b905080156142fa575f61429560068601613b00565b90508381602001516cffffffffffffffffffffffffff161480156142cb57508281604001516cffffffffffffffffffffffffff16145b80156142ec5750805161012c906142ea9065ffffffffffff164261590b565b105b156142f8575050505050565b505b61181a600685018484614c7e565b5f8281527f02dd7bc7dec4dceedda775e58dd541e08a116c6c53815c0bd028192f7b626800602090815260408083206001600160a01b038516845290915290205460ff1661198d576040517fe2517d3f0000000000000000000000000000000000000000000000000000000081526001600160a01b038216600482015260248101839052604401611ea1565b5f8281527f02dd7bc7dec4dceedda775e58dd541e08a116c6c53815c0bd028192f7b626800602081815260408084206001600160a01b038616855290915282205460ff16614475575f848152602082815260408083206001600160a01b0387168452909152902080547fffffffffffffffffffffffffffffffffffffffffffffffffffffffffffffff0016600117905561442b3390565b6001600160a01b0316836001600160a01b0316857f2f8788117e7eff1d82e926ec794901d17c78024a50270940304540a733656f0d60405160405180910390a460019150506114e8565b5f9150506114e8565b5f6114f4836001600160a01b038416614f35565b5f8281527f02dd7bc7dec4dceedda775e58dd541e08a116c6c53815c0bd028192f7b626800602081815260408084206001600160a01b038616855290915282205460ff1615614475575f848152602082815260408083206001600160a01b038716808552925280832080547fffffffffffffffffffffffffffffffffffffffffffffffffffffffffffffff0016905551339287917ff6391f5c32d9c69d2a47ea670b442974b53935d1edc7fd64eb21e047a839171b9190a460019150506114e8565b5f6114f4836001600160a01b038416614f81565b6145718261505b565b6040516001600160a01b038316907fbc7cd75a20ee27fd9adebab32041f755214dbc6bffa90cc0225b39da2e5c2d3b905f90a28051156145b5576118828282615102565b61198d61516b565b5f6114e86001600160a01b037f000000000000000000000000000000000000000000000000000000000000000016833042614b16565b60405181606052826040528360601b602c526f23b872dd000000000000000000000000600c5260205f6064601c5f895af18060015f51141661464757803d873b15171061464757637939f4245f526004601cfd5b505f60605260405250505050565b6146605f8383613113565b6805345cdf77eb68f44c54818101818110156146835763e5cfe9575f526004601cfd5b806805345cdf77eb68f44c5550506387a211a2600c52815f526020600c208181540181555080602052600c5160601c5f7fddf252ad1be2c89b69c2b068fc378daa952ba7f163c4a11628f55a4df523b3ef602080a361198d5f8383613163565b5f825f0182815481106146f8576146f8615b64565b905f5260205f200154905092915050565b6060815f0180548060200260200160405190810160405280929190818152602001828054801561475657602002820191905f5260205f20905b815481526020019060010190808311614742575b50505050509050919050565b7fffffffffffffffffffffffffffffffffffdd2b8cfcf0ee922116094bc538745d6001600160a01b0383160161479757505050565b81602052637f5e9f20600c52825f526034600c2080548019156147cf57808311156147c9576313be252b5f526004601cfd5b82810382555b5050505050565b6147e1825f83613113565b6387a211a2600c52815f526020600c208054808311156148085763f4d678b85f526004601cfd5b82900390556805345cdf77eb68f44c805482900390555f8181526001600160a01b0383167fddf252ad1be2c89b69c2b068fc378daa952ba7f163c4a11628f55a4df523b3ef602083a361198d825f83613163565b5f807f6b07ffc886efe9d230e1d814063a7ba84fa345fe62a3ce3cd22b17465f0ef3006040517fff525efa0000000000000000000000000000000000000000000000000000000081526001600160a01b03878116600483015260248201879052604482018690524260648301527f0000000000000000000000000000000000000000000000000000000000000000811660848301523060a48301529192507f00000000000000000000000000000000000000000000000000000000000000009091169063ff525efa9060c4016020604051808303815f875af1158015614944573d5f5f3e3d5ffd5b505050506040513d601f19601f8201168201806040525081019061496891906158f4565b915083816004016001015f8282546149809190615375565b909155505060408051858152602081018590529081018390526001600160a01b038616907f38e3d972947cfef94205163d483d6287ef27eb312e20cb8e0b13a49989db232e9060600160405180910390a2509392505050565b7ff0c57e16840df040f15088dc2f81fe391c3923bec73e23a9662efc9c229c6a005468010000000000000000900460ff16613507576040517fd7e6bcf800000000000000000000000000000000000000000000000000000000815260040160405180910390fd5b5f5f5f856001600160a01b031663ae485651856040518263ffffffff1660e01b8152600401614a7191815260200190565b60e060405180830381865afa158015614a8c573d5f5f3e3d5ffd5b505050506040513d601f19601f82011682018060405250810190614ab09190615bc7565b9050806040015191505f614ac2865490565b1115614b05575f614ae4868360600151614adf85608001516151a3565b6151ee565b905081604001518111614af75780614afd565b81604001515b935050614b0d565b806040015192505b50935093915050565b6040517feca1c8d100000000000000000000000000000000000000000000000000000000815265ffffffffffff821660048201526001600160a01b03848116602483015283811660448301525f919086169063eca1c8d1906064016040805180830381865afa925050508015614ba9575060408051601f3d908101601f19168201909252614ba691810190615a1a565b60015b614bb457505f6117cf565b6040517f1714b74d00000000000000000000000000000000000000000000000000000000815265ffffffffffff841660048201526001600160a01b0386811660248301525f9190881690631714b74d90604401608060405180830381865afa158015614c22573d5f5f3e3d5ffd5b505050506040513d601f19601f82011682018060405250810190614c469190615a72565b905080602001515f03614c5d575f925050506117cf565b614c738260200151825f01518360200151612ecb565b979650505050505050565b426cffffffffffffffffffffffffff831115614cf6576040517f08c379a000000000000000000000000000000000000000000000000000000000815260206004820152600f60248201527f417373657473206f766572666c6f7700000000000000000000000000000000006044820152606401611ea1565b6cffffffffffffffffffffffffff821115614d6d576040517f08c379a000000000000000000000000000000000000000000000000000000000815260206004820152600f60248201527f536861726573206f766572666c6f7700000000000000000000000000000000006044820152606401611ea1565b83548015614e73575f85614d8260018461590b565b81548110614d9257614d92615b64565b5f918252602090912001805490915065ffffffffffff808516911603614e1557805465ffffffffffff1666010000000000006cffffffffffffffffffffffffff9687160272ffffffffffffffffffffffffffffffffffffff1617730100000000000000000000000000000000000000949095169390930293909317909155505050565b8054660100000000000090046cffffffffffffffffffffffffff1685148015614e645750805473010000000000000000000000000000000000000090046cffffffffffffffffffffffffff1684145b15614e7157505050505050565b505b506040805160608101825265ffffffffffff92831681526cffffffffffffffffffffffffff948516602080830191825294861692820192835286546001810188555f978852949096209051930180549551915185167301000000000000000000000000000000000000000272ffffffffffffffffffffffffffffffffffffff929095166601000000000000027fffffffffffffffffffffffffff0000000000000000000000000000000000000090961693909216929092179390931716179055565b5f818152600183016020526040812054614f7a57508154600181810184555f8481526020808220909301849055845484825282860190935260409020919091556114e8565b505f6114e8565b5f8181526001830160205260408120548015614475575f614fa360018361590b565b85549091505f90614fb69060019061590b565b9050808214615015575f865f018281548110614fd457614fd4615b64565b905f5260205f200154905080875f018481548110614ff457614ff4615b64565b5f918252602080832090910192909255918252600188019052604090208390555b855486908061502657615026615c4c565b600190038181905f5260205f20015f90559055856001015f8681526020019081526020015f205f9055600193505050506114e8565b806001600160a01b03163b5f036150a9576040517f4c9c8ce30000000000000000000000000000000000000000000000000000000081526001600160a01b0382166004820152602401611ea1565b7f360894a13ba1a3210667c828492db98dca3e2076cc3735a920a3ca505d382bbc80547fffffffffffffffffffffffff0000000000000000000000000000000000000000166001600160a01b0392909216919091179055565b60605f5f846001600160a01b03168460405161511e9190615c79565b5f60405180830381855af49150503d805f8114615156576040519150601f19603f3d011682016040523d82523d5f602084013e61515b565b606091505b5091509150613aec858383615212565b3415613507576040517fb398979f00000000000000000000000000000000000000000000000000000000815260040160405180910390fd5b5f65ffffffffffff82111561195a576040517f6dfcc6500000000000000000000000000000000000000000000000000000000081526030600482015260248101839052604401611ea1565b5f5f6151fa8584612f85565b6001860154909150613aec908290869060ff16615282565b606082615222576114f482615306565b815115801561523957506001600160a01b0384163b155b1561527b576040517f9996b3150000000000000000000000000000000000000000000000000000000081526001600160a01b0385166004820152602401611ea1565b50806114f4565b604083015160208401515f916cffffffffffffffffffffffffff90811691168183036152b25784925050506114f4565b8360ff165f036152df576152d6856152cb836001615375565b61152d856001615375565b925050506114f4565b5f6152eb85600a615c8f565b9050614c73866152fc846001615375565b61152d8487615375565b8051156153165780518082602001fd5b6040517fd6bda27500000000000000000000000000000000000000000000000000000000815260040160405180910390fd5b7f4e487b71000000000000000000000000000000000000000000000000000000005f52601160045260245ffd5b808201808211156114e8576114e8615348565b5f60208284031215615398575f5ffd5b81357fffffffff00000000000000000000000000000000000000000000000000000000811681146114f4575f5ffd5b602081525f82518060208401528060208501604085015e5f604082850101526040601f19601f83011684010191505092915050565b5f6020828403121561540c575f5ffd5b5035919050565b6001600160a01b03811681146119c8575f5ffd5b5f5f60408385031215615438575f5ffd5b823561544381615413565b946020939093013593505050565b803565ffffffffffff81168114615466575f5ffd5b919050565b5f6020828403121561547b575f5ffd5b6114f482615451565b5f5f5f60608486031215615496575f5ffd5b83356154a181615413565b925060208401356154b181615413565b929592945050506040919091013590565b5f5f5f606084860312156154d4575f5ffd5b83356154df81615413565b92506154ed60208501615451565b91506154fb60408501615451565b90509250925092565b5f5f60408385031215615515575f5ffd5b82359150602083013561552781615413565b809150509250929050565b602080825282518282018190525f918401906040840190835b818110156155725783516001600160a01b031683526020938401939092019160010161554b565b509095945050505050565b5f6020828403121561558d575f5ffd5b81356114f481615413565b7f4e487b71000000000000000000000000000000000000000000000000000000005f52604160045260245ffd5b60405160e0810167ffffffffffffffff811182821017156155e8576155e8615598565b60405290565b604051601f8201601f1916810167ffffffffffffffff8111828210171561561757615617615598565b604052919050565b5f5f60408385031215615630575f5ffd5b823561563b81615413565b9150602083013567ffffffffffffffff811115615656575f5ffd5b8301601f81018513615666575f5ffd5b803567ffffffffffffffff81111561568057615680615598565b6156936020601f19601f840116016155ee565b8181528660208385010111156156a7575f5ffd5b816020840160208301375f602083830101528093505050509250929050565b5f5f604083850312156156d7575f5ffd5b50508035926020909101359150565b5f5f5f606084860312156156f8575f5ffd5b833561570381615413565b95602085013595506040909401359392505050565b5f5f60408385031215615729575f5ffd5b823561573481615413565b9150602083013561552781615413565b803561ffff81168114615466575f5ffd5b5f60208284031215615765575f5ffd5b6114f482615744565b5f5f5f60608486031215615780575f5ffd5b83359250602084013561579281615413565b915060408401356157a281615413565b809150509250925092565b803563ffffffff81168114615466575f5ffd5b5f5f5f606084860312156157d2575f5ffd5b83356157dd81615413565b92506157eb602085016157ad565b91506154fb60408501615744565b5f5f5f5f5f5f5f60e0888a03121561580f575f5ffd5b873561581a81615413565b9650602088013561582a81615413565b95506040880135945060608801359350608088013560ff8116811461584d575f5ffd5b9699959850939692959460a0840135945060c09093013592915050565b5f6020828403121561587a575f5ffd5b6114f4826157ad565b5f5f60208385031215615894575f5ffd5b823567ffffffffffffffff8111156158aa575f5ffd5b8301601f810185136158ba575f5ffd5b803567ffffffffffffffff8111156158d0575f5ffd5b8560208260051b84010111156158e4575f5ffd5b6020919091019590945092505050565b5f60208284031215615904575f5ffd5b5051919050565b818103818111156114e8576114e8615348565b6001815b60018411156159595780850481111561593d5761593d615348565b600184161561594b57908102905b60019390931c928002615922565b935093915050565b5f8261596f575060016114e8565b8161597b57505f6114e8565b8160018114615991576002811461599b576159b7565b60019150506114e8565b60ff8411156159ac576159ac615348565b50506001821b6114e8565b5060208310610133831016604e8410600b84101617156159da575081810a6114e8565b6159e65f19848461591e565b805f19048211156159f9576159f9615348565b029392505050565b60ff81811683821601908111156114e8576114e8615348565b5f6040828403128015615a2b575f5ffd5b506040805190810167ffffffffffffffff81118282101715615a4f57615a4f615598565b6040528251615a5d81615413565b81526020928301519281019290925250919050565b5f6080828403128015615a83575f5ffd5b506040516080810167ffffffffffffffff81118282101715615aa757615aa7615598565b6040908152835182526020808501519083015283810151908201526060928301519281019290925250919050565b838152604060208201528160408201525f7f07ffffffffffffffffffffffffffffffffffffffffffffffffffffffffffffff831115615b12575f5ffd5b8260051b8085606085013791909101606001949350505050565b5f82615b5f577f4e487b71000000000000000000000000000000000000000000000000000000005f52601260045260245ffd5b500490565b7f4e487b71000000000000000000000000000000000000000000000000000000005f52603260045260245ffd5b80820281158282048414176114e8576114e8615348565b5f60208284031215615bb8575f5ffd5b815180151581146114f4575f5ffd5b5f60e0828403128015615bd8575f5ffd5b50615be16155c5565b8251615bec81615413565b81526020830151615bfc81615413565b602082015260408381015190820152606080840151908201526080808401519082015260a0830151615c2d81615413565b60a082015260c0830151615c4081615413565b60c08201529392505050565b7f4e487b71000000000000000000000000000000000000000000000000000000005f52603160045260245ffd5b5f82518060208501845e5f920191825250919050565b5f6114f460ff84168361596156fe64393231656630646638373561663162363164613762356666363531353234643164613031313732a2646970667358221220bc7b750f42bf6a6fa28e8507e11c5251fafbe3456ae1a21e158eb6468528522664736f6c634300081d0033","linkReferences":{}},"methodIdentifiers":{"COLLATERAL_ORACLE()":"7a79bd5c","DEFAULT_ADMIN_ROLE()":"a217fddf","DOMAIN_SEPARATOR()":"3644e515","GIT_COMMIT()":"b8a15e3a","GIT_TAG()":"b175eb4d","GM_MITO()":"3bed90ce","OPERATOR_ROLE()":"f5b541a6","REWARD_ROUTER()":"32f6cfba","UPGRADE_INTERFACE_VERSION()":"ad3cb1cc","VALIDATOR_MANAGER()":"ae9483e0","VALIDATOR_ROLE()":"c49baebe","WITHDRAWAL_NFT()":"266ba696","WMITO()":"b919ba1a","allowance(address,address)":"dd62ed3e","approve(address,uint256)":"095ea7b3","asset()":"38d52e0f","balanceOf(address)":"70a08231","checkpointHistoryLength()":"ff3281a6","claimRewards()":"372500ab","claimValidatorRewards(address,uint256,uint256)":"96aadc62","claimWithdraw(uint256[])":"eb9259ef","compoundToCollateral(address,uint256)":"af83fa99","convertToAssets(uint256)":"07a2d13a","convertToShares(uint256)":"c6e6f592","decimals()":"313ce567","deposit(uint256,address)":"6e553f65","depositCollateral(address,uint256)":"a5d5db0c","earnedRewards(address)":"82d366d0","getCheckpointAt(uint48)":"18253e9c","getClaimableValidatorRewards(address,uint256,uint256)":"ebd0a6be","getCollateralOwnershipTWAB(address,uint48,uint48)":"e4cbe247","getOracleCollateralOwnership(address,address)":"a2710242","getOracleValidatorCollateral(address)":"ea82792f","getRoleAdmin(bytes32)":"248a9ca3","getRoleMember(bytes32,uint256)":"9010d07c","getRoleMemberCount(bytes32)":"ca15c873","getRoleMembers(bytes32)":"a3246ad3","getTotalTWAB(address,uint48,uint48)":"2cba54da","getTrackedValidators()":"3c5de030","grantRole(bytes32,address)":"2f2ff15d","hasRole(bytes32,address)":"91d14854","initialize(address,uint32,uint16)":"cd2ba69c","latestCheckpoint()":"907c0f92","maxClaimsPerTx()":"5f537db1","maxDeposit(address)":"402d267d","maxMint(address)":"c63d75b6","maxRedeem(address)":"d905777e","maxWithdraw(address)":"ce96cb77","mint(uint256,address)":"94bf804d","name()":"06fdde03","nonces(address)":"7ecebe00","pendingWithdrawals()":"beca03d5","permit(address,address,uint256,uint256,uint8,bytes32,bytes32)":"d505accf","previewDeposit(uint256)":"ef8b30f7","previewMint(uint256)":"b3d7f6b9","previewRedeem(uint256)":"4cdad506","previewWithdraw(uint256)":"0a28a477","proxiableUUID()":"52d1902d","redeem(uint256,address,address)":"ba087652","renounceRole(bytes32,address)":"36568abe","requestWithdrawCollateral(address,uint256)":"6c0a28d1","revokeRole(bytes32,address)":"d547741f","rewardBalance()":"aa5c3ab4","rewardPerShare()":"446a2ec8","setMaxClaimsPerTx(uint16)":"a856fb3d","setWithdrawalPeriod(uint32)":"e9dc5e5b","supportsInterface(bytes4)":"01ffc9a7","symbol()":"95d89b41","syncCollateral(address)":"588c8d2d","totalAssets()":"01e1d114","totalCollateralDeposited()":"a9de3149","totalPendingWithdrawal()":"d41e9720","totalSupply()":"18160ddd","transfer(address,uint256)":"a9059cbb","transferFrom(address,address,uint256)":"23b872dd","upgradeToAndCall(address,bytes)":"4f1ef286","validatorCollateral(address)":"f90423ad","withdraw(uint256,address,address)":"b460af94","withdrawalPeriod()":"bca7093d"},"id":124}