{"abi":[{"type":"function","name":"fundRewards","inputs":[{"name":"","type":"uint256","internalType":"uint256"}],"outputs":[],"stateMutability":"nonpayable"}],"bytecode":{"object":"0x6080604052348015600e575f5ffd5b50608680601a5f395ff3fe6080604052348015600e575f5ffd5b50600436106026575f3560e01c806393707a1914602a575b5f5ffd5b60386035366004603a565b50565b005b5f602082840312156049575f5ffd5b503591905056fea264697066735822122061e30db46be30a6bd0434a38614d60eee57b8169ef216c6f47b1cdbca01ec58164736f6c634300081d0033","linkReferences":{}},"methodIdentifiers":{"fundRewards(uint256)":"93707a19"},"id":148}