{"abi":[{"type":"function","name":"hasWeight","inputs":[{"name":"","type":"bytes32","internalType":"bytes32"}],"outputs":[{"name":"","type":"bool","internalType":"bool"}],"stateMutability":"view"},{"type":"function","name":"mockWeights","inputs":[{"name":"","type":"bytes32","internalType":"bytes32"}],"outputs":[{"name":"addr","type":"address","internalType":"address"},{"name":"weight","type":"uint96","internalType":"uint96"},{"name":"collateralRewardShare","type":"uint128","internalType":"uint128"},{"name":"delegationRewardShare","type":"uint128","internalType":"uint128"}],"stateMutability":"view"},{"type":"function","name":"setWeight","inputs":[{"name":"epoch","type":"uint256","internalType":"uint256"},{"name":"valAddr","type":"address","internalType":"address"},{"name":"weight","type":"uint96","internalType":"uint96"}],"outputs":[],"stateMutability":"nonpayable"},{"type":"function","name":"summary","inputs":[{"name":"","type":"uint256","internalType":"uint256"}],"outputs":[{"name":"","type":"tuple","internalType":"struct IValidatorContributionFeed.Summary","components":[{"name":"totalWeight","type":"uint128","internalType":"uint128"},{"name":"numOfValidators","type":"uint128","internalType":"uint128"}]}],"stateMutability":"pure"},{"type":"function","name":"weightOf","inputs":[{"name":"epoch","type":"uint256","internalType":"uint256"},{"name":"valAddr","type":"address","internalType":"address"}],"outputs":[{"name":"","type":"tuple","internalType":"struct IValidatorContributionFeed.ValidatorWeight","components":[{"name":"addr","type":"address","internalType":"address"},{"name":"weight","type":"uint96","internalType":"uint96"},{"name":"collateralRewardShare","type":"uint128","internalType":"uint128"},{"name":"delegationRewardShare","type":"uint128","internalType":"uint128"}]},{"name":"","type":"bool","internalType":"bool"}],"stateMutability":"view"}],"bytecode":{"object":"0x6080604052348015600e575f5ffd5b506106538061001c5f395ff3fe608060405234801561000f575f5ffd5b5060043610610064575f3560e01c8063817a12d01161004d578063817a12d0146101055780638935ced5146101f05780638ec6284414610277575f5ffd5b80635c4818ea146100685780636152e6551461009f575b5f5ffd5b61008a610076366004610567565b60016020525f908152604090205460ff1681565b60405190151581526020015b60405180910390f35b6100d56100ad366004610567565b506040805180820182525f808252602091820181905282518084019093528083529082015290565b6040805182516fffffffffffffffffffffffffffffffff9081168252602093840151169281019290925201610096565b610194610113366004610567565b5f602081905290815260409020805460019091015473ffffffffffffffffffffffffffffffffffffffff8216917401000000000000000000000000000000000000000090046bffffffffffffffffffffffff16906fffffffffffffffffffffffffffffffff8082169170010000000000000000000000000000000090041684565b6040805173ffffffffffffffffffffffffffffffffffffffff90951685526bffffffffffffffffffffffff90931660208501526fffffffffffffffffffffffffffffffff91821692840192909252166060820152608001610096565b6102036101fe3660046105a6565b61028c565b60408051835173ffffffffffffffffffffffffffffffffffffffff1681526020808501516bffffffffffffffffffffffff1690820152838201516fffffffffffffffffffffffffffffffff90811692820192909252606093840151909116928101929092521515608082015260a001610096565b61028a6102853660046105d0565b610411565b005b604080516080810182525f8082526020820181905291810182905260608101919091525f5f84846040516020016102f292919091825260601b7fffffffffffffffffffffffffffffffffffffffff00000000000000000000000016602082015260340190565b604080517fffffffffffffffffffffffffffffffffffffffffffffffffffffffffffffffe081840301815291815281516020928301205f818152600190935291205490915060ff16610369575050604080516080810182525f8082526020820181905291810182905260608101829052915061040a565b5f90815260208181526040918290208251608081018452815473ffffffffffffffffffffffffffffffffffffffff811682527401000000000000000000000000000000000000000090046bffffffffffffffffffffffff16928101929092526001908101546fffffffffffffffffffffffffffffffff8082169484019490945270010000000000000000000000000000000090049092166060820152925090505b9250929050565b5f838360405160200161045392919091825260601b7fffffffffffffffffffffffffffffffffffffffff00000000000000000000000016602082015260340190565b604080517fffffffffffffffffffffffffffffffffffffffffffffffffffffffffffffffe0818403018152828252805160209182012060808401835273ffffffffffffffffffffffffffffffffffffffff96871684526bffffffffffffffffffffffff9586168483019081525f8585018181526060870182815293825281855285822096519251909816740100000000000000000000000000000000000000000291909816178455945194516fffffffffffffffffffffffffffffffff90811670010000000000000000000000000000000002951694909417600192830155928190529190922080547fffffffffffffffffffffffffffffffffffffffffffffffffffffffffffffff001690911790555050565b5f60208284031215610577575f5ffd5b5035919050565b803573ffffffffffffffffffffffffffffffffffffffff811681146105a1575f5ffd5b919050565b5f5f604083850312156105b7575f5ffd5b823591506105c76020840161057e565b90509250929050565b5f5f5f606084860312156105e2575f5ffd5b833592506105f26020850161057e565b915060408401356bffffffffffffffffffffffff81168114610612575f5ffd5b80915050925092509256fea26469706673582212200769cc805d2a1b86a0e76409ac98d7f62019fa640aa05de4221c554014aa24ce64736f6c634300081d0033","linkReferences":{}},"methodIdentifiers":{"hasWeight(bytes32)":"5c4818ea","mockWeights(bytes32)":"817a12d0","setWeight(uint256,address,uint96)":"8ec62844","summary(uint256)":"6152e655","weightOf(uint256,address)":"8935ced5"},"id":149}