{"abi":[{"type":"constructor","inputs":[{"name":"asset_","type":"address","internalType":"address"},{"name":"name_","type":"string","internalType":"string"},{"name":"symbol_","type":"string","internalType":"string"}],"stateMutability":"nonpayable"},{"type":"function","name":"DOMAIN_SEPARATOR","inputs":[],"outputs":[{"name":"result","type":"bytes32","internalType":"bytes32"}],"stateMutability":"view"},{"type":"function","name":"allowance","inputs":[{"name":"owner","type":"address","internalType":"address"},{"name":"spender","type":"address","internalType":"address"}],"outputs":[{"name":"result","type":"uint256","internalType":"uint256"}],"stateMutability":"view"},{"type":"function","name":"approve","inputs":[{"name":"spender","type":"address","internalType":"address"},{"name":"amount","type":"uint256","internalType":"uint256"}],"outputs":[{"name":"","type":"bool","internalType":"bool"}],"stateMutability":"nonpayable"},{"type":"function","name":"asset","inputs":[],"outputs":[{"name":"","type":"address","internalType":"address"}],"stateMutability":"view"},{"type":"function","name":"balanceOf","inputs":[{"name":"owner","type":"address","internalType":"address"}],"outputs":[{"name":"result","type":"uint256","internalType":"uint256"}],"stateMutability":"view"},{"type":"function","name":"convertToAssets","inputs":[{"name":"shares","type":"uint256","internalType":"uint256"}],"outputs":[{"name":"assets","type":"uint256","internalType":"uint256"}],"stateMutability":"view"},{"type":"function","name":"convertToShares","inputs":[{"name":"assets","type":"uint256","internalType":"uint256"}],"outputs":[{"name":"shares","type":"uint256","internalType":"uint256"}],"stateMutability":"view"},{"type":"function","name":"decimals","inputs":[],"outputs":[{"name":"","type":"uint8","internalType":"uint8"}],"stateMutability":"view"},{"type":"function","name":"deposit","inputs":[{"name":"assets","type":"uint256","internalType":"uint256"},{"name":"to","type":"address","internalType":"address"}],"outputs":[{"name":"shares","type":"uint256","internalType":"uint256"}],"stateMutability":"nonpayable"},{"type":"function","name":"maxDeposit","inputs":[{"name":"to","type":"address","internalType":"address"}],"outputs":[{"name":"maxAssets","type":"uint256","internalType":"uint256"}],"stateMutability":"view"},{"type":"function","name":"maxMint","inputs":[{"name":"to","type":"address","internalType":"address"}],"outputs":[{"name":"maxShares","type":"uint256","internalType":"uint256"}],"stateMutability":"view"},{"type":"function","name":"maxRedeem","inputs":[{"name":"owner","type":"address","internalType":"address"}],"outputs":[{"name":"maxShares","type":"uint256","internalType":"uint256"}],"stateMutability":"view"},{"type":"function","name":"maxWithdraw","inputs":[{"name":"owner","type":"address","internalType":"address"}],"outputs":[{"name":"maxAssets","type":"uint256","internalType":"uint256"}],"stateMutability":"view"},{"type":"function","name":"mint","inputs":[{"name":"shares","type":"uint256","internalType":"uint256"},{"name":"to","type":"address","internalType":"address"}],"outputs":[{"name":"assets","type":"uint256","internalType":"uint256"}],"stateMutability":"nonpayable"},{"type":"function","name":"name","inputs":[],"outputs":[{"name":"","type":"string","internalType":"string"}],"stateMutability":"view"},{"type":"function","name":"nonces","inputs":[{"name":"owner","type":"address","internalType":"address"}],"outputs":[{"name":"result","type":"uint256","internalType":"uint256"}],"stateMutability":"view"},{"type":"function","name":"permit","inputs":[{"name":"owner","type":"address","internalType":"address"},{"name":"spender","type":"address","internalType":"address"},{"name":"value","type":"uint256","internalType":"uint256"},{"name":"deadline","type":"uint256","internalType":"uint256"},{"name":"v","type":"uint8","internalType":"uint8"},{"name":"r","type":"bytes32","internalType":"bytes32"},{"name":"s","type":"bytes32","internalType":"bytes32"}],"outputs":[],"stateMutability":"nonpayable"},{"type":"function","name":"previewDeposit","inputs":[{"name":"assets","type":"uint256","internalType":"uint256"}],"outputs":[{"name":"shares","type":"uint256","internalType":"uint256"}],"stateMutability":"view"},{"type":"function","name":"previewMint","inputs":[{"name":"shares","type":"uint256","internalType":"uint256"}],"outputs":[{"name":"assets","type":"uint256","internalType":"uint256"}],"stateMutability":"view"},{"type":"function","name":"previewRedeem","inputs":[{"name":"shares","type":"uint256","internalType":"uint256"}],"outputs":[{"name":"assets","type":"uint256","internalType":"uint256"}],"stateMutability":"view"},{"type":"function","name":"previewWithdraw","inputs":[{"name":"assets","type":"uint256","internalType":"uint256"}],"outputs":[{"name":"shares","type":"uint256","internalType":"uint256"}],"stateMutability":"view"},{"type":"function","name":"redeem","inputs":[{"name":"shares","type":"uint256","internalType":"uint256"},{"name":"to","type":"address","internalType":"address"},{"name":"owner","type":"address","internalType":"address"}],"outputs":[{"name":"assets","type":"uint256","internalType":"uint256"}],"stateMutability":"nonpayable"},{"type":"function","name":"symbol","inputs":[],"outputs":[{"name":"","type":"string","internalType":"string"}],"stateMutability":"view"},{"type":"function","name":"totalAssets","inputs":[],"outputs":[{"name":"","type":"uint256","internalType":"uint256"}],"stateMutability":"view"},{"type":"function","name":"totalSupply","inputs":[],"outputs":[{"name":"result","type":"uint256","internalType":"uint256"}],"stateMutability":"view"},{"type":"function","name":"transfer","inputs":[{"name":"to","type":"address","internalType":"address"},{"name":"amount","type":"uint256","internalType":"uint256"}],"outputs":[{"name":"","type":"bool","internalType":"bool"}],"stateMutability":"nonpayable"},{"type":"function","name":"transferFrom","inputs":[{"name":"from","type":"address","internalType":"address"},{"name":"to","type":"address","internalType":"address"},{"name":"amount","type":"uint256","internalType":"uint256"}],"outputs":[{"name":"","type":"bool","internalType":"bool"}],"stateMutability":"nonpayable"},{"type":"function","name":"withdraw","inputs":[{"name":"assets","type":"uint256","internalType":"uint256"},{"name":"to","type":"address","internalType":"address"},{"name":"owner","type":"address","internalType":"address"}],"outputs":[{"name":"shares","type":"uint256","internalType":"uint256"}],"stateMutability":"nonpayable"},{"type":"event","name":"Approval","inputs":[{"name":"owner","type":"address","indexed":true,"internalType":"address"},{"name":"spender","type":"address","indexed":true,"internalType":"address"},{"name":"amount","type":"uint256","indexed":false,"internalType":"uint256"}],"anonymous":false},{"type":"event","name":"Deposit","inputs":[{"name":"by","type":"address","indexed":true,"internalType":"address"},{"name":"owner","type":"address","indexed":true,"internalType":"address"},{"name":"assets","type":"uint256","indexed":false,"internalType":"uint256"},{"name":"shares","type":"uint256","indexed":false,"internalType":"uint256"}],"anonymous":false},{"type":"event","name":"Transfer","inputs":[{"name":"from","type":"address","indexed":true,"internalType":"address"},{"name":"to","type":"address","indexed":true,"internalType":"address"},{"name":"amount","type":"uint256","indexed":false,"internalType":"uint256"}],"anonymous":false},{"type":"event","name":"Withdraw","inputs":[{"name":"by","type":"address","indexed":true,"internalType":"address"},{"name":"to","type":"address","indexed":true,"internalType":"address"},{"name":"owner","type":"address","indexed":true,"internalType":"address"},{"name":"assets","type":"uint256","indexed":false,"internalType":"uint256"},{"name":"shares","type":"uint256","indexed":false,"internalType":"uint256"}],"anonymous":false},{"type":"error","name":"AllowanceOverflow","inputs":[]},{"type":"error","name":"AllowanceUnderflow","inputs":[]},{"type":"error","name":"DepositMoreThanMax","inputs":[]},{"type":"error","name":"InsufficientAllowance","inputs":[]},{"type":"error","name":"InsufficientBalance","inputs":[]},{"type":"error","name":"InvalidPermit","inputs":[]},{"type":"error","name":"MintMoreThanMax","inputs":[]},{"type":"error","name":"Permit2AllowanceIsFixedAtInfinity","inputs":[]},{"type":"error","name":"PermitExpired","inputs":[]},{"type":"error","name":"RedeemMoreThanMax","inputs":[]},{"type":"error","name":"TotalSupplyOverflow","inputs":[]},{"type":"error","name":"WithdrawMoreThanMax","inputs":[]}],"bytecode":{"object":"0x60a060405234801561000f575f5ffd5b5060405161165738038061165783398101604081905261002e916100f9565b6001600160a01b0383166080525f61004683826101ff565b50600161005382826101ff565b505050506102b9565b634e487b7160e01b5f52604160045260245ffd5b5f82601f83011261007f575f5ffd5b81516001600160401b038111156100985761009861005c565b604051601f8201601f19908116603f011681016001600160401b03811182821017156100c6576100c661005c565b6040528181528382016020018510156100dd575f5ffd5b8160208501602083015e5f918101602001919091529392505050565b5f5f5f6060848603121561010b575f5ffd5b83516001600160a01b0381168114610121575f5ffd5b60208501519093506001600160401b0381111561013c575f5ffd5b61014886828701610070565b604086015190935090506001600160401b03811115610165575f5ffd5b61017186828701610070565b9150509250925092565b600181811c9082168061018f57607f821691505b6020821081036101ad57634e487b7160e01b5f52602260045260245ffd5b50919050565b601f8211156101fa57805f5260205f20601f840160051c810160208510156101d85750805b601f840160051c820191505b818110156101f7575f81556001016101e4565b50505b505050565b81516001600160401b038111156102185761021861005c565b61022c81610226845461017b565b846101b3565b6020601f82116001811461025e575f83156102475750848201515b5f19600385901b1c1916600184901b1784556101f7565b5f84815260208120601f198516915b8281101561028d578785015182556020948501946001909201910161026d565b50848210156102aa57868401515f19600387901b60f8161c191681555b50505050600190811b01905550565b6080516113716102e65f395f81816102970152818161046f01528181610cdf0152610d9b01526113715ff3fe608060405234801561000f575f5ffd5b50600436106101bb575f3560e01c80637ecebe00116100f3578063c63d75b611610093578063d505accf1161006e578063d505accf146103f1578063d905777e14610406578063dd62ed3e14610419578063ef8b30f71461042c575f5ffd5b8063c63d75b6146102c1578063c6e6f592146103cb578063ce96cb77146103de575f5ffd5b8063a9059cbb116100ce578063a9059cbb1461037f578063b3d7f6b914610392578063b460af94146103a5578063ba087652146103b8575f5ffd5b80637ecebe001461033f57806394bf804d1461036457806395d89b4114610377575f5ffd5b8063313ce5671161015e578063402d267d11610139578063402d267d146102c15780634cdad506146102f45780636e553f651461030757806370a082311461031a575f5ffd5b8063313ce5671461025b5780633644e5151461027557806338d52e0f1461027d575f5ffd5b8063095ea7b311610199578063095ea7b3146102025780630a28a4771461022557806318160ddd1461023857806323b872dd14610248575f5ffd5b806301e1d114146101bf57806306fdde03146101da57806307a2d13a146101ef575b5f5ffd5b6101c761043f565b6040519081526020015b60405180910390f35b6101e26104f2565b6040516101d19190611036565b6101c76101fd366004611089565b610581565b6102156102103660046110c8565b6105c5565b60405190151581526020016101d1565b6101c7610233366004611089565b610652565b6805345cdf77eb68f44c546101c7565b6102156102563660046110f0565b610689565b610263610758565b60405160ff90911681526020016101d1565b6101c7610764565b60405173ffffffffffffffffffffffffffffffffffffffff7f00000000000000000000000000000000000000000000000000000000000000001681526020016101d1565b6101c76102cf36600461112a565b507fffffffffffffffffffffffffffffffffffffffffffffffffffffffffffffffff90565b6101c7610302366004611089565b6107e0565b6101c7610315366004611143565b6107ea565b6101c761032836600461112a565b6387a211a2600c9081525f91909152602090205490565b6101c761034d36600461112a565b6338377508600c9081525f91909152602090205490565b6101c7610372366004611143565b610802565b6101e261081a565b61021561038d3660046110c8565b610829565b6101c76103a0366004611089565b6108a0565b6101c76103b336600461116d565b6108cd565b6101c76103c636600461116d565b610903565b6101c76103d9366004611089565b610939565b6101c76103ec36600461112a565b610966565b6104046103ff3660046111a6565b610983565b005b6101c761041436600461112a565b610b55565b6101c7610427366004611213565b610b6e565b6101c761043a366004611089565b610bee565b6040517f70a082310000000000000000000000000000000000000000000000000000000081523060048201525f907f000000000000000000000000000000000000000000000000000000000000000073ffffffffffffffffffffffffffffffffffffffff16906370a0823190602401602060405180830381865afa1580156104c9573d5f5f3e3d5ffd5b505050506040513d601f19601f820116820180604052508101906104ed919061123b565b905090565b60605f805461050090611252565b80601f016020809104026020016040519081016040528092919081815260200182805461052c90611252565b80156105775780601f1061054e57610100808354040283529160200191610577565b820191905f5260205f20905b81548152906001019060200180831161055a57829003601f168201915b5050505050905090565b5f61058e565b9392505050565b5f6105878361059b61043f565b6105a69060016112d0565b6105c06105ba6805345cdf77eb68f44c5490565b60010190565b610bf8565b5f73ffffffffffffffffffffffffffffffffffffffff83166e22d473030f116ddee9f6b43ac78ba3188219151761060357633f68539a5f526004601cfd5b82602052637f5e9f20600c52335f52816034600c2055815f52602c5160601c337f8c5be1e5ebec7d5bd14f71427d1e84f3dd0314c0f7b2291e5b200ac8c7c3b92560205fa35060015b92915050565b5f61065d565b610ca5565b5f610587836106736805345cdf77eb68f44c5490565b61067e9060016112d0565b6106586105ba61043f565b5f8360601b6e22d473030f116ddee9f6b43ac78ba333146106de5733602052637f5e9f208117600c526034600c2080548019156106db57808511156106d5576313be252b5f526004601cfd5b84810382555b50505b6387a211a28117600c526020600c208054808511156107045763f4d678b85f526004601cfd5b84810382555050835f526020600c208381540181555082602052600c5160601c8160601c7fddf252ad1be2c89b69c2b068fc378daa952ba7f163c4a11628f55a4df523b3ef602080a3505060019392505050565b5f6104ed5f6012611322565b5f8061076e6104f2565b805190602001209050604080517f8b73c3c69bb8fe3d512ecc4cf759cc79239f7b179b0ffacaa9a75d522b39400f815260208101929092527fc89efdaa54c0f20c7adf612882df0950f5a951637e0307cdcb4c672f298b8bc69082015246606082015230608082015260a09020919050565b5f61064c82610581565b5f6107f483610bee565b905061064c33838584610cda565b5f61080c836108a0565b905061064c33838386610cda565b60606001805461050090611252565b5f6387a211a2600c52335f526020600c208054808411156108515763f4d678b85f526004601cfd5b83810382555050825f526020600c208281540181555081602052600c5160601c337fddf252ad1be2c89b69c2b068fc378daa952ba7f163c4a11628f55a4df523b3ef602080a350600192915050565b5f5f610587836108ae61043f565b6108b99060016112d0565b6106586105ba6805345cdf77eb68f44c5490565b5f6108d782610966565b8411156108eb576108eb63936941fc610cd1565b6108f484610652565b90506105873384848785610d4e565b5f61090d82610b55565b84111561092157610921634656425a610cd1565b61092a846107e0565b90506105873384848488610d4e565b5f5f610587836109506805345cdf77eb68f44c5490565b61095b9060016112d0565b6105c06105ba61043f565b6387a211a2600c9081525f82815260209091205461064c90610581565b73ffffffffffffffffffffffffffffffffffffffff86166e22d473030f116ddee9f6b43ac78ba318851915176109c057633f68539a5f526004601cfd5b5f6109c96104f2565b8051906020012090507fc89efdaa54c0f20c7adf612882df0950f5a951637e0307cdcb4c672f298b8bc642861015610a0857631a15a3cc5f526004601cfd5b6040518960601b60601c99508860601b60601c985065383775081901600e52895f526020600c2080547f8b73c3c69bb8fe3d512ecc4cf759cc79239f7b179b0ffacaa9a75d522b39400f835284602084015283604084015246606084015230608084015260a08320602e527f6e71edae12b1b97f4d1f60370fef10105fa2faae0126114a169c64845d6126c983528b60208401528a60408401528960608401528060808401528860a084015260c08320604e526042602c205f528760ff16602052866040528560605260208060805f60015afa8c3d5114610af05763ddafbaef5f526004601cfd5b019055777f5e9f20000000000000000000000000000000000000000089176040526034602c20889055888a7f8c5be1e5ebec7d5bd14f71427d1e84f3dd0314c0f7b2291e5b200ac8c7c3b925602060608501a360405250505f60605250505050505050565b6387a211a2600c9081525f82815260209091205461064c565b5f7fffffffffffffffffffffffffffffffffffdd2b8cfcf0ee922116094bc538745d73ffffffffffffffffffffffffffffffffffffffff831601610bd357507fffffffffffffffffffffffffffffffffffffffffffffffffffffffffffffffff61064c565b50602052637f5e9f20600c9081525f91909152603490205490565b5f61064c82610939565b82820281838583041485151702610c9e577fffffffffffffffffffffffffffffffffffffffffffffffffffffffffffffffff8385098181108201900382848609835f038416828511610c515763ae47f7025f526004601cfd5b93849004938382119092035f839003839004600101029203041760026003830281188084028203028084028203028084028203028084028203028084028203028084029091030202610587565b0492915050565b5f610cb1848484610bf8565b9050818385091561058757600101806105875763ae47f7025f526004601cfd5b805f526004601cfd5b610d067f0000000000000000000000000000000000000000000000000000000000000000853085610e03565b610d108382610e65565b815f52806020525f1960601c8381168582167fdcbc1c05240f31ff3ad067ef1ee35ce4997762752e3a095284754544f4c709d760405fa35050505050565b8273ffffffffffffffffffffffffffffffffffffffff168573ffffffffffffffffffffffffffffffffffffffff1614610d8c57610d8c838683610ee1565b610d968382610f62565b610dc17f00000000000000000000000000000000000000000000000000000000000000008584610fe3565b815f52806020525f1960601c8381168582168783167ffbde797d201c681b91056529119e0b02407c7bb96a4a2c75c01fc9667232c8db60405fa4505050505050565b60405181606052826040528360601b602c526f23b872dd000000000000000000000000600c5260205f6064601c5f895af18060015f511416610e5757803d873b151710610e5757637939f4245f526004601cfd5b505f60605260405250505050565b6805345cdf77eb68f44c5481810181811015610e885763e5cfe9575f526004601cfd5b806805345cdf77eb68f44c5550506387a211a2600c52815f526020600c208181540181555080602052600c5160601c5f7fddf252ad1be2c89b69c2b068fc378daa952ba7f163c4a11628f55a4df523b3ef602080a35050565b7fffffffffffffffffffffffffffffffffffdd2b8cfcf0ee922116094bc538745d73ffffffffffffffffffffffffffffffffffffffff831601610f2357505050565b81602052637f5e9f20600c52825f526034600c208054801915610f5b5780831115610f55576313be252b5f526004601cfd5b82810382555b5050505050565b6387a211a2600c52815f526020600c20805480831115610f895763f4d678b85f526004601cfd5b82900390556805345cdf77eb68f44c805482900390555f81815273ffffffffffffffffffffffffffffffffffffffff83167fddf252ad1be2c89b69c2b068fc378daa952ba7f163c4a11628f55a4df523b3ef602083a35050565b81601452806034526fa9059cbb0000000000000000000000005f5260205f604460105f875af18060015f51141661102c57803d853b15171061102c576390b8ec185f526004601cfd5b505f603452505050565b602081525f82518060208401528060208501604085015e5f6040828501015260407fffffffffffffffffffffffffffffffffffffffffffffffffffffffffffffffe0601f83011684010191505092915050565b5f60208284031215611099575f5ffd5b5035919050565b803573ffffffffffffffffffffffffffffffffffffffff811681146110c3575f5ffd5b919050565b5f5f604083850312156110d9575f5ffd5b6110e2836110a0565b946020939093013593505050565b5f5f5f60608486031215611102575f5ffd5b61110b846110a0565b9250611119602085016110a0565b929592945050506040919091013590565b5f6020828403121561113a575f5ffd5b610587826110a0565b5f5f60408385031215611154575f5ffd5b82359150611164602084016110a0565b90509250929050565b5f5f5f6060848603121561117f575f5ffd5b8335925061118f602085016110a0565b915061119d604085016110a0565b90509250925092565b5f5f5f5f5f5f5f60e0888a0312156111bc575f5ffd5b6111c5886110a0565b96506111d3602089016110a0565b95506040880135945060608801359350608088013560ff811681146111f6575f5ffd5b9699959850939692959460a0840135945060c09093013592915050565b5f5f60408385031215611224575f5ffd5b61122d836110a0565b9150611164602084016110a0565b5f6020828403121561124b575f5ffd5b5051919050565b600181811c9082168061126657607f821691505b60208210810361129d577f4e487b71000000000000000000000000000000000000000000000000000000005f52602260045260245ffd5b50919050565b7f4e487b71000000000000000000000000000000000000000000000000000000005f52601160045260245ffd5b8082018082111561064c5761064c6112a3565b600184111561131a578085048111156112fe576112fe6112a3565b600184161561130c57908102905b60019390931c9280026112e3565b935093915050565b60ff818116838216019081111561064c5761064c6112a356fea2646970667358221220ce99e9684457d52cbe7a205c6ee5be6e36283a3367f616a133cfcef68a9913f764736f6c634300081d0033","linkReferences":{}},"methodIdentifiers":{"DOMAIN_SEPARATOR()":"3644e515","allowance(address,address)":"dd62ed3e","approve(address,uint256)":"095ea7b3","asset()":"38d52e0f","balanceOf(address)":"70a08231","convertToAssets(uint256)":"07a2d13a","convertToShares(uint256)":"c6e6f592","decimals()":"313ce567","deposit(uint256,address)":"6e553f65","maxDeposit(address)":"402d267d","maxMint(address)":"c63d75b6","maxRedeem(address)":"d905777e","maxWithdraw(address)":"ce96cb77","mint(uint256,address)":"94bf804d","name()":"06fdde03","nonces(address)":"7ecebe00","permit(address,address,uint256,uint256,uint8,bytes32,bytes32)":"d505accf","previewDeposit(uint256)":"ef8b30f7","previewMint(uint256)":"b3d7f6b9","previewRedeem(uint256)":"4cdad506","previewWithdraw(uint256)":"0a28a477","redeem(uint256,address,address)":"ba087652","symbol()":"95d89b41","totalAssets()":"01e1d114","totalSupply()":"18160ddd","transfer(address,uint256)":"a9059cbb","transferFrom(address,address,uint256)":"23b872dd","withdraw(uint256,address,address)":"b460af94"},"id":134}