{"abi":[{"type":"function","name":"expectedPublicData","inputs":[],"outputs":[{"name":"","type":"bytes","internalType":"bytes"}],"stateMutability":"view"},{"type":"function","name":"expectedVKey","inputs":[],"outputs":[{"name":"","type":"bytes32","internalType":"bytes32"}],"stateMutability":"view"},{"type":"function","name":"setExpected","inputs":[{"name":"_vKey","type":"bytes32","internalType":"bytes32"},{"name":"_publicData","type":"bytes","internalType":"bytes"}],"outputs":[],"stateMutability":"nonpayable"},{"type":"function","name":"setShouldRevert","inputs":[{"name":"_shouldRevert","type":"bool","internalType":"bool"}],"outputs":[],"stateMutability":"nonpayable"},{"type":"function","name":"shouldRevert","inputs":[],"outputs":[{"name":"","type":"bool","internalType":"bool"}],"stateMutability":"view"},{"type":"function","name":"verifyProof","inputs":[{"name":"programVKey","type":"bytes32","internalType":"bytes32"},{"name":"publicValues","type":"bytes","internalType":"bytes"},{"name":"","type":"bytes","internalType":"bytes"}],"outputs":[],"stateMutability":"view"}],"bytecode":{"object":"0x6080604052348015600e575f5ffd5b5061081f8061001c5f395ff3fe608060405234801561000f575f5ffd5b506004361061006f575f3560e01c8063994326161161004d57806399432616146100d9578063d3072d82146100f5578063d9565b7c14610111575f5ffd5b806341493c60146100735780635bb4185b146100885780636813d7871461009b575b5f5ffd5b610086610081366004610386565b610126565b005b61008661009636600461042c565b61029f565b6100866100a9366004610526565b5f80547fffffffffffffffffffffffffffffffffffffffffffffffffffffffffffffff0016911515919091179055565b6100e260015481565b6040519081526020015b60405180910390f35b5f546101019060ff1681565b60405190151581526020016100ec565b6101196102b5565b6040516100ec919061054c565b5f5460ff1615610197576040517f08c379a000000000000000000000000000000000000000000000000000000000815260206004820152601960248201527f50726f6f6620766572696669636174696f6e206661696c65640000000000000060448201526064015b60405180910390fd5b6001548514610202576040517f08c379a000000000000000000000000000000000000000000000000000000000815260206004820152601460248201527f496e76616c69642070726f6772616d20764b6579000000000000000000000000604482015260640161018e565b600260405161021191906105f0565b6040518091039020848460405161022992919061067f565b604051809103902014610298576040517f08c379a000000000000000000000000000000000000000000000000000000000815260206004820152601560248201527f496e76616c6964207075626c69632076616c7565730000000000000000000000604482015260640161018e565b5050505050565b600182905560026102b082826106d2565b505050565b600280546102c29061059f565b80601f01602080910402602001604051908101604052809291908181526020018280546102ee9061059f565b80156103395780601f1061031057610100808354040283529160200191610339565b820191905f5260205f20905b81548152906001019060200180831161031c57829003601f168201915b505050505081565b5f5f83601f840112610351575f5ffd5b50813567ffffffffffffffff811115610368575f5ffd5b60208301915083602082850101111561037f575f5ffd5b9250929050565b5f5f5f5f5f6060868803121561039a575f5ffd5b85359450602086013567ffffffffffffffff8111156103b7575f5ffd5b6103c388828901610341565b909550935050604086013567ffffffffffffffff8111156103e2575f5ffd5b6103ee88828901610341565b969995985093965092949392505050565b7f4e487b71000000000000000000000000000000000000000000000000000000005f52604160045260245ffd5b5f5f6040838503121561043d575f5ffd5b82359150602083013567ffffffffffffffff81111561045a575f5ffd5b8301601f8101851361046a575f5ffd5b803567ffffffffffffffff811115610484576104846103ff565b6040517fffffffffffffffffffffffffffffffffffffffffffffffffffffffffffffffe0603f7fffffffffffffffffffffffffffffffffffffffffffffffffffffffffffffffe0601f8501160116810181811067ffffffffffffffff821117156104f0576104f06103ff565b604052818152828201602001871015610507575f5ffd5b816020840160208301375f602083830101528093505050509250929050565b5f60208284031215610536575f5ffd5b81358015158114610545575f5ffd5b9392505050565b602081525f82518060208401528060208501604085015e5f6040828501015260407fffffffffffffffffffffffffffffffffffffffffffffffffffffffffffffffe0601f83011684010191505092915050565b600181811c908216806105b357607f821691505b6020821081036105ea577f4e487b71000000000000000000000000000000000000000000000000000000005f52602260045260245ffd5b50919050565b5f5f83546105fd8161059f565b600182168015610614576001811461064757610674565b7fffffffffffffffffffffffffffffffffffffffffffffffffffffffffffffff0083168652811515820286019350610674565b865f5260205f205f5b8381101561066c57815488820152600190910190602001610650565b505081860193505b509195945050505050565b818382375f9101908152919050565b601f8211156102b057805f5260205f20601f840160051c810160208510156106b35750805b601f840160051c820191505b81811015610298575f81556001016106bf565b815167ffffffffffffffff8111156106ec576106ec6103ff565b610700816106fa845461059f565b8461068e565b6020601f821160018114610751575f831561071b5750848201515b7fffffffffffffffffffffffffffffffffffffffffffffffffffffffffffffffff600385901b1c1916600184901b178455610298565b5f848152602081207fffffffffffffffffffffffffffffffffffffffffffffffffffffffffffffffe08516915b8281101561079e578785015182556020948501946001909201910161077e565b50848210156107da57868401517fffffffffffffffffffffffffffffffffffffffffffffffffffffffffffffffff600387901b60f8161c191681555b50505050600190811b0190555056fea264697066735822122030db7f768160cdb6d79bd432850e3b3ba11542b35744012f5983977a0fb7a06164736f6c634300081d0033","linkReferences":{}},"methodIdentifiers":{"expectedPublicData()":"d9565b7c","expectedVKey()":"99432616","setExpected(bytes32,bytes)":"5bb4185b","setShouldRevert(bool)":"6813d787","shouldRevert()":"d3072d82","verifyProof(bytes32,bytes,bytes)":"41493c60"},"id":137}