{"abi":[{"type":"constructor","inputs":[],"stateMutability":"nonpayable"},{"type":"function","name":"DOMAIN_SEPARATOR","inputs":[],"outputs":[{"name":"result","type":"bytes32","internalType":"bytes32"}],"stateMutability":"view"},{"type":"function","name":"allowance","inputs":[{"name":"owner","type":"address","internalType":"address"},{"name":"spender","type":"address","internalType":"address"}],"outputs":[{"name":"result","type":"uint256","internalType":"uint256"}],"stateMutability":"view"},{"type":"function","name":"approve","inputs":[{"name":"spender","type":"address","internalType":"address"},{"name":"amount","type":"uint256","internalType":"uint256"}],"outputs":[{"name":"","type":"bool","internalType":"bool"}],"stateMutability":"nonpayable"},{"type":"function","name":"balanceOf","inputs":[{"name":"owner","type":"address","internalType":"address"}],"outputs":[{"name":"result","type":"uint256","internalType":"uint256"}],"stateMutability":"view"},{"type":"function","name":"burn","inputs":[{"name":"from","type":"address","internalType":"address"},{"name":"amount","type":"uint256","internalType":"uint256"}],"outputs":[],"stateMutability":"nonpayable"},{"type":"function","name":"claimWithdraw","inputs":[{"name":"","type":"uint256[]","internalType":"uint256[]"}],"outputs":[{"name":"","type":"uint256","internalType":"uint256"}],"stateMutability":"pure"},{"type":"function","name":"compound","inputs":[],"outputs":[{"name":"","type":"uint256","internalType":"uint256"}],"stateMutability":"pure"},{"type":"function","name":"decimals","inputs":[],"outputs":[{"name":"","type":"uint8","internalType":"uint8"}],"stateMutability":"view"},{"type":"function","name":"maxClaimsPerTx","inputs":[],"outputs":[{"name":"","type":"uint16","internalType":"uint16"}],"stateMutability":"pure"},{"type":"function","name":"mint","inputs":[{"name":"to","type":"address","internalType":"address"},{"name":"amount","type":"uint256","internalType":"uint256"}],"outputs":[],"stateMutability":"nonpayable"},{"type":"function","name":"name","inputs":[],"outputs":[{"name":"","type":"string","internalType":"string"}],"stateMutability":"view"},{"type":"function","name":"nonces","inputs":[{"name":"owner","type":"address","internalType":"address"}],"outputs":[{"name":"result","type":"uint256","internalType":"uint256"}],"stateMutability":"view"},{"type":"function","name":"operatorMint","inputs":[{"name":"","type":"address[]","internalType":"address[]"},{"name":"","type":"address","internalType":"address"}],"outputs":[{"name":"","type":"uint256","internalType":"uint256"}],"stateMutability":"pure"},{"type":"function","name":"permit","inputs":[{"name":"owner","type":"address","internalType":"address"},{"name":"spender","type":"address","internalType":"address"},{"name":"value","type":"uint256","internalType":"uint256"},{"name":"deadline","type":"uint256","internalType":"uint256"},{"name":"v","type":"uint8","internalType":"uint8"},{"name":"r","type":"bytes32","internalType":"bytes32"},{"name":"s","type":"bytes32","internalType":"bytes32"}],"outputs":[],"stateMutability":"nonpayable"},{"type":"function","name":"process","inputs":[],"outputs":[{"name":"","type":"uint256","internalType":"uint256"}],"stateMutability":"pure"},{"type":"function","name":"setMaxClaimsPerTx","inputs":[{"name":"","type":"uint16","internalType":"uint16"}],"outputs":[],"stateMutability":"pure"},{"type":"function","name":"setWithdrawalPeriod","inputs":[{"name":"","type":"uint32","internalType":"uint32"}],"outputs":[],"stateMutability":"pure"},{"type":"function","name":"symbol","inputs":[],"outputs":[{"name":"","type":"string","internalType":"string"}],"stateMutability":"view"},{"type":"function","name":"totalPendingWithdrawal","inputs":[],"outputs":[{"name":"","type":"uint256","internalType":"uint256"}],"stateMutability":"pure"},{"type":"function","name":"totalSupply","inputs":[],"outputs":[{"name":"result","type":"uint256","internalType":"uint256"}],"stateMutability":"view"},{"type":"function","name":"transfer","inputs":[{"name":"to","type":"address","internalType":"address"},{"name":"amount","type":"uint256","internalType":"uint256"}],"outputs":[{"name":"","type":"bool","internalType":"bool"}],"stateMutability":"nonpayable"},{"type":"function","name":"transferFrom","inputs":[{"name":"from","type":"address","internalType":"address"},{"name":"to","type":"address","internalType":"address"},{"name":"amount","type":"uint256","internalType":"uint256"}],"outputs":[{"name":"","type":"bool","internalType":"bool"}],"stateMutability":"nonpayable"},{"type":"function","name":"userMint","inputs":[{"name":"","type":"address[]","internalType":"address[]"},{"name":"","type":"address","internalType":"address"}],"outputs":[{"name":"","type":"uint256","internalType":"uint256"}],"stateMutability":"pure"},{"type":"function","name":"withdrawalPeriod","inputs":[],"outputs":[{"name":"","type":"uint32","internalType":"uint32"}],"stateMutability":"pure"},{"type":"event","name":"Approval","inputs":[{"name":"owner","type":"address","indexed":true,"internalType":"address"},{"name":"spender","type":"address","indexed":true,"internalType":"address"},{"name":"amount","type":"uint256","indexed":false,"internalType":"uint256"}],"anonymous":false},{"type":"event","name":"GovMitoWithdrawalClaimed","inputs":[{"name":"amount","type":"uint256","indexed":false,"internalType":"uint256"}],"anonymous":false},{"type":"event","name":"MaxClaimsPerTxSet","inputs":[{"name":"maxClaimsPerTx","type":"uint16","indexed":false,"internalType":"uint16"}],"anonymous":false},{"type":"event","name":"OperatorRewardsClaimed","inputs":[{"name":"validator","type":"address","indexed":true,"internalType":"address"},{"name":"rewardManager","type":"address","indexed":true,"internalType":"address"},{"name":"recipient","type":"address","indexed":true,"internalType":"address"},{"name":"govMitoAmount","type":"uint256","indexed":false,"internalType":"uint256"},{"name":"gmMitoAmount","type":"uint256","indexed":false,"internalType":"uint256"}],"anonymous":false},{"type":"event","name":"RewardsCompounded","inputs":[{"name":"validator","type":"address","indexed":true,"internalType":"address"},{"name":"govMitoAmount","type":"uint256","indexed":false,"internalType":"uint256"}],"anonymous":false},{"type":"event","name":"RewardsStaked","inputs":[{"name":"validator","type":"address","indexed":true,"internalType":"address"},{"name":"govMitoAmount","type":"uint256","indexed":false,"internalType":"uint256"}],"anonymous":false},{"type":"event","name":"Transfer","inputs":[{"name":"from","type":"address","indexed":true,"internalType":"address"},{"name":"to","type":"address","indexed":true,"internalType":"address"},{"name":"amount","type":"uint256","indexed":false,"internalType":"uint256"}],"anonymous":false},{"type":"event","name":"UnstakeClaimed","inputs":[{"name":"vault","type":"address","indexed":true,"internalType":"address"},{"name":"amount","type":"uint256","indexed":false,"internalType":"uint256"}],"anonymous":false},{"type":"event","name":"UnstakeProcessed","inputs":[{"name":"amount","type":"uint256","indexed":false,"internalType":"uint256"}],"anonymous":false},{"type":"event","name":"UnstakeRequested","inputs":[{"name":"validator","type":"address","indexed":true,"internalType":"address"},{"name":"amount","type":"uint256","indexed":false,"internalType":"uint256"}],"anonymous":false},{"type":"event","name":"UserRewardsClaimed","inputs":[{"name":"validator","type":"address","indexed":true,"internalType":"address"},{"name":"owner","type":"address","indexed":true,"internalType":"address"},{"name":"recipient","type":"address","indexed":true,"internalType":"address"},{"name":"govMitoAmount","type":"uint256","indexed":false,"internalType":"uint256"},{"name":"gmMitoAmount","type":"uint256","indexed":false,"internalType":"uint256"}],"anonymous":false},{"type":"event","name":"WithdrawalClaimed","inputs":[{"name":"user","type":"address","indexed":true,"internalType":"address"},{"name":"totalClaimed","type":"uint256","indexed":false,"internalType":"uint256"},{"name":"totalClaimedTokens","type":"uint256","indexed":false,"internalType":"uint256"},{"name":"tokenIds","type":"uint256[]","indexed":false,"internalType":"uint256[]"}],"anonymous":false},{"type":"event","name":"WithdrawalPeriodSet","inputs":[{"name":"withdrawalPeriod","type":"uint32","indexed":false,"internalType":"uint32"}],"anonymous":false},{"type":"event","name":"WithdrawalRequested","inputs":[{"name":"user","type":"address","indexed":true,"internalType":"address"},{"name":"assets","type":"uint256","indexed":false,"internalType":"uint256"},{"name":"shares","type":"uint256","indexed":false,"internalType":"uint256"},{"name":"tokenId","type":"uint256","indexed":false,"internalType":"uint256"}],"anonymous":false},{"type":"error","name":"AllowanceOverflow","inputs":[]},{"type":"error","name":"AllowanceUnderflow","inputs":[]},{"type":"error","name":"AmountMismatch","inputs":[]},{"type":"error","name":"ArrayOutOfBounds","inputs":[]},{"type":"error","name":"DepositNotSupported","inputs":[]},{"type":"error","name":"InsufficientAllowance","inputs":[]},{"type":"error","name":"InsufficientBalance","inputs":[]},{"type":"error","name":"InsufficientGovMitoBalance","inputs":[]},{"type":"error","name":"InvalidAmount","inputs":[]},{"type":"error","name":"InvalidPermit","inputs":[]},{"type":"error","name":"MinStakingAmountNotMet","inputs":[]},{"type":"error","name":"MinUnstakingAmountNotMet","inputs":[]},{"type":"error","name":"NoClaimableWithdrawals","inputs":[]},{"type":"error","name":"NoValidators","inputs":[]},{"type":"error","name":"NotApproved","inputs":[]},{"type":"error","name":"PeriodMustBeLongerThanGovMito","inputs":[]},{"type":"error","name":"Permit2AllowanceIsFixedAtInfinity","inputs":[]},{"type":"error","name":"PermitExpired","inputs":[]},{"type":"error","name":"TotalSupplyOverflow","inputs":[]},{"type":"error","name":"Unauthorized","inputs":[]},{"type":"error","name":"ZeroAddress","inputs":[]},{"type":"error","name":"ZeroAmount","inputs":[]}],"bytecode":{"object":"0x608060405234801561000f575f5ffd5b506040518060400160405280601181526020017026b7b1b5902932bbb0b932102a37b5b2b760791b8152506040518060400160405280600381526020016213549560ea1b8152506012825f90816100669190610128565b5060016100738382610128565b506002805460ff191660ff92909216919091179055506101e29050565b634e487b7160e01b5f52604160045260245ffd5b600181811c908216806100b857607f821691505b6020821081036100d657634e487b7160e01b5f52602260045260245ffd5b50919050565b601f82111561012357805f5260205f20601f840160051c810160208510156101015750805b601f840160051c820191505b81811015610120575f815560010161010d565b50505b505050565b81516001600160401b0381111561014157610141610090565b6101558161014f84546100a4565b846100dc565b6020601f821160018114610187575f83156101705750848201515b5f19600385901b1c1916600184901b178455610120565b5f84815260208120601f198516915b828110156101b65787850151825560209485019460019092019101610196565b50848210156101d357868401515f19600387901b60f8161c191681555b50505050600190811b01905550565b610d9a806101ef5f395ff3fe608060405234801561000f575f5ffd5b506004361061018f575f3560e01c806395d89b41116100dd578063d41e972011610088578063e9dc5e5b11610063578063e9dc5e5b14610322578063eb9259ef14610330578063f69e2046146102ee575f5ffd5b8063d41e9720146102f6578063d505accf146102fc578063dd62ed3e1461030f575f5ffd5b8063a9059cbb116100b8578063a9059cbb146102cd578063bca7093d146102e0578063c33fb877146102ee575f5ffd5b806395d89b411461029f5780639dc29fac146102a7578063a856fb3d146102ba575f5ffd5b80633f2a33f91161013d57806370a082311161011857806370a08231146102555780637ecebe001461027a5780638b3dd2691461021e575f5ffd5b80633f2a33f91461021e57806340c10f19146102315780635f537db114610246575f5ffd5b806323b872dd1161016d57806323b872dd146101ee578063313ce567146102015780633644e51514610216575f5ffd5b806306fdde0314610193578063095ea7b3146101b157806318160ddd146101d4575b5f5ffd5b61019b61033e565b6040516101a89190610a5d565b60405180910390f35b6101c46101bf366004610ad8565b6103cd565b60405190151581526020016101a8565b6805345cdf77eb68f44c545b6040519081526020016101a8565b6101c46101fc366004610b00565b61045a565b60025460405160ff90911681526020016101a8565b6101e0610529565b6101e061022c366004610b82565b6105a5565b61024461023f366004610ad8565b61060e565b005b604051603281526020016101a8565b6101e0610263366004610bd2565b6387a211a2600c9081525f91909152602090205490565b6101e0610288366004610bd2565b6338377508600c9081525f91909152602090205490565b61019b61061c565b6102446102b5366004610ad8565b61062b565b6102446102c8366004610bf2565b610635565b6101c46102db366004610ad8565b610697565b6040515f81526020016101a8565b6101e06105a5565b5f6101e0565b61024461030a366004610c13565b61070e565b6101e061031d366004610c80565b6108e0565b6102446102c8366004610cb1565b6101e061022c366004610cd4565b60605f805461034c90610d13565b80601f016020809104026020016040519081016040528092919081815260200182805461037890610d13565b80156103c35780601f1061039a576101008083540402835291602001916103c3565b820191905f5260205f20905b8154815290600101906020018083116103a657829003601f168201915b5050505050905090565b5f73ffffffffffffffffffffffffffffffffffffffff83166e22d473030f116ddee9f6b43ac78ba3188219151761040b57633f68539a5f526004601cfd5b82602052637f5e9f20600c52335f52816034600c2055815f52602c5160601c337f8c5be1e5ebec7d5bd14f71427d1e84f3dd0314c0f7b2291e5b200ac8c7c3b92560205fa35060015b92915050565b5f8360601b6e22d473030f116ddee9f6b43ac78ba333146104af5733602052637f5e9f208117600c526034600c2080548019156104ac57808511156104a6576313be252b5f526004601cfd5b84810382555b50505b6387a211a28117600c526020600c208054808511156104d55763f4d678b85f526004601cfd5b84810382555050835f526020600c208381540181555082602052600c5160601c8160601c7fddf252ad1be2c89b69c2b068fc378daa952ba7f163c4a11628f55a4df523b3ef602080a3505060019392505050565b5f8061053361033e565b805190602001209050604080517f8b73c3c69bb8fe3d512ecc4cf759cc79239f7b179b0ffacaa9a75d522b39400f815260208101929092527fc89efdaa54c0f20c7adf612882df0950f5a951637e0307cdcb4c672f298b8bc69082015246606082015230608082015260a09020919050565b6040517f08c379a000000000000000000000000000000000000000000000000000000000815260206004820152600f60248201527f4e6f7420696d706c656d656e746564000000000000000000000000000000000060448201525f906064015b60405180910390fd5b6106188282610960565b5050565b60606001805461034c90610d13565b61061882826109dc565b6040517f08c379a000000000000000000000000000000000000000000000000000000000815260206004820152600f60248201527f4e6f7420696d706c656d656e74656400000000000000000000000000000000006044820152606401610605565b5f6387a211a2600c52335f526020600c208054808411156106bf5763f4d678b85f526004601cfd5b83810382555050825f526020600c208281540181555081602052600c5160601c337fddf252ad1be2c89b69c2b068fc378daa952ba7f163c4a11628f55a4df523b3ef602080a350600192915050565b73ffffffffffffffffffffffffffffffffffffffff86166e22d473030f116ddee9f6b43ac78ba3188519151761074b57633f68539a5f526004601cfd5b5f61075461033e565b8051906020012090507fc89efdaa54c0f20c7adf612882df0950f5a951637e0307cdcb4c672f298b8bc64286101561079357631a15a3cc5f526004601cfd5b6040518960601b60601c99508860601b60601c985065383775081901600e52895f526020600c2080547f8b73c3c69bb8fe3d512ecc4cf759cc79239f7b179b0ffacaa9a75d522b39400f835284602084015283604084015246606084015230608084015260a08320602e527f6e71edae12b1b97f4d1f60370fef10105fa2faae0126114a169c64845d6126c983528b60208401528a60408401528960608401528060808401528860a084015260c08320604e526042602c205f528760ff16602052866040528560605260208060805f60015afa8c3d511461087b5763ddafbaef5f526004601cfd5b019055777f5e9f20000000000000000000000000000000000000000089176040526034602c20889055888a7f8c5be1e5ebec7d5bd14f71427d1e84f3dd0314c0f7b2291e5b200ac8c7c3b925602060608501a360405250505f60605250505050505050565b5f7fffffffffffffffffffffffffffffffffffdd2b8cfcf0ee922116094bc538745d73ffffffffffffffffffffffffffffffffffffffff83160161094557507fffffffffffffffffffffffffffffffffffffffffffffffffffffffffffffffff610454565b50602052637f5e9f20600c9081525f91909152603490205490565b6805345cdf77eb68f44c54818101818110156109835763e5cfe9575f526004601cfd5b806805345cdf77eb68f44c5550506387a211a2600c52815f526020600c208181540181555080602052600c5160601c5f7fddf252ad1be2c89b69c2b068fc378daa952ba7f163c4a11628f55a4df523b3ef602080a35050565b6387a211a2600c52815f526020600c20805480831115610a035763f4d678b85f526004601cfd5b82900390556805345cdf77eb68f44c805482900390555f81815273ffffffffffffffffffffffffffffffffffffffff83167fddf252ad1be2c89b69c2b068fc378daa952ba7f163c4a11628f55a4df523b3ef602083a35050565b602081525f82518060208401528060208501604085015e5f6040828501015260407fffffffffffffffffffffffffffffffffffffffffffffffffffffffffffffffe0601f83011684010191505092915050565b803573ffffffffffffffffffffffffffffffffffffffff81168114610ad3575f5ffd5b919050565b5f5f60408385031215610ae9575f5ffd5b610af283610ab0565b946020939093013593505050565b5f5f5f60608486031215610b12575f5ffd5b610b1b84610ab0565b9250610b2960208501610ab0565b929592945050506040919091013590565b5f5f83601f840112610b4a575f5ffd5b50813567ffffffffffffffff811115610b61575f5ffd5b6020830191508360208260051b8501011115610b7b575f5ffd5b9250929050565b5f5f5f60408486031215610b94575f5ffd5b833567ffffffffffffffff811115610baa575f5ffd5b610bb686828701610b3a565b9094509250610bc9905060208501610ab0565b90509250925092565b5f60208284031215610be2575f5ffd5b610beb82610ab0565b9392505050565b5f60208284031215610c02575f5ffd5b813561ffff81168114610beb575f5ffd5b5f5f5f5f5f5f5f60e0888a031215610c29575f5ffd5b610c3288610ab0565b9650610c4060208901610ab0565b95506040880135945060608801359350608088013560ff81168114610c63575f5ffd5b9699959850939692959460a0840135945060c09093013592915050565b5f5f60408385031215610c91575f5ffd5b610c9a83610ab0565b9150610ca860208401610ab0565b90509250929050565b5f60208284031215610cc1575f5ffd5b813563ffffffff81168114610beb575f5ffd5b5f5f60208385031215610ce5575f5ffd5b823567ffffffffffffffff811115610cfb575f5ffd5b610d0785828601610b3a565b90969095509350505050565b600181811c90821680610d2757607f821691505b602082108103610d5e577f4e487b71000000000000000000000000000000000000000000000000000000005f52602260045260245ffd5b5091905056fea264697066735822122055fdf4d4c79b8e131665d736978913d2f09b62089fad39ae8d3f7dd6fc16d11f64736f6c634300081d0033","linkReferences":{}},"methodIdentifiers":{"DOMAIN_SEPARATOR()":"3644e515","allowance(address,address)":"dd62ed3e","approve(address,uint256)":"095ea7b3","balanceOf(address)":"70a08231","burn(address,uint256)":"9dc29fac","claimWithdraw(uint256[])":"eb9259ef","compound()":"f69e2046","decimals()":"313ce567","maxClaimsPerTx()":"5f537db1","mint(address,uint256)":"40c10f19","name()":"06fdde03","nonces(address)":"7ecebe00","operatorMint(address[],address)":"3f2a33f9","permit(address,address,uint256,uint256,uint8,bytes32,bytes32)":"d505accf","process()":"c33fb877","setMaxClaimsPerTx(uint16)":"a856fb3d","setWithdrawalPeriod(uint32)":"e9dc5e5b","symbol()":"95d89b41","totalPendingWithdrawal()":"d41e9720","totalSupply()":"18160ddd","transfer(address,uint256)":"a9059cbb","transferFrom(address,address,uint256)":"23b872dd","userMint(address[],address)":"8b3dd269","withdrawalPeriod()":"bca7093d"},"id":136}