{"abi":[{"type":"function","name":"BASE_TIME","inputs":[],"outputs":[{"name":"","type":"uint48","internalType":"uint48"}],"stateMutability":"view"},{"type":"function","name":"epoch","inputs":[],"outputs":[{"name":"","type":"uint256","internalType":"uint256"}],"stateMutability":"pure"},{"type":"function","name":"timeAt","inputs":[{"name":"_epoch","type":"uint256","internalType":"uint256"}],"outputs":[{"name":"","type":"uint48","internalType":"uint48"}],"stateMutability":"pure"}],"bytecode":{"object":"0x6080604052348015600e575f5ffd5b5061016b8061001c5f395ff3fe608060405234801561000f575f5ffd5b506004361061003f575f3560e01c80636f5e290f14610043578063900cf0cf14610072578063a6a2eb0f14610081575b5f5ffd5b6100566100513660046100bc565b61008c565b60405165ffffffffffff90911681526020015b60405180910390f35b60405160018152602001610069565b610056633b9aca0081565b5f815f0361009b57505f919050565b6100a88262015180610100565b6100b690633b9aca00610117565b92915050565b5f602082840312156100cc575f5ffd5b5035919050565b7f4e487b71000000000000000000000000000000000000000000000000000000005f52601160045260245ffd5b80820281158282048414176100b6576100b66100d3565b65ffffffffffff81811683821601908111156100b6576100b66100d356fea26469706673582212205152d09b0330acf6e8c58ef583ec7b6b556929e9a0b84f90d12d5078634bf31364736f6c634300081d0033","linkReferences":{}},"methodIdentifiers":{"BASE_TIME()":"a6a2eb0f","epoch()":"900cf0cf","timeAt(uint256)":"6f5e290f"},"id":150}