{"abi":[{"type":"function","name":"balanceOf","inputs":[{"name":"account","type":"address","internalType":"address"}],"outputs":[{"name":"","type":"uint256","internalType":"uint256"}],"stateMutability":"view"},{"type":"function","name":"balances","inputs":[{"name":"","type":"address","internalType":"address"}],"outputs":[{"name":"","type":"uint256","internalType":"uint256"}],"stateMutability":"view"},{"type":"function","name":"claimOperatorAndConvert","inputs":[{"name":"validator","type":"address","internalType":"address"},{"name":"receiver","type":"address","internalType":"address"}],"outputs":[{"name":"","type":"uint256","internalType":"uint256"}],"stateMutability":"nonpayable"},{"type":"function","name":"operatorMint","inputs":[{"name":"validators","type":"address[]","internalType":"address[]"},{"name":"receiver","type":"address","internalType":"address"}],"outputs":[{"name":"totalAmount","type":"uint256","internalType":"uint256"}],"stateMutability":"nonpayable"},{"type":"function","name":"rewardDistributor","inputs":[],"outputs":[{"name":"","type":"address","internalType":"address"}],"stateMutability":"view"},{"type":"function","name":"setRewardDistributor","inputs":[{"name":"_distributor","type":"address","internalType":"address"}],"outputs":[],"stateMutability":"nonpayable"},{"type":"function","name":"setValidatorRewards","inputs":[{"name":"validator","type":"address","internalType":"address"},{"name":"amount","type":"uint256","internalType":"uint256"}],"outputs":[],"stateMutability":"nonpayable"},{"type":"function","name":"transfer","inputs":[{"name":"to","type":"address","internalType":"address"},{"name":"amount","type":"uint256","internalType":"uint256"}],"outputs":[{"name":"","type":"bool","internalType":"bool"}],"stateMutability":"nonpayable"},{"type":"function","name":"transferFrom","inputs":[{"name":"from","type":"address","internalType":"address"},{"name":"to","type":"address","internalType":"address"},{"name":"amount","type":"uint256","internalType":"uint256"}],"outputs":[{"name":"","type":"bool","internalType":"bool"}],"stateMutability":"nonpayable"},{"type":"function","name":"validatorRewards","inputs":[{"name":"","type":"address","internalType":"address"}],"outputs":[{"name":"","type":"uint256","internalType":"uint256"}],"stateMutability":"view"}],"bytecode":{"object":"0x6080604052348015600e575f5ffd5b5061079d8061001c5f395ff3fe608060405234801561000f575f5ffd5b50600436106100b9575f3560e01c806370a0823111610072578063a9059cbb11610058578063a9059cbb146101fa578063acc2166a1461020d578063b1845c5614610252575f5ffd5b806370a0823114610170578063a1809b95146101a5575f5ffd5b80633f2a33f9116100a25780633f2a33f9146101125780634e6b7860146101255780636fa57f301461015d575f5ffd5b806323b872dd146100bd57806327e235e3146100e5575b5f5ffd5b6100d06100cb36600461051c565b610271565b60405190151581526020015b60405180910390f35b6101046100f3366004610556565b5f6020819052908152604090205481565b6040519081526020016100dc565b61010461012036600461059c565b6102ef565b61015b610133366004610697565b73ffffffffffffffffffffffffffffffffffffffff9091165f90815260016020526040902055565b005b61010461016b3660046106bf565b6103fc565b61010461017e366004610556565b73ffffffffffffffffffffffffffffffffffffffff165f9081526020819052604090205490565b61015b6101b3366004610556565b600280547fffffffffffffffffffffffff00000000000000000000000000000000000000001673ffffffffffffffffffffffffffffffffffffffff92909216919091179055565b6100d0610208366004610697565b61048d565b60025461022d9073ffffffffffffffffffffffffffffffffffffffff1681565b60405173ffffffffffffffffffffffffffffffffffffffff90911681526020016100dc565b610104610260366004610556565b60016020525f908152604090205481565b73ffffffffffffffffffffffffffffffffffffffff83165f908152602081905260408120805483919083906102a7908490610714565b909155505073ffffffffffffffffffffffffffffffffffffffff83165f90815260208190526040812080548492906102e0908490610727565b90915550600195945050505050565b5f805b83518110156103f4575f60015f8684815181106103115761031161073a565b602002602001015173ffffffffffffffffffffffffffffffffffffffff1673ffffffffffffffffffffffffffffffffffffffff1681526020019081526020015f205490505f8111156103eb5773ffffffffffffffffffffffffffffffffffffffff84165f9081526020819052604081208054839290610391908490610727565b925050819055505f60015f8785815181106103ae576103ae61073a565b60209081029190910181015173ffffffffffffffffffffffffffffffffffffffff1682528101919091526040015f20556103e88184610727565b92505b506001016102f2565b505b92915050565b73ffffffffffffffffffffffffffffffffffffffff82165f9081526001602052604081205480156104865773ffffffffffffffffffffffffffffffffffffffff83165f908152602081905260408120805483929061045b908490610727565b909155505073ffffffffffffffffffffffffffffffffffffffff84165f908152600160205260408120555b9392505050565b335f908152602081905260408120805483919083906104ad908490610714565b909155505073ffffffffffffffffffffffffffffffffffffffff83165f90815260208190526040812080548492906104e6908490610727565b909155506001949350505050565b803573ffffffffffffffffffffffffffffffffffffffff81168114610517575f5ffd5b919050565b5f5f5f6060848603121561052e575f5ffd5b610537846104f4565b9250610545602085016104f4565b929592945050506040919091013590565b5f60208284031215610566575f5ffd5b610486826104f4565b7f4e487b71000000000000000000000000000000000000000000000000000000005f52604160045260245ffd5b5f5f604083850312156105ad575f5ffd5b823567ffffffffffffffff8111156105c3575f5ffd5b8301601f810185136105d3575f5ffd5b803567ffffffffffffffff8111156105ed576105ed61056f565b8060051b6040517fffffffffffffffffffffffffffffffffffffffffffffffffffffffffffffffe0603f830116810181811067ffffffffffffffff821117156106385761063861056f565b604052918252602081840181019290810188841115610655575f5ffd5b6020850194505b8385101561067b5761066d856104f4565b81526020948501940161065c565b50945061068e92505050602084016104f4565b90509250929050565b5f5f604083850312156106a8575f5ffd5b6106b1836104f4565b946020939093013593505050565b5f5f604083850312156106d0575f5ffd5b6106d9836104f4565b915061068e602084016104f4565b7f4e487b71000000000000000000000000000000000000000000000000000000005f52601160045260245ffd5b818103818111156103f6576103f66106e7565b808201808211156103f6576103f66106e7565b7f4e487b71000000000000000000000000000000000000000000000000000000005f52603260045260245ffdfea2646970667358221220797f48690e14f5e33e4681e2a680da5ae53f28a2ad8866797d8e90749ba4c8b764736f6c634300081d0033","linkReferences":{}},"methodIdentifiers":{"balanceOf(address)":"70a08231","balances(address)":"27e235e3","claimOperatorAndConvert(address,address)":"6fa57f30","operatorMint(address[],address)":"3f2a33f9","rewardDistributor()":"acc2166a","setRewardDistributor(address)":"a1809b95","setValidatorRewards(address,uint256)":"4e6b7860","transfer(address,uint256)":"a9059cbb","transferFrom(address,address,uint256)":"23b872dd","validatorRewards(address)":"b1845c56"},"id":149}