{"abi":[{"type":"function","name":"feedType","inputs":[],"outputs":[{"name":"","type":"uint8","internalType":"enum ICollateralOracleFeed.FeedType"}],"stateMutability":"pure"},{"type":"function","name":"getCollateralOwnership","inputs":[{"name":"","type":"uint48","internalType":"uint48"},{"name":"validator","type":"address","internalType":"address"},{"name":"owner","type":"address","internalType":"address"}],"outputs":[{"name":"","type":"tuple","internalType":"struct ICollateralOracleFeed.CollateralOwnership","components":[{"name":"owner","type":"address","internalType":"address"},{"name":"shares","type":"uint256","internalType":"uint256"}]}],"stateMutability":"view"},{"type":"function","name":"getCollateralOwnershipTWAB","inputs":[{"name":"","type":"uint48","internalType":"uint48"},{"name":"","type":"uint48","internalType":"uint48"},{"name":"","type":"address","internalType":"address"},{"name":"","type":"address","internalType":"address"}],"outputs":[{"name":"","type":"uint256","internalType":"uint256"}],"stateMutability":"pure"},{"type":"function","name":"getCollateralOwnerships","inputs":[{"name":"","type":"uint48","internalType":"uint48"},{"name":"","type":"address","internalType":"address"}],"outputs":[{"name":"","type":"tuple[]","internalType":"struct ICollateralOracleFeed.CollateralOwnership[]","components":[{"name":"owner","type":"address","internalType":"address"},{"name":"shares","type":"uint256","internalType":"uint256"}]}],"stateMutability":"pure"},{"type":"function","name":"getCollateralOwnershipsTWAB","inputs":[{"name":"","type":"uint48","internalType":"uint48"},{"name":"","type":"uint48","internalType":"uint48"},{"name":"","type":"address","internalType":"address"}],"outputs":[{"name":"","type":"tuple[]","internalType":"struct ICollateralOracleFeed.CollateralOwnership[]","components":[{"name":"owner","type":"address","internalType":"address"},{"name":"shares","type":"uint256","internalType":"uint256"}]}],"stateMutability":"pure"},{"type":"function","name":"getHistoricalOwners","inputs":[{"name":"","type":"address","internalType":"address"}],"outputs":[{"name":"","type":"address[]","internalType":"address[]"}],"stateMutability":"pure"},{"type":"function","name":"getHistoricalOwnersCount","inputs":[{"name":"","type":"address","internalType":"address"}],"outputs":[{"name":"","type":"uint256","internalType":"uint256"}],"stateMutability":"pure"},{"type":"function","name":"getLastFeedTimestamp","inputs":[{"name":"","type":"address","internalType":"address"}],"outputs":[{"name":"","type":"uint48","internalType":"uint48"}],"stateMutability":"pure"},{"type":"function","name":"getTotalTWAB","inputs":[{"name":"","type":"address","internalType":"address"},{"name":"","type":"uint48","internalType":"uint48"},{"name":"","type":"uint48","internalType":"uint48"}],"outputs":[{"name":"","type":"uint256","internalType":"uint256"}],"stateMutability":"pure"},{"type":"function","name":"getValidator","inputs":[{"name":"","type":"uint48","internalType":"uint48"},{"name":"validator","type":"address","internalType":"address"}],"outputs":[{"name":"","type":"tuple","internalType":"struct ICollateralOracleFeed.Validator","components":[{"name":"collateral","type":"uint256","internalType":"uint256"},{"name":"collateralShares","type":"uint256","internalType":"uint256"},{"name":"extraVotingPower","type":"uint256","internalType":"uint256"},{"name":"votingPower","type":"uint256","internalType":"uint256"}]}],"stateMutability":"view"},{"type":"function","name":"ownerships","inputs":[{"name":"","type":"address","internalType":"address"},{"name":"","type":"address","internalType":"address"}],"outputs":[{"name":"owner","type":"address","internalType":"address"},{"name":"shares","type":"uint256","internalType":"uint256"}],"stateMutability":"view"},{"type":"function","name":"setOwnership","inputs":[{"name":"val","type":"address","internalType":"address"},{"name":"owner","type":"address","internalType":"address"},{"name":"data","type":"tuple","internalType":"struct ICollateralOracleFeed.CollateralOwnership","components":[{"name":"owner","type":"address","internalType":"address"},{"name":"shares","type":"uint256","internalType":"uint256"}]}],"outputs":[],"stateMutability":"nonpayable"},{"type":"function","name":"setValidator","inputs":[{"name":"val","type":"address","internalType":"address"},{"name":"data","type":"tuple","internalType":"struct ICollateralOracleFeed.Validator","components":[{"name":"collateral","type":"uint256","internalType":"uint256"},{"name":"collateralShares","type":"uint256","internalType":"uint256"},{"name":"extraVotingPower","type":"uint256","internalType":"uint256"},{"name":"votingPower","type":"uint256","internalType":"uint256"}]}],"outputs":[],"stateMutability":"nonpayable"},{"type":"function","name":"validators","inputs":[{"name":"","type":"address","internalType":"address"}],"outputs":[{"name":"collateral","type":"uint256","internalType":"uint256"},{"name":"collateralShares","type":"uint256","internalType":"uint256"},{"name":"extraVotingPower","type":"uint256","internalType":"uint256"},{"name":"votingPower","type":"uint256","internalType":"uint256"}],"stateMutability":"view"},{"type":"event","name":"FeedUpdated","inputs":[{"name":"timestamp","type":"uint48","indexed":true,"internalType":"uint48"},{"name":"validator","type":"address","indexed":true,"internalType":"address"},{"name":"ownershipCount","type":"uint256","indexed":false,"internalType":"uint256"},{"name":"metadata","type":"bytes","indexed":false,"internalType":"bytes"}],"anonymous":false}],"bytecode":{"object":"0x6080604052348015600e575f5ffd5b506109e58061001c5f395ff3fe608060405234801561000f575f5ffd5b50600436106100e5575f3560e01c80635e27c12311610088578063c8b1859911610063578063c8b18599146102a4578063eca1c8d11461031c578063f6e03f7114610399578063fa52c7d8146103b4575f5ffd5b80635e27c1231461027a5780638e892d791461028857806390aaa04614610296575f5ffd5b80632cba54da116100c35780632cba54da1461020657806351e7ba4414610227578063547c477d1461024c57806356355c181461026c575f5ffd5b80631714b74d146100e957806320b1b5581461013857806326a0f04614610193575b5f5ffd5b6100fc6100f7366004610597565b610408565b60405161012f91908151815260208083015190820152604080830151908201526060918201519181019190915260800190565b60405180910390f35b6101916101463660046105c8565b73ffffffffffffffffffffffffffffffffffffffff9091165f908152602081815260409182902083518155908301516001820155908201516002820155606090910151600390910155565b005b6101da6101a1366004610693565b600160208181525f93845260408085209091529183529120805491015473ffffffffffffffffffffffffffffffffffffffff9091169082565b6040805173ffffffffffffffffffffffffffffffffffffffff909316835260208301919091520161012f565b6102196102143660046106ad565b61048c565b60405190815260200161012f565b6102356102143660046106ed565b60405165ffffffffffff909116815260200161012f565b61025f61025a36600461070d565b6104f5565b60405161012f9190610744565b5f60405161012f91906107b1565b61025f61025a366004610597565b6102196102143660046106ed565b6102196102143660046107f0565b6101916102b2366004610841565b73ffffffffffffffffffffffffffffffffffffffff9283165f908152600160208181526040808420958716845294815293909120825181547fffffffffffffffffffffffff0000000000000000000000000000000000000000169516949094178455910151910155565b61038c61032a36600461090c565b6040805180820182525f808252602091820181905273ffffffffffffffffffffffffffffffffffffffff948516815260018083528382209486168252938252829020825180840190935280549094168252929091015491810191909152919050565b60405161012f9190610935565b6103a761025a3660046106ed565b60405161012f9190610962565b6103e86103c23660046106ed565b5f6020819052908152604090208054600182015460028301546003909301549192909184565b60408051948552602085019390935291830152606082015260800161012f565b61042f60405180608001604052805f81526020015f81526020015f81526020015f81525090565b5073ffffffffffffffffffffffffffffffffffffffff81165f908152602081815260409182902082516080810184528154815260018201549281019290925260028101549282019290925260039091015460608201525b92915050565b6040517f08c379a000000000000000000000000000000000000000000000000000000000815260206004820152600f60248201527f4e6f7420696d706c656d656e746564000000000000000000000000000000000060448201525f906064015b60405180910390fd5b6040517f08c379a000000000000000000000000000000000000000000000000000000000815260206004820152600f60248201527f4e6f7420696d706c656d656e746564000000000000000000000000000000000060448201526060906064016104ec565b803565ffffffffffff8116811461056f575f5ffd5b919050565b803573ffffffffffffffffffffffffffffffffffffffff8116811461056f575f5ffd5b5f5f604083850312156105a8575f5ffd5b6105b18361055a565b91506105bf60208401610574565b90509250929050565b5f5f82840360a08112156105da575f5ffd5b6105e384610574565b925060807fffffffffffffffffffffffffffffffffffffffffffffffffffffffffffffffe082011215610614575f5ffd5b506040516080810167ffffffffffffffff8111828210171561065d577f4e487b71000000000000000000000000000000000000000000000000000000005f52604160045260245ffd5b60409081526020858101358352858201359083015260608086013591830191909152608090940135938101939093525092909150565b5f5f604083850312156106a4575f5ffd5b6105b183610574565b5f5f5f606084860312156106bf575f5ffd5b6106c884610574565b92506106d66020850161055a565b91506106e46040850161055a565b90509250925092565b5f602082840312156106fd575f5ffd5b61070682610574565b9392505050565b5f5f5f6060848603121561071f575f5ffd5b6107288461055a565b92506107366020850161055a565b91506106e460408501610574565b602080825282518282018190525f918401906040840190835b818110156107a657610790838551805173ffffffffffffffffffffffffffffffffffffffff168252602090810151910152565b602093909301926040929092019160010161075d565b509095945050505050565b60208101600383106107ea577f4e487b71000000000000000000000000000000000000000000000000000000005f52602160045260245ffd5b91905290565b5f5f5f5f60808587031215610803575f5ffd5b61080c8561055a565b935061081a6020860161055a565b925061082860408601610574565b915061083660608601610574565b905092959194509250565b5f5f5f8385036080811215610854575f5ffd5b61085d85610574565b935061086b60208601610574565b925060407fffffffffffffffffffffffffffffffffffffffffffffffffffffffffffffffc08201121561089c575f5ffd5b506040805190810167ffffffffffffffff811182821017156108e5577f4e487b71000000000000000000000000000000000000000000000000000000005f52604160045260245ffd5b80604052506108f660408601610574565b8152606094909401356020850152509093909250565b5f5f5f6060848603121561091e575f5ffd5b6109278461055a565b925061073660208501610574565b815173ffffffffffffffffffffffffffffffffffffffff1681526020808301519082015260408101610486565b602080825282518282018190525f918401906040840190835b818110156107a657835173ffffffffffffffffffffffffffffffffffffffff1683526020938401939092019160010161097b56fea2646970667358221220715e8a880932f76bc08b41cf67c2b4816d43b96077eb769647b3a25eedac2a2f64736f6c634300081d0033","linkReferences":{}},"methodIdentifiers":{"feedType()":"56355c18","getCollateralOwnership(uint48,address,address)":"eca1c8d1","getCollateralOwnershipTWAB(uint48,uint48,address,address)":"90aaa046","getCollateralOwnerships(uint48,address)":"5e27c123","getCollateralOwnershipsTWAB(uint48,uint48,address)":"547c477d","getHistoricalOwners(address)":"f6e03f71","getHistoricalOwnersCount(address)":"8e892d79","getLastFeedTimestamp(address)":"51e7ba44","getTotalTWAB(address,uint48,uint48)":"2cba54da","getValidator(uint48,address)":"1714b74d","ownerships(address,address)":"26a0f046","setOwnership(address,address,(address,uint256))":"c8b18599","setValidator(address,(uint256,uint256,uint256,uint256))":"20b1b558","validators(address)":"fa52c7d8"},"id":132}