{"abi":[{"type":"function","name":"Verify","inputs":[{"name":"proof","type":"bytes","internalType":"bytes"},{"name":"public_inputs","type":"uint256[]","internalType":"uint256[]"}],"outputs":[{"name":"success","type":"bool","internalType":"bool"}],"stateMutability":"view"}],"bytecode":{"object":"0x6080604052348015600e575f5ffd5b506123618061001c5f395ff3fe608060405234801561000f575f5ffd5b5060043610610029575f3560e01c80637e4f7a8a1461002d575b5f5ffd5b61004061003b366004612243565b610054565b604051901515815260200160405180910390f35b5f6040516102408101610066846104d0565b61007085856104e3565b61007986610532565b61008287610548565b5f61008e86868a6106e2565b905061009981610a05565b90506100a58189610a58565b90506100b18189610ad3565b5060608201515f51602061230c5f395f51905f527f30644e72e131a029b85045b68181585d2833e84879b9709143e1f593f00000006100f5846301000000856121eb565b086101c084015250610108818587610b2b565b61011382868a610da9565b91505f51602061230c5f395f51905f528183086101a08401525061013790506110b6565b61014086611f0f565b61014986611e60565b61015286611c43565b61015b86611795565b6101648661155a565b61016d86611195565b6102000151905061223b565b6040517f08c379a000000000000000000000000000000000000000000000000000000000815260206004820152601d60248201527f77726f6e67206e756d626572206f66207075626c696320696e707574730000006044820152606481fd5b6040517f08c379a000000000000000000000000000000000000000000000000000000000815260206004820152600c60248201527f6572726f72206d6f6420657870000000000000000000000000000000000000006044820152606481fd5b6040517f08c379a000000000000000000000000000000000000000000000000000000000815260206004820152601260248201527f6572726f72206563206f7065726174696f6e00000000000000000000000000006044820152606481fd5b6040517f08c379a000000000000000000000000000000000000000000000000000000000815260206004820152601860248201527f696e707574732061726520626967676572207468616e207200000000000000006044820152606481fd5b6040517f08c379a000000000000000000000000000000000000000000000000000000000815260206004820152601060248201527f77726f6e672070726f6f662073697a65000000000000000000000000000000006044820152606481fd5b6040517f08c379a000000000000000000000000000000000000000000000000000000000815260206004820152601660248201527f6f70656e696e677320626967676572207468616e2072000000000000000000006044820152606481fd5b6040517f08c379a000000000000000000000000000000000000000000000000000000000815260206004820152600d60248201527f6572726f722070616972696e67000000000000000000000000000000000000006044820152606481fd5b6040517f08c379a000000000000000000000000000000000000000000000000000000000815260206004820152600c60248201527f6572726f722076657269667900000000000000000000000000000000000000006044820152606481fd5b6040517f08c379a000000000000000000000000000000000000000000000000000000000815260206004820152601460248201527f6572726f722072616e646f6d2067656e206b7a670000000000000000000000006044820152606481fd5b600281146104e0576104e0610179565b50565b5f5b8181101561052d577f30644e72e131a029b85045b68181585d2833e84879b9709143e1f593f00000008335111561051e5761051e610296565b602092909201916001016104e5565b505050565b610360818114610544576105446102f5565b5050565b61018081017f30644e72e131a029b85045b68181585d2833e84879b9709143e1f593f00000008135111561057e5761057e610354565b506101a081017f30644e72e131a029b85045b68181585d2833e84879b9709143e1f593f0000000813511156105b5576105b5610354565b506101c081017f30644e72e131a029b85045b68181585d2833e84879b9709143e1f593f0000000813511156105ec576105ec610354565b506101e081017f30644e72e131a029b85045b68181585d2833e84879b9709143e1f593f00000008135111561062357610623610354565b5061020081017f30644e72e131a029b85045b68181585d2833e84879b9709143e1f593f00000008135111561065a5761065a610354565b5061026081017f30644e72e131a029b85045b68181585d2833e84879b9709143e1f593f00000008135111561069157610691610354565b5061030081015f5b600181101561052d577f30644e72e131a029b85045b68181585d2833e84879b9709143e1f593f0000000823511156106d3576106d3610354565b60209190910190600101610699565b5f60405161024081016467616d6d6181527f239ed22af3191cfccd323949e417667defbcb082d9f31527488e523372ea9e7a60208201527f213da3cb623029a98e0186dc8c1a3a31ee249ab93bfb68abc1103900890eccb960408201527f01fd59b61f15d097ad7701c4dc12b8739eadc1d54664773c3ed5d8104c296c2a60608201527e22ee53909feab41bb47f0e6ddb802bb6096fd2027d89c22d94b4e56e227cd060808201527f14992dea1a6515e3f8a2250e30cb9e3bad58ff44bbfdd1390bc8d0a8f2bddd0f60a08201527f1e82777c7079b474d31f9fedafca8f2d108de5c58a2df629a8af49cd424c8c2960c08201527f060081d04d187d301d4223990acab3c887713358f1705af7f53e07aca0f709dd60e08201527f16911506ad1ccf9b39db250ce7752278c8115127c4f85080c2bd153946b4a5be6101008201527f279df33b57d698efd752579ee90674a7241ecdb21c6cb35cdf8ef7c1af73160a6101208201527f202fa12c1e82de2f49dc4c5bc771b94c8495544bb0055c4c381744cc3d1d332d6101408201527f040315f3fd753e8cca89f353d096fb94fcdf9cd41973954a3dd4ec58cba79d5f6101608201527f18e0b4a84e9429c05d0fd0d304acd0f3cfa93437356c112199d4d7c0162a1c9e6101808201527f2e14e072ab351d1b3838323f75ecf9b6c08043c230423d515febd04e29336b776101a08201527f1553e1a7b6e18ba105733244604cd37d82371c3a7b0503fa4aff460870170bcf6101c08201527f0c203d7594efa49bd977084de30db24ce843e501791176c21b5beda79ceaf1366101e08201527f0c4bddeb52250b0114282b00285f224b812fc581f2b55e5c3a49472069f901f36102008201527f2fb4fbb4677318edec4b80fc8fa22ffcce4a51d5f3771e575e726e790a9f9cbe6102208201527f28518b11376dc02418849d45b1f3b0e00d3f74502d713b002b9d7293a1018d79610240820152610260810160208602808883379081019060c0808784375061030501905060208282601b820160025afa9050806109e2576109e2610412565b5080519250505f51602061230c5f395f51905f5282066040820152509392505050565b5f60405161024060405101636265746181528360208201526020816024601c840160025afa80610a3757610a37610412565b5080519250505f51602061230c5f395f51905f528206602082015250919050565b5f60405161024060405101606564616c7068618252602082018681526020810190506103208601600160400280828437928301929190910190506040610220870182375060208282601b850160025afa905080610ab757610ab7610412565b50515f51602061230c5f395f51905f5281069091529392505050565b60405161024060405101637a657461815283602082015260c0808401604083013760208160e4601c840160025afa80610b0e57610b0e610412565b50515f51602061230c5f395f51905f529006606091909101525050565b5f60405160608101516101c0820151915085610b4981878585610b9e565b5f92505f91505b85821015610b94575f51602061230c5f395f51905f52853582510992505f51602061230c5f395f51905f528385086020958601959094506001929092019101610b50565b5050509392505050565b5f51602061230c5f395f51905f527f30644e427ce32d4886b01bfe313ba1dba6db8b2045d128178a7164500e0a6c1183096001855f5b86811015610c40575f51602061230c5f395f51905f52835f51602061230c5f395f51905f5203860882525f51602061230c5f395f51905f527f0c9fabc7845d50d2852e2a0371c6441f145e0db82e8326961c25f1e3e32b045b8409925060209190910190600101610bd4565b50610c4c818789610ccb565b5060019050855f5b86811015610cc1575f51602061230c5f395f51905f52835f51602061230c5f395f51905f52868551090982526020820191505f51602061230c5f395f51905f527f0c9fabc7845d50d2852e2a0371c6441f145e0db82e8326961c25f1e3e32b045b84099250600101610c54565b5050505050505050565b600183525f5f5b83811015610d0d5781850151828401515f51602061230c5f395f51905f52818309905060208401935080848801525050600181019050610cd2565b506020810382019150808401935050610d3b6020840160025f51602061230c5f395f51905f520385516121eb565b5f5b83811015610da25760208503945082515f51602061230c5f395f51905f528651840984525f51602061230c5f395f51905f528184097fffffffffffffffffffffffffffffffffffffffffffffffffffffffffffffffe090940193925050600101610d3d565b5050505050565b5f60405160608101516101c0820151915061032084015f5f610dd18960208501358535610ee3565b9150610de48962a653508a018787610e07565b90505f51602061230c5f395f51905f528082840987089998505050505050505050565b5f610e3385857f0c9fabc7845d50d2852e2a0371c6441f145e0db82e8326961c25f1e3e32b045b6121eb565b5f51602061230c5f395f51905f52815f51602061230c5f395f51905f5203840894505f51602061230c5f395f51905f527f30644e427ce32d4886b01bfe313ba1dba6db8b2045d128178a7164500e0a6c1182099050610eb3867f30644e72e131a029b85045b68181585d2833e84879b9709143e1f593efffffff876121eb565b94505f51602061230c5f395f51905f5285820990505f51602061230c5f395f51905f528482099695505050505050565b5f83525f602084015280604084015250806060830152505f6080820153603060818201535f60828201536042608382015360536084820153604260858201536032608682015360326087820153602d608882015360506089820153606c608a820153606f608b820153606e608c820153606b608d820153600b608e8201535f602082608f8460025afa80610f7957610f79610412565b8251600160208501536042602185015360536022850153604260238501536032602485015360326025850153602d602685015360506027850153606c6028850153606f6029850153606e602a850153606b602b850153600b602c850153602084602d8660025afa915081610fef57610fef610412565b8351186020840152600260408401536042604184015360536042840153604260438401536032604484015360326045840153602d604684015360506047840153606c6048840153606f6049840153606e604a840153606b604b840153600b604c84015360208301602081602d8360025afa9150508061107057611070610412565b505f51602061230c5f395f51905f527001000000000000000000000000000000008351099050602082015160801c5f51602061230c5f395f51905f528183089392505050565b604051610240604051016101c08201515f51602061230c5f395f51905f5260015f51602061230c5f395f51905f5203606085015108611116837f30644e72e131a029b85045b68181585d2833e84879b9709143e1f593efffffff836121eb565b90505f51602061230c5f395f51905f527f30644e427ce32d4886b01bfe313ba1dba6db8b2045d128178a7164500e0a6c11820990505f51602061230c5f395f51905f528282098451935091505f51602061230c5f395f51905f52905082820990505f51602061230c5f395f51905f528282099050806080840152505050565b60405161024081016101608201518152610180820151602082015261028083013560408201526102a08301356060820152610220830135608082015261024083013560a08201526102c083013560c08201526102e083013560e082015260608201516101008201526101e08201516101208201526020816101408360025afa8061122157611221610471565b5f51602061230c5f395f51905f5282510690508160408101925061028085013581526102a0850135602082015261125e83836102c0880184612178565b61016084016112738484610220890184612178565b6101408501611287846102608901836121bf565b7f1fa4be93b5e7f7e674d5059b63554fab99638b304ed8310e9fa44c281ac9b03b85527f1a01ae7fac6228e39d3cb5a5e71fd31160f3241e79a5f48ffb3737e6c389b7216020860152805160408087019182529095908160608160075afa9150816112f4576112f4610412565b60208101915081517f30644e72e131a029b85045b68181585d97816a916871ca8d3c208c16d87cfd4703825261132c8682858661206f565b5050836040850194506113498560608801516102808a0184612106565b5f51602061230c5f395f51905f527f0c9fabc7845d50d2852e2a0371c6441f145e0db82e8326961c25f1e3e32b045b60608801510995505f51602061230c5f395f51905f5286850993506113a385856102c08a0184612178565b6113af8582848561206f565b50602082810180517f30644e72e131a029b85045b68181585d97816a916871ca8d3c208c16d87cfd470381528251865291810151908501527f198e9393920d483a7260bfb731fb5d25f1aa493335a9e71297e485b7aef312c260408501527f1800deef121f1e76426a00665e5c4479674322d4f75edadd46debd5cd992f6ed60608501527f090689d0585ff075ec9e99ad690c3395bc4b313370b38ef355acdadcd122975b60808501527f12c85ea5db8c6deb4aab71808dcb408fe3d1e7690c43d37b4ce6cc0166fa7daa60a0850152905160c0840152805160e08401527f22f1acbb03c4508760c2430af35865e7cdf9f3eb1224504fdcc3708ddb954a486101008401527f2a344fad01c2ed0ed73142ae1752429eaea515c6f3f6b941103cc21c2308e1cb6101208401527f159f15b842ba9c8449aa3268f981010d4c7142e5193473d80b464e964845c3f86101408401527f0efd30ac7b6f8d0d3ccbc2207587c2acbad1532dc0293f0d034cf8258cd428b3610160840152925061052d90508160405160205f6101808460085afa8061154c5761154c6103b3565b505f51610200919091015250565b6040516102406040510160208101604082016101e084015180610160860160e087015181526101008701516101808801526101208701516101408801526115a586835f8b0184612178565b6115b8826101808a016101408a016121bf565b5f51602061230c5f395f51905f5283830991506115da868360408b0184612178565b6115ed826101a08a016101408a016121bf565b5f51602061230c5f395f51905f52838309915061160f868360808b0184612178565b611622826101c08a016101408a016121bf565b5f51602061230c5f395f51905f5283830991507f239ed22af3191cfccd323949e417667defbcb082d9f31527488e523372ea9e7a86527f213da3cb623029a98e0186dc8c1a3a31ee249ab93bfb68abc1103900890eccb9855261168784838884612131565b61169a826101e08a016101408a016121bf565b5f51602061230c5f395f51905f5283830991507f01fd59b61f15d097ad7701c4dc12b8739eadc1d54664773c3ed5d8104c296c2a86527e22ee53909feab41bb47f0e6ddb802bb6096fd2027d89c22d94b4e56e227cd085526116fe84838884612131565b611711826102008a016101408a016121bf565b61030088015f51602061230c5f395f51905f5284840992507f2fb4fbb4677318edec4b80fc8fa22ffcce4a51d5f3771e575e726e790a9f9cbe87527f28518b11376dc02418849d45b1f3b0e00d3f74502d713b002b9d7293a1018d79865261177b85848985612131565b61178a83826101408b016121bf565b505050505050505050565b6040516467616d6d616102408201908152606082015161026083015260e08201516102808301526101008201516102a083015260c0836102c08401377f239ed22af3191cfccd323949e417667defbcb082d9f31527488e523372ea9e7a6101408201527f213da3cb623029a98e0186dc8c1a3a31ee249ab93bfb68abc1103900890eccb96101608201527f01fd59b61f15d097ad7701c4dc12b8739eadc1d54664773c3ed5d8104c296c2a610180808301919091527e22ee53909feab41bb47f0e6ddb802bb6096fd2027d89c22d94b4e56e227cd06101a0808401919091527f2fb4fbb4677318edec4b80fc8fa22ffcce4a51d5f3771e575e726e790a9f9cbe6101c0808501919091527f28518b11376dc02418849d45b1f3b0e00d3f74502d713b002b9d7293a1018d796101e0808601919091526101208601516102008087019190915293870135610220860152918601356102408501528501356102608401528401356102808301528301356102a08201526102c081016103008401602081833750610260840135602091820152601b906102e5906101e085018285850160025afa925050508061194a5761194a610412565b506101e00180515f51602061230c5f395f51905f529006905250565b604051610240604051017f060081d04d187d301d4223990acab3c887713358f1705af7f53e07aca0f709dd81527f16911506ad1ccf9b39db250ce7752278c8115127c4f85080c2bd153946b4a5be60208201526119d0604082016101808501358360e086016120db565b7f279df33b57d698efd752579ee90674a7241ecdb21c6cb35cdf8ef7c1af73160a81527f202fa12c1e82de2f49dc4c5bc771b94c8495544bb0055c4c381744cc3d1d332d6020820152611a30604082016101a08501358360e08601612131565b5f51602061230c5f395f51905f526101a0840135610180850135097f040315f3fd753e8cca89f353d096fb94fcdf9cd41973954a3dd4ec58cba79d5f82527f18e0b4a84e9429c05d0fd0d304acd0f3cfa93437356c112199d4d7c0162a1c9e6020830152611aa660408301828460e08701612131565b507f2e14e072ab351d1b3838323f75ecf9b6c08043c230423d515febd04e29336b7781527f1553e1a7b6e18ba105733244604cd37d82371c3a7b0503fa4aff460870170bcf6020820152611b07604082016101c08501358360e08601612131565b7f0c203d7594efa49bd977084de30db24ce843e501791176c21b5beda79ceaf13681527f0c4bddeb52250b0114282b00285f224b812fc581f2b55e5c3a49472069f901f36020820152611b62604082018260e085018061206f565b610300830161032084015f5b6001811015611bae578135845260208201356020850152611b986040850184358660e08901612131565b6020929092019160409190910190600101611b6e565b5050507f14992dea1a6515e3f8a2250e30cb9e3bad58ff44bbfdd1390bc8d0a8f2bddd0f81527f1e82777c7079b474d31f9fedafca8f2d108de5c58a2df629a8af49cd424c8c296020820152611c0c60408201858360e08601612131565b61022083013581526102408301356020820152611c3160408201868360e08601612131565b610da28160a0840160e085018061206f565b6040516020810151604082015160608301515f8401515f51602061230c5f395f51905f5284610260880135095f51602061230c5f395f51905f526101e088013586095f51602061230c5f395f51905f52610180890135820890505f51602061230c5f395f51905f5285820890505f51602061230c5f395f51905f5261020089013587095f51602061230c5f395f51905f526101a08a0135820890505f51602061230c5f395f51905f5286820890505f51602061230c5f395f51905f528284095f51602061230c5f395f51905f5282820990505f51602061230c5f395f51905f5285820990505f51602061230c5f395f51905f52600580095f51602061230c5f395f51905f52878a0998505f51602061230c5f395f51905f526101808c01358a0894505f51602061230c5f395f51905f5288860894505f51602061230c5f395f51905f5260058a0993505f51602061230c5f395f51905f526101a08c0135850893505f51602061230c5f395f51905f5288850893505f51602061230c5f395f51905f52818a099250505f51602061230c5f395f51905f526101c08b0135830891505f51602061230c5f395f51905f5287830891505f51602061230c5f395f51905f5283850997505f51602061230c5f395f51905f528289095f51602061230c5f395f51905f52908103985085890997505f51602061230c5f395f51905f5260808a015189089750611e5488828c611966565b50505050505050505050565b604051600263010000000161024060405101611e81818360608601516121eb565b9150611e968183610140870160a08701612106565b611ea981610100860160a08601806120a5565b611eb8818360a08601806120db565b611eca8160c0860160a08601806120a5565b611ee1816101c085015160a0860160a087016120db565b505060c00180517f30644e72e131a029b85045b68181585d97816a916871ca8d3c208c16d87cfd4703905250565b6040515f5f51602061230c5f395f51905f5260208301516101e08501350990505f51602061230c5f395f51905f526040830151820890505f51602061230c5f395f51905f52610180840135820890505f5f51602061230c5f395f51905f5260208401516102008601350990505f51602061230c5f395f51905f526040840151820890505f51602061230c5f395f51905f526101a0850135820890505f5f51602061230c5f395f51905f5260408501516101c08701350890505f51602061230c5f395f51905f5282840992505f51602061230c5f395f51905f528184099250505f51602061230c5f395f51905f525f840151830991505f51602061230c5f395f51905f52610260850135830991505f51602061230c5f395f51905f526101a0840151830860808401519092505f51602061230c5f395f51905f5290810391508183085f51602061230c5f395f51905f52036101209390930192909252505050565b8151845260208201516020850152825160408501526020830151606085015260408160808660065afa80610da257610da2610237565b8151845260208201516020850152823560408501526020830135606085015260408160808660065afa80610da257610da2610237565b815184526020820151602085015282604085015260408160608660075afa80610da257610da2610237565b813584526020820135602085015282604085015260408160608660075afa80610da257610da2610237565b815184526020820151602085015282604085015260408460608660075afa815160408601526020820151606086015260408260808760065afa1680610da257610da2610237565b813584526020820135602085015282604085015260408460608660075afa815160408601526020820151606086015260408260808760065afa1680610da257610da2610237565b5f51602061230c5f395f51905f52838335095f51602061230c5f395f51905f5281835108825250505050565b602083526020808401526020604084015280606084015250806080830152505f51602061230c5f395f51905f5260a08201525f60208260c08460055afa80612235576122356101d8565b50505190565b949350505050565b5f5f5f5f60408587031215612256575f5ffd5b843567ffffffffffffffff81111561226c575f5ffd5b8501601f8101871361227c575f5ffd5b803567ffffffffffffffff811115612292575f5ffd5b8760208284010111156122a3575f5ffd5b60209182019550935085013567ffffffffffffffff8111156122c3575f5ffd5b8501601f810187136122d3575f5ffd5b803567ffffffffffffffff8111156122e9575f5ffd5b8760208260051b84010111156122fd575f5ffd5b94979396506020019450505056fe30644e72e131a029b85045b68181585d2833e84879b9709143e1f593f0000001a26469706673582212200c6c2b833430d79b3b6d9d7c26a0a8b657f42b1ad04e9f275bbf23e5f307ed6f64736f6c634300081d0033","linkReferences":{}},"methodIdentifiers":{"Verify(bytes,uint256[])":"7e4f7a8a"},"id":86}