{"abi":[{"type":"constructor","inputs":[{"name":"wmito","type":"address","internalType":"address"},{"name":"gmMito","type":"address","internalType":"address"},{"name":"collateralOracle","type":"address","internalType":"address"},{"name":"epochFeeder","type":"address","internalType":"address"},{"name":"rewardDistributor","type":"address","internalType":"address"},{"name":"validatorManager","type":"address","internalType":"address"}],"stateMutability":"nonpayable"},{"type":"receive","stateMutability":"payable"},{"type":"function","name":"COLLATERAL_ORACLE","inputs":[],"outputs":[{"name":"","type":"address","internalType":"contract ICollateralOracleFeed"}],"stateMutability":"view"},{"type":"function","name":"DEFAULT_ADMIN_ROLE","inputs":[],"outputs":[{"name":"","type":"bytes32","internalType":"bytes32"}],"stateMutability":"view"},{"type":"function","name":"EPOCH_FEEDER","inputs":[],"outputs":[{"name":"","type":"address","internalType":"contract IEpochFeeder"}],"stateMutability":"view"},{"type":"function","name":"GIT_COMMIT","inputs":[],"outputs":[{"name":"","type":"string","internalType":"string"}],"stateMutability":"view"},{"type":"function","name":"GIT_TAG","inputs":[],"outputs":[{"name":"","type":"string","internalType":"string"}],"stateMutability":"view"},{"type":"function","name":"GMITO","inputs":[],"outputs":[{"name":"","type":"address","internalType":"contract IGovMITO"}],"stateMutability":"view"},{"type":"function","name":"GM_MITO","inputs":[],"outputs":[{"name":"","type":"address","internalType":"contract IgmMITO"}],"stateMutability":"view"},{"type":"function","name":"OPERATOR_ROLE","inputs":[],"outputs":[{"name":"","type":"bytes32","internalType":"bytes32"}],"stateMutability":"view"},{"type":"function","name":"REWARD_DISTRIBUTOR","inputs":[],"outputs":[{"name":"","type":"address","internalType":"contract IValidatorRewardDistributor"}],"stateMutability":"view"},{"type":"function","name":"UPGRADE_INTERFACE_VERSION","inputs":[],"outputs":[{"name":"","type":"string","internalType":"string"}],"stateMutability":"view"},{"type":"function","name":"VALIDATOR_MANAGER","inputs":[],"outputs":[{"name":"","type":"address","internalType":"contract IValidatorManager"}],"stateMutability":"view"},{"type":"function","name":"WMITO","inputs":[],"outputs":[{"name":"","type":"address","internalType":"contract WETH"}],"stateMutability":"view"},{"type":"function","name":"claimForNonTargets","inputs":[{"name":"validator","type":"address","internalType":"address"},{"name":"vaults","type":"address[]","internalType":"address[]"},{"name":"fromEpoch","type":"uint256","internalType":"uint256"},{"name":"toEpoch","type":"uint256","internalType":"uint256"}],"outputs":[{"name":"totalClaimed","type":"uint256","internalType":"uint256"}],"stateMutability":"nonpayable"},{"type":"function","name":"claimRewards","inputs":[{"name":"validator","type":"address","internalType":"address"},{"name":"fromEpoch","type":"uint256","internalType":"uint256"},{"name":"toEpoch","type":"uint256","internalType":"uint256"}],"outputs":[{"name":"totalClaimed","type":"uint256","internalType":"uint256"}],"stateMutability":"nonpayable"},{"type":"function","name":"currentEpoch","inputs":[],"outputs":[{"name":"","type":"uint256","internalType":"uint256"}],"stateMutability":"view"},{"type":"function","name":"distributeRewards","inputs":[{"name":"validator","type":"address","internalType":"address"}],"outputs":[{"name":"gmMitoAmount","type":"uint256","internalType":"uint256"}],"stateMutability":"nonpayable"},{"type":"function","name":"finalizeEpoch","inputs":[{"name":"epoch","type":"uint256","internalType":"uint256"},{"name":"validator","type":"address","internalType":"address"}],"outputs":[{"name":"totalGmMito","type":"uint256","internalType":"uint256"}],"stateMutability":"nonpayable"},{"type":"function","name":"getApplicableConfig","inputs":[{"name":"validator","type":"address","internalType":"address"},{"name":"epoch","type":"uint256","internalType":"uint256"}],"outputs":[{"name":"config","type":"tuple","internalType":"struct IRewardRouter.DistributionConfig","components":[{"name":"targets","type":"address[]","internalType":"address[]"},{"name":"operator","type":"address","internalType":"address"},{"name":"defaultRecipient","type":"address","internalType":"address"},{"name":"feeRecipient","type":"address","internalType":"address"},{"name":"commissionRate","type":"uint256","internalType":"uint256"}]}],"stateMutability":"view"},{"type":"function","name":"getClaimableRewards","inputs":[{"name":"validator","type":"address","internalType":"address"},{"name":"vault","type":"address","internalType":"address"},{"name":"fromEpoch","type":"uint256","internalType":"uint256"},{"name":"toEpoch","type":"uint256","internalType":"uint256"}],"outputs":[{"name":"totalClaimable","type":"uint256","internalType":"uint256"}],"stateMutability":"view"},{"type":"function","name":"getConfigEpochsCount","inputs":[{"name":"validator","type":"address","internalType":"address"}],"outputs":[{"name":"","type":"uint256","internalType":"uint256"}],"stateMutability":"view"},{"type":"function","name":"getConfigEpochsRange","inputs":[{"name":"validator","type":"address","internalType":"address"},{"name":"startIndex","type":"uint256","internalType":"uint256"},{"name":"endIndex","type":"uint256","internalType":"uint256"}],"outputs":[{"name":"epochs","type":"uint256[]","internalType":"uint256[]"}],"stateMutability":"view"},{"type":"function","name":"getDistributionConfig","inputs":[{"name":"validator","type":"address","internalType":"address"},{"name":"epoch","type":"uint256","internalType":"uint256"}],"outputs":[{"name":"config","type":"tuple","internalType":"struct IRewardRouter.DistributionConfig","components":[{"name":"targets","type":"address[]","internalType":"address[]"},{"name":"operator","type":"address","internalType":"address"},{"name":"defaultRecipient","type":"address","internalType":"address"},{"name":"feeRecipient","type":"address","internalType":"address"},{"name":"commissionRate","type":"uint256","internalType":"uint256"}]}],"stateMutability":"view"},{"type":"function","name":"getEpochReward","inputs":[{"name":"epoch","type":"uint256","internalType":"uint256"},{"name":"validator","type":"address","internalType":"address"}],"outputs":[{"name":"totalGmMito","type":"uint256","internalType":"uint256"},{"name":"totalTWAB","type":"uint256","internalType":"uint256"},{"name":"finalized","type":"bool","internalType":"bool"}],"stateMutability":"view"},{"type":"function","name":"getLastFinalizedEpoch","inputs":[{"name":"validator","type":"address","internalType":"address"}],"outputs":[{"name":"","type":"uint256","internalType":"uint256"}],"stateMutability":"view"},{"type":"function","name":"getRoleAdmin","inputs":[{"name":"role","type":"bytes32","internalType":"bytes32"}],"outputs":[{"name":"","type":"bytes32","internalType":"bytes32"}],"stateMutability":"view"},{"type":"function","name":"getRoleMember","inputs":[{"name":"role","type":"bytes32","internalType":"bytes32"},{"name":"index","type":"uint256","internalType":"uint256"}],"outputs":[{"name":"","type":"address","internalType":"address"}],"stateMutability":"view"},{"type":"function","name":"getRoleMemberCount","inputs":[{"name":"role","type":"bytes32","internalType":"bytes32"}],"outputs":[{"name":"","type":"uint256","internalType":"uint256"}],"stateMutability":"view"},{"type":"function","name":"getRoleMembers","inputs":[{"name":"role","type":"bytes32","internalType":"bytes32"}],"outputs":[{"name":"","type":"address[]","internalType":"address[]"}],"stateMutability":"view"},{"type":"function","name":"getVaultClaimed","inputs":[{"name":"epoch","type":"uint256","internalType":"uint256"},{"name":"validator","type":"address","internalType":"address"},{"name":"vault","type":"address","internalType":"address"}],"outputs":[{"name":"","type":"uint256","internalType":"uint256"}],"stateMutability":"view"},{"type":"function","name":"gmMitoBalance","inputs":[],"outputs":[{"name":"","type":"uint256","internalType":"uint256"}],"stateMutability":"view"},{"type":"function","name":"grantRole","inputs":[{"name":"role","type":"bytes32","internalType":"bytes32"},{"name":"account","type":"address","internalType":"address"}],"outputs":[],"stateMutability":"nonpayable"},{"type":"function","name":"hasRole","inputs":[{"name":"role","type":"bytes32","internalType":"bytes32"},{"name":"account","type":"address","internalType":"address"}],"outputs":[{"name":"","type":"bool","internalType":"bool"}],"stateMutability":"view"},{"type":"function","name":"initialize","inputs":[{"name":"initialOwner","type":"address","internalType":"address"}],"outputs":[],"stateMutability":"nonpayable"},{"type":"function","name":"isTarget","inputs":[{"name":"validator","type":"address","internalType":"address"},{"name":"vault","type":"address","internalType":"address"},{"name":"epoch","type":"uint256","internalType":"uint256"}],"outputs":[{"name":"","type":"bool","internalType":"bool"}],"stateMutability":"view"},{"type":"function","name":"migrate","inputs":[{"name":"validators","type":"address[]","internalType":"address[]"},{"name":"newOperators","type":"address[]","internalType":"address[]"},{"name":"newDefaultRecipients","type":"address[]","internalType":"address[]"},{"name":"newFeeRecipients","type":"address[]","internalType":"address[]"}],"outputs":[],"stateMutability":"nonpayable"},{"type":"function","name":"proxiableUUID","inputs":[],"outputs":[{"name":"","type":"bytes32","internalType":"bytes32"}],"stateMutability":"view"},{"type":"function","name":"renounceRole","inputs":[{"name":"role","type":"bytes32","internalType":"bytes32"},{"name":"callerConfirmation","type":"address","internalType":"address"}],"outputs":[],"stateMutability":"nonpayable"},{"type":"function","name":"revokeRole","inputs":[{"name":"role","type":"bytes32","internalType":"bytes32"},{"name":"account","type":"address","internalType":"address"}],"outputs":[],"stateMutability":"nonpayable"},{"type":"function","name":"setDistributionConfig","inputs":[{"name":"validator","type":"address","internalType":"address"},{"name":"startEpoch","type":"uint256","internalType":"uint256"},{"name":"config","type":"tuple","internalType":"struct IRewardRouter.DistributionConfig","components":[{"name":"targets","type":"address[]","internalType":"address[]"},{"name":"operator","type":"address","internalType":"address"},{"name":"defaultRecipient","type":"address","internalType":"address"},{"name":"feeRecipient","type":"address","internalType":"address"},{"name":"commissionRate","type":"uint256","internalType":"uint256"}]}],"outputs":[],"stateMutability":"nonpayable"},{"type":"function","name":"supportsInterface","inputs":[{"name":"interfaceId","type":"bytes4","internalType":"bytes4"}],"outputs":[{"name":"","type":"bool","internalType":"bool"}],"stateMutability":"view"},{"type":"function","name":"upgradeToAndCall","inputs":[{"name":"newImplementation","type":"address","internalType":"address"},{"name":"data","type":"bytes","internalType":"bytes"}],"outputs":[],"stateMutability":"payable"},{"type":"event","name":"DistributionConfigSet","inputs":[{"name":"validator","type":"address","indexed":true,"internalType":"address"},{"name":"startEpoch","type":"uint256","indexed":true,"internalType":"uint256"},{"name":"config","type":"tuple","indexed":false,"internalType":"struct IRewardRouter.DistributionConfig","components":[{"name":"targets","type":"address[]","internalType":"address[]"},{"name":"operator","type":"address","internalType":"address"},{"name":"defaultRecipient","type":"address","internalType":"address"},{"name":"feeRecipient","type":"address","internalType":"address"},{"name":"commissionRate","type":"uint256","internalType":"uint256"}]}],"anonymous":false},{"type":"event","name":"EpochRewardsFinalized","inputs":[{"name":"epoch","type":"uint256","indexed":true,"internalType":"uint256"},{"name":"validator","type":"address","indexed":true,"internalType":"address"},{"name":"totalGmMito","type":"uint256","indexed":false,"internalType":"uint256"},{"name":"totalTWAB","type":"uint256","indexed":false,"internalType":"uint256"}],"anonymous":false},{"type":"event","name":"FeeTaken","inputs":[{"name":"epoch","type":"uint256","indexed":true,"internalType":"uint256"},{"name":"validator","type":"address","indexed":true,"internalType":"address"},{"name":"vault","type":"address","indexed":true,"internalType":"address"},{"name":"amount","type":"uint256","indexed":false,"internalType":"uint256"}],"anonymous":false},{"type":"event","name":"GmMitoTransferred","inputs":[{"name":"vault","type":"address","indexed":true,"internalType":"address"},{"name":"gmMitoAmount","type":"uint256","indexed":false,"internalType":"uint256"}],"anonymous":false},{"type":"event","name":"Initialized","inputs":[{"name":"version","type":"uint64","indexed":false,"internalType":"uint64"}],"anonymous":false},{"type":"event","name":"NonTargetRewardsClaimed","inputs":[{"name":"epoch","type":"uint256","indexed":true,"internalType":"uint256"},{"name":"validator","type":"address","indexed":true,"internalType":"address"},{"name":"vault","type":"address","indexed":true,"internalType":"address"},{"name":"recipient","type":"address","indexed":false,"internalType":"address"},{"name":"amount","type":"uint256","indexed":false,"internalType":"uint256"}],"anonymous":false},{"type":"event","name":"RewardDistributed","inputs":[{"name":"validator","type":"address","indexed":true,"internalType":"address"},{"name":"gmMitoAmount","type":"uint256","indexed":false,"internalType":"uint256"}],"anonymous":false},{"type":"event","name":"RoleAdminChanged","inputs":[{"name":"role","type":"bytes32","indexed":true,"internalType":"bytes32"},{"name":"previousAdminRole","type":"bytes32","indexed":true,"internalType":"bytes32"},{"name":"newAdminRole","type":"bytes32","indexed":true,"internalType":"bytes32"}],"anonymous":false},{"type":"event","name":"RoleGranted","inputs":[{"name":"role","type":"bytes32","indexed":true,"internalType":"bytes32"},{"name":"account","type":"address","indexed":true,"internalType":"address"},{"name":"sender","type":"address","indexed":true,"internalType":"address"}],"anonymous":false},{"type":"event","name":"RoleRevoked","inputs":[{"name":"role","type":"bytes32","indexed":true,"internalType":"bytes32"},{"name":"account","type":"address","indexed":true,"internalType":"address"},{"name":"sender","type":"address","indexed":true,"internalType":"address"}],"anonymous":false},{"type":"event","name":"Upgraded","inputs":[{"name":"implementation","type":"address","indexed":true,"internalType":"address"}],"anonymous":false},{"type":"event","name":"VaultShareClaimed","inputs":[{"name":"epoch","type":"uint256","indexed":true,"internalType":"uint256"},{"name":"validator","type":"address","indexed":true,"internalType":"address"},{"name":"vault","type":"address","indexed":true,"internalType":"address"},{"name":"vaultTWAB","type":"uint256","indexed":false,"internalType":"uint256"},{"name":"gmMitoAmount","type":"uint256","indexed":false,"internalType":"uint256"}],"anonymous":false},{"type":"error","name":"AccessControlBadConfirmation","inputs":[]},{"type":"error","name":"AccessControlUnauthorizedAccount","inputs":[{"name":"account","type":"address","internalType":"address"},{"name":"neededRole","type":"bytes32","internalType":"bytes32"}]},{"type":"error","name":"AddressEmptyCode","inputs":[{"name":"target","type":"address","internalType":"address"}]},{"type":"error","name":"ERC1967InvalidImplementation","inputs":[{"name":"implementation","type":"address","internalType":"address"}]},{"type":"error","name":"ERC1967NonPayable","inputs":[]},{"type":"error","name":"EpochAlreadyFinalized","inputs":[]},{"type":"error","name":"FailedCall","inputs":[]},{"type":"error","name":"InvalidCommissionRate","inputs":[{"name":"rate","type":"uint256","internalType":"uint256"}]},{"type":"error","name":"InvalidEpoch","inputs":[]},{"type":"error","name":"InvalidEpochOrder","inputs":[{"name":"startEpoch","type":"uint256","internalType":"uint256"},{"name":"lastConfigEpoch","type":"uint256","internalType":"uint256"}]},{"type":"error","name":"InvalidInitialization","inputs":[]},{"type":"error","name":"InvalidValidator","inputs":[]},{"type":"error","name":"InvalidVault","inputs":[]},{"type":"error","name":"LengthMismatch","inputs":[]},{"type":"error","name":"NoEpochs","inputs":[]},{"type":"error","name":"NoRewards","inputs":[]},{"type":"error","name":"NotInitializing","inputs":[]},{"type":"error","name":"NotTarget","inputs":[]},{"type":"error","name":"UUPSUnauthorizedCallContext","inputs":[]},{"type":"error","name":"UUPSUnsupportedProxiableUUID","inputs":[{"name":"slot","type":"bytes32","internalType":"bytes32"}]},{"type":"error","name":"Unauthorized","inputs":[]},{"type":"error","name":"ZeroAddress","inputs":[]},{"type":"error","name":"ZeroAmount","inputs":[]}],"bytecode":{"object":"0x61018060405230608052348015610014575f5ffd5b506040516150a13803806150a1833981016040819052610033916102fc565b8585858585856001600160a01b0386166100605760405163d92e233d60e01b815260040160405180910390fd5b6001600160a01b0385166100875760405163d92e233d60e01b815260040160405180910390fd5b6001600160a01b0384166100ae5760405163d92e233d60e01b815260040160405180910390fd5b6001600160a01b0383166100d55760405163d92e233d60e01b815260040160405180910390fd5b6001600160a01b0382166100fc5760405163d92e233d60e01b815260040160405180910390fd5b6001600160a01b0381166101235760405163d92e233d60e01b815260040160405180910390fd5b6001600160a01b0380871660e05285811660c05284811661010052838116610140528281166101208190529082166101605260408051630bdcaec360e41b8152905163bdcaec30916004808201926020929091908290030181865afa15801561018e573d5f5f3e3d5ffd5b505050506040513d601f19601f820116820180604052508101906101b2919061037f565b6001600160a01b031663caffd74e6040518163ffffffff1660e01b8152600401602060405180830381865afa1580156101ed573d5f5f3e3d5ffd5b505050506040513d601f19601f82011682018060405250810190610211919061037f565b6001600160a01b031660a052610225610236565b5050505050505050505050506103a1565b7ff0c57e16840df040f15088dc2f81fe391c3923bec73e23a9662efc9c229c6a00805468010000000000000000900460ff16156102865760405163f92ee8a960e01b815260040160405180910390fd5b80546001600160401b03908116146102e55780546001600160401b0319166001600160401b0390811782556040519081527fc7f505b2f371ae2175ee4913f4499e1f2633a7b5936321eed1cdaeb6115181d29060200160405180910390a15b50565b6001600160a01b03811681146102e5575f5ffd5b5f5f5f5f5f5f60c08789031215610311575f5ffd5b865161031c816102e8565b602088015190965061032d816102e8565b604088015190955061033e816102e8565b606088015190945061034f816102e8565b6080880151909350610360816102e8565b60a0880151909250610371816102e8565b809150509295509295509295565b5f6020828403121561038f575f5ffd5b815161039a816102e8565b9392505050565b60805160a05160c05160e05161010051610120516101405161016051614bfd6104a45f395f8181610804015261331201525f81816109a1015281816111b5015281816113cb01528181611449015281816127df0152818161287401528181612f3e01528181612fd30152818161374301526137d801525f61062a01525f81816105b901528181611650015281816127b001528181612f0f015261371401525f81816102c1015281816102f001526108b201525f818161051f01528181610bf90152818161113c0152818161154c015281816118ce01528181612b820152613b5101525f61096e01525f8181612c0c01528181612c350152612de90152614bfd5ff3fe6080604052600436106102b9575f3560e01c806393f37e4411610170578063b919ba1a116100d1578063dd6b645611610087578063f5b541a611610062578063f5b541a6146109e2578063fb1615c714610a15578063fe1a624314610a34575f5ffd5b8063dd6b64561461095d578063f3adae7714610990578063f47f0084146109c3575f5ffd5b8063ca15c873116100b7578063ca15c873146108f3578063d547741f14610912578063d9abb43314610931575f5ffd5b8063b919ba1a146108a1578063c4d66de8146108d4575f5ffd5b8063ad3cb1cc11610126578063b175eb4d1161010c578063b175eb4d14610826578063b3f74dca1461086e578063b8a15e3a1461088d575f5ffd5b8063ad3cb1cc1461079e578063ae9483e0146107f3575f5ffd5b80639f4c271e116101565780639f4c271e1461070c578063a217fddf1461075f578063a3246ad314610772575f5ffd5b806393f37e44146106ce57806394bfd604146106ed575f5ffd5b80634f1ef2861161021a5780637c8cca36116101d05780638de728e4116101b65780638de728e4146106195780639010d07c1461064c57806391d148541461066b575f5ffd5b80637c8cca36146105db5780637ca35209146105fa575f5ffd5b8063564cdf0811610200578063564cdf081461058057806376671808146105945780637a79bd5c146105a8575f5ffd5b80634f1ef2861461055957806352d1902d1461056c575f5ffd5b80632f2ff15d1161026f5780633653d27f116102555780633653d27f146104d057806336568abe146104ef5780633bed90ce1461050e575f5ffd5b80632f2ff15d146104925780633075fe4e146104b1575f5ffd5b80631e9ca6e81161029f5780631e9ca6e8146103c6578063248a9ca314610419578063262dd9fe14610466575f5ffd5b806301ffc9a7146103655780631de9d9b614610399575f5ffd5b3661036157337f00000000000000000000000000000000000000000000000000000000000000006001600160a01b03161461035f577f00000000000000000000000000000000000000000000000000000000000000006001600160a01b031663d0e30db0346040518263ffffffff1660e01b81526004015f604051808303818588803b158015610347575f5ffd5b505af1158015610359573d5f5f3e3d5ffd5b50505050505b005b5f5ffd5b348015610370575f5ffd5b5061038461037f3660046140c7565b610ac1565b60405190151581526020015b60405180910390f35b3480156103a4575f5ffd5b506103b86103b336600461412a565b610b1c565b604051908152602001610390565b3480156103d1575f5ffd5b506103b86103e036600461412a565b6001600160a01b03165f9081527ffa2183a4b9e35594495ef24f5060c5bba566c21a062a2b524b653f03c859a704602052604090205490565b348015610424575f5ffd5b506103b8610433366004614145565b5f9081527f02dd7bc7dec4dceedda775e58dd541e08a116c6c53815c0bd028192f7b626800602052604090206001015490565b348015610471575f5ffd5b5061048561048036600461415c565b610cf7565b6040516103909190614186565b34801561049d575f5ffd5b5061035f6104ac366004614230565b610de4565b3480156104bc575f5ffd5b506103b86104cb36600461425e565b610e2d565b3480156104db575f5ffd5b506103b86104ea3660046142e9565b610f51565b3480156104fa575f5ffd5b5061035f610509366004614230565b61106e565b348015610519575f5ffd5b506105417f000000000000000000000000000000000000000000000000000000000000000081565b6040516001600160a01b039091168152602001610390565b61035f6105673660046143fa565b6110bf565b348015610577575f5ffd5b506103b86110de565b34801561058b575f5ffd5b506103b861110c565b34801561059f575f5ffd5b506103b86111b2565b3480156105b3575f5ffd5b506105417f000000000000000000000000000000000000000000000000000000000000000081565b3480156105e6575f5ffd5b506103b86105f5366004614230565b61120f565b348015610605575f5ffd5b506103b8610614366004614487565b611797565b348015610624575f5ffd5b506105417f000000000000000000000000000000000000000000000000000000000000000081565b348015610657575f5ffd5b506105416106663660046144b9565b6118fd565b348015610676575f5ffd5b50610384610685366004614230565b5f9182527f02dd7bc7dec4dceedda775e58dd541e08a116c6c53815c0bd028192f7b626800602090815260408084206001600160a01b0393909316845291905290205460ff1690565b3480156106d9575f5ffd5b506103b86106e83660046144d9565b61193d565b3480156106f8575f5ffd5b5061048561070736600461415c565b611991565b348015610717575f5ffd5b506103b861072636600461412a565b6001600160a01b03165f9081527ffa2183a4b9e35594495ef24f5060c5bba566c21a062a2b524b653f03c859a702602052604090205490565b34801561076a575f5ffd5b506103b85f81565b34801561077d575f5ffd5b5061079161078c366004614145565b611aaa565b604051610390919061455b565b3480156107a9575f5ffd5b506107e66040518060400160405280600581526020017f352e302e3000000000000000000000000000000000000000000000000000000081525081565b604051610390919061456d565b3480156107fe575f5ffd5b506105417f000000000000000000000000000000000000000000000000000000000000000081565b348015610831575f5ffd5b506107e66040518060400160405280600681526020017f76302e302e33000000000000000000000000000000000000000000000000000081525081565b348015610879575f5ffd5b5061035f6108883660046145a2565b611ae6565b348015610898575f5ffd5b506107e6611e96565b3480156108ac575f5ffd5b506105417f000000000000000000000000000000000000000000000000000000000000000081565b3480156108df575f5ffd5b5061035f6108ee36600461412a565b611eb2565b3480156108fe575f5ffd5b506103b861090d366004614145565b612082565b34801561091d575f5ffd5b5061035f61092c366004614230565b6120b9565b34801561093c575f5ffd5b5061095061094b366004614487565b6120fc565b6040516103909190614670565b348015610968575f5ffd5b506105417f000000000000000000000000000000000000000000000000000000000000000081565b34801561099b575f5ffd5b506105417f000000000000000000000000000000000000000000000000000000000000000081565b3480156109ce575f5ffd5b5061035f6109dd3660046146b2565b61223d565b3480156109ed575f5ffd5b506103b87f46a52cf33029de9f84853745a87af28464c80bf0346df1b32e205fc73319f62281565b348015610a20575f5ffd5b50610384610a2f366004614702565b6125fa565b348015610a3f575f5ffd5b50610aa4610a4e366004614230565b6001600160a01b03165f9081527ffa2183a4b9e35594495ef24f5060c5bba566c21a062a2b524b653f03c859a700602090815260408083209383529290522080546001820154600290920154909260ff90911690565b604080519384526020840192909252151590820152606001610390565b5f7fffffffff0000000000000000000000000000000000000000000000000000000082167f5a05180f000000000000000000000000000000000000000000000000000000001480610b165750610b168261263e565b92915050565b5f7f46a52cf33029de9f84853745a87af28464c80bf0346df1b32e205fc73319f622610b47816126d4565b6001600160a01b038316610b87576040517fd92e233d00000000000000000000000000000000000000000000000000000000815260040160405180910390fd5b6040805160018082528183019092525f916020808301908036833701905050905083815f81518110610bbb57610bbb614740565b6001600160a01b0392831660209182029290920101526040517f3f2a33f90000000000000000000000000000000000000000000000000000000081527f000000000000000000000000000000000000000000000000000000000000000090911690633f2a33f990610c32908490309060040161476d565b6020604051808303815f875af1158015610c4e573d5f5f3e3d5ffd5b505050506040513d601f19601f82011682018060405250810190610c729190614797565b92505f8311610cad576040517f3fb087f400000000000000000000000000000000000000000000000000000000815260040160405180910390fd5b836001600160a01b03167fe34918ff1c7084970068b53fd71ad6d8b04e9f15d3886cbf006443e6cdc52ea684604051610ce891815260200190565b60405180910390a25050919050565b6040805160a08101825260608082525f60208301819052928201839052810182905260808101829052907ffa2183a4b9e35594495ef24f5060c5bba566c21a062a2b524b653f03c859a70090610d4e8286866126e1565b805460408051602080840282018101909252828152929350839190830182828015610da057602002820191905f5260205f20905b81546001600160a01b03168152600190910190602001808311610d82575b505050918552505060018101546001600160a01b03908116602085015260028201548116604085015260038201541660608401526004015460808301525092915050565b5f8281527f02dd7bc7dec4dceedda775e58dd541e08a116c6c53815c0bd028192f7b6268006020526040902060010154610e1d816126d4565b610e27838361271b565b50505050565b5f6001600160a01b038516610e6e576040517fd92e233d00000000000000000000000000000000000000000000000000000000815260040160405180910390fd5b6001600160a01b038416610eae576040517fd92e233d00000000000000000000000000000000000000000000000000000000815260040160405180910390fd5b5f83118015610ebd5750828210155b610ef3576040517fd5b25b6300000000000000000000000000000000000000000000000000000000815260040160405180910390fd5b7ffa2183a4b9e35594495ef24f5060c5bba566c21a062a2b524b653f03c859a700835b838111610f4757610f2982888884612770565b610f3390846147db565b925080610f3f816147ee565b915050610f16565b5050949350505050565b5f6001600160a01b038616610f92576040517fd92e233d00000000000000000000000000000000000000000000000000000000815260040160405180910390fd5b5f83118015610fa15750828210155b610fd7576040517fd5b25b6300000000000000000000000000000000000000000000000000000000815260040160405180910390fd5b335f8181527f11408c214e50776f0f6e546bf3b89e7953bf3ba3b172efa6ff1ba292b2d1b3b260205260409020547ffa2183a4b9e35594495ef24f5060c5bba566c21a062a2b524b653f03c859a700919060ff16855b85811161106157611043848b8b8b858888612a68565b61104d90866147db565b945080611059816147ee565b91505061102d565b5050505095945050505050565b6001600160a01b03811633146110b0576040517f6697b23200000000000000000000000000000000000000000000000000000000815260040160405180910390fd5b6110ba8282612bb5565b505050565b6110c7612c01565b6110d082612cd3565b6110da8282612cdd565b5050565b5f6110e7612dde565b507f360894a13ba1a3210667c828492db98dca3e2076cc3735a920a3ca505d382bbc90565b6040517f70a082310000000000000000000000000000000000000000000000000000000081523060048201525f907f00000000000000000000000000000000000000000000000000000000000000006001600160a01b0316906370a0823190602401602060405180830381865afa158015611189573d5f5f3e3d5ffd5b505050506040513d601f19601f820116820180604052508101906111ad9190614797565b905090565b5f7f00000000000000000000000000000000000000000000000000000000000000006001600160a01b031663900cf0cf6040518163ffffffff1660e01b8152600401602060405180830381865afa158015611189573d5f5f3e3d5ffd5b5f7f46a52cf33029de9f84853745a87af28464c80bf0346df1b32e205fc73319f62261123a816126d4565b6001600160a01b03831661127a576040517fd92e233d00000000000000000000000000000000000000000000000000000000815260040160405180910390fd5b5f84116112b3576040517fd5b25b6300000000000000000000000000000000000000000000000000000000815260040160405180910390fd5b6001600160a01b0383165f9081527ffa2183a4b9e35594495ef24f5060c5bba566c21a062a2b524b653f03c859a70060208181526040808420888552909152909120600281015460ff1615611334576040517f3366263c00000000000000000000000000000000000000000000000000000000815260040160405180910390fd5b6001600160a01b0385165f9081526002830160205260409020546113598160016147db565b871480611364575080155b61139a576040517fd5b25b6300000000000000000000000000000000000000000000000000000000815260040160405180910390fd5b6040517f6f5e290f000000000000000000000000000000000000000000000000000000008152600481018890525f907f00000000000000000000000000000000000000000000000000000000000000006001600160a01b031690636f5e290f90602401602060405180830381865afa158015611418573d5f5f3e3d5ffd5b505050506040513d601f19601f8201168201806040525081019061143c9190614825565b90505f6001600160a01b037f000000000000000000000000000000000000000000000000000000000000000016636f5e290f6114798b60016147db565b6040518263ffffffff1660e01b815260040161149791815260200190565b602060405180830381865afa1580156114b2573d5f5f3e3d5ffd5b505050506040513d601f19601f820116820180604052508101906114d69190614825565b6040805160018082528183019092529192505f91906020808301908036833701905050905088815f8151811061150e5761150e614740565b6001600160a01b0392831660209182029290920101526040517f3f2a33f90000000000000000000000000000000000000000000000000000000081527f000000000000000000000000000000000000000000000000000000000000000090911690633f2a33f990611585908490309060040161476d565b6020604051808303815f875af11580156115a1573d5f5f3e3d5ffd5b505050506040513d601f19601f820116820180604052508101906115c59190614797565b97505f8811611600576040517f3fb087f400000000000000000000000000000000000000000000000000000000815260040160405180910390fd5b6040517f2cba54da0000000000000000000000000000000000000000000000000000000081526001600160a01b038a8116600483015265ffffffffffff8086166024840152841660448301525f917f000000000000000000000000000000000000000000000000000000000000000090911690632cba54da90606401602060405180830381865afa158015611697573d5f5f3e3d5ffd5b505050506040513d601f19601f820116820180604052508101906116bb9190614797565b90505f81116116f6576040517f3fb087f400000000000000000000000000000000000000000000000000000000815260040160405180910390fd5b8886556001808701829055600280880180547fffffffffffffffffffffffffffffffffffffffffffffffffffffffffffffff00169092179091556001600160a01b038b165f81815291890160209081526040928390208e905582518c815290810184905290918d917fcad4bb3e722125ec372957e194e1fcbb73b8286b53632f18284e589d84f33bb6910160405180910390a3505050505050505092915050565b5f6001600160a01b0384166117d8576040517fd92e233d00000000000000000000000000000000000000000000000000000000815260040160405180910390fd5b5f831180156117e75750828210155b61181d576040517fd5b25b6300000000000000000000000000000000000000000000000000000000815260040160405180910390fd5b337ffa2183a4b9e35594495ef24f5060c5bba566c21a062a2b524b653f03c859a700845b8481116118c2575f6118548389846126e1565b90506118608185612e40565b611896576040517f65ec05a200000000000000000000000000000000000000000000000000000000815260040160405180910390fd5b6118a283838a87612ea0565b6118ac90866147db565b94505080806118ba906147ee565b915050611841565b5082156118f4576118f47f000000000000000000000000000000000000000000000000000000000000000083856131f7565b50509392505050565b5f8281527fc1f6fe24621ce81ec5827caf0253cadb74709b061630e6b55e82371705932000602081905260408220611935908461324a565b949350505050565b6001600160a01b038281165f9081527ffa2183a4b9e35594495ef24f5060c5bba566c21a062a2b524b653f03c859a701602090815260408083209385168352928152828220868352905220545b9392505050565b6040805160a08101825260608082525f6020808401829052838501829052918301819052608083018190526001600160a01b03861681527ffa2183a4b9e35594495ef24f5060c5bba566c21a062a2b524b653f03c859a70382528381208582528252839020805484518184028101840190955280855292937ffa2183a4b9e35594495ef24f5060c5bba566c21a062a2b524b653f03c859a70093919290918391830182828015610da057602002820191905f5260205f209081546001600160a01b03168152600190910190602001808311610d8257505050918552505060018101546001600160a01b03908116602085015260028201548116604085015260038201541660608401526004015460808301525092915050565b5f8181527fc1f6fe24621ce81ec5827caf0253cadb74709b061630e6b55e82371705932000602081905260409091206060919061198a90613255565b5f611af0816126d4565b878614611b29576040517fff633a3800000000000000000000000000000000000000000000000000000000815260040160405180910390fd5b878414611b62576040517fff633a3800000000000000000000000000000000000000000000000000000000815260040160405180910390fd5b878214611b9b576040517fff633a3800000000000000000000000000000000000000000000000000000000815260040160405180910390fd5b7ffa2183a4b9e35594495ef24f5060c5bba566c21a062a2b524b653f03c859a700805f5b8a811015611e88575f8c8c83818110611bda57611bda614740565b9050602002016020810190611bef919061412a565b90505f8b8b84818110611c0457611c04614740565b9050602002016020810190611c19919061412a565b90505f8a8a85818110611c2e57611c2e614740565b9050602002016020810190611c43919061412a565b90505f898986818110611c5857611c58614740565b9050602002016020810190611c6d919061412a565b6001600160a01b0385165f9081526004890160205260409020805491925090611cc2576040517fa88e39ff00000000000000000000000000000000000000000000000000000000815260040160405180910390fd5b5f5b8154811015611e76575f828281548110611ce057611ce0614740565b905f5260205f20015490505f8a6003015f896001600160a01b03166001600160a01b031681526020019081526020015f205f8381526020019081526020015f2090505f8a6003015f8a6001600160a01b03166001600160a01b031681526020019081526020015f205f8481526020019081526020015f20905087816001015f6101000a8154816001600160a01b0302191690836001600160a01b0316021790555086816002015f6101000a8154816001600160a01b0302191690836001600160a01b0316021790555085816003015f6101000a8154816001600160a01b0302191690836001600160a01b0316021790555081600101548160040181905550805f015f611dec9190614099565b5f5b8254811015611e665782548290849083908110611e0d57611e0d614740565b5f918252602080832090910154835460018181018655948452919092200180547fffffffffffffffffffffffff0000000000000000000000000000000000000000166001600160a01b0390921691909117905501611dee565b505060019092019150611cc49050565b505060019094019350611bbf92505050565b505050505050505050505050565b604051806060016040528060288152602001614ba06028913981565b7ff0c57e16840df040f15088dc2f81fe391c3923bec73e23a9662efc9c229c6a00805468010000000000000000810460ff16159067ffffffffffffffff165f81158015611efc5750825b90505f8267ffffffffffffffff166001148015611f185750303b155b905081158015611f26575080155b15611f5d576040517ff92ee8a900000000000000000000000000000000000000000000000000000000815260040160405180910390fd5b84547fffffffffffffffffffffffffffffffffffffffffffffffff00000000000000001660011785558315611fbe5784547fffffffffffffffffffffffffffffffffffffffffffffff00ffffffffffffffff16680100000000000000001785555b6001600160a01b038616611ffe576040517fd92e233d00000000000000000000000000000000000000000000000000000000815260040160405180910390fd5b612006613261565b61200e613261565b6120185f8761271b565b50831561207a5784547fffffffffffffffffffffffffffffffffffffffffffffff00ffffffffffffffff168555604051600181527fc7f505b2f371ae2175ee4913f4499e1f2633a7b5936321eed1cdaeb6115181d29060200160405180910390a15b505050505050565b5f8181527fc1f6fe24621ce81ec5827caf0253cadb74709b061630e6b55e8237170593200060208190526040822061198a90613269565b5f8281527f02dd7bc7dec4dceedda775e58dd541e08a116c6c53815c0bd028192f7b62680060205260409020600101546120f2816126d4565b610e278383612bb5565b6001600160a01b0383165f9081527ffa2183a4b9e35594495ef24f5060c5bba566c21a062a2b524b653f03c859a70460205260409020805460609190808510612174575f5b60405190808252806020026020018201604052801561216a578160200160208202803683370190505b509250505061198a565b80841115612180578093505b84841161218d575f612141565b5f612198868661484a565b90508067ffffffffffffffff8111156121b3576121b361434b565b6040519080825280602002602001820160405280156121dc578160200160208202803683370190505b5093505f5b8181101561223257836121f482896147db565b8154811061220457612204614740565b905f5260205f20015485828151811061221f5761221f614740565b60209081029190910101526001016121e1565b505050509392505050565b6001600160a01b03831661227d576040517fd92e233d00000000000000000000000000000000000000000000000000000000815260040160405180910390fd5b60808101356127108111156122ca576040517f7c27fae20000000000000000000000000000000000000000000000000000000081526004016122c191815260200190565b60405180910390fd5b507ffa2183a4b9e35594495ef24f5060c5bba566c21a062a2b524b653f03c859a7006122f7818585613272565b6001600160a01b0384165f90815260048201602052604090208054156123b357805481906123279060019061484a565b8154811061233757612337614740565b905f5260205f200154841015848260018480549050612356919061484a565b8154811061236657612366614740565b905f5260205f20015490916123b0576040517f84122f38000000000000000000000000000000000000000000000000000000008152600481019290925260248201526044016122c1565b50505b6001600160a01b0385165f9081526003830160209081526040808320878452825291829020916123e89190860190860161412a565b6001820180547fffffffffffffffffffffffff0000000000000000000000000000000000000000166001600160a01b0392909216919091179055612432606085016040860161412a565b6002820180547fffffffffffffffffffffffff0000000000000000000000000000000000000000166001600160a01b039290921691909117905561247c608085016060860161412a565b6003820180547fffffffffffffffffffffffff0000000000000000000000000000000000000000166001600160a01b0392909216919091179055608084013560048201556124ca815f614099565b5f5b6124d6858061485d565b905081101561255e57816124ea868061485d565b838181106124fa576124fa614740565b905060200201602081019061250f919061412a565b8154600180820184555f93845260209093200180547fffffffffffffffffffffffff0000000000000000000000000000000000000000166001600160a01b0392909216919091179055016124cc565b5081541580612596575081548590839061257a9060019061484a565b8154811061258a5761258a614740565b905f5260205f20015414155b156125b05781546001810183555f83815260209020018590555b84866001600160a01b03167ffa86f71fb405a4f3c8fe0b059720aad6817a4c3fd9ef40267d349ebf42d5c447866040516125ea91906148ff565b60405180910390a3505050505050565b5f7ffa2183a4b9e35594495ef24f5060c5bba566c21a062a2b524b653f03c859a700816126288287866126e1565b90506126348186612e40565b9695505050505050565b5f7fffffffff0000000000000000000000000000000000000000000000000000000082167f7965db0b000000000000000000000000000000000000000000000000000000001480610b1657507f01ffc9a7000000000000000000000000000000000000000000000000000000007fffffffff00000000000000000000000000000000000000000000000000000000831614610b16565b6126de81336133ce565b50565b5f5f6126ee85858561345a565b6001600160a01b0385165f9081526003870160209081526040808320938352929052209150509392505050565b5f7fc1f6fe24621ce81ec5827caf0253cadb74709b061630e6b55e823717059320008161274885856134fa565b90508015611935575f85815260208390526040902061276790856135e4565b50949350505050565b6001600160a01b038084165f90815260018601602090815260408083209386168352928152828220848352905290812054156127ad57505f611935565b5f7f00000000000000000000000000000000000000000000000000000000000000006001600160a01b03166390aaa0467f00000000000000000000000000000000000000000000000000000000000000006001600160a01b0316636f5e290f866040518263ffffffff1660e01b815260040161282b91815260200190565b602060405180830381865afa158015612846573d5f5f3e3d5ffd5b505050506040513d601f19601f8201168201806040525081019061286a9190614825565b6001600160a01b037f000000000000000000000000000000000000000000000000000000000000000016636f5e290f6128a48860016147db565b6040518263ffffffff1660e01b81526004016128c291815260200190565b602060405180830381865afa1580156128dd573d5f5f3e3d5ffd5b505050506040513d601f19601f820116820180604052508101906129019190614825565b6040517fffffffff0000000000000000000000000000000000000000000000000000000060e085901b16815265ffffffffffff9283166004820152911660248201526001600160a01b03808916604483015287166064820152608401602060405180830381865afa158015612978573d5f5f3e3d5ffd5b505050506040513d601f19601f8201168201806040525081019061299c9190614797565b9050805f036129ae575f915050611935565b6001600160a01b0385165f908152602087815260408083208684529091529020600281015460ff166129e4575f92505050611935565b5f6129f7825f01548484600101546135f8565b90505f612a058989886126e1565b9050612a118188612e40565b15612a5c5760038101546001600160a01b031615801590612a3557505f8160040154115b15612a5c575f612a4c8383600401546127106135f8565b9050612a58818461484a565b9250505b50979650505050505050565b5f5f612a758989876126e1565b90508280612a92575060018101546001600160a01b038581169116145b80612aac575060028101546001600160a01b038581169116145b612ae2576040517f82b4290000000000000000000000000000000000000000000000000000000000815260040160405180910390fd5b60028101546001600160a01b03165f5b87811015612b7657612b2a838a8a84818110612b1057612b10614740565b9050602002016020810190612b25919061412a565b612e40565b612b6e57612b618b888c8c8c86818110612b4657612b46614740565b9050602002016020810190612b5b919061412a565b866136a5565b612b6b90856147db565b93505b600101612af2565b508215612ba857612ba87f000000000000000000000000000000000000000000000000000000000000000082856131f7565b5050979650505050505050565b5f7fc1f6fe24621ce81ec5827caf0253cadb74709b061630e6b55e8237170593200081612be285856139cc565b90508015611935575f8581526020839052604090206127679085613a8e565b306001600160a01b037f0000000000000000000000000000000000000000000000000000000000000000161480612c9a57507f00000000000000000000000000000000000000000000000000000000000000006001600160a01b0316612c8e7f360894a13ba1a3210667c828492db98dca3e2076cc3735a920a3ca505d382bbc546001600160a01b031690565b6001600160a01b031614155b15612cd1576040517fe07c8dba00000000000000000000000000000000000000000000000000000000815260040160405180910390fd5b565b5f6110da816126d4565b816001600160a01b03166352d1902d6040518163ffffffff1660e01b8152600401602060405180830381865afa925050508015612d37575060408051601f3d908101601f19168201909252612d3491810190614797565b60015b612d78576040517f4c9c8ce30000000000000000000000000000000000000000000000000000000081526001600160a01b03831660048201526024016122c1565b7f360894a13ba1a3210667c828492db98dca3e2076cc3735a920a3ca505d382bbc8114612dd4576040517faa1d49a4000000000000000000000000000000000000000000000000000000008152600481018290526024016122c1565b6110ba8383613aa2565b306001600160a01b037f00000000000000000000000000000000000000000000000000000000000000001614612cd1576040517fe07c8dba00000000000000000000000000000000000000000000000000000000815260040160405180910390fd5b81545f90815b81811015612e9657836001600160a01b0316858281548110612e6a57612e6a614740565b5f918252602090912001546001600160a01b031603612e8e57600192505050610b16565b600101612e46565b505f949350505050565b6001600160a01b0382165f9081526020858152604080832086845290915281206002015460ff161580612f0057506001600160a01b038084165f908152600187016020908152604080832093861683529281528282208783529052205415155b15612f0c57505f611935565b5f7f00000000000000000000000000000000000000000000000000000000000000006001600160a01b03166390aaa0467f00000000000000000000000000000000000000000000000000000000000000006001600160a01b0316636f5e290f886040518263ffffffff1660e01b8152600401612f8a91815260200190565b602060405180830381865afa158015612fa5573d5f5f3e3d5ffd5b505050506040513d601f19601f82011682018060405250810190612fc99190614825565b6001600160a01b037f000000000000000000000000000000000000000000000000000000000000000016636f5e290f6130038a60016147db565b6040518263ffffffff1660e01b815260040161302191815260200190565b602060405180830381865afa15801561303c573d5f5f3e3d5ffd5b505050506040513d601f19601f820116820180604052508101906130609190614825565b6040517fffffffff0000000000000000000000000000000000000000000000000000000060e085901b16815265ffffffffffff9283166004820152911660248201526001600160a01b03808816604483015286166064820152608401602060405180830381865afa1580156130d7573d5f5f3e3d5ffd5b505050506040513d601f19601f820116820180604052508101906130fb9190614797565b9050805f0361310d575f915050611935565b6001600160a01b0384165f90815260208781526040808320888452909152812080546001820154613140919085906135f8565b9350839150508015610f47576001600160a01b038086165f9081526001890160209081526040808320938816835292815282822089835290522081905561318a8786888785613af7565b613194908461484a565b9250836001600160a01b0316856001600160a01b0316877f39b62d670bf3a6b5e9b4bfd6dca9494ee4923d64014b74bbf4a13f5b09d5903a85876040516131e5929190918252602082015260400190565b60405180910390a45050949350505050565b81601452806034526fa9059cbb0000000000000000000000005f5260205f604460105f875af18060015f51141661324057803d853b151710613240576390b8ec185f526004601cfd5b505f603452505050565b5f61198a8383613bbd565b60605f61198a83613be3565b612cd1613c3c565b5f610b16825490565b335f9081527fb7db2dd08fcb62d0c9e08c51941cae53c267786a0b75803fb7960902fc8ef97d602052604090205460ff16156132ad57505050565b5f6132b98484846126e1565b6001810154909150336001600160a01b03909116036132d85750505050565b6040517f4f1811dd0000000000000000000000000000000000000000000000000000000081526001600160a01b0384811660048301525f917f000000000000000000000000000000000000000000000000000000000000000090911690634f1811dd906024015f60405180830381865afa158015613358573d5f5f3e3d5ffd5b505050506040513d5f823e601f3d908101601f1916820160405261337f9190810190614a3b565b604001519050336001600160a01b0382160361339c575050505050565b6040517f82b4290000000000000000000000000000000000000000000000000000000000815260040160405180910390fd5b5f8281527f02dd7bc7dec4dceedda775e58dd541e08a116c6c53815c0bd028192f7b626800602090815260408083206001600160a01b038516845290915290205460ff166110da576040517fe2517d3f0000000000000000000000000000000000000000000000000000000081526001600160a01b0382166004820152602481018390526044016122c1565b6001600160a01b0382165f908152600484016020526040812080548203613484575f91505061198a565b82815f8154811061349757613497614740565b905f5260205f20015411156134af575f91505061198a565b5f6134bb868686613ca3565b90505f81116134ca575f612634565b816134d660018361484a565b815481106134e6576134e6614740565b905f5260205f200154925050509392505050565b5f8281527f02dd7bc7dec4dceedda775e58dd541e08a116c6c53815c0bd028192f7b626800602081815260408084206001600160a01b038616855290915282205460ff166135db575f848152602082815260408083206001600160a01b0387168452909152902080547fffffffffffffffffffffffffffffffffffffffffffffffffffffffffffffff001660011790556135913390565b6001600160a01b0316836001600160a01b0316857f2f8788117e7eff1d82e926ec794901d17c78024a50270940304540a733656f0d60405160405180910390a46001915050610b16565b5f915050610b16565b5f61198a836001600160a01b038416613d5a565b8282028183858304148515170261369e577fffffffffffffffffffffffffffffffffffffffffffffffffffffffffffffffff8385098181108201900382848609835f0384168285116136515763ae47f7025f526004601cfd5b93849004938382119092035f83900383900460010102920304176002600383028118808402820302808402820302808402820302808402820302808402820302808402909103020261198a565b0492915050565b6001600160a01b0383165f9081526020868152604080832087845290915281206002015460ff16158061370557506001600160a01b038085165f908152600188016020908152604080832093871683529281528282208883529052205415155b1561371157505f6139c3565b5f7f00000000000000000000000000000000000000000000000000000000000000006001600160a01b03166390aaa0467f00000000000000000000000000000000000000000000000000000000000000006001600160a01b0316636f5e290f896040518263ffffffff1660e01b815260040161378f91815260200190565b602060405180830381865afa1580156137aa573d5f5f3e3d5ffd5b505050506040513d601f19601f820116820180604052508101906137ce9190614825565b6001600160a01b037f000000000000000000000000000000000000000000000000000000000000000016636f5e290f6138088b60016147db565b6040518263ffffffff1660e01b815260040161382691815260200190565b602060405180830381865afa158015613841573d5f5f3e3d5ffd5b505050506040513d601f19601f820116820180604052508101906138659190614825565b6040517fffffffff0000000000000000000000000000000000000000000000000000000060e085901b16815265ffffffffffff9283166004820152911660248201526001600160a01b03808916604483015287166064820152608401602060405180830381865afa1580156138dc573d5f5f3e3d5ffd5b505050506040513d601f19601f820116820180604052508101906139009190614797565b9050805f03613912575f9150506139c3565b6001600160a01b0385165f90815260208881526040808320898452909152902080546001820154613945919084906135f8565b925082156139c0576001600160a01b038681165f81815260018b01602090815260408083208a86168085529083528184208d85528352928190208890558051948916855290840187905290928a917f6045ec4f4247b5f3ff7e8f3aabc36ed34dceb2a6379ed41d70e47d70af8eaf2391015b60405180910390a45b50505b95945050505050565b5f8281527f02dd7bc7dec4dceedda775e58dd541e08a116c6c53815c0bd028192f7b626800602081815260408084206001600160a01b038616855290915282205460ff16156135db575f848152602082815260408083206001600160a01b038716808552925280832080547fffffffffffffffffffffffffffffffffffffffffffffffffffffffffffffff0016905551339287917ff6391f5c32d9c69d2a47ea670b442974b53935d1edc7fd64eb21e047a839171b9190a46001915050610b16565b5f61198a836001600160a01b038416613da6565b613aab82613e80565b6040516001600160a01b038316907fbc7cd75a20ee27fd9adebab32041f755214dbc6bffa90cc0225b39da2e5c2d3b905f90a2805115613aef576110ba8282613f27565b6110da613f90565b5f5f613b048787876126e1565b60038101549091506001600160a01b0316801580613b2457506004820154155b15613b33575f925050506139c3565b613b448483600401546127106135f8565b925082156139c057613b777f000000000000000000000000000000000000000000000000000000000000000082856131f7565b846001600160a01b0316876001600160a01b0316877f79cfc57d040b454ad547f083baab4ce4b8753705a4836381e8d2f874e9f1e7b5866040516139b791815260200190565b5f825f018281548110613bd257613bd2614740565b905f5260205f200154905092915050565b6060815f01805480602002602001604051908101604052809291908181526020018280548015613c3057602002820191905f5260205f20905b815481526020019060010190808311613c1c575b50505050509050919050565b7ff0c57e16840df040f15088dc2f81fe391c3923bec73e23a9662efc9c229c6a005468010000000000000000900460ff16612cd1576040517fd7e6bcf800000000000000000000000000000000000000000000000000000000815260040160405180910390fd5b6001600160a01b0382165f908152600484016020526040812080548203613ccd575f91505061198a565b82815f81548110613ce057613ce0614740565b905f5260205f2001541115613cf8575f91505061198a565b80545f905b80821015613d50575f613d108383613fc8565b905085848281548110613d2557613d25614740565b905f5260205f2001541115613d3c57809150613d4a565b613d478160016147db565b92505b50613cfd565b5095945050505050565b5f818152600183016020526040812054613d9f57508154600181810184555f848152602080822090930184905584548482528286019093526040902091909155610b16565b505f610b16565b5f81815260018301602052604081205480156135db575f613dc860018361484a565b85549091505f90613ddb9060019061484a565b9050808214613e3a575f865f018281548110613df957613df9614740565b905f5260205f200154905080875f018481548110613e1957613e19614740565b5f918252602080832090910192909255918252600188019052604090208390555b8554869080613e4b57613e4b614b24565b600190038181905f5260205f20015f90559055856001015f8681526020019081526020015f205f905560019350505050610b16565b806001600160a01b03163b5f03613ece576040517f4c9c8ce30000000000000000000000000000000000000000000000000000000081526001600160a01b03821660048201526024016122c1565b7f360894a13ba1a3210667c828492db98dca3e2076cc3735a920a3ca505d382bbc80547fffffffffffffffffffffffff0000000000000000000000000000000000000000166001600160a01b0392909216919091179055565b60605f5f846001600160a01b031684604051613f439190614b51565b5f60405180830381855af49150503d805f8114613f7b576040519150601f19603f3d011682016040523d82523d5f602084013e613f80565b606091505b50915091506139c3858383613fe2565b3415612cd1576040517fb398979f00000000000000000000000000000000000000000000000000000000815260040160405180910390fd5b5f613fd66002848418614b67565b61198a908484166147db565b606082613ff757613ff282614057565b61198a565b815115801561400e57506001600160a01b0384163b155b15614050576040517f9996b3150000000000000000000000000000000000000000000000000000000081526001600160a01b03851660048201526024016122c1565b508061198a565b8051156140675780518082602001fd5b6040517fd6bda27500000000000000000000000000000000000000000000000000000000815260040160405180910390fd5b5080545f8255905f5260205f20908101906126de91905b808211156140c3575f81556001016140b0565b5090565b5f602082840312156140d7575f5ffd5b81357fffffffff000000000000000000000000000000000000000000000000000000008116811461198a575f5ffd5b6001600160a01b03811681146126de575f5ffd5b803561412581614106565b919050565b5f6020828403121561413a575f5ffd5b813561198a81614106565b5f60208284031215614155575f5ffd5b5035919050565b5f5f6040838503121561416d575f5ffd5b823561417881614106565b946020939093013593505050565b6020808252825160a083830152805160c084018190525f929190910190829060e08501905b808310156141d7576001600160a01b0384511682526020820191506020840193506001830192506141ab565b5060208601516001600160a01b0381166040870152925060408601516001600160a01b0381166060870152925060608601516001600160a01b03811660808701529250608086015160a086015280935050505092915050565b5f5f60408385031215614241575f5ffd5b82359150602083013561425381614106565b809150509250929050565b5f5f5f5f60808587031215614271575f5ffd5b843561427c81614106565b9350602085013561428c81614106565b93969395505050506040820135916060013590565b5f5f83601f8401126142b1575f5ffd5b50813567ffffffffffffffff8111156142c8575f5ffd5b6020830191508360208260051b85010111156142e2575f5ffd5b9250929050565b5f5f5f5f5f608086880312156142fd575f5ffd5b853561430881614106565b9450602086013567ffffffffffffffff811115614323575f5ffd5b61432f888289016142a1565b9699909850959660408101359660609091013595509350505050565b7f4e487b71000000000000000000000000000000000000000000000000000000005f52604160045260245ffd5b604051610100810167ffffffffffffffff8111828210171561439c5761439c61434b565b60405290565b604051601f8201601f1916810167ffffffffffffffff811182821017156143cb576143cb61434b565b604052919050565b5f67ffffffffffffffff8211156143ec576143ec61434b565b50601f01601f191660200190565b5f5f6040838503121561440b575f5ffd5b823561441681614106565b9150602083013567ffffffffffffffff811115614431575f5ffd5b8301601f81018513614441575f5ffd5b803561445461444f826143d3565b6143a2565b818152866020838501011115614468575f5ffd5b816020840160208301375f602083830101528093505050509250929050565b5f5f5f60608486031215614499575f5ffd5b83356144a481614106565b95602085013595506040909401359392505050565b5f5f604083850312156144ca575f5ffd5b50508035926020909101359150565b5f5f5f606084860312156144eb575f5ffd5b8335925060208401356144fd81614106565b9150604084013561450d81614106565b809150509250925092565b5f8151808452602084019350602083015f5b828110156145515781516001600160a01b031686526020958601959091019060010161452a565b5093949350505050565b602081525f61198a6020830184614518565b602081525f82518060208401528060208501604085015e5f604082850101526040601f19601f83011684010191505092915050565b5f5f5f5f5f5f5f5f6080898b0312156145b9575f5ffd5b883567ffffffffffffffff8111156145cf575f5ffd5b6145db8b828c016142a1565b909950975050602089013567ffffffffffffffff8111156145fa575f5ffd5b6146068b828c016142a1565b909750955050604089013567ffffffffffffffff811115614625575f5ffd5b6146318b828c016142a1565b909550935050606089013567ffffffffffffffff811115614650575f5ffd5b61465c8b828c016142a1565b999c989b5096995094979396929594505050565b602080825282518282018190525f918401906040840190835b818110156146a7578351835260209384019390920191600101614689565b509095945050505050565b5f5f5f606084860312156146c4575f5ffd5b83356146cf81614106565b925060208401359150604084013567ffffffffffffffff8111156146f1575f5ffd5b840160a0818703121561450d575f5ffd5b5f5f5f60608486031215614714575f5ffd5b833561471f81614106565b9250602084013561472f81614106565b929592945050506040919091013590565b7f4e487b71000000000000000000000000000000000000000000000000000000005f52603260045260245ffd5b604081525f61477f6040830185614518565b90506001600160a01b03831660208301529392505050565b5f602082840312156147a7575f5ffd5b5051919050565b7f4e487b71000000000000000000000000000000000000000000000000000000005f52601160045260245ffd5b80820180821115610b1657610b166147ae565b5f7fffffffffffffffffffffffffffffffffffffffffffffffffffffffffffffffff820361481e5761481e6147ae565b5060010190565b5f60208284031215614835575f5ffd5b815165ffffffffffff8116811461198a575f5ffd5b81810381811115610b1657610b166147ae565b5f5f83357fffffffffffffffffffffffffffffffffffffffffffffffffffffffffffffffe1843603018112614890575f5ffd5b83018035915067ffffffffffffffff8211156148aa575f5ffd5b6020019150600581901b36038213156142e2575f5ffd5b8183526020830192505f815f5b848110156145515781356148e181614106565b6001600160a01b0316865260209586019591909101906001016148ce565b602081525f82357fffffffffffffffffffffffffffffffffffffffffffffffffffffffffffffffe1843603018112614935575f5ffd5b830160208101903567ffffffffffffffff811115614951575f5ffd5b8060051b3603821315614962575f5ffd5b60a0602085015261497760c0850182846148c1565b9150506149866020850161411a565b6001600160a01b0381166040850152506149a26040850161411a565b6001600160a01b0381166060850152506149be6060850161411a565b6001600160a01b0381166080850152506080939093013560a092909201919091525090565b805161412581614106565b5f82601f8301126149fd575f5ffd5b8151614a0b61444f826143d3565b818152846020838601011115614a1f575f5ffd5b8160208501602083015e5f918101602001919091529392505050565b5f60208284031215614a4b575f5ffd5b815167ffffffffffffffff811115614a61575f5ffd5b82016101008185031215614a73575f5ffd5b614a7b614378565b614a84826149e3565b8152602082015167ffffffffffffffff811115614a9f575f5ffd5b614aab868285016149ee565b602083015250614abd604083016149e3565b6040820152614ace606083016149e3565b60608201526080828101519082015260a0808301519082015260c0808301519082015260e082015167ffffffffffffffff811115614b0a575f5ffd5b614b16868285016149ee565b60e083015250949350505050565b7f4e487b71000000000000000000000000000000000000000000000000000000005f52603160045260245ffd5b5f82518060208501845e5f920191825250919050565b5f82614b9a577f4e487b71000000000000000000000000000000000000000000000000000000005f52601260045260245ffd5b50049056fe62643731663266646233373135623838633465616137393962666262323365343631623931373163a26469706673582212201a92bf667532b7cc2c62dad5b09891fa75ba98779628fde66b8c2d5c60a737a464736f6c634300081d0033","linkReferences":{}},"methodIdentifiers":{"COLLATERAL_ORACLE()":"7a79bd5c","DEFAULT_ADMIN_ROLE()":"a217fddf","EPOCH_FEEDER()":"f3adae77","GIT_COMMIT()":"b8a15e3a","GIT_TAG()":"b175eb4d","GMITO()":"dd6b6456","GM_MITO()":"3bed90ce","OPERATOR_ROLE()":"f5b541a6","REWARD_DISTRIBUTOR()":"8de728e4","UPGRADE_INTERFACE_VERSION()":"ad3cb1cc","VALIDATOR_MANAGER()":"ae9483e0","WMITO()":"b919ba1a","claimForNonTargets(address,address[],uint256,uint256)":"3653d27f","claimRewards(address,uint256,uint256)":"7ca35209","currentEpoch()":"76671808","distributeRewards(address)":"1de9d9b6","finalizeEpoch(uint256,address)":"7c8cca36","getApplicableConfig(address,uint256)":"262dd9fe","getClaimableRewards(address,address,uint256,uint256)":"3075fe4e","getConfigEpochsCount(address)":"1e9ca6e8","getConfigEpochsRange(address,uint256,uint256)":"d9abb433","getDistributionConfig(address,uint256)":"94bfd604","getEpochReward(uint256,address)":"fe1a6243","getLastFinalizedEpoch(address)":"9f4c271e","getRoleAdmin(bytes32)":"248a9ca3","getRoleMember(bytes32,uint256)":"9010d07c","getRoleMemberCount(bytes32)":"ca15c873","getRoleMembers(bytes32)":"a3246ad3","getVaultClaimed(uint256,address,address)":"93f37e44","gmMitoBalance()":"564cdf08","grantRole(bytes32,address)":"2f2ff15d","hasRole(bytes32,address)":"91d14854","initialize(address)":"c4d66de8","isTarget(address,address,uint256)":"fb1615c7","migrate(address[],address[],address[],address[])":"b3f74dca","proxiableUUID()":"52d1902d","renounceRole(bytes32,address)":"36568abe","revokeRole(bytes32,address)":"d547741f","setDistributionConfig(address,uint256,(address[],address,address,address,uint256))":"f47f0084","supportsInterface(bytes4)":"01ffc9a7","upgradeToAndCall(address,bytes)":"4f1ef286"},"id":120}