{"abi":[{"type":"constructor","inputs":[{"name":"wmito","type":"address","internalType":"address"},{"name":"gmMito","type":"address","internalType":"address"},{"name":"collateralOracle","type":"address","internalType":"address"},{"name":"epochFeeder","type":"address","internalType":"address"},{"name":"rewardDistributor","type":"address","internalType":"address"},{"name":"validatorManager","type":"address","internalType":"address"}],"stateMutability":"nonpayable"},{"type":"receive","stateMutability":"payable"},{"type":"function","name":"COLLATERAL_ORACLE","inputs":[],"outputs":[{"name":"","type":"address","internalType":"contract ICollateralOracleFeed"}],"stateMutability":"view"},{"type":"function","name":"DEFAULT_ADMIN_ROLE","inputs":[],"outputs":[{"name":"","type":"bytes32","internalType":"bytes32"}],"stateMutability":"view"},{"type":"function","name":"EPOCH_FEEDER","inputs":[],"outputs":[{"name":"","type":"address","internalType":"contract IEpochFeeder"}],"stateMutability":"view"},{"type":"function","name":"GIT_COMMIT","inputs":[],"outputs":[{"name":"","type":"string","internalType":"string"}],"stateMutability":"view"},{"type":"function","name":"GIT_TAG","inputs":[],"outputs":[{"name":"","type":"string","internalType":"string"}],"stateMutability":"view"},{"type":"function","name":"GMITO","inputs":[],"outputs":[{"name":"","type":"address","internalType":"contract IGovMITO"}],"stateMutability":"view"},{"type":"function","name":"GM_MITO","inputs":[],"outputs":[{"name":"","type":"address","internalType":"contract IgmMITO"}],"stateMutability":"view"},{"type":"function","name":"OPERATOR_ROLE","inputs":[],"outputs":[{"name":"","type":"bytes32","internalType":"bytes32"}],"stateMutability":"view"},{"type":"function","name":"REWARD_DISTRIBUTOR","inputs":[],"outputs":[{"name":"","type":"address","internalType":"contract IValidatorRewardDistributor"}],"stateMutability":"view"},{"type":"function","name":"UPGRADE_INTERFACE_VERSION","inputs":[],"outputs":[{"name":"","type":"string","internalType":"string"}],"stateMutability":"view"},{"type":"function","name":"VALIDATOR_MANAGER","inputs":[],"outputs":[{"name":"","type":"address","internalType":"contract IValidatorManager"}],"stateMutability":"view"},{"type":"function","name":"WMITO","inputs":[],"outputs":[{"name":"","type":"address","internalType":"contract WETH"}],"stateMutability":"view"},{"type":"function","name":"claimForNonTargets","inputs":[{"name":"validator","type":"address","internalType":"address"},{"name":"vaults","type":"address[]","internalType":"address[]"},{"name":"fromEpoch","type":"uint256","internalType":"uint256"},{"name":"toEpoch","type":"uint256","internalType":"uint256"}],"outputs":[{"name":"totalClaimed","type":"uint256","internalType":"uint256"}],"stateMutability":"nonpayable"},{"type":"function","name":"claimRewards","inputs":[{"name":"validator","type":"address","internalType":"address"},{"name":"fromEpoch","type":"uint256","internalType":"uint256"},{"name":"toEpoch","type":"uint256","internalType":"uint256"}],"outputs":[{"name":"totalClaimed","type":"uint256","internalType":"uint256"}],"stateMutability":"nonpayable"},{"type":"function","name":"currentEpoch","inputs":[],"outputs":[{"name":"","type":"uint256","internalType":"uint256"}],"stateMutability":"view"},{"type":"function","name":"distributeRewards","inputs":[{"name":"validator","type":"address","internalType":"address"}],"outputs":[{"name":"gmMitoAmount","type":"uint256","internalType":"uint256"}],"stateMutability":"nonpayable"},{"type":"function","name":"finalizeEpoch","inputs":[{"name":"epoch","type":"uint256","internalType":"uint256"},{"name":"validator","type":"address","internalType":"address"}],"outputs":[{"name":"totalGmMito","type":"uint256","internalType":"uint256"}],"stateMutability":"nonpayable"},{"type":"function","name":"finalizeEpochs","inputs":[{"name":"fromEpoch","type":"uint256","internalType":"uint256"},{"name":"toEpoch","type":"uint256","internalType":"uint256"},{"name":"validator","type":"address","internalType":"address"}],"outputs":[{"name":"totalGmMito","type":"uint256","internalType":"uint256"}],"stateMutability":"nonpayable"},{"type":"function","name":"getApplicableConfig","inputs":[{"name":"validator","type":"address","internalType":"address"},{"name":"epoch","type":"uint256","internalType":"uint256"}],"outputs":[{"name":"config","type":"tuple","internalType":"struct IRewardRouter.DistributionConfig","components":[{"name":"targets","type":"address[]","internalType":"address[]"},{"name":"operator","type":"address","internalType":"address"},{"name":"defaultRecipient","type":"address","internalType":"address"},{"name":"feeRecipient","type":"address","internalType":"address"},{"name":"commissionRate","type":"uint256","internalType":"uint256"}]}],"stateMutability":"view"},{"type":"function","name":"getClaimableRewards","inputs":[{"name":"validator","type":"address","internalType":"address"},{"name":"vault","type":"address","internalType":"address"},{"name":"fromEpoch","type":"uint256","internalType":"uint256"},{"name":"toEpoch","type":"uint256","internalType":"uint256"}],"outputs":[{"name":"totalClaimable","type":"uint256","internalType":"uint256"}],"stateMutability":"view"},{"type":"function","name":"getConfigEpochsCount","inputs":[{"name":"validator","type":"address","internalType":"address"}],"outputs":[{"name":"","type":"uint256","internalType":"uint256"}],"stateMutability":"view"},{"type":"function","name":"getConfigEpochsRange","inputs":[{"name":"validator","type":"address","internalType":"address"},{"name":"startIndex","type":"uint256","internalType":"uint256"},{"name":"endIndex","type":"uint256","internalType":"uint256"}],"outputs":[{"name":"epochs","type":"uint256[]","internalType":"uint256[]"}],"stateMutability":"view"},{"type":"function","name":"getDistributionConfig","inputs":[{"name":"validator","type":"address","internalType":"address"},{"name":"epoch","type":"uint256","internalType":"uint256"}],"outputs":[{"name":"config","type":"tuple","internalType":"struct IRewardRouter.DistributionConfig","components":[{"name":"targets","type":"address[]","internalType":"address[]"},{"name":"operator","type":"address","internalType":"address"},{"name":"defaultRecipient","type":"address","internalType":"address"},{"name":"feeRecipient","type":"address","internalType":"address"},{"name":"commissionRate","type":"uint256","internalType":"uint256"}]}],"stateMutability":"view"},{"type":"function","name":"getEpochReward","inputs":[{"name":"epoch","type":"uint256","internalType":"uint256"},{"name":"validator","type":"address","internalType":"address"}],"outputs":[{"name":"totalGmMito","type":"uint256","internalType":"uint256"},{"name":"totalTWAB","type":"uint256","internalType":"uint256"},{"name":"finalized","type":"bool","internalType":"bool"}],"stateMutability":"view"},{"type":"function","name":"getLastFinalizedEpoch","inputs":[{"name":"validator","type":"address","internalType":"address"}],"outputs":[{"name":"","type":"uint256","internalType":"uint256"}],"stateMutability":"view"},{"type":"function","name":"getRoleAdmin","inputs":[{"name":"role","type":"bytes32","internalType":"bytes32"}],"outputs":[{"name":"","type":"bytes32","internalType":"bytes32"}],"stateMutability":"view"},{"type":"function","name":"getRoleMember","inputs":[{"name":"role","type":"bytes32","internalType":"bytes32"},{"name":"index","type":"uint256","internalType":"uint256"}],"outputs":[{"name":"","type":"address","internalType":"address"}],"stateMutability":"view"},{"type":"function","name":"getRoleMemberCount","inputs":[{"name":"role","type":"bytes32","internalType":"bytes32"}],"outputs":[{"name":"","type":"uint256","internalType":"uint256"}],"stateMutability":"view"},{"type":"function","name":"getRoleMembers","inputs":[{"name":"role","type":"bytes32","internalType":"bytes32"}],"outputs":[{"name":"","type":"address[]","internalType":"address[]"}],"stateMutability":"view"},{"type":"function","name":"getVaultClaimed","inputs":[{"name":"epoch","type":"uint256","internalType":"uint256"},{"name":"validator","type":"address","internalType":"address"},{"name":"vault","type":"address","internalType":"address"}],"outputs":[{"name":"","type":"uint256","internalType":"uint256"}],"stateMutability":"view"},{"type":"function","name":"gmMitoBalance","inputs":[],"outputs":[{"name":"","type":"uint256","internalType":"uint256"}],"stateMutability":"view"},{"type":"function","name":"grantRole","inputs":[{"name":"role","type":"bytes32","internalType":"bytes32"},{"name":"account","type":"address","internalType":"address"}],"outputs":[],"stateMutability":"nonpayable"},{"type":"function","name":"hasRole","inputs":[{"name":"role","type":"bytes32","internalType":"bytes32"},{"name":"account","type":"address","internalType":"address"}],"outputs":[{"name":"","type":"bool","internalType":"bool"}],"stateMutability":"view"},{"type":"function","name":"initialize","inputs":[{"name":"initialOwner","type":"address","internalType":"address"}],"outputs":[],"stateMutability":"nonpayable"},{"type":"function","name":"isTarget","inputs":[{"name":"validator","type":"address","internalType":"address"},{"name":"vault","type":"address","internalType":"address"},{"name":"epoch","type":"uint256","internalType":"uint256"}],"outputs":[{"name":"","type":"bool","internalType":"bool"}],"stateMutability":"view"},{"type":"function","name":"migrate","inputs":[{"name":"validators","type":"address[]","internalType":"address[]"},{"name":"newOperators","type":"address[]","internalType":"address[]"},{"name":"newDefaultRecipients","type":"address[]","internalType":"address[]"},{"name":"newFeeRecipients","type":"address[]","internalType":"address[]"}],"outputs":[],"stateMutability":"nonpayable"},{"type":"function","name":"proxiableUUID","inputs":[],"outputs":[{"name":"","type":"bytes32","internalType":"bytes32"}],"stateMutability":"view"},{"type":"function","name":"renounceRole","inputs":[{"name":"role","type":"bytes32","internalType":"bytes32"},{"name":"callerConfirmation","type":"address","internalType":"address"}],"outputs":[],"stateMutability":"nonpayable"},{"type":"function","name":"revokeRole","inputs":[{"name":"role","type":"bytes32","internalType":"bytes32"},{"name":"account","type":"address","internalType":"address"}],"outputs":[],"stateMutability":"nonpayable"},{"type":"function","name":"setDistributionConfig","inputs":[{"name":"validator","type":"address","internalType":"address"},{"name":"startEpoch","type":"uint256","internalType":"uint256"},{"name":"config","type":"tuple","internalType":"struct IRewardRouter.DistributionConfig","components":[{"name":"targets","type":"address[]","internalType":"address[]"},{"name":"operator","type":"address","internalType":"address"},{"name":"defaultRecipient","type":"address","internalType":"address"},{"name":"feeRecipient","type":"address","internalType":"address"},{"name":"commissionRate","type":"uint256","internalType":"uint256"}]}],"outputs":[],"stateMutability":"nonpayable"},{"type":"function","name":"setOperatorClaimApproval","inputs":[{"name":"validator","type":"address","internalType":"address"},{"name":"claimer","type":"address","internalType":"address"},{"name":"approval","type":"bool","internalType":"bool"}],"outputs":[],"stateMutability":"nonpayable"},{"type":"function","name":"supportsInterface","inputs":[{"name":"interfaceId","type":"bytes4","internalType":"bytes4"}],"outputs":[{"name":"","type":"bool","internalType":"bool"}],"stateMutability":"view"},{"type":"function","name":"upgradeToAndCall","inputs":[{"name":"newImplementation","type":"address","internalType":"address"},{"name":"data","type":"bytes","internalType":"bytes"}],"outputs":[],"stateMutability":"payable"},{"type":"event","name":"DistributionConfigSet","inputs":[{"name":"validator","type":"address","indexed":true,"internalType":"address"},{"name":"startEpoch","type":"uint256","indexed":true,"internalType":"uint256"},{"name":"config","type":"tuple","indexed":false,"internalType":"struct IRewardRouter.DistributionConfig","components":[{"name":"targets","type":"address[]","internalType":"address[]"},{"name":"operator","type":"address","internalType":"address"},{"name":"defaultRecipient","type":"address","internalType":"address"},{"name":"feeRecipient","type":"address","internalType":"address"},{"name":"commissionRate","type":"uint256","internalType":"uint256"}]}],"anonymous":false},{"type":"event","name":"EpochRewardsFinalized","inputs":[{"name":"epoch","type":"uint256","indexed":true,"internalType":"uint256"},{"name":"validator","type":"address","indexed":true,"internalType":"address"},{"name":"totalGmMito","type":"uint256","indexed":false,"internalType":"uint256"},{"name":"totalTWAB","type":"uint256","indexed":false,"internalType":"uint256"}],"anonymous":false},{"type":"event","name":"EpochSkipped","inputs":[{"name":"epoch","type":"uint256","indexed":true,"internalType":"uint256"},{"name":"validator","type":"address","indexed":true,"internalType":"address"}],"anonymous":false},{"type":"event","name":"FeeTaken","inputs":[{"name":"epoch","type":"uint256","indexed":true,"internalType":"uint256"},{"name":"validator","type":"address","indexed":true,"internalType":"address"},{"name":"vault","type":"address","indexed":true,"internalType":"address"},{"name":"amount","type":"uint256","indexed":false,"internalType":"uint256"}],"anonymous":false},{"type":"event","name":"GmMitoTransferred","inputs":[{"name":"vault","type":"address","indexed":true,"internalType":"address"},{"name":"gmMitoAmount","type":"uint256","indexed":false,"internalType":"uint256"}],"anonymous":false},{"type":"event","name":"Initialized","inputs":[{"name":"version","type":"uint64","indexed":false,"internalType":"uint64"}],"anonymous":false},{"type":"event","name":"NonTargetRewardsClaimed","inputs":[{"name":"epoch","type":"uint256","indexed":true,"internalType":"uint256"},{"name":"validator","type":"address","indexed":true,"internalType":"address"},{"name":"vault","type":"address","indexed":true,"internalType":"address"},{"name":"recipient","type":"address","indexed":false,"internalType":"address"},{"name":"amount","type":"uint256","indexed":false,"internalType":"uint256"}],"anonymous":false},{"type":"event","name":"RewardDistributed","inputs":[{"name":"validator","type":"address","indexed":true,"internalType":"address"},{"name":"gmMitoAmount","type":"uint256","indexed":false,"internalType":"uint256"}],"anonymous":false},{"type":"event","name":"RoleAdminChanged","inputs":[{"name":"role","type":"bytes32","indexed":true,"internalType":"bytes32"},{"name":"previousAdminRole","type":"bytes32","indexed":true,"internalType":"bytes32"},{"name":"newAdminRole","type":"bytes32","indexed":true,"internalType":"bytes32"}],"anonymous":false},{"type":"event","name":"RoleGranted","inputs":[{"name":"role","type":"bytes32","indexed":true,"internalType":"bytes32"},{"name":"account","type":"address","indexed":true,"internalType":"address"},{"name":"sender","type":"address","indexed":true,"internalType":"address"}],"anonymous":false},{"type":"event","name":"RoleRevoked","inputs":[{"name":"role","type":"bytes32","indexed":true,"internalType":"bytes32"},{"name":"account","type":"address","indexed":true,"internalType":"address"},{"name":"sender","type":"address","indexed":true,"internalType":"address"}],"anonymous":false},{"type":"event","name":"Upgraded","inputs":[{"name":"implementation","type":"address","indexed":true,"internalType":"address"}],"anonymous":false},{"type":"event","name":"VaultShareClaimed","inputs":[{"name":"epoch","type":"uint256","indexed":true,"internalType":"uint256"},{"name":"validator","type":"address","indexed":true,"internalType":"address"},{"name":"vault","type":"address","indexed":true,"internalType":"address"},{"name":"vaultTWAB","type":"uint256","indexed":false,"internalType":"uint256"},{"name":"gmMitoAmount","type":"uint256","indexed":false,"internalType":"uint256"}],"anonymous":false},{"type":"error","name":"AccessControlBadConfirmation","inputs":[]},{"type":"error","name":"AccessControlUnauthorizedAccount","inputs":[{"name":"account","type":"address","internalType":"address"},{"name":"neededRole","type":"bytes32","internalType":"bytes32"}]},{"type":"error","name":"AddressEmptyCode","inputs":[{"name":"target","type":"address","internalType":"address"}]},{"type":"error","name":"ERC1967InvalidImplementation","inputs":[{"name":"implementation","type":"address","internalType":"address"}]},{"type":"error","name":"ERC1967NonPayable","inputs":[]},{"type":"error","name":"EpochAlreadyFinalized","inputs":[]},{"type":"error","name":"FailedCall","inputs":[]},{"type":"error","name":"InvalidCommissionRate","inputs":[{"name":"rate","type":"uint256","internalType":"uint256"}]},{"type":"error","name":"InvalidEpoch","inputs":[]},{"type":"error","name":"InvalidEpochOrder","inputs":[{"name":"startEpoch","type":"uint256","internalType":"uint256"},{"name":"lastConfigEpoch","type":"uint256","internalType":"uint256"}]},{"type":"error","name":"InvalidInitialization","inputs":[]},{"type":"error","name":"InvalidValidator","inputs":[]},{"type":"error","name":"InvalidVault","inputs":[]},{"type":"error","name":"LengthMismatch","inputs":[]},{"type":"error","name":"NoEpochs","inputs":[]},{"type":"error","name":"NoRewards","inputs":[]},{"type":"error","name":"NotInitializing","inputs":[]},{"type":"error","name":"NotTarget","inputs":[]},{"type":"error","name":"UUPSUnauthorizedCallContext","inputs":[]},{"type":"error","name":"UUPSUnsupportedProxiableUUID","inputs":[{"name":"slot","type":"bytes32","internalType":"bytes32"}]},{"type":"error","name":"Unauthorized","inputs":[]},{"type":"error","name":"ZeroAddress","inputs":[]},{"type":"error","name":"ZeroAmount","inputs":[]}],"bytecode":{"object":"0x61018060405230608052348015610014575f5ffd5b50604051615a33380380615a33833981016040819052610033916102fc565b8585858585856001600160a01b0386166100605760405163d92e233d60e01b815260040160405180910390fd5b6001600160a01b0385166100875760405163d92e233d60e01b815260040160405180910390fd5b6001600160a01b0384166100ae5760405163d92e233d60e01b815260040160405180910390fd5b6001600160a01b0383166100d55760405163d92e233d60e01b815260040160405180910390fd5b6001600160a01b0382166100fc5760405163d92e233d60e01b815260040160405180910390fd5b6001600160a01b0381166101235760405163d92e233d60e01b815260040160405180910390fd5b6001600160a01b0380871660e05285811660c05284811661010052838116610140528281166101208190529082166101605260408051630bdcaec360e41b8152905163bdcaec30916004808201926020929091908290030181865afa15801561018e573d5f5f3e3d5ffd5b505050506040513d601f19601f820116820180604052508101906101b2919061037f565b6001600160a01b031663caffd74e6040518163ffffffff1660e01b8152600401602060405180830381865afa1580156101ed573d5f5f3e3d5ffd5b505050506040513d601f19601f82011682018060405250810190610211919061037f565b6001600160a01b031660a052610225610236565b5050505050505050505050506103a1565b7ff0c57e16840df040f15088dc2f81fe391c3923bec73e23a9662efc9c229c6a00805468010000000000000000900460ff16156102865760405163f92ee8a960e01b815260040160405180910390fd5b80546001600160401b03908116146102e55780546001600160401b0319166001600160401b0390811782556040519081527fc7f505b2f371ae2175ee4913f4499e1f2633a7b5936321eed1cdaeb6115181d29060200160405180910390a15b50565b6001600160a01b03811681146102e5575f5ffd5b5f5f5f5f5f5f60c08789031215610311575f5ffd5b865161031c816102e8565b602088015190965061032d816102e8565b604088015190955061033e816102e8565b606088015190945061034f816102e8565b6080880151909350610360816102e8565b60a0880151909250610371816102e8565b809150509295509295509295565b5f6020828403121561038f575f5ffd5b815161039a816102e8565b9392505050565b60805160a05160c05160e0516101005161012051610140516101605161557a6104b95f395f8181610858015261332d01525f81816109f501528181611338015281816124900152818161252501528181612f5901528181612fee0152818161375e015281816137f301528181613cc10152613d5601525f818161065f015281816112d801528181612c940152613b3701525f81816105ee0152818161246101528181612f2a0152818161372f015261475401525f81816102d701528181610306015261090601525f818161053501528181610c4d01528181611190015281816115070152818161283301528181612d98015261428d01525f6109c201525f81816128bd015281816128e60152612a9a015261557a5ff3fe6080604052600436106102cf575f3560e01c806393f37e441161017b578063b919ba1a116100d1578063dd6b645611610087578063f5b541a611610062578063f5b541a614610a36578063fb1615c714610a69578063fe1a624314610a88575f5ffd5b8063dd6b6456146109b1578063f3adae77146109e4578063f47f008414610a17575f5ffd5b8063ca15c873116100b7578063ca15c87314610947578063d547741f14610966578063d9abb43314610985575f5ffd5b8063b919ba1a146108f5578063c4d66de814610928575f5ffd5b8063a3246ad311610131578063b175eb4d1161010c578063b175eb4d1461087a578063b3f74dca146108c2578063b8a15e3a146108e1575f5ffd5b8063a3246ad3146107c6578063ad3cb1cc146107f2578063ae9483e014610847575f5ffd5b80639683f2de116101615780639683f2de146107415780639f4c271e14610760578063a217fddf146107b3575f5ffd5b806393f37e441461070357806394bfd60414610722575f5ffd5b80634f1ef286116102305780637a79bd5c116101e65780638de728e4116101c15780638de728e41461064e5780639010d07c1461068157806391d14854146106a0575f5ffd5b80637a79bd5c146105dd5780637c8cca36146106105780637ca352091461062f575f5ffd5b8063564cdf0811610216578063564cdf08146105965780635bdc8650146105aa57806376671808146105c9575f5ffd5b80634f1ef2861461056f57806352d1902d14610582575f5ffd5b80632f2ff15d116102855780633653d27f1161026b5780633653d27f146104e657806336568abe146105055780633bed90ce14610524575f5ffd5b80632f2ff15d146104a85780633075fe4e146104c7575f5ffd5b80631e9ca6e8116102b55780631e9ca6e8146103dc578063248a9ca31461042f578063262dd9fe1461047c575f5ffd5b806301ffc9a71461037b5780631de9d9b6146103af575f5ffd5b3661037757337f00000000000000000000000000000000000000000000000000000000000000006001600160a01b031614610375577f00000000000000000000000000000000000000000000000000000000000000006001600160a01b031663d0e30db0346040518263ffffffff1660e01b81526004015f604051808303818588803b15801561035d575f5ffd5b505af115801561036f573d5f5f3e3d5ffd5b50505050505b005b5f5ffd5b348015610386575f5ffd5b5061039a6103953660046148ca565b610b15565b60405190151581526020015b60405180910390f35b3480156103ba575f5ffd5b506103ce6103c936600461492d565b610b70565b6040519081526020016103a6565b3480156103e7575f5ffd5b506103ce6103f636600461492d565b6001600160a01b03165f9081527ffa2183a4b9e35594495ef24f5060c5bba566c21a062a2b524b653f03c859a704602052604090205490565b34801561043a575f5ffd5b506103ce610449366004614948565b5f9081527f02dd7bc7dec4dceedda775e58dd541e08a116c6c53815c0bd028192f7b626800602052604090206001015490565b348015610487575f5ffd5b5061049b61049636600461495f565b610d4b565b6040516103a69190614989565b3480156104b3575f5ffd5b506103756104c2366004614a33565b610e38565b3480156104d2575f5ffd5b506103ce6104e1366004614a61565b610e81565b3480156104f1575f5ffd5b506103ce610500366004614aec565b610fa5565b348015610510575f5ffd5b5061037561051f366004614a33565b6110c2565b34801561052f575f5ffd5b506105577f000000000000000000000000000000000000000000000000000000000000000081565b6040516001600160a01b0390911681526020016103a6565b61037561057d366004614bfd565b611113565b34801561058d575f5ffd5b506103ce611132565b3480156105a1575f5ffd5b506103ce611160565b3480156105b5575f5ffd5b506103756105c4366004614c97565b611206565b3480156105d4575f5ffd5b506103ce611335565b3480156105e8575f5ffd5b506105577f000000000000000000000000000000000000000000000000000000000000000081565b34801561061b575f5ffd5b506103ce61062a366004614a33565b611392565b34801561063a575f5ffd5b506103ce610649366004614cdf565b6113d0565b348015610659575f5ffd5b506105577f000000000000000000000000000000000000000000000000000000000000000081565b34801561068c575f5ffd5b5061055761069b366004614d11565b611536565b3480156106ab575f5ffd5b5061039a6106ba366004614a33565b5f9182527f02dd7bc7dec4dceedda775e58dd541e08a116c6c53815c0bd028192f7b626800602090815260408084206001600160a01b0393909316845291905290205460ff1690565b34801561070e575f5ffd5b506103ce61071d366004614d31565b61156e565b34801561072d575f5ffd5b5061049b61073c36600461495f565b6115c2565b34801561074c575f5ffd5b506103ce61075b366004614d65565b6116db565b34801561076b575f5ffd5b506103ce61077a36600461492d565b6001600160a01b03165f9081527ffa2183a4b9e35594495ef24f5060c5bba566c21a062a2b524b653f03c859a702602052604090205490565b3480156107be575f5ffd5b506103ce5f81565b3480156107d1575f5ffd5b506107e56107e0366004614948565b61171a565b6040516103a69190614dd3565b3480156107fd575f5ffd5b5061083a6040518060400160405280600581526020017f352e302e3000000000000000000000000000000000000000000000000000000081525081565b6040516103a69190614de5565b348015610852575f5ffd5b506105577f000000000000000000000000000000000000000000000000000000000000000081565b348015610885575f5ffd5b5061083a6040518060400160405280600681526020017f76302e302e38000000000000000000000000000000000000000000000000000081525081565b3480156108cd575f5ffd5b506103756108dc366004614e1a565b611756565b3480156108ec575f5ffd5b5061083a611b47565b348015610900575f5ffd5b506105577f000000000000000000000000000000000000000000000000000000000000000081565b348015610933575f5ffd5b5061037561094236600461492d565b611b63565b348015610952575f5ffd5b506103ce610961366004614948565b611d33565b348015610971575f5ffd5b50610375610980366004614a33565b611d6a565b348015610990575f5ffd5b506109a461099f366004614cdf565b611dad565b6040516103a69190614ee8565b3480156109bc575f5ffd5b506105577f000000000000000000000000000000000000000000000000000000000000000081565b3480156109ef575f5ffd5b506105577f000000000000000000000000000000000000000000000000000000000000000081565b348015610a22575f5ffd5b50610375610a31366004614f2a565b611eee565b348015610a41575f5ffd5b506103ce7f46a52cf33029de9f84853745a87af28464c80bf0346df1b32e205fc73319f62281565b348015610a74575f5ffd5b5061039a610a83366004614f7a565b6122ab565b348015610a93575f5ffd5b50610af8610aa2366004614a33565b6001600160a01b03165f9081527ffa2183a4b9e35594495ef24f5060c5bba566c21a062a2b524b653f03c859a700602090815260408083209383529290522080546001820154600290920154909260ff90911690565b6040805193845260208401929092521515908201526060016103a6565b5f7fffffffff0000000000000000000000000000000000000000000000000000000082167f5a05180f000000000000000000000000000000000000000000000000000000001480610b6a5750610b6a826122ef565b92915050565b5f7f46a52cf33029de9f84853745a87af28464c80bf0346df1b32e205fc73319f622610b9b81612385565b6001600160a01b038316610bdb576040517fd92e233d00000000000000000000000000000000000000000000000000000000815260040160405180910390fd5b6040805160018082528183019092525f916020808301908036833701905050905083815f81518110610c0f57610c0f614fb8565b6001600160a01b0392831660209182029290920101526040517f3f2a33f90000000000000000000000000000000000000000000000000000000081527f000000000000000000000000000000000000000000000000000000000000000090911690633f2a33f990610c869084903090600401614fe5565b6020604051808303815f875af1158015610ca2573d5f5f3e3d5ffd5b505050506040513d601f19601f82011682018060405250810190610cc6919061500f565b92505f8311610d01576040517f3fb087f400000000000000000000000000000000000000000000000000000000815260040160405180910390fd5b836001600160a01b03167fe34918ff1c7084970068b53fd71ad6d8b04e9f15d3886cbf006443e6cdc52ea684604051610d3c91815260200190565b60405180910390a25050919050565b6040805160a08101825260608082525f60208301819052928201839052810182905260808101829052907ffa2183a4b9e35594495ef24f5060c5bba566c21a062a2b524b653f03c859a70090610da2828686612392565b805460408051602080840282018101909252828152929350839190830182828015610df457602002820191905f5260205f20905b81546001600160a01b03168152600190910190602001808311610dd6575b505050918552505060018101546001600160a01b03908116602085015260028201548116604085015260038201541660608401526004015460808301525092915050565b5f8281527f02dd7bc7dec4dceedda775e58dd541e08a116c6c53815c0bd028192f7b6268006020526040902060010154610e7181612385565b610e7b83836123cc565b50505050565b5f6001600160a01b038516610ec2576040517fd92e233d00000000000000000000000000000000000000000000000000000000815260040160405180910390fd5b6001600160a01b038416610f02576040517fd92e233d00000000000000000000000000000000000000000000000000000000815260040160405180910390fd5b5f83118015610f115750828210155b610f47576040517fd5b25b6300000000000000000000000000000000000000000000000000000000815260040160405180910390fd5b7ffa2183a4b9e35594495ef24f5060c5bba566c21a062a2b524b653f03c859a700835b838111610f9b57610f7d82888884612421565b610f879084615053565b925080610f9381615066565b915050610f6a565b5050949350505050565b5f6001600160a01b038616610fe6576040517fd92e233d00000000000000000000000000000000000000000000000000000000815260040160405180910390fd5b5f83118015610ff55750828210155b61102b576040517fd5b25b6300000000000000000000000000000000000000000000000000000000815260040160405180910390fd5b335f8181527f11408c214e50776f0f6e546bf3b89e7953bf3ba3b172efa6ff1ba292b2d1b3b260205260409020547ffa2183a4b9e35594495ef24f5060c5bba566c21a062a2b524b653f03c859a700919060ff16855b8581116110b557611097848b8b8b858888612719565b6110a19086615053565b9450806110ad81615066565b915050611081565b5050505095945050505050565b6001600160a01b0381163314611104576040517f6697b23200000000000000000000000000000000000000000000000000000000815260040160405180910390fd5b61110e8282612866565b505050565b61111b6128b2565b61112482612984565b61112e828261298e565b5050565b5f61113b612a8f565b507f360894a13ba1a3210667c828492db98dca3e2076cc3735a920a3ca505d382bbc90565b6040517f70a082310000000000000000000000000000000000000000000000000000000081523060048201525f907f00000000000000000000000000000000000000000000000000000000000000006001600160a01b0316906370a0823190602401602060405180830381865afa1580156111dd573d5f5f3e3d5ffd5b505050506040513d601f19601f82011682018060405250810190611201919061500f565b905090565b5f61121081612385565b6001600160a01b038416611250576040517fd92e233d00000000000000000000000000000000000000000000000000000000815260040160405180910390fd5b6001600160a01b038316611290576040517fd92e233d00000000000000000000000000000000000000000000000000000000815260040160405180910390fd5b6040517f53c6fdd00000000000000000000000000000000000000000000000000000000081526001600160a01b038581166004830152848116602483015283151560448301527f000000000000000000000000000000000000000000000000000000000000000016906353c6fdd0906064015f604051808303815f87803b158015611319575f5ffd5b505af115801561132b573d5f5f3e3d5ffd5b5050505050505050565b5f7f00000000000000000000000000000000000000000000000000000000000000006001600160a01b031663900cf0cf6040518163ffffffff1660e01b8152600401602060405180830381865afa1580156111dd573d5f5f3e3d5ffd5b5f7f46a52cf33029de9f84853745a87af28464c80bf0346df1b32e205fc73319f6226113bd81612385565b6113c8848585612af1565b949350505050565b5f6001600160a01b038416611411576040517fd92e233d00000000000000000000000000000000000000000000000000000000815260040160405180910390fd5b5f831180156114205750828210155b611456576040517fd5b25b6300000000000000000000000000000000000000000000000000000000815260040160405180910390fd5b337ffa2183a4b9e35594495ef24f5060c5bba566c21a062a2b524b653f03c859a700845b8481116114fb575f61148d838984612392565b90506114998185612e5b565b6114cf576040517f65ec05a200000000000000000000000000000000000000000000000000000000815260040160405180910390fd5b6114db83838a87612ebb565b6114e59086615053565b94505080806114f390615066565b91505061147a565b50821561152d5761152d7f00000000000000000000000000000000000000000000000000000000000000008385613212565b50509392505050565b5f8281527fc1f6fe24621ce81ec5827caf0253cadb74709b061630e6b55e823717059320006020819052604082206113c89084613265565b6001600160a01b038281165f9081527ffa2183a4b9e35594495ef24f5060c5bba566c21a062a2b524b653f03c859a701602090815260408083209385168352928152828220868352905220545b9392505050565b6040805160a08101825260608082525f6020808401829052838501829052918301819052608083018190526001600160a01b03861681527ffa2183a4b9e35594495ef24f5060c5bba566c21a062a2b524b653f03c859a70382528381208582528252839020805484518184028101840190955280855292937ffa2183a4b9e35594495ef24f5060c5bba566c21a062a2b524b653f03c859a70093919290918391830182828015610df457602002820191905f5260205f209081546001600160a01b03168152600190910190602001808311610dd657505050918552505060018101546001600160a01b03908116602085015260028201548116604085015260038201541660608401526004015460808301525092915050565b5f7f46a52cf33029de9f84853745a87af28464c80bf0346df1b32e205fc73319f62261170681612385565b611711858585612af1565b95945050505050565b5f8181527fc1f6fe24621ce81ec5827caf0253cadb74709b061630e6b55e8237170593200060208190526040909120606091906115bb90613270565b5f61176081612385565b878614611799576040517fff633a3800000000000000000000000000000000000000000000000000000000815260040160405180910390fd5b8784146117d2576040517fff633a3800000000000000000000000000000000000000000000000000000000815260040160405180910390fd5b87821461180b576040517fff633a3800000000000000000000000000000000000000000000000000000000815260040160405180910390fd5b7ffa2183a4b9e35594495ef24f5060c5bba566c21a062a2b524b653f03c859a700805f5b8a811015611b39575f8c8c8381811061184a5761184a614fb8565b905060200201602081019061185f919061492d565b90505f8b8b8481811061187457611874614fb8565b9050602002016020810190611889919061492d565b90505f8a8a8581811061189e5761189e614fb8565b90506020020160208101906118b3919061492d565b90505f8989868181106118c8576118c8614fb8565b90506020020160208101906118dd919061492d565b6001600160a01b0385165f9081526004890160205260409020805491925090611932576040517fa88e39ff00000000000000000000000000000000000000000000000000000000815260040160405180910390fd5b5f5b8154811015611b27575f82828154811061195057611950614fb8565b5f9182526020808320909101546001600160a01b038a16835260038d0182526040808420828552835280842080548251818602810186019093528083529295509392909184918301828280156119cd57602002820191905f5260205f20905b81546001600160a01b031681526001909101906020018083116119af575b505050505090505f8b6003015f8b6001600160a01b03166001600160a01b031681526020019081526020015f205f8581526020019081526020015f20905088816001015f6101000a8154816001600160a01b0302191690836001600160a01b0316021790555087816002015f6101000a8154816001600160a01b0302191690836001600160a01b0316021790555086816003015f6101000a8154816001600160a01b0302191690836001600160a01b031602179055505f8160040181905550805f015f611a9a919061489c565b5f5b8251811015611b1657815f01838281518110611aba57611aba614fb8565b6020908102919091018101518254600180820185555f9485529290932090920180547fffffffffffffffffffffffff0000000000000000000000000000000000000000166001600160a01b039093169290921790915501611a9c565b505060019093019250611934915050565b50506001909401935061182f92505050565b505050505050505050505050565b60405180606001604052806028815260200161551d6028913981565b7ff0c57e16840df040f15088dc2f81fe391c3923bec73e23a9662efc9c229c6a00805468010000000000000000810460ff16159067ffffffffffffffff165f81158015611bad5750825b90505f8267ffffffffffffffff166001148015611bc95750303b155b905081158015611bd7575080155b15611c0e576040517ff92ee8a900000000000000000000000000000000000000000000000000000000815260040160405180910390fd5b84547fffffffffffffffffffffffffffffffffffffffffffffffff00000000000000001660011785558315611c6f5784547fffffffffffffffffffffffffffffffffffffffffffffff00ffffffffffffffff16680100000000000000001785555b6001600160a01b038616611caf576040517fd92e233d00000000000000000000000000000000000000000000000000000000815260040160405180910390fd5b611cb761327c565b611cbf61327c565b611cc95f876123cc565b508315611d2b5784547fffffffffffffffffffffffffffffffffffffffffffffff00ffffffffffffffff168555604051600181527fc7f505b2f371ae2175ee4913f4499e1f2633a7b5936321eed1cdaeb6115181d29060200160405180910390a15b505050505050565b5f8181527fc1f6fe24621ce81ec5827caf0253cadb74709b061630e6b55e823717059320006020819052604082206115bb90613284565b5f8281527f02dd7bc7dec4dceedda775e58dd541e08a116c6c53815c0bd028192f7b6268006020526040902060010154611da381612385565b610e7b8383612866565b6001600160a01b0383165f9081527ffa2183a4b9e35594495ef24f5060c5bba566c21a062a2b524b653f03c859a70460205260409020805460609190808510611e25575f5b604051908082528060200260200182016040528015611e1b578160200160208202803683370190505b50925050506115bb565b80841115611e31578093505b848411611e3e575f611df2565b5f611e49868661509d565b90508067ffffffffffffffff811115611e6457611e64614b4e565b604051908082528060200260200182016040528015611e8d578160200160208202803683370190505b5093505f5b81811015611ee35783611ea58289615053565b81548110611eb557611eb5614fb8565b905f5260205f200154858281518110611ed057611ed0614fb8565b6020908102919091010152600101611e92565b505050509392505050565b6001600160a01b038316611f2e576040517fd92e233d00000000000000000000000000000000000000000000000000000000815260040160405180910390fd5b6080810135612710811115611f7b576040517f7c27fae2000000000000000000000000000000000000000000000000000000008152600401611f7291815260200190565b60405180910390fd5b507ffa2183a4b9e35594495ef24f5060c5bba566c21a062a2b524b653f03c859a700611fa881858561328d565b6001600160a01b0384165f90815260048201602052604090208054156120645780548190611fd89060019061509d565b81548110611fe857611fe8614fb8565b905f5260205f200154841015848260018480549050612007919061509d565b8154811061201757612017614fb8565b905f5260205f2001549091612061576040517f84122f3800000000000000000000000000000000000000000000000000000000815260048101929092526024820152604401611f72565b50505b6001600160a01b0385165f9081526003830160209081526040808320878452825291829020916120999190860190860161492d565b6001820180547fffffffffffffffffffffffff0000000000000000000000000000000000000000166001600160a01b03929092169190911790556120e3606085016040860161492d565b6002820180547fffffffffffffffffffffffff0000000000000000000000000000000000000000166001600160a01b039290921691909117905561212d608085016060860161492d565b6003820180547fffffffffffffffffffffffff0000000000000000000000000000000000000000166001600160a01b03929092169190911790556080840135600482015561217b815f61489c565b5f5b61218785806150b0565b905081101561220f578161219b86806150b0565b838181106121ab576121ab614fb8565b90506020020160208101906121c0919061492d565b8154600180820184555f93845260209093200180547fffffffffffffffffffffffff0000000000000000000000000000000000000000166001600160a01b03929092169190911790550161217d565b5081541580612247575081548590839061222b9060019061509d565b8154811061223b5761223b614fb8565b905f5260205f20015414155b156122615781546001810183555f83815260209020018590555b84866001600160a01b03167ffa86f71fb405a4f3c8fe0b059720aad6817a4c3fd9ef40267d349ebf42d5c4478660405161229b9190615152565b60405180910390a3505050505050565b5f7ffa2183a4b9e35594495ef24f5060c5bba566c21a062a2b524b653f03c859a700816122d9828786612392565b90506122e58186612e5b565b9695505050505050565b5f7fffffffff0000000000000000000000000000000000000000000000000000000082167f7965db0b000000000000000000000000000000000000000000000000000000001480610b6a57507f01ffc9a7000000000000000000000000000000000000000000000000000000007fffffffff00000000000000000000000000000000000000000000000000000000831614610b6a565b61238f81336133e9565b50565b5f5f61239f858585613475565b6001600160a01b0385165f9081526003870160209081526040808320938352929052209150509392505050565b5f7fc1f6fe24621ce81ec5827caf0253cadb74709b061630e6b55e82371705932000816123f98585613515565b905080156113c8575f85815260208390526040902061241890856135ff565b50949350505050565b6001600160a01b038084165f908152600186016020908152604080832093861683529281528282208483529052908120541561245e57505f6113c8565b5f7f00000000000000000000000000000000000000000000000000000000000000006001600160a01b03166390aaa0467f00000000000000000000000000000000000000000000000000000000000000006001600160a01b0316636f5e290f866040518263ffffffff1660e01b81526004016124dc91815260200190565b602060405180830381865afa1580156124f7573d5f5f3e3d5ffd5b505050506040513d601f19601f8201168201806040525081019061251b9190615236565b6001600160a01b037f000000000000000000000000000000000000000000000000000000000000000016636f5e290f612555886001615053565b6040518263ffffffff1660e01b815260040161257391815260200190565b602060405180830381865afa15801561258e573d5f5f3e3d5ffd5b505050506040513d601f19601f820116820180604052508101906125b29190615236565b6040517fffffffff0000000000000000000000000000000000000000000000000000000060e085901b16815265ffffffffffff9283166004820152911660248201526001600160a01b03808916604483015287166064820152608401602060405180830381865afa158015612629573d5f5f3e3d5ffd5b505050506040513d601f19601f8201168201806040525081019061264d919061500f565b9050805f0361265f575f9150506113c8565b6001600160a01b0385165f908152602087815260408083208684529091529020600281015460ff16612695575f925050506113c8565b5f6126a8825f0154848460010154613613565b90505f6126b6898988612392565b90506126c28188612e5b565b1561270d5760038101546001600160a01b0316158015906126e657505f8160040154115b1561270d575f6126fd838360040154612710613613565b9050612709818461509d565b9250505b50979650505050505050565b5f5f612726898987612392565b90508280612743575060018101546001600160a01b038581169116145b8061275d575060028101546001600160a01b038581169116145b612793576040517f82b4290000000000000000000000000000000000000000000000000000000000815260040160405180910390fd5b60028101546001600160a01b03165f5b87811015612827576127db838a8a848181106127c1576127c1614fb8565b90506020020160208101906127d6919061492d565b612e5b565b61281f576128128b888c8c8c868181106127f7576127f7614fb8565b905060200201602081019061280c919061492d565b866136c0565b61281c9085615053565b93505b6001016127a3565b508215612859576128597f00000000000000000000000000000000000000000000000000000000000000008285613212565b5050979650505050505050565b5f7fc1f6fe24621ce81ec5827caf0253cadb74709b061630e6b55e823717059320008161289385856139e6565b905080156113c8575f8581526020839052604090206124189085613aa8565b306001600160a01b037f000000000000000000000000000000000000000000000000000000000000000016148061294b57507f00000000000000000000000000000000000000000000000000000000000000006001600160a01b031661293f7f360894a13ba1a3210667c828492db98dca3e2076cc3735a920a3ca505d382bbc546001600160a01b031690565b6001600160a01b031614155b15612982576040517fe07c8dba00000000000000000000000000000000000000000000000000000000815260040160405180910390fd5b565b5f61112e81612385565b816001600160a01b03166352d1902d6040518163ffffffff1660e01b8152600401602060405180830381865afa9250505080156129e8575060408051601f3d908101601f191682019092526129e59181019061500f565b60015b612a29576040517f4c9c8ce30000000000000000000000000000000000000000000000000000000081526001600160a01b0383166004820152602401611f72565b7f360894a13ba1a3210667c828492db98dca3e2076cc3735a920a3ca505d382bbc8114612a85576040517faa1d49a400000000000000000000000000000000000000000000000000000000815260048101829052602401611f72565b61110e8383613abc565b306001600160a01b037f00000000000000000000000000000000000000000000000000000000000000001614612982576040517fe07c8dba00000000000000000000000000000000000000000000000000000000815260040160405180910390fd5b5f6001600160a01b038216612b32576040517fd92e233d00000000000000000000000000000000000000000000000000000000815260040160405180910390fd5b5f84118015612b415750838310155b612b77576040517fd5b25b6300000000000000000000000000000000000000000000000000000000815260040160405180910390fd5b6001600160a01b0382165f9081527ffa2183a4b9e35594495ef24f5060c5bba566c21a062a2b524b653f03c859a70260205260409020547ffa2183a4b9e35594495ef24f5060c5bba566c21a062a2b524b653f03c859a70090612bdb816001615053565b861480612be6575080155b612c1c576040517fd5b25b6300000000000000000000000000000000000000000000000000000000815260040160405180910390fd5b5f612c27878761509d565b612c32906001615053565b90505f612c4184898489613b11565b905080604001515f03612c5a575f9450505050506115bb565b6040517f0c1b8fd90000000000000000000000000000000000000000000000000000000081526001600160a01b0387811660048301525f917f000000000000000000000000000000000000000000000000000000000000000090911690630c1b8fd9906024016040805180830381865afa158015612cda573d5f5f3e3d5ffd5b505050506040513d601f19601f82011682018060405250810190612cfe919061525b565b509050805f03612d2557612d18858a85855f01518b613fc4565b5f955050505050506115bb565b506040805160018082528183019092525f916020808301908036833701905050905086815f81518110612d5a57612d5a614fb8565b6001600160a01b0392831660209182029290920101526040517f3f2a33f90000000000000000000000000000000000000000000000000000000081527f000000000000000000000000000000000000000000000000000000000000000090911690633f2a33f990612dd19084903090600401614fe5565b6020604051808303815f875af1158015612ded573d5f5f3e3d5ffd5b505050506040513d601f19601f82011682018060405250810190612e11919061500f565b95505f8611612e4c576040517f3fb087f400000000000000000000000000000000000000000000000000000000815260040160405180910390fd5b50611ee384898489898661404c565b81545f90815b81811015612eb157836001600160a01b0316858281548110612e8557612e85614fb8565b5f918252602090912001546001600160a01b031603612ea957600192505050610b6a565b600101612e61565b505f949350505050565b6001600160a01b0382165f9081526020858152604080832086845290915281206002015460ff161580612f1b57506001600160a01b038084165f908152600187016020908152604080832093861683529281528282208783529052205415155b15612f2757505f6113c8565b5f7f00000000000000000000000000000000000000000000000000000000000000006001600160a01b03166390aaa0467f00000000000000000000000000000000000000000000000000000000000000006001600160a01b0316636f5e290f886040518263ffffffff1660e01b8152600401612fa591815260200190565b602060405180830381865afa158015612fc0573d5f5f3e3d5ffd5b505050506040513d601f19601f82011682018060405250810190612fe49190615236565b6001600160a01b037f000000000000000000000000000000000000000000000000000000000000000016636f5e290f61301e8a6001615053565b6040518263ffffffff1660e01b815260040161303c91815260200190565b602060405180830381865afa158015613057573d5f5f3e3d5ffd5b505050506040513d601f19601f8201168201806040525081019061307b9190615236565b6040517fffffffff0000000000000000000000000000000000000000000000000000000060e085901b16815265ffffffffffff9283166004820152911660248201526001600160a01b03808816604483015286166064820152608401602060405180830381865afa1580156130f2573d5f5f3e3d5ffd5b505050506040513d601f19601f82011682018060405250810190613116919061500f565b9050805f03613128575f9150506113c8565b6001600160a01b0384165f9081526020878152604080832088845290915281208054600182015461315b91908590613613565b9350839150508015610f9b576001600160a01b038086165f908152600189016020908152604080832093881683529281528282208983529052208190556131a58786888785614233565b6131af908461509d565b9250836001600160a01b0316856001600160a01b0316877f39b62d670bf3a6b5e9b4bfd6dca9494ee4923d64014b74bbf4a13f5b09d5903a8587604051613200929190918252602082015260400190565b60405180910390a45050949350505050565b81601452806034526fa9059cbb0000000000000000000000005f5260205f604460105f875af18060015f51141661325b57803d853b15171061325b576390b8ec185f526004601cfd5b505f603452505050565b5f6115bb83836142f9565b60605f6115bb8361431f565b612982614378565b5f610b6a825490565b335f9081527fb7db2dd08fcb62d0c9e08c51941cae53c267786a0b75803fb7960902fc8ef97d602052604090205460ff16156132c857505050565b5f6132d4848484612392565b6001810154909150336001600160a01b03909116036132f35750505050565b6040517f4f1811dd0000000000000000000000000000000000000000000000000000000081526001600160a01b0384811660048301525f917f000000000000000000000000000000000000000000000000000000000000000090911690634f1811dd906024015f60405180830381865afa158015613373573d5f5f3e3d5ffd5b505050506040513d5f823e601f3d908101601f1916820160405261339a91908101906152d5565b604001519050336001600160a01b038216036133b7575050505050565b6040517f82b4290000000000000000000000000000000000000000000000000000000000815260040160405180910390fd5b5f8281527f02dd7bc7dec4dceedda775e58dd541e08a116c6c53815c0bd028192f7b626800602090815260408083206001600160a01b038516845290915290205460ff1661112e576040517fe2517d3f0000000000000000000000000000000000000000000000000000000081526001600160a01b038216600482015260248101839052604401611f72565b6001600160a01b0382165f90815260048401602052604081208054820361349f575f9150506115bb565b82815f815481106134b2576134b2614fb8565b905f5260205f20015411156134ca575f9150506115bb565b5f6134d68686866143df565b90505f81116134e5575f6122e5565b816134f160018361509d565b8154811061350157613501614fb8565b905f5260205f200154925050509392505050565b5f8281527f02dd7bc7dec4dceedda775e58dd541e08a116c6c53815c0bd028192f7b626800602081815260408084206001600160a01b038616855290915282205460ff166135f6575f848152602082815260408083206001600160a01b0387168452909152902080547fffffffffffffffffffffffffffffffffffffffffffffffffffffffffffffff001660011790556135ac3390565b6001600160a01b0316836001600160a01b0316857f2f8788117e7eff1d82e926ec794901d17c78024a50270940304540a733656f0d60405160405180910390a46001915050610b6a565b5f915050610b6a565b5f6115bb836001600160a01b038416614496565b828202818385830414851517026136b9577fffffffffffffffffffffffffffffffffffffffffffffffffffffffffffffffff8385098181108201900382848609835f03841682851161366c5763ae47f7025f526004601cfd5b93849004938382119092035f8390038390046001010292030417600260038302811880840282030280840282030280840282030280840282030280840282030280840290910302026115bb565b0492915050565b6001600160a01b0383165f9081526020868152604080832087845290915281206002015460ff16158061372057506001600160a01b038085165f908152600188016020908152604080832093871683529281528282208883529052205415155b1561372c57505f611711565b5f7f00000000000000000000000000000000000000000000000000000000000000006001600160a01b03166390aaa0467f00000000000000000000000000000000000000000000000000000000000000006001600160a01b0316636f5e290f896040518263ffffffff1660e01b81526004016137aa91815260200190565b602060405180830381865afa1580156137c5573d5f5f3e3d5ffd5b505050506040513d601f19601f820116820180604052508101906137e99190615236565b6001600160a01b037f000000000000000000000000000000000000000000000000000000000000000016636f5e290f6138238b6001615053565b6040518263ffffffff1660e01b815260040161384191815260200190565b602060405180830381865afa15801561385c573d5f5f3e3d5ffd5b505050506040513d601f19601f820116820180604052508101906138809190615236565b6040517fffffffff0000000000000000000000000000000000000000000000000000000060e085901b16815265ffffffffffff9283166004820152911660248201526001600160a01b03808916604483015287166064820152608401602060405180830381865afa1580156138f7573d5f5f3e3d5ffd5b505050506040513d601f19601f8201168201806040525081019061391b919061500f565b9050805f0361392d575f915050611711565b6001600160a01b0385165f9081526020888152604080832089845290915290208054600182015461396091908490613613565b925082156139db576001600160a01b038681165f81815260018b01602090815260408083208a86168085529083528184208d85528352928190208890558051948916855290840187905290928a917f6045ec4f4247b5f3ff7e8f3aabc36ed34dceb2a6379ed41d70e47d70af8eaf2391015b60405180910390a45b505095945050505050565b5f8281527f02dd7bc7dec4dceedda775e58dd541e08a116c6c53815c0bd028192f7b626800602081815260408084206001600160a01b038616855290915282205460ff16156135f6575f848152602082815260408083206001600160a01b038716808552925280832080547fffffffffffffffffffffffffffffffffffffffffffffffffffffffffffffff0016905551339287917ff6391f5c32d9c69d2a47ea670b442974b53935d1edc7fd64eb21e047a839171b9190a46001915050610b6a565b5f6115bb836001600160a01b0384166144e2565b613ac5826145bc565b6040516001600160a01b038316907fbc7cd75a20ee27fd9adebab32041f755214dbc6bffa90cc0225b39da2e5c2d3b905f90a2805115613b095761110e8282614663565b61112e6146cc565b613b34604051806060016040528060608152602001606081526020015f81525090565b5f7f00000000000000000000000000000000000000000000000000000000000000006001600160a01b0316636c9f2f586040518163ffffffff1660e01b8152600401602060405180830381865afa158015613b91573d5f5f3e3d5ffd5b505050506040513d601f19601f82011682018060405250810190613bb591906153be565b90508367ffffffffffffffff811115613bd057613bd0614b4e565b604051908082528060200260200182016040528015613bf9578160200160208202803683370190505b5082528367ffffffffffffffff811115613c1557613c15614b4e565b604051908082528060200260200182016040528015613c3e578160200160208202803683370190505b5060208301525f5b84811015610f9b575f613c598288615053565b6001600160a01b0386165f90815260208a8152604080832084845290915290206002015490915060ff1615613cba576040517f3366263c00000000000000000000000000000000000000000000000000000000815260040160405180910390fd5b5f613de8867f00000000000000000000000000000000000000000000000000000000000000006001600160a01b0316636f5e290f856040518263ffffffff1660e01b8152600401613d0d91815260200190565b602060405180830381865afa158015613d28573d5f5f3e3d5ffd5b505050506040513d601f19601f82011682018060405250810190613d4c9190615236565b6001600160a01b037f000000000000000000000000000000000000000000000000000000000000000016636f5e290f613d86876001615053565b6040518263ffffffff1660e01b8152600401613da491815260200190565b602060405180830381865afa158015613dbf573d5f5f3e3d5ffd5b505050506040513d601f19601f82011682018060405250810190613de39190615236565b614704565b9050805f03613e3b576001600160a01b0386165f81815260028b0160205260408082208590555184917fecd3a347628c3b88fe68f9ed7f8ce41ebeb7f83f713d3ae24ce1c3630f785f3291a35050613fbc565b6040517f8935ced5000000000000000000000000000000000000000000000000000000008152600481018390526001600160a01b0387811660248301525f918291871690638935ced59060440160a060405180830381865afa158015613ea3573d5f5f3e3d5ffd5b505050506040513d601f19601f82011682018060405250810190613ec791906153f8565b91509150801580613ee8575060208201516bffffffffffffffffffffffff16155b15613f39576001600160a01b0388165f81815260028d0160205260408082208790555186917fecd3a347628c3b88fe68f9ed7f8ce41ebeb7f83f713d3ae24ce1c3630f785f3291a350505050613fbc565b81602001516bffffffffffffffffffffffff16875f01518681518110613f6157613f61614fb8565b6020026020010181815250508287602001518681518110613f8457613f84614fb8565b60200260200101818152505081602001516bffffffffffffffffffffffff1687604001818151613fb49190615053565b905250505050505b600101613c46565b5f5b83811015611d2b575f838281518110613fe157613fe1614fb8565b60200260200101511115614044575f613ffa8287615053565b6001600160a01b0384165f81815260028a01602052604080822084905551929350909183917fecd3a347628c3b88fe68f9ed7f8ce41ebeb7f83f713d3ae24ce1c3630f785f3291a3505b600101613fc6565b5f80805b868110156141d657835180518290811061406c5761406c614fb8565b60200260200101515f03156141ce575f614086828a615053565b90505f6140b487875f015185815181106140a2576140a2614fb8565b60200260200101518860400151613613565b6001600160a01b0389165f90815260208d8152604080832086845282529091208281559088015180519293509091859081106140f2576140f2614fb8565b602090810291909101810151600180840191909155600280840180547fffffffffffffffffffffffffffffffffffffffffffffffffffffffffffffff00169092179091556001600160a01b038b165f908152908e019091526040902083905561415b8287615053565b9550829450886001600160a01b0316837fcad4bb3e722125ec372957e194e1fcbb73b8286b53632f18284e589d84f33bb6848a6020015188815181106141a3576141a3614fb8565b60200260200101516040516141c2929190918252602082015260400190565b60405180910390a35050505b600101614050565b5083821080156141e557505f81115b1561132b576141f4828561509d565b6001600160a01b0386165f90815260208a8152604080832085845290915281208054909190614224908490615053565b90915550505050505050505050565b5f5f614240878787612392565b60038101549091506001600160a01b031680158061426057506004820154155b1561426f575f92505050611711565b614280848360040154612710613613565b925082156139db576142b37f00000000000000000000000000000000000000000000000000000000000000008285613212565b846001600160a01b0316876001600160a01b0316877f79cfc57d040b454ad547f083baab4ce4b8753705a4836381e8d2f874e9f1e7b5866040516139d291815260200190565b5f825f01828154811061430e5761430e614fb8565b905f5260205f200154905092915050565b6060815f0180548060200260200160405190810160405280929190818152602001828054801561436c57602002820191905f5260205f20905b815481526020019060010190808311614358575b50505050509050919050565b7ff0c57e16840df040f15088dc2f81fe391c3923bec73e23a9662efc9c229c6a005468010000000000000000900460ff16612982576040517fd7e6bcf800000000000000000000000000000000000000000000000000000000815260040160405180910390fd5b6001600160a01b0382165f908152600484016020526040812080548203614409575f9150506115bb565b82815f8154811061441c5761441c614fb8565b905f5260205f2001541115614434575f9150506115bb565b80545f905b8082101561448c575f61444c83836147cb565b90508584828154811061446157614461614fb8565b905f5260205f200154111561447857809150614486565b614483816001615053565b92505b50614439565b5095945050505050565b5f8181526001830160205260408120546144db57508154600181810184555f848152602080822090930184905584548482528286019093526040902091909155610b6a565b505f610b6a565b5f81815260018301602052604081205480156135f6575f61450460018361509d565b85549091505f906145179060019061509d565b9050808214614576575f865f01828154811061453557614535614fb8565b905f5260205f200154905080875f01848154811061455557614555614fb8565b5f918252602080832090910192909255918252600188019052604090208390555b8554869080614587576145876154a1565b600190038181905f5260205f20015f90559055856001015f8681526020019081526020015f205f905560019350505050610b6a565b806001600160a01b03163b5f0361460a576040517f4c9c8ce30000000000000000000000000000000000000000000000000000000081526001600160a01b0382166004820152602401611f72565b7f360894a13ba1a3210667c828492db98dca3e2076cc3735a920a3ca505d382bbc80547fffffffffffffffffffffffff0000000000000000000000000000000000000000166001600160a01b0392909216919091179055565b60605f5f846001600160a01b03168460405161467f91906154ce565b5f60405180830381855af49150503d805f81146146b7576040519150601f19603f3d011682016040523d82523d5f602084013e6146bc565b606091505b50915091506117118583836147e5565b3415612982576040517fb398979f00000000000000000000000000000000000000000000000000000000815260040160405180910390fd5b6040517f2cba54da0000000000000000000000000000000000000000000000000000000081526001600160a01b03848116600483015265ffffffffffff8085166024840152831660448301525f917f000000000000000000000000000000000000000000000000000000000000000090911690632cba54da90606401602060405180830381865afa9250505080156147b9575060408051601f3d908101601f191682019092526147b69181019061500f565b60015b6147c457505f6115bb565b90506115bb565b5f6147d960028484186154e4565b6115bb90848416615053565b6060826147fa576147f58261485a565b6115bb565b815115801561481157506001600160a01b0384163b155b15614853576040517f9996b3150000000000000000000000000000000000000000000000000000000081526001600160a01b0385166004820152602401611f72565b50806115bb565b80511561486a5780518082602001fd5b6040517fd6bda27500000000000000000000000000000000000000000000000000000000815260040160405180910390fd5b5080545f8255905f5260205f209081019061238f91905b808211156148c6575f81556001016148b3565b5090565b5f602082840312156148da575f5ffd5b81357fffffffff00000000000000000000000000000000000000000000000000000000811681146115bb575f5ffd5b6001600160a01b038116811461238f575f5ffd5b803561492881614909565b919050565b5f6020828403121561493d575f5ffd5b81356115bb81614909565b5f60208284031215614958575f5ffd5b5035919050565b5f5f60408385031215614970575f5ffd5b823561497b81614909565b946020939093013593505050565b6020808252825160a083830152805160c084018190525f929190910190829060e08501905b808310156149da576001600160a01b0384511682526020820191506020840193506001830192506149ae565b5060208601516001600160a01b0381166040870152925060408601516001600160a01b0381166060870152925060608601516001600160a01b03811660808701529250608086015160a086015280935050505092915050565b5f5f60408385031215614a44575f5ffd5b823591506020830135614a5681614909565b809150509250929050565b5f5f5f5f60808587031215614a74575f5ffd5b8435614a7f81614909565b93506020850135614a8f81614909565b93969395505050506040820135916060013590565b5f5f83601f840112614ab4575f5ffd5b50813567ffffffffffffffff811115614acb575f5ffd5b6020830191508360208260051b8501011115614ae5575f5ffd5b9250929050565b5f5f5f5f5f60808688031215614b00575f5ffd5b8535614b0b81614909565b9450602086013567ffffffffffffffff811115614b26575f5ffd5b614b3288828901614aa4565b9699909850959660408101359660609091013595509350505050565b7f4e487b71000000000000000000000000000000000000000000000000000000005f52604160045260245ffd5b604051610100810167ffffffffffffffff81118282101715614b9f57614b9f614b4e565b60405290565b604051601f8201601f1916810167ffffffffffffffff81118282101715614bce57614bce614b4e565b604052919050565b5f67ffffffffffffffff821115614bef57614bef614b4e565b50601f01601f191660200190565b5f5f60408385031215614c0e575f5ffd5b8235614c1981614909565b9150602083013567ffffffffffffffff811115614c34575f5ffd5b8301601f81018513614c44575f5ffd5b8035614c57614c5282614bd6565b614ba5565b818152866020838501011115614c6b575f5ffd5b816020840160208301375f602083830101528093505050509250929050565b801515811461238f575f5ffd5b5f5f5f60608486031215614ca9575f5ffd5b8335614cb481614909565b92506020840135614cc481614909565b91506040840135614cd481614c8a565b809150509250925092565b5f5f5f60608486031215614cf1575f5ffd5b8335614cfc81614909565b95602085013595506040909401359392505050565b5f5f60408385031215614d22575f5ffd5b50508035926020909101359150565b5f5f5f60608486031215614d43575f5ffd5b833592506020840135614d5581614909565b91506040840135614cd481614909565b5f5f5f60608486031215614d77575f5ffd5b83359250602084013591506040840135614cd481614909565b5f8151808452602084019350602083015f5b82811015614dc95781516001600160a01b0316865260209586019590910190600101614da2565b5093949350505050565b602081525f6115bb6020830184614d90565b602081525f82518060208401528060208501604085015e5f604082850101526040601f19601f83011684010191505092915050565b5f5f5f5f5f5f5f5f6080898b031215614e31575f5ffd5b883567ffffffffffffffff811115614e47575f5ffd5b614e538b828c01614aa4565b909950975050602089013567ffffffffffffffff811115614e72575f5ffd5b614e7e8b828c01614aa4565b909750955050604089013567ffffffffffffffff811115614e9d575f5ffd5b614ea98b828c01614aa4565b909550935050606089013567ffffffffffffffff811115614ec8575f5ffd5b614ed48b828c01614aa4565b999c989b5096995094979396929594505050565b602080825282518282018190525f918401906040840190835b81811015614f1f578351835260209384019390920191600101614f01565b509095945050505050565b5f5f5f60608486031215614f3c575f5ffd5b8335614f4781614909565b925060208401359150604084013567ffffffffffffffff811115614f69575f5ffd5b840160a08187031215614cd4575f5ffd5b5f5f5f60608486031215614f8c575f5ffd5b8335614f9781614909565b92506020840135614fa781614909565b929592945050506040919091013590565b7f4e487b71000000000000000000000000000000000000000000000000000000005f52603260045260245ffd5b604081525f614ff76040830185614d90565b90506001600160a01b03831660208301529392505050565b5f6020828403121561501f575f5ffd5b5051919050565b7f4e487b71000000000000000000000000000000000000000000000000000000005f52601160045260245ffd5b80820180821115610b6a57610b6a615026565b5f7fffffffffffffffffffffffffffffffffffffffffffffffffffffffffffffffff820361509657615096615026565b5060010190565b81810381811115610b6a57610b6a615026565b5f5f83357fffffffffffffffffffffffffffffffffffffffffffffffffffffffffffffffe18436030181126150e3575f5ffd5b83018035915067ffffffffffffffff8211156150fd575f5ffd5b6020019150600581901b3603821315614ae5575f5ffd5b8183526020830192505f815f5b84811015614dc957813561513481614909565b6001600160a01b031686526020958601959190910190600101615121565b602081525f82357fffffffffffffffffffffffffffffffffffffffffffffffffffffffffffffffe1843603018112615188575f5ffd5b830160208101903567ffffffffffffffff8111156151a4575f5ffd5b8060051b36038213156151b5575f5ffd5b60a060208501526151ca60c085018284615114565b9150506151d96020850161491d565b6001600160a01b0381166040850152506151f56040850161491d565b6001600160a01b0381166060850152506152116060850161491d565b6001600160a01b0381166080850152506080939093013560a092909201919091525090565b5f60208284031215615246575f5ffd5b815165ffffffffffff811681146115bb575f5ffd5b5f5f6040838503121561526c575f5ffd5b505080516020909101519092909150565b805161492881614909565b5f82601f830112615297575f5ffd5b81516152a5614c5282614bd6565b8181528460208386010111156152b9575f5ffd5b8160208501602083015e5f918101602001919091529392505050565b5f602082840312156152e5575f5ffd5b815167ffffffffffffffff8111156152fb575f5ffd5b8201610100818503121561530d575f5ffd5b615315614b7b565b61531e8261527d565b8152602082015167ffffffffffffffff811115615339575f5ffd5b61534586828501615288565b6020830152506153576040830161527d565b60408201526153686060830161527d565b60608201526080828101519082015260a0808301519082015260c0808301519082015260e082015167ffffffffffffffff8111156153a4575f5ffd5b6153b086828501615288565b60e083015250949350505050565b5f602082840312156153ce575f5ffd5b81516115bb81614909565b80516fffffffffffffffffffffffffffffffff81168114614928575f5ffd5b5f5f82840360a081121561540a575f5ffd5b6080811215615417575f5ffd5b506040516080810167ffffffffffffffff8111828210171561543b5761543b614b4e565b604052835161544981614909565b815260208401516bffffffffffffffffffffffff81168114615469575f5ffd5b602082015261547a604085016153d9565b604082015261548b606085016153d9565b60608201526080840151909250614a5681614c8a565b7f4e487b71000000000000000000000000000000000000000000000000000000005f52603160045260245ffd5b5f82518060208501845e5f920191825250919050565b5f82615517577f4e487b71000000000000000000000000000000000000000000000000000000005f52601260045260245ffd5b50049056fe65366334653361616133666634656433363737366566346262353466633939663563326261373734a26469706673582212208570172f838ff4eba195ddec7bc0ac6ae2973e8f0c3ad5152c07dc1934b06d7864736f6c634300081d0033","linkReferences":{}},"methodIdentifiers":{"COLLATERAL_ORACLE()":"7a79bd5c","DEFAULT_ADMIN_ROLE()":"a217fddf","EPOCH_FEEDER()":"f3adae77","GIT_COMMIT()":"b8a15e3a","GIT_TAG()":"b175eb4d","GMITO()":"dd6b6456","GM_MITO()":"3bed90ce","OPERATOR_ROLE()":"f5b541a6","REWARD_DISTRIBUTOR()":"8de728e4","UPGRADE_INTERFACE_VERSION()":"ad3cb1cc","VALIDATOR_MANAGER()":"ae9483e0","WMITO()":"b919ba1a","claimForNonTargets(address,address[],uint256,uint256)":"3653d27f","claimRewards(address,uint256,uint256)":"7ca35209","currentEpoch()":"76671808","distributeRewards(address)":"1de9d9b6","finalizeEpoch(uint256,address)":"7c8cca36","finalizeEpochs(uint256,uint256,address)":"9683f2de","getApplicableConfig(address,uint256)":"262dd9fe","getClaimableRewards(address,address,uint256,uint256)":"3075fe4e","getConfigEpochsCount(address)":"1e9ca6e8","getConfigEpochsRange(address,uint256,uint256)":"d9abb433","getDistributionConfig(address,uint256)":"94bfd604","getEpochReward(uint256,address)":"fe1a6243","getLastFinalizedEpoch(address)":"9f4c271e","getRoleAdmin(bytes32)":"248a9ca3","getRoleMember(bytes32,uint256)":"9010d07c","getRoleMemberCount(bytes32)":"ca15c873","getRoleMembers(bytes32)":"a3246ad3","getVaultClaimed(uint256,address,address)":"93f37e44","gmMitoBalance()":"564cdf08","grantRole(bytes32,address)":"2f2ff15d","hasRole(bytes32,address)":"91d14854","initialize(address)":"c4d66de8","isTarget(address,address,uint256)":"fb1615c7","migrate(address[],address[],address[],address[])":"b3f74dca","proxiableUUID()":"52d1902d","renounceRole(bytes32,address)":"36568abe","revokeRole(bytes32,address)":"d547741f","setDistributionConfig(address,uint256,(address[],address,address,address,uint256))":"f47f0084","setOperatorClaimApproval(address,address,bool)":"5bdc8650","supportsInterface(bytes4)":"01ffc9a7","upgradeToAndCall(address,bytes)":"4f1ef286"},"id":119}