{"abi":[{"type":"constructor","inputs":[{"name":"wmito","type":"address","internalType":"address"},{"name":"gmMito","type":"address","internalType":"address"},{"name":"collateralOracle","type":"address","internalType":"address"},{"name":"epochFeeder","type":"address","internalType":"address"},{"name":"rewardDistributor","type":"address","internalType":"address"},{"name":"validatorManager","type":"address","internalType":"address"}],"stateMutability":"nonpayable"},{"type":"receive","stateMutability":"payable"},{"type":"function","name":"COLLATERAL_ORACLE","inputs":[],"outputs":[{"name":"","type":"address","internalType":"contract ICollateralOracleFeed"}],"stateMutability":"view"},{"type":"function","name":"DEFAULT_ADMIN_ROLE","inputs":[],"outputs":[{"name":"","type":"bytes32","internalType":"bytes32"}],"stateMutability":"view"},{"type":"function","name":"EPOCH_FEEDER","inputs":[],"outputs":[{"name":"","type":"address","internalType":"contract IEpochFeeder"}],"stateMutability":"view"},{"type":"function","name":"GIT_COMMIT","inputs":[],"outputs":[{"name":"","type":"string","internalType":"string"}],"stateMutability":"view"},{"type":"function","name":"GIT_TAG","inputs":[],"outputs":[{"name":"","type":"string","internalType":"string"}],"stateMutability":"view"},{"type":"function","name":"GMITO","inputs":[],"outputs":[{"name":"","type":"address","internalType":"contract IGovMITO"}],"stateMutability":"view"},{"type":"function","name":"GM_MITO","inputs":[],"outputs":[{"name":"","type":"address","internalType":"contract IgmMITO"}],"stateMutability":"view"},{"type":"function","name":"OPERATOR_ROLE","inputs":[],"outputs":[{"name":"","type":"bytes32","internalType":"bytes32"}],"stateMutability":"view"},{"type":"function","name":"REWARD_DISTRIBUTOR","inputs":[],"outputs":[{"name":"","type":"address","internalType":"contract IValidatorRewardDistributor"}],"stateMutability":"view"},{"type":"function","name":"UPGRADE_INTERFACE_VERSION","inputs":[],"outputs":[{"name":"","type":"string","internalType":"string"}],"stateMutability":"view"},{"type":"function","name":"VALIDATOR_MANAGER","inputs":[],"outputs":[{"name":"","type":"address","internalType":"contract IValidatorManager"}],"stateMutability":"view"},{"type":"function","name":"WMITO","inputs":[],"outputs":[{"name":"","type":"address","internalType":"contract WETH"}],"stateMutability":"view"},{"type":"function","name":"claimForNonTargets","inputs":[{"name":"validator","type":"address","internalType":"address"},{"name":"vaults","type":"address[]","internalType":"address[]"},{"name":"fromEpoch","type":"uint256","internalType":"uint256"},{"name":"toEpoch","type":"uint256","internalType":"uint256"}],"outputs":[{"name":"totalClaimed","type":"uint256","internalType":"uint256"}],"stateMutability":"nonpayable"},{"type":"function","name":"claimRewards","inputs":[{"name":"validator","type":"address","internalType":"address"},{"name":"fromEpoch","type":"uint256","internalType":"uint256"},{"name":"toEpoch","type":"uint256","internalType":"uint256"}],"outputs":[{"name":"totalClaimed","type":"uint256","internalType":"uint256"}],"stateMutability":"nonpayable"},{"type":"function","name":"currentEpoch","inputs":[],"outputs":[{"name":"","type":"uint256","internalType":"uint256"}],"stateMutability":"view"},{"type":"function","name":"distributeRewards","inputs":[{"name":"validator","type":"address","internalType":"address"}],"outputs":[{"name":"gmMitoAmount","type":"uint256","internalType":"uint256"}],"stateMutability":"nonpayable"},{"type":"function","name":"finalizeEpoch","inputs":[{"name":"epoch","type":"uint256","internalType":"uint256"},{"name":"validator","type":"address","internalType":"address"}],"outputs":[{"name":"totalGmMito","type":"uint256","internalType":"uint256"}],"stateMutability":"nonpayable"},{"type":"function","name":"finalizeEpochs","inputs":[{"name":"fromEpoch","type":"uint256","internalType":"uint256"},{"name":"toEpoch","type":"uint256","internalType":"uint256"},{"name":"validator","type":"address","internalType":"address"}],"outputs":[{"name":"totalGmMito","type":"uint256","internalType":"uint256"}],"stateMutability":"nonpayable"},{"type":"function","name":"getApplicableConfig","inputs":[{"name":"validator","type":"address","internalType":"address"},{"name":"epoch","type":"uint256","internalType":"uint256"}],"outputs":[{"name":"config","type":"tuple","internalType":"struct IRewardRouter.DistributionConfig","components":[{"name":"targets","type":"address[]","internalType":"address[]"},{"name":"operator","type":"address","internalType":"address"},{"name":"defaultRecipient","type":"address","internalType":"address"},{"name":"feeRecipient","type":"address","internalType":"address"},{"name":"commissionRate","type":"uint256","internalType":"uint256"}]}],"stateMutability":"view"},{"type":"function","name":"getClaimableRewards","inputs":[{"name":"validator","type":"address","internalType":"address"},{"name":"vault","type":"address","internalType":"address"},{"name":"fromEpoch","type":"uint256","internalType":"uint256"},{"name":"toEpoch","type":"uint256","internalType":"uint256"}],"outputs":[{"name":"totalClaimable","type":"uint256","internalType":"uint256"}],"stateMutability":"view"},{"type":"function","name":"getConfigEpochsCount","inputs":[{"name":"validator","type":"address","internalType":"address"}],"outputs":[{"name":"","type":"uint256","internalType":"uint256"}],"stateMutability":"view"},{"type":"function","name":"getConfigEpochsRange","inputs":[{"name":"validator","type":"address","internalType":"address"},{"name":"startIndex","type":"uint256","internalType":"uint256"},{"name":"endIndex","type":"uint256","internalType":"uint256"}],"outputs":[{"name":"epochs","type":"uint256[]","internalType":"uint256[]"}],"stateMutability":"view"},{"type":"function","name":"getDistributionConfig","inputs":[{"name":"validator","type":"address","internalType":"address"},{"name":"epoch","type":"uint256","internalType":"uint256"}],"outputs":[{"name":"config","type":"tuple","internalType":"struct IRewardRouter.DistributionConfig","components":[{"name":"targets","type":"address[]","internalType":"address[]"},{"name":"operator","type":"address","internalType":"address"},{"name":"defaultRecipient","type":"address","internalType":"address"},{"name":"feeRecipient","type":"address","internalType":"address"},{"name":"commissionRate","type":"uint256","internalType":"uint256"}]}],"stateMutability":"view"},{"type":"function","name":"getEpochReward","inputs":[{"name":"epoch","type":"uint256","internalType":"uint256"},{"name":"validator","type":"address","internalType":"address"}],"outputs":[{"name":"totalGmMito","type":"uint256","internalType":"uint256"},{"name":"totalTWAB","type":"uint256","internalType":"uint256"},{"name":"finalized","type":"bool","internalType":"bool"}],"stateMutability":"view"},{"type":"function","name":"getLastFinalizedEpoch","inputs":[{"name":"validator","type":"address","internalType":"address"}],"outputs":[{"name":"","type":"uint256","internalType":"uint256"}],"stateMutability":"view"},{"type":"function","name":"getRoleAdmin","inputs":[{"name":"role","type":"bytes32","internalType":"bytes32"}],"outputs":[{"name":"","type":"bytes32","internalType":"bytes32"}],"stateMutability":"view"},{"type":"function","name":"getRoleMember","inputs":[{"name":"role","type":"bytes32","internalType":"bytes32"},{"name":"index","type":"uint256","internalType":"uint256"}],"outputs":[{"name":"","type":"address","internalType":"address"}],"stateMutability":"view"},{"type":"function","name":"getRoleMemberCount","inputs":[{"name":"role","type":"bytes32","internalType":"bytes32"}],"outputs":[{"name":"","type":"uint256","internalType":"uint256"}],"stateMutability":"view"},{"type":"function","name":"getRoleMembers","inputs":[{"name":"role","type":"bytes32","internalType":"bytes32"}],"outputs":[{"name":"","type":"address[]","internalType":"address[]"}],"stateMutability":"view"},{"type":"function","name":"getVaultClaimed","inputs":[{"name":"epoch","type":"uint256","internalType":"uint256"},{"name":"validator","type":"address","internalType":"address"},{"name":"vault","type":"address","internalType":"address"}],"outputs":[{"name":"","type":"uint256","internalType":"uint256"}],"stateMutability":"view"},{"type":"function","name":"gmMitoBalance","inputs":[],"outputs":[{"name":"","type":"uint256","internalType":"uint256"}],"stateMutability":"view"},{"type":"function","name":"grantRole","inputs":[{"name":"role","type":"bytes32","internalType":"bytes32"},{"name":"account","type":"address","internalType":"address"}],"outputs":[],"stateMutability":"nonpayable"},{"type":"function","name":"hasRole","inputs":[{"name":"role","type":"bytes32","internalType":"bytes32"},{"name":"account","type":"address","internalType":"address"}],"outputs":[{"name":"","type":"bool","internalType":"bool"}],"stateMutability":"view"},{"type":"function","name":"initialize","inputs":[{"name":"initialOwner","type":"address","internalType":"address"}],"outputs":[],"stateMutability":"nonpayable"},{"type":"function","name":"isTarget","inputs":[{"name":"validator","type":"address","internalType":"address"},{"name":"vault","type":"address","internalType":"address"},{"name":"epoch","type":"uint256","internalType":"uint256"}],"outputs":[{"name":"","type":"bool","internalType":"bool"}],"stateMutability":"view"},{"type":"function","name":"proxiableUUID","inputs":[],"outputs":[{"name":"","type":"bytes32","internalType":"bytes32"}],"stateMutability":"view"},{"type":"function","name":"recover","inputs":[{"name":"validator","type":"address","internalType":"address"},{"name":"sourceEpoch","type":"uint256","internalType":"uint256"},{"name":"fromEpoch","type":"uint256","internalType":"uint256"},{"name":"toEpoch","type":"uint256","internalType":"uint256"}],"outputs":[{"name":"totalRedistributed","type":"uint256","internalType":"uint256"}],"stateMutability":"nonpayable"},{"type":"function","name":"renounceRole","inputs":[{"name":"role","type":"bytes32","internalType":"bytes32"},{"name":"callerConfirmation","type":"address","internalType":"address"}],"outputs":[],"stateMutability":"nonpayable"},{"type":"function","name":"revokeRole","inputs":[{"name":"role","type":"bytes32","internalType":"bytes32"},{"name":"account","type":"address","internalType":"address"}],"outputs":[],"stateMutability":"nonpayable"},{"type":"function","name":"setDistributionConfig","inputs":[{"name":"validator","type":"address","internalType":"address"},{"name":"startEpoch","type":"uint256","internalType":"uint256"},{"name":"config","type":"tuple","internalType":"struct IRewardRouter.DistributionConfig","components":[{"name":"targets","type":"address[]","internalType":"address[]"},{"name":"operator","type":"address","internalType":"address"},{"name":"defaultRecipient","type":"address","internalType":"address"},{"name":"feeRecipient","type":"address","internalType":"address"},{"name":"commissionRate","type":"uint256","internalType":"uint256"}]}],"outputs":[],"stateMutability":"nonpayable"},{"type":"function","name":"setOperatorClaimApproval","inputs":[{"name":"validator","type":"address","internalType":"address"},{"name":"claimer","type":"address","internalType":"address"},{"name":"approval","type":"bool","internalType":"bool"}],"outputs":[],"stateMutability":"nonpayable"},{"type":"function","name":"supportsInterface","inputs":[{"name":"interfaceId","type":"bytes4","internalType":"bytes4"}],"outputs":[{"name":"","type":"bool","internalType":"bool"}],"stateMutability":"view"},{"type":"function","name":"upgradeToAndCall","inputs":[{"name":"newImplementation","type":"address","internalType":"address"},{"name":"data","type":"bytes","internalType":"bytes"}],"outputs":[],"stateMutability":"payable"},{"type":"event","name":"DistributionConfigSet","inputs":[{"name":"validator","type":"address","indexed":true,"internalType":"address"},{"name":"startEpoch","type":"uint256","indexed":true,"internalType":"uint256"},{"name":"config","type":"tuple","indexed":false,"internalType":"struct IRewardRouter.DistributionConfig","components":[{"name":"targets","type":"address[]","internalType":"address[]"},{"name":"operator","type":"address","internalType":"address"},{"name":"defaultRecipient","type":"address","internalType":"address"},{"name":"feeRecipient","type":"address","internalType":"address"},{"name":"commissionRate","type":"uint256","internalType":"uint256"}]}],"anonymous":false},{"type":"event","name":"EpochRewardsFinalized","inputs":[{"name":"epoch","type":"uint256","indexed":true,"internalType":"uint256"},{"name":"validator","type":"address","indexed":true,"internalType":"address"},{"name":"totalGmMito","type":"uint256","indexed":false,"internalType":"uint256"},{"name":"totalTWAB","type":"uint256","indexed":false,"internalType":"uint256"}],"anonymous":false},{"type":"event","name":"EpochRewardsRedistributed","inputs":[{"name":"validator","type":"address","indexed":true,"internalType":"address"},{"name":"sourceEpoch","type":"uint256","indexed":false,"internalType":"uint256"},{"name":"fromEpoch","type":"uint256","indexed":false,"internalType":"uint256"},{"name":"toEpoch","type":"uint256","indexed":false,"internalType":"uint256"},{"name":"totalRedistributed","type":"uint256","indexed":false,"internalType":"uint256"}],"anonymous":false},{"type":"event","name":"EpochSkipped","inputs":[{"name":"epoch","type":"uint256","indexed":true,"internalType":"uint256"},{"name":"validator","type":"address","indexed":true,"internalType":"address"}],"anonymous":false},{"type":"event","name":"FeeTaken","inputs":[{"name":"epoch","type":"uint256","indexed":true,"internalType":"uint256"},{"name":"validator","type":"address","indexed":true,"internalType":"address"},{"name":"vault","type":"address","indexed":true,"internalType":"address"},{"name":"amount","type":"uint256","indexed":false,"internalType":"uint256"}],"anonymous":false},{"type":"event","name":"GmMitoTransferred","inputs":[{"name":"vault","type":"address","indexed":true,"internalType":"address"},{"name":"gmMitoAmount","type":"uint256","indexed":false,"internalType":"uint256"}],"anonymous":false},{"type":"event","name":"Initialized","inputs":[{"name":"version","type":"uint64","indexed":false,"internalType":"uint64"}],"anonymous":false},{"type":"event","name":"NonTargetRewardsClaimed","inputs":[{"name":"epoch","type":"uint256","indexed":true,"internalType":"uint256"},{"name":"validator","type":"address","indexed":true,"internalType":"address"},{"name":"vault","type":"address","indexed":true,"internalType":"address"},{"name":"recipient","type":"address","indexed":false,"internalType":"address"},{"name":"amount","type":"uint256","indexed":false,"internalType":"uint256"}],"anonymous":false},{"type":"event","name":"RewardDistributed","inputs":[{"name":"validator","type":"address","indexed":true,"internalType":"address"},{"name":"gmMitoAmount","type":"uint256","indexed":false,"internalType":"uint256"}],"anonymous":false},{"type":"event","name":"RoleAdminChanged","inputs":[{"name":"role","type":"bytes32","indexed":true,"internalType":"bytes32"},{"name":"previousAdminRole","type":"bytes32","indexed":true,"internalType":"bytes32"},{"name":"newAdminRole","type":"bytes32","indexed":true,"internalType":"bytes32"}],"anonymous":false},{"type":"event","name":"RoleGranted","inputs":[{"name":"role","type":"bytes32","indexed":true,"internalType":"bytes32"},{"name":"account","type":"address","indexed":true,"internalType":"address"},{"name":"sender","type":"address","indexed":true,"internalType":"address"}],"anonymous":false},{"type":"event","name":"RoleRevoked","inputs":[{"name":"role","type":"bytes32","indexed":true,"internalType":"bytes32"},{"name":"account","type":"address","indexed":true,"internalType":"address"},{"name":"sender","type":"address","indexed":true,"internalType":"address"}],"anonymous":false},{"type":"event","name":"Upgraded","inputs":[{"name":"implementation","type":"address","indexed":true,"internalType":"address"}],"anonymous":false},{"type":"event","name":"VaultShareClaimed","inputs":[{"name":"epoch","type":"uint256","indexed":true,"internalType":"uint256"},{"name":"validator","type":"address","indexed":true,"internalType":"address"},{"name":"vault","type":"address","indexed":true,"internalType":"address"},{"name":"vaultTWAB","type":"uint256","indexed":false,"internalType":"uint256"},{"name":"gmMitoAmount","type":"uint256","indexed":false,"internalType":"uint256"}],"anonymous":false},{"type":"error","name":"AccessControlBadConfirmation","inputs":[]},{"type":"error","name":"AccessControlUnauthorizedAccount","inputs":[{"name":"account","type":"address","internalType":"address"},{"name":"neededRole","type":"bytes32","internalType":"bytes32"}]},{"type":"error","name":"AddressEmptyCode","inputs":[{"name":"target","type":"address","internalType":"address"}]},{"type":"error","name":"ERC1967InvalidImplementation","inputs":[{"name":"implementation","type":"address","internalType":"address"}]},{"type":"error","name":"ERC1967NonPayable","inputs":[]},{"type":"error","name":"EpochAlreadyFinalized","inputs":[]},{"type":"error","name":"FailedCall","inputs":[]},{"type":"error","name":"InvalidCommissionRate","inputs":[{"name":"rate","type":"uint256","internalType":"uint256"}]},{"type":"error","name":"InvalidEpoch","inputs":[]},{"type":"error","name":"InvalidEpochOrder","inputs":[{"name":"startEpoch","type":"uint256","internalType":"uint256"},{"name":"lastConfigEpoch","type":"uint256","internalType":"uint256"}]},{"type":"error","name":"InvalidInitialization","inputs":[]},{"type":"error","name":"InvalidValidator","inputs":[]},{"type":"error","name":"InvalidVault","inputs":[]},{"type":"error","name":"NoRewards","inputs":[]},{"type":"error","name":"NotInitializing","inputs":[]},{"type":"error","name":"NotTarget","inputs":[]},{"type":"error","name":"UUPSUnauthorizedCallContext","inputs":[]},{"type":"error","name":"UUPSUnsupportedProxiableUUID","inputs":[{"name":"slot","type":"bytes32","internalType":"bytes32"}]},{"type":"error","name":"Unauthorized","inputs":[]},{"type":"error","name":"ZeroAddress","inputs":[]},{"type":"error","name":"ZeroAmount","inputs":[]}],"bytecode":{"object":"0x61018060405230608052348015610014575f5ffd5b50604051615e74380380615e74833981016040819052610033916102fc565b8585858585856001600160a01b0386166100605760405163d92e233d60e01b815260040160405180910390fd5b6001600160a01b0385166100875760405163d92e233d60e01b815260040160405180910390fd5b6001600160a01b0384166100ae5760405163d92e233d60e01b815260040160405180910390fd5b6001600160a01b0383166100d55760405163d92e233d60e01b815260040160405180910390fd5b6001600160a01b0382166100fc5760405163d92e233d60e01b815260040160405180910390fd5b6001600160a01b0381166101235760405163d92e233d60e01b815260040160405180910390fd5b6001600160a01b0380871660e05285811660c05284811661010052838116610140528281166101208190529082166101605260408051630bdcaec360e41b8152905163bdcaec30916004808201926020929091908290030181865afa15801561018e573d5f5f3e3d5ffd5b505050506040513d601f19601f820116820180604052508101906101b2919061037f565b6001600160a01b031663caffd74e6040518163ffffffff1660e01b8152600401602060405180830381865afa1580156101ed573d5f5f3e3d5ffd5b505050506040513d601f19601f82011682018060405250810190610211919061037f565b6001600160a01b031660a052610225610236565b5050505050505050505050506103a1565b7ff0c57e16840df040f15088dc2f81fe391c3923bec73e23a9662efc9c229c6a00805468010000000000000000900460ff16156102865760405163f92ee8a960e01b815260040160405180910390fd5b80546001600160401b03908116146102e55780546001600160401b0319166001600160401b0390811782556040519081527fc7f505b2f371ae2175ee4913f4499e1f2633a7b5936321eed1cdaeb6115181d29060200160405180910390a15b50565b6001600160a01b03811681146102e5575f5ffd5b5f5f5f5f5f5f60c08789031215610311575f5ffd5b865161031c816102e8565b602088015190965061032d816102e8565b604088015190955061033e816102e8565b606088015190945061034f816102e8565b6080880151909350610360816102e8565b60a0880151909250610371816102e8565b809150509295509295509295565b5f6020828403121561038f575f5ffd5b815161039a816102e8565b9392505050565b60805160a05160c05160e0516101005161012051610140516101605161599f6104d55f395f818161087701526136cc01525f81816109f50152818161156f01528181612325015281816123ba015281816132f80152818161338d01528181613adf01528181613b7401528181613e5201528181613ee70152818161421801526142ad01525f818161067e0152818161150f0152818161276d01528181613033015261408e01525f818161060d015281816122f6015281816132c901528181613ab001528181613e220152614c1e01525f81816102d701528181610306015261090601525f818161055401528181610c4d015281816113c70152818161178e015281816126c801528181613137015261475701525f6109c201525f8181612c5c01528181612c850152612e39015261599f5ff3fe6080604052600436106102cf575f3560e01c806391d148541161017b578063b919ba1a116100d1578063dd6b645611610087578063f5b541a611610062578063f5b541a614610a36578063fb1615c714610a69578063fe1a624314610a88575f5ffd5b8063dd6b6456146109b1578063f3adae77146109e4578063f47f008414610a17575f5ffd5b8063ca15c873116100b7578063ca15c87314610947578063d547741f14610966578063d9abb43314610985575f5ffd5b8063b919ba1a146108f5578063c4d66de814610928575f5ffd5b8063a217fddf11610131578063ae9483e01161010c578063ae9483e014610866578063b175eb4d14610899578063b8a15e3a146108e1575f5ffd5b8063a217fddf146107d2578063a3246ad3146107e5578063ad3cb1cc14610811575f5ffd5b806394bfd6041161016157806394bfd604146107415780639683f2de146107605780639f4c271e1461077f575f5ffd5b806391d14854146106bf57806393f37e4414610722575f5ffd5b80633bed90ce1161023057806376671808116101e65780637ca35209116101c15780637ca352091461064e5780638de728e41461066d5780639010d07c146106a0575f5ffd5b806376671808146105e85780637a79bd5c146105fc5780637c8cca361461062f575f5ffd5b806352d1902d1161021657806352d1902d146105a1578063564cdf08146105b55780635bdc8650146105c9575f5ffd5b80633bed90ce146105435780634f1ef2861461058e575f5ffd5b80632f2ff15d116102855780633653d27f1161026b5780633653d27f146104e657806336568abe1461050557806339ab87b114610524575f5ffd5b80632f2ff15d146104a85780633075fe4e146104c7575f5ffd5b80631e9ca6e8116102b55780631e9ca6e8146103dc578063248a9ca31461042f578063262dd9fe1461047c575f5ffd5b806301ffc9a71461037b5780631de9d9b6146103af575f5ffd5b3661037757337f00000000000000000000000000000000000000000000000000000000000000006001600160a01b031614610375577f00000000000000000000000000000000000000000000000000000000000000006001600160a01b031663d0e30db0346040518263ffffffff1660e01b81526004015f604051808303818588803b15801561035d575f5ffd5b505af115801561036f573d5f5f3e3d5ffd5b50505050505b005b5f5ffd5b348015610386575f5ffd5b5061039a610395366004614d94565b610b15565b60405190151581526020015b60405180910390f35b3480156103ba575f5ffd5b506103ce6103c9366004614df7565b610b70565b6040519081526020016103a6565b3480156103e7575f5ffd5b506103ce6103f6366004614df7565b6001600160a01b03165f9081527ffa2183a4b9e35594495ef24f5060c5bba566c21a062a2b524b653f03c859a704602052604090205490565b34801561043a575f5ffd5b506103ce610449366004614e12565b5f9081527f02dd7bc7dec4dceedda775e58dd541e08a116c6c53815c0bd028192f7b626800602052604090206001015490565b348015610487575f5ffd5b5061049b610496366004614e29565b610d4b565b6040516103a69190614e53565b3480156104b3575f5ffd5b506103756104c2366004614efd565b610e38565b3480156104d2575f5ffd5b506103ce6104e1366004614f2b565b610e81565b3480156104f1575f5ffd5b506103ce610500366004614f6e565b610fa5565b348015610510575f5ffd5b5061037561051f366004614efd565b6110c2565b34801561052f575f5ffd5b506103ce61053e366004615002565b611113565b34801561054e575f5ffd5b506105767f000000000000000000000000000000000000000000000000000000000000000081565b6040516001600160a01b0390911681526020016103a6565b61037561059c3660046150e9565b61134a565b3480156105ac575f5ffd5b506103ce611369565b3480156105c0575f5ffd5b506103ce611397565b3480156105d4575f5ffd5b506103756105e3366004615183565b61143d565b3480156105f3575f5ffd5b506103ce61156c565b348015610607575f5ffd5b506105767f000000000000000000000000000000000000000000000000000000000000000081565b34801561063a575f5ffd5b506103ce610649366004614efd565b6115c9565b348015610659575f5ffd5b506103ce6106683660046151cb565b611657565b348015610678575f5ffd5b506105767f000000000000000000000000000000000000000000000000000000000000000081565b3480156106ab575f5ffd5b506105766106ba3660046151fd565b6117bd565b3480156106ca575f5ffd5b5061039a6106d9366004614efd565b5f9182527f02dd7bc7dec4dceedda775e58dd541e08a116c6c53815c0bd028192f7b626800602090815260408084206001600160a01b0393909316845291905290205460ff1690565b34801561072d575f5ffd5b506103ce61073c36600461521d565b6117fd565b34801561074c575f5ffd5b5061049b61075b366004614e29565b611851565b34801561076b575f5ffd5b506103ce61077a366004615251565b61196a565b34801561078a575f5ffd5b506103ce610799366004614df7565b6001600160a01b03165f9081527ffa2183a4b9e35594495ef24f5060c5bba566c21a062a2b524b653f03c859a702602052604090205490565b3480156107dd575f5ffd5b506103ce5f81565b3480156107f0575f5ffd5b506108046107ff366004614e12565b6119a0565b6040516103a691906152bf565b34801561081c575f5ffd5b506108596040518060400160405280600581526020017f352e302e3000000000000000000000000000000000000000000000000000000081525081565b6040516103a691906152d1565b348015610871575f5ffd5b506105767f000000000000000000000000000000000000000000000000000000000000000081565b3480156108a4575f5ffd5b506108596040518060400160405280600681526020017f76302e302e39000000000000000000000000000000000000000000000000000081525081565b3480156108ec575f5ffd5b506108596119dc565b348015610900575f5ffd5b506105767f000000000000000000000000000000000000000000000000000000000000000081565b348015610933575f5ffd5b50610375610942366004614df7565b6119f8565b348015610952575f5ffd5b506103ce610961366004614e12565b611bc8565b348015610971575f5ffd5b50610375610980366004614efd565b611bff565b348015610990575f5ffd5b506109a461099f3660046151cb565b611c42565b6040516103a69190615306565b3480156109bc575f5ffd5b506105767f000000000000000000000000000000000000000000000000000000000000000081565b3480156109ef575f5ffd5b506105767f000000000000000000000000000000000000000000000000000000000000000081565b348015610a22575f5ffd5b50610375610a31366004615348565b611d83565b348015610a41575f5ffd5b506103ce7f46a52cf33029de9f84853745a87af28464c80bf0346df1b32e205fc73319f62281565b348015610a74575f5ffd5b5061039a610a83366004615398565b612140565b348015610a93575f5ffd5b50610af8610aa2366004614efd565b6001600160a01b03165f9081527ffa2183a4b9e35594495ef24f5060c5bba566c21a062a2b524b653f03c859a700602090815260408083209383529290522080546001820154600290920154909260ff90911690565b6040805193845260208401929092521515908201526060016103a6565b5f7fffffffff0000000000000000000000000000000000000000000000000000000082167f5a05180f000000000000000000000000000000000000000000000000000000001480610b6a5750610b6a82612184565b92915050565b5f7f46a52cf33029de9f84853745a87af28464c80bf0346df1b32e205fc73319f622610b9b8161221a565b6001600160a01b038316610bdb576040517fd92e233d00000000000000000000000000000000000000000000000000000000815260040160405180910390fd5b6040805160018082528183019092525f916020808301908036833701905050905083815f81518110610c0f57610c0f6153d6565b6001600160a01b0392831660209182029290920101526040517f3f2a33f90000000000000000000000000000000000000000000000000000000081527f000000000000000000000000000000000000000000000000000000000000000090911690633f2a33f990610c869084903090600401615403565b6020604051808303815f875af1158015610ca2573d5f5f3e3d5ffd5b505050506040513d601f19601f82011682018060405250810190610cc6919061542d565b92505f8311610d01576040517f3fb087f400000000000000000000000000000000000000000000000000000000815260040160405180910390fd5b836001600160a01b03167fe34918ff1c7084970068b53fd71ad6d8b04e9f15d3886cbf006443e6cdc52ea684604051610d3c91815260200190565b60405180910390a25050919050565b6040805160a08101825260608082525f60208301819052928201839052810182905260808101829052907ffa2183a4b9e35594495ef24f5060c5bba566c21a062a2b524b653f03c859a70090610da2828686612227565b805460408051602080840282018101909252828152929350839190830182828015610df457602002820191905f5260205f20905b81546001600160a01b03168152600190910190602001808311610dd6575b505050918552505060018101546001600160a01b03908116602085015260028201548116604085015260038201541660608401526004015460808301525092915050565b5f8281527f02dd7bc7dec4dceedda775e58dd541e08a116c6c53815c0bd028192f7b6268006020526040902060010154610e718161221a565b610e7b8383612261565b50505050565b5f6001600160a01b038516610ec2576040517fd92e233d00000000000000000000000000000000000000000000000000000000815260040160405180910390fd5b6001600160a01b038416610f02576040517fd92e233d00000000000000000000000000000000000000000000000000000000815260040160405180910390fd5b5f83118015610f115750828210155b610f47576040517fd5b25b6300000000000000000000000000000000000000000000000000000000815260040160405180910390fd5b7ffa2183a4b9e35594495ef24f5060c5bba566c21a062a2b524b653f03c859a700835b838111610f9b57610f7d828888846122b6565b610f879084615471565b925080610f9381615484565b915050610f6a565b5050949350505050565b5f6001600160a01b038616610fe6576040517fd92e233d00000000000000000000000000000000000000000000000000000000815260040160405180910390fd5b5f83118015610ff55750828210155b61102b576040517fd5b25b6300000000000000000000000000000000000000000000000000000000815260040160405180910390fd5b335f8181527f11408c214e50776f0f6e546bf3b89e7953bf3ba3b172efa6ff1ba292b2d1b3b260205260409020547ffa2183a4b9e35594495ef24f5060c5bba566c21a062a2b524b653f03c859a700919060ff16855b8581116110b557611097848b8b8b8588886125ae565b6110a19086615471565b9450806110ad81615484565b915050611081565b5050505095945050505050565b6001600160a01b0381163314611104576040517f6697b23200000000000000000000000000000000000000000000000000000000815260040160405180910390fd5b61110e82826126fb565b505050565b5f8061111e8161221a565b6001600160a01b03861661115e576040517fd92e233d00000000000000000000000000000000000000000000000000000000815260040160405180910390fd5b5f8411801561116d5750838310155b6111a3576040517fd5b25b6300000000000000000000000000000000000000000000000000000000815260040160405180910390fd5b8385101580156111b35750828511155b6111e9576040517fd5b25b6300000000000000000000000000000000000000000000000000000000815260040160405180910390fd5b6001600160a01b0386165f9081527ffa2183a4b9e35594495ef24f5060c5bba566c21a062a2b524b653f03c859a70060208181526040808420898552909152909120600281015460ff16801561123f5750805415155b611275576040517f3fb087f400000000000000000000000000000000000000000000000000000000815260040160405180910390fd5b805493505f61128487876154bb565b61128f906001615471565b90505f61129d88838c612747565b90505f8160400151116112dc576040517f3fb087f400000000000000000000000000000000000000000000000000000000815260040160405180910390fd5b6112ea8489848d8a866129f2565b604080518a8152602081018a9052908101889052606081018790526001600160a01b038b16907f21ebb663133f8e87c318deb0bce7c0f43c7b7e56ceb3cbfdbd1547d765567fdb9060800160405180910390a25050505050949350505050565b611352612c51565b61135b82612d23565b6113658282612d2d565b5050565b5f611372612e2e565b507f360894a13ba1a3210667c828492db98dca3e2076cc3735a920a3ca505d382bbc90565b6040517f70a082310000000000000000000000000000000000000000000000000000000081523060048201525f907f00000000000000000000000000000000000000000000000000000000000000006001600160a01b0316906370a0823190602401602060405180830381865afa158015611414573d5f5f3e3d5ffd5b505050506040513d601f19601f82011682018060405250810190611438919061542d565b905090565b5f6114478161221a565b6001600160a01b038416611487576040517fd92e233d00000000000000000000000000000000000000000000000000000000815260040160405180910390fd5b6001600160a01b0383166114c7576040517fd92e233d00000000000000000000000000000000000000000000000000000000815260040160405180910390fd5b6040517f53c6fdd00000000000000000000000000000000000000000000000000000000081526001600160a01b038581166004830152848116602483015283151560448301527f000000000000000000000000000000000000000000000000000000000000000016906353c6fdd0906064015f604051808303815f87803b158015611550575f5ffd5b505af1158015611562573d5f5f3e3d5ffd5b5050505050505050565b5f7f00000000000000000000000000000000000000000000000000000000000000006001600160a01b031663900cf0cf6040518163ffffffff1660e01b8152600401602060405180830381865afa158015611414573d5f5f3e3d5ffd5b5f7f46a52cf33029de9f84853745a87af28464c80bf0346df1b32e205fc73319f6226115f48161221a565b6001600160a01b0383165f9081527ffa2183a4b9e35594495ef24f5060c5bba566c21a062a2b524b653f03c859a7026020526040812054611636906001615471565b9050806001036116435750835b61164e818686612e90565b95945050505050565b5f6001600160a01b038416611698576040517fd92e233d00000000000000000000000000000000000000000000000000000000815260040160405180910390fd5b5f831180156116a75750828210155b6116dd576040517fd5b25b6300000000000000000000000000000000000000000000000000000000815260040160405180910390fd5b337ffa2183a4b9e35594495ef24f5060c5bba566c21a062a2b524b653f03c859a700845b848111611782575f611714838984612227565b905061172081856131fa565b611756576040517f65ec05a200000000000000000000000000000000000000000000000000000000815260040160405180910390fd5b61176283838a8761325a565b61176c9086615471565b945050808061177a90615484565b915050611701565b5082156117b4576117b47f000000000000000000000000000000000000000000000000000000000000000083856135b1565b50509392505050565b5f8281527fc1f6fe24621ce81ec5827caf0253cadb74709b061630e6b55e823717059320006020819052604082206117f59084613604565b949350505050565b6001600160a01b038281165f9081527ffa2183a4b9e35594495ef24f5060c5bba566c21a062a2b524b653f03c859a701602090815260408083209385168352928152828220868352905220545b9392505050565b6040805160a08101825260608082525f6020808401829052838501829052918301819052608083018190526001600160a01b03861681527ffa2183a4b9e35594495ef24f5060c5bba566c21a062a2b524b653f03c859a70382528381208582528252839020805484518184028101840190955280855292937ffa2183a4b9e35594495ef24f5060c5bba566c21a062a2b524b653f03c859a70093919290918391830182828015610df457602002820191905f5260205f209081546001600160a01b03168152600190910190602001808311610dd657505050918552505060018101546001600160a01b03908116602085015260028201548116604085015260038201541660608401526004015460808301525092915050565b5f7f46a52cf33029de9f84853745a87af28464c80bf0346df1b32e205fc73319f6226119958161221a565b61164e858585612e90565b5f8181527fc1f6fe24621ce81ec5827caf0253cadb74709b061630e6b55e82371705932000602081905260409091206060919061184a9061360f565b6040518060600160405280602881526020016159426028913981565b7ff0c57e16840df040f15088dc2f81fe391c3923bec73e23a9662efc9c229c6a00805468010000000000000000810460ff16159067ffffffffffffffff165f81158015611a425750825b90505f8267ffffffffffffffff166001148015611a5e5750303b155b905081158015611a6c575080155b15611aa3576040517ff92ee8a900000000000000000000000000000000000000000000000000000000815260040160405180910390fd5b84547fffffffffffffffffffffffffffffffffffffffffffffffff00000000000000001660011785558315611b045784547fffffffffffffffffffffffffffffffffffffffffffffff00ffffffffffffffff16680100000000000000001785555b6001600160a01b038616611b44576040517fd92e233d00000000000000000000000000000000000000000000000000000000815260040160405180910390fd5b611b4c61361b565b611b5461361b565b611b5e5f87612261565b508315611bc05784547fffffffffffffffffffffffffffffffffffffffffffffff00ffffffffffffffff168555604051600181527fc7f505b2f371ae2175ee4913f4499e1f2633a7b5936321eed1cdaeb6115181d29060200160405180910390a15b505050505050565b5f8181527fc1f6fe24621ce81ec5827caf0253cadb74709b061630e6b55e8237170593200060208190526040822061184a90613623565b5f8281527f02dd7bc7dec4dceedda775e58dd541e08a116c6c53815c0bd028192f7b6268006020526040902060010154611c388161221a565b610e7b83836126fb565b6001600160a01b0383165f9081527ffa2183a4b9e35594495ef24f5060c5bba566c21a062a2b524b653f03c859a70460205260409020805460609190808510611cba575f5b604051908082528060200260200182016040528015611cb0578160200160208202803683370190505b509250505061184a565b80841115611cc6578093505b848411611cd3575f611c87565b5f611cde86866154bb565b90508067ffffffffffffffff811115611cf957611cf961503a565b604051908082528060200260200182016040528015611d22578160200160208202803683370190505b5093505f5b81811015611d785783611d3a8289615471565b81548110611d4a57611d4a6153d6565b905f5260205f200154858281518110611d6557611d656153d6565b6020908102919091010152600101611d27565b505050509392505050565b6001600160a01b038316611dc3576040517fd92e233d00000000000000000000000000000000000000000000000000000000815260040160405180910390fd5b6080810135612710811115611e10576040517f7c27fae2000000000000000000000000000000000000000000000000000000008152600401611e0791815260200190565b60405180910390fd5b507ffa2183a4b9e35594495ef24f5060c5bba566c21a062a2b524b653f03c859a700611e3d81858561362c565b6001600160a01b0384165f9081526004820160205260409020805415611ef95780548190611e6d906001906154bb565b81548110611e7d57611e7d6153d6565b905f5260205f200154841015848260018480549050611e9c91906154bb565b81548110611eac57611eac6153d6565b905f5260205f2001549091611ef6576040517f84122f3800000000000000000000000000000000000000000000000000000000815260048101929092526024820152604401611e07565b50505b6001600160a01b0385165f908152600383016020908152604080832087845282529182902091611f2e91908601908601614df7565b6001820180547fffffffffffffffffffffffff0000000000000000000000000000000000000000166001600160a01b0392909216919091179055611f786060850160408601614df7565b6002820180547fffffffffffffffffffffffff0000000000000000000000000000000000000000166001600160a01b0392909216919091179055611fc26080850160608601614df7565b6003820180547fffffffffffffffffffffffff0000000000000000000000000000000000000000166001600160a01b039290921691909117905560808401356004820155612010815f614d66565b5f5b61201c85806154ce565b90508110156120a4578161203086806154ce565b83818110612040576120406153d6565b90506020020160208101906120559190614df7565b8154600180820184555f93845260209093200180547fffffffffffffffffffffffff0000000000000000000000000000000000000000166001600160a01b039290921691909117905501612012565b50815415806120dc57508154859083906120c0906001906154bb565b815481106120d0576120d06153d6565b905f5260205f20015414155b156120f65781546001810183555f83815260209020018590555b84866001600160a01b03167ffa86f71fb405a4f3c8fe0b059720aad6817a4c3fd9ef40267d349ebf42d5c447866040516121309190615577565b60405180910390a3505050505050565b5f7ffa2183a4b9e35594495ef24f5060c5bba566c21a062a2b524b653f03c859a7008161216e828786612227565b905061217a81866131fa565b9695505050505050565b5f7fffffffff0000000000000000000000000000000000000000000000000000000082167f7965db0b000000000000000000000000000000000000000000000000000000001480610b6a57507f01ffc9a7000000000000000000000000000000000000000000000000000000007fffffffff00000000000000000000000000000000000000000000000000000000831614610b6a565b6122248133613788565b50565b5f5f612234858585613814565b6001600160a01b0385165f9081526003870160209081526040808320938352929052209150509392505050565b5f7fc1f6fe24621ce81ec5827caf0253cadb74709b061630e6b55e823717059320008161228e85856138b4565b905080156117f5575f8581526020839052604090206122ad9085613980565b50949350505050565b6001600160a01b038084165f90815260018601602090815260408083209386168352928152828220848352905290812054156122f357505f6117f5565b5f7f00000000000000000000000000000000000000000000000000000000000000006001600160a01b03166390aaa0467f00000000000000000000000000000000000000000000000000000000000000006001600160a01b0316636f5e290f866040518263ffffffff1660e01b815260040161237191815260200190565b602060405180830381865afa15801561238c573d5f5f3e3d5ffd5b505050506040513d601f19601f820116820180604052508101906123b0919061565b565b6001600160a01b037f000000000000000000000000000000000000000000000000000000000000000016636f5e290f6123ea886001615471565b6040518263ffffffff1660e01b815260040161240891815260200190565b602060405180830381865afa158015612423573d5f5f3e3d5ffd5b505050506040513d601f19601f82011682018060405250810190612447919061565b565b6040517fffffffff0000000000000000000000000000000000000000000000000000000060e085901b16815265ffffffffffff9283166004820152911660248201526001600160a01b03808916604483015287166064820152608401602060405180830381865afa1580156124be573d5f5f3e3d5ffd5b505050506040513d601f19601f820116820180604052508101906124e2919061542d565b9050805f036124f4575f9150506117f5565b6001600160a01b0385165f908152602087815260408083208684529091529020600281015460ff1661252a575f925050506117f5565b5f61253d825f0154848460010154613994565b90505f61254b898988612227565b905061255781886131fa565b156125a25760038101546001600160a01b03161580159061257b57505f8160040154115b156125a2575f612592838360040154612710613994565b905061259e81846154bb565b9250505b50979650505050505050565b5f5f6125bb898987612227565b905082806125d8575060018101546001600160a01b038581169116145b806125f2575060028101546001600160a01b038581169116145b612628576040517f82b4290000000000000000000000000000000000000000000000000000000000815260040160405180910390fd5b60028101546001600160a01b03165f5b878110156126bc57612670838a8a84818110612656576126566153d6565b905060200201602081019061266b9190614df7565b6131fa565b6126b4576126a78b888c8c8c8681811061268c5761268c6153d6565b90506020020160208101906126a19190614df7565b86613a41565b6126b19085615471565b93505b600101612638565b5082156126ee576126ee7f000000000000000000000000000000000000000000000000000000000000000082856135b1565b5050979650505050505050565b5f7fc1f6fe24621ce81ec5827caf0253cadb74709b061630e6b55e82371705932000816127288585613d67565b905080156117f5575f8581526020839052604090206122ad9085613e0b565b61276a604051806060016040528060608152602001606081526020015f81525090565b5f7f00000000000000000000000000000000000000000000000000000000000000006001600160a01b0316636c9f2f586040518163ffffffff1660e01b8152600401602060405180830381865afa1580156127c7573d5f5f3e3d5ffd5b505050506040513d601f19601f820116820180604052508101906127eb9190615680565b90508367ffffffffffffffff8111156128065761280661503a565b60405190808252806020026020018201604052801561282f578160200160208202803683370190505b5082528367ffffffffffffffff81111561284b5761284b61503a565b604051908082528060200260200182016040528015612874578160200160208202803683370190505b5060208301525f5b848110156117b4575f61288f8288615471565b90505f61289c8683613e1f565b9050805f036128ac5750506129ea565b6040517f8935ced5000000000000000000000000000000000000000000000000000000008152600481018390526001600160a01b0387811660248301525f918291871690638935ced59060440160a060405180830381865afa158015612914573d5f5f3e3d5ffd5b505050506040513d601f19601f8201168201806040525081019061293891906156c5565b91509150801580612959575060208201516bffffffffffffffffffffffff16155b1561296757505050506129ea565b81602001516bffffffffffffffffffffffff16875f0151868151811061298f5761298f6153d6565b60200260200101818152505082876020015186815181106129b2576129b26153d6565b60200260200101818152505081602001516bffffffffffffffffffffffff16876040018181516129e29190615471565b905250505050505b60010161287c565b5f80805b86811015612bf4575f612a09828a615471565b9050845f01518281518110612a2057612a206153d6565b60200260200101515f03612ac4576001600160a01b0387165f90815260208b8152604080832084845290915290206002015460ff16612abe576001600160a01b0387165f81815260208c8152604080832085845282528083206002908101805460ff191660011790558484528e019091528082208490555183917fecd3a347628c3b88fe68f9ed7f8ce41ebeb7f83f713d3ae24ce1c3630f785f3291a35b50612bec565b5f612af087875f01518581518110612ade57612ade6153d6565b60200260200101518860400151613994565b6001600160a01b0389165f90815260208d815260408083208684528252909120828155908801518051929350909185908110612b2e57612b2e6153d6565b6020908102919091018101516001808401919091556002808401805460ff19169092179091556001600160a01b038b165f908152908e0190915260409020839055612b798287615471565b9550829450886001600160a01b0316837fcad4bb3e722125ec372957e194e1fcbb73b8286b53632f18284e589d84f33bb6848a602001518881518110612bc157612bc16153d6565b6020026020010151604051612be0929190918252602082015260400190565b60405180910390a35050505b6001016129f6565b508382108015612c0357505f81115b1561156257612c1282856154bb565b6001600160a01b0386165f90815260208a8152604080832085845290915281208054909190612c42908490615471565b90915550505050505050505050565b306001600160a01b037f0000000000000000000000000000000000000000000000000000000000000000161480612cea57507f00000000000000000000000000000000000000000000000000000000000000006001600160a01b0316612cde7f360894a13ba1a3210667c828492db98dca3e2076cc3735a920a3ca505d382bbc546001600160a01b031690565b6001600160a01b031614155b15612d21576040517fe07c8dba00000000000000000000000000000000000000000000000000000000815260040160405180910390fd5b565b5f6113658161221a565b816001600160a01b03166352d1902d6040518163ffffffff1660e01b8152600401602060405180830381865afa925050508015612d87575060408051601f3d908101601f19168201909252612d849181019061542d565b60015b612dc8576040517f4c9c8ce30000000000000000000000000000000000000000000000000000000081526001600160a01b0383166004820152602401611e07565b7f360894a13ba1a3210667c828492db98dca3e2076cc3735a920a3ca505d382bbc8114612e24576040517faa1d49a400000000000000000000000000000000000000000000000000000000815260048101829052602401611e07565b61110e8383614013565b306001600160a01b037f00000000000000000000000000000000000000000000000000000000000000001614612d21576040517fe07c8dba00000000000000000000000000000000000000000000000000000000815260040160405180910390fd5b5f6001600160a01b038216612ed1576040517fd92e233d00000000000000000000000000000000000000000000000000000000815260040160405180910390fd5b5f84118015612ee05750838310155b612f16576040517fd5b25b6300000000000000000000000000000000000000000000000000000000815260040160405180910390fd5b6001600160a01b0382165f9081527ffa2183a4b9e35594495ef24f5060c5bba566c21a062a2b524b653f03c859a70260205260409020547ffa2183a4b9e35594495ef24f5060c5bba566c21a062a2b524b653f03c859a70090612f7a816001615471565b861480612f85575080155b612fbb576040517fd5b25b6300000000000000000000000000000000000000000000000000000000815260040160405180910390fd5b5f612fc687876154bb565b612fd1906001615471565b90505f612fe084898489614068565b905080604001515f03612ff9575f94505050505061184a565b6040517f0c1b8fd90000000000000000000000000000000000000000000000000000000081526001600160a01b0387811660048301525f917f000000000000000000000000000000000000000000000000000000000000000090911690630c1b8fd9906024016040805180830381865afa158015613079573d5f5f3e3d5ffd5b505050506040513d601f19601f8201168201806040525081019061309d919061576e565b509050805f036130c4576130b7858a85855f01518b61451b565b5f9550505050505061184a565b506040805160018082528183019092525f916020808301908036833701905050905086815f815181106130f9576130f96153d6565b6001600160a01b0392831660209182029290920101526040517f3f2a33f90000000000000000000000000000000000000000000000000000000081527f000000000000000000000000000000000000000000000000000000000000000090911690633f2a33f9906131709084903090600401615403565b6020604051808303815f875af115801561318c573d5f5f3e3d5ffd5b505050506040513d601f19601f820116820180604052508101906131b0919061542d565b95505f86116131eb576040517f3fb087f400000000000000000000000000000000000000000000000000000000815260040160405180910390fd5b50611d788489848989866145a3565b81545f90815b8181101561325057836001600160a01b0316858281548110613224576132246153d6565b5f918252602090912001546001600160a01b03160361324857600192505050610b6a565b600101613200565b505f949350505050565b6001600160a01b0382165f9081526020858152604080832086845290915281206002015460ff1615806132ba57506001600160a01b038084165f908152600187016020908152604080832093861683529281528282208783529052205415155b156132c657505f6117f5565b5f7f00000000000000000000000000000000000000000000000000000000000000006001600160a01b03166390aaa0467f00000000000000000000000000000000000000000000000000000000000000006001600160a01b0316636f5e290f886040518263ffffffff1660e01b815260040161334491815260200190565b602060405180830381865afa15801561335f573d5f5f3e3d5ffd5b505050506040513d601f19601f82011682018060405250810190613383919061565b565b6001600160a01b037f000000000000000000000000000000000000000000000000000000000000000016636f5e290f6133bd8a6001615471565b6040518263ffffffff1660e01b81526004016133db91815260200190565b602060405180830381865afa1580156133f6573d5f5f3e3d5ffd5b505050506040513d601f19601f8201168201806040525081019061341a919061565b565b6040517fffffffff0000000000000000000000000000000000000000000000000000000060e085901b16815265ffffffffffff9283166004820152911660248201526001600160a01b03808816604483015286166064820152608401602060405180830381865afa158015613491573d5f5f3e3d5ffd5b505050506040513d601f19601f820116820180604052508101906134b5919061542d565b9050805f036134c7575f9150506117f5565b6001600160a01b0384165f908152602087815260408083208884529091528120805460018201546134fa91908590613994565b9350839150508015610f9b576001600160a01b038086165f9081526001890160209081526040808320938816835292815282822089835290522081905561354487868887856146fd565b61354e90846154bb565b9250836001600160a01b0316856001600160a01b0316877f39b62d670bf3a6b5e9b4bfd6dca9494ee4923d64014b74bbf4a13f5b09d5903a858760405161359f929190918252602082015260400190565b60405180910390a45050949350505050565b81601452806034526fa9059cbb0000000000000000000000005f5260205f604460105f875af18060015f5114166135fa57803d853b1517106135fa576390b8ec185f526004601cfd5b505f603452505050565b5f61184a83836147c3565b60605f61184a836147e9565b612d21614842565b5f610b6a825490565b335f9081527fb7db2dd08fcb62d0c9e08c51941cae53c267786a0b75803fb7960902fc8ef97d602052604090205460ff161561366757505050565b5f613673848484612227565b6001810154909150336001600160a01b03909116036136925750505050565b6040517f4f1811dd0000000000000000000000000000000000000000000000000000000081526001600160a01b0384811660048301525f917f000000000000000000000000000000000000000000000000000000000000000090911690634f1811dd906024015f60405180830381865afa158015613712573d5f5f3e3d5ffd5b505050506040513d5f823e601f3d908101601f1916820160405261373991908101906157dd565b604001519050336001600160a01b03821603613756575050505050565b6040517f82b4290000000000000000000000000000000000000000000000000000000000815260040160405180910390fd5b5f8281527f02dd7bc7dec4dceedda775e58dd541e08a116c6c53815c0bd028192f7b626800602090815260408083206001600160a01b038516845290915290205460ff16611365576040517fe2517d3f0000000000000000000000000000000000000000000000000000000081526001600160a01b038216600482015260248101839052604401611e07565b6001600160a01b0382165f90815260048401602052604081208054820361383e575f91505061184a565b82815f81548110613851576138516153d6565b905f5260205f2001541115613869575f91505061184a565b5f6138758686866148a9565b90505f8111613884575f61217a565b816138906001836154bb565b815481106138a0576138a06153d6565b905f5260205f200154925050509392505050565b5f8281527f02dd7bc7dec4dceedda775e58dd541e08a116c6c53815c0bd028192f7b626800602081815260408084206001600160a01b038616855290915282205460ff16613977575f848152602082815260408083206001600160a01b03871684529091529020805460ff1916600117905561392d3390565b6001600160a01b0316836001600160a01b0316857f2f8788117e7eff1d82e926ec794901d17c78024a50270940304540a733656f0d60405160405180910390a46001915050610b6a565b5f915050610b6a565b5f61184a836001600160a01b038416614960565b82820281838583041485151702613a3a577fffffffffffffffffffffffffffffffffffffffffffffffffffffffffffffffff8385098181108201900382848609835f0384168285116139ed5763ae47f7025f526004601cfd5b93849004938382119092035f83900383900460010102920304176002600383028118808402820302808402820302808402820302808402820302808402820302808402909103020261184a565b0492915050565b6001600160a01b0383165f9081526020868152604080832087845290915281206002015460ff161580613aa157506001600160a01b038085165f908152600188016020908152604080832093871683529281528282208883529052205415155b15613aad57505f61164e565b5f7f00000000000000000000000000000000000000000000000000000000000000006001600160a01b03166390aaa0467f00000000000000000000000000000000000000000000000000000000000000006001600160a01b0316636f5e290f896040518263ffffffff1660e01b8152600401613b2b91815260200190565b602060405180830381865afa158015613b46573d5f5f3e3d5ffd5b505050506040513d601f19601f82011682018060405250810190613b6a919061565b565b6001600160a01b037f000000000000000000000000000000000000000000000000000000000000000016636f5e290f613ba48b6001615471565b6040518263ffffffff1660e01b8152600401613bc291815260200190565b602060405180830381865afa158015613bdd573d5f5f3e3d5ffd5b505050506040513d601f19601f82011682018060405250810190613c01919061565b565b6040517fffffffff0000000000000000000000000000000000000000000000000000000060e085901b16815265ffffffffffff9283166004820152911660248201526001600160a01b03808916604483015287166064820152608401602060405180830381865afa158015613c78573d5f5f3e3d5ffd5b505050506040513d601f19601f82011682018060405250810190613c9c919061542d565b9050805f03613cae575f91505061164e565b6001600160a01b0385165f90815260208881526040808320898452909152902080546001820154613ce191908490613994565b92508215613d5c576001600160a01b038681165f81815260018b01602090815260408083208a86168085529083528184208d85528352928190208890558051948916855290840187905290928a917f6045ec4f4247b5f3ff7e8f3aabc36ed34dceb2a6379ed41d70e47d70af8eaf2391015b60405180910390a45b505095945050505050565b5f8281527f02dd7bc7dec4dceedda775e58dd541e08a116c6c53815c0bd028192f7b626800602081815260408084206001600160a01b038616855290915282205460ff1615613977575f848152602082815260408083206001600160a01b0387168085529252808320805460ff1916905551339287917ff6391f5c32d9c69d2a47ea670b442974b53935d1edc7fd64eb21e047a839171b9190a46001915050610b6a565b5f61184a836001600160a01b0384166149ac565b5f7f00000000000000000000000000000000000000000000000000000000000000006001600160a01b0316632cba54da847f00000000000000000000000000000000000000000000000000000000000000006001600160a01b0316636f5e290f866040518263ffffffff1660e01b8152600401613e9e91815260200190565b602060405180830381865afa158015613eb9573d5f5f3e3d5ffd5b505050506040513d601f19601f82011682018060405250810190613edd919061565b565b6001600160a01b037f000000000000000000000000000000000000000000000000000000000000000016636f5e290f613f17886001615471565b6040518263ffffffff1660e01b8152600401613f3591815260200190565b602060405180830381865afa158015613f50573d5f5f3e3d5ffd5b505050506040513d601f19601f82011682018060405250810190613f74919061565b565b6040517fffffffff0000000000000000000000000000000000000000000000000000000060e086901b1681526001600160a01b03909316600484015265ffffffffffff9182166024840152166044820152606401602060405180830381865afa925050508015614001575060408051601f3d908101601f19168201909252613ffe9181019061542d565b60015b61400c57505f610b6a565b9050610b6a565b61401c82614a86565b6040516001600160a01b038316907fbc7cd75a20ee27fd9adebab32041f755214dbc6bffa90cc0225b39da2e5c2d3b905f90a28051156140605761110e8282614b2d565b611365614b96565b61408b604051806060016040528060608152602001606081526020015f81525090565b5f7f00000000000000000000000000000000000000000000000000000000000000006001600160a01b0316636c9f2f586040518163ffffffff1660e01b8152600401602060405180830381865afa1580156140e8573d5f5f3e3d5ffd5b505050506040513d601f19601f8201168201806040525081019061410c9190615680565b90508367ffffffffffffffff8111156141275761412761503a565b604051908082528060200260200182016040528015614150578160200160208202803683370190505b5082528367ffffffffffffffff81111561416c5761416c61503a565b604051908082528060200260200182016040528015614195578160200160208202803683370190505b5060208301525f5b84811015610f9b575f6141b08288615471565b6001600160a01b0386165f90815260208a8152604080832084845290915290206002015490915060ff1615614211576040517f3366263c00000000000000000000000000000000000000000000000000000000815260040160405180910390fd5b5f61433f867f00000000000000000000000000000000000000000000000000000000000000006001600160a01b0316636f5e290f856040518263ffffffff1660e01b815260040161426491815260200190565b602060405180830381865afa15801561427f573d5f5f3e3d5ffd5b505050506040513d601f19601f820116820180604052508101906142a3919061565b565b6001600160a01b037f000000000000000000000000000000000000000000000000000000000000000016636f5e290f6142dd876001615471565b6040518263ffffffff1660e01b81526004016142fb91815260200190565b602060405180830381865afa158015614316573d5f5f3e3d5ffd5b505050506040513d601f19601f8201168201806040525081019061433a919061565b565b614bce565b9050805f03614392576001600160a01b0386165f81815260028b0160205260408082208590555184917fecd3a347628c3b88fe68f9ed7f8ce41ebeb7f83f713d3ae24ce1c3630f785f3291a35050614513565b6040517f8935ced5000000000000000000000000000000000000000000000000000000008152600481018390526001600160a01b0387811660248301525f918291871690638935ced59060440160a060405180830381865afa1580156143fa573d5f5f3e3d5ffd5b505050506040513d601f19601f8201168201806040525081019061441e91906156c5565b9150915080158061443f575060208201516bffffffffffffffffffffffff16155b15614490576001600160a01b0388165f81815260028d0160205260408082208790555186917fecd3a347628c3b88fe68f9ed7f8ce41ebeb7f83f713d3ae24ce1c3630f785f3291a350505050614513565b81602001516bffffffffffffffffffffffff16875f015186815181106144b8576144b86153d6565b60200260200101818152505082876020015186815181106144db576144db6153d6565b60200260200101818152505081602001516bffffffffffffffffffffffff168760400181815161450b9190615471565b905250505050505b60010161419d565b5f5b83811015611bc0575f838281518110614538576145386153d6565b6020026020010151111561459b575f6145518287615471565b6001600160a01b0384165f81815260028a01602052604080822084905551929350909183917fecd3a347628c3b88fe68f9ed7f8ce41ebeb7f83f713d3ae24ce1c3630f785f3291a3505b60010161451d565b5f80805b86811015612bf45783518051829081106145c3576145c36153d6565b60200260200101515f03156146f5575f6145dd828a615471565b90505f6145f987875f01518581518110612ade57612ade6153d6565b6001600160a01b0389165f90815260208d815260408083208684528252909120828155908801518051929350909185908110614637576146376153d6565b6020908102919091018101516001808401919091556002808401805460ff19169092179091556001600160a01b038b165f908152908e01909152604090208390556146828287615471565b9550829450886001600160a01b0316837fcad4bb3e722125ec372957e194e1fcbb73b8286b53632f18284e589d84f33bb6848a6020015188815181106146ca576146ca6153d6565b60200260200101516040516146e9929190918252602082015260400190565b60405180910390a35050505b6001016145a7565b5f5f61470a878787612227565b60038101549091506001600160a01b031680158061472a57506004820154155b15614739575f9250505061164e565b61474a848360040154612710613994565b92508215613d5c5761477d7f000000000000000000000000000000000000000000000000000000000000000082856135b1565b846001600160a01b0316876001600160a01b0316877f79cfc57d040b454ad547f083baab4ce4b8753705a4836381e8d2f874e9f1e7b586604051613d5391815260200190565b5f825f0182815481106147d8576147d86153d6565b905f5260205f200154905092915050565b6060815f0180548060200260200160405190810160405280929190818152602001828054801561483657602002820191905f5260205f20905b815481526020019060010190808311614822575b50505050509050919050565b7ff0c57e16840df040f15088dc2f81fe391c3923bec73e23a9662efc9c229c6a005468010000000000000000900460ff16612d21576040517fd7e6bcf800000000000000000000000000000000000000000000000000000000815260040160405180910390fd5b6001600160a01b0382165f9081526004840160205260408120805482036148d3575f91505061184a565b82815f815481106148e6576148e66153d6565b905f5260205f20015411156148fe575f91505061184a565b80545f905b80821015614956575f6149168383614c95565b90508584828154811061492b5761492b6153d6565b905f5260205f200154111561494257809150614950565b61494d816001615471565b92505b50614903565b5095945050505050565b5f8181526001830160205260408120546149a557508154600181810184555f848152602080822090930184905584548482528286019093526040902091909155610b6a565b505f610b6a565b5f8181526001830160205260408120548015613977575f6149ce6001836154bb565b85549091505f906149e1906001906154bb565b9050808214614a40575f865f0182815481106149ff576149ff6153d6565b905f5260205f200154905080875f018481548110614a1f57614a1f6153d6565b5f918252602080832090910192909255918252600188019052604090208390555b8554869080614a5157614a516158c6565b600190038181905f5260205f20015f90559055856001015f8681526020019081526020015f205f905560019350505050610b6a565b806001600160a01b03163b5f03614ad4576040517f4c9c8ce30000000000000000000000000000000000000000000000000000000081526001600160a01b0382166004820152602401611e07565b7f360894a13ba1a3210667c828492db98dca3e2076cc3735a920a3ca505d382bbc80547fffffffffffffffffffffffff0000000000000000000000000000000000000000166001600160a01b0392909216919091179055565b60605f5f846001600160a01b031684604051614b4991906158f3565b5f60405180830381855af49150503d805f8114614b81576040519150601f19603f3d011682016040523d82523d5f602084013e614b86565b606091505b509150915061164e858383614caf565b3415612d21576040517fb398979f00000000000000000000000000000000000000000000000000000000815260040160405180910390fd5b6040517f2cba54da0000000000000000000000000000000000000000000000000000000081526001600160a01b03848116600483015265ffffffffffff8085166024840152831660448301525f917f000000000000000000000000000000000000000000000000000000000000000090911690632cba54da90606401602060405180830381865afa925050508015614c83575060408051601f3d908101601f19168201909252614c809181019061542d565b60015b614c8e57505f61184a565b905061184a565b5f614ca36002848418615909565b61184a90848416615471565b606082614cc457614cbf82614d24565b61184a565b8151158015614cdb57506001600160a01b0384163b155b15614d1d576040517f9996b3150000000000000000000000000000000000000000000000000000000081526001600160a01b0385166004820152602401611e07565b508061184a565b805115614d345780518082602001fd5b6040517fd6bda27500000000000000000000000000000000000000000000000000000000815260040160405180910390fd5b5080545f8255905f5260205f209081019061222491905b80821115614d90575f8155600101614d7d565b5090565b5f60208284031215614da4575f5ffd5b81357fffffffff000000000000000000000000000000000000000000000000000000008116811461184a575f5ffd5b6001600160a01b0381168114612224575f5ffd5b8035614df281614dd3565b919050565b5f60208284031215614e07575f5ffd5b813561184a81614dd3565b5f60208284031215614e22575f5ffd5b5035919050565b5f5f60408385031215614e3a575f5ffd5b8235614e4581614dd3565b946020939093013593505050565b6020808252825160a083830152805160c084018190525f929190910190829060e08501905b80831015614ea4576001600160a01b038451168252602082019150602084019350600183019250614e78565b5060208601516001600160a01b0381166040870152925060408601516001600160a01b0381166060870152925060608601516001600160a01b03811660808701529250608086015160a086015280935050505092915050565b5f5f60408385031215614f0e575f5ffd5b823591506020830135614f2081614dd3565b809150509250929050565b5f5f5f5f60808587031215614f3e575f5ffd5b8435614f4981614dd3565b93506020850135614f5981614dd3565b93969395505050506040820135916060013590565b5f5f5f5f5f60808688031215614f82575f5ffd5b8535614f8d81614dd3565b9450602086013567ffffffffffffffff811115614fa8575f5ffd5b8601601f81018813614fb8575f5ffd5b803567ffffffffffffffff811115614fce575f5ffd5b8860208260051b8401011115614fe2575f5ffd5b959860209190910197509495604081013595606090910135945092505050565b5f5f5f5f60808587031215615015575f5ffd5b843561502081614dd3565b966020860135965060408601359560600135945092505050565b7f4e487b71000000000000000000000000000000000000000000000000000000005f52604160045260245ffd5b604051610100810167ffffffffffffffff8111828210171561508b5761508b61503a565b60405290565b604051601f8201601f1916810167ffffffffffffffff811182821017156150ba576150ba61503a565b604052919050565b5f67ffffffffffffffff8211156150db576150db61503a565b50601f01601f191660200190565b5f5f604083850312156150fa575f5ffd5b823561510581614dd3565b9150602083013567ffffffffffffffff811115615120575f5ffd5b8301601f81018513615130575f5ffd5b803561514361513e826150c2565b615091565b818152866020838501011115615157575f5ffd5b816020840160208301375f602083830101528093505050509250929050565b8015158114612224575f5ffd5b5f5f5f60608486031215615195575f5ffd5b83356151a081614dd3565b925060208401356151b081614dd3565b915060408401356151c081615176565b809150509250925092565b5f5f5f606084860312156151dd575f5ffd5b83356151e881614dd3565b95602085013595506040909401359392505050565b5f5f6040838503121561520e575f5ffd5b50508035926020909101359150565b5f5f5f6060848603121561522f575f5ffd5b83359250602084013561524181614dd3565b915060408401356151c081614dd3565b5f5f5f60608486031215615263575f5ffd5b833592506020840135915060408401356151c081614dd3565b5f8151808452602084019350602083015f5b828110156152b55781516001600160a01b031686526020958601959091019060010161528e565b5093949350505050565b602081525f61184a602083018461527c565b602081525f82518060208401528060208501604085015e5f604082850101526040601f19601f83011684010191505092915050565b602080825282518282018190525f918401906040840190835b8181101561533d57835183526020938401939092019160010161531f565b509095945050505050565b5f5f5f6060848603121561535a575f5ffd5b833561536581614dd3565b925060208401359150604084013567ffffffffffffffff811115615387575f5ffd5b840160a081870312156151c0575f5ffd5b5f5f5f606084860312156153aa575f5ffd5b83356153b581614dd3565b925060208401356153c581614dd3565b929592945050506040919091013590565b7f4e487b71000000000000000000000000000000000000000000000000000000005f52603260045260245ffd5b604081525f615415604083018561527c565b90506001600160a01b03831660208301529392505050565b5f6020828403121561543d575f5ffd5b5051919050565b7f4e487b71000000000000000000000000000000000000000000000000000000005f52601160045260245ffd5b80820180821115610b6a57610b6a615444565b5f7fffffffffffffffffffffffffffffffffffffffffffffffffffffffffffffffff82036154b4576154b4615444565b5060010190565b81810381811115610b6a57610b6a615444565b5f5f83357fffffffffffffffffffffffffffffffffffffffffffffffffffffffffffffffe1843603018112615501575f5ffd5b83018035915067ffffffffffffffff82111561551b575f5ffd5b6020019150600581901b3603821315615532575f5ffd5b9250929050565b8183526020830192505f815f5b848110156152b557813561555981614dd3565b6001600160a01b031686526020958601959190910190600101615546565b602081525f82357fffffffffffffffffffffffffffffffffffffffffffffffffffffffffffffffe18436030181126155ad575f5ffd5b830160208101903567ffffffffffffffff8111156155c9575f5ffd5b8060051b36038213156155da575f5ffd5b60a060208501526155ef60c085018284615539565b9150506155fe60208501614de7565b6001600160a01b03811660408501525061561a60408501614de7565b6001600160a01b03811660608501525061563660608501614de7565b6001600160a01b0381166080850152506080939093013560a092909201919091525090565b5f6020828403121561566b575f5ffd5b815165ffffffffffff8116811461184a575f5ffd5b5f60208284031215615690575f5ffd5b815161184a81614dd3565b8051614df281614dd3565b80516fffffffffffffffffffffffffffffffff81168114614df2575f5ffd5b5f5f82840360a08112156156d7575f5ffd5b60808112156156e4575f5ffd5b506040516080810167ffffffffffffffff811182821017156157085761570861503a565b604052835161571681614dd3565b815260208401516bffffffffffffffffffffffff81168114615736575f5ffd5b6020820152615747604085016156a6565b6040820152615758606085016156a6565b60608201526080840151909250614f2081615176565b5f5f6040838503121561577f575f5ffd5b505080516020909101519092909150565b5f82601f83011261579f575f5ffd5b81516157ad61513e826150c2565b8181528460208386010111156157c1575f5ffd5b8160208501602083015e5f918101602001919091529392505050565b5f602082840312156157ed575f5ffd5b815167ffffffffffffffff811115615803575f5ffd5b82016101008185031215615815575f5ffd5b61581d615067565b6158268261569b565b8152602082015167ffffffffffffffff811115615841575f5ffd5b61584d86828501615790565b60208301525061585f6040830161569b565b60408201526158706060830161569b565b60608201526080828101519082015260a0808301519082015260c0808301519082015260e082015167ffffffffffffffff8111156158ac575f5ffd5b6158b886828501615790565b60e083015250949350505050565b7f4e487b71000000000000000000000000000000000000000000000000000000005f52603160045260245ffd5b5f82518060208501845e5f920191825250919050565b5f8261593c577f4e487b71000000000000000000000000000000000000000000000000000000005f52601260045260245ffd5b50049056fe35336536626632313038616264393961383839666135316463623834623230643465643835643462a2646970667358221220ba8d16964a0863e1f7b57c1dd28b4eef48a69b94550c1cfbf0d8f2a71fa17d9664736f6c634300081d0033","linkReferences":{}},"methodIdentifiers":{"COLLATERAL_ORACLE()":"7a79bd5c","DEFAULT_ADMIN_ROLE()":"a217fddf","EPOCH_FEEDER()":"f3adae77","GIT_COMMIT()":"b8a15e3a","GIT_TAG()":"b175eb4d","GMITO()":"dd6b6456","GM_MITO()":"3bed90ce","OPERATOR_ROLE()":"f5b541a6","REWARD_DISTRIBUTOR()":"8de728e4","UPGRADE_INTERFACE_VERSION()":"ad3cb1cc","VALIDATOR_MANAGER()":"ae9483e0","WMITO()":"b919ba1a","claimForNonTargets(address,address[],uint256,uint256)":"3653d27f","claimRewards(address,uint256,uint256)":"7ca35209","currentEpoch()":"76671808","distributeRewards(address)":"1de9d9b6","finalizeEpoch(uint256,address)":"7c8cca36","finalizeEpochs(uint256,uint256,address)":"9683f2de","getApplicableConfig(address,uint256)":"262dd9fe","getClaimableRewards(address,address,uint256,uint256)":"3075fe4e","getConfigEpochsCount(address)":"1e9ca6e8","getConfigEpochsRange(address,uint256,uint256)":"d9abb433","getDistributionConfig(address,uint256)":"94bfd604","getEpochReward(uint256,address)":"fe1a6243","getLastFinalizedEpoch(address)":"9f4c271e","getRoleAdmin(bytes32)":"248a9ca3","getRoleMember(bytes32,uint256)":"9010d07c","getRoleMemberCount(bytes32)":"ca15c873","getRoleMembers(bytes32)":"a3246ad3","getVaultClaimed(uint256,address,address)":"93f37e44","gmMitoBalance()":"564cdf08","grantRole(bytes32,address)":"2f2ff15d","hasRole(bytes32,address)":"91d14854","initialize(address)":"c4d66de8","isTarget(address,address,uint256)":"fb1615c7","proxiableUUID()":"52d1902d","recover(address,uint256,uint256,uint256)":"39ab87b1","renounceRole(bytes32,address)":"36568abe","revokeRole(bytes32,address)":"d547741f","setDistributionConfig(address,uint256,(address[],address,address,address,uint256))":"f47f0084","setOperatorClaimApproval(address,address,bool)":"5bdc8650","supportsInterface(bytes4)":"01ffc9a7","upgradeToAndCall(address,bytes)":"4f1ef286"},"id":117}