{"abi":[{"type":"constructor","inputs":[{"name":"wmito","type":"address","internalType":"address"},{"name":"gmMito","type":"address","internalType":"address"},{"name":"collateralOracle","type":"address","internalType":"address"},{"name":"epochFeeder","type":"address","internalType":"address"},{"name":"rewardDistributor","type":"address","internalType":"address"},{"name":"validatorManager","type":"address","internalType":"address"}],"stateMutability":"nonpayable"},{"type":"receive","stateMutability":"payable"},{"type":"function","name":"COLLATERAL_ORACLE","inputs":[],"outputs":[{"name":"","type":"address","internalType":"contract ICollateralOracleFeed"}],"stateMutability":"view"},{"type":"function","name":"DEFAULT_ADMIN_ROLE","inputs":[],"outputs":[{"name":"","type":"bytes32","internalType":"bytes32"}],"stateMutability":"view"},{"type":"function","name":"EPOCH_FEEDER","inputs":[],"outputs":[{"name":"","type":"address","internalType":"contract IEpochFeeder"}],"stateMutability":"view"},{"type":"function","name":"GIT_COMMIT","inputs":[],"outputs":[{"name":"","type":"string","internalType":"string"}],"stateMutability":"view"},{"type":"function","name":"GIT_TAG","inputs":[],"outputs":[{"name":"","type":"string","internalType":"string"}],"stateMutability":"view"},{"type":"function","name":"GMITO","inputs":[],"outputs":[{"name":"","type":"address","internalType":"contract IGovMITO"}],"stateMutability":"view"},{"type":"function","name":"GM_MITO","inputs":[],"outputs":[{"name":"","type":"address","internalType":"contract IgmMITO"}],"stateMutability":"view"},{"type":"function","name":"OPERATOR_ROLE","inputs":[],"outputs":[{"name":"","type":"bytes32","internalType":"bytes32"}],"stateMutability":"view"},{"type":"function","name":"REWARD_DISTRIBUTOR","inputs":[],"outputs":[{"name":"","type":"address","internalType":"contract IValidatorRewardDistributor"}],"stateMutability":"view"},{"type":"function","name":"UPGRADE_INTERFACE_VERSION","inputs":[],"outputs":[{"name":"","type":"string","internalType":"string"}],"stateMutability":"view"},{"type":"function","name":"VALIDATOR_MANAGER","inputs":[],"outputs":[{"name":"","type":"address","internalType":"contract IValidatorManager"}],"stateMutability":"view"},{"type":"function","name":"WMITO","inputs":[],"outputs":[{"name":"","type":"address","internalType":"contract WETH"}],"stateMutability":"view"},{"type":"function","name":"claimForNonTargets","inputs":[{"name":"validator","type":"address","internalType":"address"},{"name":"vaults","type":"address[]","internalType":"address[]"},{"name":"fromEpoch","type":"uint256","internalType":"uint256"},{"name":"toEpoch","type":"uint256","internalType":"uint256"}],"outputs":[{"name":"totalClaimed","type":"uint256","internalType":"uint256"}],"stateMutability":"nonpayable"},{"type":"function","name":"claimRewards","inputs":[{"name":"validator","type":"address","internalType":"address"},{"name":"fromEpoch","type":"uint256","internalType":"uint256"},{"name":"toEpoch","type":"uint256","internalType":"uint256"}],"outputs":[{"name":"totalClaimed","type":"uint256","internalType":"uint256"}],"stateMutability":"nonpayable"},{"type":"function","name":"currentEpoch","inputs":[],"outputs":[{"name":"","type":"uint256","internalType":"uint256"}],"stateMutability":"view"},{"type":"function","name":"distributeRewards","inputs":[{"name":"validator","type":"address","internalType":"address"}],"outputs":[{"name":"gmMitoAmount","type":"uint256","internalType":"uint256"}],"stateMutability":"nonpayable"},{"type":"function","name":"finalizeEpoch","inputs":[{"name":"epoch","type":"uint256","internalType":"uint256"},{"name":"validator","type":"address","internalType":"address"}],"outputs":[{"name":"totalGmMito","type":"uint256","internalType":"uint256"}],"stateMutability":"nonpayable"},{"type":"function","name":"getApplicableConfig","inputs":[{"name":"validator","type":"address","internalType":"address"},{"name":"epoch","type":"uint256","internalType":"uint256"}],"outputs":[{"name":"config","type":"tuple","internalType":"struct IRewardRouter.DistributionConfig","components":[{"name":"targets","type":"address[]","internalType":"address[]"},{"name":"operator","type":"address","internalType":"address"},{"name":"defaultRecipient","type":"address","internalType":"address"},{"name":"feeRecipient","type":"address","internalType":"address"},{"name":"commissionRate","type":"uint256","internalType":"uint256"}]}],"stateMutability":"view"},{"type":"function","name":"getClaimableRewards","inputs":[{"name":"validator","type":"address","internalType":"address"},{"name":"vault","type":"address","internalType":"address"},{"name":"fromEpoch","type":"uint256","internalType":"uint256"},{"name":"toEpoch","type":"uint256","internalType":"uint256"}],"outputs":[{"name":"totalClaimable","type":"uint256","internalType":"uint256"}],"stateMutability":"view"},{"type":"function","name":"getConfigEpochsCount","inputs":[{"name":"validator","type":"address","internalType":"address"}],"outputs":[{"name":"","type":"uint256","internalType":"uint256"}],"stateMutability":"view"},{"type":"function","name":"getConfigEpochsRange","inputs":[{"name":"validator","type":"address","internalType":"address"},{"name":"startIndex","type":"uint256","internalType":"uint256"},{"name":"endIndex","type":"uint256","internalType":"uint256"}],"outputs":[{"name":"epochs","type":"uint256[]","internalType":"uint256[]"}],"stateMutability":"view"},{"type":"function","name":"getDistributionConfig","inputs":[{"name":"validator","type":"address","internalType":"address"},{"name":"epoch","type":"uint256","internalType":"uint256"}],"outputs":[{"name":"config","type":"tuple","internalType":"struct IRewardRouter.DistributionConfig","components":[{"name":"targets","type":"address[]","internalType":"address[]"},{"name":"operator","type":"address","internalType":"address"},{"name":"defaultRecipient","type":"address","internalType":"address"},{"name":"feeRecipient","type":"address","internalType":"address"},{"name":"commissionRate","type":"uint256","internalType":"uint256"}]}],"stateMutability":"view"},{"type":"function","name":"getEpochReward","inputs":[{"name":"epoch","type":"uint256","internalType":"uint256"},{"name":"validator","type":"address","internalType":"address"}],"outputs":[{"name":"totalGmMito","type":"uint256","internalType":"uint256"},{"name":"totalTWAB","type":"uint256","internalType":"uint256"},{"name":"finalized","type":"bool","internalType":"bool"}],"stateMutability":"view"},{"type":"function","name":"getLastFinalizedEpoch","inputs":[{"name":"validator","type":"address","internalType":"address"}],"outputs":[{"name":"","type":"uint256","internalType":"uint256"}],"stateMutability":"view"},{"type":"function","name":"getRoleAdmin","inputs":[{"name":"role","type":"bytes32","internalType":"bytes32"}],"outputs":[{"name":"","type":"bytes32","internalType":"bytes32"}],"stateMutability":"view"},{"type":"function","name":"getRoleMember","inputs":[{"name":"role","type":"bytes32","internalType":"bytes32"},{"name":"index","type":"uint256","internalType":"uint256"}],"outputs":[{"name":"","type":"address","internalType":"address"}],"stateMutability":"view"},{"type":"function","name":"getRoleMemberCount","inputs":[{"name":"role","type":"bytes32","internalType":"bytes32"}],"outputs":[{"name":"","type":"uint256","internalType":"uint256"}],"stateMutability":"view"},{"type":"function","name":"getRoleMembers","inputs":[{"name":"role","type":"bytes32","internalType":"bytes32"}],"outputs":[{"name":"","type":"address[]","internalType":"address[]"}],"stateMutability":"view"},{"type":"function","name":"getVaultClaimed","inputs":[{"name":"epoch","type":"uint256","internalType":"uint256"},{"name":"validator","type":"address","internalType":"address"},{"name":"vault","type":"address","internalType":"address"}],"outputs":[{"name":"","type":"uint256","internalType":"uint256"}],"stateMutability":"view"},{"type":"function","name":"gmMitoBalance","inputs":[],"outputs":[{"name":"","type":"uint256","internalType":"uint256"}],"stateMutability":"view"},{"type":"function","name":"grantRole","inputs":[{"name":"role","type":"bytes32","internalType":"bytes32"},{"name":"account","type":"address","internalType":"address"}],"outputs":[],"stateMutability":"nonpayable"},{"type":"function","name":"hasRole","inputs":[{"name":"role","type":"bytes32","internalType":"bytes32"},{"name":"account","type":"address","internalType":"address"}],"outputs":[{"name":"","type":"bool","internalType":"bool"}],"stateMutability":"view"},{"type":"function","name":"initialize","inputs":[{"name":"initialOwner","type":"address","internalType":"address"}],"outputs":[],"stateMutability":"nonpayable"},{"type":"function","name":"isTarget","inputs":[{"name":"validator","type":"address","internalType":"address"},{"name":"vault","type":"address","internalType":"address"},{"name":"epoch","type":"uint256","internalType":"uint256"}],"outputs":[{"name":"","type":"bool","internalType":"bool"}],"stateMutability":"view"},{"type":"function","name":"proxiableUUID","inputs":[],"outputs":[{"name":"","type":"bytes32","internalType":"bytes32"}],"stateMutability":"view"},{"type":"function","name":"renounceRole","inputs":[{"name":"role","type":"bytes32","internalType":"bytes32"},{"name":"callerConfirmation","type":"address","internalType":"address"}],"outputs":[],"stateMutability":"nonpayable"},{"type":"function","name":"revokeRole","inputs":[{"name":"role","type":"bytes32","internalType":"bytes32"},{"name":"account","type":"address","internalType":"address"}],"outputs":[],"stateMutability":"nonpayable"},{"type":"function","name":"setDistributionConfig","inputs":[{"name":"validator","type":"address","internalType":"address"},{"name":"startEpoch","type":"uint256","internalType":"uint256"},{"name":"config","type":"tuple","internalType":"struct IRewardRouter.DistributionConfig","components":[{"name":"targets","type":"address[]","internalType":"address[]"},{"name":"operator","type":"address","internalType":"address"},{"name":"defaultRecipient","type":"address","internalType":"address"},{"name":"feeRecipient","type":"address","internalType":"address"},{"name":"commissionRate","type":"uint256","internalType":"uint256"}]}],"outputs":[],"stateMutability":"nonpayable"},{"type":"function","name":"setOperatorClaimApproval","inputs":[{"name":"validator","type":"address","internalType":"address"},{"name":"claimer","type":"address","internalType":"address"},{"name":"approval","type":"bool","internalType":"bool"}],"outputs":[],"stateMutability":"nonpayable"},{"type":"function","name":"supportsInterface","inputs":[{"name":"interfaceId","type":"bytes4","internalType":"bytes4"}],"outputs":[{"name":"","type":"bool","internalType":"bool"}],"stateMutability":"view"},{"type":"function","name":"upgradeToAndCall","inputs":[{"name":"newImplementation","type":"address","internalType":"address"},{"name":"data","type":"bytes","internalType":"bytes"}],"outputs":[],"stateMutability":"payable"},{"type":"event","name":"DistributionConfigSet","inputs":[{"name":"validator","type":"address","indexed":true,"internalType":"address"},{"name":"startEpoch","type":"uint256","indexed":true,"internalType":"uint256"},{"name":"config","type":"tuple","indexed":false,"internalType":"struct IRewardRouter.DistributionConfig","components":[{"name":"targets","type":"address[]","internalType":"address[]"},{"name":"operator","type":"address","internalType":"address"},{"name":"defaultRecipient","type":"address","internalType":"address"},{"name":"feeRecipient","type":"address","internalType":"address"},{"name":"commissionRate","type":"uint256","internalType":"uint256"}]}],"anonymous":false},{"type":"event","name":"EpochRewardsFinalized","inputs":[{"name":"epoch","type":"uint256","indexed":true,"internalType":"uint256"},{"name":"validator","type":"address","indexed":true,"internalType":"address"},{"name":"totalGmMito","type":"uint256","indexed":false,"internalType":"uint256"},{"name":"totalTWAB","type":"uint256","indexed":false,"internalType":"uint256"}],"anonymous":false},{"type":"event","name":"FeeTaken","inputs":[{"name":"epoch","type":"uint256","indexed":true,"internalType":"uint256"},{"name":"validator","type":"address","indexed":true,"internalType":"address"},{"name":"vault","type":"address","indexed":true,"internalType":"address"},{"name":"amount","type":"uint256","indexed":false,"internalType":"uint256"}],"anonymous":false},{"type":"event","name":"GmMitoTransferred","inputs":[{"name":"vault","type":"address","indexed":true,"internalType":"address"},{"name":"gmMitoAmount","type":"uint256","indexed":false,"internalType":"uint256"}],"anonymous":false},{"type":"event","name":"Initialized","inputs":[{"name":"version","type":"uint64","indexed":false,"internalType":"uint64"}],"anonymous":false},{"type":"event","name":"NonTargetRewardsClaimed","inputs":[{"name":"epoch","type":"uint256","indexed":true,"internalType":"uint256"},{"name":"validator","type":"address","indexed":true,"internalType":"address"},{"name":"vault","type":"address","indexed":true,"internalType":"address"},{"name":"recipient","type":"address","indexed":false,"internalType":"address"},{"name":"amount","type":"uint256","indexed":false,"internalType":"uint256"}],"anonymous":false},{"type":"event","name":"RewardDistributed","inputs":[{"name":"validator","type":"address","indexed":true,"internalType":"address"},{"name":"gmMitoAmount","type":"uint256","indexed":false,"internalType":"uint256"}],"anonymous":false},{"type":"event","name":"RoleAdminChanged","inputs":[{"name":"role","type":"bytes32","indexed":true,"internalType":"bytes32"},{"name":"previousAdminRole","type":"bytes32","indexed":true,"internalType":"bytes32"},{"name":"newAdminRole","type":"bytes32","indexed":true,"internalType":"bytes32"}],"anonymous":false},{"type":"event","name":"RoleGranted","inputs":[{"name":"role","type":"bytes32","indexed":true,"internalType":"bytes32"},{"name":"account","type":"address","indexed":true,"internalType":"address"},{"name":"sender","type":"address","indexed":true,"internalType":"address"}],"anonymous":false},{"type":"event","name":"RoleRevoked","inputs":[{"name":"role","type":"bytes32","indexed":true,"internalType":"bytes32"},{"name":"account","type":"address","indexed":true,"internalType":"address"},{"name":"sender","type":"address","indexed":true,"internalType":"address"}],"anonymous":false},{"type":"event","name":"Upgraded","inputs":[{"name":"implementation","type":"address","indexed":true,"internalType":"address"}],"anonymous":false},{"type":"event","name":"VaultShareClaimed","inputs":[{"name":"epoch","type":"uint256","indexed":true,"internalType":"uint256"},{"name":"validator","type":"address","indexed":true,"internalType":"address"},{"name":"vault","type":"address","indexed":true,"internalType":"address"},{"name":"vaultTWAB","type":"uint256","indexed":false,"internalType":"uint256"},{"name":"gmMitoAmount","type":"uint256","indexed":false,"internalType":"uint256"}],"anonymous":false},{"type":"error","name":"AccessControlBadConfirmation","inputs":[]},{"type":"error","name":"AccessControlUnauthorizedAccount","inputs":[{"name":"account","type":"address","internalType":"address"},{"name":"neededRole","type":"bytes32","internalType":"bytes32"}]},{"type":"error","name":"AddressEmptyCode","inputs":[{"name":"target","type":"address","internalType":"address"}]},{"type":"error","name":"ERC1967InvalidImplementation","inputs":[{"name":"implementation","type":"address","internalType":"address"}]},{"type":"error","name":"ERC1967NonPayable","inputs":[]},{"type":"error","name":"EpochAlreadyFinalized","inputs":[]},{"type":"error","name":"FailedCall","inputs":[]},{"type":"error","name":"InvalidCommissionRate","inputs":[{"name":"rate","type":"uint256","internalType":"uint256"}]},{"type":"error","name":"InvalidEpoch","inputs":[]},{"type":"error","name":"InvalidEpochOrder","inputs":[{"name":"startEpoch","type":"uint256","internalType":"uint256"},{"name":"lastConfigEpoch","type":"uint256","internalType":"uint256"}]},{"type":"error","name":"InvalidInitialization","inputs":[]},{"type":"error","name":"InvalidValidator","inputs":[]},{"type":"error","name":"InvalidVault","inputs":[]},{"type":"error","name":"NoRewards","inputs":[]},{"type":"error","name":"NotInitializing","inputs":[]},{"type":"error","name":"NotTarget","inputs":[]},{"type":"error","name":"UUPSUnauthorizedCallContext","inputs":[]},{"type":"error","name":"UUPSUnsupportedProxiableUUID","inputs":[{"name":"slot","type":"bytes32","internalType":"bytes32"}]},{"type":"error","name":"Unauthorized","inputs":[]},{"type":"error","name":"ZeroAddress","inputs":[]},{"type":"error","name":"ZeroAmount","inputs":[]}],"bytecode":{"object":"0x61018060405230608052348015610014575f5ffd5b50604051614d7f380380614d7f833981016040819052610033916102f0565b6001600160a01b03861661005a5760405163d92e233d60e01b815260040160405180910390fd5b6001600160a01b0385166100815760405163d92e233d60e01b815260040160405180910390fd5b6001600160a01b0384166100a85760405163d92e233d60e01b815260040160405180910390fd5b6001600160a01b0383166100cf5760405163d92e233d60e01b815260040160405180910390fd5b6001600160a01b0382166100f65760405163d92e233d60e01b815260040160405180910390fd5b6001600160a01b03811661011d5760405163d92e233d60e01b815260040160405180910390fd5b6001600160a01b0380871660e05285811660c05284811661010052838116610140528281166101208190529082166101605260408051630bdcaec360e41b8152905163bdcaec30916004808201926020929091908290030181865afa158015610188573d5f5f3e3d5ffd5b505050506040513d601f19601f820116820180604052508101906101ac9190610373565b6001600160a01b031663caffd74e6040518163ffffffff1660e01b8152600401602060405180830381865afa1580156101e7573d5f5f3e3d5ffd5b505050506040513d601f19601f8201168201806040525081019061020b9190610373565b6001600160a01b031660a05261021f61022a565b505050505050610395565b7ff0c57e16840df040f15088dc2f81fe391c3923bec73e23a9662efc9c229c6a00805468010000000000000000900460ff161561027a5760405163f92ee8a960e01b815260040160405180910390fd5b80546001600160401b03908116146102d95780546001600160401b0319166001600160401b0390811782556040519081527fc7f505b2f371ae2175ee4913f4499e1f2633a7b5936321eed1cdaeb6115181d29060200160405180910390a15b50565b6001600160a01b03811681146102d9575f5ffd5b5f5f5f5f5f5f60c08789031215610305575f5ffd5b8651610310816102dc565b6020880151909650610321816102dc565b6040880151909550610332816102dc565b6060880151909450610343816102dc565b6080880151909350610354816102dc565b60a0880151909250610365816102dc565b809150509295509295509295565b5f60208284031215610383575f5ffd5b815161038e816102dc565b9392505050565b60805160a05160c05160e051610100516101205161014051610160516148e061049f5f395f8181610823015261309101525f81816109a1015281816112e4015281816114fa015281816115780152818161255e015281816125f301528181612cbd01528181612d52015281816134c2015261355701525f8181610649015261128401525f81816105d80152818161177f0152818161252f01528181612c8e015261349301525f81816102c1015281816102f001526108b201525f818161051f01528181610bf90152818161113c0152818161167b015281816119fd0152818161290101526138d001525f61096e01525f818161298b015281816129b40152612b6801526148e05ff3fe6080604052600436106102b9575f3560e01c806391d1485411610170578063b919ba1a116100d1578063dd6b645611610087578063f5b541a611610062578063f5b541a6146109e2578063fb1615c714610a15578063fe1a624314610a34575f5ffd5b8063dd6b64561461095d578063f3adae7714610990578063f47f0084146109c3575f5ffd5b8063ca15c873116100b7578063ca15c873146108f3578063d547741f14610912578063d9abb43314610931575f5ffd5b8063b919ba1a146108a1578063c4d66de8146108d4575f5ffd5b8063a3246ad311610126578063ae9483e01161010c578063ae9483e014610812578063b175eb4d14610845578063b8a15e3a1461088d575f5ffd5b8063a3246ad314610791578063ad3cb1cc146107bd575f5ffd5b806394bfd6041161015657806394bfd6041461070c5780639f4c271e1461072b578063a217fddf1461077e575f5ffd5b806391d148541461068a57806393f37e44146106ed575f5ffd5b80634f1ef2861161021a5780637a79bd5c116101d05780637ca35209116101b65780637ca35209146106195780638de728e4146106385780639010d07c1461066b575f5ffd5b80637a79bd5c146105c75780637c8cca36146105fa575f5ffd5b8063564cdf0811610200578063564cdf08146105805780635bdc86501461059457806376671808146105b3575f5ffd5b80634f1ef2861461055957806352d1902d1461056c575f5ffd5b80632f2ff15d1161026f5780633653d27f116102555780633653d27f146104d057806336568abe146104ef5780633bed90ce1461050e575f5ffd5b80632f2ff15d146104925780633075fe4e146104b1575f5ffd5b80631e9ca6e81161029f5780631e9ca6e8146103c6578063248a9ca314610419578063262dd9fe14610466575f5ffd5b806301ffc9a7146103655780631de9d9b614610399575f5ffd5b3661036157337f00000000000000000000000000000000000000000000000000000000000000006001600160a01b03161461035f577f00000000000000000000000000000000000000000000000000000000000000006001600160a01b031663d0e30db0346040518263ffffffff1660e01b81526004015f604051808303818588803b158015610347575f5ffd5b505af1158015610359573d5f5f3e3d5ffd5b50505050505b005b5f5ffd5b348015610370575f5ffd5b5061038461037f366004613e46565b610ac1565b60405190151581526020015b60405180910390f35b3480156103a4575f5ffd5b506103b86103b3366004613ea9565b610b1c565b604051908152602001610390565b3480156103d1575f5ffd5b506103b86103e0366004613ea9565b6001600160a01b03165f9081527ffa2183a4b9e35594495ef24f5060c5bba566c21a062a2b524b653f03c859a704602052604090205490565b348015610424575f5ffd5b506103b8610433366004613ec4565b5f9081527f02dd7bc7dec4dceedda775e58dd541e08a116c6c53815c0bd028192f7b626800602052604090206001015490565b348015610471575f5ffd5b50610485610480366004613edb565b610cf7565b6040516103909190613f05565b34801561049d575f5ffd5b5061035f6104ac366004613faf565b610de4565b3480156104bc575f5ffd5b506103b86104cb366004613fdd565b610e2d565b3480156104db575f5ffd5b506103b86104ea366004614020565b610f51565b3480156104fa575f5ffd5b5061035f610509366004613faf565b61106e565b348015610519575f5ffd5b506105417f000000000000000000000000000000000000000000000000000000000000000081565b6040516001600160a01b039091168152602001610390565b61035f610567366004614163565b6110bf565b348015610577575f5ffd5b506103b86110de565b34801561058b575f5ffd5b506103b861110c565b34801561059f575f5ffd5b5061035f6105ae3660046141f0565b6111b2565b3480156105be575f5ffd5b506103b86112e1565b3480156105d2575f5ffd5b506105417f000000000000000000000000000000000000000000000000000000000000000081565b348015610605575f5ffd5b506103b8610614366004613faf565b61133e565b348015610624575f5ffd5b506103b861063336600461423c565b6118c6565b348015610643575f5ffd5b506105417f000000000000000000000000000000000000000000000000000000000000000081565b348015610676575f5ffd5b5061054161068536600461426e565b611a2c565b348015610695575f5ffd5b506103846106a4366004613faf565b5f9182527f02dd7bc7dec4dceedda775e58dd541e08a116c6c53815c0bd028192f7b626800602090815260408084206001600160a01b0393909316845291905290205460ff1690565b3480156106f8575f5ffd5b506103b861070736600461428e565b611a6c565b348015610717575f5ffd5b50610485610726366004613edb565b611ac0565b348015610736575f5ffd5b506103b8610745366004613ea9565b6001600160a01b03165f9081527ffa2183a4b9e35594495ef24f5060c5bba566c21a062a2b524b653f03c859a702602052604090205490565b348015610789575f5ffd5b506103b85f81565b34801561079c575f5ffd5b506107b06107ab366004613ec4565b611bd9565b6040516103909190614305565b3480156107c8575f5ffd5b506108056040518060400160405280600581526020017f352e302e3000000000000000000000000000000000000000000000000000000081525081565b6040516103909190614317565b34801561081d575f5ffd5b506105417f000000000000000000000000000000000000000000000000000000000000000081565b348015610850575f5ffd5b506108056040518060400160405280600681526020017f76302e302e37000000000000000000000000000000000000000000000000000081525081565b348015610898575f5ffd5b50610805611c15565b3480156108ac575f5ffd5b506105417f000000000000000000000000000000000000000000000000000000000000000081565b3480156108df575f5ffd5b5061035f6108ee366004613ea9565b611c31565b3480156108fe575f5ffd5b506103b861090d366004613ec4565b611e01565b34801561091d575f5ffd5b5061035f61092c366004613faf565b611e38565b34801561093c575f5ffd5b5061095061094b36600461423c565b611e7b565b604051610390919061434c565b348015610968575f5ffd5b506105417f000000000000000000000000000000000000000000000000000000000000000081565b34801561099b575f5ffd5b506105417f000000000000000000000000000000000000000000000000000000000000000081565b3480156109ce575f5ffd5b5061035f6109dd36600461438e565b611fbc565b3480156109ed575f5ffd5b506103b87f46a52cf33029de9f84853745a87af28464c80bf0346df1b32e205fc73319f62281565b348015610a20575f5ffd5b50610384610a2f3660046143de565b612379565b348015610a3f575f5ffd5b50610aa4610a4e366004613faf565b6001600160a01b03165f9081527ffa2183a4b9e35594495ef24f5060c5bba566c21a062a2b524b653f03c859a700602090815260408083209383529290522080546001820154600290920154909260ff90911690565b604080519384526020840192909252151590820152606001610390565b5f7fffffffff0000000000000000000000000000000000000000000000000000000082167f5a05180f000000000000000000000000000000000000000000000000000000001480610b165750610b16826123bd565b92915050565b5f7f46a52cf33029de9f84853745a87af28464c80bf0346df1b32e205fc73319f622610b4781612453565b6001600160a01b038316610b87576040517fd92e233d00000000000000000000000000000000000000000000000000000000815260040160405180910390fd5b6040805160018082528183019092525f916020808301908036833701905050905083815f81518110610bbb57610bbb61441c565b6001600160a01b0392831660209182029290920101526040517f3f2a33f90000000000000000000000000000000000000000000000000000000081527f000000000000000000000000000000000000000000000000000000000000000090911690633f2a33f990610c329084903090600401614449565b6020604051808303815f875af1158015610c4e573d5f5f3e3d5ffd5b505050506040513d601f19601f82011682018060405250810190610c729190614473565b92505f8311610cad576040517f3fb087f400000000000000000000000000000000000000000000000000000000815260040160405180910390fd5b836001600160a01b03167fe34918ff1c7084970068b53fd71ad6d8b04e9f15d3886cbf006443e6cdc52ea684604051610ce891815260200190565b60405180910390a25050919050565b6040805160a08101825260608082525f60208301819052928201839052810182905260808101829052907ffa2183a4b9e35594495ef24f5060c5bba566c21a062a2b524b653f03c859a70090610d4e828686612460565b805460408051602080840282018101909252828152929350839190830182828015610da057602002820191905f5260205f20905b81546001600160a01b03168152600190910190602001808311610d82575b505050918552505060018101546001600160a01b03908116602085015260028201548116604085015260038201541660608401526004015460808301525092915050565b5f8281527f02dd7bc7dec4dceedda775e58dd541e08a116c6c53815c0bd028192f7b6268006020526040902060010154610e1d81612453565b610e27838361249a565b50505050565b5f6001600160a01b038516610e6e576040517fd92e233d00000000000000000000000000000000000000000000000000000000815260040160405180910390fd5b6001600160a01b038416610eae576040517fd92e233d00000000000000000000000000000000000000000000000000000000815260040160405180910390fd5b5f83118015610ebd5750828210155b610ef3576040517fd5b25b6300000000000000000000000000000000000000000000000000000000815260040160405180910390fd5b7ffa2183a4b9e35594495ef24f5060c5bba566c21a062a2b524b653f03c859a700835b838111610f4757610f29828888846124ef565b610f3390846144b7565b925080610f3f816144ca565b915050610f16565b5050949350505050565b5f6001600160a01b038616610f92576040517fd92e233d00000000000000000000000000000000000000000000000000000000815260040160405180910390fd5b5f83118015610fa15750828210155b610fd7576040517fd5b25b6300000000000000000000000000000000000000000000000000000000815260040160405180910390fd5b335f8181527f11408c214e50776f0f6e546bf3b89e7953bf3ba3b172efa6ff1ba292b2d1b3b260205260409020547ffa2183a4b9e35594495ef24f5060c5bba566c21a062a2b524b653f03c859a700919060ff16855b85811161106157611043848b8b8b8588886127e7565b61104d90866144b7565b945080611059816144ca565b91505061102d565b5050505095945050505050565b6001600160a01b03811633146110b0576040517f6697b23200000000000000000000000000000000000000000000000000000000815260040160405180910390fd5b6110ba8282612934565b505050565b6110c7612980565b6110d082612a52565b6110da8282612a5c565b5050565b5f6110e7612b5d565b507f360894a13ba1a3210667c828492db98dca3e2076cc3735a920a3ca505d382bbc90565b6040517f70a082310000000000000000000000000000000000000000000000000000000081523060048201525f907f00000000000000000000000000000000000000000000000000000000000000006001600160a01b0316906370a0823190602401602060405180830381865afa158015611189573d5f5f3e3d5ffd5b505050506040513d601f19601f820116820180604052508101906111ad9190614473565b905090565b5f6111bc81612453565b6001600160a01b0384166111fc576040517fd92e233d00000000000000000000000000000000000000000000000000000000815260040160405180910390fd5b6001600160a01b03831661123c576040517fd92e233d00000000000000000000000000000000000000000000000000000000815260040160405180910390fd5b6040517f53c6fdd00000000000000000000000000000000000000000000000000000000081526001600160a01b038581166004830152848116602483015283151560448301527f000000000000000000000000000000000000000000000000000000000000000016906353c6fdd0906064015f604051808303815f87803b1580156112c5575f5ffd5b505af11580156112d7573d5f5f3e3d5ffd5b5050505050505050565b5f7f00000000000000000000000000000000000000000000000000000000000000006001600160a01b031663900cf0cf6040518163ffffffff1660e01b8152600401602060405180830381865afa158015611189573d5f5f3e3d5ffd5b5f7f46a52cf33029de9f84853745a87af28464c80bf0346df1b32e205fc73319f62261136981612453565b6001600160a01b0383166113a9576040517fd92e233d00000000000000000000000000000000000000000000000000000000815260040160405180910390fd5b5f84116113e2576040517fd5b25b6300000000000000000000000000000000000000000000000000000000815260040160405180910390fd5b6001600160a01b0383165f9081527ffa2183a4b9e35594495ef24f5060c5bba566c21a062a2b524b653f03c859a70060208181526040808420888552909152909120600281015460ff1615611463576040517f3366263c00000000000000000000000000000000000000000000000000000000815260040160405180910390fd5b6001600160a01b0385165f9081526002830160205260409020546114888160016144b7565b871480611493575080155b6114c9576040517fd5b25b6300000000000000000000000000000000000000000000000000000000815260040160405180910390fd5b6040517f6f5e290f000000000000000000000000000000000000000000000000000000008152600481018890525f907f00000000000000000000000000000000000000000000000000000000000000006001600160a01b031690636f5e290f90602401602060405180830381865afa158015611547573d5f5f3e3d5ffd5b505050506040513d601f19601f8201168201806040525081019061156b9190614501565b90505f6001600160a01b037f000000000000000000000000000000000000000000000000000000000000000016636f5e290f6115a88b60016144b7565b6040518263ffffffff1660e01b81526004016115c691815260200190565b602060405180830381865afa1580156115e1573d5f5f3e3d5ffd5b505050506040513d601f19601f820116820180604052508101906116059190614501565b6040805160018082528183019092529192505f91906020808301908036833701905050905088815f8151811061163d5761163d61441c565b6001600160a01b0392831660209182029290920101526040517f3f2a33f90000000000000000000000000000000000000000000000000000000081527f000000000000000000000000000000000000000000000000000000000000000090911690633f2a33f9906116b49084903090600401614449565b6020604051808303815f875af11580156116d0573d5f5f3e3d5ffd5b505050506040513d601f19601f820116820180604052508101906116f49190614473565b97505f881161172f576040517f3fb087f400000000000000000000000000000000000000000000000000000000815260040160405180910390fd5b6040517f2cba54da0000000000000000000000000000000000000000000000000000000081526001600160a01b038a8116600483015265ffffffffffff8086166024840152841660448301525f917f000000000000000000000000000000000000000000000000000000000000000090911690632cba54da90606401602060405180830381865afa1580156117c6573d5f5f3e3d5ffd5b505050506040513d601f19601f820116820180604052508101906117ea9190614473565b90505f8111611825576040517f3fb087f400000000000000000000000000000000000000000000000000000000815260040160405180910390fd5b8886556001808701829055600280880180547fffffffffffffffffffffffffffffffffffffffffffffffffffffffffffffff00169092179091556001600160a01b038b165f81815291890160209081526040928390208e905582518c815290810184905290918d917fcad4bb3e722125ec372957e194e1fcbb73b8286b53632f18284e589d84f33bb6910160405180910390a3505050505050505092915050565b5f6001600160a01b038416611907576040517fd92e233d00000000000000000000000000000000000000000000000000000000815260040160405180910390fd5b5f831180156119165750828210155b61194c576040517fd5b25b6300000000000000000000000000000000000000000000000000000000815260040160405180910390fd5b337ffa2183a4b9e35594495ef24f5060c5bba566c21a062a2b524b653f03c859a700845b8481116119f1575f611983838984612460565b905061198f8185612bbf565b6119c5576040517f65ec05a200000000000000000000000000000000000000000000000000000000815260040160405180910390fd5b6119d183838a87612c1f565b6119db90866144b7565b94505080806119e9906144ca565b915050611970565b508215611a2357611a237f00000000000000000000000000000000000000000000000000000000000000008385612f76565b50509392505050565b5f8281527fc1f6fe24621ce81ec5827caf0253cadb74709b061630e6b55e82371705932000602081905260408220611a649084612fc9565b949350505050565b6001600160a01b038281165f9081527ffa2183a4b9e35594495ef24f5060c5bba566c21a062a2b524b653f03c859a701602090815260408083209385168352928152828220868352905220545b9392505050565b6040805160a08101825260608082525f6020808401829052838501829052918301819052608083018190526001600160a01b03861681527ffa2183a4b9e35594495ef24f5060c5bba566c21a062a2b524b653f03c859a70382528381208582528252839020805484518184028101840190955280855292937ffa2183a4b9e35594495ef24f5060c5bba566c21a062a2b524b653f03c859a70093919290918391830182828015610da057602002820191905f5260205f209081546001600160a01b03168152600190910190602001808311610d8257505050918552505060018101546001600160a01b03908116602085015260028201548116604085015260038201541660608401526004015460808301525092915050565b5f8181527fc1f6fe24621ce81ec5827caf0253cadb74709b061630e6b55e823717059320006020819052604090912060609190611ab990612fd4565b6040518060600160405280602881526020016148836028913981565b7ff0c57e16840df040f15088dc2f81fe391c3923bec73e23a9662efc9c229c6a00805468010000000000000000810460ff16159067ffffffffffffffff165f81158015611c7b5750825b90505f8267ffffffffffffffff166001148015611c975750303b155b905081158015611ca5575080155b15611cdc576040517ff92ee8a900000000000000000000000000000000000000000000000000000000815260040160405180910390fd5b84547fffffffffffffffffffffffffffffffffffffffffffffffff00000000000000001660011785558315611d3d5784547fffffffffffffffffffffffffffffffffffffffffffffff00ffffffffffffffff16680100000000000000001785555b6001600160a01b038616611d7d576040517fd92e233d00000000000000000000000000000000000000000000000000000000815260040160405180910390fd5b611d85612fe0565b611d8d612fe0565b611d975f8761249a565b508315611df95784547fffffffffffffffffffffffffffffffffffffffffffffff00ffffffffffffffff168555604051600181527fc7f505b2f371ae2175ee4913f4499e1f2633a7b5936321eed1cdaeb6115181d29060200160405180910390a15b505050505050565b5f8181527fc1f6fe24621ce81ec5827caf0253cadb74709b061630e6b55e82371705932000602081905260408220611ab990612fe8565b5f8281527f02dd7bc7dec4dceedda775e58dd541e08a116c6c53815c0bd028192f7b6268006020526040902060010154611e7181612453565b610e278383612934565b6001600160a01b0383165f9081527ffa2183a4b9e35594495ef24f5060c5bba566c21a062a2b524b653f03c859a70460205260409020805460609190808510611ef3575f5b604051908082528060200260200182016040528015611ee9578160200160208202803683370190505b5092505050611ab9565b80841115611eff578093505b848411611f0c575f611ec0565b5f611f178686614526565b90508067ffffffffffffffff811115611f3257611f326140b4565b604051908082528060200260200182016040528015611f5b578160200160208202803683370190505b5093505f5b81811015611fb15783611f7382896144b7565b81548110611f8357611f8361441c565b905f5260205f200154858281518110611f9e57611f9e61441c565b6020908102919091010152600101611f60565b505050509392505050565b6001600160a01b038316611ffc576040517fd92e233d00000000000000000000000000000000000000000000000000000000815260040160405180910390fd5b6080810135612710811115612049576040517f7c27fae200000000000000000000000000000000000000000000000000000000815260040161204091815260200190565b60405180910390fd5b507ffa2183a4b9e35594495ef24f5060c5bba566c21a062a2b524b653f03c859a700612076818585612ff1565b6001600160a01b0384165f908152600482016020526040902080541561213257805481906120a690600190614526565b815481106120b6576120b661441c565b905f5260205f2001548410158482600184805490506120d59190614526565b815481106120e5576120e561441c565b905f5260205f200154909161212f576040517f84122f3800000000000000000000000000000000000000000000000000000000815260048101929092526024820152604401612040565b50505b6001600160a01b0385165f90815260038301602090815260408083208784528252918290209161216791908601908601613ea9565b6001820180547fffffffffffffffffffffffff0000000000000000000000000000000000000000166001600160a01b03929092169190911790556121b16060850160408601613ea9565b6002820180547fffffffffffffffffffffffff0000000000000000000000000000000000000000166001600160a01b03929092169190911790556121fb6080850160608601613ea9565b6003820180547fffffffffffffffffffffffff0000000000000000000000000000000000000000166001600160a01b039290921691909117905560808401356004820155612249815f613e18565b5f5b6122558580614539565b90508110156122dd57816122698680614539565b838181106122795761227961441c565b905060200201602081019061228e9190613ea9565b8154600180820184555f93845260209093200180547fffffffffffffffffffffffff0000000000000000000000000000000000000000166001600160a01b03929092169190911790550161224b565b508154158061231557508154859083906122f990600190614526565b815481106123095761230961441c565b905f5260205f20015414155b1561232f5781546001810183555f83815260209020018590555b84866001600160a01b03167ffa86f71fb405a4f3c8fe0b059720aad6817a4c3fd9ef40267d349ebf42d5c4478660405161236991906145e2565b60405180910390a3505050505050565b5f7ffa2183a4b9e35594495ef24f5060c5bba566c21a062a2b524b653f03c859a700816123a7828786612460565b90506123b38186612bbf565b9695505050505050565b5f7fffffffff0000000000000000000000000000000000000000000000000000000082167f7965db0b000000000000000000000000000000000000000000000000000000001480610b1657507f01ffc9a7000000000000000000000000000000000000000000000000000000007fffffffff00000000000000000000000000000000000000000000000000000000831614610b16565b61245d813361314d565b50565b5f5f61246d8585856131d9565b6001600160a01b0385165f9081526003870160209081526040808320938352929052209150509392505050565b5f7fc1f6fe24621ce81ec5827caf0253cadb74709b061630e6b55e82371705932000816124c78585613279565b90508015611a64575f8581526020839052604090206124e69085613363565b50949350505050565b6001600160a01b038084165f908152600186016020908152604080832093861683529281528282208483529052908120541561252c57505f611a64565b5f7f00000000000000000000000000000000000000000000000000000000000000006001600160a01b03166390aaa0467f00000000000000000000000000000000000000000000000000000000000000006001600160a01b0316636f5e290f866040518263ffffffff1660e01b81526004016125aa91815260200190565b602060405180830381865afa1580156125c5573d5f5f3e3d5ffd5b505050506040513d601f19601f820116820180604052508101906125e99190614501565b6001600160a01b037f000000000000000000000000000000000000000000000000000000000000000016636f5e290f6126238860016144b7565b6040518263ffffffff1660e01b815260040161264191815260200190565b602060405180830381865afa15801561265c573d5f5f3e3d5ffd5b505050506040513d601f19601f820116820180604052508101906126809190614501565b6040517fffffffff0000000000000000000000000000000000000000000000000000000060e085901b16815265ffffffffffff9283166004820152911660248201526001600160a01b03808916604483015287166064820152608401602060405180830381865afa1580156126f7573d5f5f3e3d5ffd5b505050506040513d601f19601f8201168201806040525081019061271b9190614473565b9050805f0361272d575f915050611a64565b6001600160a01b0385165f908152602087815260408083208684529091529020600281015460ff16612763575f92505050611a64565b5f612776825f0154848460010154613377565b90505f612784898988612460565b90506127908188612bbf565b156127db5760038101546001600160a01b0316158015906127b457505f8160040154115b156127db575f6127cb838360040154612710613377565b90506127d78184614526565b9250505b50979650505050505050565b5f5f6127f4898987612460565b90508280612811575060018101546001600160a01b038581169116145b8061282b575060028101546001600160a01b038581169116145b612861576040517f82b4290000000000000000000000000000000000000000000000000000000000815260040160405180910390fd5b60028101546001600160a01b03165f5b878110156128f5576128a9838a8a8481811061288f5761288f61441c565b90506020020160208101906128a49190613ea9565b612bbf565b6128ed576128e08b888c8c8c868181106128c5576128c561441c565b90506020020160208101906128da9190613ea9565b86613424565b6128ea90856144b7565b93505b600101612871565b508215612927576129277f00000000000000000000000000000000000000000000000000000000000000008285612f76565b5050979650505050505050565b5f7fc1f6fe24621ce81ec5827caf0253cadb74709b061630e6b55e8237170593200081612961858561374b565b90508015611a64575f8581526020839052604090206124e6908561380d565b306001600160a01b037f0000000000000000000000000000000000000000000000000000000000000000161480612a1957507f00000000000000000000000000000000000000000000000000000000000000006001600160a01b0316612a0d7f360894a13ba1a3210667c828492db98dca3e2076cc3735a920a3ca505d382bbc546001600160a01b031690565b6001600160a01b031614155b15612a50576040517fe07c8dba00000000000000000000000000000000000000000000000000000000815260040160405180910390fd5b565b5f6110da81612453565b816001600160a01b03166352d1902d6040518163ffffffff1660e01b8152600401602060405180830381865afa925050508015612ab6575060408051601f3d908101601f19168201909252612ab391810190614473565b60015b612af7576040517f4c9c8ce30000000000000000000000000000000000000000000000000000000081526001600160a01b0383166004820152602401612040565b7f360894a13ba1a3210667c828492db98dca3e2076cc3735a920a3ca505d382bbc8114612b53576040517faa1d49a400000000000000000000000000000000000000000000000000000000815260048101829052602401612040565b6110ba8383613821565b306001600160a01b037f00000000000000000000000000000000000000000000000000000000000000001614612a50576040517fe07c8dba00000000000000000000000000000000000000000000000000000000815260040160405180910390fd5b81545f90815b81811015612c1557836001600160a01b0316858281548110612be957612be961441c565b5f918252602090912001546001600160a01b031603612c0d57600192505050610b16565b600101612bc5565b505f949350505050565b6001600160a01b0382165f9081526020858152604080832086845290915281206002015460ff161580612c7f57506001600160a01b038084165f908152600187016020908152604080832093861683529281528282208783529052205415155b15612c8b57505f611a64565b5f7f00000000000000000000000000000000000000000000000000000000000000006001600160a01b03166390aaa0467f00000000000000000000000000000000000000000000000000000000000000006001600160a01b0316636f5e290f886040518263ffffffff1660e01b8152600401612d0991815260200190565b602060405180830381865afa158015612d24573d5f5f3e3d5ffd5b505050506040513d601f19601f82011682018060405250810190612d489190614501565b6001600160a01b037f000000000000000000000000000000000000000000000000000000000000000016636f5e290f612d828a60016144b7565b6040518263ffffffff1660e01b8152600401612da091815260200190565b602060405180830381865afa158015612dbb573d5f5f3e3d5ffd5b505050506040513d601f19601f82011682018060405250810190612ddf9190614501565b6040517fffffffff0000000000000000000000000000000000000000000000000000000060e085901b16815265ffffffffffff9283166004820152911660248201526001600160a01b03808816604483015286166064820152608401602060405180830381865afa158015612e56573d5f5f3e3d5ffd5b505050506040513d601f19601f82011682018060405250810190612e7a9190614473565b9050805f03612e8c575f915050611a64565b6001600160a01b0384165f90815260208781526040808320888452909152812080546001820154612ebf91908590613377565b9350839150508015610f47576001600160a01b038086165f90815260018901602090815260408083209388168352928152828220898352905220819055612f098786888785613876565b612f139084614526565b9250836001600160a01b0316856001600160a01b0316877f39b62d670bf3a6b5e9b4bfd6dca9494ee4923d64014b74bbf4a13f5b09d5903a8587604051612f64929190918252602082015260400190565b60405180910390a45050949350505050565b81601452806034526fa9059cbb0000000000000000000000005f5260205f604460105f875af18060015f511416612fbf57803d853b151710612fbf576390b8ec185f526004601cfd5b505f603452505050565b5f611ab9838361393c565b60605f611ab983613962565b612a506139bb565b5f610b16825490565b335f9081527fb7db2dd08fcb62d0c9e08c51941cae53c267786a0b75803fb7960902fc8ef97d602052604090205460ff161561302c57505050565b5f613038848484612460565b6001810154909150336001600160a01b03909116036130575750505050565b6040517f4f1811dd0000000000000000000000000000000000000000000000000000000081526001600160a01b0384811660048301525f917f000000000000000000000000000000000000000000000000000000000000000090911690634f1811dd906024015f60405180830381865afa1580156130d7573d5f5f3e3d5ffd5b505050506040513d5f823e601f3d908101601f191682016040526130fe919081019061471e565b604001519050336001600160a01b0382160361311b575050505050565b6040517f82b4290000000000000000000000000000000000000000000000000000000000815260040160405180910390fd5b5f8281527f02dd7bc7dec4dceedda775e58dd541e08a116c6c53815c0bd028192f7b626800602090815260408083206001600160a01b038516845290915290205460ff166110da576040517fe2517d3f0000000000000000000000000000000000000000000000000000000081526001600160a01b038216600482015260248101839052604401612040565b6001600160a01b0382165f908152600484016020526040812080548203613203575f915050611ab9565b82815f815481106132165761321661441c565b905f5260205f200154111561322e575f915050611ab9565b5f61323a868686613a22565b90505f8111613249575f6123b3565b81613255600183614526565b815481106132655761326561441c565b905f5260205f200154925050509392505050565b5f8281527f02dd7bc7dec4dceedda775e58dd541e08a116c6c53815c0bd028192f7b626800602081815260408084206001600160a01b038616855290915282205460ff1661335a575f848152602082815260408083206001600160a01b0387168452909152902080547fffffffffffffffffffffffffffffffffffffffffffffffffffffffffffffff001660011790556133103390565b6001600160a01b0316836001600160a01b0316857f2f8788117e7eff1d82e926ec794901d17c78024a50270940304540a733656f0d60405160405180910390a46001915050610b16565b5f915050610b16565b5f611ab9836001600160a01b038416613ad9565b8282028183858304148515170261341d577fffffffffffffffffffffffffffffffffffffffffffffffffffffffffffffffff8385098181108201900382848609835f0384168285116133d05763ae47f7025f526004601cfd5b93849004938382119092035f839003839004600101029203041760026003830281188084028203028084028203028084028203028084028203028084028203028084029091030202611ab9565b0492915050565b6001600160a01b0383165f9081526020868152604080832087845290915281206002015460ff16158061348457506001600160a01b038085165f908152600188016020908152604080832093871683529281528282208883529052205415155b1561349057505f613742565b5f7f00000000000000000000000000000000000000000000000000000000000000006001600160a01b03166390aaa0467f00000000000000000000000000000000000000000000000000000000000000006001600160a01b0316636f5e290f896040518263ffffffff1660e01b815260040161350e91815260200190565b602060405180830381865afa158015613529573d5f5f3e3d5ffd5b505050506040513d601f19601f8201168201806040525081019061354d9190614501565b6001600160a01b037f000000000000000000000000000000000000000000000000000000000000000016636f5e290f6135878b60016144b7565b6040518263ffffffff1660e01b81526004016135a591815260200190565b602060405180830381865afa1580156135c0573d5f5f3e3d5ffd5b505050506040513d601f19601f820116820180604052508101906135e49190614501565b6040517fffffffff0000000000000000000000000000000000000000000000000000000060e085901b16815265ffffffffffff9283166004820152911660248201526001600160a01b03808916604483015287166064820152608401602060405180830381865afa15801561365b573d5f5f3e3d5ffd5b505050506040513d601f19601f8201168201806040525081019061367f9190614473565b9050805f03613691575f915050613742565b6001600160a01b0385165f908152602088815260408083208984529091529020805460018201546136c491908490613377565b9250821561373f576001600160a01b038681165f81815260018b01602090815260408083208a86168085529083528184208d85528352928190208890558051948916855290840187905290928a917f6045ec4f4247b5f3ff7e8f3aabc36ed34dceb2a6379ed41d70e47d70af8eaf2391015b60405180910390a45b50505b95945050505050565b5f8281527f02dd7bc7dec4dceedda775e58dd541e08a116c6c53815c0bd028192f7b626800602081815260408084206001600160a01b038616855290915282205460ff161561335a575f848152602082815260408083206001600160a01b038716808552925280832080547fffffffffffffffffffffffffffffffffffffffffffffffffffffffffffffff0016905551339287917ff6391f5c32d9c69d2a47ea670b442974b53935d1edc7fd64eb21e047a839171b9190a46001915050610b16565b5f611ab9836001600160a01b038416613b25565b61382a82613bff565b6040516001600160a01b038316907fbc7cd75a20ee27fd9adebab32041f755214dbc6bffa90cc0225b39da2e5c2d3b905f90a280511561386e576110ba8282613ca6565b6110da613d0f565b5f5f613883878787612460565b60038101549091506001600160a01b03168015806138a357506004820154155b156138b2575f92505050613742565b6138c3848360040154612710613377565b9250821561373f576138f67f00000000000000000000000000000000000000000000000000000000000000008285612f76565b846001600160a01b0316876001600160a01b0316877f79cfc57d040b454ad547f083baab4ce4b8753705a4836381e8d2f874e9f1e7b58660405161373691815260200190565b5f825f0182815481106139515761395161441c565b905f5260205f200154905092915050565b6060815f018054806020026020016040519081016040528092919081815260200182805480156139af57602002820191905f5260205f20905b81548152602001906001019080831161399b575b50505050509050919050565b7ff0c57e16840df040f15088dc2f81fe391c3923bec73e23a9662efc9c229c6a005468010000000000000000900460ff16612a50576040517fd7e6bcf800000000000000000000000000000000000000000000000000000000815260040160405180910390fd5b6001600160a01b0382165f908152600484016020526040812080548203613a4c575f915050611ab9565b82815f81548110613a5f57613a5f61441c565b905f5260205f2001541115613a77575f915050611ab9565b80545f905b80821015613acf575f613a8f8383613d47565b905085848281548110613aa457613aa461441c565b905f5260205f2001541115613abb57809150613ac9565b613ac68160016144b7565b92505b50613a7c565b5095945050505050565b5f818152600183016020526040812054613b1e57508154600181810184555f848152602080822090930184905584548482528286019093526040902091909155610b16565b505f610b16565b5f818152600183016020526040812054801561335a575f613b47600183614526565b85549091505f90613b5a90600190614526565b9050808214613bb9575f865f018281548110613b7857613b7861441c565b905f5260205f200154905080875f018481548110613b9857613b9861441c565b5f918252602080832090910192909255918252600188019052604090208390555b8554869080613bca57613bca614807565b600190038181905f5260205f20015f90559055856001015f8681526020019081526020015f205f905560019350505050610b16565b806001600160a01b03163b5f03613c4d576040517f4c9c8ce30000000000000000000000000000000000000000000000000000000081526001600160a01b0382166004820152602401612040565b7f360894a13ba1a3210667c828492db98dca3e2076cc3735a920a3ca505d382bbc80547fffffffffffffffffffffffff0000000000000000000000000000000000000000166001600160a01b0392909216919091179055565b60605f5f846001600160a01b031684604051613cc29190614834565b5f60405180830381855af49150503d805f8114613cfa576040519150601f19603f3d011682016040523d82523d5f602084013e613cff565b606091505b5091509150613742858383613d61565b3415612a50576040517fb398979f00000000000000000000000000000000000000000000000000000000815260040160405180910390fd5b5f613d55600284841861484a565b611ab9908484166144b7565b606082613d7657613d7182613dd6565b611ab9565b8151158015613d8d57506001600160a01b0384163b155b15613dcf576040517f9996b3150000000000000000000000000000000000000000000000000000000081526001600160a01b0385166004820152602401612040565b5080611ab9565b805115613de65780518082602001fd5b6040517fd6bda27500000000000000000000000000000000000000000000000000000000815260040160405180910390fd5b5080545f8255905f5260205f209081019061245d91905b80821115613e42575f8155600101613e2f565b5090565b5f60208284031215613e56575f5ffd5b81357fffffffff0000000000000000000000000000000000000000000000000000000081168114611ab9575f5ffd5b6001600160a01b038116811461245d575f5ffd5b8035613ea481613e85565b919050565b5f60208284031215613eb9575f5ffd5b8135611ab981613e85565b5f60208284031215613ed4575f5ffd5b5035919050565b5f5f60408385031215613eec575f5ffd5b8235613ef781613e85565b946020939093013593505050565b6020808252825160a083830152805160c084018190525f929190910190829060e08501905b80831015613f56576001600160a01b038451168252602082019150602084019350600183019250613f2a565b5060208601516001600160a01b0381166040870152925060408601516001600160a01b0381166060870152925060608601516001600160a01b03811660808701529250608086015160a086015280935050505092915050565b5f5f60408385031215613fc0575f5ffd5b823591506020830135613fd281613e85565b809150509250929050565b5f5f5f5f60808587031215613ff0575f5ffd5b8435613ffb81613e85565b9350602085013561400b81613e85565b93969395505050506040820135916060013590565b5f5f5f5f5f60808688031215614034575f5ffd5b853561403f81613e85565b9450602086013567ffffffffffffffff81111561405a575f5ffd5b8601601f8101881361406a575f5ffd5b803567ffffffffffffffff811115614080575f5ffd5b8860208260051b8401011115614094575f5ffd5b959860209190910197509495604081013595606090910135945092505050565b7f4e487b71000000000000000000000000000000000000000000000000000000005f52604160045260245ffd5b604051610100810167ffffffffffffffff81118282101715614105576141056140b4565b60405290565b604051601f8201601f1916810167ffffffffffffffff81118282101715614134576141346140b4565b604052919050565b5f67ffffffffffffffff821115614155576141556140b4565b50601f01601f191660200190565b5f5f60408385031215614174575f5ffd5b823561417f81613e85565b9150602083013567ffffffffffffffff81111561419a575f5ffd5b8301601f810185136141aa575f5ffd5b80356141bd6141b88261413c565b61410b565b8181528660208385010111156141d1575f5ffd5b816020840160208301375f602083830101528093505050509250929050565b5f5f5f60608486031215614202575f5ffd5b833561420d81613e85565b9250602084013561421d81613e85565b915060408401358015158114614231575f5ffd5b809150509250925092565b5f5f5f6060848603121561424e575f5ffd5b833561425981613e85565b95602085013595506040909401359392505050565b5f5f6040838503121561427f575f5ffd5b50508035926020909101359150565b5f5f5f606084860312156142a0575f5ffd5b8335925060208401356142b281613e85565b9150604084013561423181613e85565b5f8151808452602084019350602083015f5b828110156142fb5781516001600160a01b03168652602095860195909101906001016142d4565b5093949350505050565b602081525f611ab960208301846142c2565b602081525f82518060208401528060208501604085015e5f604082850101526040601f19601f83011684010191505092915050565b602080825282518282018190525f918401906040840190835b81811015614383578351835260209384019390920191600101614365565b509095945050505050565b5f5f5f606084860312156143a0575f5ffd5b83356143ab81613e85565b925060208401359150604084013567ffffffffffffffff8111156143cd575f5ffd5b840160a08187031215614231575f5ffd5b5f5f5f606084860312156143f0575f5ffd5b83356143fb81613e85565b9250602084013561440b81613e85565b929592945050506040919091013590565b7f4e487b71000000000000000000000000000000000000000000000000000000005f52603260045260245ffd5b604081525f61445b60408301856142c2565b90506001600160a01b03831660208301529392505050565b5f60208284031215614483575f5ffd5b5051919050565b7f4e487b71000000000000000000000000000000000000000000000000000000005f52601160045260245ffd5b80820180821115610b1657610b1661448a565b5f7fffffffffffffffffffffffffffffffffffffffffffffffffffffffffffffffff82036144fa576144fa61448a565b5060010190565b5f60208284031215614511575f5ffd5b815165ffffffffffff81168114611ab9575f5ffd5b81810381811115610b1657610b1661448a565b5f5f83357fffffffffffffffffffffffffffffffffffffffffffffffffffffffffffffffe184360301811261456c575f5ffd5b83018035915067ffffffffffffffff821115614586575f5ffd5b6020019150600581901b360382131561459d575f5ffd5b9250929050565b8183526020830192505f815f5b848110156142fb5781356145c481613e85565b6001600160a01b0316865260209586019591909101906001016145b1565b602081525f82357fffffffffffffffffffffffffffffffffffffffffffffffffffffffffffffffe1843603018112614618575f5ffd5b830160208101903567ffffffffffffffff811115614634575f5ffd5b8060051b3603821315614645575f5ffd5b60a0602085015261465a60c0850182846145a4565b91505061466960208501613e99565b6001600160a01b03811660408501525061468560408501613e99565b6001600160a01b0381166060850152506146a160608501613e99565b6001600160a01b0381166080850152506080939093013560a092909201919091525090565b8051613ea481613e85565b5f82601f8301126146e0575f5ffd5b81516146ee6141b88261413c565b818152846020838601011115614702575f5ffd5b8160208501602083015e5f918101602001919091529392505050565b5f6020828403121561472e575f5ffd5b815167ffffffffffffffff811115614744575f5ffd5b82016101008185031215614756575f5ffd5b61475e6140e1565b614767826146c6565b8152602082015167ffffffffffffffff811115614782575f5ffd5b61478e868285016146d1565b6020830152506147a0604083016146c6565b60408201526147b1606083016146c6565b60608201526080828101519082015260a0808301519082015260c0808301519082015260e082015167ffffffffffffffff8111156147ed575f5ffd5b6147f9868285016146d1565b60e083015250949350505050565b7f4e487b71000000000000000000000000000000000000000000000000000000005f52603160045260245ffd5b5f82518060208501845e5f920191825250919050565b5f8261487d577f4e487b71000000000000000000000000000000000000000000000000000000005f52601260045260245ffd5b50049056fe39646238303131386136386437313335353866316535613933663263306665653835616435376539a2646970667358221220971acd7c65e799a348954ca07be6543186545591af8062674d597d51490ef2e164736f6c634300081d0033","linkReferences":{}},"methodIdentifiers":{"COLLATERAL_ORACLE()":"7a79bd5c","DEFAULT_ADMIN_ROLE()":"a217fddf","EPOCH_FEEDER()":"f3adae77","GIT_COMMIT()":"b8a15e3a","GIT_TAG()":"b175eb4d","GMITO()":"dd6b6456","GM_MITO()":"3bed90ce","OPERATOR_ROLE()":"f5b541a6","REWARD_DISTRIBUTOR()":"8de728e4","UPGRADE_INTERFACE_VERSION()":"ad3cb1cc","VALIDATOR_MANAGER()":"ae9483e0","WMITO()":"b919ba1a","claimForNonTargets(address,address[],uint256,uint256)":"3653d27f","claimRewards(address,uint256,uint256)":"7ca35209","currentEpoch()":"76671808","distributeRewards(address)":"1de9d9b6","finalizeEpoch(uint256,address)":"7c8cca36","getApplicableConfig(address,uint256)":"262dd9fe","getClaimableRewards(address,address,uint256,uint256)":"3075fe4e","getConfigEpochsCount(address)":"1e9ca6e8","getConfigEpochsRange(address,uint256,uint256)":"d9abb433","getDistributionConfig(address,uint256)":"94bfd604","getEpochReward(uint256,address)":"fe1a6243","getLastFinalizedEpoch(address)":"9f4c271e","getRoleAdmin(bytes32)":"248a9ca3","getRoleMember(bytes32,uint256)":"9010d07c","getRoleMemberCount(bytes32)":"ca15c873","getRoleMembers(bytes32)":"a3246ad3","getVaultClaimed(uint256,address,address)":"93f37e44","gmMitoBalance()":"564cdf08","grantRole(bytes32,address)":"2f2ff15d","hasRole(bytes32,address)":"91d14854","initialize(address)":"c4d66de8","isTarget(address,address,uint256)":"fb1615c7","proxiableUUID()":"52d1902d","renounceRole(bytes32,address)":"36568abe","revokeRole(bytes32,address)":"d547741f","setDistributionConfig(address,uint256,(address[],address,address,address,uint256))":"f47f0084","setOperatorClaimApproval(address,address,bool)":"5bdc8650","supportsInterface(bytes4)":"01ffc9a7","upgradeToAndCall(address,bytes)":"4f1ef286"},"id":117}