{"abi":[{"type":"constructor","inputs":[{"name":"wmito","type":"address","internalType":"address"},{"name":"gmMito","type":"address","internalType":"address"},{"name":"collateralOracle","type":"address","internalType":"address"},{"name":"epochFeeder","type":"address","internalType":"address"},{"name":"rewardDistributor","type":"address","internalType":"address"},{"name":"validatorManager","type":"address","internalType":"address"}],"stateMutability":"nonpayable"},{"type":"receive","stateMutability":"payable"},{"type":"function","name":"COLLATERAL_ORACLE","inputs":[],"outputs":[{"name":"","type":"address","internalType":"contract ICollateralOracleFeed"}],"stateMutability":"view"},{"type":"function","name":"DEFAULT_ADMIN_ROLE","inputs":[],"outputs":[{"name":"","type":"bytes32","internalType":"bytes32"}],"stateMutability":"view"},{"type":"function","name":"EPOCH_FEEDER","inputs":[],"outputs":[{"name":"","type":"address","internalType":"contract IEpochFeeder"}],"stateMutability":"view"},{"type":"function","name":"GIT_COMMIT","inputs":[],"outputs":[{"name":"","type":"string","internalType":"string"}],"stateMutability":"view"},{"type":"function","name":"GIT_TAG","inputs":[],"outputs":[{"name":"","type":"string","internalType":"string"}],"stateMutability":"view"},{"type":"function","name":"GMITO","inputs":[],"outputs":[{"name":"","type":"address","internalType":"contract IGovMITO"}],"stateMutability":"view"},{"type":"function","name":"GM_MITO","inputs":[],"outputs":[{"name":"","type":"address","internalType":"contract IgmMITO"}],"stateMutability":"view"},{"type":"function","name":"OPERATOR_ROLE","inputs":[],"outputs":[{"name":"","type":"bytes32","internalType":"bytes32"}],"stateMutability":"view"},{"type":"function","name":"REWARD_DISTRIBUTOR","inputs":[],"outputs":[{"name":"","type":"address","internalType":"contract IValidatorRewardDistributor"}],"stateMutability":"view"},{"type":"function","name":"UPGRADE_INTERFACE_VERSION","inputs":[],"outputs":[{"name":"","type":"string","internalType":"string"}],"stateMutability":"view"},{"type":"function","name":"VALIDATOR_MANAGER","inputs":[],"outputs":[{"name":"","type":"address","internalType":"contract IValidatorManager"}],"stateMutability":"view"},{"type":"function","name":"WMITO","inputs":[],"outputs":[{"name":"","type":"address","internalType":"contract WETH"}],"stateMutability":"view"},{"type":"function","name":"claimForNonTargets","inputs":[{"name":"validator","type":"address","internalType":"address"},{"name":"vaults","type":"address[]","internalType":"address[]"},{"name":"fromEpoch","type":"uint256","internalType":"uint256"},{"name":"toEpoch","type":"uint256","internalType":"uint256"}],"outputs":[{"name":"totalClaimed","type":"uint256","internalType":"uint256"}],"stateMutability":"nonpayable"},{"type":"function","name":"claimRewards","inputs":[{"name":"validator","type":"address","internalType":"address"},{"name":"fromEpoch","type":"uint256","internalType":"uint256"},{"name":"toEpoch","type":"uint256","internalType":"uint256"}],"outputs":[{"name":"totalClaimed","type":"uint256","internalType":"uint256"}],"stateMutability":"nonpayable"},{"type":"function","name":"currentEpoch","inputs":[],"outputs":[{"name":"","type":"uint256","internalType":"uint256"}],"stateMutability":"view"},{"type":"function","name":"distributeRewards","inputs":[{"name":"validator","type":"address","internalType":"address"}],"outputs":[{"name":"gmMitoAmount","type":"uint256","internalType":"uint256"}],"stateMutability":"nonpayable"},{"type":"function","name":"finalizeEpoch","inputs":[{"name":"epoch","type":"uint256","internalType":"uint256"},{"name":"validator","type":"address","internalType":"address"}],"outputs":[{"name":"totalGmMito","type":"uint256","internalType":"uint256"}],"stateMutability":"nonpayable"},{"type":"function","name":"finalizeEpochs","inputs":[{"name":"fromEpoch","type":"uint256","internalType":"uint256"},{"name":"toEpoch","type":"uint256","internalType":"uint256"},{"name":"validator","type":"address","internalType":"address"}],"outputs":[{"name":"totalGmMito","type":"uint256","internalType":"uint256"}],"stateMutability":"nonpayable"},{"type":"function","name":"getApplicableConfig","inputs":[{"name":"validator","type":"address","internalType":"address"},{"name":"epoch","type":"uint256","internalType":"uint256"}],"outputs":[{"name":"config","type":"tuple","internalType":"struct IRewardRouter.DistributionConfig","components":[{"name":"targets","type":"address[]","internalType":"address[]"},{"name":"operator","type":"address","internalType":"address"},{"name":"defaultRecipient","type":"address","internalType":"address"},{"name":"feeRecipient","type":"address","internalType":"address"},{"name":"commissionRate","type":"uint256","internalType":"uint256"}]}],"stateMutability":"view"},{"type":"function","name":"getClaimableRewards","inputs":[{"name":"validator","type":"address","internalType":"address"},{"name":"vault","type":"address","internalType":"address"},{"name":"fromEpoch","type":"uint256","internalType":"uint256"},{"name":"toEpoch","type":"uint256","internalType":"uint256"}],"outputs":[{"name":"totalClaimable","type":"uint256","internalType":"uint256"}],"stateMutability":"view"},{"type":"function","name":"getConfigEpochsCount","inputs":[{"name":"validator","type":"address","internalType":"address"}],"outputs":[{"name":"","type":"uint256","internalType":"uint256"}],"stateMutability":"view"},{"type":"function","name":"getConfigEpochsRange","inputs":[{"name":"validator","type":"address","internalType":"address"},{"name":"startIndex","type":"uint256","internalType":"uint256"},{"name":"endIndex","type":"uint256","internalType":"uint256"}],"outputs":[{"name":"epochs","type":"uint256[]","internalType":"uint256[]"}],"stateMutability":"view"},{"type":"function","name":"getDistributionConfig","inputs":[{"name":"validator","type":"address","internalType":"address"},{"name":"epoch","type":"uint256","internalType":"uint256"}],"outputs":[{"name":"config","type":"tuple","internalType":"struct IRewardRouter.DistributionConfig","components":[{"name":"targets","type":"address[]","internalType":"address[]"},{"name":"operator","type":"address","internalType":"address"},{"name":"defaultRecipient","type":"address","internalType":"address"},{"name":"feeRecipient","type":"address","internalType":"address"},{"name":"commissionRate","type":"uint256","internalType":"uint256"}]}],"stateMutability":"view"},{"type":"function","name":"getEpochReward","inputs":[{"name":"epoch","type":"uint256","internalType":"uint256"},{"name":"validator","type":"address","internalType":"address"}],"outputs":[{"name":"totalGmMito","type":"uint256","internalType":"uint256"},{"name":"totalTWAB","type":"uint256","internalType":"uint256"},{"name":"finalized","type":"bool","internalType":"bool"}],"stateMutability":"view"},{"type":"function","name":"getLastFinalizedEpoch","inputs":[{"name":"validator","type":"address","internalType":"address"}],"outputs":[{"name":"","type":"uint256","internalType":"uint256"}],"stateMutability":"view"},{"type":"function","name":"getRoleAdmin","inputs":[{"name":"role","type":"bytes32","internalType":"bytes32"}],"outputs":[{"name":"","type":"bytes32","internalType":"bytes32"}],"stateMutability":"view"},{"type":"function","name":"getRoleMember","inputs":[{"name":"role","type":"bytes32","internalType":"bytes32"},{"name":"index","type":"uint256","internalType":"uint256"}],"outputs":[{"name":"","type":"address","internalType":"address"}],"stateMutability":"view"},{"type":"function","name":"getRoleMemberCount","inputs":[{"name":"role","type":"bytes32","internalType":"bytes32"}],"outputs":[{"name":"","type":"uint256","internalType":"uint256"}],"stateMutability":"view"},{"type":"function","name":"getRoleMembers","inputs":[{"name":"role","type":"bytes32","internalType":"bytes32"}],"outputs":[{"name":"","type":"address[]","internalType":"address[]"}],"stateMutability":"view"},{"type":"function","name":"getVaultClaimed","inputs":[{"name":"epoch","type":"uint256","internalType":"uint256"},{"name":"validator","type":"address","internalType":"address"},{"name":"vault","type":"address","internalType":"address"}],"outputs":[{"name":"","type":"uint256","internalType":"uint256"}],"stateMutability":"view"},{"type":"function","name":"gmMitoBalance","inputs":[],"outputs":[{"name":"","type":"uint256","internalType":"uint256"}],"stateMutability":"view"},{"type":"function","name":"grantRole","inputs":[{"name":"role","type":"bytes32","internalType":"bytes32"},{"name":"account","type":"address","internalType":"address"}],"outputs":[],"stateMutability":"nonpayable"},{"type":"function","name":"hasRole","inputs":[{"name":"role","type":"bytes32","internalType":"bytes32"},{"name":"account","type":"address","internalType":"address"}],"outputs":[{"name":"","type":"bool","internalType":"bool"}],"stateMutability":"view"},{"type":"function","name":"initialize","inputs":[{"name":"initialOwner","type":"address","internalType":"address"}],"outputs":[],"stateMutability":"nonpayable"},{"type":"function","name":"isTarget","inputs":[{"name":"validator","type":"address","internalType":"address"},{"name":"vault","type":"address","internalType":"address"},{"name":"epoch","type":"uint256","internalType":"uint256"}],"outputs":[{"name":"","type":"bool","internalType":"bool"}],"stateMutability":"view"},{"type":"function","name":"proxiableUUID","inputs":[],"outputs":[{"name":"","type":"bytes32","internalType":"bytes32"}],"stateMutability":"view"},{"type":"function","name":"renounceRole","inputs":[{"name":"role","type":"bytes32","internalType":"bytes32"},{"name":"callerConfirmation","type":"address","internalType":"address"}],"outputs":[],"stateMutability":"nonpayable"},{"type":"function","name":"revokeRole","inputs":[{"name":"role","type":"bytes32","internalType":"bytes32"},{"name":"account","type":"address","internalType":"address"}],"outputs":[],"stateMutability":"nonpayable"},{"type":"function","name":"setDistributionConfig","inputs":[{"name":"validator","type":"address","internalType":"address"},{"name":"startEpoch","type":"uint256","internalType":"uint256"},{"name":"config","type":"tuple","internalType":"struct IRewardRouter.DistributionConfig","components":[{"name":"targets","type":"address[]","internalType":"address[]"},{"name":"operator","type":"address","internalType":"address"},{"name":"defaultRecipient","type":"address","internalType":"address"},{"name":"feeRecipient","type":"address","internalType":"address"},{"name":"commissionRate","type":"uint256","internalType":"uint256"}]}],"outputs":[],"stateMutability":"nonpayable"},{"type":"function","name":"setOperatorClaimApproval","inputs":[{"name":"validator","type":"address","internalType":"address"},{"name":"claimer","type":"address","internalType":"address"},{"name":"approval","type":"bool","internalType":"bool"}],"outputs":[],"stateMutability":"nonpayable"},{"type":"function","name":"supportsInterface","inputs":[{"name":"interfaceId","type":"bytes4","internalType":"bytes4"}],"outputs":[{"name":"","type":"bool","internalType":"bool"}],"stateMutability":"view"},{"type":"function","name":"upgradeToAndCall","inputs":[{"name":"newImplementation","type":"address","internalType":"address"},{"name":"data","type":"bytes","internalType":"bytes"}],"outputs":[],"stateMutability":"payable"},{"type":"event","name":"DistributionConfigSet","inputs":[{"name":"validator","type":"address","indexed":true,"internalType":"address"},{"name":"startEpoch","type":"uint256","indexed":true,"internalType":"uint256"},{"name":"config","type":"tuple","indexed":false,"internalType":"struct IRewardRouter.DistributionConfig","components":[{"name":"targets","type":"address[]","internalType":"address[]"},{"name":"operator","type":"address","internalType":"address"},{"name":"defaultRecipient","type":"address","internalType":"address"},{"name":"feeRecipient","type":"address","internalType":"address"},{"name":"commissionRate","type":"uint256","internalType":"uint256"}]}],"anonymous":false},{"type":"event","name":"EpochRewardsFinalized","inputs":[{"name":"epoch","type":"uint256","indexed":true,"internalType":"uint256"},{"name":"validator","type":"address","indexed":true,"internalType":"address"},{"name":"totalGmMito","type":"uint256","indexed":false,"internalType":"uint256"},{"name":"totalTWAB","type":"uint256","indexed":false,"internalType":"uint256"}],"anonymous":false},{"type":"event","name":"EpochSkipped","inputs":[{"name":"epoch","type":"uint256","indexed":true,"internalType":"uint256"},{"name":"validator","type":"address","indexed":true,"internalType":"address"}],"anonymous":false},{"type":"event","name":"FeeTaken","inputs":[{"name":"epoch","type":"uint256","indexed":true,"internalType":"uint256"},{"name":"validator","type":"address","indexed":true,"internalType":"address"},{"name":"vault","type":"address","indexed":true,"internalType":"address"},{"name":"amount","type":"uint256","indexed":false,"internalType":"uint256"}],"anonymous":false},{"type":"event","name":"GmMitoTransferred","inputs":[{"name":"vault","type":"address","indexed":true,"internalType":"address"},{"name":"gmMitoAmount","type":"uint256","indexed":false,"internalType":"uint256"}],"anonymous":false},{"type":"event","name":"Initialized","inputs":[{"name":"version","type":"uint64","indexed":false,"internalType":"uint64"}],"anonymous":false},{"type":"event","name":"NonTargetRewardsClaimed","inputs":[{"name":"epoch","type":"uint256","indexed":true,"internalType":"uint256"},{"name":"validator","type":"address","indexed":true,"internalType":"address"},{"name":"vault","type":"address","indexed":true,"internalType":"address"},{"name":"recipient","type":"address","indexed":false,"internalType":"address"},{"name":"amount","type":"uint256","indexed":false,"internalType":"uint256"}],"anonymous":false},{"type":"event","name":"RewardDistributed","inputs":[{"name":"validator","type":"address","indexed":true,"internalType":"address"},{"name":"gmMitoAmount","type":"uint256","indexed":false,"internalType":"uint256"}],"anonymous":false},{"type":"event","name":"RoleAdminChanged","inputs":[{"name":"role","type":"bytes32","indexed":true,"internalType":"bytes32"},{"name":"previousAdminRole","type":"bytes32","indexed":true,"internalType":"bytes32"},{"name":"newAdminRole","type":"bytes32","indexed":true,"internalType":"bytes32"}],"anonymous":false},{"type":"event","name":"RoleGranted","inputs":[{"name":"role","type":"bytes32","indexed":true,"internalType":"bytes32"},{"name":"account","type":"address","indexed":true,"internalType":"address"},{"name":"sender","type":"address","indexed":true,"internalType":"address"}],"anonymous":false},{"type":"event","name":"RoleRevoked","inputs":[{"name":"role","type":"bytes32","indexed":true,"internalType":"bytes32"},{"name":"account","type":"address","indexed":true,"internalType":"address"},{"name":"sender","type":"address","indexed":true,"internalType":"address"}],"anonymous":false},{"type":"event","name":"Upgraded","inputs":[{"name":"implementation","type":"address","indexed":true,"internalType":"address"}],"anonymous":false},{"type":"event","name":"VaultShareClaimed","inputs":[{"name":"epoch","type":"uint256","indexed":true,"internalType":"uint256"},{"name":"validator","type":"address","indexed":true,"internalType":"address"},{"name":"vault","type":"address","indexed":true,"internalType":"address"},{"name":"vaultTWAB","type":"uint256","indexed":false,"internalType":"uint256"},{"name":"gmMitoAmount","type":"uint256","indexed":false,"internalType":"uint256"}],"anonymous":false},{"type":"error","name":"AccessControlBadConfirmation","inputs":[]},{"type":"error","name":"AccessControlUnauthorizedAccount","inputs":[{"name":"account","type":"address","internalType":"address"},{"name":"neededRole","type":"bytes32","internalType":"bytes32"}]},{"type":"error","name":"AddressEmptyCode","inputs":[{"name":"target","type":"address","internalType":"address"}]},{"type":"error","name":"ERC1967InvalidImplementation","inputs":[{"name":"implementation","type":"address","internalType":"address"}]},{"type":"error","name":"ERC1967NonPayable","inputs":[]},{"type":"error","name":"EpochAlreadyFinalized","inputs":[]},{"type":"error","name":"FailedCall","inputs":[]},{"type":"error","name":"InvalidCommissionRate","inputs":[{"name":"rate","type":"uint256","internalType":"uint256"}]},{"type":"error","name":"InvalidEpoch","inputs":[]},{"type":"error","name":"InvalidEpochOrder","inputs":[{"name":"startEpoch","type":"uint256","internalType":"uint256"},{"name":"lastConfigEpoch","type":"uint256","internalType":"uint256"}]},{"type":"error","name":"InvalidInitialization","inputs":[]},{"type":"error","name":"InvalidValidator","inputs":[]},{"type":"error","name":"InvalidVault","inputs":[]},{"type":"error","name":"NoRewards","inputs":[]},{"type":"error","name":"NotInitializing","inputs":[]},{"type":"error","name":"NotTarget","inputs":[]},{"type":"error","name":"UUPSUnauthorizedCallContext","inputs":[]},{"type":"error","name":"UUPSUnsupportedProxiableUUID","inputs":[{"name":"slot","type":"bytes32","internalType":"bytes32"}]},{"type":"error","name":"Unauthorized","inputs":[]},{"type":"error","name":"ZeroAddress","inputs":[]},{"type":"error","name":"ZeroAmount","inputs":[]}],"bytecode":{"object":"0x61018060405230608052348015610014575f5ffd5b5060405161557e38038061557e833981016040819052610033916102f0565b6001600160a01b03861661005a5760405163d92e233d60e01b815260040160405180910390fd5b6001600160a01b0385166100815760405163d92e233d60e01b815260040160405180910390fd5b6001600160a01b0384166100a85760405163d92e233d60e01b815260040160405180910390fd5b6001600160a01b0383166100cf5760405163d92e233d60e01b815260040160405180910390fd5b6001600160a01b0382166100f65760405163d92e233d60e01b815260040160405180910390fd5b6001600160a01b03811661011d5760405163d92e233d60e01b815260040160405180910390fd5b6001600160a01b0380871660e05285811660c05284811661010052838116610140528281166101208190529082166101605260408051630bdcaec360e41b8152905163bdcaec30916004808201926020929091908290030181865afa158015610188573d5f5f3e3d5ffd5b505050506040513d601f19601f820116820180604052508101906101ac9190610373565b6001600160a01b031663caffd74e6040518163ffffffff1660e01b8152600401602060405180830381865afa1580156101e7573d5f5f3e3d5ffd5b505050506040513d601f19601f8201168201806040525081019061020b9190610373565b6001600160a01b031660a05261021f61022a565b505050505050610395565b7ff0c57e16840df040f15088dc2f81fe391c3923bec73e23a9662efc9c229c6a00805468010000000000000000900460ff161561027a5760405163f92ee8a960e01b815260040160405180910390fd5b80546001600160401b03908116146102d95780546001600160401b0319166001600160401b0390811782556040519081527fc7f505b2f371ae2175ee4913f4499e1f2633a7b5936321eed1cdaeb6115181d29060200160405180910390a15b50565b6001600160a01b03811681146102d9575f5ffd5b5f5f5f5f5f5f60c08789031215610305575f5ffd5b8651610310816102dc565b6020880151909650610321816102dc565b6040880151909550610332816102dc565b6060880151909450610343816102dc565b6080880151909350610354816102dc565b60a0880151909250610365816102dc565b809150509295509295509295565b5f60208284031215610383575f5ffd5b815161038e816102dc565b9392505050565b60805160a05160c05160e051610100516101205161014051610160516150d16104ad5f395f818161084d0152612f6101525f81816109cb0152818161130e015281816120c40152818161215901528181612b8d01528181612c220152818161339201528181613427015281816138f5015261398a01525f8181610654015281816112ae015281816128c8015261376b01525f81816105e30152818161209501528181612b5e01528181613363015261438801525f81816102cc015281816102fb01526108dc01525f818161052a01528181610c23015281816111660152818161152d01528181612467015281816129cc0152613ec101525f61099801525f81816124f10152818161251a01526126ce01526150d15ff3fe6080604052600436106102c4575f3560e01c806393f37e4411610170578063b919ba1a116100d1578063dd6b645611610087578063f5b541a611610062578063f5b541a614610a0c578063fb1615c714610a3f578063fe1a624314610a5e575f5ffd5b8063dd6b645614610987578063f3adae77146109ba578063f47f0084146109ed575f5ffd5b8063ca15c873116100b7578063ca15c8731461091d578063d547741f1461093c578063d9abb4331461095b575f5ffd5b8063b919ba1a146108cb578063c4d66de8146108fe575f5ffd5b8063a3246ad311610126578063ae9483e01161010c578063ae9483e01461083c578063b175eb4d1461086f578063b8a15e3a146108b7575f5ffd5b8063a3246ad3146107bb578063ad3cb1cc146107e7575f5ffd5b80639683f2de116101565780639683f2de146107365780639f4c271e14610755578063a217fddf146107a8575f5ffd5b806393f37e44146106f857806394bfd60414610717575f5ffd5b80634f1ef286116102255780637a79bd5c116101db5780638de728e4116101b65780638de728e4146106435780639010d07c1461067657806391d1485414610695575f5ffd5b80637a79bd5c146105d25780637c8cca36146106055780637ca3520914610624575f5ffd5b8063564cdf081161020b578063564cdf081461058b5780635bdc86501461059f57806376671808146105be575f5ffd5b80634f1ef2861461056457806352d1902d14610577575f5ffd5b80632f2ff15d1161027a5780633653d27f116102605780633653d27f146104db57806336568abe146104fa5780633bed90ce14610519575f5ffd5b80632f2ff15d1461049d5780633075fe4e146104bc575f5ffd5b80631e9ca6e8116102aa5780631e9ca6e8146103d1578063248a9ca314610424578063262dd9fe14610471575f5ffd5b806301ffc9a7146103705780631de9d9b6146103a4575f5ffd5b3661036c57337f00000000000000000000000000000000000000000000000000000000000000006001600160a01b03161461036a577f00000000000000000000000000000000000000000000000000000000000000006001600160a01b031663d0e30db0346040518263ffffffff1660e01b81526004015f604051808303818588803b158015610352575f5ffd5b505af1158015610364573d5f5f3e3d5ffd5b50505050505b005b5f5ffd5b34801561037b575f5ffd5b5061038f61038a3660046144fe565b610aeb565b60405190151581526020015b60405180910390f35b3480156103af575f5ffd5b506103c36103be366004614561565b610b46565b60405190815260200161039b565b3480156103dc575f5ffd5b506103c36103eb366004614561565b6001600160a01b03165f9081527ffa2183a4b9e35594495ef24f5060c5bba566c21a062a2b524b653f03c859a704602052604090205490565b34801561042f575f5ffd5b506103c361043e36600461457c565b5f9081527f02dd7bc7dec4dceedda775e58dd541e08a116c6c53815c0bd028192f7b626800602052604090206001015490565b34801561047c575f5ffd5b5061049061048b366004614593565b610d21565b60405161039b91906145bd565b3480156104a8575f5ffd5b5061036a6104b7366004614667565b610e0e565b3480156104c7575f5ffd5b506103c36104d6366004614695565b610e57565b3480156104e6575f5ffd5b506103c36104f53660046146d8565b610f7b565b348015610505575f5ffd5b5061036a610514366004614667565b611098565b348015610524575f5ffd5b5061054c7f000000000000000000000000000000000000000000000000000000000000000081565b6040516001600160a01b03909116815260200161039b565b61036a61057236600461481b565b6110e9565b348015610582575f5ffd5b506103c3611108565b348015610596575f5ffd5b506103c3611136565b3480156105aa575f5ffd5b5061036a6105b93660046148b5565b6111dc565b3480156105c9575f5ffd5b506103c361130b565b3480156105dd575f5ffd5b5061054c7f000000000000000000000000000000000000000000000000000000000000000081565b348015610610575f5ffd5b506103c361061f366004614667565b611368565b34801561062f575f5ffd5b506103c361063e3660046148fd565b6113f6565b34801561064e575f5ffd5b5061054c7f000000000000000000000000000000000000000000000000000000000000000081565b348015610681575f5ffd5b5061054c61069036600461492f565b61155c565b3480156106a0575f5ffd5b5061038f6106af366004614667565b5f9182527f02dd7bc7dec4dceedda775e58dd541e08a116c6c53815c0bd028192f7b626800602090815260408084206001600160a01b0393909316845291905290205460ff1690565b348015610703575f5ffd5b506103c361071236600461494f565b61159c565b348015610722575f5ffd5b50610490610731366004614593565b6115f0565b348015610741575f5ffd5b506103c3610750366004614983565b611709565b348015610760575f5ffd5b506103c361076f366004614561565b6001600160a01b03165f9081527ffa2183a4b9e35594495ef24f5060c5bba566c21a062a2b524b653f03c859a702602052604090205490565b3480156107b3575f5ffd5b506103c35f81565b3480156107c6575f5ffd5b506107da6107d536600461457c565b61173f565b60405161039b91906149f1565b3480156107f2575f5ffd5b5061082f6040518060400160405280600581526020017f352e302e3000000000000000000000000000000000000000000000000000000081525081565b60405161039b9190614a03565b348015610847575f5ffd5b5061054c7f000000000000000000000000000000000000000000000000000000000000000081565b34801561087a575f5ffd5b5061082f6040518060400160405280600d81526020017f6f7261636c652d76302e312e300000000000000000000000000000000000000081525081565b3480156108c2575f5ffd5b5061082f61177b565b3480156108d6575f5ffd5b5061054c7f000000000000000000000000000000000000000000000000000000000000000081565b348015610909575f5ffd5b5061036a610918366004614561565b611797565b348015610928575f5ffd5b506103c361093736600461457c565b611967565b348015610947575f5ffd5b5061036a610956366004614667565b61199e565b348015610966575f5ffd5b5061097a6109753660046148fd565b6119e1565b60405161039b9190614a38565b348015610992575f5ffd5b5061054c7f000000000000000000000000000000000000000000000000000000000000000081565b3480156109c5575f5ffd5b5061054c7f000000000000000000000000000000000000000000000000000000000000000081565b3480156109f8575f5ffd5b5061036a610a07366004614a7a565b611b22565b348015610a17575f5ffd5b506103c37f46a52cf33029de9f84853745a87af28464c80bf0346df1b32e205fc73319f62281565b348015610a4a575f5ffd5b5061038f610a59366004614aca565b611edf565b348015610a69575f5ffd5b50610ace610a78366004614667565b6001600160a01b03165f9081527ffa2183a4b9e35594495ef24f5060c5bba566c21a062a2b524b653f03c859a700602090815260408083209383529290522080546001820154600290920154909260ff90911690565b60408051938452602084019290925215159082015260600161039b565b5f7fffffffff0000000000000000000000000000000000000000000000000000000082167f5a05180f000000000000000000000000000000000000000000000000000000001480610b405750610b4082611f23565b92915050565b5f7f46a52cf33029de9f84853745a87af28464c80bf0346df1b32e205fc73319f622610b7181611fb9565b6001600160a01b038316610bb1576040517fd92e233d00000000000000000000000000000000000000000000000000000000815260040160405180910390fd5b6040805160018082528183019092525f916020808301908036833701905050905083815f81518110610be557610be5614b08565b6001600160a01b0392831660209182029290920101526040517f3f2a33f90000000000000000000000000000000000000000000000000000000081527f000000000000000000000000000000000000000000000000000000000000000090911690633f2a33f990610c5c9084903090600401614b35565b6020604051808303815f875af1158015610c78573d5f5f3e3d5ffd5b505050506040513d601f19601f82011682018060405250810190610c9c9190614b5f565b92505f8311610cd7576040517f3fb087f400000000000000000000000000000000000000000000000000000000815260040160405180910390fd5b836001600160a01b03167fe34918ff1c7084970068b53fd71ad6d8b04e9f15d3886cbf006443e6cdc52ea684604051610d1291815260200190565b60405180910390a25050919050565b6040805160a08101825260608082525f60208301819052928201839052810182905260808101829052907ffa2183a4b9e35594495ef24f5060c5bba566c21a062a2b524b653f03c859a70090610d78828686611fc6565b805460408051602080840282018101909252828152929350839190830182828015610dca57602002820191905f5260205f20905b81546001600160a01b03168152600190910190602001808311610dac575b505050918552505060018101546001600160a01b03908116602085015260028201548116604085015260038201541660608401526004015460808301525092915050565b5f8281527f02dd7bc7dec4dceedda775e58dd541e08a116c6c53815c0bd028192f7b6268006020526040902060010154610e4781611fb9565b610e518383612000565b50505050565b5f6001600160a01b038516610e98576040517fd92e233d00000000000000000000000000000000000000000000000000000000815260040160405180910390fd5b6001600160a01b038416610ed8576040517fd92e233d00000000000000000000000000000000000000000000000000000000815260040160405180910390fd5b5f83118015610ee75750828210155b610f1d576040517fd5b25b6300000000000000000000000000000000000000000000000000000000815260040160405180910390fd5b7ffa2183a4b9e35594495ef24f5060c5bba566c21a062a2b524b653f03c859a700835b838111610f7157610f5382888884612055565b610f5d9084614ba3565b925080610f6981614bb6565b915050610f40565b5050949350505050565b5f6001600160a01b038616610fbc576040517fd92e233d00000000000000000000000000000000000000000000000000000000815260040160405180910390fd5b5f83118015610fcb5750828210155b611001576040517fd5b25b6300000000000000000000000000000000000000000000000000000000815260040160405180910390fd5b335f8181527f11408c214e50776f0f6e546bf3b89e7953bf3ba3b172efa6ff1ba292b2d1b3b260205260409020547ffa2183a4b9e35594495ef24f5060c5bba566c21a062a2b524b653f03c859a700919060ff16855b85811161108b5761106d848b8b8b85888861234d565b6110779086614ba3565b94508061108381614bb6565b915050611057565b5050505095945050505050565b6001600160a01b03811633146110da576040517f6697b23200000000000000000000000000000000000000000000000000000000815260040160405180910390fd5b6110e4828261249a565b505050565b6110f16124e6565b6110fa826125b8565b61110482826125c2565b5050565b5f6111116126c3565b507f360894a13ba1a3210667c828492db98dca3e2076cc3735a920a3ca505d382bbc90565b6040517f70a082310000000000000000000000000000000000000000000000000000000081523060048201525f907f00000000000000000000000000000000000000000000000000000000000000006001600160a01b0316906370a0823190602401602060405180830381865afa1580156111b3573d5f5f3e3d5ffd5b505050506040513d601f19601f820116820180604052508101906111d79190614b5f565b905090565b5f6111e681611fb9565b6001600160a01b038416611226576040517fd92e233d00000000000000000000000000000000000000000000000000000000815260040160405180910390fd5b6001600160a01b038316611266576040517fd92e233d00000000000000000000000000000000000000000000000000000000815260040160405180910390fd5b6040517f53c6fdd00000000000000000000000000000000000000000000000000000000081526001600160a01b038581166004830152848116602483015283151560448301527f000000000000000000000000000000000000000000000000000000000000000016906353c6fdd0906064015f604051808303815f87803b1580156112ef575f5ffd5b505af1158015611301573d5f5f3e3d5ffd5b5050505050505050565b5f7f00000000000000000000000000000000000000000000000000000000000000006001600160a01b031663900cf0cf6040518163ffffffff1660e01b8152600401602060405180830381865afa1580156111b3573d5f5f3e3d5ffd5b5f7f46a52cf33029de9f84853745a87af28464c80bf0346df1b32e205fc73319f62261139381611fb9565b6001600160a01b0383165f9081527ffa2183a4b9e35594495ef24f5060c5bba566c21a062a2b524b653f03c859a70260205260408120546113d5906001614ba3565b9050806001036113e25750835b6113ed818686612725565b95945050505050565b5f6001600160a01b038416611437576040517fd92e233d00000000000000000000000000000000000000000000000000000000815260040160405180910390fd5b5f831180156114465750828210155b61147c576040517fd5b25b6300000000000000000000000000000000000000000000000000000000815260040160405180910390fd5b337ffa2183a4b9e35594495ef24f5060c5bba566c21a062a2b524b653f03c859a700845b848111611521575f6114b3838984611fc6565b90506114bf8185612a8f565b6114f5576040517f65ec05a200000000000000000000000000000000000000000000000000000000815260040160405180910390fd5b61150183838a87612aef565b61150b9086614ba3565b945050808061151990614bb6565b9150506114a0565b508215611553576115537f00000000000000000000000000000000000000000000000000000000000000008385612e46565b50509392505050565b5f8281527fc1f6fe24621ce81ec5827caf0253cadb74709b061630e6b55e823717059320006020819052604082206115949084612e99565b949350505050565b6001600160a01b038281165f9081527ffa2183a4b9e35594495ef24f5060c5bba566c21a062a2b524b653f03c859a701602090815260408083209385168352928152828220868352905220545b9392505050565b6040805160a08101825260608082525f6020808401829052838501829052918301819052608083018190526001600160a01b03861681527ffa2183a4b9e35594495ef24f5060c5bba566c21a062a2b524b653f03c859a70382528381208582528252839020805484518184028101840190955280855292937ffa2183a4b9e35594495ef24f5060c5bba566c21a062a2b524b653f03c859a70093919290918391830182828015610dca57602002820191905f5260205f209081546001600160a01b03168152600190910190602001808311610dac57505050918552505060018101546001600160a01b03908116602085015260028201548116604085015260038201541660608401526004015460808301525092915050565b5f7f46a52cf33029de9f84853745a87af28464c80bf0346df1b32e205fc73319f62261173481611fb9565b6113ed858585612725565b5f8181527fc1f6fe24621ce81ec5827caf0253cadb74709b061630e6b55e8237170593200060208190526040909120606091906115e990612ea4565b6040518060600160405280602881526020016150746028913981565b7ff0c57e16840df040f15088dc2f81fe391c3923bec73e23a9662efc9c229c6a00805468010000000000000000810460ff16159067ffffffffffffffff165f811580156117e15750825b90505f8267ffffffffffffffff1660011480156117fd5750303b155b90508115801561180b575080155b15611842576040517ff92ee8a900000000000000000000000000000000000000000000000000000000815260040160405180910390fd5b84547fffffffffffffffffffffffffffffffffffffffffffffffff000000000000000016600117855583156118a35784547fffffffffffffffffffffffffffffffffffffffffffffff00ffffffffffffffff16680100000000000000001785555b6001600160a01b0386166118e3576040517fd92e233d00000000000000000000000000000000000000000000000000000000815260040160405180910390fd5b6118eb612eb0565b6118f3612eb0565b6118fd5f87612000565b50831561195f5784547fffffffffffffffffffffffffffffffffffffffffffffff00ffffffffffffffff168555604051600181527fc7f505b2f371ae2175ee4913f4499e1f2633a7b5936321eed1cdaeb6115181d29060200160405180910390a15b505050505050565b5f8181527fc1f6fe24621ce81ec5827caf0253cadb74709b061630e6b55e823717059320006020819052604082206115e990612eb8565b5f8281527f02dd7bc7dec4dceedda775e58dd541e08a116c6c53815c0bd028192f7b62680060205260409020600101546119d781611fb9565b610e51838361249a565b6001600160a01b0383165f9081527ffa2183a4b9e35594495ef24f5060c5bba566c21a062a2b524b653f03c859a70460205260409020805460609190808510611a59575f5b604051908082528060200260200182016040528015611a4f578160200160208202803683370190505b50925050506115e9565b80841115611a65578093505b848411611a72575f611a26565b5f611a7d8686614bed565b90508067ffffffffffffffff811115611a9857611a9861476c565b604051908082528060200260200182016040528015611ac1578160200160208202803683370190505b5093505f5b81811015611b175783611ad98289614ba3565b81548110611ae957611ae9614b08565b905f5260205f200154858281518110611b0457611b04614b08565b6020908102919091010152600101611ac6565b505050509392505050565b6001600160a01b038316611b62576040517fd92e233d00000000000000000000000000000000000000000000000000000000815260040160405180910390fd5b6080810135612710811115611baf576040517f7c27fae2000000000000000000000000000000000000000000000000000000008152600401611ba691815260200190565b60405180910390fd5b507ffa2183a4b9e35594495ef24f5060c5bba566c21a062a2b524b653f03c859a700611bdc818585612ec1565b6001600160a01b0384165f9081526004820160205260409020805415611c985780548190611c0c90600190614bed565b81548110611c1c57611c1c614b08565b905f5260205f200154841015848260018480549050611c3b9190614bed565b81548110611c4b57611c4b614b08565b905f5260205f2001549091611c95576040517f84122f3800000000000000000000000000000000000000000000000000000000815260048101929092526024820152604401611ba6565b50505b6001600160a01b0385165f908152600383016020908152604080832087845282529182902091611ccd91908601908601614561565b6001820180547fffffffffffffffffffffffff0000000000000000000000000000000000000000166001600160a01b0392909216919091179055611d176060850160408601614561565b6002820180547fffffffffffffffffffffffff0000000000000000000000000000000000000000166001600160a01b0392909216919091179055611d616080850160608601614561565b6003820180547fffffffffffffffffffffffff0000000000000000000000000000000000000000166001600160a01b039290921691909117905560808401356004820155611daf815f6144d0565b5f5b611dbb8580614c00565b9050811015611e435781611dcf8680614c00565b83818110611ddf57611ddf614b08565b9050602002016020810190611df49190614561565b8154600180820184555f93845260209093200180547fffffffffffffffffffffffff0000000000000000000000000000000000000000166001600160a01b039290921691909117905501611db1565b5081541580611e7b5750815485908390611e5f90600190614bed565b81548110611e6f57611e6f614b08565b905f5260205f20015414155b15611e955781546001810183555f83815260209020018590555b84866001600160a01b03167ffa86f71fb405a4f3c8fe0b059720aad6817a4c3fd9ef40267d349ebf42d5c44786604051611ecf9190614ca9565b60405180910390a3505050505050565b5f7ffa2183a4b9e35594495ef24f5060c5bba566c21a062a2b524b653f03c859a70081611f0d828786611fc6565b9050611f198186612a8f565b9695505050505050565b5f7fffffffff0000000000000000000000000000000000000000000000000000000082167f7965db0b000000000000000000000000000000000000000000000000000000001480610b4057507f01ffc9a7000000000000000000000000000000000000000000000000000000007fffffffff00000000000000000000000000000000000000000000000000000000831614610b40565b611fc3813361301d565b50565b5f5f611fd38585856130a9565b6001600160a01b0385165f9081526003870160209081526040808320938352929052209150509392505050565b5f7fc1f6fe24621ce81ec5827caf0253cadb74709b061630e6b55e823717059320008161202d8585613149565b90508015611594575f85815260208390526040902061204c9085613233565b50949350505050565b6001600160a01b038084165f908152600186016020908152604080832093861683529281528282208483529052908120541561209257505f611594565b5f7f00000000000000000000000000000000000000000000000000000000000000006001600160a01b03166390aaa0467f00000000000000000000000000000000000000000000000000000000000000006001600160a01b0316636f5e290f866040518263ffffffff1660e01b815260040161211091815260200190565b602060405180830381865afa15801561212b573d5f5f3e3d5ffd5b505050506040513d601f19601f8201168201806040525081019061214f9190614d8d565b6001600160a01b037f000000000000000000000000000000000000000000000000000000000000000016636f5e290f612189886001614ba3565b6040518263ffffffff1660e01b81526004016121a791815260200190565b602060405180830381865afa1580156121c2573d5f5f3e3d5ffd5b505050506040513d601f19601f820116820180604052508101906121e69190614d8d565b6040517fffffffff0000000000000000000000000000000000000000000000000000000060e085901b16815265ffffffffffff9283166004820152911660248201526001600160a01b03808916604483015287166064820152608401602060405180830381865afa15801561225d573d5f5f3e3d5ffd5b505050506040513d601f19601f820116820180604052508101906122819190614b5f565b9050805f03612293575f915050611594565b6001600160a01b0385165f908152602087815260408083208684529091529020600281015460ff166122c9575f92505050611594565b5f6122dc825f0154848460010154613247565b90505f6122ea898988611fc6565b90506122f68188612a8f565b156123415760038101546001600160a01b03161580159061231a57505f8160040154115b15612341575f612331838360040154612710613247565b905061233d8184614bed565b9250505b50979650505050505050565b5f5f61235a898987611fc6565b90508280612377575060018101546001600160a01b038581169116145b80612391575060028101546001600160a01b038581169116145b6123c7576040517f82b4290000000000000000000000000000000000000000000000000000000000815260040160405180910390fd5b60028101546001600160a01b03165f5b8781101561245b5761240f838a8a848181106123f5576123f5614b08565b905060200201602081019061240a9190614561565b612a8f565b612453576124468b888c8c8c8681811061242b5761242b614b08565b90506020020160208101906124409190614561565b866132f4565b6124509085614ba3565b93505b6001016123d7565b50821561248d5761248d7f00000000000000000000000000000000000000000000000000000000000000008285612e46565b5050979650505050505050565b5f7fc1f6fe24621ce81ec5827caf0253cadb74709b061630e6b55e82371705932000816124c7858561361a565b90508015611594575f85815260208390526040902061204c90856136dc565b306001600160a01b037f000000000000000000000000000000000000000000000000000000000000000016148061257f57507f00000000000000000000000000000000000000000000000000000000000000006001600160a01b03166125737f360894a13ba1a3210667c828492db98dca3e2076cc3735a920a3ca505d382bbc546001600160a01b031690565b6001600160a01b031614155b156125b6576040517fe07c8dba00000000000000000000000000000000000000000000000000000000815260040160405180910390fd5b565b5f61110481611fb9565b816001600160a01b03166352d1902d6040518163ffffffff1660e01b8152600401602060405180830381865afa92505050801561261c575060408051601f3d908101601f1916820190925261261991810190614b5f565b60015b61265d576040517f4c9c8ce30000000000000000000000000000000000000000000000000000000081526001600160a01b0383166004820152602401611ba6565b7f360894a13ba1a3210667c828492db98dca3e2076cc3735a920a3ca505d382bbc81146126b9576040517faa1d49a400000000000000000000000000000000000000000000000000000000815260048101829052602401611ba6565b6110e483836136f0565b306001600160a01b037f000000000000000000000000000000000000000000000000000000000000000016146125b6576040517fe07c8dba00000000000000000000000000000000000000000000000000000000815260040160405180910390fd5b5f6001600160a01b038216612766576040517fd92e233d00000000000000000000000000000000000000000000000000000000815260040160405180910390fd5b5f841180156127755750838310155b6127ab576040517fd5b25b6300000000000000000000000000000000000000000000000000000000815260040160405180910390fd5b6001600160a01b0382165f9081527ffa2183a4b9e35594495ef24f5060c5bba566c21a062a2b524b653f03c859a70260205260409020547ffa2183a4b9e35594495ef24f5060c5bba566c21a062a2b524b653f03c859a7009061280f816001614ba3565b86148061281a575080155b612850576040517fd5b25b6300000000000000000000000000000000000000000000000000000000815260040160405180910390fd5b5f61285b8787614bed565b612866906001614ba3565b90505f61287584898489613745565b905080604001515f0361288e575f9450505050506115e9565b6040517f0c1b8fd90000000000000000000000000000000000000000000000000000000081526001600160a01b0387811660048301525f917f000000000000000000000000000000000000000000000000000000000000000090911690630c1b8fd9906024016040805180830381865afa15801561290e573d5f5f3e3d5ffd5b505050506040513d601f19601f820116820180604052508101906129329190614db2565b509050805f036129595761294c858a85855f01518b613bf8565b5f955050505050506115e9565b506040805160018082528183019092525f916020808301908036833701905050905086815f8151811061298e5761298e614b08565b6001600160a01b0392831660209182029290920101526040517f3f2a33f90000000000000000000000000000000000000000000000000000000081527f000000000000000000000000000000000000000000000000000000000000000090911690633f2a33f990612a059084903090600401614b35565b6020604051808303815f875af1158015612a21573d5f5f3e3d5ffd5b505050506040513d601f19601f82011682018060405250810190612a459190614b5f565b95505f8611612a80576040517f3fb087f400000000000000000000000000000000000000000000000000000000815260040160405180910390fd5b50611b17848984898986613c80565b81545f90815b81811015612ae557836001600160a01b0316858281548110612ab957612ab9614b08565b5f918252602090912001546001600160a01b031603612add57600192505050610b40565b600101612a95565b505f949350505050565b6001600160a01b0382165f9081526020858152604080832086845290915281206002015460ff161580612b4f57506001600160a01b038084165f908152600187016020908152604080832093861683529281528282208783529052205415155b15612b5b57505f611594565b5f7f00000000000000000000000000000000000000000000000000000000000000006001600160a01b03166390aaa0467f00000000000000000000000000000000000000000000000000000000000000006001600160a01b0316636f5e290f886040518263ffffffff1660e01b8152600401612bd991815260200190565b602060405180830381865afa158015612bf4573d5f5f3e3d5ffd5b505050506040513d601f19601f82011682018060405250810190612c189190614d8d565b6001600160a01b037f000000000000000000000000000000000000000000000000000000000000000016636f5e290f612c528a6001614ba3565b6040518263ffffffff1660e01b8152600401612c7091815260200190565b602060405180830381865afa158015612c8b573d5f5f3e3d5ffd5b505050506040513d601f19601f82011682018060405250810190612caf9190614d8d565b6040517fffffffff0000000000000000000000000000000000000000000000000000000060e085901b16815265ffffffffffff9283166004820152911660248201526001600160a01b03808816604483015286166064820152608401602060405180830381865afa158015612d26573d5f5f3e3d5ffd5b505050506040513d601f19601f82011682018060405250810190612d4a9190614b5f565b9050805f03612d5c575f915050611594565b6001600160a01b0384165f90815260208781526040808320888452909152812080546001820154612d8f91908590613247565b9350839150508015610f71576001600160a01b038086165f90815260018901602090815260408083209388168352928152828220898352905220819055612dd98786888785613e67565b612de39084614bed565b9250836001600160a01b0316856001600160a01b0316877f39b62d670bf3a6b5e9b4bfd6dca9494ee4923d64014b74bbf4a13f5b09d5903a8587604051612e34929190918252602082015260400190565b60405180910390a45050949350505050565b81601452806034526fa9059cbb0000000000000000000000005f5260205f604460105f875af18060015f511416612e8f57803d853b151710612e8f576390b8ec185f526004601cfd5b505f603452505050565b5f6115e98383613f2d565b60605f6115e983613f53565b6125b6613fac565b5f610b40825490565b335f9081527fb7db2dd08fcb62d0c9e08c51941cae53c267786a0b75803fb7960902fc8ef97d602052604090205460ff1615612efc57505050565b5f612f08848484611fc6565b6001810154909150336001600160a01b0390911603612f275750505050565b6040517f4f1811dd0000000000000000000000000000000000000000000000000000000081526001600160a01b0384811660048301525f917f000000000000000000000000000000000000000000000000000000000000000090911690634f1811dd906024015f60405180830381865afa158015612fa7573d5f5f3e3d5ffd5b505050506040513d5f823e601f3d908101601f19168201604052612fce9190810190614e2c565b604001519050336001600160a01b03821603612feb575050505050565b6040517f82b4290000000000000000000000000000000000000000000000000000000000815260040160405180910390fd5b5f8281527f02dd7bc7dec4dceedda775e58dd541e08a116c6c53815c0bd028192f7b626800602090815260408083206001600160a01b038516845290915290205460ff16611104576040517fe2517d3f0000000000000000000000000000000000000000000000000000000081526001600160a01b038216600482015260248101839052604401611ba6565b6001600160a01b0382165f9081526004840160205260408120805482036130d3575f9150506115e9565b82815f815481106130e6576130e6614b08565b905f5260205f20015411156130fe575f9150506115e9565b5f61310a868686614013565b90505f8111613119575f611f19565b81613125600183614bed565b8154811061313557613135614b08565b905f5260205f200154925050509392505050565b5f8281527f02dd7bc7dec4dceedda775e58dd541e08a116c6c53815c0bd028192f7b626800602081815260408084206001600160a01b038616855290915282205460ff1661322a575f848152602082815260408083206001600160a01b0387168452909152902080547fffffffffffffffffffffffffffffffffffffffffffffffffffffffffffffff001660011790556131e03390565b6001600160a01b0316836001600160a01b0316857f2f8788117e7eff1d82e926ec794901d17c78024a50270940304540a733656f0d60405160405180910390a46001915050610b40565b5f915050610b40565b5f6115e9836001600160a01b0384166140ca565b828202818385830414851517026132ed577fffffffffffffffffffffffffffffffffffffffffffffffffffffffffffffffff8385098181108201900382848609835f0384168285116132a05763ae47f7025f526004601cfd5b93849004938382119092035f8390038390046001010292030417600260038302811880840282030280840282030280840282030280840282030280840282030280840290910302026115e9565b0492915050565b6001600160a01b0383165f9081526020868152604080832087845290915281206002015460ff16158061335457506001600160a01b038085165f908152600188016020908152604080832093871683529281528282208883529052205415155b1561336057505f6113ed565b5f7f00000000000000000000000000000000000000000000000000000000000000006001600160a01b03166390aaa0467f00000000000000000000000000000000000000000000000000000000000000006001600160a01b0316636f5e290f896040518263ffffffff1660e01b81526004016133de91815260200190565b602060405180830381865afa1580156133f9573d5f5f3e3d5ffd5b505050506040513d601f19601f8201168201806040525081019061341d9190614d8d565b6001600160a01b037f000000000000000000000000000000000000000000000000000000000000000016636f5e290f6134578b6001614ba3565b6040518263ffffffff1660e01b815260040161347591815260200190565b602060405180830381865afa158015613490573d5f5f3e3d5ffd5b505050506040513d601f19601f820116820180604052508101906134b49190614d8d565b6040517fffffffff0000000000000000000000000000000000000000000000000000000060e085901b16815265ffffffffffff9283166004820152911660248201526001600160a01b03808916604483015287166064820152608401602060405180830381865afa15801561352b573d5f5f3e3d5ffd5b505050506040513d601f19601f8201168201806040525081019061354f9190614b5f565b9050805f03613561575f9150506113ed565b6001600160a01b0385165f9081526020888152604080832089845290915290208054600182015461359491908490613247565b9250821561360f576001600160a01b038681165f81815260018b01602090815260408083208a86168085529083528184208d85528352928190208890558051948916855290840187905290928a917f6045ec4f4247b5f3ff7e8f3aabc36ed34dceb2a6379ed41d70e47d70af8eaf2391015b60405180910390a45b505095945050505050565b5f8281527f02dd7bc7dec4dceedda775e58dd541e08a116c6c53815c0bd028192f7b626800602081815260408084206001600160a01b038616855290915282205460ff161561322a575f848152602082815260408083206001600160a01b038716808552925280832080547fffffffffffffffffffffffffffffffffffffffffffffffffffffffffffffff0016905551339287917ff6391f5c32d9c69d2a47ea670b442974b53935d1edc7fd64eb21e047a839171b9190a46001915050610b40565b5f6115e9836001600160a01b038416614116565b6136f9826141f0565b6040516001600160a01b038316907fbc7cd75a20ee27fd9adebab32041f755214dbc6bffa90cc0225b39da2e5c2d3b905f90a280511561373d576110e48282614297565b611104614300565b613768604051806060016040528060608152602001606081526020015f81525090565b5f7f00000000000000000000000000000000000000000000000000000000000000006001600160a01b0316636c9f2f586040518163ffffffff1660e01b8152600401602060405180830381865afa1580156137c5573d5f5f3e3d5ffd5b505050506040513d601f19601f820116820180604052508101906137e99190614f15565b90508367ffffffffffffffff8111156138045761380461476c565b60405190808252806020026020018201604052801561382d578160200160208202803683370190505b5082528367ffffffffffffffff8111156138495761384961476c565b604051908082528060200260200182016040528015613872578160200160208202803683370190505b5060208301525f5b84811015610f71575f61388d8288614ba3565b6001600160a01b0386165f90815260208a8152604080832084845290915290206002015490915060ff16156138ee576040517f3366263c00000000000000000000000000000000000000000000000000000000815260040160405180910390fd5b5f613a1c867f00000000000000000000000000000000000000000000000000000000000000006001600160a01b0316636f5e290f856040518263ffffffff1660e01b815260040161394191815260200190565b602060405180830381865afa15801561395c573d5f5f3e3d5ffd5b505050506040513d601f19601f820116820180604052508101906139809190614d8d565b6001600160a01b037f000000000000000000000000000000000000000000000000000000000000000016636f5e290f6139ba876001614ba3565b6040518263ffffffff1660e01b81526004016139d891815260200190565b602060405180830381865afa1580156139f3573d5f5f3e3d5ffd5b505050506040513d601f19601f82011682018060405250810190613a179190614d8d565b614338565b9050805f03613a6f576001600160a01b0386165f81815260028b0160205260408082208590555184917fecd3a347628c3b88fe68f9ed7f8ce41ebeb7f83f713d3ae24ce1c3630f785f3291a35050613bf0565b6040517f8935ced5000000000000000000000000000000000000000000000000000000008152600481018390526001600160a01b0387811660248301525f918291871690638935ced59060440160a060405180830381865afa158015613ad7573d5f5f3e3d5ffd5b505050506040513d601f19601f82011682018060405250810190613afb9190614f4f565b91509150801580613b1c575060208201516bffffffffffffffffffffffff16155b15613b6d576001600160a01b0388165f81815260028d0160205260408082208790555186917fecd3a347628c3b88fe68f9ed7f8ce41ebeb7f83f713d3ae24ce1c3630f785f3291a350505050613bf0565b81602001516bffffffffffffffffffffffff16875f01518681518110613b9557613b95614b08565b6020026020010181815250508287602001518681518110613bb857613bb8614b08565b60200260200101818152505081602001516bffffffffffffffffffffffff1687604001818151613be89190614ba3565b905250505050505b60010161387a565b5f5b8381101561195f575f838281518110613c1557613c15614b08565b60200260200101511115613c78575f613c2e8287614ba3565b6001600160a01b0384165f81815260028a01602052604080822084905551929350909183917fecd3a347628c3b88fe68f9ed7f8ce41ebeb7f83f713d3ae24ce1c3630f785f3291a3505b600101613bfa565b5f80805b86811015613e0a578351805182908110613ca057613ca0614b08565b60200260200101515f0315613e02575f613cba828a614ba3565b90505f613ce887875f01518581518110613cd657613cd6614b08565b60200260200101518860400151613247565b6001600160a01b0389165f90815260208d815260408083208684528252909120828155908801518051929350909185908110613d2657613d26614b08565b602090810291909101810151600180840191909155600280840180547fffffffffffffffffffffffffffffffffffffffffffffffffffffffffffffff00169092179091556001600160a01b038b165f908152908e0190915260409020839055613d8f8287614ba3565b9550829450886001600160a01b0316837fcad4bb3e722125ec372957e194e1fcbb73b8286b53632f18284e589d84f33bb6848a602001518881518110613dd757613dd7614b08565b6020026020010151604051613df6929190918252602082015260400190565b60405180910390a35050505b600101613c84565b508382108015613e1957505f81115b1561130157613e288285614bed565b6001600160a01b0386165f90815260208a8152604080832085845290915281208054909190613e58908490614ba3565b90915550505050505050505050565b5f5f613e74878787611fc6565b60038101549091506001600160a01b0316801580613e9457506004820154155b15613ea3575f925050506113ed565b613eb4848360040154612710613247565b9250821561360f57613ee77f00000000000000000000000000000000000000000000000000000000000000008285612e46565b846001600160a01b0316876001600160a01b0316877f79cfc57d040b454ad547f083baab4ce4b8753705a4836381e8d2f874e9f1e7b58660405161360691815260200190565b5f825f018281548110613f4257613f42614b08565b905f5260205f200154905092915050565b6060815f01805480602002602001604051908101604052809291908181526020018280548015613fa057602002820191905f5260205f20905b815481526020019060010190808311613f8c575b50505050509050919050565b7ff0c57e16840df040f15088dc2f81fe391c3923bec73e23a9662efc9c229c6a005468010000000000000000900460ff166125b6576040517fd7e6bcf800000000000000000000000000000000000000000000000000000000815260040160405180910390fd5b6001600160a01b0382165f90815260048401602052604081208054820361403d575f9150506115e9565b82815f8154811061405057614050614b08565b905f5260205f2001541115614068575f9150506115e9565b80545f905b808210156140c0575f61408083836143ff565b90508584828154811061409557614095614b08565b905f5260205f20015411156140ac578091506140ba565b6140b7816001614ba3565b92505b5061406d565b5095945050505050565b5f81815260018301602052604081205461410f57508154600181810184555f848152602080822090930184905584548482528286019093526040902091909155610b40565b505f610b40565b5f818152600183016020526040812054801561322a575f614138600183614bed565b85549091505f9061414b90600190614bed565b90508082146141aa575f865f01828154811061416957614169614b08565b905f5260205f200154905080875f01848154811061418957614189614b08565b5f918252602080832090910192909255918252600188019052604090208390555b85548690806141bb576141bb614ff8565b600190038181905f5260205f20015f90559055856001015f8681526020019081526020015f205f905560019350505050610b40565b806001600160a01b03163b5f0361423e576040517f4c9c8ce30000000000000000000000000000000000000000000000000000000081526001600160a01b0382166004820152602401611ba6565b7f360894a13ba1a3210667c828492db98dca3e2076cc3735a920a3ca505d382bbc80547fffffffffffffffffffffffff0000000000000000000000000000000000000000166001600160a01b0392909216919091179055565b60605f5f846001600160a01b0316846040516142b39190615025565b5f60405180830381855af49150503d805f81146142eb576040519150601f19603f3d011682016040523d82523d5f602084013e6142f0565b606091505b50915091506113ed858383614419565b34156125b6576040517fb398979f00000000000000000000000000000000000000000000000000000000815260040160405180910390fd5b6040517f2cba54da0000000000000000000000000000000000000000000000000000000081526001600160a01b03848116600483015265ffffffffffff8085166024840152831660448301525f917f000000000000000000000000000000000000000000000000000000000000000090911690632cba54da90606401602060405180830381865afa9250505080156143ed575060408051601f3d908101601f191682019092526143ea91810190614b5f565b60015b6143f857505f6115e9565b90506115e9565b5f61440d600284841861503b565b6115e990848416614ba3565b60608261442e576144298261448e565b6115e9565b815115801561444557506001600160a01b0384163b155b15614487576040517f9996b3150000000000000000000000000000000000000000000000000000000081526001600160a01b0385166004820152602401611ba6565b50806115e9565b80511561449e5780518082602001fd5b6040517fd6bda27500000000000000000000000000000000000000000000000000000000815260040160405180910390fd5b5080545f8255905f5260205f2090810190611fc391905b808211156144fa575f81556001016144e7565b5090565b5f6020828403121561450e575f5ffd5b81357fffffffff00000000000000000000000000000000000000000000000000000000811681146115e9575f5ffd5b6001600160a01b0381168114611fc3575f5ffd5b803561455c8161453d565b919050565b5f60208284031215614571575f5ffd5b81356115e98161453d565b5f6020828403121561458c575f5ffd5b5035919050565b5f5f604083850312156145a4575f5ffd5b82356145af8161453d565b946020939093013593505050565b6020808252825160a083830152805160c084018190525f929190910190829060e08501905b8083101561460e576001600160a01b0384511682526020820191506020840193506001830192506145e2565b5060208601516001600160a01b0381166040870152925060408601516001600160a01b0381166060870152925060608601516001600160a01b03811660808701529250608086015160a086015280935050505092915050565b5f5f60408385031215614678575f5ffd5b82359150602083013561468a8161453d565b809150509250929050565b5f5f5f5f608085870312156146a8575f5ffd5b84356146b38161453d565b935060208501356146c38161453d565b93969395505050506040820135916060013590565b5f5f5f5f5f608086880312156146ec575f5ffd5b85356146f78161453d565b9450602086013567ffffffffffffffff811115614712575f5ffd5b8601601f81018813614722575f5ffd5b803567ffffffffffffffff811115614738575f5ffd5b8860208260051b840101111561474c575f5ffd5b959860209190910197509495604081013595606090910135945092505050565b7f4e487b71000000000000000000000000000000000000000000000000000000005f52604160045260245ffd5b604051610100810167ffffffffffffffff811182821017156147bd576147bd61476c565b60405290565b604051601f8201601f1916810167ffffffffffffffff811182821017156147ec576147ec61476c565b604052919050565b5f67ffffffffffffffff82111561480d5761480d61476c565b50601f01601f191660200190565b5f5f6040838503121561482c575f5ffd5b82356148378161453d565b9150602083013567ffffffffffffffff811115614852575f5ffd5b8301601f81018513614862575f5ffd5b8035614875614870826147f4565b6147c3565b818152866020838501011115614889575f5ffd5b816020840160208301375f602083830101528093505050509250929050565b8015158114611fc3575f5ffd5b5f5f5f606084860312156148c7575f5ffd5b83356148d28161453d565b925060208401356148e28161453d565b915060408401356148f2816148a8565b809150509250925092565b5f5f5f6060848603121561490f575f5ffd5b833561491a8161453d565b95602085013595506040909401359392505050565b5f5f60408385031215614940575f5ffd5b50508035926020909101359150565b5f5f5f60608486031215614961575f5ffd5b8335925060208401356149738161453d565b915060408401356148f28161453d565b5f5f5f60608486031215614995575f5ffd5b833592506020840135915060408401356148f28161453d565b5f8151808452602084019350602083015f5b828110156149e75781516001600160a01b03168652602095860195909101906001016149c0565b5093949350505050565b602081525f6115e960208301846149ae565b602081525f82518060208401528060208501604085015e5f604082850101526040601f19601f83011684010191505092915050565b602080825282518282018190525f918401906040840190835b81811015614a6f578351835260209384019390920191600101614a51565b509095945050505050565b5f5f5f60608486031215614a8c575f5ffd5b8335614a978161453d565b925060208401359150604084013567ffffffffffffffff811115614ab9575f5ffd5b840160a081870312156148f2575f5ffd5b5f5f5f60608486031215614adc575f5ffd5b8335614ae78161453d565b92506020840135614af78161453d565b929592945050506040919091013590565b7f4e487b71000000000000000000000000000000000000000000000000000000005f52603260045260245ffd5b604081525f614b4760408301856149ae565b90506001600160a01b03831660208301529392505050565b5f60208284031215614b6f575f5ffd5b5051919050565b7f4e487b71000000000000000000000000000000000000000000000000000000005f52601160045260245ffd5b80820180821115610b4057610b40614b76565b5f7fffffffffffffffffffffffffffffffffffffffffffffffffffffffffffffffff8203614be657614be6614b76565b5060010190565b81810381811115610b4057610b40614b76565b5f5f83357fffffffffffffffffffffffffffffffffffffffffffffffffffffffffffffffe1843603018112614c33575f5ffd5b83018035915067ffffffffffffffff821115614c4d575f5ffd5b6020019150600581901b3603821315614c64575f5ffd5b9250929050565b8183526020830192505f815f5b848110156149e7578135614c8b8161453d565b6001600160a01b031686526020958601959190910190600101614c78565b602081525f82357fffffffffffffffffffffffffffffffffffffffffffffffffffffffffffffffe1843603018112614cdf575f5ffd5b830160208101903567ffffffffffffffff811115614cfb575f5ffd5b8060051b3603821315614d0c575f5ffd5b60a06020850152614d2160c085018284614c6b565b915050614d3060208501614551565b6001600160a01b038116604085015250614d4c60408501614551565b6001600160a01b038116606085015250614d6860608501614551565b6001600160a01b0381166080850152506080939093013560a092909201919091525090565b5f60208284031215614d9d575f5ffd5b815165ffffffffffff811681146115e9575f5ffd5b5f5f60408385031215614dc3575f5ffd5b505080516020909101519092909150565b805161455c8161453d565b5f82601f830112614dee575f5ffd5b8151614dfc614870826147f4565b818152846020838601011115614e10575f5ffd5b8160208501602083015e5f918101602001919091529392505050565b5f60208284031215614e3c575f5ffd5b815167ffffffffffffffff811115614e52575f5ffd5b82016101008185031215614e64575f5ffd5b614e6c614799565b614e7582614dd4565b8152602082015167ffffffffffffffff811115614e90575f5ffd5b614e9c86828501614ddf565b602083015250614eae60408301614dd4565b6040820152614ebf60608301614dd4565b60608201526080828101519082015260a0808301519082015260c0808301519082015260e082015167ffffffffffffffff811115614efb575f5ffd5b614f0786828501614ddf565b60e083015250949350505050565b5f60208284031215614f25575f5ffd5b81516115e98161453d565b80516fffffffffffffffffffffffffffffffff8116811461455c575f5ffd5b5f5f82840360a0811215614f61575f5ffd5b6080811215614f6e575f5ffd5b506040516080810167ffffffffffffffff81118282101715614f9257614f9261476c565b6040528351614fa08161453d565b815260208401516bffffffffffffffffffffffff81168114614fc0575f5ffd5b6020820152614fd160408501614f30565b6040820152614fe260608501614f30565b6060820152608084015190925061468a816148a8565b7f4e487b71000000000000000000000000000000000000000000000000000000005f52603160045260245ffd5b5f82518060208501845e5f920191825250919050565b5f8261506e577f4e487b71000000000000000000000000000000000000000000000000000000005f52601260045260245ffd5b50049056fe62313734323734623031393561653766353132326435303264333366643436323863396161386336a2646970667358221220b06f5f6e9f6e3bf80304b4465674a15843b460acb00d76d50f46751d90023f0a64736f6c634300081d0033","linkReferences":{}},"methodIdentifiers":{"COLLATERAL_ORACLE()":"7a79bd5c","DEFAULT_ADMIN_ROLE()":"a217fddf","EPOCH_FEEDER()":"f3adae77","GIT_COMMIT()":"b8a15e3a","GIT_TAG()":"b175eb4d","GMITO()":"dd6b6456","GM_MITO()":"3bed90ce","OPERATOR_ROLE()":"f5b541a6","REWARD_DISTRIBUTOR()":"8de728e4","UPGRADE_INTERFACE_VERSION()":"ad3cb1cc","VALIDATOR_MANAGER()":"ae9483e0","WMITO()":"b919ba1a","claimForNonTargets(address,address[],uint256,uint256)":"3653d27f","claimRewards(address,uint256,uint256)":"7ca35209","currentEpoch()":"76671808","distributeRewards(address)":"1de9d9b6","finalizeEpoch(uint256,address)":"7c8cca36","finalizeEpochs(uint256,uint256,address)":"9683f2de","getApplicableConfig(address,uint256)":"262dd9fe","getClaimableRewards(address,address,uint256,uint256)":"3075fe4e","getConfigEpochsCount(address)":"1e9ca6e8","getConfigEpochsRange(address,uint256,uint256)":"d9abb433","getDistributionConfig(address,uint256)":"94bfd604","getEpochReward(uint256,address)":"fe1a6243","getLastFinalizedEpoch(address)":"9f4c271e","getRoleAdmin(bytes32)":"248a9ca3","getRoleMember(bytes32,uint256)":"9010d07c","getRoleMemberCount(bytes32)":"ca15c873","getRoleMembers(bytes32)":"a3246ad3","getVaultClaimed(uint256,address,address)":"93f37e44","gmMitoBalance()":"564cdf08","grantRole(bytes32,address)":"2f2ff15d","hasRole(bytes32,address)":"91d14854","initialize(address)":"c4d66de8","isTarget(address,address,uint256)":"fb1615c7","proxiableUUID()":"52d1902d","renounceRole(bytes32,address)":"36568abe","revokeRole(bytes32,address)":"d547741f","setDistributionConfig(address,uint256,(address[],address,address,address,uint256))":"f47f0084","setOperatorClaimApproval(address,address,bool)":"5bdc8650","supportsInterface(bytes4)":"01ffc9a7","upgradeToAndCall(address,bytes)":"4f1ef286"},"id":119}