{"abi":[{"type":"constructor","inputs":[{"name":"wmito","type":"address","internalType":"address"},{"name":"gmMito","type":"address","internalType":"address"},{"name":"collateralOracle","type":"address","internalType":"address"},{"name":"epochFeeder","type":"address","internalType":"address"},{"name":"rewardDistributor","type":"address","internalType":"address"},{"name":"validatorManager","type":"address","internalType":"address"}],"stateMutability":"nonpayable"},{"type":"receive","stateMutability":"payable"},{"type":"function","name":"COLLATERAL_ORACLE","inputs":[],"outputs":[{"name":"","type":"address","internalType":"contract ICollateralOracleFeed"}],"stateMutability":"view"},{"type":"function","name":"DEFAULT_ADMIN_ROLE","inputs":[],"outputs":[{"name":"","type":"bytes32","internalType":"bytes32"}],"stateMutability":"view"},{"type":"function","name":"EPOCH_FEEDER","inputs":[],"outputs":[{"name":"","type":"address","internalType":"contract IEpochFeeder"}],"stateMutability":"view"},{"type":"function","name":"GIT_COMMIT","inputs":[],"outputs":[{"name":"","type":"string","internalType":"string"}],"stateMutability":"view"},{"type":"function","name":"GIT_TAG","inputs":[],"outputs":[{"name":"","type":"string","internalType":"string"}],"stateMutability":"view"},{"type":"function","name":"GMITO","inputs":[],"outputs":[{"name":"","type":"address","internalType":"contract IGovMITO"}],"stateMutability":"view"},{"type":"function","name":"GM_MITO","inputs":[],"outputs":[{"name":"","type":"address","internalType":"contract IgmMITO"}],"stateMutability":"view"},{"type":"function","name":"OPERATOR_ROLE","inputs":[],"outputs":[{"name":"","type":"bytes32","internalType":"bytes32"}],"stateMutability":"view"},{"type":"function","name":"REWARD_DISTRIBUTOR","inputs":[],"outputs":[{"name":"","type":"address","internalType":"contract IValidatorRewardDistributor"}],"stateMutability":"view"},{"type":"function","name":"UPGRADE_INTERFACE_VERSION","inputs":[],"outputs":[{"name":"","type":"string","internalType":"string"}],"stateMutability":"view"},{"type":"function","name":"VALIDATOR_MANAGER","inputs":[],"outputs":[{"name":"","type":"address","internalType":"contract IValidatorManager"}],"stateMutability":"view"},{"type":"function","name":"WMITO","inputs":[],"outputs":[{"name":"","type":"address","internalType":"contract WETH"}],"stateMutability":"view"},{"type":"function","name":"claimForNonTargets","inputs":[{"name":"validator","type":"address","internalType":"address"},{"name":"vaults","type":"address[]","internalType":"address[]"},{"name":"fromEpoch","type":"uint256","internalType":"uint256"},{"name":"toEpoch","type":"uint256","internalType":"uint256"}],"outputs":[{"name":"totalClaimed","type":"uint256","internalType":"uint256"}],"stateMutability":"nonpayable"},{"type":"function","name":"claimRewards","inputs":[{"name":"validator","type":"address","internalType":"address"},{"name":"fromEpoch","type":"uint256","internalType":"uint256"},{"name":"toEpoch","type":"uint256","internalType":"uint256"}],"outputs":[{"name":"totalClaimed","type":"uint256","internalType":"uint256"}],"stateMutability":"nonpayable"},{"type":"function","name":"currentEpoch","inputs":[],"outputs":[{"name":"","type":"uint256","internalType":"uint256"}],"stateMutability":"view"},{"type":"function","name":"distributeRewards","inputs":[{"name":"validator","type":"address","internalType":"address"}],"outputs":[{"name":"gmMitoAmount","type":"uint256","internalType":"uint256"}],"stateMutability":"nonpayable"},{"type":"function","name":"finalizeEpoch","inputs":[{"name":"epoch","type":"uint256","internalType":"uint256"},{"name":"validator","type":"address","internalType":"address"}],"outputs":[{"name":"totalGmMito","type":"uint256","internalType":"uint256"}],"stateMutability":"nonpayable"},{"type":"function","name":"getApplicableConfig","inputs":[{"name":"validator","type":"address","internalType":"address"},{"name":"epoch","type":"uint256","internalType":"uint256"}],"outputs":[{"name":"config","type":"tuple","internalType":"struct IRewardRouter.DistributionConfig","components":[{"name":"targets","type":"address[]","internalType":"address[]"},{"name":"operator","type":"address","internalType":"address"},{"name":"defaultRecipient","type":"address","internalType":"address"},{"name":"feeRecipient","type":"address","internalType":"address"},{"name":"commissionRate","type":"uint256","internalType":"uint256"}]}],"stateMutability":"view"},{"type":"function","name":"getClaimableRewards","inputs":[{"name":"validator","type":"address","internalType":"address"},{"name":"vault","type":"address","internalType":"address"},{"name":"fromEpoch","type":"uint256","internalType":"uint256"},{"name":"toEpoch","type":"uint256","internalType":"uint256"}],"outputs":[{"name":"totalClaimable","type":"uint256","internalType":"uint256"}],"stateMutability":"view"},{"type":"function","name":"getConfigEpochsCount","inputs":[{"name":"validator","type":"address","internalType":"address"}],"outputs":[{"name":"","type":"uint256","internalType":"uint256"}],"stateMutability":"view"},{"type":"function","name":"getConfigEpochsRange","inputs":[{"name":"validator","type":"address","internalType":"address"},{"name":"startIndex","type":"uint256","internalType":"uint256"},{"name":"endIndex","type":"uint256","internalType":"uint256"}],"outputs":[{"name":"epochs","type":"uint256[]","internalType":"uint256[]"}],"stateMutability":"view"},{"type":"function","name":"getDistributionConfig","inputs":[{"name":"validator","type":"address","internalType":"address"},{"name":"epoch","type":"uint256","internalType":"uint256"}],"outputs":[{"name":"config","type":"tuple","internalType":"struct IRewardRouter.DistributionConfig","components":[{"name":"targets","type":"address[]","internalType":"address[]"},{"name":"operator","type":"address","internalType":"address"},{"name":"defaultRecipient","type":"address","internalType":"address"},{"name":"feeRecipient","type":"address","internalType":"address"},{"name":"commissionRate","type":"uint256","internalType":"uint256"}]}],"stateMutability":"view"},{"type":"function","name":"getEpochReward","inputs":[{"name":"epoch","type":"uint256","internalType":"uint256"},{"name":"validator","type":"address","internalType":"address"}],"outputs":[{"name":"totalGmMito","type":"uint256","internalType":"uint256"},{"name":"totalTWAB","type":"uint256","internalType":"uint256"},{"name":"finalized","type":"bool","internalType":"bool"}],"stateMutability":"view"},{"type":"function","name":"getLastFinalizedEpoch","inputs":[{"name":"validator","type":"address","internalType":"address"}],"outputs":[{"name":"","type":"uint256","internalType":"uint256"}],"stateMutability":"view"},{"type":"function","name":"getRoleAdmin","inputs":[{"name":"role","type":"bytes32","internalType":"bytes32"}],"outputs":[{"name":"","type":"bytes32","internalType":"bytes32"}],"stateMutability":"view"},{"type":"function","name":"getRoleMember","inputs":[{"name":"role","type":"bytes32","internalType":"bytes32"},{"name":"index","type":"uint256","internalType":"uint256"}],"outputs":[{"name":"","type":"address","internalType":"address"}],"stateMutability":"view"},{"type":"function","name":"getRoleMemberCount","inputs":[{"name":"role","type":"bytes32","internalType":"bytes32"}],"outputs":[{"name":"","type":"uint256","internalType":"uint256"}],"stateMutability":"view"},{"type":"function","name":"getRoleMembers","inputs":[{"name":"role","type":"bytes32","internalType":"bytes32"}],"outputs":[{"name":"","type":"address[]","internalType":"address[]"}],"stateMutability":"view"},{"type":"function","name":"getVaultClaimed","inputs":[{"name":"epoch","type":"uint256","internalType":"uint256"},{"name":"validator","type":"address","internalType":"address"},{"name":"vault","type":"address","internalType":"address"}],"outputs":[{"name":"","type":"uint256","internalType":"uint256"}],"stateMutability":"view"},{"type":"function","name":"gmMitoBalance","inputs":[],"outputs":[{"name":"","type":"uint256","internalType":"uint256"}],"stateMutability":"view"},{"type":"function","name":"grantRole","inputs":[{"name":"role","type":"bytes32","internalType":"bytes32"},{"name":"account","type":"address","internalType":"address"}],"outputs":[],"stateMutability":"nonpayable"},{"type":"function","name":"hasRole","inputs":[{"name":"role","type":"bytes32","internalType":"bytes32"},{"name":"account","type":"address","internalType":"address"}],"outputs":[{"name":"","type":"bool","internalType":"bool"}],"stateMutability":"view"},{"type":"function","name":"initialize","inputs":[{"name":"initialOwner","type":"address","internalType":"address"}],"outputs":[],"stateMutability":"nonpayable"},{"type":"function","name":"isTarget","inputs":[{"name":"validator","type":"address","internalType":"address"},{"name":"vault","type":"address","internalType":"address"},{"name":"epoch","type":"uint256","internalType":"uint256"}],"outputs":[{"name":"","type":"bool","internalType":"bool"}],"stateMutability":"view"},{"type":"function","name":"migrate","inputs":[{"name":"validators","type":"address[]","internalType":"address[]"},{"name":"newOperators","type":"address[]","internalType":"address[]"},{"name":"newDefaultRecipients","type":"address[]","internalType":"address[]"},{"name":"newFeeRecipients","type":"address[]","internalType":"address[]"}],"outputs":[],"stateMutability":"nonpayable"},{"type":"function","name":"proxiableUUID","inputs":[],"outputs":[{"name":"","type":"bytes32","internalType":"bytes32"}],"stateMutability":"view"},{"type":"function","name":"renounceRole","inputs":[{"name":"role","type":"bytes32","internalType":"bytes32"},{"name":"callerConfirmation","type":"address","internalType":"address"}],"outputs":[],"stateMutability":"nonpayable"},{"type":"function","name":"revokeRole","inputs":[{"name":"role","type":"bytes32","internalType":"bytes32"},{"name":"account","type":"address","internalType":"address"}],"outputs":[],"stateMutability":"nonpayable"},{"type":"function","name":"setDistributionConfig","inputs":[{"name":"validator","type":"address","internalType":"address"},{"name":"startEpoch","type":"uint256","internalType":"uint256"},{"name":"config","type":"tuple","internalType":"struct IRewardRouter.DistributionConfig","components":[{"name":"targets","type":"address[]","internalType":"address[]"},{"name":"operator","type":"address","internalType":"address"},{"name":"defaultRecipient","type":"address","internalType":"address"},{"name":"feeRecipient","type":"address","internalType":"address"},{"name":"commissionRate","type":"uint256","internalType":"uint256"}]}],"outputs":[],"stateMutability":"nonpayable"},{"type":"function","name":"setOperatorClaimApproval","inputs":[{"name":"validator","type":"address","internalType":"address"},{"name":"claimer","type":"address","internalType":"address"},{"name":"approval","type":"bool","internalType":"bool"}],"outputs":[],"stateMutability":"nonpayable"},{"type":"function","name":"supportsInterface","inputs":[{"name":"interfaceId","type":"bytes4","internalType":"bytes4"}],"outputs":[{"name":"","type":"bool","internalType":"bool"}],"stateMutability":"view"},{"type":"function","name":"upgradeToAndCall","inputs":[{"name":"newImplementation","type":"address","internalType":"address"},{"name":"data","type":"bytes","internalType":"bytes"}],"outputs":[],"stateMutability":"payable"},{"type":"event","name":"DistributionConfigSet","inputs":[{"name":"validator","type":"address","indexed":true,"internalType":"address"},{"name":"startEpoch","type":"uint256","indexed":true,"internalType":"uint256"},{"name":"config","type":"tuple","indexed":false,"internalType":"struct IRewardRouter.DistributionConfig","components":[{"name":"targets","type":"address[]","internalType":"address[]"},{"name":"operator","type":"address","internalType":"address"},{"name":"defaultRecipient","type":"address","internalType":"address"},{"name":"feeRecipient","type":"address","internalType":"address"},{"name":"commissionRate","type":"uint256","internalType":"uint256"}]}],"anonymous":false},{"type":"event","name":"EpochRewardsFinalized","inputs":[{"name":"epoch","type":"uint256","indexed":true,"internalType":"uint256"},{"name":"validator","type":"address","indexed":true,"internalType":"address"},{"name":"totalGmMito","type":"uint256","indexed":false,"internalType":"uint256"},{"name":"totalTWAB","type":"uint256","indexed":false,"internalType":"uint256"}],"anonymous":false},{"type":"event","name":"FeeTaken","inputs":[{"name":"epoch","type":"uint256","indexed":true,"internalType":"uint256"},{"name":"validator","type":"address","indexed":true,"internalType":"address"},{"name":"vault","type":"address","indexed":true,"internalType":"address"},{"name":"amount","type":"uint256","indexed":false,"internalType":"uint256"}],"anonymous":false},{"type":"event","name":"GmMitoTransferred","inputs":[{"name":"vault","type":"address","indexed":true,"internalType":"address"},{"name":"gmMitoAmount","type":"uint256","indexed":false,"internalType":"uint256"}],"anonymous":false},{"type":"event","name":"Initialized","inputs":[{"name":"version","type":"uint64","indexed":false,"internalType":"uint64"}],"anonymous":false},{"type":"event","name":"NonTargetRewardsClaimed","inputs":[{"name":"epoch","type":"uint256","indexed":true,"internalType":"uint256"},{"name":"validator","type":"address","indexed":true,"internalType":"address"},{"name":"vault","type":"address","indexed":true,"internalType":"address"},{"name":"recipient","type":"address","indexed":false,"internalType":"address"},{"name":"amount","type":"uint256","indexed":false,"internalType":"uint256"}],"anonymous":false},{"type":"event","name":"RewardDistributed","inputs":[{"name":"validator","type":"address","indexed":true,"internalType":"address"},{"name":"gmMitoAmount","type":"uint256","indexed":false,"internalType":"uint256"}],"anonymous":false},{"type":"event","name":"RoleAdminChanged","inputs":[{"name":"role","type":"bytes32","indexed":true,"internalType":"bytes32"},{"name":"previousAdminRole","type":"bytes32","indexed":true,"internalType":"bytes32"},{"name":"newAdminRole","type":"bytes32","indexed":true,"internalType":"bytes32"}],"anonymous":false},{"type":"event","name":"RoleGranted","inputs":[{"name":"role","type":"bytes32","indexed":true,"internalType":"bytes32"},{"name":"account","type":"address","indexed":true,"internalType":"address"},{"name":"sender","type":"address","indexed":true,"internalType":"address"}],"anonymous":false},{"type":"event","name":"RoleRevoked","inputs":[{"name":"role","type":"bytes32","indexed":true,"internalType":"bytes32"},{"name":"account","type":"address","indexed":true,"internalType":"address"},{"name":"sender","type":"address","indexed":true,"internalType":"address"}],"anonymous":false},{"type":"event","name":"Upgraded","inputs":[{"name":"implementation","type":"address","indexed":true,"internalType":"address"}],"anonymous":false},{"type":"event","name":"VaultShareClaimed","inputs":[{"name":"epoch","type":"uint256","indexed":true,"internalType":"uint256"},{"name":"validator","type":"address","indexed":true,"internalType":"address"},{"name":"vault","type":"address","indexed":true,"internalType":"address"},{"name":"vaultTWAB","type":"uint256","indexed":false,"internalType":"uint256"},{"name":"gmMitoAmount","type":"uint256","indexed":false,"internalType":"uint256"}],"anonymous":false},{"type":"error","name":"AccessControlBadConfirmation","inputs":[]},{"type":"error","name":"AccessControlUnauthorizedAccount","inputs":[{"name":"account","type":"address","internalType":"address"},{"name":"neededRole","type":"bytes32","internalType":"bytes32"}]},{"type":"error","name":"AddressEmptyCode","inputs":[{"name":"target","type":"address","internalType":"address"}]},{"type":"error","name":"ERC1967InvalidImplementation","inputs":[{"name":"implementation","type":"address","internalType":"address"}]},{"type":"error","name":"ERC1967NonPayable","inputs":[]},{"type":"error","name":"EpochAlreadyFinalized","inputs":[]},{"type":"error","name":"FailedCall","inputs":[]},{"type":"error","name":"InvalidCommissionRate","inputs":[{"name":"rate","type":"uint256","internalType":"uint256"}]},{"type":"error","name":"InvalidEpoch","inputs":[]},{"type":"error","name":"InvalidEpochOrder","inputs":[{"name":"startEpoch","type":"uint256","internalType":"uint256"},{"name":"lastConfigEpoch","type":"uint256","internalType":"uint256"}]},{"type":"error","name":"InvalidInitialization","inputs":[]},{"type":"error","name":"InvalidValidator","inputs":[]},{"type":"error","name":"InvalidVault","inputs":[]},{"type":"error","name":"LengthMismatch","inputs":[]},{"type":"error","name":"NoEpochs","inputs":[]},{"type":"error","name":"NoRewards","inputs":[]},{"type":"error","name":"NotInitializing","inputs":[]},{"type":"error","name":"NotTarget","inputs":[]},{"type":"error","name":"UUPSUnauthorizedCallContext","inputs":[]},{"type":"error","name":"UUPSUnsupportedProxiableUUID","inputs":[{"name":"slot","type":"bytes32","internalType":"bytes32"}]},{"type":"error","name":"Unauthorized","inputs":[]},{"type":"error","name":"ZeroAddress","inputs":[]},{"type":"error","name":"ZeroAmount","inputs":[]}],"bytecode":{"object":"0x61018060405230608052348015610014575f5ffd5b50604051615283380380615283833981016040819052610033916102fc565b8585858585856001600160a01b0386166100605760405163d92e233d60e01b815260040160405180910390fd5b6001600160a01b0385166100875760405163d92e233d60e01b815260040160405180910390fd5b6001600160a01b0384166100ae5760405163d92e233d60e01b815260040160405180910390fd5b6001600160a01b0383166100d55760405163d92e233d60e01b815260040160405180910390fd5b6001600160a01b0382166100fc5760405163d92e233d60e01b815260040160405180910390fd5b6001600160a01b0381166101235760405163d92e233d60e01b815260040160405180910390fd5b6001600160a01b0380871660e05285811660c05284811661010052838116610140528281166101208190529082166101605260408051630bdcaec360e41b8152905163bdcaec30916004808201926020929091908290030181865afa15801561018e573d5f5f3e3d5ffd5b505050506040513d601f19601f820116820180604052508101906101b2919061037f565b6001600160a01b031663caffd74e6040518163ffffffff1660e01b8152600401602060405180830381865afa1580156101ed573d5f5f3e3d5ffd5b505050506040513d601f19601f82011682018060405250810190610211919061037f565b6001600160a01b031660a052610225610236565b5050505050505050505050506103a1565b7ff0c57e16840df040f15088dc2f81fe391c3923bec73e23a9662efc9c229c6a00805468010000000000000000900460ff16156102865760405163f92ee8a960e01b815260040160405180910390fd5b80546001600160401b03908116146102e55780546001600160401b0319166001600160401b0390811782556040519081527fc7f505b2f371ae2175ee4913f4499e1f2633a7b5936321eed1cdaeb6115181d29060200160405180910390a15b50565b6001600160a01b03811681146102e5575f5ffd5b5f5f5f5f5f5f60c08789031215610311575f5ffd5b865161031c816102e8565b602088015190965061032d816102e8565b604088015190955061033e816102e8565b606088015190945061034f816102e8565b6080880151909350610360816102e8565b60a0880151909250610371816102e8565b809150509295509295509295565b5f6020828403121561038f575f5ffd5b815161039a816102e8565b9392505050565b60805160a05160c05160e05161010051610120516101405161016051614dd86104ab5f395f818161082e01526134ac01525f81816109cb0152818161130e01528181611524015281816115a20152818161297901528181612a0e015281816130d80152818161316d015281816138dd015261397201525f818161065401526112ae01525f81816105e3015281816117a90152818161294a015281816130a901526138ae01525f81816102cc015281816102fb01526108dc01525f818161052a01528181610c2301528181611166015281816116a501528181611a2701528181612d1c0152613ceb01525f61099801525f8181612da601528181612dcf0152612f830152614dd85ff3fe6080604052600436106102c4575f3560e01c806393f37e4411610170578063b919ba1a116100d1578063dd6b645611610087578063f5b541a611610062578063f5b541a614610a0c578063fb1615c714610a3f578063fe1a624314610a5e575f5ffd5b8063dd6b645614610987578063f3adae77146109ba578063f47f0084146109ed575f5ffd5b8063ca15c873116100b7578063ca15c8731461091d578063d547741f1461093c578063d9abb4331461095b575f5ffd5b8063b919ba1a146108cb578063c4d66de8146108fe575f5ffd5b8063ad3cb1cc11610126578063b175eb4d1161010c578063b175eb4d14610850578063b3f74dca14610898578063b8a15e3a146108b7575f5ffd5b8063ad3cb1cc146107c8578063ae9483e01461081d575f5ffd5b80639f4c271e116101565780639f4c271e14610736578063a217fddf14610789578063a3246ad31461079c575f5ffd5b806393f37e44146106f857806394bfd60414610717575f5ffd5b80634f1ef286116102255780637a79bd5c116101db5780638de728e4116101b65780638de728e4146106435780639010d07c1461067657806391d1485414610695575f5ffd5b80637a79bd5c146105d25780637c8cca36146106055780637ca3520914610624575f5ffd5b8063564cdf081161020b578063564cdf081461058b5780635bdc86501461059f57806376671808146105be575f5ffd5b80634f1ef2861461056457806352d1902d14610577575f5ffd5b80632f2ff15d1161027a5780633653d27f116102605780633653d27f146104db57806336568abe146104fa5780633bed90ce14610519575f5ffd5b80632f2ff15d1461049d5780633075fe4e146104bc575f5ffd5b80631e9ca6e8116102aa5780631e9ca6e8146103d1578063248a9ca314610424578063262dd9fe14610471575f5ffd5b806301ffc9a7146103705780631de9d9b6146103a4575f5ffd5b3661036c57337f00000000000000000000000000000000000000000000000000000000000000006001600160a01b03161461036a577f00000000000000000000000000000000000000000000000000000000000000006001600160a01b031663d0e30db0346040518263ffffffff1660e01b81526004015f604051808303818588803b158015610352575f5ffd5b505af1158015610364573d5f5f3e3d5ffd5b50505050505b005b5f5ffd5b34801561037b575f5ffd5b5061038f61038a366004614261565b610aeb565b60405190151581526020015b60405180910390f35b3480156103af575f5ffd5b506103c36103be3660046142c4565b610b46565b60405190815260200161039b565b3480156103dc575f5ffd5b506103c36103eb3660046142c4565b6001600160a01b03165f9081527ffa2183a4b9e35594495ef24f5060c5bba566c21a062a2b524b653f03c859a704602052604090205490565b34801561042f575f5ffd5b506103c361043e3660046142df565b5f9081527f02dd7bc7dec4dceedda775e58dd541e08a116c6c53815c0bd028192f7b626800602052604090206001015490565b34801561047c575f5ffd5b5061049061048b3660046142f6565b610d21565b60405161039b9190614320565b3480156104a8575f5ffd5b5061036a6104b73660046143ca565b610e0e565b3480156104c7575f5ffd5b506103c36104d63660046143f8565b610e57565b3480156104e6575f5ffd5b506103c36104f5366004614483565b610f7b565b348015610505575f5ffd5b5061036a6105143660046143ca565b611098565b348015610524575f5ffd5b5061054c7f000000000000000000000000000000000000000000000000000000000000000081565b6040516001600160a01b03909116815260200161039b565b61036a610572366004614594565b6110e9565b348015610582575f5ffd5b506103c3611108565b348015610596575f5ffd5b506103c3611136565b3480156105aa575f5ffd5b5061036a6105b9366004614621565b6111dc565b3480156105c9575f5ffd5b506103c361130b565b3480156105dd575f5ffd5b5061054c7f000000000000000000000000000000000000000000000000000000000000000081565b348015610610575f5ffd5b506103c361061f3660046143ca565b611368565b34801561062f575f5ffd5b506103c361063e36600461466d565b6118f0565b34801561064e575f5ffd5b5061054c7f000000000000000000000000000000000000000000000000000000000000000081565b348015610681575f5ffd5b5061054c61069036600461469f565b611a56565b3480156106a0575f5ffd5b5061038f6106af3660046143ca565b5f9182527f02dd7bc7dec4dceedda775e58dd541e08a116c6c53815c0bd028192f7b626800602090815260408084206001600160a01b0393909316845291905290205460ff1690565b348015610703575f5ffd5b506103c36107123660046146bf565b611a96565b348015610722575f5ffd5b506104906107313660046142f6565b611aea565b348015610741575f5ffd5b506103c36107503660046142c4565b6001600160a01b03165f9081527ffa2183a4b9e35594495ef24f5060c5bba566c21a062a2b524b653f03c859a702602052604090205490565b348015610794575f5ffd5b506103c35f81565b3480156107a7575f5ffd5b506107bb6107b63660046142df565b611c03565b60405161039b9190614736565b3480156107d3575f5ffd5b506108106040518060400160405280600581526020017f352e302e3000000000000000000000000000000000000000000000000000000081525081565b60405161039b9190614748565b348015610828575f5ffd5b5061054c7f000000000000000000000000000000000000000000000000000000000000000081565b34801561085b575f5ffd5b506108106040518060400160405280600681526020017f76302e302e37000000000000000000000000000000000000000000000000000081525081565b3480156108a3575f5ffd5b5061036a6108b236600461477d565b611c3f565b3480156108c2575f5ffd5b50610810612030565b3480156108d6575f5ffd5b5061054c7f000000000000000000000000000000000000000000000000000000000000000081565b348015610909575f5ffd5b5061036a6109183660046142c4565b61204c565b348015610928575f5ffd5b506103c36109373660046142df565b61221c565b348015610947575f5ffd5b5061036a6109563660046143ca565b612253565b348015610966575f5ffd5b5061097a61097536600461466d565b612296565b60405161039b919061484b565b348015610992575f5ffd5b5061054c7f000000000000000000000000000000000000000000000000000000000000000081565b3480156109c5575f5ffd5b5061054c7f000000000000000000000000000000000000000000000000000000000000000081565b3480156109f8575f5ffd5b5061036a610a0736600461488d565b6123d7565b348015610a17575f5ffd5b506103c37f46a52cf33029de9f84853745a87af28464c80bf0346df1b32e205fc73319f62281565b348015610a4a575f5ffd5b5061038f610a593660046148dd565b612794565b348015610a69575f5ffd5b50610ace610a783660046143ca565b6001600160a01b03165f9081527ffa2183a4b9e35594495ef24f5060c5bba566c21a062a2b524b653f03c859a700602090815260408083209383529290522080546001820154600290920154909260ff90911690565b60408051938452602084019290925215159082015260600161039b565b5f7fffffffff0000000000000000000000000000000000000000000000000000000082167f5a05180f000000000000000000000000000000000000000000000000000000001480610b405750610b40826127d8565b92915050565b5f7f46a52cf33029de9f84853745a87af28464c80bf0346df1b32e205fc73319f622610b718161286e565b6001600160a01b038316610bb1576040517fd92e233d00000000000000000000000000000000000000000000000000000000815260040160405180910390fd5b6040805160018082528183019092525f916020808301908036833701905050905083815f81518110610be557610be561491b565b6001600160a01b0392831660209182029290920101526040517f3f2a33f90000000000000000000000000000000000000000000000000000000081527f000000000000000000000000000000000000000000000000000000000000000090911690633f2a33f990610c5c9084903090600401614948565b6020604051808303815f875af1158015610c78573d5f5f3e3d5ffd5b505050506040513d601f19601f82011682018060405250810190610c9c9190614972565b92505f8311610cd7576040517f3fb087f400000000000000000000000000000000000000000000000000000000815260040160405180910390fd5b836001600160a01b03167fe34918ff1c7084970068b53fd71ad6d8b04e9f15d3886cbf006443e6cdc52ea684604051610d1291815260200190565b60405180910390a25050919050565b6040805160a08101825260608082525f60208301819052928201839052810182905260808101829052907ffa2183a4b9e35594495ef24f5060c5bba566c21a062a2b524b653f03c859a70090610d7882868661287b565b805460408051602080840282018101909252828152929350839190830182828015610dca57602002820191905f5260205f20905b81546001600160a01b03168152600190910190602001808311610dac575b505050918552505060018101546001600160a01b03908116602085015260028201548116604085015260038201541660608401526004015460808301525092915050565b5f8281527f02dd7bc7dec4dceedda775e58dd541e08a116c6c53815c0bd028192f7b6268006020526040902060010154610e478161286e565b610e5183836128b5565b50505050565b5f6001600160a01b038516610e98576040517fd92e233d00000000000000000000000000000000000000000000000000000000815260040160405180910390fd5b6001600160a01b038416610ed8576040517fd92e233d00000000000000000000000000000000000000000000000000000000815260040160405180910390fd5b5f83118015610ee75750828210155b610f1d576040517fd5b25b6300000000000000000000000000000000000000000000000000000000815260040160405180910390fd5b7ffa2183a4b9e35594495ef24f5060c5bba566c21a062a2b524b653f03c859a700835b838111610f7157610f538288888461290a565b610f5d90846149b6565b925080610f69816149c9565b915050610f40565b5050949350505050565b5f6001600160a01b038616610fbc576040517fd92e233d00000000000000000000000000000000000000000000000000000000815260040160405180910390fd5b5f83118015610fcb5750828210155b611001576040517fd5b25b6300000000000000000000000000000000000000000000000000000000815260040160405180910390fd5b335f8181527f11408c214e50776f0f6e546bf3b89e7953bf3ba3b172efa6ff1ba292b2d1b3b260205260409020547ffa2183a4b9e35594495ef24f5060c5bba566c21a062a2b524b653f03c859a700919060ff16855b85811161108b5761106d848b8b8b858888612c02565b61107790866149b6565b945080611083816149c9565b915050611057565b5050505095945050505050565b6001600160a01b03811633146110da576040517f6697b23200000000000000000000000000000000000000000000000000000000815260040160405180910390fd5b6110e48282612d4f565b505050565b6110f1612d9b565b6110fa82612e6d565b6111048282612e77565b5050565b5f611111612f78565b507f360894a13ba1a3210667c828492db98dca3e2076cc3735a920a3ca505d382bbc90565b6040517f70a082310000000000000000000000000000000000000000000000000000000081523060048201525f907f00000000000000000000000000000000000000000000000000000000000000006001600160a01b0316906370a0823190602401602060405180830381865afa1580156111b3573d5f5f3e3d5ffd5b505050506040513d601f19601f820116820180604052508101906111d79190614972565b905090565b5f6111e68161286e565b6001600160a01b038416611226576040517fd92e233d00000000000000000000000000000000000000000000000000000000815260040160405180910390fd5b6001600160a01b038316611266576040517fd92e233d00000000000000000000000000000000000000000000000000000000815260040160405180910390fd5b6040517f53c6fdd00000000000000000000000000000000000000000000000000000000081526001600160a01b038581166004830152848116602483015283151560448301527f000000000000000000000000000000000000000000000000000000000000000016906353c6fdd0906064015f604051808303815f87803b1580156112ef575f5ffd5b505af1158015611301573d5f5f3e3d5ffd5b5050505050505050565b5f7f00000000000000000000000000000000000000000000000000000000000000006001600160a01b031663900cf0cf6040518163ffffffff1660e01b8152600401602060405180830381865afa1580156111b3573d5f5f3e3d5ffd5b5f7f46a52cf33029de9f84853745a87af28464c80bf0346df1b32e205fc73319f6226113938161286e565b6001600160a01b0383166113d3576040517fd92e233d00000000000000000000000000000000000000000000000000000000815260040160405180910390fd5b5f841161140c576040517fd5b25b6300000000000000000000000000000000000000000000000000000000815260040160405180910390fd5b6001600160a01b0383165f9081527ffa2183a4b9e35594495ef24f5060c5bba566c21a062a2b524b653f03c859a70060208181526040808420888552909152909120600281015460ff161561148d576040517f3366263c00000000000000000000000000000000000000000000000000000000815260040160405180910390fd5b6001600160a01b0385165f9081526002830160205260409020546114b28160016149b6565b8714806114bd575080155b6114f3576040517fd5b25b6300000000000000000000000000000000000000000000000000000000815260040160405180910390fd5b6040517f6f5e290f000000000000000000000000000000000000000000000000000000008152600481018890525f907f00000000000000000000000000000000000000000000000000000000000000006001600160a01b031690636f5e290f90602401602060405180830381865afa158015611571573d5f5f3e3d5ffd5b505050506040513d601f19601f820116820180604052508101906115959190614a00565b90505f6001600160a01b037f000000000000000000000000000000000000000000000000000000000000000016636f5e290f6115d28b60016149b6565b6040518263ffffffff1660e01b81526004016115f091815260200190565b602060405180830381865afa15801561160b573d5f5f3e3d5ffd5b505050506040513d601f19601f8201168201806040525081019061162f9190614a00565b6040805160018082528183019092529192505f91906020808301908036833701905050905088815f815181106116675761166761491b565b6001600160a01b0392831660209182029290920101526040517f3f2a33f90000000000000000000000000000000000000000000000000000000081527f000000000000000000000000000000000000000000000000000000000000000090911690633f2a33f9906116de9084903090600401614948565b6020604051808303815f875af11580156116fa573d5f5f3e3d5ffd5b505050506040513d601f19601f8201168201806040525081019061171e9190614972565b97505f8811611759576040517f3fb087f400000000000000000000000000000000000000000000000000000000815260040160405180910390fd5b6040517f2cba54da0000000000000000000000000000000000000000000000000000000081526001600160a01b038a8116600483015265ffffffffffff8086166024840152841660448301525f917f000000000000000000000000000000000000000000000000000000000000000090911690632cba54da90606401602060405180830381865afa1580156117f0573d5f5f3e3d5ffd5b505050506040513d601f19601f820116820180604052508101906118149190614972565b90505f811161184f576040517f3fb087f400000000000000000000000000000000000000000000000000000000815260040160405180910390fd5b8886556001808701829055600280880180547fffffffffffffffffffffffffffffffffffffffffffffffffffffffffffffff00169092179091556001600160a01b038b165f81815291890160209081526040928390208e905582518c815290810184905290918d917fcad4bb3e722125ec372957e194e1fcbb73b8286b53632f18284e589d84f33bb6910160405180910390a3505050505050505092915050565b5f6001600160a01b038416611931576040517fd92e233d00000000000000000000000000000000000000000000000000000000815260040160405180910390fd5b5f831180156119405750828210155b611976576040517fd5b25b6300000000000000000000000000000000000000000000000000000000815260040160405180910390fd5b337ffa2183a4b9e35594495ef24f5060c5bba566c21a062a2b524b653f03c859a700845b848111611a1b575f6119ad83898461287b565b90506119b98185612fda565b6119ef576040517f65ec05a200000000000000000000000000000000000000000000000000000000815260040160405180910390fd5b6119fb83838a8761303a565b611a0590866149b6565b9450508080611a13906149c9565b91505061199a565b508215611a4d57611a4d7f00000000000000000000000000000000000000000000000000000000000000008385613391565b50509392505050565b5f8281527fc1f6fe24621ce81ec5827caf0253cadb74709b061630e6b55e82371705932000602081905260408220611a8e90846133e4565b949350505050565b6001600160a01b038281165f9081527ffa2183a4b9e35594495ef24f5060c5bba566c21a062a2b524b653f03c859a701602090815260408083209385168352928152828220868352905220545b9392505050565b6040805160a08101825260608082525f6020808401829052838501829052918301819052608083018190526001600160a01b03861681527ffa2183a4b9e35594495ef24f5060c5bba566c21a062a2b524b653f03c859a70382528381208582528252839020805484518184028101840190955280855292937ffa2183a4b9e35594495ef24f5060c5bba566c21a062a2b524b653f03c859a70093919290918391830182828015610dca57602002820191905f5260205f209081546001600160a01b03168152600190910190602001808311610dac57505050918552505060018101546001600160a01b03908116602085015260028201548116604085015260038201541660608401526004015460808301525092915050565b5f8181527fc1f6fe24621ce81ec5827caf0253cadb74709b061630e6b55e823717059320006020819052604090912060609190611ae3906133ef565b5f611c498161286e565b878614611c82576040517fff633a3800000000000000000000000000000000000000000000000000000000815260040160405180910390fd5b878414611cbb576040517fff633a3800000000000000000000000000000000000000000000000000000000815260040160405180910390fd5b878214611cf4576040517fff633a3800000000000000000000000000000000000000000000000000000000815260040160405180910390fd5b7ffa2183a4b9e35594495ef24f5060c5bba566c21a062a2b524b653f03c859a700805f5b8a811015612022575f8c8c83818110611d3357611d3361491b565b9050602002016020810190611d4891906142c4565b90505f8b8b84818110611d5d57611d5d61491b565b9050602002016020810190611d7291906142c4565b90505f8a8a85818110611d8757611d8761491b565b9050602002016020810190611d9c91906142c4565b90505f898986818110611db157611db161491b565b9050602002016020810190611dc691906142c4565b6001600160a01b0385165f9081526004890160205260409020805491925090611e1b576040517fa88e39ff00000000000000000000000000000000000000000000000000000000815260040160405180910390fd5b5f5b8154811015612010575f828281548110611e3957611e3961491b565b5f9182526020808320909101546001600160a01b038a16835260038d018252604080842082855283528084208054825181860281018601909352808352929550939290918491830182828015611eb657602002820191905f5260205f20905b81546001600160a01b03168152600190910190602001808311611e98575b505050505090505f8b6003015f8b6001600160a01b03166001600160a01b031681526020019081526020015f205f8581526020019081526020015f20905088816001015f6101000a8154816001600160a01b0302191690836001600160a01b0316021790555087816002015f6101000a8154816001600160a01b0302191690836001600160a01b0316021790555086816003015f6101000a8154816001600160a01b0302191690836001600160a01b031602179055505f8160040181905550805f015f611f839190614233565b5f5b8251811015611fff57815f01838281518110611fa357611fa361491b565b6020908102919091018101518254600180820185555f9485529290932090920180547fffffffffffffffffffffffff0000000000000000000000000000000000000000166001600160a01b039093169290921790915501611f85565b505060019093019250611e1d915050565b505060019094019350611d1892505050565b505050505050505050505050565b604051806060016040528060288152602001614d7b6028913981565b7ff0c57e16840df040f15088dc2f81fe391c3923bec73e23a9662efc9c229c6a00805468010000000000000000810460ff16159067ffffffffffffffff165f811580156120965750825b90505f8267ffffffffffffffff1660011480156120b25750303b155b9050811580156120c0575080155b156120f7576040517ff92ee8a900000000000000000000000000000000000000000000000000000000815260040160405180910390fd5b84547fffffffffffffffffffffffffffffffffffffffffffffffff000000000000000016600117855583156121585784547fffffffffffffffffffffffffffffffffffffffffffffff00ffffffffffffffff16680100000000000000001785555b6001600160a01b038616612198576040517fd92e233d00000000000000000000000000000000000000000000000000000000815260040160405180910390fd5b6121a06133fb565b6121a86133fb565b6121b25f876128b5565b5083156122145784547fffffffffffffffffffffffffffffffffffffffffffffff00ffffffffffffffff168555604051600181527fc7f505b2f371ae2175ee4913f4499e1f2633a7b5936321eed1cdaeb6115181d29060200160405180910390a15b505050505050565b5f8181527fc1f6fe24621ce81ec5827caf0253cadb74709b061630e6b55e82371705932000602081905260408220611ae390613403565b5f8281527f02dd7bc7dec4dceedda775e58dd541e08a116c6c53815c0bd028192f7b626800602052604090206001015461228c8161286e565b610e518383612d4f565b6001600160a01b0383165f9081527ffa2183a4b9e35594495ef24f5060c5bba566c21a062a2b524b653f03c859a7046020526040902080546060919080851061230e575f5b604051908082528060200260200182016040528015612304578160200160208202803683370190505b5092505050611ae3565b8084111561231a578093505b848411612327575f6122db565b5f6123328686614a25565b90508067ffffffffffffffff81111561234d5761234d6144e5565b604051908082528060200260200182016040528015612376578160200160208202803683370190505b5093505f5b818110156123cc578361238e82896149b6565b8154811061239e5761239e61491b565b905f5260205f2001548582815181106123b9576123b961491b565b602090810291909101015260010161237b565b505050509392505050565b6001600160a01b038316612417576040517fd92e233d00000000000000000000000000000000000000000000000000000000815260040160405180910390fd5b6080810135612710811115612464576040517f7c27fae200000000000000000000000000000000000000000000000000000000815260040161245b91815260200190565b60405180910390fd5b507ffa2183a4b9e35594495ef24f5060c5bba566c21a062a2b524b653f03c859a70061249181858561340c565b6001600160a01b0384165f908152600482016020526040902080541561254d57805481906124c190600190614a25565b815481106124d1576124d161491b565b905f5260205f2001548410158482600184805490506124f09190614a25565b815481106125005761250061491b565b905f5260205f200154909161254a576040517f84122f380000000000000000000000000000000000000000000000000000000081526004810192909252602482015260440161245b565b50505b6001600160a01b0385165f908152600383016020908152604080832087845282529182902091612582919086019086016142c4565b6001820180547fffffffffffffffffffffffff0000000000000000000000000000000000000000166001600160a01b03929092169190911790556125cc60608501604086016142c4565b6002820180547fffffffffffffffffffffffff0000000000000000000000000000000000000000166001600160a01b039290921691909117905561261660808501606086016142c4565b6003820180547fffffffffffffffffffffffff0000000000000000000000000000000000000000166001600160a01b039290921691909117905560808401356004820155612664815f614233565b5f5b6126708580614a38565b90508110156126f857816126848680614a38565b838181106126945761269461491b565b90506020020160208101906126a991906142c4565b8154600180820184555f93845260209093200180547fffffffffffffffffffffffff0000000000000000000000000000000000000000166001600160a01b039290921691909117905501612666565b5081541580612730575081548590839061271490600190614a25565b815481106127245761272461491b565b905f5260205f20015414155b1561274a5781546001810183555f83815260209020018590555b84866001600160a01b03167ffa86f71fb405a4f3c8fe0b059720aad6817a4c3fd9ef40267d349ebf42d5c447866040516127849190614ada565b60405180910390a3505050505050565b5f7ffa2183a4b9e35594495ef24f5060c5bba566c21a062a2b524b653f03c859a700816127c282878661287b565b90506127ce8186612fda565b9695505050505050565b5f7fffffffff0000000000000000000000000000000000000000000000000000000082167f7965db0b000000000000000000000000000000000000000000000000000000001480610b4057507f01ffc9a7000000000000000000000000000000000000000000000000000000007fffffffff00000000000000000000000000000000000000000000000000000000831614610b40565b6128788133613568565b50565b5f5f6128888585856135f4565b6001600160a01b0385165f9081526003870160209081526040808320938352929052209150509392505050565b5f7fc1f6fe24621ce81ec5827caf0253cadb74709b061630e6b55e82371705932000816128e28585613694565b90508015611a8e575f858152602083905260409020612901908561377e565b50949350505050565b6001600160a01b038084165f908152600186016020908152604080832093861683529281528282208483529052908120541561294757505f611a8e565b5f7f00000000000000000000000000000000000000000000000000000000000000006001600160a01b03166390aaa0467f00000000000000000000000000000000000000000000000000000000000000006001600160a01b0316636f5e290f866040518263ffffffff1660e01b81526004016129c591815260200190565b602060405180830381865afa1580156129e0573d5f5f3e3d5ffd5b505050506040513d601f19601f82011682018060405250810190612a049190614a00565b6001600160a01b037f000000000000000000000000000000000000000000000000000000000000000016636f5e290f612a3e8860016149b6565b6040518263ffffffff1660e01b8152600401612a5c91815260200190565b602060405180830381865afa158015612a77573d5f5f3e3d5ffd5b505050506040513d601f19601f82011682018060405250810190612a9b9190614a00565b6040517fffffffff0000000000000000000000000000000000000000000000000000000060e085901b16815265ffffffffffff9283166004820152911660248201526001600160a01b03808916604483015287166064820152608401602060405180830381865afa158015612b12573d5f5f3e3d5ffd5b505050506040513d601f19601f82011682018060405250810190612b369190614972565b9050805f03612b48575f915050611a8e565b6001600160a01b0385165f908152602087815260408083208684529091529020600281015460ff16612b7e575f92505050611a8e565b5f612b91825f0154848460010154613792565b90505f612b9f89898861287b565b9050612bab8188612fda565b15612bf65760038101546001600160a01b031615801590612bcf57505f8160040154115b15612bf6575f612be6838360040154612710613792565b9050612bf28184614a25565b9250505b50979650505050505050565b5f5f612c0f89898761287b565b90508280612c2c575060018101546001600160a01b038581169116145b80612c46575060028101546001600160a01b038581169116145b612c7c576040517f82b4290000000000000000000000000000000000000000000000000000000000815260040160405180910390fd5b60028101546001600160a01b03165f5b87811015612d1057612cc4838a8a84818110612caa57612caa61491b565b9050602002016020810190612cbf91906142c4565b612fda565b612d0857612cfb8b888c8c8c86818110612ce057612ce061491b565b9050602002016020810190612cf591906142c4565b8661383f565b612d0590856149b6565b93505b600101612c8c565b508215612d4257612d427f00000000000000000000000000000000000000000000000000000000000000008285613391565b5050979650505050505050565b5f7fc1f6fe24621ce81ec5827caf0253cadb74709b061630e6b55e8237170593200081612d7c8585613b66565b90508015611a8e575f8581526020839052604090206129019085613c28565b306001600160a01b037f0000000000000000000000000000000000000000000000000000000000000000161480612e3457507f00000000000000000000000000000000000000000000000000000000000000006001600160a01b0316612e287f360894a13ba1a3210667c828492db98dca3e2076cc3735a920a3ca505d382bbc546001600160a01b031690565b6001600160a01b031614155b15612e6b576040517fe07c8dba00000000000000000000000000000000000000000000000000000000815260040160405180910390fd5b565b5f6111048161286e565b816001600160a01b03166352d1902d6040518163ffffffff1660e01b8152600401602060405180830381865afa925050508015612ed1575060408051601f3d908101601f19168201909252612ece91810190614972565b60015b612f12576040517f4c9c8ce30000000000000000000000000000000000000000000000000000000081526001600160a01b038316600482015260240161245b565b7f360894a13ba1a3210667c828492db98dca3e2076cc3735a920a3ca505d382bbc8114612f6e576040517faa1d49a40000000000000000000000000000000000000000000000000000000081526004810182905260240161245b565b6110e48383613c3c565b306001600160a01b037f00000000000000000000000000000000000000000000000000000000000000001614612e6b576040517fe07c8dba00000000000000000000000000000000000000000000000000000000815260040160405180910390fd5b81545f90815b8181101561303057836001600160a01b03168582815481106130045761300461491b565b5f918252602090912001546001600160a01b03160361302857600192505050610b40565b600101612fe0565b505f949350505050565b6001600160a01b0382165f9081526020858152604080832086845290915281206002015460ff16158061309a57506001600160a01b038084165f908152600187016020908152604080832093861683529281528282208783529052205415155b156130a657505f611a8e565b5f7f00000000000000000000000000000000000000000000000000000000000000006001600160a01b03166390aaa0467f00000000000000000000000000000000000000000000000000000000000000006001600160a01b0316636f5e290f886040518263ffffffff1660e01b815260040161312491815260200190565b602060405180830381865afa15801561313f573d5f5f3e3d5ffd5b505050506040513d601f19601f820116820180604052508101906131639190614a00565b6001600160a01b037f000000000000000000000000000000000000000000000000000000000000000016636f5e290f61319d8a60016149b6565b6040518263ffffffff1660e01b81526004016131bb91815260200190565b602060405180830381865afa1580156131d6573d5f5f3e3d5ffd5b505050506040513d601f19601f820116820180604052508101906131fa9190614a00565b6040517fffffffff0000000000000000000000000000000000000000000000000000000060e085901b16815265ffffffffffff9283166004820152911660248201526001600160a01b03808816604483015286166064820152608401602060405180830381865afa158015613271573d5f5f3e3d5ffd5b505050506040513d601f19601f820116820180604052508101906132959190614972565b9050805f036132a7575f915050611a8e565b6001600160a01b0384165f908152602087815260408083208884529091528120805460018201546132da91908590613792565b9350839150508015610f71576001600160a01b038086165f908152600189016020908152604080832093881683529281528282208983529052208190556133248786888785613c91565b61332e9084614a25565b9250836001600160a01b0316856001600160a01b0316877f39b62d670bf3a6b5e9b4bfd6dca9494ee4923d64014b74bbf4a13f5b09d5903a858760405161337f929190918252602082015260400190565b60405180910390a45050949350505050565b81601452806034526fa9059cbb0000000000000000000000005f5260205f604460105f875af18060015f5114166133da57803d853b1517106133da576390b8ec185f526004601cfd5b505f603452505050565b5f611ae38383613d57565b60605f611ae383613d7d565b612e6b613dd6565b5f610b40825490565b335f9081527fb7db2dd08fcb62d0c9e08c51941cae53c267786a0b75803fb7960902fc8ef97d602052604090205460ff161561344757505050565b5f61345384848461287b565b6001810154909150336001600160a01b03909116036134725750505050565b6040517f4f1811dd0000000000000000000000000000000000000000000000000000000081526001600160a01b0384811660048301525f917f000000000000000000000000000000000000000000000000000000000000000090911690634f1811dd906024015f60405180830381865afa1580156134f2573d5f5f3e3d5ffd5b505050506040513d5f823e601f3d908101601f191682016040526135199190810190614c16565b604001519050336001600160a01b03821603613536575050505050565b6040517f82b4290000000000000000000000000000000000000000000000000000000000815260040160405180910390fd5b5f8281527f02dd7bc7dec4dceedda775e58dd541e08a116c6c53815c0bd028192f7b626800602090815260408083206001600160a01b038516845290915290205460ff16611104576040517fe2517d3f0000000000000000000000000000000000000000000000000000000081526001600160a01b03821660048201526024810183905260440161245b565b6001600160a01b0382165f90815260048401602052604081208054820361361e575f915050611ae3565b82815f815481106136315761363161491b565b905f5260205f2001541115613649575f915050611ae3565b5f613655868686613e3d565b90505f8111613664575f6127ce565b81613670600183614a25565b815481106136805761368061491b565b905f5260205f200154925050509392505050565b5f8281527f02dd7bc7dec4dceedda775e58dd541e08a116c6c53815c0bd028192f7b626800602081815260408084206001600160a01b038616855290915282205460ff16613775575f848152602082815260408083206001600160a01b0387168452909152902080547fffffffffffffffffffffffffffffffffffffffffffffffffffffffffffffff0016600117905561372b3390565b6001600160a01b0316836001600160a01b0316857f2f8788117e7eff1d82e926ec794901d17c78024a50270940304540a733656f0d60405160405180910390a46001915050610b40565b5f915050610b40565b5f611ae3836001600160a01b038416613ef4565b82820281838583041485151702613838577fffffffffffffffffffffffffffffffffffffffffffffffffffffffffffffffff8385098181108201900382848609835f0384168285116137eb5763ae47f7025f526004601cfd5b93849004938382119092035f839003839004600101029203041760026003830281188084028203028084028203028084028203028084028203028084028203028084029091030202611ae3565b0492915050565b6001600160a01b0383165f9081526020868152604080832087845290915281206002015460ff16158061389f57506001600160a01b038085165f908152600188016020908152604080832093871683529281528282208883529052205415155b156138ab57505f613b5d565b5f7f00000000000000000000000000000000000000000000000000000000000000006001600160a01b03166390aaa0467f00000000000000000000000000000000000000000000000000000000000000006001600160a01b0316636f5e290f896040518263ffffffff1660e01b815260040161392991815260200190565b602060405180830381865afa158015613944573d5f5f3e3d5ffd5b505050506040513d601f19601f820116820180604052508101906139689190614a00565b6001600160a01b037f000000000000000000000000000000000000000000000000000000000000000016636f5e290f6139a28b60016149b6565b6040518263ffffffff1660e01b81526004016139c091815260200190565b602060405180830381865afa1580156139db573d5f5f3e3d5ffd5b505050506040513d601f19601f820116820180604052508101906139ff9190614a00565b6040517fffffffff0000000000000000000000000000000000000000000000000000000060e085901b16815265ffffffffffff9283166004820152911660248201526001600160a01b03808916604483015287166064820152608401602060405180830381865afa158015613a76573d5f5f3e3d5ffd5b505050506040513d601f19601f82011682018060405250810190613a9a9190614972565b9050805f03613aac575f915050613b5d565b6001600160a01b0385165f90815260208881526040808320898452909152902080546001820154613adf91908490613792565b92508215613b5a576001600160a01b038681165f81815260018b01602090815260408083208a86168085529083528184208d85528352928190208890558051948916855290840187905290928a917f6045ec4f4247b5f3ff7e8f3aabc36ed34dceb2a6379ed41d70e47d70af8eaf2391015b60405180910390a45b50505b95945050505050565b5f8281527f02dd7bc7dec4dceedda775e58dd541e08a116c6c53815c0bd028192f7b626800602081815260408084206001600160a01b038616855290915282205460ff1615613775575f848152602082815260408083206001600160a01b038716808552925280832080547fffffffffffffffffffffffffffffffffffffffffffffffffffffffffffffff0016905551339287917ff6391f5c32d9c69d2a47ea670b442974b53935d1edc7fd64eb21e047a839171b9190a46001915050610b40565b5f611ae3836001600160a01b038416613f40565b613c458261401a565b6040516001600160a01b038316907fbc7cd75a20ee27fd9adebab32041f755214dbc6bffa90cc0225b39da2e5c2d3b905f90a2805115613c89576110e482826140c1565b61110461412a565b5f5f613c9e87878761287b565b60038101549091506001600160a01b0316801580613cbe57506004820154155b15613ccd575f92505050613b5d565b613cde848360040154612710613792565b92508215613b5a57613d117f00000000000000000000000000000000000000000000000000000000000000008285613391565b846001600160a01b0316876001600160a01b0316877f79cfc57d040b454ad547f083baab4ce4b8753705a4836381e8d2f874e9f1e7b586604051613b5191815260200190565b5f825f018281548110613d6c57613d6c61491b565b905f5260205f200154905092915050565b6060815f01805480602002602001604051908101604052809291908181526020018280548015613dca57602002820191905f5260205f20905b815481526020019060010190808311613db6575b50505050509050919050565b7ff0c57e16840df040f15088dc2f81fe391c3923bec73e23a9662efc9c229c6a005468010000000000000000900460ff16612e6b576040517fd7e6bcf800000000000000000000000000000000000000000000000000000000815260040160405180910390fd5b6001600160a01b0382165f908152600484016020526040812080548203613e67575f915050611ae3565b82815f81548110613e7a57613e7a61491b565b905f5260205f2001541115613e92575f915050611ae3565b80545f905b80821015613eea575f613eaa8383614162565b905085848281548110613ebf57613ebf61491b565b905f5260205f2001541115613ed657809150613ee4565b613ee18160016149b6565b92505b50613e97565b5095945050505050565b5f818152600183016020526040812054613f3957508154600181810184555f848152602080822090930184905584548482528286019093526040902091909155610b40565b505f610b40565b5f8181526001830160205260408120548015613775575f613f62600183614a25565b85549091505f90613f7590600190614a25565b9050808214613fd4575f865f018281548110613f9357613f9361491b565b905f5260205f200154905080875f018481548110613fb357613fb361491b565b5f918252602080832090910192909255918252600188019052604090208390555b8554869080613fe557613fe5614cff565b600190038181905f5260205f20015f90559055856001015f8681526020019081526020015f205f905560019350505050610b40565b806001600160a01b03163b5f03614068576040517f4c9c8ce30000000000000000000000000000000000000000000000000000000081526001600160a01b038216600482015260240161245b565b7f360894a13ba1a3210667c828492db98dca3e2076cc3735a920a3ca505d382bbc80547fffffffffffffffffffffffff0000000000000000000000000000000000000000166001600160a01b0392909216919091179055565b60605f5f846001600160a01b0316846040516140dd9190614d2c565b5f60405180830381855af49150503d805f8114614115576040519150601f19603f3d011682016040523d82523d5f602084013e61411a565b606091505b5091509150613b5d85838361417c565b3415612e6b576040517fb398979f00000000000000000000000000000000000000000000000000000000815260040160405180910390fd5b5f6141706002848418614d42565b611ae3908484166149b6565b6060826141915761418c826141f1565b611ae3565b81511580156141a857506001600160a01b0384163b155b156141ea576040517f9996b3150000000000000000000000000000000000000000000000000000000081526001600160a01b038516600482015260240161245b565b5080611ae3565b8051156142015780518082602001fd5b6040517fd6bda27500000000000000000000000000000000000000000000000000000000815260040160405180910390fd5b5080545f8255905f5260205f209081019061287891905b8082111561425d575f815560010161424a565b5090565b5f60208284031215614271575f5ffd5b81357fffffffff0000000000000000000000000000000000000000000000000000000081168114611ae3575f5ffd5b6001600160a01b0381168114612878575f5ffd5b80356142bf816142a0565b919050565b5f602082840312156142d4575f5ffd5b8135611ae3816142a0565b5f602082840312156142ef575f5ffd5b5035919050565b5f5f60408385031215614307575f5ffd5b8235614312816142a0565b946020939093013593505050565b6020808252825160a083830152805160c084018190525f929190910190829060e08501905b80831015614371576001600160a01b038451168252602082019150602084019350600183019250614345565b5060208601516001600160a01b0381166040870152925060408601516001600160a01b0381166060870152925060608601516001600160a01b03811660808701529250608086015160a086015280935050505092915050565b5f5f604083850312156143db575f5ffd5b8235915060208301356143ed816142a0565b809150509250929050565b5f5f5f5f6080858703121561440b575f5ffd5b8435614416816142a0565b93506020850135614426816142a0565b93969395505050506040820135916060013590565b5f5f83601f84011261444b575f5ffd5b50813567ffffffffffffffff811115614462575f5ffd5b6020830191508360208260051b850101111561447c575f5ffd5b9250929050565b5f5f5f5f5f60808688031215614497575f5ffd5b85356144a2816142a0565b9450602086013567ffffffffffffffff8111156144bd575f5ffd5b6144c98882890161443b565b9699909850959660408101359660609091013595509350505050565b7f4e487b71000000000000000000000000000000000000000000000000000000005f52604160045260245ffd5b604051610100810167ffffffffffffffff81118282101715614536576145366144e5565b60405290565b604051601f8201601f1916810167ffffffffffffffff81118282101715614565576145656144e5565b604052919050565b5f67ffffffffffffffff821115614586576145866144e5565b50601f01601f191660200190565b5f5f604083850312156145a5575f5ffd5b82356145b0816142a0565b9150602083013567ffffffffffffffff8111156145cb575f5ffd5b8301601f810185136145db575f5ffd5b80356145ee6145e98261456d565b61453c565b818152866020838501011115614602575f5ffd5b816020840160208301375f602083830101528093505050509250929050565b5f5f5f60608486031215614633575f5ffd5b833561463e816142a0565b9250602084013561464e816142a0565b915060408401358015158114614662575f5ffd5b809150509250925092565b5f5f5f6060848603121561467f575f5ffd5b833561468a816142a0565b95602085013595506040909401359392505050565b5f5f604083850312156146b0575f5ffd5b50508035926020909101359150565b5f5f5f606084860312156146d1575f5ffd5b8335925060208401356146e3816142a0565b91506040840135614662816142a0565b5f8151808452602084019350602083015f5b8281101561472c5781516001600160a01b0316865260209586019590910190600101614705565b5093949350505050565b602081525f611ae360208301846146f3565b602081525f82518060208401528060208501604085015e5f604082850101526040601f19601f83011684010191505092915050565b5f5f5f5f5f5f5f5f6080898b031215614794575f5ffd5b883567ffffffffffffffff8111156147aa575f5ffd5b6147b68b828c0161443b565b909950975050602089013567ffffffffffffffff8111156147d5575f5ffd5b6147e18b828c0161443b565b909750955050604089013567ffffffffffffffff811115614800575f5ffd5b61480c8b828c0161443b565b909550935050606089013567ffffffffffffffff81111561482b575f5ffd5b6148378b828c0161443b565b999c989b5096995094979396929594505050565b602080825282518282018190525f918401906040840190835b81811015614882578351835260209384019390920191600101614864565b509095945050505050565b5f5f5f6060848603121561489f575f5ffd5b83356148aa816142a0565b925060208401359150604084013567ffffffffffffffff8111156148cc575f5ffd5b840160a08187031215614662575f5ffd5b5f5f5f606084860312156148ef575f5ffd5b83356148fa816142a0565b9250602084013561490a816142a0565b929592945050506040919091013590565b7f4e487b71000000000000000000000000000000000000000000000000000000005f52603260045260245ffd5b604081525f61495a60408301856146f3565b90506001600160a01b03831660208301529392505050565b5f60208284031215614982575f5ffd5b5051919050565b7f4e487b71000000000000000000000000000000000000000000000000000000005f52601160045260245ffd5b80820180821115610b4057610b40614989565b5f7fffffffffffffffffffffffffffffffffffffffffffffffffffffffffffffffff82036149f9576149f9614989565b5060010190565b5f60208284031215614a10575f5ffd5b815165ffffffffffff81168114611ae3575f5ffd5b81810381811115610b4057610b40614989565b5f5f83357fffffffffffffffffffffffffffffffffffffffffffffffffffffffffffffffe1843603018112614a6b575f5ffd5b83018035915067ffffffffffffffff821115614a85575f5ffd5b6020019150600581901b360382131561447c575f5ffd5b8183526020830192505f815f5b8481101561472c578135614abc816142a0565b6001600160a01b031686526020958601959190910190600101614aa9565b602081525f82357fffffffffffffffffffffffffffffffffffffffffffffffffffffffffffffffe1843603018112614b10575f5ffd5b830160208101903567ffffffffffffffff811115614b2c575f5ffd5b8060051b3603821315614b3d575f5ffd5b60a06020850152614b5260c085018284614a9c565b915050614b61602085016142b4565b6001600160a01b038116604085015250614b7d604085016142b4565b6001600160a01b038116606085015250614b99606085016142b4565b6001600160a01b0381166080850152506080939093013560a092909201919091525090565b80516142bf816142a0565b5f82601f830112614bd8575f5ffd5b8151614be66145e98261456d565b818152846020838601011115614bfa575f5ffd5b8160208501602083015e5f918101602001919091529392505050565b5f60208284031215614c26575f5ffd5b815167ffffffffffffffff811115614c3c575f5ffd5b82016101008185031215614c4e575f5ffd5b614c56614512565b614c5f82614bbe565b8152602082015167ffffffffffffffff811115614c7a575f5ffd5b614c8686828501614bc9565b602083015250614c9860408301614bbe565b6040820152614ca960608301614bbe565b60608201526080828101519082015260a0808301519082015260c0808301519082015260e082015167ffffffffffffffff811115614ce5575f5ffd5b614cf186828501614bc9565b60e083015250949350505050565b7f4e487b71000000000000000000000000000000000000000000000000000000005f52603160045260245ffd5b5f82518060208501845e5f920191825250919050565b5f82614d75577f4e487b71000000000000000000000000000000000000000000000000000000005f52601260045260245ffd5b50049056fe39646238303131386136386437313335353866316535613933663263306665653835616435376539a2646970667358221220a54d033398214f951908eb4d98346f1f4124f39770a94b0e59df8ea9d244bdda64736f6c634300081d0033","linkReferences":{}},"methodIdentifiers":{"COLLATERAL_ORACLE()":"7a79bd5c","DEFAULT_ADMIN_ROLE()":"a217fddf","EPOCH_FEEDER()":"f3adae77","GIT_COMMIT()":"b8a15e3a","GIT_TAG()":"b175eb4d","GMITO()":"dd6b6456","GM_MITO()":"3bed90ce","OPERATOR_ROLE()":"f5b541a6","REWARD_DISTRIBUTOR()":"8de728e4","UPGRADE_INTERFACE_VERSION()":"ad3cb1cc","VALIDATOR_MANAGER()":"ae9483e0","WMITO()":"b919ba1a","claimForNonTargets(address,address[],uint256,uint256)":"3653d27f","claimRewards(address,uint256,uint256)":"7ca35209","currentEpoch()":"76671808","distributeRewards(address)":"1de9d9b6","finalizeEpoch(uint256,address)":"7c8cca36","getApplicableConfig(address,uint256)":"262dd9fe","getClaimableRewards(address,address,uint256,uint256)":"3075fe4e","getConfigEpochsCount(address)":"1e9ca6e8","getConfigEpochsRange(address,uint256,uint256)":"d9abb433","getDistributionConfig(address,uint256)":"94bfd604","getEpochReward(uint256,address)":"fe1a6243","getLastFinalizedEpoch(address)":"9f4c271e","getRoleAdmin(bytes32)":"248a9ca3","getRoleMember(bytes32,uint256)":"9010d07c","getRoleMemberCount(bytes32)":"ca15c873","getRoleMembers(bytes32)":"a3246ad3","getVaultClaimed(uint256,address,address)":"93f37e44","gmMitoBalance()":"564cdf08","grantRole(bytes32,address)":"2f2ff15d","hasRole(bytes32,address)":"91d14854","initialize(address)":"c4d66de8","isTarget(address,address,uint256)":"fb1615c7","migrate(address[],address[],address[],address[])":"b3f74dca","proxiableUUID()":"52d1902d","renounceRole(bytes32,address)":"36568abe","revokeRole(bytes32,address)":"d547741f","setDistributionConfig(address,uint256,(address[],address,address,address,uint256))":"f47f0084","setOperatorClaimApproval(address,address,bool)":"5bdc8650","supportsInterface(bytes4)":"01ffc9a7","upgradeToAndCall(address,bytes)":"4f1ef286"},"id":119}