{"abi":[{"type":"constructor","inputs":[{"name":"wmito","type":"address","internalType":"address"},{"name":"gmMito","type":"address","internalType":"address"},{"name":"collateralOracle","type":"address","internalType":"address"},{"name":"epochFeeder","type":"address","internalType":"address"},{"name":"rewardDistributor","type":"address","internalType":"address"},{"name":"validatorManager","type":"address","internalType":"address"}],"stateMutability":"nonpayable"},{"type":"receive","stateMutability":"payable"},{"type":"function","name":"COLLATERAL_ORACLE","inputs":[],"outputs":[{"name":"","type":"address","internalType":"contract ICollateralOracleFeed"}],"stateMutability":"view"},{"type":"function","name":"DEFAULT_ADMIN_ROLE","inputs":[],"outputs":[{"name":"","type":"bytes32","internalType":"bytes32"}],"stateMutability":"view"},{"type":"function","name":"EPOCH_FEEDER","inputs":[],"outputs":[{"name":"","type":"address","internalType":"contract IEpochFeeder"}],"stateMutability":"view"},{"type":"function","name":"GIT_COMMIT","inputs":[],"outputs":[{"name":"","type":"string","internalType":"string"}],"stateMutability":"view"},{"type":"function","name":"GIT_TAG","inputs":[],"outputs":[{"name":"","type":"string","internalType":"string"}],"stateMutability":"view"},{"type":"function","name":"GMITO","inputs":[],"outputs":[{"name":"","type":"address","internalType":"contract IGovMITO"}],"stateMutability":"view"},{"type":"function","name":"GM_MITO","inputs":[],"outputs":[{"name":"","type":"address","internalType":"contract IgmMITO"}],"stateMutability":"view"},{"type":"function","name":"OPERATOR_ROLE","inputs":[],"outputs":[{"name":"","type":"bytes32","internalType":"bytes32"}],"stateMutability":"view"},{"type":"function","name":"REWARD_DISTRIBUTOR","inputs":[],"outputs":[{"name":"","type":"address","internalType":"contract IValidatorRewardDistributor"}],"stateMutability":"view"},{"type":"function","name":"UPGRADE_INTERFACE_VERSION","inputs":[],"outputs":[{"name":"","type":"string","internalType":"string"}],"stateMutability":"view"},{"type":"function","name":"VALIDATOR_MANAGER","inputs":[],"outputs":[{"name":"","type":"address","internalType":"contract IValidatorManager"}],"stateMutability":"view"},{"type":"function","name":"WMITO","inputs":[],"outputs":[{"name":"","type":"address","internalType":"contract WETH"}],"stateMutability":"view"},{"type":"function","name":"claimForNonTargets","inputs":[{"name":"validator","type":"address","internalType":"address"},{"name":"vaults","type":"address[]","internalType":"address[]"},{"name":"fromEpoch","type":"uint256","internalType":"uint256"},{"name":"toEpoch","type":"uint256","internalType":"uint256"}],"outputs":[{"name":"totalClaimed","type":"uint256","internalType":"uint256"}],"stateMutability":"nonpayable"},{"type":"function","name":"claimRewards","inputs":[{"name":"validator","type":"address","internalType":"address"},{"name":"fromEpoch","type":"uint256","internalType":"uint256"},{"name":"toEpoch","type":"uint256","internalType":"uint256"}],"outputs":[{"name":"totalClaimed","type":"uint256","internalType":"uint256"}],"stateMutability":"nonpayable"},{"type":"function","name":"currentEpoch","inputs":[],"outputs":[{"name":"","type":"uint256","internalType":"uint256"}],"stateMutability":"view"},{"type":"function","name":"distributeRewards","inputs":[{"name":"validator","type":"address","internalType":"address"}],"outputs":[{"name":"gmMitoAmount","type":"uint256","internalType":"uint256"}],"stateMutability":"nonpayable"},{"type":"function","name":"finalizeEpoch","inputs":[{"name":"epoch","type":"uint256","internalType":"uint256"},{"name":"validator","type":"address","internalType":"address"}],"outputs":[{"name":"totalGmMito","type":"uint256","internalType":"uint256"}],"stateMutability":"nonpayable"},{"type":"function","name":"getApplicableConfig","inputs":[{"name":"validator","type":"address","internalType":"address"},{"name":"epoch","type":"uint256","internalType":"uint256"}],"outputs":[{"name":"config","type":"tuple","internalType":"struct IRewardRouter.DistributionConfig","components":[{"name":"targets","type":"address[]","internalType":"address[]"},{"name":"operator","type":"address","internalType":"address"},{"name":"defaultRecipient","type":"address","internalType":"address"},{"name":"feeRecipient","type":"address","internalType":"address"},{"name":"commissionRate","type":"uint256","internalType":"uint256"}]}],"stateMutability":"view"},{"type":"function","name":"getClaimableRewards","inputs":[{"name":"validator","type":"address","internalType":"address"},{"name":"vault","type":"address","internalType":"address"},{"name":"fromEpoch","type":"uint256","internalType":"uint256"},{"name":"toEpoch","type":"uint256","internalType":"uint256"}],"outputs":[{"name":"totalClaimable","type":"uint256","internalType":"uint256"}],"stateMutability":"view"},{"type":"function","name":"getConfigEpochsCount","inputs":[{"name":"validator","type":"address","internalType":"address"}],"outputs":[{"name":"","type":"uint256","internalType":"uint256"}],"stateMutability":"view"},{"type":"function","name":"getConfigEpochsRange","inputs":[{"name":"validator","type":"address","internalType":"address"},{"name":"startIndex","type":"uint256","internalType":"uint256"},{"name":"endIndex","type":"uint256","internalType":"uint256"}],"outputs":[{"name":"epochs","type":"uint256[]","internalType":"uint256[]"}],"stateMutability":"view"},{"type":"function","name":"getDistributionConfig","inputs":[{"name":"validator","type":"address","internalType":"address"},{"name":"epoch","type":"uint256","internalType":"uint256"}],"outputs":[{"name":"config","type":"tuple","internalType":"struct IRewardRouter.DistributionConfig","components":[{"name":"targets","type":"address[]","internalType":"address[]"},{"name":"operator","type":"address","internalType":"address"},{"name":"defaultRecipient","type":"address","internalType":"address"},{"name":"feeRecipient","type":"address","internalType":"address"},{"name":"commissionRate","type":"uint256","internalType":"uint256"}]}],"stateMutability":"view"},{"type":"function","name":"getEpochReward","inputs":[{"name":"epoch","type":"uint256","internalType":"uint256"},{"name":"validator","type":"address","internalType":"address"}],"outputs":[{"name":"totalGmMito","type":"uint256","internalType":"uint256"},{"name":"totalTWAB","type":"uint256","internalType":"uint256"},{"name":"finalized","type":"bool","internalType":"bool"}],"stateMutability":"view"},{"type":"function","name":"getLastFinalizedEpoch","inputs":[{"name":"validator","type":"address","internalType":"address"}],"outputs":[{"name":"","type":"uint256","internalType":"uint256"}],"stateMutability":"view"},{"type":"function","name":"getRoleAdmin","inputs":[{"name":"role","type":"bytes32","internalType":"bytes32"}],"outputs":[{"name":"","type":"bytes32","internalType":"bytes32"}],"stateMutability":"view"},{"type":"function","name":"getRoleMember","inputs":[{"name":"role","type":"bytes32","internalType":"bytes32"},{"name":"index","type":"uint256","internalType":"uint256"}],"outputs":[{"name":"","type":"address","internalType":"address"}],"stateMutability":"view"},{"type":"function","name":"getRoleMemberCount","inputs":[{"name":"role","type":"bytes32","internalType":"bytes32"}],"outputs":[{"name":"","type":"uint256","internalType":"uint256"}],"stateMutability":"view"},{"type":"function","name":"getRoleMembers","inputs":[{"name":"role","type":"bytes32","internalType":"bytes32"}],"outputs":[{"name":"","type":"address[]","internalType":"address[]"}],"stateMutability":"view"},{"type":"function","name":"getVaultClaimed","inputs":[{"name":"epoch","type":"uint256","internalType":"uint256"},{"name":"validator","type":"address","internalType":"address"},{"name":"vault","type":"address","internalType":"address"}],"outputs":[{"name":"","type":"uint256","internalType":"uint256"}],"stateMutability":"view"},{"type":"function","name":"gmMitoBalance","inputs":[],"outputs":[{"name":"","type":"uint256","internalType":"uint256"}],"stateMutability":"view"},{"type":"function","name":"grantRole","inputs":[{"name":"role","type":"bytes32","internalType":"bytes32"},{"name":"account","type":"address","internalType":"address"}],"outputs":[],"stateMutability":"nonpayable"},{"type":"function","name":"hasRole","inputs":[{"name":"role","type":"bytes32","internalType":"bytes32"},{"name":"account","type":"address","internalType":"address"}],"outputs":[{"name":"","type":"bool","internalType":"bool"}],"stateMutability":"view"},{"type":"function","name":"initialize","inputs":[{"name":"initialOwner","type":"address","internalType":"address"}],"outputs":[],"stateMutability":"nonpayable"},{"type":"function","name":"isTarget","inputs":[{"name":"validator","type":"address","internalType":"address"},{"name":"vault","type":"address","internalType":"address"},{"name":"epoch","type":"uint256","internalType":"uint256"}],"outputs":[{"name":"","type":"bool","internalType":"bool"}],"stateMutability":"view"},{"type":"function","name":"proxiableUUID","inputs":[],"outputs":[{"name":"","type":"bytes32","internalType":"bytes32"}],"stateMutability":"view"},{"type":"function","name":"renounceRole","inputs":[{"name":"role","type":"bytes32","internalType":"bytes32"},{"name":"callerConfirmation","type":"address","internalType":"address"}],"outputs":[],"stateMutability":"nonpayable"},{"type":"function","name":"revokeRole","inputs":[{"name":"role","type":"bytes32","internalType":"bytes32"},{"name":"account","type":"address","internalType":"address"}],"outputs":[],"stateMutability":"nonpayable"},{"type":"function","name":"setDistributionConfig","inputs":[{"name":"validator","type":"address","internalType":"address"},{"name":"startEpoch","type":"uint256","internalType":"uint256"},{"name":"config","type":"tuple","internalType":"struct IRewardRouter.DistributionConfig","components":[{"name":"targets","type":"address[]","internalType":"address[]"},{"name":"operator","type":"address","internalType":"address"},{"name":"defaultRecipient","type":"address","internalType":"address"},{"name":"feeRecipient","type":"address","internalType":"address"},{"name":"commissionRate","type":"uint256","internalType":"uint256"}]}],"outputs":[],"stateMutability":"nonpayable"},{"type":"function","name":"supportsInterface","inputs":[{"name":"interfaceId","type":"bytes4","internalType":"bytes4"}],"outputs":[{"name":"","type":"bool","internalType":"bool"}],"stateMutability":"view"},{"type":"function","name":"upgradeToAndCall","inputs":[{"name":"newImplementation","type":"address","internalType":"address"},{"name":"data","type":"bytes","internalType":"bytes"}],"outputs":[],"stateMutability":"payable"},{"type":"event","name":"DistributionConfigSet","inputs":[{"name":"validator","type":"address","indexed":true,"internalType":"address"},{"name":"startEpoch","type":"uint256","indexed":true,"internalType":"uint256"},{"name":"config","type":"tuple","indexed":false,"internalType":"struct IRewardRouter.DistributionConfig","components":[{"name":"targets","type":"address[]","internalType":"address[]"},{"name":"operator","type":"address","internalType":"address"},{"name":"defaultRecipient","type":"address","internalType":"address"},{"name":"feeRecipient","type":"address","internalType":"address"},{"name":"commissionRate","type":"uint256","internalType":"uint256"}]}],"anonymous":false},{"type":"event","name":"EpochRewardsFinalized","inputs":[{"name":"epoch","type":"uint256","indexed":true,"internalType":"uint256"},{"name":"validator","type":"address","indexed":true,"internalType":"address"},{"name":"totalGmMito","type":"uint256","indexed":false,"internalType":"uint256"},{"name":"totalTWAB","type":"uint256","indexed":false,"internalType":"uint256"}],"anonymous":false},{"type":"event","name":"FeeTaken","inputs":[{"name":"epoch","type":"uint256","indexed":true,"internalType":"uint256"},{"name":"validator","type":"address","indexed":true,"internalType":"address"},{"name":"vault","type":"address","indexed":true,"internalType":"address"},{"name":"amount","type":"uint256","indexed":false,"internalType":"uint256"}],"anonymous":false},{"type":"event","name":"GmMitoTransferred","inputs":[{"name":"vault","type":"address","indexed":true,"internalType":"address"},{"name":"gmMitoAmount","type":"uint256","indexed":false,"internalType":"uint256"}],"anonymous":false},{"type":"event","name":"Initialized","inputs":[{"name":"version","type":"uint64","indexed":false,"internalType":"uint64"}],"anonymous":false},{"type":"event","name":"NonTargetRewardsClaimed","inputs":[{"name":"epoch","type":"uint256","indexed":true,"internalType":"uint256"},{"name":"validator","type":"address","indexed":true,"internalType":"address"},{"name":"vault","type":"address","indexed":true,"internalType":"address"},{"name":"recipient","type":"address","indexed":false,"internalType":"address"},{"name":"amount","type":"uint256","indexed":false,"internalType":"uint256"}],"anonymous":false},{"type":"event","name":"RewardDistributed","inputs":[{"name":"validator","type":"address","indexed":true,"internalType":"address"},{"name":"gmMitoAmount","type":"uint256","indexed":false,"internalType":"uint256"}],"anonymous":false},{"type":"event","name":"RoleAdminChanged","inputs":[{"name":"role","type":"bytes32","indexed":true,"internalType":"bytes32"},{"name":"previousAdminRole","type":"bytes32","indexed":true,"internalType":"bytes32"},{"name":"newAdminRole","type":"bytes32","indexed":true,"internalType":"bytes32"}],"anonymous":false},{"type":"event","name":"RoleGranted","inputs":[{"name":"role","type":"bytes32","indexed":true,"internalType":"bytes32"},{"name":"account","type":"address","indexed":true,"internalType":"address"},{"name":"sender","type":"address","indexed":true,"internalType":"address"}],"anonymous":false},{"type":"event","name":"RoleRevoked","inputs":[{"name":"role","type":"bytes32","indexed":true,"internalType":"bytes32"},{"name":"account","type":"address","indexed":true,"internalType":"address"},{"name":"sender","type":"address","indexed":true,"internalType":"address"}],"anonymous":false},{"type":"event","name":"Upgraded","inputs":[{"name":"implementation","type":"address","indexed":true,"internalType":"address"}],"anonymous":false},{"type":"event","name":"VaultShareClaimed","inputs":[{"name":"epoch","type":"uint256","indexed":true,"internalType":"uint256"},{"name":"validator","type":"address","indexed":true,"internalType":"address"},{"name":"vault","type":"address","indexed":true,"internalType":"address"},{"name":"vaultTWAB","type":"uint256","indexed":false,"internalType":"uint256"},{"name":"gmMitoAmount","type":"uint256","indexed":false,"internalType":"uint256"}],"anonymous":false},{"type":"error","name":"AccessControlBadConfirmation","inputs":[]},{"type":"error","name":"AccessControlUnauthorizedAccount","inputs":[{"name":"account","type":"address","internalType":"address"},{"name":"neededRole","type":"bytes32","internalType":"bytes32"}]},{"type":"error","name":"AddressEmptyCode","inputs":[{"name":"target","type":"address","internalType":"address"}]},{"type":"error","name":"ERC1967InvalidImplementation","inputs":[{"name":"implementation","type":"address","internalType":"address"}]},{"type":"error","name":"ERC1967NonPayable","inputs":[]},{"type":"error","name":"EpochAlreadyFinalized","inputs":[]},{"type":"error","name":"FailedCall","inputs":[]},{"type":"error","name":"InvalidCommissionRate","inputs":[{"name":"rate","type":"uint256","internalType":"uint256"}]},{"type":"error","name":"InvalidEpoch","inputs":[]},{"type":"error","name":"InvalidEpochOrder","inputs":[{"name":"startEpoch","type":"uint256","internalType":"uint256"},{"name":"lastConfigEpoch","type":"uint256","internalType":"uint256"}]},{"type":"error","name":"InvalidInitialization","inputs":[]},{"type":"error","name":"InvalidValidator","inputs":[]},{"type":"error","name":"InvalidVault","inputs":[]},{"type":"error","name":"NoRewards","inputs":[]},{"type":"error","name":"NotInitializing","inputs":[]},{"type":"error","name":"NotTarget","inputs":[]},{"type":"error","name":"UUPSUnauthorizedCallContext","inputs":[]},{"type":"error","name":"UUPSUnsupportedProxiableUUID","inputs":[{"name":"slot","type":"bytes32","internalType":"bytes32"}]},{"type":"error","name":"Unauthorized","inputs":[]},{"type":"error","name":"ZeroAddress","inputs":[]},{"type":"error","name":"ZeroAmount","inputs":[]}],"bytecode":{"object":"0x61018060405230608052348015610014575f5ffd5b50604051614bde380380614bde833981016040819052610033916102f0565b6001600160a01b03861661005a5760405163d92e233d60e01b815260040160405180910390fd5b6001600160a01b0385166100815760405163d92e233d60e01b815260040160405180910390fd5b6001600160a01b0384166100a85760405163d92e233d60e01b815260040160405180910390fd5b6001600160a01b0383166100cf5760405163d92e233d60e01b815260040160405180910390fd5b6001600160a01b0382166100f65760405163d92e233d60e01b815260040160405180910390fd5b6001600160a01b03811661011d5760405163d92e233d60e01b815260040160405180910390fd5b6001600160a01b0380871660e05285811660c05284811661010052838116610140528281166101208190529082166101605260408051630bdcaec360e41b8152905163bdcaec30916004808201926020929091908290030181865afa158015610188573d5f5f3e3d5ffd5b505050506040513d601f19601f820116820180604052508101906101ac9190610373565b6001600160a01b031663caffd74e6040518163ffffffff1660e01b8152600401602060405180830381865afa1580156101e7573d5f5f3e3d5ffd5b505050506040513d601f19601f8201168201806040525081019061020b9190610373565b6001600160a01b031660a05261021f61022a565b505050505050610395565b7ff0c57e16840df040f15088dc2f81fe391c3923bec73e23a9662efc9c229c6a00805468010000000000000000900460ff161561027a5760405163f92ee8a960e01b815260040160405180910390fd5b80546001600160401b03908116146102d95780546001600160401b0319166001600160401b0390811782556040519081527fc7f505b2f371ae2175ee4913f4499e1f2633a7b5936321eed1cdaeb6115181d29060200160405180910390a15b50565b6001600160a01b03811681146102d9575f5ffd5b5f5f5f5f5f5f60c08789031215610305575f5ffd5b8651610310816102dc565b6020880151909650610321816102dc565b6040880151909550610332816102dc565b6060880151909450610343816102dc565b6080880151909350610354816102dc565b60a0880151909250610365816102dc565b809150509295509295509295565b5f60208284031215610383575f5ffd5b815161038e816102dc565b9392505050565b60805160a05160c05160e051610100516101205161014051610160516147466104985f395f81816107f90152612f3801525f81816109770152818161118b015281816113a10152818161141f015281816124050152818161249a01528181612b6401528181612bf90152818161336901526133fe01525f61061f01525f81816105ae01528181611626015281816123d601528181612b35015261333a01525f81816102b6015281816102e5015261088801525f818161051401528181610bcf0152818161111201528181611522015281816118a4015281816127a8015261377701525f61094401525f81816128320152818161285b0152612a0f01526147465ff3fe6080604052600436106102ae575f3560e01c806393f37e4411610165578063c4d66de8116100c6578063f3adae771161007c578063f5b541a611610062578063f5b541a6146109b8578063fb1615c7146109eb578063fe1a624314610a0a575f5ffd5b8063f3adae7714610966578063f47f008414610999575f5ffd5b8063d547741f116100ac578063d547741f146108e8578063d9abb43314610907578063dd6b645614610933575f5ffd5b8063c4d66de8146108aa578063ca15c873146108c9575f5ffd5b8063ad3cb1cc1161011b578063b175eb4d11610101578063b175eb4d1461081b578063b8a15e3a14610863578063b919ba1a14610877575f5ffd5b8063ad3cb1cc14610793578063ae9483e0146107e8575f5ffd5b80639f4c271e1161014b5780639f4c271e14610701578063a217fddf14610754578063a3246ad314610767575f5ffd5b806393f37e44146106c357806394bfd604146106e2575f5ffd5b80634f1ef2861161020f5780637c8cca36116101c55780638de728e4116101ab5780638de728e41461060e5780639010d07c1461064157806391d1485414610660575f5ffd5b80637c8cca36146105d05780637ca35209146105ef575f5ffd5b8063564cdf08116101f5578063564cdf081461057557806376671808146105895780637a79bd5c1461059d575f5ffd5b80634f1ef2861461054e57806352d1902d14610561575f5ffd5b80632f2ff15d116102645780633653d27f1161024a5780633653d27f146104c557806336568abe146104e45780633bed90ce14610503575f5ffd5b80632f2ff15d146104875780633075fe4e146104a6575f5ffd5b80631e9ca6e8116102945780631e9ca6e8146103bb578063248a9ca31461040e578063262dd9fe1461045b575f5ffd5b806301ffc9a71461035a5780631de9d9b61461038e575f5ffd5b3661035657337f00000000000000000000000000000000000000000000000000000000000000006001600160a01b031614610354577f00000000000000000000000000000000000000000000000000000000000000006001600160a01b031663d0e30db0346040518263ffffffff1660e01b81526004015f604051808303818588803b15801561033c575f5ffd5b505af115801561034e573d5f5f3e3d5ffd5b50505050505b005b5f5ffd5b348015610365575f5ffd5b50610379610374366004613ced565b610a97565b60405190151581526020015b60405180910390f35b348015610399575f5ffd5b506103ad6103a8366004613d50565b610af2565b604051908152602001610385565b3480156103c6575f5ffd5b506103ad6103d5366004613d50565b6001600160a01b03165f9081527ffa2183a4b9e35594495ef24f5060c5bba566c21a062a2b524b653f03c859a704602052604090205490565b348015610419575f5ffd5b506103ad610428366004613d6b565b5f9081527f02dd7bc7dec4dceedda775e58dd541e08a116c6c53815c0bd028192f7b626800602052604090206001015490565b348015610466575f5ffd5b5061047a610475366004613d82565b610ccd565b6040516103859190613dac565b348015610492575f5ffd5b506103546104a1366004613e56565b610dba565b3480156104b1575f5ffd5b506103ad6104c0366004613e84565b610e03565b3480156104d0575f5ffd5b506103ad6104df366004613ec7565b610f27565b3480156104ef575f5ffd5b506103546104fe366004613e56565b611044565b34801561050e575f5ffd5b506105367f000000000000000000000000000000000000000000000000000000000000000081565b6040516001600160a01b039091168152602001610385565b61035461055c36600461400a565b611095565b34801561056c575f5ffd5b506103ad6110b4565b348015610580575f5ffd5b506103ad6110e2565b348015610594575f5ffd5b506103ad611188565b3480156105a8575f5ffd5b506105367f000000000000000000000000000000000000000000000000000000000000000081565b3480156105db575f5ffd5b506103ad6105ea366004613e56565b6111e5565b3480156105fa575f5ffd5b506103ad610609366004614097565b61176d565b348015610619575f5ffd5b506105367f000000000000000000000000000000000000000000000000000000000000000081565b34801561064c575f5ffd5b5061053661065b3660046140c9565b6118d3565b34801561066b575f5ffd5b5061037961067a366004613e56565b5f9182527f02dd7bc7dec4dceedda775e58dd541e08a116c6c53815c0bd028192f7b626800602090815260408084206001600160a01b0393909316845291905290205460ff1690565b3480156106ce575f5ffd5b506103ad6106dd3660046140e9565b611913565b3480156106ed575f5ffd5b5061047a6106fc366004613d82565b611967565b34801561070c575f5ffd5b506103ad61071b366004613d50565b6001600160a01b03165f9081527ffa2183a4b9e35594495ef24f5060c5bba566c21a062a2b524b653f03c859a702602052604090205490565b34801561075f575f5ffd5b506103ad5f81565b348015610772575f5ffd5b50610786610781366004613d6b565b611a80565b604051610385919061416b565b34801561079e575f5ffd5b506107db6040518060400160405280600581526020017f352e302e3000000000000000000000000000000000000000000000000000000081525081565b604051610385919061417d565b3480156107f3575f5ffd5b506105367f000000000000000000000000000000000000000000000000000000000000000081565b348015610826575f5ffd5b506107db6040518060400160405280600681526020017f76302e302e33000000000000000000000000000000000000000000000000000081525081565b34801561086e575f5ffd5b506107db611abc565b348015610882575f5ffd5b506105367f000000000000000000000000000000000000000000000000000000000000000081565b3480156108b5575f5ffd5b506103546108c4366004613d50565b611ad8565b3480156108d4575f5ffd5b506103ad6108e3366004613d6b565b611ca8565b3480156108f3575f5ffd5b50610354610902366004613e56565b611cdf565b348015610912575f5ffd5b50610926610921366004614097565b611d22565b60405161038591906141b2565b34801561093e575f5ffd5b506105367f000000000000000000000000000000000000000000000000000000000000000081565b348015610971575f5ffd5b506105367f000000000000000000000000000000000000000000000000000000000000000081565b3480156109a4575f5ffd5b506103546109b33660046141f4565b611e63565b3480156109c3575f5ffd5b506103ad7f46a52cf33029de9f84853745a87af28464c80bf0346df1b32e205fc73319f62281565b3480156109f6575f5ffd5b50610379610a05366004614244565b612220565b348015610a15575f5ffd5b50610a7a610a24366004613e56565b6001600160a01b03165f9081527ffa2183a4b9e35594495ef24f5060c5bba566c21a062a2b524b653f03c859a700602090815260408083209383529290522080546001820154600290920154909260ff90911690565b604080519384526020840192909252151590820152606001610385565b5f7fffffffff0000000000000000000000000000000000000000000000000000000082167f5a05180f000000000000000000000000000000000000000000000000000000001480610aec5750610aec82612264565b92915050565b5f7f46a52cf33029de9f84853745a87af28464c80bf0346df1b32e205fc73319f622610b1d816122fa565b6001600160a01b038316610b5d576040517fd92e233d00000000000000000000000000000000000000000000000000000000815260040160405180910390fd5b6040805160018082528183019092525f916020808301908036833701905050905083815f81518110610b9157610b91614282565b6001600160a01b0392831660209182029290920101526040517f3f2a33f90000000000000000000000000000000000000000000000000000000081527f000000000000000000000000000000000000000000000000000000000000000090911690633f2a33f990610c0890849030906004016142af565b6020604051808303815f875af1158015610c24573d5f5f3e3d5ffd5b505050506040513d601f19601f82011682018060405250810190610c4891906142d9565b92505f8311610c83576040517f3fb087f400000000000000000000000000000000000000000000000000000000815260040160405180910390fd5b836001600160a01b03167fe34918ff1c7084970068b53fd71ad6d8b04e9f15d3886cbf006443e6cdc52ea684604051610cbe91815260200190565b60405180910390a25050919050565b6040805160a08101825260608082525f60208301819052928201839052810182905260808101829052907ffa2183a4b9e35594495ef24f5060c5bba566c21a062a2b524b653f03c859a70090610d24828686612307565b805460408051602080840282018101909252828152929350839190830182828015610d7657602002820191905f5260205f20905b81546001600160a01b03168152600190910190602001808311610d58575b505050918552505060018101546001600160a01b03908116602085015260028201548116604085015260038201541660608401526004015460808301525092915050565b5f8281527f02dd7bc7dec4dceedda775e58dd541e08a116c6c53815c0bd028192f7b6268006020526040902060010154610df3816122fa565b610dfd8383612341565b50505050565b5f6001600160a01b038516610e44576040517fd92e233d00000000000000000000000000000000000000000000000000000000815260040160405180910390fd5b6001600160a01b038416610e84576040517fd92e233d00000000000000000000000000000000000000000000000000000000815260040160405180910390fd5b5f83118015610e935750828210155b610ec9576040517fd5b25b6300000000000000000000000000000000000000000000000000000000815260040160405180910390fd5b7ffa2183a4b9e35594495ef24f5060c5bba566c21a062a2b524b653f03c859a700835b838111610f1d57610eff82888884612396565b610f09908461431d565b925080610f1581614330565b915050610eec565b5050949350505050565b5f6001600160a01b038616610f68576040517fd92e233d00000000000000000000000000000000000000000000000000000000815260040160405180910390fd5b5f83118015610f775750828210155b610fad576040517fd5b25b6300000000000000000000000000000000000000000000000000000000815260040160405180910390fd5b335f8181527f11408c214e50776f0f6e546bf3b89e7953bf3ba3b172efa6ff1ba292b2d1b3b260205260409020547ffa2183a4b9e35594495ef24f5060c5bba566c21a062a2b524b653f03c859a700919060ff16855b85811161103757611019848b8b8b85888861268e565b611023908661431d565b94508061102f81614330565b915050611003565b5050505095945050505050565b6001600160a01b0381163314611086576040517f6697b23200000000000000000000000000000000000000000000000000000000815260040160405180910390fd5b61109082826127db565b505050565b61109d612827565b6110a6826128f9565b6110b08282612903565b5050565b5f6110bd612a04565b507f360894a13ba1a3210667c828492db98dca3e2076cc3735a920a3ca505d382bbc90565b6040517f70a082310000000000000000000000000000000000000000000000000000000081523060048201525f907f00000000000000000000000000000000000000000000000000000000000000006001600160a01b0316906370a0823190602401602060405180830381865afa15801561115f573d5f5f3e3d5ffd5b505050506040513d601f19601f8201168201806040525081019061118391906142d9565b905090565b5f7f00000000000000000000000000000000000000000000000000000000000000006001600160a01b031663900cf0cf6040518163ffffffff1660e01b8152600401602060405180830381865afa15801561115f573d5f5f3e3d5ffd5b5f7f46a52cf33029de9f84853745a87af28464c80bf0346df1b32e205fc73319f622611210816122fa565b6001600160a01b038316611250576040517fd92e233d00000000000000000000000000000000000000000000000000000000815260040160405180910390fd5b5f8411611289576040517fd5b25b6300000000000000000000000000000000000000000000000000000000815260040160405180910390fd5b6001600160a01b0383165f9081527ffa2183a4b9e35594495ef24f5060c5bba566c21a062a2b524b653f03c859a70060208181526040808420888552909152909120600281015460ff161561130a576040517f3366263c00000000000000000000000000000000000000000000000000000000815260040160405180910390fd5b6001600160a01b0385165f90815260028301602052604090205461132f81600161431d565b87148061133a575080155b611370576040517fd5b25b6300000000000000000000000000000000000000000000000000000000815260040160405180910390fd5b6040517f6f5e290f000000000000000000000000000000000000000000000000000000008152600481018890525f907f00000000000000000000000000000000000000000000000000000000000000006001600160a01b031690636f5e290f90602401602060405180830381865afa1580156113ee573d5f5f3e3d5ffd5b505050506040513d601f19601f820116820180604052508101906114129190614367565b90505f6001600160a01b037f000000000000000000000000000000000000000000000000000000000000000016636f5e290f61144f8b600161431d565b6040518263ffffffff1660e01b815260040161146d91815260200190565b602060405180830381865afa158015611488573d5f5f3e3d5ffd5b505050506040513d601f19601f820116820180604052508101906114ac9190614367565b6040805160018082528183019092529192505f91906020808301908036833701905050905088815f815181106114e4576114e4614282565b6001600160a01b0392831660209182029290920101526040517f3f2a33f90000000000000000000000000000000000000000000000000000000081527f000000000000000000000000000000000000000000000000000000000000000090911690633f2a33f99061155b90849030906004016142af565b6020604051808303815f875af1158015611577573d5f5f3e3d5ffd5b505050506040513d601f19601f8201168201806040525081019061159b91906142d9565b97505f88116115d6576040517f3fb087f400000000000000000000000000000000000000000000000000000000815260040160405180910390fd5b6040517f2cba54da0000000000000000000000000000000000000000000000000000000081526001600160a01b038a8116600483015265ffffffffffff8086166024840152841660448301525f917f000000000000000000000000000000000000000000000000000000000000000090911690632cba54da90606401602060405180830381865afa15801561166d573d5f5f3e3d5ffd5b505050506040513d601f19601f8201168201806040525081019061169191906142d9565b90505f81116116cc576040517f3fb087f400000000000000000000000000000000000000000000000000000000815260040160405180910390fd5b8886556001808701829055600280880180547fffffffffffffffffffffffffffffffffffffffffffffffffffffffffffffff00169092179091556001600160a01b038b165f81815291890160209081526040928390208e905582518c815290810184905290918d917fcad4bb3e722125ec372957e194e1fcbb73b8286b53632f18284e589d84f33bb6910160405180910390a3505050505050505092915050565b5f6001600160a01b0384166117ae576040517fd92e233d00000000000000000000000000000000000000000000000000000000815260040160405180910390fd5b5f831180156117bd5750828210155b6117f3576040517fd5b25b6300000000000000000000000000000000000000000000000000000000815260040160405180910390fd5b337ffa2183a4b9e35594495ef24f5060c5bba566c21a062a2b524b653f03c859a700845b848111611898575f61182a838984612307565b90506118368185612a66565b61186c576040517f65ec05a200000000000000000000000000000000000000000000000000000000815260040160405180910390fd5b61187883838a87612ac6565b611882908661431d565b945050808061189090614330565b915050611817565b5082156118ca576118ca7f00000000000000000000000000000000000000000000000000000000000000008385612e1d565b50509392505050565b5f8281527fc1f6fe24621ce81ec5827caf0253cadb74709b061630e6b55e8237170593200060208190526040822061190b9084612e70565b949350505050565b6001600160a01b038281165f9081527ffa2183a4b9e35594495ef24f5060c5bba566c21a062a2b524b653f03c859a701602090815260408083209385168352928152828220868352905220545b9392505050565b6040805160a08101825260608082525f6020808401829052838501829052918301819052608083018190526001600160a01b03861681527ffa2183a4b9e35594495ef24f5060c5bba566c21a062a2b524b653f03c859a70382528381208582528252839020805484518184028101840190955280855292937ffa2183a4b9e35594495ef24f5060c5bba566c21a062a2b524b653f03c859a70093919290918391830182828015610d7657602002820191905f5260205f209081546001600160a01b03168152600190910190602001808311610d5857505050918552505060018101546001600160a01b03908116602085015260028201548116604085015260038201541660608401526004015460808301525092915050565b5f8181527fc1f6fe24621ce81ec5827caf0253cadb74709b061630e6b55e82371705932000602081905260409091206060919061196090612e7b565b6040518060600160405280602881526020016146e96028913981565b7ff0c57e16840df040f15088dc2f81fe391c3923bec73e23a9662efc9c229c6a00805468010000000000000000810460ff16159067ffffffffffffffff165f81158015611b225750825b90505f8267ffffffffffffffff166001148015611b3e5750303b155b905081158015611b4c575080155b15611b83576040517ff92ee8a900000000000000000000000000000000000000000000000000000000815260040160405180910390fd5b84547fffffffffffffffffffffffffffffffffffffffffffffffff00000000000000001660011785558315611be45784547fffffffffffffffffffffffffffffffffffffffffffffff00ffffffffffffffff16680100000000000000001785555b6001600160a01b038616611c24576040517fd92e233d00000000000000000000000000000000000000000000000000000000815260040160405180910390fd5b611c2c612e87565b611c34612e87565b611c3e5f87612341565b508315611ca05784547fffffffffffffffffffffffffffffffffffffffffffffff00ffffffffffffffff168555604051600181527fc7f505b2f371ae2175ee4913f4499e1f2633a7b5936321eed1cdaeb6115181d29060200160405180910390a15b505050505050565b5f8181527fc1f6fe24621ce81ec5827caf0253cadb74709b061630e6b55e8237170593200060208190526040822061196090612e8f565b5f8281527f02dd7bc7dec4dceedda775e58dd541e08a116c6c53815c0bd028192f7b6268006020526040902060010154611d18816122fa565b610dfd83836127db565b6001600160a01b0383165f9081527ffa2183a4b9e35594495ef24f5060c5bba566c21a062a2b524b653f03c859a70460205260409020805460609190808510611d9a575f5b604051908082528060200260200182016040528015611d90578160200160208202803683370190505b5092505050611960565b80841115611da6578093505b848411611db3575f611d67565b5f611dbe868661438c565b90508067ffffffffffffffff811115611dd957611dd9613f5b565b604051908082528060200260200182016040528015611e02578160200160208202803683370190505b5093505f5b81811015611e585783611e1a828961431d565b81548110611e2a57611e2a614282565b905f5260205f200154858281518110611e4557611e45614282565b6020908102919091010152600101611e07565b505050509392505050565b6001600160a01b038316611ea3576040517fd92e233d00000000000000000000000000000000000000000000000000000000815260040160405180910390fd5b6080810135612710811115611ef0576040517f7c27fae2000000000000000000000000000000000000000000000000000000008152600401611ee791815260200190565b60405180910390fd5b507ffa2183a4b9e35594495ef24f5060c5bba566c21a062a2b524b653f03c859a700611f1d818585612e98565b6001600160a01b0384165f9081526004820160205260409020805415611fd95780548190611f4d9060019061438c565b81548110611f5d57611f5d614282565b905f5260205f200154841015848260018480549050611f7c919061438c565b81548110611f8c57611f8c614282565b905f5260205f2001549091611fd6576040517f84122f3800000000000000000000000000000000000000000000000000000000815260048101929092526024820152604401611ee7565b50505b6001600160a01b0385165f90815260038301602090815260408083208784528252918290209161200e91908601908601613d50565b6001820180547fffffffffffffffffffffffff0000000000000000000000000000000000000000166001600160a01b03929092169190911790556120586060850160408601613d50565b6002820180547fffffffffffffffffffffffff0000000000000000000000000000000000000000166001600160a01b03929092169190911790556120a26080850160608601613d50565b6003820180547fffffffffffffffffffffffff0000000000000000000000000000000000000000166001600160a01b0392909216919091179055608084013560048201556120f0815f613cbf565b5f5b6120fc858061439f565b90508110156121845781612110868061439f565b8381811061212057612120614282565b90506020020160208101906121359190613d50565b8154600180820184555f93845260209093200180547fffffffffffffffffffffffff0000000000000000000000000000000000000000166001600160a01b0392909216919091179055016120f2565b50815415806121bc57508154859083906121a09060019061438c565b815481106121b0576121b0614282565b905f5260205f20015414155b156121d65781546001810183555f83815260209020018590555b84866001600160a01b03167ffa86f71fb405a4f3c8fe0b059720aad6817a4c3fd9ef40267d349ebf42d5c447866040516122109190614448565b60405180910390a3505050505050565b5f7ffa2183a4b9e35594495ef24f5060c5bba566c21a062a2b524b653f03c859a7008161224e828786612307565b905061225a8186612a66565b9695505050505050565b5f7fffffffff0000000000000000000000000000000000000000000000000000000082167f7965db0b000000000000000000000000000000000000000000000000000000001480610aec57507f01ffc9a7000000000000000000000000000000000000000000000000000000007fffffffff00000000000000000000000000000000000000000000000000000000831614610aec565b6123048133612ff4565b50565b5f5f612314858585613080565b6001600160a01b0385165f9081526003870160209081526040808320938352929052209150509392505050565b5f7fc1f6fe24621ce81ec5827caf0253cadb74709b061630e6b55e823717059320008161236e8585613120565b9050801561190b575f85815260208390526040902061238d908561320a565b50949350505050565b6001600160a01b038084165f90815260018601602090815260408083209386168352928152828220848352905290812054156123d357505f61190b565b5f7f00000000000000000000000000000000000000000000000000000000000000006001600160a01b03166390aaa0467f00000000000000000000000000000000000000000000000000000000000000006001600160a01b0316636f5e290f866040518263ffffffff1660e01b815260040161245191815260200190565b602060405180830381865afa15801561246c573d5f5f3e3d5ffd5b505050506040513d601f19601f820116820180604052508101906124909190614367565b6001600160a01b037f000000000000000000000000000000000000000000000000000000000000000016636f5e290f6124ca88600161431d565b6040518263ffffffff1660e01b81526004016124e891815260200190565b602060405180830381865afa158015612503573d5f5f3e3d5ffd5b505050506040513d601f19601f820116820180604052508101906125279190614367565b6040517fffffffff0000000000000000000000000000000000000000000000000000000060e085901b16815265ffffffffffff9283166004820152911660248201526001600160a01b03808916604483015287166064820152608401602060405180830381865afa15801561259e573d5f5f3e3d5ffd5b505050506040513d601f19601f820116820180604052508101906125c291906142d9565b9050805f036125d4575f91505061190b565b6001600160a01b0385165f908152602087815260408083208684529091529020600281015460ff1661260a575f9250505061190b565b5f61261d825f015484846001015461321e565b90505f61262b898988612307565b90506126378188612a66565b156126825760038101546001600160a01b03161580159061265b57505f8160040154115b15612682575f61267283836004015461271061321e565b905061267e818461438c565b9250505b50979650505050505050565b5f5f61269b898987612307565b905082806126b8575060018101546001600160a01b038581169116145b806126d2575060028101546001600160a01b038581169116145b612708576040517f82b4290000000000000000000000000000000000000000000000000000000000815260040160405180910390fd5b60028101546001600160a01b03165f5b8781101561279c57612750838a8a8481811061273657612736614282565b905060200201602081019061274b9190613d50565b612a66565b612794576127878b888c8c8c8681811061276c5761276c614282565b90506020020160208101906127819190613d50565b866132cb565b612791908561431d565b93505b600101612718565b5082156127ce576127ce7f00000000000000000000000000000000000000000000000000000000000000008285612e1d565b5050979650505050505050565b5f7fc1f6fe24621ce81ec5827caf0253cadb74709b061630e6b55e823717059320008161280885856135f2565b9050801561190b575f85815260208390526040902061238d90856136b4565b306001600160a01b037f00000000000000000000000000000000000000000000000000000000000000001614806128c057507f00000000000000000000000000000000000000000000000000000000000000006001600160a01b03166128b47f360894a13ba1a3210667c828492db98dca3e2076cc3735a920a3ca505d382bbc546001600160a01b031690565b6001600160a01b031614155b156128f7576040517fe07c8dba00000000000000000000000000000000000000000000000000000000815260040160405180910390fd5b565b5f6110b0816122fa565b816001600160a01b03166352d1902d6040518163ffffffff1660e01b8152600401602060405180830381865afa92505050801561295d575060408051601f3d908101601f1916820190925261295a918101906142d9565b60015b61299e576040517f4c9c8ce30000000000000000000000000000000000000000000000000000000081526001600160a01b0383166004820152602401611ee7565b7f360894a13ba1a3210667c828492db98dca3e2076cc3735a920a3ca505d382bbc81146129fa576040517faa1d49a400000000000000000000000000000000000000000000000000000000815260048101829052602401611ee7565b61109083836136c8565b306001600160a01b037f000000000000000000000000000000000000000000000000000000000000000016146128f7576040517fe07c8dba00000000000000000000000000000000000000000000000000000000815260040160405180910390fd5b81545f90815b81811015612abc57836001600160a01b0316858281548110612a9057612a90614282565b5f918252602090912001546001600160a01b031603612ab457600192505050610aec565b600101612a6c565b505f949350505050565b6001600160a01b0382165f9081526020858152604080832086845290915281206002015460ff161580612b2657506001600160a01b038084165f908152600187016020908152604080832093861683529281528282208783529052205415155b15612b3257505f61190b565b5f7f00000000000000000000000000000000000000000000000000000000000000006001600160a01b03166390aaa0467f00000000000000000000000000000000000000000000000000000000000000006001600160a01b0316636f5e290f886040518263ffffffff1660e01b8152600401612bb091815260200190565b602060405180830381865afa158015612bcb573d5f5f3e3d5ffd5b505050506040513d601f19601f82011682018060405250810190612bef9190614367565b6001600160a01b037f000000000000000000000000000000000000000000000000000000000000000016636f5e290f612c298a600161431d565b6040518263ffffffff1660e01b8152600401612c4791815260200190565b602060405180830381865afa158015612c62573d5f5f3e3d5ffd5b505050506040513d601f19601f82011682018060405250810190612c869190614367565b6040517fffffffff0000000000000000000000000000000000000000000000000000000060e085901b16815265ffffffffffff9283166004820152911660248201526001600160a01b03808816604483015286166064820152608401602060405180830381865afa158015612cfd573d5f5f3e3d5ffd5b505050506040513d601f19601f82011682018060405250810190612d2191906142d9565b9050805f03612d33575f91505061190b565b6001600160a01b0384165f90815260208781526040808320888452909152812080546001820154612d669190859061321e565b9350839150508015610f1d576001600160a01b038086165f90815260018901602090815260408083209388168352928152828220898352905220819055612db0878688878561371d565b612dba908461438c565b9250836001600160a01b0316856001600160a01b0316877f39b62d670bf3a6b5e9b4bfd6dca9494ee4923d64014b74bbf4a13f5b09d5903a8587604051612e0b929190918252602082015260400190565b60405180910390a45050949350505050565b81601452806034526fa9059cbb0000000000000000000000005f5260205f604460105f875af18060015f511416612e6657803d853b151710612e66576390b8ec185f526004601cfd5b505f603452505050565b5f61196083836137e3565b60605f61196083613809565b6128f7613862565b5f610aec825490565b335f9081527fb7db2dd08fcb62d0c9e08c51941cae53c267786a0b75803fb7960902fc8ef97d602052604090205460ff1615612ed357505050565b5f612edf848484612307565b6001810154909150336001600160a01b0390911603612efe5750505050565b6040517f4f1811dd0000000000000000000000000000000000000000000000000000000081526001600160a01b0384811660048301525f917f000000000000000000000000000000000000000000000000000000000000000090911690634f1811dd906024015f60405180830381865afa158015612f7e573d5f5f3e3d5ffd5b505050506040513d5f823e601f3d908101601f19168201604052612fa59190810190614584565b604001519050336001600160a01b03821603612fc2575050505050565b6040517f82b4290000000000000000000000000000000000000000000000000000000000815260040160405180910390fd5b5f8281527f02dd7bc7dec4dceedda775e58dd541e08a116c6c53815c0bd028192f7b626800602090815260408083206001600160a01b038516845290915290205460ff166110b0576040517fe2517d3f0000000000000000000000000000000000000000000000000000000081526001600160a01b038216600482015260248101839052604401611ee7565b6001600160a01b0382165f9081526004840160205260408120805482036130aa575f915050611960565b82815f815481106130bd576130bd614282565b905f5260205f20015411156130d5575f915050611960565b5f6130e18686866138c9565b90505f81116130f0575f61225a565b816130fc60018361438c565b8154811061310c5761310c614282565b905f5260205f200154925050509392505050565b5f8281527f02dd7bc7dec4dceedda775e58dd541e08a116c6c53815c0bd028192f7b626800602081815260408084206001600160a01b038616855290915282205460ff16613201575f848152602082815260408083206001600160a01b0387168452909152902080547fffffffffffffffffffffffffffffffffffffffffffffffffffffffffffffff001660011790556131b73390565b6001600160a01b0316836001600160a01b0316857f2f8788117e7eff1d82e926ec794901d17c78024a50270940304540a733656f0d60405160405180910390a46001915050610aec565b5f915050610aec565b5f611960836001600160a01b038416613980565b828202818385830414851517026132c4577fffffffffffffffffffffffffffffffffffffffffffffffffffffffffffffffff8385098181108201900382848609835f0384168285116132775763ae47f7025f526004601cfd5b93849004938382119092035f839003839004600101029203041760026003830281188084028203028084028203028084028203028084028203028084028203028084029091030202611960565b0492915050565b6001600160a01b0383165f9081526020868152604080832087845290915281206002015460ff16158061332b57506001600160a01b038085165f908152600188016020908152604080832093871683529281528282208883529052205415155b1561333757505f6135e9565b5f7f00000000000000000000000000000000000000000000000000000000000000006001600160a01b03166390aaa0467f00000000000000000000000000000000000000000000000000000000000000006001600160a01b0316636f5e290f896040518263ffffffff1660e01b81526004016133b591815260200190565b602060405180830381865afa1580156133d0573d5f5f3e3d5ffd5b505050506040513d601f19601f820116820180604052508101906133f49190614367565b6001600160a01b037f000000000000000000000000000000000000000000000000000000000000000016636f5e290f61342e8b600161431d565b6040518263ffffffff1660e01b815260040161344c91815260200190565b602060405180830381865afa158015613467573d5f5f3e3d5ffd5b505050506040513d601f19601f8201168201806040525081019061348b9190614367565b6040517fffffffff0000000000000000000000000000000000000000000000000000000060e085901b16815265ffffffffffff9283166004820152911660248201526001600160a01b03808916604483015287166064820152608401602060405180830381865afa158015613502573d5f5f3e3d5ffd5b505050506040513d601f19601f8201168201806040525081019061352691906142d9565b9050805f03613538575f9150506135e9565b6001600160a01b0385165f9081526020888152604080832089845290915290208054600182015461356b9190849061321e565b925082156135e6576001600160a01b038681165f81815260018b01602090815260408083208a86168085529083528184208d85528352928190208890558051948916855290840187905290928a917f6045ec4f4247b5f3ff7e8f3aabc36ed34dceb2a6379ed41d70e47d70af8eaf2391015b60405180910390a45b50505b95945050505050565b5f8281527f02dd7bc7dec4dceedda775e58dd541e08a116c6c53815c0bd028192f7b626800602081815260408084206001600160a01b038616855290915282205460ff1615613201575f848152602082815260408083206001600160a01b038716808552925280832080547fffffffffffffffffffffffffffffffffffffffffffffffffffffffffffffff0016905551339287917ff6391f5c32d9c69d2a47ea670b442974b53935d1edc7fd64eb21e047a839171b9190a46001915050610aec565b5f611960836001600160a01b0384166139cc565b6136d182613aa6565b6040516001600160a01b038316907fbc7cd75a20ee27fd9adebab32041f755214dbc6bffa90cc0225b39da2e5c2d3b905f90a2805115613715576110908282613b4d565b6110b0613bb6565b5f5f61372a878787612307565b60038101549091506001600160a01b031680158061374a57506004820154155b15613759575f925050506135e9565b61376a84836004015461271061321e565b925082156135e65761379d7f00000000000000000000000000000000000000000000000000000000000000008285612e1d565b846001600160a01b0316876001600160a01b0316877f79cfc57d040b454ad547f083baab4ce4b8753705a4836381e8d2f874e9f1e7b5866040516135dd91815260200190565b5f825f0182815481106137f8576137f8614282565b905f5260205f200154905092915050565b6060815f0180548060200260200160405190810160405280929190818152602001828054801561385657602002820191905f5260205f20905b815481526020019060010190808311613842575b50505050509050919050565b7ff0c57e16840df040f15088dc2f81fe391c3923bec73e23a9662efc9c229c6a005468010000000000000000900460ff166128f7576040517fd7e6bcf800000000000000000000000000000000000000000000000000000000815260040160405180910390fd5b6001600160a01b0382165f9081526004840160205260408120805482036138f3575f915050611960565b82815f8154811061390657613906614282565b905f5260205f200154111561391e575f915050611960565b80545f905b80821015613976575f6139368383613bee565b90508584828154811061394b5761394b614282565b905f5260205f200154111561396257809150613970565b61396d81600161431d565b92505b50613923565b5095945050505050565b5f8181526001830160205260408120546139c557508154600181810184555f848152602080822090930184905584548482528286019093526040902091909155610aec565b505f610aec565b5f8181526001830160205260408120548015613201575f6139ee60018361438c565b85549091505f90613a019060019061438c565b9050808214613a60575f865f018281548110613a1f57613a1f614282565b905f5260205f200154905080875f018481548110613a3f57613a3f614282565b5f918252602080832090910192909255918252600188019052604090208390555b8554869080613a7157613a7161466d565b600190038181905f5260205f20015f90559055856001015f8681526020019081526020015f205f905560019350505050610aec565b806001600160a01b03163b5f03613af4576040517f4c9c8ce30000000000000000000000000000000000000000000000000000000081526001600160a01b0382166004820152602401611ee7565b7f360894a13ba1a3210667c828492db98dca3e2076cc3735a920a3ca505d382bbc80547fffffffffffffffffffffffff0000000000000000000000000000000000000000166001600160a01b0392909216919091179055565b60605f5f846001600160a01b031684604051613b69919061469a565b5f60405180830381855af49150503d805f8114613ba1576040519150601f19603f3d011682016040523d82523d5f602084013e613ba6565b606091505b50915091506135e9858383613c08565b34156128f7576040517fb398979f00000000000000000000000000000000000000000000000000000000815260040160405180910390fd5b5f613bfc60028484186146b0565b6119609084841661431d565b606082613c1d57613c1882613c7d565b611960565b8151158015613c3457506001600160a01b0384163b155b15613c76576040517f9996b3150000000000000000000000000000000000000000000000000000000081526001600160a01b0385166004820152602401611ee7565b5080611960565b805115613c8d5780518082602001fd5b6040517fd6bda27500000000000000000000000000000000000000000000000000000000815260040160405180910390fd5b5080545f8255905f5260205f209081019061230491905b80821115613ce9575f8155600101613cd6565b5090565b5f60208284031215613cfd575f5ffd5b81357fffffffff0000000000000000000000000000000000000000000000000000000081168114611960575f5ffd5b6001600160a01b0381168114612304575f5ffd5b8035613d4b81613d2c565b919050565b5f60208284031215613d60575f5ffd5b813561196081613d2c565b5f60208284031215613d7b575f5ffd5b5035919050565b5f5f60408385031215613d93575f5ffd5b8235613d9e81613d2c565b946020939093013593505050565b6020808252825160a083830152805160c084018190525f929190910190829060e08501905b80831015613dfd576001600160a01b038451168252602082019150602084019350600183019250613dd1565b5060208601516001600160a01b0381166040870152925060408601516001600160a01b0381166060870152925060608601516001600160a01b03811660808701529250608086015160a086015280935050505092915050565b5f5f60408385031215613e67575f5ffd5b823591506020830135613e7981613d2c565b809150509250929050565b5f5f5f5f60808587031215613e97575f5ffd5b8435613ea281613d2c565b93506020850135613eb281613d2c565b93969395505050506040820135916060013590565b5f5f5f5f5f60808688031215613edb575f5ffd5b8535613ee681613d2c565b9450602086013567ffffffffffffffff811115613f01575f5ffd5b8601601f81018813613f11575f5ffd5b803567ffffffffffffffff811115613f27575f5ffd5b8860208260051b8401011115613f3b575f5ffd5b959860209190910197509495604081013595606090910135945092505050565b7f4e487b71000000000000000000000000000000000000000000000000000000005f52604160045260245ffd5b604051610100810167ffffffffffffffff81118282101715613fac57613fac613f5b565b60405290565b604051601f8201601f1916810167ffffffffffffffff81118282101715613fdb57613fdb613f5b565b604052919050565b5f67ffffffffffffffff821115613ffc57613ffc613f5b565b50601f01601f191660200190565b5f5f6040838503121561401b575f5ffd5b823561402681613d2c565b9150602083013567ffffffffffffffff811115614041575f5ffd5b8301601f81018513614051575f5ffd5b803561406461405f82613fe3565b613fb2565b818152866020838501011115614078575f5ffd5b816020840160208301375f602083830101528093505050509250929050565b5f5f5f606084860312156140a9575f5ffd5b83356140b481613d2c565b95602085013595506040909401359392505050565b5f5f604083850312156140da575f5ffd5b50508035926020909101359150565b5f5f5f606084860312156140fb575f5ffd5b83359250602084013561410d81613d2c565b9150604084013561411d81613d2c565b809150509250925092565b5f8151808452602084019350602083015f5b828110156141615781516001600160a01b031686526020958601959091019060010161413a565b5093949350505050565b602081525f6119606020830184614128565b602081525f82518060208401528060208501604085015e5f604082850101526040601f19601f83011684010191505092915050565b602080825282518282018190525f918401906040840190835b818110156141e95783518352602093840193909201916001016141cb565b509095945050505050565b5f5f5f60608486031215614206575f5ffd5b833561421181613d2c565b925060208401359150604084013567ffffffffffffffff811115614233575f5ffd5b840160a0818703121561411d575f5ffd5b5f5f5f60608486031215614256575f5ffd5b833561426181613d2c565b9250602084013561427181613d2c565b929592945050506040919091013590565b7f4e487b71000000000000000000000000000000000000000000000000000000005f52603260045260245ffd5b604081525f6142c16040830185614128565b90506001600160a01b03831660208301529392505050565b5f602082840312156142e9575f5ffd5b5051919050565b7f4e487b71000000000000000000000000000000000000000000000000000000005f52601160045260245ffd5b80820180821115610aec57610aec6142f0565b5f7fffffffffffffffffffffffffffffffffffffffffffffffffffffffffffffffff8203614360576143606142f0565b5060010190565b5f60208284031215614377575f5ffd5b815165ffffffffffff81168114611960575f5ffd5b81810381811115610aec57610aec6142f0565b5f5f83357fffffffffffffffffffffffffffffffffffffffffffffffffffffffffffffffe18436030181126143d2575f5ffd5b83018035915067ffffffffffffffff8211156143ec575f5ffd5b6020019150600581901b3603821315614403575f5ffd5b9250929050565b8183526020830192505f815f5b8481101561416157813561442a81613d2c565b6001600160a01b031686526020958601959190910190600101614417565b602081525f82357fffffffffffffffffffffffffffffffffffffffffffffffffffffffffffffffe184360301811261447e575f5ffd5b830160208101903567ffffffffffffffff81111561449a575f5ffd5b8060051b36038213156144ab575f5ffd5b60a060208501526144c060c08501828461440a565b9150506144cf60208501613d40565b6001600160a01b0381166040850152506144eb60408501613d40565b6001600160a01b03811660608501525061450760608501613d40565b6001600160a01b0381166080850152506080939093013560a092909201919091525090565b8051613d4b81613d2c565b5f82601f830112614546575f5ffd5b815161455461405f82613fe3565b818152846020838601011115614568575f5ffd5b8160208501602083015e5f918101602001919091529392505050565b5f60208284031215614594575f5ffd5b815167ffffffffffffffff8111156145aa575f5ffd5b820161010081850312156145bc575f5ffd5b6145c4613f88565b6145cd8261452c565b8152602082015167ffffffffffffffff8111156145e8575f5ffd5b6145f486828501614537565b6020830152506146066040830161452c565b60408201526146176060830161452c565b60608201526080828101519082015260a0808301519082015260c0808301519082015260e082015167ffffffffffffffff811115614653575f5ffd5b61465f86828501614537565b60e083015250949350505050565b7f4e487b71000000000000000000000000000000000000000000000000000000005f52603160045260245ffd5b5f82518060208501845e5f920191825250919050565b5f826146e3577f4e487b71000000000000000000000000000000000000000000000000000000005f52601260045260245ffd5b50049056fe62643731663266646233373135623838633465616137393962666262323365343631623931373163a2646970667358221220ca4938369e1884ed106e96b8be584707df0db32e8bf74531b1080eae50f71eff64736f6c634300081d0033","linkReferences":{}},"methodIdentifiers":{"COLLATERAL_ORACLE()":"7a79bd5c","DEFAULT_ADMIN_ROLE()":"a217fddf","EPOCH_FEEDER()":"f3adae77","GIT_COMMIT()":"b8a15e3a","GIT_TAG()":"b175eb4d","GMITO()":"dd6b6456","GM_MITO()":"3bed90ce","OPERATOR_ROLE()":"f5b541a6","REWARD_DISTRIBUTOR()":"8de728e4","UPGRADE_INTERFACE_VERSION()":"ad3cb1cc","VALIDATOR_MANAGER()":"ae9483e0","WMITO()":"b919ba1a","claimForNonTargets(address,address[],uint256,uint256)":"3653d27f","claimRewards(address,uint256,uint256)":"7ca35209","currentEpoch()":"76671808","distributeRewards(address)":"1de9d9b6","finalizeEpoch(uint256,address)":"7c8cca36","getApplicableConfig(address,uint256)":"262dd9fe","getClaimableRewards(address,address,uint256,uint256)":"3075fe4e","getConfigEpochsCount(address)":"1e9ca6e8","getConfigEpochsRange(address,uint256,uint256)":"d9abb433","getDistributionConfig(address,uint256)":"94bfd604","getEpochReward(uint256,address)":"fe1a6243","getLastFinalizedEpoch(address)":"9f4c271e","getRoleAdmin(bytes32)":"248a9ca3","getRoleMember(bytes32,uint256)":"9010d07c","getRoleMemberCount(bytes32)":"ca15c873","getRoleMembers(bytes32)":"a3246ad3","getVaultClaimed(uint256,address,address)":"93f37e44","gmMitoBalance()":"564cdf08","grantRole(bytes32,address)":"2f2ff15d","hasRole(bytes32,address)":"91d14854","initialize(address)":"c4d66de8","isTarget(address,address,uint256)":"fb1615c7","proxiableUUID()":"52d1902d","renounceRole(bytes32,address)":"36568abe","revokeRole(bytes32,address)":"d547741f","setDistributionConfig(address,uint256,(address[],address,address,address,uint256))":"f47f0084","supportsInterface(bytes4)":"01ffc9a7","upgradeToAndCall(address,bytes)":"4f1ef286"},"id":118}