{"abi":[{"type":"constructor","inputs":[{"name":"wmito","type":"address","internalType":"address"},{"name":"gmMito","type":"address","internalType":"address"},{"name":"collateralOracle","type":"address","internalType":"address"},{"name":"epochFeeder","type":"address","internalType":"address"},{"name":"rewardDistributor","type":"address","internalType":"address"},{"name":"validatorManager","type":"address","internalType":"address"}],"stateMutability":"nonpayable"},{"type":"receive","stateMutability":"payable"},{"type":"function","name":"COLLATERAL_ORACLE","inputs":[],"outputs":[{"name":"","type":"address","internalType":"contract ICollateralOracleFeed"}],"stateMutability":"view"},{"type":"function","name":"DEFAULT_ADMIN_ROLE","inputs":[],"outputs":[{"name":"","type":"bytes32","internalType":"bytes32"}],"stateMutability":"view"},{"type":"function","name":"EPOCH_FEEDER","inputs":[],"outputs":[{"name":"","type":"address","internalType":"contract IEpochFeeder"}],"stateMutability":"view"},{"type":"function","name":"GIT_COMMIT","inputs":[],"outputs":[{"name":"","type":"string","internalType":"string"}],"stateMutability":"view"},{"type":"function","name":"GIT_TAG","inputs":[],"outputs":[{"name":"","type":"string","internalType":"string"}],"stateMutability":"view"},{"type":"function","name":"GMITO","inputs":[],"outputs":[{"name":"","type":"address","internalType":"contract IGovMITO"}],"stateMutability":"view"},{"type":"function","name":"GM_MITO","inputs":[],"outputs":[{"name":"","type":"address","internalType":"contract IgmMITO"}],"stateMutability":"view"},{"type":"function","name":"OPERATOR_ROLE","inputs":[],"outputs":[{"name":"","type":"bytes32","internalType":"bytes32"}],"stateMutability":"view"},{"type":"function","name":"REWARD_DISTRIBUTOR","inputs":[],"outputs":[{"name":"","type":"address","internalType":"contract IValidatorRewardDistributor"}],"stateMutability":"view"},{"type":"function","name":"UPGRADE_INTERFACE_VERSION","inputs":[],"outputs":[{"name":"","type":"string","internalType":"string"}],"stateMutability":"view"},{"type":"function","name":"VALIDATOR_MANAGER","inputs":[],"outputs":[{"name":"","type":"address","internalType":"contract IValidatorManager"}],"stateMutability":"view"},{"type":"function","name":"WMITO","inputs":[],"outputs":[{"name":"","type":"address","internalType":"contract WETH"}],"stateMutability":"view"},{"type":"function","name":"claimForNonTargets","inputs":[{"name":"validator","type":"address","internalType":"address"},{"name":"vaults","type":"address[]","internalType":"address[]"},{"name":"fromEpoch","type":"uint256","internalType":"uint256"},{"name":"toEpoch","type":"uint256","internalType":"uint256"}],"outputs":[{"name":"totalClaimed","type":"uint256","internalType":"uint256"}],"stateMutability":"nonpayable"},{"type":"function","name":"claimRewards","inputs":[{"name":"validator","type":"address","internalType":"address"},{"name":"fromEpoch","type":"uint256","internalType":"uint256"},{"name":"toEpoch","type":"uint256","internalType":"uint256"}],"outputs":[{"name":"totalClaimed","type":"uint256","internalType":"uint256"}],"stateMutability":"nonpayable"},{"type":"function","name":"currentEpoch","inputs":[],"outputs":[{"name":"","type":"uint256","internalType":"uint256"}],"stateMutability":"view"},{"type":"function","name":"distributeRewards","inputs":[{"name":"validator","type":"address","internalType":"address"}],"outputs":[{"name":"gmMitoAmount","type":"uint256","internalType":"uint256"}],"stateMutability":"nonpayable"},{"type":"function","name":"finalizeEpoch","inputs":[{"name":"epoch","type":"uint256","internalType":"uint256"},{"name":"validator","type":"address","internalType":"address"}],"outputs":[{"name":"totalGmMito","type":"uint256","internalType":"uint256"}],"stateMutability":"nonpayable"},{"type":"function","name":"finalizeEpochs","inputs":[{"name":"fromEpoch","type":"uint256","internalType":"uint256"},{"name":"toEpoch","type":"uint256","internalType":"uint256"},{"name":"validator","type":"address","internalType":"address"}],"outputs":[{"name":"totalGmMito","type":"uint256","internalType":"uint256"}],"stateMutability":"nonpayable"},{"type":"function","name":"getApplicableConfig","inputs":[{"name":"validator","type":"address","internalType":"address"},{"name":"epoch","type":"uint256","internalType":"uint256"}],"outputs":[{"name":"config","type":"tuple","internalType":"struct IRewardRouter.DistributionConfig","components":[{"name":"targets","type":"address[]","internalType":"address[]"},{"name":"operator","type":"address","internalType":"address"},{"name":"defaultRecipient","type":"address","internalType":"address"},{"name":"feeRecipient","type":"address","internalType":"address"},{"name":"commissionRate","type":"uint256","internalType":"uint256"}]}],"stateMutability":"view"},{"type":"function","name":"getClaimableRewards","inputs":[{"name":"validator","type":"address","internalType":"address"},{"name":"vault","type":"address","internalType":"address"},{"name":"fromEpoch","type":"uint256","internalType":"uint256"},{"name":"toEpoch","type":"uint256","internalType":"uint256"}],"outputs":[{"name":"totalClaimable","type":"uint256","internalType":"uint256"}],"stateMutability":"view"},{"type":"function","name":"getConfigEpochsCount","inputs":[{"name":"validator","type":"address","internalType":"address"}],"outputs":[{"name":"","type":"uint256","internalType":"uint256"}],"stateMutability":"view"},{"type":"function","name":"getConfigEpochsRange","inputs":[{"name":"validator","type":"address","internalType":"address"},{"name":"startIndex","type":"uint256","internalType":"uint256"},{"name":"endIndex","type":"uint256","internalType":"uint256"}],"outputs":[{"name":"epochs","type":"uint256[]","internalType":"uint256[]"}],"stateMutability":"view"},{"type":"function","name":"getDistributionConfig","inputs":[{"name":"validator","type":"address","internalType":"address"},{"name":"epoch","type":"uint256","internalType":"uint256"}],"outputs":[{"name":"config","type":"tuple","internalType":"struct IRewardRouter.DistributionConfig","components":[{"name":"targets","type":"address[]","internalType":"address[]"},{"name":"operator","type":"address","internalType":"address"},{"name":"defaultRecipient","type":"address","internalType":"address"},{"name":"feeRecipient","type":"address","internalType":"address"},{"name":"commissionRate","type":"uint256","internalType":"uint256"}]}],"stateMutability":"view"},{"type":"function","name":"getEpochReward","inputs":[{"name":"epoch","type":"uint256","internalType":"uint256"},{"name":"validator","type":"address","internalType":"address"}],"outputs":[{"name":"totalGmMito","type":"uint256","internalType":"uint256"},{"name":"totalTWAB","type":"uint256","internalType":"uint256"},{"name":"finalized","type":"bool","internalType":"bool"}],"stateMutability":"view"},{"type":"function","name":"getLastFinalizedEpoch","inputs":[{"name":"validator","type":"address","internalType":"address"}],"outputs":[{"name":"","type":"uint256","internalType":"uint256"}],"stateMutability":"view"},{"type":"function","name":"getRoleAdmin","inputs":[{"name":"role","type":"bytes32","internalType":"bytes32"}],"outputs":[{"name":"","type":"bytes32","internalType":"bytes32"}],"stateMutability":"view"},{"type":"function","name":"getRoleMember","inputs":[{"name":"role","type":"bytes32","internalType":"bytes32"},{"name":"index","type":"uint256","internalType":"uint256"}],"outputs":[{"name":"","type":"address","internalType":"address"}],"stateMutability":"view"},{"type":"function","name":"getRoleMemberCount","inputs":[{"name":"role","type":"bytes32","internalType":"bytes32"}],"outputs":[{"name":"","type":"uint256","internalType":"uint256"}],"stateMutability":"view"},{"type":"function","name":"getRoleMembers","inputs":[{"name":"role","type":"bytes32","internalType":"bytes32"}],"outputs":[{"name":"","type":"address[]","internalType":"address[]"}],"stateMutability":"view"},{"type":"function","name":"getVaultClaimed","inputs":[{"name":"epoch","type":"uint256","internalType":"uint256"},{"name":"validator","type":"address","internalType":"address"},{"name":"vault","type":"address","internalType":"address"}],"outputs":[{"name":"","type":"uint256","internalType":"uint256"}],"stateMutability":"view"},{"type":"function","name":"gmMitoBalance","inputs":[],"outputs":[{"name":"","type":"uint256","internalType":"uint256"}],"stateMutability":"view"},{"type":"function","name":"grantRole","inputs":[{"name":"role","type":"bytes32","internalType":"bytes32"},{"name":"account","type":"address","internalType":"address"}],"outputs":[],"stateMutability":"nonpayable"},{"type":"function","name":"hasRole","inputs":[{"name":"role","type":"bytes32","internalType":"bytes32"},{"name":"account","type":"address","internalType":"address"}],"outputs":[{"name":"","type":"bool","internalType":"bool"}],"stateMutability":"view"},{"type":"function","name":"initialize","inputs":[{"name":"initialOwner","type":"address","internalType":"address"}],"outputs":[],"stateMutability":"nonpayable"},{"type":"function","name":"isTarget","inputs":[{"name":"validator","type":"address","internalType":"address"},{"name":"vault","type":"address","internalType":"address"},{"name":"epoch","type":"uint256","internalType":"uint256"}],"outputs":[{"name":"","type":"bool","internalType":"bool"}],"stateMutability":"view"},{"type":"function","name":"proxiableUUID","inputs":[],"outputs":[{"name":"","type":"bytes32","internalType":"bytes32"}],"stateMutability":"view"},{"type":"function","name":"renounceRole","inputs":[{"name":"role","type":"bytes32","internalType":"bytes32"},{"name":"callerConfirmation","type":"address","internalType":"address"}],"outputs":[],"stateMutability":"nonpayable"},{"type":"function","name":"revokeRole","inputs":[{"name":"role","type":"bytes32","internalType":"bytes32"},{"name":"account","type":"address","internalType":"address"}],"outputs":[],"stateMutability":"nonpayable"},{"type":"function","name":"setDistributionConfig","inputs":[{"name":"validator","type":"address","internalType":"address"},{"name":"startEpoch","type":"uint256","internalType":"uint256"},{"name":"config","type":"tuple","internalType":"struct IRewardRouter.DistributionConfig","components":[{"name":"targets","type":"address[]","internalType":"address[]"},{"name":"operator","type":"address","internalType":"address"},{"name":"defaultRecipient","type":"address","internalType":"address"},{"name":"feeRecipient","type":"address","internalType":"address"},{"name":"commissionRate","type":"uint256","internalType":"uint256"}]}],"outputs":[],"stateMutability":"nonpayable"},{"type":"function","name":"setOperatorClaimApproval","inputs":[{"name":"validator","type":"address","internalType":"address"},{"name":"claimer","type":"address","internalType":"address"},{"name":"approval","type":"bool","internalType":"bool"}],"outputs":[],"stateMutability":"nonpayable"},{"type":"function","name":"supportsInterface","inputs":[{"name":"interfaceId","type":"bytes4","internalType":"bytes4"}],"outputs":[{"name":"","type":"bool","internalType":"bool"}],"stateMutability":"view"},{"type":"function","name":"upgradeToAndCall","inputs":[{"name":"newImplementation","type":"address","internalType":"address"},{"name":"data","type":"bytes","internalType":"bytes"}],"outputs":[],"stateMutability":"payable"},{"type":"event","name":"DistributionConfigSet","inputs":[{"name":"validator","type":"address","indexed":true,"internalType":"address"},{"name":"startEpoch","type":"uint256","indexed":true,"internalType":"uint256"},{"name":"config","type":"tuple","indexed":false,"internalType":"struct IRewardRouter.DistributionConfig","components":[{"name":"targets","type":"address[]","internalType":"address[]"},{"name":"operator","type":"address","internalType":"address"},{"name":"defaultRecipient","type":"address","internalType":"address"},{"name":"feeRecipient","type":"address","internalType":"address"},{"name":"commissionRate","type":"uint256","internalType":"uint256"}]}],"anonymous":false},{"type":"event","name":"EpochRewardsFinalized","inputs":[{"name":"epoch","type":"uint256","indexed":true,"internalType":"uint256"},{"name":"validator","type":"address","indexed":true,"internalType":"address"},{"name":"totalGmMito","type":"uint256","indexed":false,"internalType":"uint256"},{"name":"totalTWAB","type":"uint256","indexed":false,"internalType":"uint256"}],"anonymous":false},{"type":"event","name":"EpochSkipped","inputs":[{"name":"epoch","type":"uint256","indexed":true,"internalType":"uint256"},{"name":"validator","type":"address","indexed":true,"internalType":"address"}],"anonymous":false},{"type":"event","name":"FeeTaken","inputs":[{"name":"epoch","type":"uint256","indexed":true,"internalType":"uint256"},{"name":"validator","type":"address","indexed":true,"internalType":"address"},{"name":"vault","type":"address","indexed":true,"internalType":"address"},{"name":"amount","type":"uint256","indexed":false,"internalType":"uint256"}],"anonymous":false},{"type":"event","name":"GmMitoTransferred","inputs":[{"name":"vault","type":"address","indexed":true,"internalType":"address"},{"name":"gmMitoAmount","type":"uint256","indexed":false,"internalType":"uint256"}],"anonymous":false},{"type":"event","name":"Initialized","inputs":[{"name":"version","type":"uint64","indexed":false,"internalType":"uint64"}],"anonymous":false},{"type":"event","name":"NonTargetRewardsClaimed","inputs":[{"name":"epoch","type":"uint256","indexed":true,"internalType":"uint256"},{"name":"validator","type":"address","indexed":true,"internalType":"address"},{"name":"vault","type":"address","indexed":true,"internalType":"address"},{"name":"recipient","type":"address","indexed":false,"internalType":"address"},{"name":"amount","type":"uint256","indexed":false,"internalType":"uint256"}],"anonymous":false},{"type":"event","name":"RewardDistributed","inputs":[{"name":"validator","type":"address","indexed":true,"internalType":"address"},{"name":"gmMitoAmount","type":"uint256","indexed":false,"internalType":"uint256"}],"anonymous":false},{"type":"event","name":"RoleAdminChanged","inputs":[{"name":"role","type":"bytes32","indexed":true,"internalType":"bytes32"},{"name":"previousAdminRole","type":"bytes32","indexed":true,"internalType":"bytes32"},{"name":"newAdminRole","type":"bytes32","indexed":true,"internalType":"bytes32"}],"anonymous":false},{"type":"event","name":"RoleGranted","inputs":[{"name":"role","type":"bytes32","indexed":true,"internalType":"bytes32"},{"name":"account","type":"address","indexed":true,"internalType":"address"},{"name":"sender","type":"address","indexed":true,"internalType":"address"}],"anonymous":false},{"type":"event","name":"RoleRevoked","inputs":[{"name":"role","type":"bytes32","indexed":true,"internalType":"bytes32"},{"name":"account","type":"address","indexed":true,"internalType":"address"},{"name":"sender","type":"address","indexed":true,"internalType":"address"}],"anonymous":false},{"type":"event","name":"Upgraded","inputs":[{"name":"implementation","type":"address","indexed":true,"internalType":"address"}],"anonymous":false},{"type":"event","name":"VaultShareClaimed","inputs":[{"name":"epoch","type":"uint256","indexed":true,"internalType":"uint256"},{"name":"validator","type":"address","indexed":true,"internalType":"address"},{"name":"vault","type":"address","indexed":true,"internalType":"address"},{"name":"vaultTWAB","type":"uint256","indexed":false,"internalType":"uint256"},{"name":"gmMitoAmount","type":"uint256","indexed":false,"internalType":"uint256"}],"anonymous":false},{"type":"error","name":"AccessControlBadConfirmation","inputs":[]},{"type":"error","name":"AccessControlUnauthorizedAccount","inputs":[{"name":"account","type":"address","internalType":"address"},{"name":"neededRole","type":"bytes32","internalType":"bytes32"}]},{"type":"error","name":"AddressEmptyCode","inputs":[{"name":"target","type":"address","internalType":"address"}]},{"type":"error","name":"ERC1967InvalidImplementation","inputs":[{"name":"implementation","type":"address","internalType":"address"}]},{"type":"error","name":"ERC1967NonPayable","inputs":[]},{"type":"error","name":"EpochAlreadyFinalized","inputs":[]},{"type":"error","name":"FailedCall","inputs":[]},{"type":"error","name":"InvalidCommissionRate","inputs":[{"name":"rate","type":"uint256","internalType":"uint256"}]},{"type":"error","name":"InvalidEpoch","inputs":[]},{"type":"error","name":"InvalidEpochOrder","inputs":[{"name":"startEpoch","type":"uint256","internalType":"uint256"},{"name":"lastConfigEpoch","type":"uint256","internalType":"uint256"}]},{"type":"error","name":"InvalidInitialization","inputs":[]},{"type":"error","name":"InvalidValidator","inputs":[]},{"type":"error","name":"InvalidVault","inputs":[]},{"type":"error","name":"NoRewards","inputs":[]},{"type":"error","name":"NotInitializing","inputs":[]},{"type":"error","name":"NotTarget","inputs":[]},{"type":"error","name":"UUPSUnauthorizedCallContext","inputs":[]},{"type":"error","name":"UUPSUnsupportedProxiableUUID","inputs":[{"name":"slot","type":"bytes32","internalType":"bytes32"}]},{"type":"error","name":"Unauthorized","inputs":[]},{"type":"error","name":"ZeroAddress","inputs":[]},{"type":"error","name":"ZeroAmount","inputs":[]}],"bytecode":{"object":"0x61018060405230608052348015610014575f5ffd5b5060405161552f38038061552f833981016040819052610033916102f0565b6001600160a01b03861661005a5760405163d92e233d60e01b815260040160405180910390fd5b6001600160a01b0385166100815760405163d92e233d60e01b815260040160405180910390fd5b6001600160a01b0384166100a85760405163d92e233d60e01b815260040160405180910390fd5b6001600160a01b0383166100cf5760405163d92e233d60e01b815260040160405180910390fd5b6001600160a01b0382166100f65760405163d92e233d60e01b815260040160405180910390fd5b6001600160a01b03811661011d5760405163d92e233d60e01b815260040160405180910390fd5b6001600160a01b0380871660e05285811660c05284811661010052838116610140528281166101208190529082166101605260408051630bdcaec360e41b8152905163bdcaec30916004808201926020929091908290030181865afa158015610188573d5f5f3e3d5ffd5b505050506040513d601f19601f820116820180604052508101906101ac9190610373565b6001600160a01b031663caffd74e6040518163ffffffff1660e01b8152600401602060405180830381865afa1580156101e7573d5f5f3e3d5ffd5b505050506040513d601f19601f8201168201806040525081019061020b9190610373565b6001600160a01b031660a05261021f61022a565b505050505050610395565b7ff0c57e16840df040f15088dc2f81fe391c3923bec73e23a9662efc9c229c6a00805468010000000000000000900460ff161561027a5760405163f92ee8a960e01b815260040160405180910390fd5b80546001600160401b03908116146102d95780546001600160401b0319166001600160401b0390811782556040519081527fc7f505b2f371ae2175ee4913f4499e1f2633a7b5936321eed1cdaeb6115181d29060200160405180910390a15b50565b6001600160a01b03811681146102d9575f5ffd5b5f5f5f5f5f5f60c08789031215610305575f5ffd5b8651610310816102dc565b6020880151909650610321816102dc565b6040880151909550610332816102dc565b6060880151909450610343816102dc565b6080880151909350610354816102dc565b60a0880151909250610365816102dc565b809150509295509295509295565b5f60208284031215610383575f5ffd5b815161038e816102dc565b9392505050565b60805160a05160c05160e051610100516101205161014051610160516150826104ad5f395f818161084d0152612f1201525f81816109cb0152818161130e015281816120750152818161210a01528181612b3e01528181612bd301528181613343015281816133d8015281816138a6015261393b01525f8181610654015281816112ae01528181612879015261371c01525f81816105e30152818161204601528181612b0f01528181613314015261433901525f81816102cc015281816102fb01526108dc01525f818161052a01528181610c2301528181611166015281816114dd015281816124180152818161297d0152613e7201525f61099801525f81816124a2015281816124cb015261267f01526150825ff3fe6080604052600436106102c4575f3560e01c806393f37e4411610170578063b919ba1a116100d1578063dd6b645611610087578063f5b541a611610062578063f5b541a614610a0c578063fb1615c714610a3f578063fe1a624314610a5e575f5ffd5b8063dd6b645614610987578063f3adae77146109ba578063f47f0084146109ed575f5ffd5b8063ca15c873116100b7578063ca15c8731461091d578063d547741f1461093c578063d9abb4331461095b575f5ffd5b8063b919ba1a146108cb578063c4d66de8146108fe575f5ffd5b8063a3246ad311610126578063ae9483e01161010c578063ae9483e01461083c578063b175eb4d1461086f578063b8a15e3a146108b7575f5ffd5b8063a3246ad3146107bb578063ad3cb1cc146107e7575f5ffd5b80639683f2de116101565780639683f2de146107365780639f4c271e14610755578063a217fddf146107a8575f5ffd5b806393f37e44146106f857806394bfd60414610717575f5ffd5b80634f1ef286116102255780637a79bd5c116101db5780638de728e4116101b65780638de728e4146106435780639010d07c1461067657806391d1485414610695575f5ffd5b80637a79bd5c146105d25780637c8cca36146106055780637ca3520914610624575f5ffd5b8063564cdf081161020b578063564cdf081461058b5780635bdc86501461059f57806376671808146105be575f5ffd5b80634f1ef2861461056457806352d1902d14610577575f5ffd5b80632f2ff15d1161027a5780633653d27f116102605780633653d27f146104db57806336568abe146104fa5780633bed90ce14610519575f5ffd5b80632f2ff15d1461049d5780633075fe4e146104bc575f5ffd5b80631e9ca6e8116102aa5780631e9ca6e8146103d1578063248a9ca314610424578063262dd9fe14610471575f5ffd5b806301ffc9a7146103705780631de9d9b6146103a4575f5ffd5b3661036c57337f00000000000000000000000000000000000000000000000000000000000000006001600160a01b03161461036a577f00000000000000000000000000000000000000000000000000000000000000006001600160a01b031663d0e30db0346040518263ffffffff1660e01b81526004015f604051808303818588803b158015610352575f5ffd5b505af1158015610364573d5f5f3e3d5ffd5b50505050505b005b5f5ffd5b34801561037b575f5ffd5b5061038f61038a3660046144af565b610aeb565b60405190151581526020015b60405180910390f35b3480156103af575f5ffd5b506103c36103be366004614512565b610b46565b60405190815260200161039b565b3480156103dc575f5ffd5b506103c36103eb366004614512565b6001600160a01b03165f9081527ffa2183a4b9e35594495ef24f5060c5bba566c21a062a2b524b653f03c859a704602052604090205490565b34801561042f575f5ffd5b506103c361043e36600461452d565b5f9081527f02dd7bc7dec4dceedda775e58dd541e08a116c6c53815c0bd028192f7b626800602052604090206001015490565b34801561047c575f5ffd5b5061049061048b366004614544565b610d21565b60405161039b919061456e565b3480156104a8575f5ffd5b5061036a6104b7366004614618565b610e0e565b3480156104c7575f5ffd5b506103c36104d6366004614646565b610e57565b3480156104e6575f5ffd5b506103c36104f5366004614689565b610f7b565b348015610505575f5ffd5b5061036a610514366004614618565b611098565b348015610524575f5ffd5b5061054c7f000000000000000000000000000000000000000000000000000000000000000081565b6040516001600160a01b03909116815260200161039b565b61036a6105723660046147cc565b6110e9565b348015610582575f5ffd5b506103c3611108565b348015610596575f5ffd5b506103c3611136565b3480156105aa575f5ffd5b5061036a6105b9366004614866565b6111dc565b3480156105c9575f5ffd5b506103c361130b565b3480156105dd575f5ffd5b5061054c7f000000000000000000000000000000000000000000000000000000000000000081565b348015610610575f5ffd5b506103c361061f366004614618565b611368565b34801561062f575f5ffd5b506103c361063e3660046148ae565b6113a6565b34801561064e575f5ffd5b5061054c7f000000000000000000000000000000000000000000000000000000000000000081565b348015610681575f5ffd5b5061054c6106903660046148e0565b61150c565b3480156106a0575f5ffd5b5061038f6106af366004614618565b5f9182527f02dd7bc7dec4dceedda775e58dd541e08a116c6c53815c0bd028192f7b626800602090815260408084206001600160a01b0393909316845291905290205460ff1690565b348015610703575f5ffd5b506103c3610712366004614900565b611544565b348015610722575f5ffd5b50610490610731366004614544565b611598565b348015610741575f5ffd5b506103c3610750366004614934565b6116b1565b348015610760575f5ffd5b506103c361076f366004614512565b6001600160a01b03165f9081527ffa2183a4b9e35594495ef24f5060c5bba566c21a062a2b524b653f03c859a702602052604090205490565b3480156107b3575f5ffd5b506103c35f81565b3480156107c6575f5ffd5b506107da6107d536600461452d565b6116f0565b60405161039b91906149a2565b3480156107f2575f5ffd5b5061082f6040518060400160405280600581526020017f352e302e3000000000000000000000000000000000000000000000000000000081525081565b60405161039b91906149b4565b348015610847575f5ffd5b5061054c7f000000000000000000000000000000000000000000000000000000000000000081565b34801561087a575f5ffd5b5061082f6040518060400160405280600681526020017f76302e302e38000000000000000000000000000000000000000000000000000081525081565b3480156108c2575f5ffd5b5061082f61172c565b3480156108d6575f5ffd5b5061054c7f000000000000000000000000000000000000000000000000000000000000000081565b348015610909575f5ffd5b5061036a610918366004614512565b611748565b348015610928575f5ffd5b506103c361093736600461452d565b611918565b348015610947575f5ffd5b5061036a610956366004614618565b61194f565b348015610966575f5ffd5b5061097a6109753660046148ae565b611992565b60405161039b91906149e9565b348015610992575f5ffd5b5061054c7f000000000000000000000000000000000000000000000000000000000000000081565b3480156109c5575f5ffd5b5061054c7f000000000000000000000000000000000000000000000000000000000000000081565b3480156109f8575f5ffd5b5061036a610a07366004614a2b565b611ad3565b348015610a17575f5ffd5b506103c37f46a52cf33029de9f84853745a87af28464c80bf0346df1b32e205fc73319f62281565b348015610a4a575f5ffd5b5061038f610a59366004614a7b565b611e90565b348015610a69575f5ffd5b50610ace610a78366004614618565b6001600160a01b03165f9081527ffa2183a4b9e35594495ef24f5060c5bba566c21a062a2b524b653f03c859a700602090815260408083209383529290522080546001820154600290920154909260ff90911690565b60408051938452602084019290925215159082015260600161039b565b5f7fffffffff0000000000000000000000000000000000000000000000000000000082167f5a05180f000000000000000000000000000000000000000000000000000000001480610b405750610b4082611ed4565b92915050565b5f7f46a52cf33029de9f84853745a87af28464c80bf0346df1b32e205fc73319f622610b7181611f6a565b6001600160a01b038316610bb1576040517fd92e233d00000000000000000000000000000000000000000000000000000000815260040160405180910390fd5b6040805160018082528183019092525f916020808301908036833701905050905083815f81518110610be557610be5614ab9565b6001600160a01b0392831660209182029290920101526040517f3f2a33f90000000000000000000000000000000000000000000000000000000081527f000000000000000000000000000000000000000000000000000000000000000090911690633f2a33f990610c5c9084903090600401614ae6565b6020604051808303815f875af1158015610c78573d5f5f3e3d5ffd5b505050506040513d601f19601f82011682018060405250810190610c9c9190614b10565b92505f8311610cd7576040517f3fb087f400000000000000000000000000000000000000000000000000000000815260040160405180910390fd5b836001600160a01b03167fe34918ff1c7084970068b53fd71ad6d8b04e9f15d3886cbf006443e6cdc52ea684604051610d1291815260200190565b60405180910390a25050919050565b6040805160a08101825260608082525f60208301819052928201839052810182905260808101829052907ffa2183a4b9e35594495ef24f5060c5bba566c21a062a2b524b653f03c859a70090610d78828686611f77565b805460408051602080840282018101909252828152929350839190830182828015610dca57602002820191905f5260205f20905b81546001600160a01b03168152600190910190602001808311610dac575b505050918552505060018101546001600160a01b03908116602085015260028201548116604085015260038201541660608401526004015460808301525092915050565b5f8281527f02dd7bc7dec4dceedda775e58dd541e08a116c6c53815c0bd028192f7b6268006020526040902060010154610e4781611f6a565b610e518383611fb1565b50505050565b5f6001600160a01b038516610e98576040517fd92e233d00000000000000000000000000000000000000000000000000000000815260040160405180910390fd5b6001600160a01b038416610ed8576040517fd92e233d00000000000000000000000000000000000000000000000000000000815260040160405180910390fd5b5f83118015610ee75750828210155b610f1d576040517fd5b25b6300000000000000000000000000000000000000000000000000000000815260040160405180910390fd5b7ffa2183a4b9e35594495ef24f5060c5bba566c21a062a2b524b653f03c859a700835b838111610f7157610f5382888884612006565b610f5d9084614b54565b925080610f6981614b67565b915050610f40565b5050949350505050565b5f6001600160a01b038616610fbc576040517fd92e233d00000000000000000000000000000000000000000000000000000000815260040160405180910390fd5b5f83118015610fcb5750828210155b611001576040517fd5b25b6300000000000000000000000000000000000000000000000000000000815260040160405180910390fd5b335f8181527f11408c214e50776f0f6e546bf3b89e7953bf3ba3b172efa6ff1ba292b2d1b3b260205260409020547ffa2183a4b9e35594495ef24f5060c5bba566c21a062a2b524b653f03c859a700919060ff16855b85811161108b5761106d848b8b8b8588886122fe565b6110779086614b54565b94508061108381614b67565b915050611057565b5050505095945050505050565b6001600160a01b03811633146110da576040517f6697b23200000000000000000000000000000000000000000000000000000000815260040160405180910390fd5b6110e4828261244b565b505050565b6110f1612497565b6110fa82612569565b6111048282612573565b5050565b5f611111612674565b507f360894a13ba1a3210667c828492db98dca3e2076cc3735a920a3ca505d382bbc90565b6040517f70a082310000000000000000000000000000000000000000000000000000000081523060048201525f907f00000000000000000000000000000000000000000000000000000000000000006001600160a01b0316906370a0823190602401602060405180830381865afa1580156111b3573d5f5f3e3d5ffd5b505050506040513d601f19601f820116820180604052508101906111d79190614b10565b905090565b5f6111e681611f6a565b6001600160a01b038416611226576040517fd92e233d00000000000000000000000000000000000000000000000000000000815260040160405180910390fd5b6001600160a01b038316611266576040517fd92e233d00000000000000000000000000000000000000000000000000000000815260040160405180910390fd5b6040517f53c6fdd00000000000000000000000000000000000000000000000000000000081526001600160a01b038581166004830152848116602483015283151560448301527f000000000000000000000000000000000000000000000000000000000000000016906353c6fdd0906064015f604051808303815f87803b1580156112ef575f5ffd5b505af1158015611301573d5f5f3e3d5ffd5b5050505050505050565b5f7f00000000000000000000000000000000000000000000000000000000000000006001600160a01b031663900cf0cf6040518163ffffffff1660e01b8152600401602060405180830381865afa1580156111b3573d5f5f3e3d5ffd5b5f7f46a52cf33029de9f84853745a87af28464c80bf0346df1b32e205fc73319f62261139381611f6a565b61139e8485856126d6565b949350505050565b5f6001600160a01b0384166113e7576040517fd92e233d00000000000000000000000000000000000000000000000000000000815260040160405180910390fd5b5f831180156113f65750828210155b61142c576040517fd5b25b6300000000000000000000000000000000000000000000000000000000815260040160405180910390fd5b337ffa2183a4b9e35594495ef24f5060c5bba566c21a062a2b524b653f03c859a700845b8481116114d1575f611463838984611f77565b905061146f8185612a40565b6114a5576040517f65ec05a200000000000000000000000000000000000000000000000000000000815260040160405180910390fd5b6114b183838a87612aa0565b6114bb9086614b54565b94505080806114c990614b67565b915050611450565b508215611503576115037f00000000000000000000000000000000000000000000000000000000000000008385612df7565b50509392505050565b5f8281527fc1f6fe24621ce81ec5827caf0253cadb74709b061630e6b55e8237170593200060208190526040822061139e9084612e4a565b6001600160a01b038281165f9081527ffa2183a4b9e35594495ef24f5060c5bba566c21a062a2b524b653f03c859a701602090815260408083209385168352928152828220868352905220545b9392505050565b6040805160a08101825260608082525f6020808401829052838501829052918301819052608083018190526001600160a01b03861681527ffa2183a4b9e35594495ef24f5060c5bba566c21a062a2b524b653f03c859a70382528381208582528252839020805484518184028101840190955280855292937ffa2183a4b9e35594495ef24f5060c5bba566c21a062a2b524b653f03c859a70093919290918391830182828015610dca57602002820191905f5260205f209081546001600160a01b03168152600190910190602001808311610dac57505050918552505060018101546001600160a01b03908116602085015260028201548116604085015260038201541660608401526004015460808301525092915050565b5f7f46a52cf33029de9f84853745a87af28464c80bf0346df1b32e205fc73319f6226116dc81611f6a565b6116e78585856126d6565b95945050505050565b5f8181527fc1f6fe24621ce81ec5827caf0253cadb74709b061630e6b55e82371705932000602081905260409091206060919061159190612e55565b6040518060600160405280602881526020016150256028913981565b7ff0c57e16840df040f15088dc2f81fe391c3923bec73e23a9662efc9c229c6a00805468010000000000000000810460ff16159067ffffffffffffffff165f811580156117925750825b90505f8267ffffffffffffffff1660011480156117ae5750303b155b9050811580156117bc575080155b156117f3576040517ff92ee8a900000000000000000000000000000000000000000000000000000000815260040160405180910390fd5b84547fffffffffffffffffffffffffffffffffffffffffffffffff000000000000000016600117855583156118545784547fffffffffffffffffffffffffffffffffffffffffffffff00ffffffffffffffff16680100000000000000001785555b6001600160a01b038616611894576040517fd92e233d00000000000000000000000000000000000000000000000000000000815260040160405180910390fd5b61189c612e61565b6118a4612e61565b6118ae5f87611fb1565b5083156119105784547fffffffffffffffffffffffffffffffffffffffffffffff00ffffffffffffffff168555604051600181527fc7f505b2f371ae2175ee4913f4499e1f2633a7b5936321eed1cdaeb6115181d29060200160405180910390a15b505050505050565b5f8181527fc1f6fe24621ce81ec5827caf0253cadb74709b061630e6b55e8237170593200060208190526040822061159190612e69565b5f8281527f02dd7bc7dec4dceedda775e58dd541e08a116c6c53815c0bd028192f7b626800602052604090206001015461198881611f6a565b610e51838361244b565b6001600160a01b0383165f9081527ffa2183a4b9e35594495ef24f5060c5bba566c21a062a2b524b653f03c859a70460205260409020805460609190808510611a0a575f5b604051908082528060200260200182016040528015611a00578160200160208202803683370190505b5092505050611591565b80841115611a16578093505b848411611a23575f6119d7565b5f611a2e8686614b9e565b90508067ffffffffffffffff811115611a4957611a4961471d565b604051908082528060200260200182016040528015611a72578160200160208202803683370190505b5093505f5b81811015611ac85783611a8a8289614b54565b81548110611a9a57611a9a614ab9565b905f5260205f200154858281518110611ab557611ab5614ab9565b6020908102919091010152600101611a77565b505050509392505050565b6001600160a01b038316611b13576040517fd92e233d00000000000000000000000000000000000000000000000000000000815260040160405180910390fd5b6080810135612710811115611b60576040517f7c27fae2000000000000000000000000000000000000000000000000000000008152600401611b5791815260200190565b60405180910390fd5b507ffa2183a4b9e35594495ef24f5060c5bba566c21a062a2b524b653f03c859a700611b8d818585612e72565b6001600160a01b0384165f9081526004820160205260409020805415611c495780548190611bbd90600190614b9e565b81548110611bcd57611bcd614ab9565b905f5260205f200154841015848260018480549050611bec9190614b9e565b81548110611bfc57611bfc614ab9565b905f5260205f2001549091611c46576040517f84122f3800000000000000000000000000000000000000000000000000000000815260048101929092526024820152604401611b57565b50505b6001600160a01b0385165f908152600383016020908152604080832087845282529182902091611c7e91908601908601614512565b6001820180547fffffffffffffffffffffffff0000000000000000000000000000000000000000166001600160a01b0392909216919091179055611cc86060850160408601614512565b6002820180547fffffffffffffffffffffffff0000000000000000000000000000000000000000166001600160a01b0392909216919091179055611d126080850160608601614512565b6003820180547fffffffffffffffffffffffff0000000000000000000000000000000000000000166001600160a01b039290921691909117905560808401356004820155611d60815f614481565b5f5b611d6c8580614bb1565b9050811015611df45781611d808680614bb1565b83818110611d9057611d90614ab9565b9050602002016020810190611da59190614512565b8154600180820184555f93845260209093200180547fffffffffffffffffffffffff0000000000000000000000000000000000000000166001600160a01b039290921691909117905501611d62565b5081541580611e2c5750815485908390611e1090600190614b9e565b81548110611e2057611e20614ab9565b905f5260205f20015414155b15611e465781546001810183555f83815260209020018590555b84866001600160a01b03167ffa86f71fb405a4f3c8fe0b059720aad6817a4c3fd9ef40267d349ebf42d5c44786604051611e809190614c5a565b60405180910390a3505050505050565b5f7ffa2183a4b9e35594495ef24f5060c5bba566c21a062a2b524b653f03c859a70081611ebe828786611f77565b9050611eca8186612a40565b9695505050505050565b5f7fffffffff0000000000000000000000000000000000000000000000000000000082167f7965db0b000000000000000000000000000000000000000000000000000000001480610b4057507f01ffc9a7000000000000000000000000000000000000000000000000000000007fffffffff00000000000000000000000000000000000000000000000000000000831614610b40565b611f748133612fce565b50565b5f5f611f8485858561305a565b6001600160a01b0385165f9081526003870160209081526040808320938352929052209150509392505050565b5f7fc1f6fe24621ce81ec5827caf0253cadb74709b061630e6b55e8237170593200081611fde85856130fa565b9050801561139e575f858152602083905260409020611ffd90856131e4565b50949350505050565b6001600160a01b038084165f908152600186016020908152604080832093861683529281528282208483529052908120541561204357505f61139e565b5f7f00000000000000000000000000000000000000000000000000000000000000006001600160a01b03166390aaa0467f00000000000000000000000000000000000000000000000000000000000000006001600160a01b0316636f5e290f866040518263ffffffff1660e01b81526004016120c191815260200190565b602060405180830381865afa1580156120dc573d5f5f3e3d5ffd5b505050506040513d601f19601f820116820180604052508101906121009190614d3e565b6001600160a01b037f000000000000000000000000000000000000000000000000000000000000000016636f5e290f61213a886001614b54565b6040518263ffffffff1660e01b815260040161215891815260200190565b602060405180830381865afa158015612173573d5f5f3e3d5ffd5b505050506040513d601f19601f820116820180604052508101906121979190614d3e565b6040517fffffffff0000000000000000000000000000000000000000000000000000000060e085901b16815265ffffffffffff9283166004820152911660248201526001600160a01b03808916604483015287166064820152608401602060405180830381865afa15801561220e573d5f5f3e3d5ffd5b505050506040513d601f19601f820116820180604052508101906122329190614b10565b9050805f03612244575f91505061139e565b6001600160a01b0385165f908152602087815260408083208684529091529020600281015460ff1661227a575f9250505061139e565b5f61228d825f01548484600101546131f8565b90505f61229b898988611f77565b90506122a78188612a40565b156122f25760038101546001600160a01b0316158015906122cb57505f8160040154115b156122f2575f6122e28383600401546127106131f8565b90506122ee8184614b9e565b9250505b50979650505050505050565b5f5f61230b898987611f77565b90508280612328575060018101546001600160a01b038581169116145b80612342575060028101546001600160a01b038581169116145b612378576040517f82b4290000000000000000000000000000000000000000000000000000000000815260040160405180910390fd5b60028101546001600160a01b03165f5b8781101561240c576123c0838a8a848181106123a6576123a6614ab9565b90506020020160208101906123bb9190614512565b612a40565b612404576123f78b888c8c8c868181106123dc576123dc614ab9565b90506020020160208101906123f19190614512565b866132a5565b6124019085614b54565b93505b600101612388565b50821561243e5761243e7f00000000000000000000000000000000000000000000000000000000000000008285612df7565b5050979650505050505050565b5f7fc1f6fe24621ce81ec5827caf0253cadb74709b061630e6b55e823717059320008161247885856135cb565b9050801561139e575f858152602083905260409020611ffd908561368d565b306001600160a01b037f000000000000000000000000000000000000000000000000000000000000000016148061253057507f00000000000000000000000000000000000000000000000000000000000000006001600160a01b03166125247f360894a13ba1a3210667c828492db98dca3e2076cc3735a920a3ca505d382bbc546001600160a01b031690565b6001600160a01b031614155b15612567576040517fe07c8dba00000000000000000000000000000000000000000000000000000000815260040160405180910390fd5b565b5f61110481611f6a565b816001600160a01b03166352d1902d6040518163ffffffff1660e01b8152600401602060405180830381865afa9250505080156125cd575060408051601f3d908101601f191682019092526125ca91810190614b10565b60015b61260e576040517f4c9c8ce30000000000000000000000000000000000000000000000000000000081526001600160a01b0383166004820152602401611b57565b7f360894a13ba1a3210667c828492db98dca3e2076cc3735a920a3ca505d382bbc811461266a576040517faa1d49a400000000000000000000000000000000000000000000000000000000815260048101829052602401611b57565b6110e483836136a1565b306001600160a01b037f00000000000000000000000000000000000000000000000000000000000000001614612567576040517fe07c8dba00000000000000000000000000000000000000000000000000000000815260040160405180910390fd5b5f6001600160a01b038216612717576040517fd92e233d00000000000000000000000000000000000000000000000000000000815260040160405180910390fd5b5f841180156127265750838310155b61275c576040517fd5b25b6300000000000000000000000000000000000000000000000000000000815260040160405180910390fd5b6001600160a01b0382165f9081527ffa2183a4b9e35594495ef24f5060c5bba566c21a062a2b524b653f03c859a70260205260409020547ffa2183a4b9e35594495ef24f5060c5bba566c21a062a2b524b653f03c859a700906127c0816001614b54565b8614806127cb575080155b612801576040517fd5b25b6300000000000000000000000000000000000000000000000000000000815260040160405180910390fd5b5f61280c8787614b9e565b612817906001614b54565b90505f612826848984896136f6565b905080604001515f0361283f575f945050505050611591565b6040517f0c1b8fd90000000000000000000000000000000000000000000000000000000081526001600160a01b0387811660048301525f917f000000000000000000000000000000000000000000000000000000000000000090911690630c1b8fd9906024016040805180830381865afa1580156128bf573d5f5f3e3d5ffd5b505050506040513d601f19601f820116820180604052508101906128e39190614d63565b509050805f0361290a576128fd858a85855f01518b613ba9565b5f95505050505050611591565b506040805160018082528183019092525f916020808301908036833701905050905086815f8151811061293f5761293f614ab9565b6001600160a01b0392831660209182029290920101526040517f3f2a33f90000000000000000000000000000000000000000000000000000000081527f000000000000000000000000000000000000000000000000000000000000000090911690633f2a33f9906129b69084903090600401614ae6565b6020604051808303815f875af11580156129d2573d5f5f3e3d5ffd5b505050506040513d601f19601f820116820180604052508101906129f69190614b10565b95505f8611612a31576040517f3fb087f400000000000000000000000000000000000000000000000000000000815260040160405180910390fd5b50611ac8848984898986613c31565b81545f90815b81811015612a9657836001600160a01b0316858281548110612a6a57612a6a614ab9565b5f918252602090912001546001600160a01b031603612a8e57600192505050610b40565b600101612a46565b505f949350505050565b6001600160a01b0382165f9081526020858152604080832086845290915281206002015460ff161580612b0057506001600160a01b038084165f908152600187016020908152604080832093861683529281528282208783529052205415155b15612b0c57505f61139e565b5f7f00000000000000000000000000000000000000000000000000000000000000006001600160a01b03166390aaa0467f00000000000000000000000000000000000000000000000000000000000000006001600160a01b0316636f5e290f886040518263ffffffff1660e01b8152600401612b8a91815260200190565b602060405180830381865afa158015612ba5573d5f5f3e3d5ffd5b505050506040513d601f19601f82011682018060405250810190612bc99190614d3e565b6001600160a01b037f000000000000000000000000000000000000000000000000000000000000000016636f5e290f612c038a6001614b54565b6040518263ffffffff1660e01b8152600401612c2191815260200190565b602060405180830381865afa158015612c3c573d5f5f3e3d5ffd5b505050506040513d601f19601f82011682018060405250810190612c609190614d3e565b6040517fffffffff0000000000000000000000000000000000000000000000000000000060e085901b16815265ffffffffffff9283166004820152911660248201526001600160a01b03808816604483015286166064820152608401602060405180830381865afa158015612cd7573d5f5f3e3d5ffd5b505050506040513d601f19601f82011682018060405250810190612cfb9190614b10565b9050805f03612d0d575f91505061139e565b6001600160a01b0384165f90815260208781526040808320888452909152812080546001820154612d40919085906131f8565b9350839150508015610f71576001600160a01b038086165f90815260018901602090815260408083209388168352928152828220898352905220819055612d8a8786888785613e18565b612d949084614b9e565b9250836001600160a01b0316856001600160a01b0316877f39b62d670bf3a6b5e9b4bfd6dca9494ee4923d64014b74bbf4a13f5b09d5903a8587604051612de5929190918252602082015260400190565b60405180910390a45050949350505050565b81601452806034526fa9059cbb0000000000000000000000005f5260205f604460105f875af18060015f511416612e4057803d853b151710612e40576390b8ec185f526004601cfd5b505f603452505050565b5f6115918383613ede565b60605f61159183613f04565b612567613f5d565b5f610b40825490565b335f9081527fb7db2dd08fcb62d0c9e08c51941cae53c267786a0b75803fb7960902fc8ef97d602052604090205460ff1615612ead57505050565b5f612eb9848484611f77565b6001810154909150336001600160a01b0390911603612ed85750505050565b6040517f4f1811dd0000000000000000000000000000000000000000000000000000000081526001600160a01b0384811660048301525f917f000000000000000000000000000000000000000000000000000000000000000090911690634f1811dd906024015f60405180830381865afa158015612f58573d5f5f3e3d5ffd5b505050506040513d5f823e601f3d908101601f19168201604052612f7f9190810190614ddd565b604001519050336001600160a01b03821603612f9c575050505050565b6040517f82b4290000000000000000000000000000000000000000000000000000000000815260040160405180910390fd5b5f8281527f02dd7bc7dec4dceedda775e58dd541e08a116c6c53815c0bd028192f7b626800602090815260408083206001600160a01b038516845290915290205460ff16611104576040517fe2517d3f0000000000000000000000000000000000000000000000000000000081526001600160a01b038216600482015260248101839052604401611b57565b6001600160a01b0382165f908152600484016020526040812080548203613084575f915050611591565b82815f8154811061309757613097614ab9565b905f5260205f20015411156130af575f915050611591565b5f6130bb868686613fc4565b90505f81116130ca575f611eca565b816130d6600183614b9e565b815481106130e6576130e6614ab9565b905f5260205f200154925050509392505050565b5f8281527f02dd7bc7dec4dceedda775e58dd541e08a116c6c53815c0bd028192f7b626800602081815260408084206001600160a01b038616855290915282205460ff166131db575f848152602082815260408083206001600160a01b0387168452909152902080547fffffffffffffffffffffffffffffffffffffffffffffffffffffffffffffff001660011790556131913390565b6001600160a01b0316836001600160a01b0316857f2f8788117e7eff1d82e926ec794901d17c78024a50270940304540a733656f0d60405160405180910390a46001915050610b40565b5f915050610b40565b5f611591836001600160a01b03841661407b565b8282028183858304148515170261329e577fffffffffffffffffffffffffffffffffffffffffffffffffffffffffffffffff8385098181108201900382848609835f0384168285116132515763ae47f7025f526004601cfd5b93849004938382119092035f839003839004600101029203041760026003830281188084028203028084028203028084028203028084028203028084028203028084029091030202611591565b0492915050565b6001600160a01b0383165f9081526020868152604080832087845290915281206002015460ff16158061330557506001600160a01b038085165f908152600188016020908152604080832093871683529281528282208883529052205415155b1561331157505f6116e7565b5f7f00000000000000000000000000000000000000000000000000000000000000006001600160a01b03166390aaa0467f00000000000000000000000000000000000000000000000000000000000000006001600160a01b0316636f5e290f896040518263ffffffff1660e01b815260040161338f91815260200190565b602060405180830381865afa1580156133aa573d5f5f3e3d5ffd5b505050506040513d601f19601f820116820180604052508101906133ce9190614d3e565b6001600160a01b037f000000000000000000000000000000000000000000000000000000000000000016636f5e290f6134088b6001614b54565b6040518263ffffffff1660e01b815260040161342691815260200190565b602060405180830381865afa158015613441573d5f5f3e3d5ffd5b505050506040513d601f19601f820116820180604052508101906134659190614d3e565b6040517fffffffff0000000000000000000000000000000000000000000000000000000060e085901b16815265ffffffffffff9283166004820152911660248201526001600160a01b03808916604483015287166064820152608401602060405180830381865afa1580156134dc573d5f5f3e3d5ffd5b505050506040513d601f19601f820116820180604052508101906135009190614b10565b9050805f03613512575f9150506116e7565b6001600160a01b0385165f90815260208881526040808320898452909152902080546001820154613545919084906131f8565b925082156135c0576001600160a01b038681165f81815260018b01602090815260408083208a86168085529083528184208d85528352928190208890558051948916855290840187905290928a917f6045ec4f4247b5f3ff7e8f3aabc36ed34dceb2a6379ed41d70e47d70af8eaf2391015b60405180910390a45b505095945050505050565b5f8281527f02dd7bc7dec4dceedda775e58dd541e08a116c6c53815c0bd028192f7b626800602081815260408084206001600160a01b038616855290915282205460ff16156131db575f848152602082815260408083206001600160a01b038716808552925280832080547fffffffffffffffffffffffffffffffffffffffffffffffffffffffffffffff0016905551339287917ff6391f5c32d9c69d2a47ea670b442974b53935d1edc7fd64eb21e047a839171b9190a46001915050610b40565b5f611591836001600160a01b0384166140c7565b6136aa826141a1565b6040516001600160a01b038316907fbc7cd75a20ee27fd9adebab32041f755214dbc6bffa90cc0225b39da2e5c2d3b905f90a28051156136ee576110e48282614248565b6111046142b1565b613719604051806060016040528060608152602001606081526020015f81525090565b5f7f00000000000000000000000000000000000000000000000000000000000000006001600160a01b0316636c9f2f586040518163ffffffff1660e01b8152600401602060405180830381865afa158015613776573d5f5f3e3d5ffd5b505050506040513d601f19601f8201168201806040525081019061379a9190614ec6565b90508367ffffffffffffffff8111156137b5576137b561471d565b6040519080825280602002602001820160405280156137de578160200160208202803683370190505b5082528367ffffffffffffffff8111156137fa576137fa61471d565b604051908082528060200260200182016040528015613823578160200160208202803683370190505b5060208301525f5b84811015610f71575f61383e8288614b54565b6001600160a01b0386165f90815260208a8152604080832084845290915290206002015490915060ff161561389f576040517f3366263c00000000000000000000000000000000000000000000000000000000815260040160405180910390fd5b5f6139cd867f00000000000000000000000000000000000000000000000000000000000000006001600160a01b0316636f5e290f856040518263ffffffff1660e01b81526004016138f291815260200190565b602060405180830381865afa15801561390d573d5f5f3e3d5ffd5b505050506040513d601f19601f820116820180604052508101906139319190614d3e565b6001600160a01b037f000000000000000000000000000000000000000000000000000000000000000016636f5e290f61396b876001614b54565b6040518263ffffffff1660e01b815260040161398991815260200190565b602060405180830381865afa1580156139a4573d5f5f3e3d5ffd5b505050506040513d601f19601f820116820180604052508101906139c89190614d3e565b6142e9565b9050805f03613a20576001600160a01b0386165f81815260028b0160205260408082208590555184917fecd3a347628c3b88fe68f9ed7f8ce41ebeb7f83f713d3ae24ce1c3630f785f3291a35050613ba1565b6040517f8935ced5000000000000000000000000000000000000000000000000000000008152600481018390526001600160a01b0387811660248301525f918291871690638935ced59060440160a060405180830381865afa158015613a88573d5f5f3e3d5ffd5b505050506040513d601f19601f82011682018060405250810190613aac9190614f00565b91509150801580613acd575060208201516bffffffffffffffffffffffff16155b15613b1e576001600160a01b0388165f81815260028d0160205260408082208790555186917fecd3a347628c3b88fe68f9ed7f8ce41ebeb7f83f713d3ae24ce1c3630f785f3291a350505050613ba1565b81602001516bffffffffffffffffffffffff16875f01518681518110613b4657613b46614ab9565b6020026020010181815250508287602001518681518110613b6957613b69614ab9565b60200260200101818152505081602001516bffffffffffffffffffffffff1687604001818151613b999190614b54565b905250505050505b60010161382b565b5f5b83811015611910575f838281518110613bc657613bc6614ab9565b60200260200101511115613c29575f613bdf8287614b54565b6001600160a01b0384165f81815260028a01602052604080822084905551929350909183917fecd3a347628c3b88fe68f9ed7f8ce41ebeb7f83f713d3ae24ce1c3630f785f3291a3505b600101613bab565b5f80805b86811015613dbb578351805182908110613c5157613c51614ab9565b60200260200101515f0315613db3575f613c6b828a614b54565b90505f613c9987875f01518581518110613c8757613c87614ab9565b602002602001015188604001516131f8565b6001600160a01b0389165f90815260208d815260408083208684528252909120828155908801518051929350909185908110613cd757613cd7614ab9565b602090810291909101810151600180840191909155600280840180547fffffffffffffffffffffffffffffffffffffffffffffffffffffffffffffff00169092179091556001600160a01b038b165f908152908e0190915260409020839055613d408287614b54565b9550829450886001600160a01b0316837fcad4bb3e722125ec372957e194e1fcbb73b8286b53632f18284e589d84f33bb6848a602001518881518110613d8857613d88614ab9565b6020026020010151604051613da7929190918252602082015260400190565b60405180910390a35050505b600101613c35565b508382108015613dca57505f81115b1561130157613dd98285614b9e565b6001600160a01b0386165f90815260208a8152604080832085845290915281208054909190613e09908490614b54565b90915550505050505050505050565b5f5f613e25878787611f77565b60038101549091506001600160a01b0316801580613e4557506004820154155b15613e54575f925050506116e7565b613e658483600401546127106131f8565b925082156135c057613e987f00000000000000000000000000000000000000000000000000000000000000008285612df7565b846001600160a01b0316876001600160a01b0316877f79cfc57d040b454ad547f083baab4ce4b8753705a4836381e8d2f874e9f1e7b5866040516135b791815260200190565b5f825f018281548110613ef357613ef3614ab9565b905f5260205f200154905092915050565b6060815f01805480602002602001604051908101604052809291908181526020018280548015613f5157602002820191905f5260205f20905b815481526020019060010190808311613f3d575b50505050509050919050565b7ff0c57e16840df040f15088dc2f81fe391c3923bec73e23a9662efc9c229c6a005468010000000000000000900460ff16612567576040517fd7e6bcf800000000000000000000000000000000000000000000000000000000815260040160405180910390fd5b6001600160a01b0382165f908152600484016020526040812080548203613fee575f915050611591565b82815f8154811061400157614001614ab9565b905f5260205f2001541115614019575f915050611591565b80545f905b80821015614071575f61403183836143b0565b90508584828154811061404657614046614ab9565b905f5260205f200154111561405d5780915061406b565b614068816001614b54565b92505b5061401e565b5095945050505050565b5f8181526001830160205260408120546140c057508154600181810184555f848152602080822090930184905584548482528286019093526040902091909155610b40565b505f610b40565b5f81815260018301602052604081205480156131db575f6140e9600183614b9e565b85549091505f906140fc90600190614b9e565b905080821461415b575f865f01828154811061411a5761411a614ab9565b905f5260205f200154905080875f01848154811061413a5761413a614ab9565b5f918252602080832090910192909255918252600188019052604090208390555b855486908061416c5761416c614fa9565b600190038181905f5260205f20015f90559055856001015f8681526020019081526020015f205f905560019350505050610b40565b806001600160a01b03163b5f036141ef576040517f4c9c8ce30000000000000000000000000000000000000000000000000000000081526001600160a01b0382166004820152602401611b57565b7f360894a13ba1a3210667c828492db98dca3e2076cc3735a920a3ca505d382bbc80547fffffffffffffffffffffffff0000000000000000000000000000000000000000166001600160a01b0392909216919091179055565b60605f5f846001600160a01b0316846040516142649190614fd6565b5f60405180830381855af49150503d805f811461429c576040519150601f19603f3d011682016040523d82523d5f602084013e6142a1565b606091505b50915091506116e78583836143ca565b3415612567576040517fb398979f00000000000000000000000000000000000000000000000000000000815260040160405180910390fd5b6040517f2cba54da0000000000000000000000000000000000000000000000000000000081526001600160a01b03848116600483015265ffffffffffff8085166024840152831660448301525f917f000000000000000000000000000000000000000000000000000000000000000090911690632cba54da90606401602060405180830381865afa92505050801561439e575060408051601f3d908101601f1916820190925261439b91810190614b10565b60015b6143a957505f611591565b9050611591565b5f6143be6002848418614fec565b61159190848416614b54565b6060826143df576143da8261443f565b611591565b81511580156143f657506001600160a01b0384163b155b15614438576040517f9996b3150000000000000000000000000000000000000000000000000000000081526001600160a01b0385166004820152602401611b57565b5080611591565b80511561444f5780518082602001fd5b6040517fd6bda27500000000000000000000000000000000000000000000000000000000815260040160405180910390fd5b5080545f8255905f5260205f2090810190611f7491905b808211156144ab575f8155600101614498565b5090565b5f602082840312156144bf575f5ffd5b81357fffffffff0000000000000000000000000000000000000000000000000000000081168114611591575f5ffd5b6001600160a01b0381168114611f74575f5ffd5b803561450d816144ee565b919050565b5f60208284031215614522575f5ffd5b8135611591816144ee565b5f6020828403121561453d575f5ffd5b5035919050565b5f5f60408385031215614555575f5ffd5b8235614560816144ee565b946020939093013593505050565b6020808252825160a083830152805160c084018190525f929190910190829060e08501905b808310156145bf576001600160a01b038451168252602082019150602084019350600183019250614593565b5060208601516001600160a01b0381166040870152925060408601516001600160a01b0381166060870152925060608601516001600160a01b03811660808701529250608086015160a086015280935050505092915050565b5f5f60408385031215614629575f5ffd5b82359150602083013561463b816144ee565b809150509250929050565b5f5f5f5f60808587031215614659575f5ffd5b8435614664816144ee565b93506020850135614674816144ee565b93969395505050506040820135916060013590565b5f5f5f5f5f6080868803121561469d575f5ffd5b85356146a8816144ee565b9450602086013567ffffffffffffffff8111156146c3575f5ffd5b8601601f810188136146d3575f5ffd5b803567ffffffffffffffff8111156146e9575f5ffd5b8860208260051b84010111156146fd575f5ffd5b959860209190910197509495604081013595606090910135945092505050565b7f4e487b71000000000000000000000000000000000000000000000000000000005f52604160045260245ffd5b604051610100810167ffffffffffffffff8111828210171561476e5761476e61471d565b60405290565b604051601f8201601f1916810167ffffffffffffffff8111828210171561479d5761479d61471d565b604052919050565b5f67ffffffffffffffff8211156147be576147be61471d565b50601f01601f191660200190565b5f5f604083850312156147dd575f5ffd5b82356147e8816144ee565b9150602083013567ffffffffffffffff811115614803575f5ffd5b8301601f81018513614813575f5ffd5b8035614826614821826147a5565b614774565b81815286602083850101111561483a575f5ffd5b816020840160208301375f602083830101528093505050509250929050565b8015158114611f74575f5ffd5b5f5f5f60608486031215614878575f5ffd5b8335614883816144ee565b92506020840135614893816144ee565b915060408401356148a381614859565b809150509250925092565b5f5f5f606084860312156148c0575f5ffd5b83356148cb816144ee565b95602085013595506040909401359392505050565b5f5f604083850312156148f1575f5ffd5b50508035926020909101359150565b5f5f5f60608486031215614912575f5ffd5b833592506020840135614924816144ee565b915060408401356148a3816144ee565b5f5f5f60608486031215614946575f5ffd5b833592506020840135915060408401356148a3816144ee565b5f8151808452602084019350602083015f5b828110156149985781516001600160a01b0316865260209586019590910190600101614971565b5093949350505050565b602081525f611591602083018461495f565b602081525f82518060208401528060208501604085015e5f604082850101526040601f19601f83011684010191505092915050565b602080825282518282018190525f918401906040840190835b81811015614a20578351835260209384019390920191600101614a02565b509095945050505050565b5f5f5f60608486031215614a3d575f5ffd5b8335614a48816144ee565b925060208401359150604084013567ffffffffffffffff811115614a6a575f5ffd5b840160a081870312156148a3575f5ffd5b5f5f5f60608486031215614a8d575f5ffd5b8335614a98816144ee565b92506020840135614aa8816144ee565b929592945050506040919091013590565b7f4e487b71000000000000000000000000000000000000000000000000000000005f52603260045260245ffd5b604081525f614af8604083018561495f565b90506001600160a01b03831660208301529392505050565b5f60208284031215614b20575f5ffd5b5051919050565b7f4e487b71000000000000000000000000000000000000000000000000000000005f52601160045260245ffd5b80820180821115610b4057610b40614b27565b5f7fffffffffffffffffffffffffffffffffffffffffffffffffffffffffffffffff8203614b9757614b97614b27565b5060010190565b81810381811115610b4057610b40614b27565b5f5f83357fffffffffffffffffffffffffffffffffffffffffffffffffffffffffffffffe1843603018112614be4575f5ffd5b83018035915067ffffffffffffffff821115614bfe575f5ffd5b6020019150600581901b3603821315614c15575f5ffd5b9250929050565b8183526020830192505f815f5b84811015614998578135614c3c816144ee565b6001600160a01b031686526020958601959190910190600101614c29565b602081525f82357fffffffffffffffffffffffffffffffffffffffffffffffffffffffffffffffe1843603018112614c90575f5ffd5b830160208101903567ffffffffffffffff811115614cac575f5ffd5b8060051b3603821315614cbd575f5ffd5b60a06020850152614cd260c085018284614c1c565b915050614ce160208501614502565b6001600160a01b038116604085015250614cfd60408501614502565b6001600160a01b038116606085015250614d1960608501614502565b6001600160a01b0381166080850152506080939093013560a092909201919091525090565b5f60208284031215614d4e575f5ffd5b815165ffffffffffff81168114611591575f5ffd5b5f5f60408385031215614d74575f5ffd5b505080516020909101519092909150565b805161450d816144ee565b5f82601f830112614d9f575f5ffd5b8151614dad614821826147a5565b818152846020838601011115614dc1575f5ffd5b8160208501602083015e5f918101602001919091529392505050565b5f60208284031215614ded575f5ffd5b815167ffffffffffffffff811115614e03575f5ffd5b82016101008185031215614e15575f5ffd5b614e1d61474a565b614e2682614d85565b8152602082015167ffffffffffffffff811115614e41575f5ffd5b614e4d86828501614d90565b602083015250614e5f60408301614d85565b6040820152614e7060608301614d85565b60608201526080828101519082015260a0808301519082015260c0808301519082015260e082015167ffffffffffffffff811115614eac575f5ffd5b614eb886828501614d90565b60e083015250949350505050565b5f60208284031215614ed6575f5ffd5b8151611591816144ee565b80516fffffffffffffffffffffffffffffffff8116811461450d575f5ffd5b5f5f82840360a0811215614f12575f5ffd5b6080811215614f1f575f5ffd5b506040516080810167ffffffffffffffff81118282101715614f4357614f4361471d565b6040528351614f51816144ee565b815260208401516bffffffffffffffffffffffff81168114614f71575f5ffd5b6020820152614f8260408501614ee1565b6040820152614f9360608501614ee1565b6060820152608084015190925061463b81614859565b7f4e487b71000000000000000000000000000000000000000000000000000000005f52603160045260245ffd5b5f82518060208501845e5f920191825250919050565b5f8261501f577f4e487b71000000000000000000000000000000000000000000000000000000005f52601260045260245ffd5b50049056fe65366334653361616133666634656433363737366566346262353466633939663563326261373734a26469706673582212207039efdc5584079e7882c67db32e79463980ee7348b90990e39c58ddfff2a73664736f6c634300081d0033","linkReferences":{}},"methodIdentifiers":{"COLLATERAL_ORACLE()":"7a79bd5c","DEFAULT_ADMIN_ROLE()":"a217fddf","EPOCH_FEEDER()":"f3adae77","GIT_COMMIT()":"b8a15e3a","GIT_TAG()":"b175eb4d","GMITO()":"dd6b6456","GM_MITO()":"3bed90ce","OPERATOR_ROLE()":"f5b541a6","REWARD_DISTRIBUTOR()":"8de728e4","UPGRADE_INTERFACE_VERSION()":"ad3cb1cc","VALIDATOR_MANAGER()":"ae9483e0","WMITO()":"b919ba1a","claimForNonTargets(address,address[],uint256,uint256)":"3653d27f","claimRewards(address,uint256,uint256)":"7ca35209","currentEpoch()":"76671808","distributeRewards(address)":"1de9d9b6","finalizeEpoch(uint256,address)":"7c8cca36","finalizeEpochs(uint256,uint256,address)":"9683f2de","getApplicableConfig(address,uint256)":"262dd9fe","getClaimableRewards(address,address,uint256,uint256)":"3075fe4e","getConfigEpochsCount(address)":"1e9ca6e8","getConfigEpochsRange(address,uint256,uint256)":"d9abb433","getDistributionConfig(address,uint256)":"94bfd604","getEpochReward(uint256,address)":"fe1a6243","getLastFinalizedEpoch(address)":"9f4c271e","getRoleAdmin(bytes32)":"248a9ca3","getRoleMember(bytes32,uint256)":"9010d07c","getRoleMemberCount(bytes32)":"ca15c873","getRoleMembers(bytes32)":"a3246ad3","getVaultClaimed(uint256,address,address)":"93f37e44","gmMitoBalance()":"564cdf08","grantRole(bytes32,address)":"2f2ff15d","hasRole(bytes32,address)":"91d14854","initialize(address)":"c4d66de8","isTarget(address,address,uint256)":"fb1615c7","proxiableUUID()":"52d1902d","renounceRole(bytes32,address)":"36568abe","revokeRole(bytes32,address)":"d547741f","setDistributionConfig(address,uint256,(address[],address,address,address,uint256))":"f47f0084","setOperatorClaimApproval(address,address,bool)":"5bdc8650","supportsInterface(bytes4)":"01ffc9a7","upgradeToAndCall(address,bytes)":"4f1ef286"},"id":117}