{"abi":[{"type":"constructor","inputs":[{"name":"initialOwner","type":"address","internalType":"address"}],"stateMutability":"nonpayable"},{"type":"function","name":"addRoute","inputs":[{"name":"verifier","type":"address","internalType":"address"}],"outputs":[],"stateMutability":"nonpayable"},{"type":"function","name":"freezeRoute","inputs":[{"name":"selector","type":"bytes4","internalType":"bytes4"}],"outputs":[],"stateMutability":"nonpayable"},{"type":"function","name":"owner","inputs":[],"outputs":[{"name":"","type":"address","internalType":"address"}],"stateMutability":"view"},{"type":"function","name":"renounceOwnership","inputs":[],"outputs":[],"stateMutability":"nonpayable"},{"type":"function","name":"routes","inputs":[{"name":"","type":"bytes4","internalType":"bytes4"}],"outputs":[{"name":"verifier","type":"address","internalType":"address"},{"name":"frozen","type":"bool","internalType":"bool"}],"stateMutability":"view"},{"type":"function","name":"transferOwnership","inputs":[{"name":"newOwner","type":"address","internalType":"address"}],"outputs":[],"stateMutability":"nonpayable"},{"type":"function","name":"verifyProof","inputs":[{"name":"programVKey","type":"bytes32","internalType":"bytes32"},{"name":"publicValues","type":"bytes","internalType":"bytes"},{"name":"proofBytes","type":"bytes","internalType":"bytes"}],"outputs":[],"stateMutability":"view"},{"type":"event","name":"OwnershipTransferred","inputs":[{"name":"previousOwner","type":"address","indexed":true,"internalType":"address"},{"name":"newOwner","type":"address","indexed":true,"internalType":"address"}],"anonymous":false},{"type":"event","name":"RouteAdded","inputs":[{"name":"selector","type":"bytes4","indexed":false,"internalType":"bytes4"},{"name":"verifier","type":"address","indexed":false,"internalType":"address"}],"anonymous":false},{"type":"event","name":"RouteFrozen","inputs":[{"name":"selector","type":"bytes4","indexed":false,"internalType":"bytes4"},{"name":"verifier","type":"address","indexed":false,"internalType":"address"}],"anonymous":false},{"type":"error","name":"OwnableInvalidOwner","inputs":[{"name":"owner","type":"address","internalType":"address"}]},{"type":"error","name":"OwnableUnauthorizedAccount","inputs":[{"name":"account","type":"address","internalType":"address"}]},{"type":"error","name":"RouteAlreadyExists","inputs":[{"name":"verifier","type":"address","internalType":"address"}]},{"type":"error","name":"RouteIsFrozen","inputs":[{"name":"selector","type":"bytes4","internalType":"bytes4"}]},{"type":"error","name":"RouteNotFound","inputs":[{"name":"selector","type":"bytes4","internalType":"bytes4"}]},{"type":"error","name":"SelectorCannotBeZero","inputs":[]}],"bytecode":{"object":"0x6080604052348015600e575f5ffd5b50604051610bff380380610bff833981016040819052602b9160b4565b806001600160a01b038116605857604051631e4fbdf760e01b81525f600482015260240160405180910390fd5b605f816065565b505060df565b5f80546001600160a01b038381166001600160a01b0319831681178455604051919092169283917f8be0079c531659141344cd1fd0a4f28419497f9722a3daafe3b4186f6b6457e09190a35050565b5f6020828403121560c3575f5ffd5b81516001600160a01b038116811460d8575f5ffd5b9392505050565b610b13806100ec5f395ff3fe608060405234801561000f575f5ffd5b506004361061007a575f3560e01c8063814856f411610058578063814856f41461011e5780638c95ff1e146101315780638da5cb5b14610144578063f2fde38b1461016b575f5ffd5b806341493c601461007e57806351c7094f14610093578063715018a614610116575b5f5ffd5b61009161008c3660046108c8565b61017e565b005b6100e56100a1366004610941565b60016020525f908152604090205473ffffffffffffffffffffffffffffffffffffffff81169074010000000000000000000000000000000000000000900460ff1682565b6040805173ffffffffffffffffffffffffffffffffffffffff90931683529015156020830152015b60405180910390f35b610091610366565b61009161012c366004610941565b610379565b61009161013f366004610987565b61054e565b5f5460405173ffffffffffffffffffffffffffffffffffffffff909116815260200161010d565b610091610179366004610987565b61075a565b5f61018c60048284866109ba565b610195916109e1565b7fffffffff0000000000000000000000000000000000000000000000000000000081165f9081526001602090815260409182902082518084019093525473ffffffffffffffffffffffffffffffffffffffff81168084527401000000000000000000000000000000000000000090910460ff1615159183019190915291925090610274576040517ff208777e0000000000000000000000000000000000000000000000000000000081527fffffffff00000000000000000000000000000000000000000000000000000000831660048201526024015b60405180910390fd5b8060200151156102d4576040517febf108230000000000000000000000000000000000000000000000000000000081527fffffffff000000000000000000000000000000000000000000000000000000008316600482015260240161026b565b80516040517f41493c6000000000000000000000000000000000000000000000000000000000815273ffffffffffffffffffffffffffffffffffffffff909116906341493c6090610331908a908a908a908a908a90600401610a8e565b5f6040518083038186803b158015610347575f5ffd5b505afa158015610359573d5f5f3e3d5ffd5b5050505050505050505050565b61036e6107bd565b6103775f61080f565b565b6103816107bd565b7fffffffff0000000000000000000000000000000000000000000000000000000081165f908152600160205260409020805473ffffffffffffffffffffffffffffffffffffffff16610423576040517ff208777e0000000000000000000000000000000000000000000000000000000081527fffffffff000000000000000000000000000000000000000000000000000000008316600482015260240161026b565b805474010000000000000000000000000000000000000000900460ff161561049b576040517febf108230000000000000000000000000000000000000000000000000000000081527fffffffff000000000000000000000000000000000000000000000000000000008316600482015260240161026b565b8054740100000000000000000000000000000000000000007fffffffffffffffffffffff00ffffffffffffffffffffffffffffffffffffffff8216178255604080517fffffffff000000000000000000000000000000000000000000000000000000008516815273ffffffffffffffffffffffffffffffffffffffff90921660208301527f63ad2363b183cb8bb562b9590c5b4428e2a566260df053db156576d3d171438d910160405180910390a15050565b6105566107bd565b5f8173ffffffffffffffffffffffffffffffffffffffff16632a5104366040518163ffffffff1660e01b8152600401602060405180830381865afa1580156105a0573d5f5f3e3d5ffd5b505050506040513d601f19601f820116820180604052508101906105c49190610ac6565b90507fffffffff00000000000000000000000000000000000000000000000000000000811661061f576040517f20acd28b00000000000000000000000000000000000000000000000000000000815260040160405180910390fd5b7fffffffff0000000000000000000000000000000000000000000000000000000081165f908152600160205260409020805473ffffffffffffffffffffffffffffffffffffffff16156106b95780546040517f2b87e79700000000000000000000000000000000000000000000000000000000815273ffffffffffffffffffffffffffffffffffffffff909116600482015260240161026b565b80547fffffffffffffffffffffffff00000000000000000000000000000000000000001673ffffffffffffffffffffffffffffffffffffffff84169081178255604080517fffffffff000000000000000000000000000000000000000000000000000000008516815260208101929092527fcb5cc54fa0fda41744197b286ab4135aec7c322cace32c4f55da723d2eb8eee6910160405180910390a1505050565b6107626107bd565b73ffffffffffffffffffffffffffffffffffffffff81166107b1576040517f1e4fbdf70000000000000000000000000000000000000000000000000000000081525f600482015260240161026b565b6107ba8161080f565b50565b5f5473ffffffffffffffffffffffffffffffffffffffff163314610377576040517f118cdaa700000000000000000000000000000000000000000000000000000000815233600482015260240161026b565b5f805473ffffffffffffffffffffffffffffffffffffffff8381167fffffffffffffffffffffffff0000000000000000000000000000000000000000831681178455604051919092169283917f8be0079c531659141344cd1fd0a4f28419497f9722a3daafe3b4186f6b6457e09190a35050565b5f5f83601f840112610893575f5ffd5b50813567ffffffffffffffff8111156108aa575f5ffd5b6020830191508360208285010111156108c1575f5ffd5b9250929050565b5f5f5f5f5f606086880312156108dc575f5ffd5b85359450602086013567ffffffffffffffff8111156108f9575f5ffd5b61090588828901610883565b909550935050604086013567ffffffffffffffff811115610924575f5ffd5b61093088828901610883565b969995985093965092949392505050565b5f60208284031215610951575f5ffd5b81357fffffffff0000000000000000000000000000000000000000000000000000000081168114610980575f5ffd5b9392505050565b5f60208284031215610997575f5ffd5b813573ffffffffffffffffffffffffffffffffffffffff81168114610980575f5ffd5b5f5f858511156109c8575f5ffd5b838611156109d4575f5ffd5b5050820193919092039150565b80357fffffffff000000000000000000000000000000000000000000000000000000008116906004841015610a40577fffffffff00000000000000000000000000000000000000000000000000000000808560040360031b1b82161691505b5092915050565b81835281816020850137505f602082840101525f60207fffffffffffffffffffffffffffffffffffffffffffffffffffffffffffffffe0601f840116840101905092915050565b858152606060208201525f610aa7606083018688610a47565b8281036040840152610aba818587610a47565b98975050505050505050565b5f60208284031215610ad6575f5ffd5b505191905056fea2646970667358221220b798256ae42c8af3b814d67b475e49b36e25a6c9b2b7e9f5d098bc9d94a550f064736f6c634300081d0033","linkReferences":{}},"methodIdentifiers":{"addRoute(address)":"8c95ff1e","freezeRoute(bytes4)":"814856f4","owner()":"8da5cb5b","renounceOwnership()":"715018a6","routes(bytes4)":"51c7094f","transferOwnership(address)":"f2fde38b","verifyProof(bytes32,bytes,bytes)":"41493c60"},"id":84}