{"abi":[{"type":"constructor","inputs":[{"name":"rewardManager_","type":"address","internalType":"address"},{"name":"validatorManager_","type":"address","internalType":"address"}],"stateMutability":"nonpayable"},{"type":"function","name":"GIT_COMMIT","inputs":[],"outputs":[{"name":"","type":"string","internalType":"string"}],"stateMutability":"view"},{"type":"function","name":"GIT_TAG","inputs":[],"outputs":[{"name":"","type":"string","internalType":"string"}],"stateMutability":"view"},{"type":"function","name":"REWARD_MANAGER","inputs":[],"outputs":[{"name":"","type":"address","internalType":"address"}],"stateMutability":"view"},{"type":"function","name":"UPGRADE_INTERFACE_VERSION","inputs":[],"outputs":[{"name":"","type":"string","internalType":"string"}],"stateMutability":"view"},{"type":"function","name":"VALIDATOR_MANAGER","inputs":[],"outputs":[{"name":"","type":"address","internalType":"contract IValidatorManager"}],"stateMutability":"view"},{"type":"function","name":"contractStatus","inputs":[],"outputs":[{"name":"","type":"uint8","internalType":"enum IValidatorController.ContractStatus"}],"stateMutability":"view"},{"type":"function","name":"enter","inputs":[{"name":"initialTargets","type":"address[]","internalType":"address[]"},{"name":"defaultRecipient","type":"address","internalType":"address"},{"name":"feeRecipient","type":"address","internalType":"address"}],"outputs":[],"stateMutability":"nonpayable"},{"type":"function","name":"exit","inputs":[{"name":"to","type":"address","internalType":"address"}],"outputs":[],"stateMutability":"nonpayable"},{"type":"function","name":"initialize","inputs":[{"name":"valAddr","type":"address","internalType":"address"},{"name":"initialOwner","type":"address","internalType":"address"}],"outputs":[],"stateMutability":"nonpayable"},{"type":"function","name":"owner","inputs":[],"outputs":[{"name":"","type":"address","internalType":"address"}],"stateMutability":"view"},{"type":"function","name":"proxiableUUID","inputs":[],"outputs":[{"name":"","type":"bytes32","internalType":"bytes32"}],"stateMutability":"view"},{"type":"function","name":"renounceOwnership","inputs":[],"outputs":[],"stateMutability":"nonpayable"},{"type":"function","name":"rewardManager","inputs":[],"outputs":[{"name":"","type":"address","internalType":"address"}],"stateMutability":"view"},{"type":"function","name":"setPermittedCollateralOwner","inputs":[{"name":"collateralOwner","type":"address","internalType":"address"},{"name":"isPermitted","type":"bool","internalType":"bool"}],"outputs":[],"stateMutability":"nonpayable"},{"type":"function","name":"setRewardDistributionConfig","inputs":[{"name":"startEpoch","type":"uint256","internalType":"uint256"},{"name":"config","type":"tuple","internalType":"struct IRewardRouter.DistributionConfig","components":[{"name":"targets","type":"address[]","internalType":"address[]"},{"name":"operator","type":"address","internalType":"address"},{"name":"defaultRecipient","type":"address","internalType":"address"},{"name":"feeRecipient","type":"address","internalType":"address"},{"name":"commissionRate","type":"uint256","internalType":"uint256"}]}],"outputs":[],"stateMutability":"nonpayable"},{"type":"function","name":"transferOwnership","inputs":[{"name":"newOwner","type":"address","internalType":"address"}],"outputs":[],"stateMutability":"nonpayable"},{"type":"function","name":"unjail","inputs":[],"outputs":[],"stateMutability":"payable"},{"type":"function","name":"updateMetadata","inputs":[{"name":"metadata","type":"bytes","internalType":"bytes"}],"outputs":[],"stateMutability":"nonpayable"},{"type":"function","name":"updateRewardConfig","inputs":[{"name":"request","type":"tuple","internalType":"struct IValidatorManager.UpdateRewardConfigRequest","components":[{"name":"commissionRate","type":"uint256","internalType":"uint256"}]}],"outputs":[],"stateMutability":"nonpayable"},{"type":"function","name":"upgradeToAndCall","inputs":[{"name":"newImplementation","type":"address","internalType":"address"},{"name":"data","type":"bytes","internalType":"bytes"}],"outputs":[],"stateMutability":"payable"},{"type":"function","name":"validator","inputs":[],"outputs":[{"name":"","type":"address","internalType":"address"}],"stateMutability":"view"},{"type":"function","name":"validatorManager","inputs":[],"outputs":[{"name":"","type":"address","internalType":"address"}],"stateMutability":"view"},{"type":"event","name":"Entered","inputs":[{"name":"valAddr","type":"address","indexed":true,"internalType":"address"}],"anonymous":false},{"type":"event","name":"Exited","inputs":[{"name":"valAddr","type":"address","indexed":true,"internalType":"address"},{"name":"to","type":"address","indexed":true,"internalType":"address"},{"name":"rewardManager","type":"address","indexed":true,"internalType":"address"}],"anonymous":false},{"type":"event","name":"Initialized","inputs":[{"name":"version","type":"uint64","indexed":false,"internalType":"uint64"}],"anonymous":false},{"type":"event","name":"Initialized","inputs":[{"name":"valAddr","type":"address","indexed":true,"internalType":"address"},{"name":"owner","type":"address","indexed":true,"internalType":"address"}],"anonymous":false},{"type":"event","name":"OwnershipTransferred","inputs":[{"name":"previousOwner","type":"address","indexed":true,"internalType":"address"},{"name":"newOwner","type":"address","indexed":true,"internalType":"address"}],"anonymous":false},{"type":"event","name":"Upgraded","inputs":[{"name":"implementation","type":"address","indexed":true,"internalType":"address"}],"anonymous":false},{"type":"error","name":"AddressEmptyCode","inputs":[{"name":"target","type":"address","internalType":"address"}]},{"type":"error","name":"AlreadyEntered","inputs":[]},{"type":"error","name":"ERC1967InvalidImplementation","inputs":[{"name":"implementation","type":"address","internalType":"address"}]},{"type":"error","name":"ERC1967NonPayable","inputs":[]},{"type":"error","name":"FailedCall","inputs":[]},{"type":"error","name":"InvalidInitialization","inputs":[]},{"type":"error","name":"InvalidOperator","inputs":[]},{"type":"error","name":"InvalidStatus","inputs":[]},{"type":"error","name":"NonOperator","inputs":[]},{"type":"error","name":"NotEntered","inputs":[]},{"type":"error","name":"NotFinalized","inputs":[]},{"type":"error","name":"NotInitializing","inputs":[]},{"type":"error","name":"OwnableInvalidOwner","inputs":[{"name":"owner","type":"address","internalType":"address"}]},{"type":"error","name":"OwnableUnauthorizedAccount","inputs":[{"name":"account","type":"address","internalType":"address"}]},{"type":"error","name":"UUPSUnauthorizedCallContext","inputs":[]},{"type":"error","name":"UUPSUnsupportedProxiableUUID","inputs":[{"name":"slot","type":"bytes32","internalType":"bytes32"}]},{"type":"error","name":"Unauthorized","inputs":[]}],"bytecode":{"object":"0x60e060405230608052348015610013575f5ffd5b5060405161221f38038061221f8339810160408190526100329161011e565b61003a610051565b6001600160a01b0391821660a0521660c05261014f565b7ff0c57e16840df040f15088dc2f81fe391c3923bec73e23a9662efc9c229c6a00805468010000000000000000900460ff16156100a15760405163f92ee8a960e01b815260040160405180910390fd5b80546001600160401b03908116146101005780546001600160401b0319166001600160401b0390811782556040519081527fc7f505b2f371ae2175ee4913f4499e1f2633a7b5936321eed1cdaeb6115181d29060200160405180910390a15b50565b80516001600160a01b0381168114610119575f5ffd5b919050565b5f5f6040838503121561012f575f5ffd5b61013883610103565b915061014660208401610103565b90509250929050565b60805160a05160c0516120366101e95f395f818161034d015281816104d201528181610814015281816108ef015281816109c401528181610c9f01528181610db4015281816110d0015261117b01525f818161017f0152818161023701528181610a5f01528181610b4201528181610d8c01528181610e920152610ec201525f81816111d801528181611201015261138d01526120365ff3fe60806040526004361061016d575f3560e01c8063ae9483e0116100c6578063c6ee20d21161007c578063f679d30511610057578063f679d3051461049d578063fc582d41146104a5578063fe55bde9146104c4575f5ffd5b8063c6ee20d214610409578063e31f6f351461045f578063f2fde38b1461047e575f5ffd5b8063b42652e9116100ac578063b42652e9146103b7578063b8a15e3a146103d6578063bf2ace74146103ea575f5ffd5b8063ae9483e01461033c578063b175eb4d1461036f575f5ffd5b80635932fdba116101265780638da5cb5b116101015780638da5cb5b1461028c578063ad3cb1cc146102c8578063add6e73d1461031d575f5ffd5b80635932fdba146102265780635e4b7c3f14610259578063715018a614610278575f5ffd5b8063485cc95511610156578063485cc955146101d05780634f1ef286146101f157806352d1902d14610204575f5ffd5b80630f4ef8a6146101715780633a5381b5146101bc575b5f5ffd5b34801561017c575f5ffd5b507f00000000000000000000000000000000000000000000000000000000000000005b6040516001600160a01b0390911681526020015b60405180910390f35b3480156101c7575f5ffd5b5061019f6104f6565b3480156101db575f5ffd5b506101ef6101ea366004611881565b610528565b005b6101ef6101ff366004611967565b61074a565b34801561020f575f5ffd5b50610218610769565b6040519081526020016101b3565b348015610231575f5ffd5b5061019f7f000000000000000000000000000000000000000000000000000000000000000081565b348015610264575f5ffd5b506101ef6102733660046119f4565b610797565b348015610283575f5ffd5b506101ef610868565b348015610297575f5ffd5b507f9016d09d72d40fdae2fd8ceac6b6234c7706214fd39c1cd1e609a0528c199300546001600160a01b031661019f565b3480156102d3575f5ffd5b506103106040518060400160405280600581526020017f352e302e3000000000000000000000000000000000000000000000000000000081525081565b6040516101b39190611a24565b348015610328575f5ffd5b506101ef610337366004611a59565b61087b565b348015610347575f5ffd5b5061019f7f000000000000000000000000000000000000000000000000000000000000000081565b34801561037a575f5ffd5b506103106040518060400160405280600681526020017f76302e302e34000000000000000000000000000000000000000000000000000081525081565b3480156103c2575f5ffd5b506101ef6103d1366004611a72565b61094b565b3480156103e1575f5ffd5b50610310610abb565b3480156103f5575f5ffd5b506101ef610404366004611a8d565b610ad7565b348015610414575f5ffd5b507fdc8da22dbeabcde1ac8b88d797c47c6fc49f10c300356e0f23ffb2ee3f00fc005474010000000000000000000000000000000000000000900460ff166040516101b39190611af9565b34801561046a575f5ffd5b506101ef610479366004611b38565b610bcf565b348015610489575f5ffd5b506101ef610498366004611a72565b611006565b6101ef611061565b3480156104b0575f5ffd5b506101ef6104bf366004611bcb565b611115565b3480156104cf575f5ffd5b507f000000000000000000000000000000000000000000000000000000000000000061019f565b5f7fdc8da22dbeabcde1ac8b88d797c47c6fc49f10c300356e0f23ffb2ee3f00fc005b546001600160a01b0316919050565b7ff0c57e16840df040f15088dc2f81fe391c3923bec73e23a9662efc9c229c6a00805468010000000000000000810460ff16159067ffffffffffffffff165f811580156105725750825b90505f8267ffffffffffffffff16600114801561058e5750303b155b90508115801561059c575080155b156105d3576040517ff92ee8a900000000000000000000000000000000000000000000000000000000815260040160405180910390fd5b84547fffffffffffffffffffffffffffffffffffffffffffffffff000000000000000016600117855583156106345784547fffffffffffffffffffffffffffffffffffffffffffffff00ffffffffffffffff16680100000000000000001785555b61063d866111b4565b6106456111c5565b7fdc8da22dbeabcde1ac8b88d797c47c6fc49f10c300356e0f23ffb2ee3f00fc0080546001600160a01b038981167fffffffffffffffffffffff00000000000000000000000000000000000000000090921682177401000000000000000000000000000000000000000017835560405190891691907f3cd5ec01b1ae7cfec6ca1863e2cd6aa25d6d1702825803ff2b7cc95010fffdc2905f90a35083156107415784547fffffffffffffffffffffffffffffffffffffffffffffff00ffffffffffffffff168555604051600181527fc7f505b2f371ae2175ee4913f4499e1f2633a7b5936321eed1cdaeb6115181d29060200160405180910390a15b50505050505050565b6107526111cd565b61075b82611274565b610765828261127c565b5050565b5f610772611382565b507f360894a13ba1a3210667c828492db98dca3e2076cc3735a920a3ca505d382bbc90565b61079f6113e4565b6107a7611458565b7fdc8da22dbeabcde1ac8b88d797c47c6fc49f10c300356e0f23ffb2ee3f00fc00546040517fff5b8f520000000000000000000000000000000000000000000000000000000081526001600160a01b039182166004820181905284831660248301528315156044830152917f0000000000000000000000000000000000000000000000000000000000000000169063ff5b8f52906064015b5f604051808303815f87803b158015610856575f5ffd5b505af1158015610741573d5f5f3e3d5ffd5b6108706113e4565b6108795f6114df565b565b6108836113e4565b61088b611458565b7fdc8da22dbeabcde1ac8b88d797c47c6fc49f10c300356e0f23ffb2ee3f00fc00546040517f24cf2c540000000000000000000000000000000000000000000000000000000081526001600160a01b039182166004820181905283356024830152917f000000000000000000000000000000000000000000000000000000000000000016906324cf2c54906044015b5f604051808303815f87803b158015610931575f5ffd5b505af1158015610943573d5f5f3e3d5ffd5b505050505050565b6109536113e4565b61095b611458565b5f7fdc8da22dbeabcde1ac8b88d797c47c6fc49f10c300356e0f23ffb2ee3f00fc0080546040517f8cd2d73e0000000000000000000000000000000000000000000000000000000081526001600160a01b039182166004820181905285831660248301529293507f000000000000000000000000000000000000000000000000000000000000000090911690638cd2d73e906044015f604051808303815f87803b158015610a07575f5ffd5b505af1158015610a19573d5f5f3e3d5ffd5b505083547fffffffffffffffffffffff00ffffffffffffffffffffffffffffffffffffffff167403000000000000000000000000000000000000000017845550506040517f00000000000000000000000000000000000000000000000000000000000000006001600160a01b0390811691858216918416907f889dbcb9b3bbead130974791a8bd589360691549f17a7e73615ded02a7f233a4905f90a4505050565b604051806060016040528060288152602001611fd96028913981565b610adf6113e4565b610ae7611458565b30610af86040830160208401611a72565b6001600160a01b031614610b38576040517fccea9e6f00000000000000000000000000000000000000000000000000000000815260040160405180910390fd5b6001600160a01b037f00000000000000000000000000000000000000000000000000000000000000001663f47f00847fdc8da22dbeabcde1ac8b88d797c47c6fc49f10c300356e0f23ffb2ee3f00fc00546040517fffffffff0000000000000000000000000000000000000000000000000000000060e084901b16815261091a916001600160a01b03169086908690600401611c81565b610bd76113e4565b7fdc8da22dbeabcde1ac8b88d797c47c6fc49f10c300356e0f23ffb2ee3f00fc00805460019074010000000000000000000000000000000000000000900460ff166003811115610c2957610c29611acc565b14610c60576040517ff525e32000000000000000000000000000000000000000000000000000000000815260040160405180910390fd5b80546040517f4f1811dd0000000000000000000000000000000000000000000000000000000081526001600160a01b0391821660048201819052915f917f000000000000000000000000000000000000000000000000000000000000000090911690634f1811dd906024015f60405180830381865afa158015610ce5573d5f5f3e3d5ffd5b505050506040513d5f823e601f3d908101601f19168201604052610d0c9190810190611dcf565b6040015190506001600160a01b0381163014610d54576040517f82b4290000000000000000000000000000000000000000000000000000000000815260040160405180910390fd5b6040517f0b84c4630000000000000000000000000000000000000000000000000000000081526001600160a01b0383811660048301527f0000000000000000000000000000000000000000000000000000000000000000811660248301527f00000000000000000000000000000000000000000000000000000000000000001690630b84c463906044015f604051808303815f87803b158015610df5575f5ffd5b505af1158015610e07573d5f5f3e3d5ffd5b505050505f6040518060a001604052808989808060200260200160405190810160405280939291908181526020018383602002808284375f81840152601f19601f820116905080830192505050505050508152602001306001600160a01b03168152602001876001600160a01b03168152602001866001600160a01b031681526020015f81525090507f00000000000000000000000000000000000000000000000000000000000000006001600160a01b031663f47f0084847f00000000000000000000000000000000000000000000000000000000000000006001600160a01b031663766718086040518163ffffffff1660e01b8152600401602060405180830381865afa158015610f1c573d5f5f3e3d5ffd5b505050506040513d601f19601f82011682018060405250810190610f409190611eb8565b846040518463ffffffff1660e01b8152600401610f5f93929190611ecf565b5f604051808303815f87803b158015610f76575f5ffd5b505af1158015610f88573d5f5f3e3d5ffd5b505085547fffffffffffffffffffffff00ffffffffffffffffffffffffffffffffffffffff167402000000000000000000000000000000000000000017865550506040516001600160a01b038416907f9d8f2d54c1a8ffb26973551e72794da9bd5b8529f24c494a6f1590d35d5e8ecf905f90a25050505050505050565b61100e6113e4565b6001600160a01b038116611055576040517f1e4fbdf70000000000000000000000000000000000000000000000000000000081525f60048201526024015b60405180910390fd5b61105e816114df565b50565b6110696113e4565b611071611458565b5f7fdc8da22dbeabcde1ac8b88d797c47c6fc49f10c300356e0f23ffb2ee3f00fc00546040517f7cafdd790000000000000000000000000000000000000000000000000000000081526001600160a01b039182166004820181905292507f000000000000000000000000000000000000000000000000000000000000000090911690637cafdd799034906024015f604051808303818588803b158015610931575f5ffd5b61111d6113e4565b611125611458565b7fdc8da22dbeabcde1ac8b88d797c47c6fc49f10c300356e0f23ffb2ee3f00fc00546040517f0e5268aa0000000000000000000000000000000000000000000000000000000081526001600160a01b03918216917f00000000000000000000000000000000000000000000000000000000000000001690630e5268aa9061083f90849087908790600401611f84565b6111bc611567565b61105e816115ce565b610879611567565b306001600160a01b037f000000000000000000000000000000000000000000000000000000000000000016148061123d57507f00000000000000000000000000000000000000000000000000000000000000006001600160a01b03166112316115d6565b6001600160a01b031614155b15610879576040517fe07c8dba00000000000000000000000000000000000000000000000000000000815260040160405180910390fd5b61105e6113e4565b816001600160a01b03166352d1902d6040518163ffffffff1660e01b8152600401602060405180830381865afa9250505080156112d6575060408051601f3d908101601f191682019092526112d391810190611eb8565b60015b611317576040517f4c9c8ce30000000000000000000000000000000000000000000000000000000081526001600160a01b038316600482015260240161104c565b7f360894a13ba1a3210667c828492db98dca3e2076cc3735a920a3ca505d382bbc8114611373576040517faa1d49a40000000000000000000000000000000000000000000000000000000081526004810182905260240161104c565b61137d83836115fd565b505050565b306001600160a01b037f00000000000000000000000000000000000000000000000000000000000000001614610879576040517fe07c8dba00000000000000000000000000000000000000000000000000000000815260040160405180910390fd5b336114167f9016d09d72d40fdae2fd8ceac6b6234c7706214fd39c1cd1e609a0528c199300546001600160a01b031690565b6001600160a01b031614610879576040517f118cdaa700000000000000000000000000000000000000000000000000000000815233600482015260240161104c565b60027fdc8da22dbeabcde1ac8b88d797c47c6fc49f10c300356e0f23ffb2ee3f00fc005474010000000000000000000000000000000000000000900460ff1660038111156114a8576114a8611acc565b14610879576040517fbca35af600000000000000000000000000000000000000000000000000000000815260040160405180910390fd5b7f9016d09d72d40fdae2fd8ceac6b6234c7706214fd39c1cd1e609a0528c19930080547fffffffffffffffffffffffff000000000000000000000000000000000000000081166001600160a01b03848116918217845560405192169182907f8be0079c531659141344cd1fd0a4f28419497f9722a3daafe3b4186f6b6457e0905f90a3505050565b7ff0c57e16840df040f15088dc2f81fe391c3923bec73e23a9662efc9c229c6a005468010000000000000000900460ff16610879576040517fd7e6bcf800000000000000000000000000000000000000000000000000000000815260040160405180910390fd5b61100e611567565b5f7f360894a13ba1a3210667c828492db98dca3e2076cc3735a920a3ca505d382bbc610519565b61160682611652565b6040516001600160a01b038316907fbc7cd75a20ee27fd9adebab32041f755214dbc6bffa90cc0225b39da2e5c2d3b905f90a280511561164a5761137d82826116f9565b61076561176b565b806001600160a01b03163b5f036116a0576040517f4c9c8ce30000000000000000000000000000000000000000000000000000000081526001600160a01b038216600482015260240161104c565b7f360894a13ba1a3210667c828492db98dca3e2076cc3735a920a3ca505d382bbc80547fffffffffffffffffffffffff0000000000000000000000000000000000000000166001600160a01b0392909216919091179055565b60605f5f846001600160a01b0316846040516117159190611fc2565b5f60405180830381855af49150503d805f811461174d576040519150601f19603f3d011682016040523d82523d5f602084013e611752565b606091505b50915091506117628583836117a3565b95945050505050565b3415610879576040517fb398979f00000000000000000000000000000000000000000000000000000000815260040160405180910390fd5b6060826117b8576117b38261181b565b611814565b81511580156117cf57506001600160a01b0384163b155b15611811576040517f9996b3150000000000000000000000000000000000000000000000000000000081526001600160a01b038516600482015260240161104c565b50805b9392505050565b80511561182b5780518082602001fd5b6040517fd6bda27500000000000000000000000000000000000000000000000000000000815260040160405180910390fd5b6001600160a01b038116811461105e575f5ffd5b803561187c8161185d565b919050565b5f5f60408385031215611892575f5ffd5b823561189d8161185d565b915060208301356118ad8161185d565b809150509250929050565b7f4e487b71000000000000000000000000000000000000000000000000000000005f52604160045260245ffd5b604051610100810167ffffffffffffffff81118282101715611909576119096118b8565b60405290565b604051601f8201601f1916810167ffffffffffffffff81118282101715611938576119386118b8565b604052919050565b5f67ffffffffffffffff821115611959576119596118b8565b50601f01601f191660200190565b5f5f60408385031215611978575f5ffd5b82356119838161185d565b9150602083013567ffffffffffffffff81111561199e575f5ffd5b8301601f810185136119ae575f5ffd5b80356119c16119bc82611940565b61190f565b8181528660208385010111156119d5575f5ffd5b816020840160208301375f602083830101528093505050509250929050565b5f5f60408385031215611a05575f5ffd5b8235611a108161185d565b9150602083013580151581146118ad575f5ffd5b602081525f82518060208401528060208501604085015e5f604082850101526040601f19601f83011684010191505092915050565b5f6020828403128015611a6a575f5ffd5b509092915050565b5f60208284031215611a82575f5ffd5b81356118148161185d565b5f5f60408385031215611a9e575f5ffd5b82359150602083013567ffffffffffffffff811115611abb575f5ffd5b830160a081860312156118ad575f5ffd5b7f4e487b71000000000000000000000000000000000000000000000000000000005f52602160045260245ffd5b6020810160048310611b32577f4e487b71000000000000000000000000000000000000000000000000000000005f52602160045260245ffd5b91905290565b5f5f5f5f60608587031215611b4b575f5ffd5b843567ffffffffffffffff811115611b61575f5ffd5b8501601f81018713611b71575f5ffd5b803567ffffffffffffffff811115611b87575f5ffd5b8760208260051b8401011115611b9b575f5ffd5b602091820195509350850135611bb08161185d565b91506040850135611bc08161185d565b939692955090935050565b5f5f60208385031215611bdc575f5ffd5b823567ffffffffffffffff811115611bf2575f5ffd5b8301601f81018513611c02575f5ffd5b803567ffffffffffffffff811115611c18575f5ffd5b856020828401011115611c29575f5ffd5b6020919091019590945092505050565b8183526020830192505f815f5b84811015611c77578135611c598161185d565b6001600160a01b031686526020958601959190910190600101611c46565b5093949350505050565b6001600160a01b0384168152826020820152606060408201525f82357fffffffffffffffffffffffffffffffffffffffffffffffffffffffffffffffe1843603018112611ccc575f5ffd5b830160208101903567ffffffffffffffff811115611ce8575f5ffd5b8060051b3603821315611cf9575f5ffd5b60a06060850152611d0f61010085018284611c39565b915050611d1e60208501611871565b6001600160a01b03166080840152611d3860408501611871565b6001600160a01b031660a0840152611d5260608501611871565b6001600160a01b031660c08401526080939093013560e0909201919091525092915050565b805161187c8161185d565b5f82601f830112611d91575f5ffd5b8151611d9f6119bc82611940565b818152846020838601011115611db3575f5ffd5b8160208501602083015e5f918101602001919091529392505050565b5f60208284031215611ddf575f5ffd5b815167ffffffffffffffff811115611df5575f5ffd5b82016101008185031215611e07575f5ffd5b611e0f6118e5565b611e1882611d77565b8152602082015167ffffffffffffffff811115611e33575f5ffd5b611e3f86828501611d82565b602083015250611e5160408301611d77565b6040820152611e6260608301611d77565b60608201526080828101519082015260a0808301519082015260c0808301519082015260e082015167ffffffffffffffff811115611e9e575f5ffd5b611eaa86828501611d82565b60e083015250949350505050565b5f60208284031215611ec8575f5ffd5b5051919050565b6001600160a01b0384168152826020820152606060408201525f6101008201835160a06060850152818151808452610120860191506020830193505f92505b80831015611f3a576001600160a01b038451168252602082019150602084019350600183019250611f0e565b5060208601516001600160a01b039081166080878101919091526040880151821660a0880152606088015190911660c08701529095015160e0909401939093525091949350505050565b6001600160a01b038416815260406020820152816040820152818360608301375f818301606090810191909152601f909201601f1916010192915050565b5f82518060208501845e5f92019182525091905056fe30633164383962343035633933336537333235643762356464636330353964393138376634623763a264697066735822122025af6e021535843dacdde24013cccee92812edffa28680e090ad7ed56171288b64736f6c634300081d0033","linkReferences":{}},"methodIdentifiers":{"GIT_COMMIT()":"b8a15e3a","GIT_TAG()":"b175eb4d","REWARD_MANAGER()":"5932fdba","UPGRADE_INTERFACE_VERSION()":"ad3cb1cc","VALIDATOR_MANAGER()":"ae9483e0","contractStatus()":"c6ee20d2","enter(address[],address,address)":"e31f6f35","exit(address)":"b42652e9","initialize(address,address)":"485cc955","owner()":"8da5cb5b","proxiableUUID()":"52d1902d","renounceOwnership()":"715018a6","rewardManager()":"0f4ef8a6","setPermittedCollateralOwner(address,bool)":"5e4b7c3f","setRewardDistributionConfig(uint256,(address[],address,address,address,uint256))":"bf2ace74","transferOwnership(address)":"f2fde38b","unjail()":"f679d305","updateMetadata(bytes)":"fc582d41","updateRewardConfig((uint256))":"add6e73d","upgradeToAndCall(address,bytes)":"4f1ef286","validator()":"3a5381b5","validatorManager()":"fe55bde9"},"id":120}