{"abi":[{"type":"function","name":"compressProof","inputs":[{"name":"proof","type":"uint256[8]","internalType":"uint256[8]"}],"outputs":[{"name":"compressed","type":"uint256[4]","internalType":"uint256[4]"}],"stateMutability":"view"},{"type":"function","name":"verifyCompressedProof","inputs":[{"name":"compressedProof","type":"uint256[4]","internalType":"uint256[4]"},{"name":"input","type":"uint256[5]","internalType":"uint256[5]"}],"outputs":[],"stateMutability":"view"},{"type":"function","name":"verifyProof","inputs":[{"name":"proof","type":"uint256[8]","internalType":"uint256[8]"},{"name":"input","type":"uint256[5]","internalType":"uint256[5]"}],"outputs":[],"stateMutability":"view"},{"type":"error","name":"ProofInvalid","inputs":[]},{"type":"error","name":"PublicInputNotInField","inputs":[]}],"bytecode":{"object":"0x6080604052348015600e575f5ffd5b50611b578061001c5f395ff3fe608060405234801561000f575f5ffd5b506004361061003f575f3560e01c80632a07d99a1461004357806344f6369214610058578063a670860414610081575b5f5ffd5b6100566100513660046119fc565b610094565b005b61006b610066366004611a31565b61032b565b6040516100789190611a53565b60405180910390f35b61005661008f366004611a83565b610388565b5f5f61009f836106bb565b915091505f6040516101008682377f2f21b62705c5d7f4a7482bf1a69c35db8858584d6f155381b22022a71f817afa6101008201527f08da56e9eb0d183a64e55881a5ed90cfdb0ed5229e588ec3de4452045b2445b16101208201527f16a0f9f6d66c598015b13eaf9a0420e89f97a2c8f0ac39095d4c5d0528f287456101408201527f28055b5f5b21751211d980c83f12ece1d2aa337be7ccc12a7f9830309563da236101608201527f2838edbc8aee47ec511c2837d538a49ffd752370e06ed44e109b4c0f35be6e3a6101808201527f1cbeed5cf07bc7baa706137b59f34086467c2ebc770205fd1038c2c70d5ada226101a08201527f028cbe84124fba3ad76d33e6ca441f570726da5692cae5335a52209a15b9fd456101c08201527f2f6457660eeb88acf2baf1e7aefc0958da27058879cc77ba162d2df754aaf9336101e08201527f19bd43a87907704ce03cb365e44c3375453e8d24ab626dcc7081b28d60f626836102008201527f202ab65c6ef68868df1a07b213125fd12b1c480090563941d2e74243dffd7ea861022082015283610240820152826102608201527f198e9393920d483a7260bfb731fb5d25f1aa493335a9e71297e485b7aef312c26102808201527f1800deef121f1e76426a00665e5c4479674322d4f75edadd46debd5cd992f6ed6102a08201527f275dc4a288d1afb3cbb1ac09187524c7db36395df7be3b99e673b13a075a65ec6102c08201527f1d9befcd05a5323e6da4d435f3b617cdb3af83285c2df711ef39c01571827f9d6102e08201526020816103008360085afa905116905080610324576040517f7fcdd1f400000000000000000000000000000000000000000000000000000000815260040160405180910390fd5b5050505050565b610333611980565b61034682358360015b6020020135610a55565b81526103646060830135604084013560a08501356080860135610bf1565b6020830152604082015261037e60c083013583600761033c565b6060820152919050565b61039061199e565b5f806103a285825b60200201356110c1565b90925090505f8080806103bd60408a013560208b01356111e2565b929650909450925090505f806103d48b6003610398565b915091505f5f6103e38c6106bb565b8b8d5260208d018b905260408d0189905260608d018a905260808d0187905260a08d0188905260c08d0186905260e08d018590527f2f21b62705c5d7f4a7482bf1a69c35db8858584d6f155381b22022a71f817afa6101008e01527f08da56e9eb0d183a64e55881a5ed90cfdb0ed5229e588ec3de4452045b2445b16101208e01527f16a0f9f6d66c598015b13eaf9a0420e89f97a2c8f0ac39095d4c5d0528f287456101408e01527f28055b5f5b21751211d980c83f12ece1d2aa337be7ccc12a7f9830309563da236101608e01527f2838edbc8aee47ec511c2837d538a49ffd752370e06ed44e109b4c0f35be6e3a6101808e01527f1cbeed5cf07bc7baa706137b59f34086467c2ebc770205fd1038c2c70d5ada226101a08e01527f028cbe84124fba3ad76d33e6ca441f570726da5692cae5335a52209a15b9fd456101c08e01527f2f6457660eeb88acf2baf1e7aefc0958da27058879cc77ba162d2df754aaf9336101e08e01527f19bd43a87907704ce03cb365e44c3375453e8d24ab626dcc7081b28d60f626836102008e01527f202ab65c6ef68868df1a07b213125fd12b1c480090563941d2e74243dffd7ea86102208e01526102408d018290526102608d018190527f198e9393920d483a7260bfb731fb5d25f1aa493335a9e71297e485b7aef312c26102808e01527f1800deef121f1e76426a00665e5c4479674322d4f75edadd46debd5cd992f6ed6102a08e01527f275dc4a288d1afb3cbb1ac09187524c7db36395df7be3b99e673b13a075a65ec6102c08e01527f1d9befcd05a5323e6da4d435f3b617cdb3af83285c2df711ef39c01571827f9d6102e08e015290925090505f6106576119bd565b6020816103008f60085afa915081158061067357508051600114155b156106aa576040517f7fcdd1f400000000000000000000000000000000000000000000000000000000815260040160405180910390fd5b505050505050505050505050505050565b5f5f5f60019050604051604081015f7f2a2cd5881e62ead81dc6997cfff997745379facd38c972e0825deedb0e4fa56483527f208c7b9c6bf876a51b3d62d0a5bdc0d7188e7342dea7d32ddb9635e291e8dd9a60208401527f219e17d13bc5f5ae36d78093cd6d112374a69844b7d058a7a0a62493f1c369c482527f254c200a2cdb5bc5e4e262780b4c70a988c4317fb11ac5fd5491f10692d1e9296020830152863590508060408301527f30644e72e131a029b85045b68181585d2833e84879b9709143e1f593f000000181108416935060408260608460075afa8416935060408360808560065afa841693507f258c71a2309359a248879ba915796e5e2e655acebace0ae7ef8fda2d40d2b2d682527f0b3cd73ef5ee90c6808893b3e4f81d8da3438cb5d2b601045825b2ab3990a3916020830152602087013590508060408301527f30644e72e131a029b85045b68181585d2833e84879b9709143e1f593f000000181108416935060408260608460075afa8416935060408360808560065afa841693507f0945b0f65ee8acfce0b22bab7a27663bfaf8eed78d511a96a54b50f307cd2a2382527f1ef0708b683e9cbfeb8800001f06f9c80950d60869ebfc6b5cc58bd2bbfd6abe6020830152604087013590508060408301527f30644e72e131a029b85045b68181585d2833e84879b9709143e1f593f000000181108416935060408260608460075afa8416935060408360808560065afa841693507f290b3cba8ec4c97f171261b17b9c90e101b65934db12f4a299d4d5b939e9235c82527f14914c2bf919019e575b0bd613363aa160d700bd929bcbc14de06a05e3a25eb06020830152606087013590508060408301527f30644e72e131a029b85045b68181585d2833e84879b9709143e1f593f000000181108416935060408260608460075afa8416935060408360808560065afa7f22474ea30b64abc35269a0c55be5972965bf920e937c3d1927da5e89e60cf91683527f272dd64ca95c75938da75797ef702ec5112808c36914020a4b1822fff576d3346020840152608088013560408085018290527f30644e72e131a029b85045b68181585d2833e84879b9709143e1f593f000000190911091909516169390508160608160075afa831692505060408160808360065afa81516020909201519194509092501680610a4f576040517fa54f8e2700000000000000000000000000000000000000000000000000000000815260040160405180910390fd5b50915091565b5f7f30644e72e131a029b85045b68181585d97816a916871ca8d3c208c16d87cfd4783101580610aa557507f30644e72e131a029b85045b68181585d97816a916871ca8d3c208c16d87cfd478210155b15610adc576040517f7fcdd1f400000000000000000000000000000000000000000000000000000000815260040160405180910390fd5b82158015610ae8575081155b15610af457505f610beb565b5f610b687f30644e72e131a029b85045b68181585d97816a916871ca8d3c208c16d87cfd4760037f30644e72e131a029b85045b68181585d97816a916871ca8d3c208c16d87cfd47877f30644e72e131a029b85045b68181585d97816a916871ca8d3c208c16d87cfd47898a090908611528565b9050808303610b7d575050600182901b610beb565b7f30644e72e131a029b85045b68181585d97816a916871ca8d3c208c16d87cfd478082068103068303610bb7575050600182811b17610beb565b6040517f7fcdd1f400000000000000000000000000000000000000000000000000000000815260040160405180910390fd5b505b92915050565b5f5f7f30644e72e131a029b85045b68181585d97816a916871ca8d3c208c16d87cfd4786101580610c4257507f30644e72e131a029b85045b68181585d97816a916871ca8d3c208c16d87cfd478510155b80610c6d57507f30644e72e131a029b85045b68181585d97816a916871ca8d3c208c16d87cfd478410155b80610c9857507f30644e72e131a029b85045b68181585d97816a916871ca8d3c208c16d87cfd478310155b15610ccf576040517f7fcdd1f400000000000000000000000000000000000000000000000000000000815260040160405180910390fd5b828486881717175f03610ce657505f9050806110b8565b5f80807f30644e72e131a029b85045b68181585d97816a916871ca8d3c208c16d87cfd47610d3560037f30644e72e131a029b85045b68181585d97816a916871ca8d3c208c16d87cfd47611ae9565b7f30644e72e131a029b85045b68181585d97816a916871ca8d3c208c16d87cfd478a8c090990505f7f30644e72e131a029b85045b68181585d97816a916871ca8d3c208c16d87cfd478a7f30644e72e131a029b85045b68181585d97816a916871ca8d3c208c16d87cfd478c8d090990505f7f30644e72e131a029b85045b68181585d97816a916871ca8d3c208c16d87cfd478a7f30644e72e131a029b85045b68181585d97816a916871ca8d3c208c16d87cfd478c8d090990507f30644e72e131a029b85045b68181585d97816a916871ca8d3c208c16d87cfd47807f30644e72e131a029b85045b68181585d97816a916871ca8d3c208c16d87cfd478c860984087f2b149d40ceb8aaae81be18991be06ac3b5b4c5e559dbefa33267e6dc24a138e5089450610ef47f30644e72e131a029b85045b68181585d97816a916871ca8d3c208c16d87cfd47807f30644e72e131a029b85045b68181585d97816a916871ca8d3c208c16d87cfd478e870984087f2fcd3ac2a640a154eb23960892a85a68f031ca0c8344b23a577dcf1052b9e775087f30644e72e131a029b85045b68181585d97816a916871ca8d3c208c16d87cfd479081900681030690565b93505050505f5f610f7a7f30644e72e131a029b85045b68181585d97816a916871ca8d3c208c16d87cfd4780610f2c57610f2c611abc565b7f30644e72e131a029b85045b68181585d97816a916871ca8d3c208c16d87cfd478586097f30644e72e131a029b85045b68181585d97816a916871ca8d3c208c16d87cfd4787880908611528565b9050610feb7f30644e72e131a029b85045b68181585d97816a916871ca8d3c208c16d87cfd477f183227397098d014dc2822db40c0ac2ecbc0b548b438e5469e10460b6c3e7ea47f30644e72e131a029b85045b68181585d97816a916871ca8d3c208c16d87cfd47848808096115b6565b15915050610ffa838383611611565b9093509150868314801561100d57508186145b15611035578061101d575f611020565b60025b60ff1660028a901b175f1794508793506110b4565b7f30644e72e131a029b85045b68181585d97816a916871ca8d3c208c16d87cfd478084068103068714801561108f57507f30644e72e131a029b85045b68181585d97816a916871ca8d3c208c16d87cfd4780830681030686145b15610bb7578061109f575f6110a2565b60025b60ff1660028a901b1760011794508793505b5050505b94509492505050565b5f5f825f036110d457505f928392509050565b600183811c9250808416147f30644e72e131a029b85045b68181585d97816a916871ca8d3c208c16d87cfd478310611138576040517f7fcdd1f400000000000000000000000000000000000000000000000000000000815260040160405180910390fd5b6111ab7f30644e72e131a029b85045b68181585d97816a916871ca8d3c208c16d87cfd4760037f30644e72e131a029b85045b68181585d97816a916871ca8d3c208c16d87cfd47867f30644e72e131a029b85045b68181585d97816a916871ca8d3c208c16d87cfd478889090908611528565b91508015610a4f577f30644e72e131a029b85045b68181585d97816a916871ca8d3c208c16d87cfd47808306810306915050915091565b5f808080851580156111f2575084155b1561120757505f92508291508190508061151f565b600286811c945085935060018088161490808816147f30644e72e131a029b85045b68181585d97816a916871ca8d3c208c16d87cfd478610158061126b57507f30644e72e131a029b85045b68181585d97816a916871ca8d3c208c16d87cfd478510155b156112a2576040517f7fcdd1f400000000000000000000000000000000000000000000000000000000815260040160405180910390fd5b5f7f30644e72e131a029b85045b68181585d97816a916871ca8d3c208c16d87cfd476112ef60037f30644e72e131a029b85045b68181585d97816a916871ca8d3c208c16d87cfd47611ae9565b7f30644e72e131a029b85045b68181585d97816a916871ca8d3c208c16d87cfd47888a090990505f7f30644e72e131a029b85045b68181585d97816a916871ca8d3c208c16d87cfd47887f30644e72e131a029b85045b68181585d97816a916871ca8d3c208c16d87cfd478a8b090990505f7f30644e72e131a029b85045b68181585d97816a916871ca8d3c208c16d87cfd47887f30644e72e131a029b85045b68181585d97816a916871ca8d3c208c16d87cfd478a8b090990507f30644e72e131a029b85045b68181585d97816a916871ca8d3c208c16d87cfd47807f30644e72e131a029b85045b68181585d97816a916871ca8d3c208c16d87cfd478a860984087f2b149d40ceb8aaae81be18991be06ac3b5b4c5e559dbefa33267e6dc24a138e50896506114ae7f30644e72e131a029b85045b68181585d97816a916871ca8d3c208c16d87cfd47807f30644e72e131a029b85045b68181585d97816a916871ca8d3c208c16d87cfd478c870984087f2fcd3ac2a640a154eb23960892a85a68f031ca0c8344b23a577dcf1052b9e775087f30644e72e131a029b85045b68181585d97816a916871ca8d3c208c16d87cfd479081900681030690565b95506114bb878786611611565b90975095508415611519577f30644e72e131a029b85045b68181585d97816a916871ca8d3c208c16d87cfd4780880681030696507f30644e72e131a029b85045b68181585d97816a916871ca8d3c208c16d87cfd4780870681030695505b50505050505b92959194509250565b5f611553827f0c19139cb84c680a6e14116da060561765e05aa45a1c72a34f082305b61f3f52611867565b9050817f30644e72e131a029b85045b68181585d97816a916871ca8d3c208c16d87cfd47828309146115b1576040517f7fcdd1f400000000000000000000000000000000000000000000000000000000815260040160405180910390fd5b919050565b5f5f6115e2837f0c19139cb84c680a6e14116da060561765e05aa45a1c72a34f082305b61f3f52611867565b9050827f30644e72e131a029b85045b68181585d97816a916871ca8d3c208c16d87cfd47828309149392505050565b5f80806116667f30644e72e131a029b85045b68181585d97816a916871ca8d3c208c16d87cfd47808788097f30644e72e131a029b85045b68181585d97816a916871ca8d3c208c16d87cfd47898a0908611528565b90508315611697577f30644e72e131a029b85045b68181585d97816a916871ca8d3c208c16d87cfd47908190068103065b6117067f30644e72e131a029b85045b68181585d97816a916871ca8d3c208c16d87cfd477f183227397098d014dc2822db40c0ac2ecbc0b548b438e5469e10460b6c3e7ea47f30644e72e131a029b85045b68181585d97816a916871ca8d3c208c16d87cfd47848a0809611528565b92507f30644e72e131a029b85045b68181585d97816a916871ca8d3c208c16d87cfd476117567f30644e72e131a029b85045b68181585d97816a916871ca8d3c208c16d87cfd47600286096118f6565b860991507f30644e72e131a029b85045b68181585d97816a916871ca8d3c208c16d87cfd476117cd7f30644e72e131a029b85045b68181585d97816a916871ca8d3c208c16d87cfd478485097f30644e72e131a029b85045b68181585d97816a916871ca8d3c208c16d87cfd479081900681030690565b7f30644e72e131a029b85045b68181585d97816a916871ca8d3c208c16d87cfd47858609088614158061182757507f30644e72e131a029b85045b68181585d97816a916871ca8d3c208c16d87cfd47808385096002098514155b1561185e576040517f7fcdd1f400000000000000000000000000000000000000000000000000000000815260040160405180910390fd5b50935093915050565b5f5f60405160208152602080820152602060408201528460608201528360808201527f30644e72e131a029b85045b68181585d97816a916871ca8d3c208c16d87cfd4760a082015260208160c08360055afa90519250905080610be9576040517f7fcdd1f400000000000000000000000000000000000000000000000000000000815260040160405180910390fd5b5f611921827f30644e72e131a029b85045b68181585d97816a916871ca8d3c208c16d87cfd45611867565b90507f30644e72e131a029b85045b68181585d97816a916871ca8d3c208c16d87cfd478183096001146115b1576040517f7fcdd1f400000000000000000000000000000000000000000000000000000000815260040160405180910390fd5b60405180608001604052806004906020820280368337509192915050565b6040518061030001604052806018906020820280368337509192915050565b60405180602001604052806001906020820280368337509192915050565b806101008101831015610beb575f5ffd5b8060a08101831015610beb575f5ffd5b5f5f6101a08385031215611a0e575f5ffd5b611a1884846119db565b9150611a288461010085016119ec565b90509250929050565b5f6101008284031215611a42575f5ffd5b611a4c83836119db565b9392505050565b6080810181835f5b6004811015611a7a578151835260209283019290910190600101611a5b565b50505092915050565b5f5f6101208385031215611a95575f5ffd5b6080830184811115611aa5575f5ffd5b839250611ab285826119ec565b9150509250929050565b7f4e487b71000000000000000000000000000000000000000000000000000000005f52601260045260245ffd5b81810381811115610beb577f4e487b71000000000000000000000000000000000000000000000000000000005f52601160045260245ffdfea264697066735822122007b50f45e6649a3a9c8bc824263109a7aa6d3f271e5338db6dec30dc5b26915264736f6c634300081d0033","linkReferences":{}},"methodIdentifiers":{"compressProof(uint256[8])":"44f63692","verifyCompressedProof(uint256[4],uint256[5])":"a6708604","verifyProof(uint256[8],uint256[5])":"2a07d99a"},"id":87}