{"abi":[{"type":"function","name":"GIT_COMMIT","inputs":[],"outputs":[{"name":"","type":"string","internalType":"string"}],"stateMutability":"view"},{"type":"function","name":"GIT_TAG","inputs":[],"outputs":[{"name":"","type":"string","internalType":"string"}],"stateMutability":"view"}],"bytecode":{"object":"0x6080604052348015600e575f5ffd5b5061015a8061001c5f395ff3fe608060405234801561000f575f5ffd5b5060043610610034575f3560e01c8063b175eb4d14610038578063b8a15e3a1461008a575b5f5ffd5b6100746040518060400160405280600681526020017f76302e302e33000000000000000000000000000000000000000000000000000081525081565b60405161008191906100a9565b60405180910390f35b6100746040518060600160405280602881526020016100fd6028913981565b602081525f82518060208401528060208501604085015e5f6040828501015260407fffffffffffffffffffffffffffffffffffffffffffffffffffffffffffffffe0601f8301168401019150509291505056fe62643731663266646233373135623838633465616137393962666262323365343631623931373163a2646970667358221220e6bba10d26445d1dac23d79eb3d21a9e4c88858948d4699b2d7feef604b58b6264736f6c634300081d0033","linkReferences":{}},"methodIdentifiers":{"GIT_COMMIT()":"b8a15e3a","GIT_TAG()":"b175eb4d"},"id":114}