{"abi":[{"type":"function","name":"GIT_COMMIT","inputs":[],"outputs":[{"name":"","type":"string","internalType":"string"}],"stateMutability":"view"},{"type":"function","name":"GIT_TAG","inputs":[],"outputs":[{"name":"","type":"string","internalType":"string"}],"stateMutability":"view"}],"bytecode":{"object":"0x6080604052348015600e575f5ffd5b5061015a8061001c5f395ff3fe608060405234801561000f575f5ffd5b5060043610610034575f3560e01c8063b175eb4d14610038578063b8a15e3a1461008a575b5f5ffd5b6100746040518060400160405280600d81526020017f6f7261636c652d76302e312e310000000000000000000000000000000000000081525081565b60405161008191906100a9565b60405180910390f35b6100746040518060600160405280602881526020016100fd6028913981565b602081525f82518060208401528060208501604085015e5f6040828501015260407fffffffffffffffffffffffffffffffffffffffffffffffffffffffffffffffe0601f8301168401019150509291505056fe62333265393535643433613063646434316232633166396239393137633461396432393136636331a26469706673582212202d1e71c5a37e7a51f6212f0570186d21caef7fda091ff5be9f2a84a58631a10f64736f6c634300081d0033","linkReferences":{}},"methodIdentifiers":{"GIT_COMMIT()":"b8a15e3a","GIT_TAG()":"b175eb4d"},"id":115}