{"abi":[{"type":"constructor","inputs":[],"stateMutability":"nonpayable"},{"type":"function","name":"DEFAULT_ADMIN_ROLE","inputs":[],"outputs":[{"name":"","type":"bytes32","internalType":"bytes32"}],"stateMutability":"view"},{"type":"function","name":"GIT_COMMIT","inputs":[],"outputs":[{"name":"","type":"string","internalType":"string"}],"stateMutability":"view"},{"type":"function","name":"GIT_TAG","inputs":[],"outputs":[{"name":"","type":"string","internalType":"string"}],"stateMutability":"view"},{"type":"function","name":"UPGRADE_INTERFACE_VERSION","inputs":[],"outputs":[{"name":"","type":"string","internalType":"string"}],"stateMutability":"view"},{"type":"function","name":"VAULT_ROLE","inputs":[],"outputs":[{"name":"","type":"bytes32","internalType":"bytes32"}],"stateMutability":"view"},{"type":"function","name":"approve","inputs":[{"name":"to","type":"address","internalType":"address"},{"name":"tokenId","type":"uint256","internalType":"uint256"}],"outputs":[],"stateMutability":"nonpayable"},{"type":"function","name":"balanceOf","inputs":[{"name":"owner","type":"address","internalType":"address"}],"outputs":[{"name":"","type":"uint256","internalType":"uint256"}],"stateMutability":"view"},{"type":"function","name":"burn","inputs":[{"name":"tokenId","type":"uint256","internalType":"uint256"}],"outputs":[],"stateMutability":"nonpayable"},{"type":"function","name":"getApproved","inputs":[{"name":"tokenId","type":"uint256","internalType":"uint256"}],"outputs":[{"name":"","type":"address","internalType":"address"}],"stateMutability":"view"},{"type":"function","name":"getRoleAdmin","inputs":[{"name":"role","type":"bytes32","internalType":"bytes32"}],"outputs":[{"name":"","type":"bytes32","internalType":"bytes32"}],"stateMutability":"view"},{"type":"function","name":"getRoleMember","inputs":[{"name":"role","type":"bytes32","internalType":"bytes32"},{"name":"index","type":"uint256","internalType":"uint256"}],"outputs":[{"name":"","type":"address","internalType":"address"}],"stateMutability":"view"},{"type":"function","name":"getRoleMemberCount","inputs":[{"name":"role","type":"bytes32","internalType":"bytes32"}],"outputs":[{"name":"","type":"uint256","internalType":"uint256"}],"stateMutability":"view"},{"type":"function","name":"getRoleMembers","inputs":[{"name":"role","type":"bytes32","internalType":"bytes32"}],"outputs":[{"name":"","type":"address[]","internalType":"address[]"}],"stateMutability":"view"},{"type":"function","name":"getWithdrawalRequest","inputs":[{"name":"tokenId","type":"uint256","internalType":"uint256"}],"outputs":[{"name":"response","type":"tuple","internalType":"struct IWithdrawalNFT.WithdrawalResponse","components":[{"name":"authority","type":"address","internalType":"address"},{"name":"owner","type":"address","internalType":"address"},{"name":"assets","type":"uint256","internalType":"uint256"},{"name":"shares","type":"uint256","internalType":"uint256"},{"name":"timestamp","type":"uint256","internalType":"uint256"},{"name":"assetToken","type":"address","internalType":"address"},{"name":"shareToken","type":"address","internalType":"address"}]}],"stateMutability":"view"},{"type":"function","name":"grantRole","inputs":[{"name":"role","type":"bytes32","internalType":"bytes32"},{"name":"account","type":"address","internalType":"address"}],"outputs":[],"stateMutability":"nonpayable"},{"type":"function","name":"hasRole","inputs":[{"name":"role","type":"bytes32","internalType":"bytes32"},{"name":"account","type":"address","internalType":"address"}],"outputs":[{"name":"","type":"bool","internalType":"bool"}],"stateMutability":"view"},{"type":"function","name":"initialize","inputs":[{"name":"initialOwner","type":"address","internalType":"address"}],"outputs":[],"stateMutability":"nonpayable"},{"type":"function","name":"isApprovedForAll","inputs":[{"name":"owner","type":"address","internalType":"address"},{"name":"operator","type":"address","internalType":"address"}],"outputs":[{"name":"","type":"bool","internalType":"bool"}],"stateMutability":"view"},{"type":"function","name":"mint","inputs":[{"name":"to","type":"address","internalType":"address"},{"name":"assets","type":"uint256","internalType":"uint256"},{"name":"shares","type":"uint256","internalType":"uint256"},{"name":"timestamp","type":"uint256","internalType":"uint256"},{"name":"assetToken","type":"address","internalType":"address"},{"name":"shareToken","type":"address","internalType":"address"}],"outputs":[{"name":"tokenId","type":"uint256","internalType":"uint256"}],"stateMutability":"nonpayable"},{"type":"function","name":"name","inputs":[],"outputs":[{"name":"","type":"string","internalType":"string"}],"stateMutability":"view"},{"type":"function","name":"ownerOf","inputs":[{"name":"tokenId","type":"uint256","internalType":"uint256"}],"outputs":[{"name":"","type":"address","internalType":"address"}],"stateMutability":"view"},{"type":"function","name":"proxiableUUID","inputs":[],"outputs":[{"name":"","type":"bytes32","internalType":"bytes32"}],"stateMutability":"view"},{"type":"function","name":"renounceRole","inputs":[{"name":"role","type":"bytes32","internalType":"bytes32"},{"name":"callerConfirmation","type":"address","internalType":"address"}],"outputs":[],"stateMutability":"nonpayable"},{"type":"function","name":"revokeRole","inputs":[{"name":"role","type":"bytes32","internalType":"bytes32"},{"name":"account","type":"address","internalType":"address"}],"outputs":[],"stateMutability":"nonpayable"},{"type":"function","name":"safeTransferFrom","inputs":[{"name":"from","type":"address","internalType":"address"},{"name":"to","type":"address","internalType":"address"},{"name":"tokenId","type":"uint256","internalType":"uint256"}],"outputs":[],"stateMutability":"nonpayable"},{"type":"function","name":"safeTransferFrom","inputs":[{"name":"from","type":"address","internalType":"address"},{"name":"to","type":"address","internalType":"address"},{"name":"tokenId","type":"uint256","internalType":"uint256"},{"name":"data","type":"bytes","internalType":"bytes"}],"outputs":[],"stateMutability":"nonpayable"},{"type":"function","name":"setApprovalForAll","inputs":[{"name":"operator","type":"address","internalType":"address"},{"name":"approved","type":"bool","internalType":"bool"}],"outputs":[],"stateMutability":"nonpayable"},{"type":"function","name":"supportsInterface","inputs":[{"name":"interfaceId","type":"bytes4","internalType":"bytes4"}],"outputs":[{"name":"","type":"bool","internalType":"bool"}],"stateMutability":"view"},{"type":"function","name":"symbol","inputs":[],"outputs":[{"name":"","type":"string","internalType":"string"}],"stateMutability":"view"},{"type":"function","name":"tokenURI","inputs":[{"name":"tokenId","type":"uint256","internalType":"uint256"}],"outputs":[{"name":"result","type":"string","internalType":"string"}],"stateMutability":"view"},{"type":"function","name":"transferFrom","inputs":[{"name":"from","type":"address","internalType":"address"},{"name":"to","type":"address","internalType":"address"},{"name":"tokenId","type":"uint256","internalType":"uint256"}],"outputs":[],"stateMutability":"nonpayable"},{"type":"function","name":"upgradeToAndCall","inputs":[{"name":"newImplementation","type":"address","internalType":"address"},{"name":"data","type":"bytes","internalType":"bytes"}],"outputs":[],"stateMutability":"payable"},{"type":"event","name":"Approval","inputs":[{"name":"owner","type":"address","indexed":true,"internalType":"address"},{"name":"approved","type":"address","indexed":true,"internalType":"address"},{"name":"tokenId","type":"uint256","indexed":true,"internalType":"uint256"}],"anonymous":false},{"type":"event","name":"ApprovalForAll","inputs":[{"name":"owner","type":"address","indexed":true,"internalType":"address"},{"name":"operator","type":"address","indexed":true,"internalType":"address"},{"name":"approved","type":"bool","indexed":false,"internalType":"bool"}],"anonymous":false},{"type":"event","name":"Initialized","inputs":[{"name":"version","type":"uint64","indexed":false,"internalType":"uint64"}],"anonymous":false},{"type":"event","name":"RoleAdminChanged","inputs":[{"name":"role","type":"bytes32","indexed":true,"internalType":"bytes32"},{"name":"previousAdminRole","type":"bytes32","indexed":true,"internalType":"bytes32"},{"name":"newAdminRole","type":"bytes32","indexed":true,"internalType":"bytes32"}],"anonymous":false},{"type":"event","name":"RoleGranted","inputs":[{"name":"role","type":"bytes32","indexed":true,"internalType":"bytes32"},{"name":"account","type":"address","indexed":true,"internalType":"address"},{"name":"sender","type":"address","indexed":true,"internalType":"address"}],"anonymous":false},{"type":"event","name":"RoleRevoked","inputs":[{"name":"role","type":"bytes32","indexed":true,"internalType":"bytes32"},{"name":"account","type":"address","indexed":true,"internalType":"address"},{"name":"sender","type":"address","indexed":true,"internalType":"address"}],"anonymous":false},{"type":"event","name":"Transfer","inputs":[{"name":"from","type":"address","indexed":true,"internalType":"address"},{"name":"to","type":"address","indexed":true,"internalType":"address"},{"name":"tokenId","type":"uint256","indexed":true,"internalType":"uint256"}],"anonymous":false},{"type":"event","name":"Upgraded","inputs":[{"name":"implementation","type":"address","indexed":true,"internalType":"address"}],"anonymous":false},{"type":"event","name":"WithdrawalRequestBurned","inputs":[{"name":"owner","type":"address","indexed":true,"internalType":"address"},{"name":"tokenId","type":"uint256","indexed":true,"internalType":"uint256"}],"anonymous":false},{"type":"event","name":"WithdrawalRequestMinted","inputs":[{"name":"authority","type":"address","indexed":true,"internalType":"address"},{"name":"owner","type":"address","indexed":true,"internalType":"address"},{"name":"tokenId","type":"uint256","indexed":true,"internalType":"uint256"},{"name":"assets","type":"uint256","indexed":false,"internalType":"uint256"},{"name":"shares","type":"uint256","indexed":false,"internalType":"uint256"},{"name":"timestamp","type":"uint256","indexed":false,"internalType":"uint256"}],"anonymous":false},{"type":"error","name":"AccessControlBadConfirmation","inputs":[]},{"type":"error","name":"AccessControlUnauthorizedAccount","inputs":[{"name":"account","type":"address","internalType":"address"},{"name":"neededRole","type":"bytes32","internalType":"bytes32"}]},{"type":"error","name":"AddressEmptyCode","inputs":[{"name":"target","type":"address","internalType":"address"}]},{"type":"error","name":"ERC1967InvalidImplementation","inputs":[{"name":"implementation","type":"address","internalType":"address"}]},{"type":"error","name":"ERC1967NonPayable","inputs":[]},{"type":"error","name":"ERC721IncorrectOwner","inputs":[{"name":"sender","type":"address","internalType":"address"},{"name":"tokenId","type":"uint256","internalType":"uint256"},{"name":"owner","type":"address","internalType":"address"}]},{"type":"error","name":"ERC721InsufficientApproval","inputs":[{"name":"operator","type":"address","internalType":"address"},{"name":"tokenId","type":"uint256","internalType":"uint256"}]},{"type":"error","name":"ERC721InvalidApprover","inputs":[{"name":"approver","type":"address","internalType":"address"}]},{"type":"error","name":"ERC721InvalidOperator","inputs":[{"name":"operator","type":"address","internalType":"address"}]},{"type":"error","name":"ERC721InvalidOwner","inputs":[{"name":"owner","type":"address","internalType":"address"}]},{"type":"error","name":"ERC721InvalidReceiver","inputs":[{"name":"receiver","type":"address","internalType":"address"}]},{"type":"error","name":"ERC721InvalidSender","inputs":[{"name":"sender","type":"address","internalType":"address"}]},{"type":"error","name":"ERC721NonexistentToken","inputs":[{"name":"tokenId","type":"uint256","internalType":"uint256"}]},{"type":"error","name":"FailedCall","inputs":[]},{"type":"error","name":"InvalidAssets","inputs":[]},{"type":"error","name":"InvalidInitialization","inputs":[]},{"type":"error","name":"InvalidShares","inputs":[]},{"type":"error","name":"InvalidTimestamp","inputs":[]},{"type":"error","name":"InvalidTokenId","inputs":[]},{"type":"error","name":"InvalidTokens","inputs":[]},{"type":"error","name":"NotInitializing","inputs":[]},{"type":"error","name":"SafeCastOverflowedUintDowncast","inputs":[{"name":"bits","type":"uint8","internalType":"uint8"},{"name":"value","type":"uint256","internalType":"uint256"}]},{"type":"error","name":"UUPSUnauthorizedCallContext","inputs":[]},{"type":"error","name":"UUPSUnsupportedProxiableUUID","inputs":[{"name":"slot","type":"bytes32","internalType":"bytes32"}]},{"type":"error","name":"Unauthorized","inputs":[]},{"type":"error","name":"ZeroAddress","inputs":[]}],"bytecode":{"object":"0x60a060405230608052348015610013575f5ffd5b5061001c610021565b6100d3565b7ff0c57e16840df040f15088dc2f81fe391c3923bec73e23a9662efc9c229c6a00805468010000000000000000900460ff16156100715760405163f92ee8a960e01b815260040160405180910390fd5b80546001600160401b03908116146100d05780546001600160401b0319166001600160401b0390811782556040519081527fc7f505b2f371ae2175ee4913f4499e1f2633a7b5936321eed1cdaeb6115181d29060200160405180910390a15b50565b6080516141ef6100f95f395f8181611cec01528181611d150152611ec901526141ef5ff3fe6080604052600436106101db575f3560e01c806395d89b41116100fd578063b88d4fde11610092578063ca15c87311610062578063ca15c873146106a7578063d547741f146106c6578063e985e9c5146106e5578063ff525efa1461074b575f5ffd5b8063b88d4fde14610636578063b8a15e3a14610655578063c4d66de814610669578063c87b56dd14610688575f5ffd5b8063a3246ad3116100cd578063a3246ad3146104e2578063ad3cb1cc1461050e578063ae48565114610556578063b175eb4d146105ee575f5ffd5b806395d89b411461046957806398c4f1ac1461047d578063a217fddf146104b0578063a22cb465146104c3575f5ffd5b806342842e0e116101735780636352211e116101435780636352211e146103a957806370a08231146103c85780639010d07c146103e757806391d1485414610406575f5ffd5b806342842e0e1461034457806342966c68146103635780634f1ef2861461038257806352d1902d14610395575f5ffd5b806323b872dd116101ae57806323b872dd1461028c578063248a9ca3146102ab5780632f2ff15d1461030657806336568abe14610325575f5ffd5b806301ffc9a7146101df57806306fdde0314610213578063081812fc14610234578063095ea7b31461026b575b5f5ffd5b3480156101ea575f5ffd5b506101fe6101f93660046132a9565b61076a565b60405190151581526020015b60405180910390f35b34801561021e575f5ffd5b5061022761077a565b60405161020a91906132f2565b34801561023f575f5ffd5b5061025361024e366004613304565b61082e565b6040516001600160a01b03909116815260200161020a565b348015610276575f5ffd5b5061028a610285366004613336565b610874565b005b348015610297575f5ffd5b5061028a6102a636600461335e565b610883565b3480156102b6575f5ffd5b506102f86102c5366004613304565b5f9081527f02dd7bc7dec4dceedda775e58dd541e08a116c6c53815c0bd028192f7b626800602052604090206001015490565b60405190815260200161020a565b348015610311575f5ffd5b5061028a610320366004613398565b610943565b348015610330575f5ffd5b5061028a61033f366004613398565b610986565b34801561034f575f5ffd5b5061028a61035e36600461335e565b6109d7565b34801561036e575f5ffd5b5061028a61037d366004613304565b6109f1565b61028a610390366004613499565b610bcd565b3480156103a0575f5ffd5b506102f8610be8565b3480156103b4575f5ffd5b506102536103c3366004613304565b610c16565b3480156103d3575f5ffd5b506102f86103e23660046134e4565b610c20565b3480156103f2575f5ffd5b506102536104013660046134fd565b610ca4565b348015610411575f5ffd5b506101fe610420366004613398565b5f9182527f02dd7bc7dec4dceedda775e58dd541e08a116c6c53815c0bd028192f7b626800602090815260408084206001600160a01b0393909316845291905290205460ff1690565b348015610474575f5ffd5b50610227610ce4565b348015610488575f5ffd5b506102f87f31e0210044b4f6757ce6aa31f9c6e8d4896d24a755014887391a926c5224d95981565b3480156104bb575f5ffd5b506102f85f81565b3480156104ce575f5ffd5b5061028a6104dd36600461351d565b610d35565b3480156104ed575f5ffd5b506105016104fc366004613304565b610d40565b60405161020a9190613556565b348015610519575f5ffd5b506102276040518060400160405280600581526020017f352e302e3000000000000000000000000000000000000000000000000000000081525081565b348015610561575f5ffd5b50610575610570366004613304565b610d83565b60405161020a91905f60e0820190506001600160a01b0383511682526001600160a01b0360208401511660208301526040830151604083015260608301516060830152608083015160808301526001600160a01b0360a08401511660a08301526001600160a01b0360c08401511660c083015292915050565b3480156105f9575f5ffd5b506102276040518060400160405280600681526020017f76302e302e33000000000000000000000000000000000000000000000000000081525081565b348015610641575f5ffd5b5061028a6106503660046135a1565b610fbe565b348015610660575f5ffd5b50610227610fd6565b348015610674575f5ffd5b5061028a6106833660046134e4565b610ff2565b348015610693575f5ffd5b506102276106a2366004613304565b611266565b3480156106b2575f5ffd5b506102f86106c1366004613304565b61159e565b3480156106d1575f5ffd5b5061028a6106e0366004613398565b6115d5565b3480156106f0575f5ffd5b506101fe6106ff366004613605565b6001600160a01b039182165f9081527f80bb2b638cc20bc4d0a60d66940f3ab4a00c1d7b313497ca82fb0b4ab00793056020908152604080832093909416825291909152205460ff1690565b348015610756575f5ffd5b506102f861076536600461362d565b611618565b5f610774826119be565b92915050565b7f80bb2b638cc20bc4d0a60d66940f3ab4a00c1d7b313497ca82fb0b4ab007930080546060919081906107ac90613688565b80601f01602080910402602001604051908101604052809291908181526020018280546107d890613688565b80156108235780601f106107fa57610100808354040283529160200191610823565b820191905f5260205f20905b81548152906001019060200180831161080657829003601f168201915b505050505091505090565b5f61083882611a13565b505f8281527f80bb2b638cc20bc4d0a60d66940f3ab4a00c1d7b313497ca82fb0b4ab007930460205260409020546001600160a01b0316610774565b61087f828233611a83565b5050565b6001600160a01b0382166108ca576040517f64a0ae920000000000000000000000000000000000000000000000000000000081525f60048201526024015b60405180910390fd5b5f6108d6838333611a90565b9050836001600160a01b0316816001600160a01b03161461093d576040517f64283d7b0000000000000000000000000000000000000000000000000000000081526001600160a01b03808616600483015260248201849052821660448201526064016108c1565b50505050565b5f8281527f02dd7bc7dec4dceedda775e58dd541e08a116c6c53815c0bd028192f7b626800602052604090206001015461097c81611be2565b61093d8383611bef565b6001600160a01b03811633146109c8576040517f6697b23200000000000000000000000000000000000000000000000000000000815260040160405180910390fd5b6109d28282611c44565b505050565b6109d283838360405180602001604052805f815250610fbe565b7f31e0210044b4f6757ce6aa31f9c6e8d4896d24a755014887391a926c5224d959610a1b81611be2565b5f8281527fe6646f2669f59cd2beeb461afb5aac084df6ed909d84d061da0de4f5937be2006020818152604092839020835160e08101855281546001600160a01b0380821680845265ffffffffffff7401000000000000000000000000000000000000000084048116968501969096527a0100000000000000000000000000000000000000000000000000009092049094169582019590955260018201546fffffffffffffffffffffffffffffffff80821660608401527001000000000000000000000000000000009091041660808201526002820154831660a082015260039091015490911660c082015290913314610b41576040517f82b4290000000000000000000000000000000000000000000000000000000000815260040160405180910390fd5b5f84815260208390526040812081815560018101919091556002810180547fffffffffffffffffffffffff0000000000000000000000000000000000000000908116909155600390910180549091169055610b9b84611c90565b604051849033907f3ad778c106b5528d4638b1a37c34cc10105fb60d7db74896dc9eb83a9f8252b3905f90a350505050565b610bd5611ce1565b610bde82611db3565b61087f8282611dbd565b5f610bf1611ebe565b507f360894a13ba1a3210667c828492db98dca3e2076cc3735a920a3ca505d382bbc90565b5f61077482611a13565b5f7f80bb2b638cc20bc4d0a60d66940f3ab4a00c1d7b313497ca82fb0b4ab00793006001600160a01b038316610c84576040517f89c62b640000000000000000000000000000000000000000000000000000000081525f60048201526024016108c1565b6001600160a01b039092165f908152600390920160205250604090205490565b5f8281527fc1f6fe24621ce81ec5827caf0253cadb74709b061630e6b55e82371705932000602081905260408220610cdc9084611f20565b949350505050565b7f80bb2b638cc20bc4d0a60d66940f3ab4a00c1d7b313497ca82fb0b4ab007930180546060917f80bb2b638cc20bc4d0a60d66940f3ab4a00c1d7b313497ca82fb0b4ab0079300916107ac90613688565b61087f338383611f2b565b5f8181527fc1f6fe24621ce81ec5827caf0253cadb74709b061630e6b55e823717059320006020819052604090912060609190610d7c90612024565b9392505050565b6040805160e0810182525f80825260208201819052918101829052606081018290526080810182905260a0810182905260c08101829052907fe6646f2669f59cd2beeb461afb5aac084df6ed909d84d061da0de4f5937be2005f8481526020828152604091829020825160e08101845281546001600160a01b03808216835265ffffffffffff74010000000000000000000000000000000000000000830481169584018690527a0100000000000000000000000000000000000000000000000000009092049091169482019490945260018201546fffffffffffffffffffffffffffffffff80821660608401527001000000000000000000000000000000009091041660808201526002820154841660a082015260039091015490921660c083015291925090610edf576040517f3f6cc76800000000000000000000000000000000000000000000000000000000815260040160405180910390fd5b6040518060e00160405280825f01516001600160a01b03168152602001610f39865f9081527f80bb2b638cc20bc4d0a60d66940f3ab4a00c1d7b313497ca82fb0b4ab007930260205260409020546001600160a01b031690565b6001600160a01b0316815260200182606001516fffffffffffffffffffffffffffffffff16815260200182608001516fffffffffffffffffffffffffffffffff168152602001826020015165ffffffffffff1681526020018260a001516001600160a01b031681526020018260c001516001600160a01b031681525092505050919050565b610fc9848484610883565b61093d3385858585612030565b6040518060600160405280602881526020016141926028913981565b7ff0c57e16840df040f15088dc2f81fe391c3923bec73e23a9662efc9c229c6a00805468010000000000000000810460ff16159067ffffffffffffffff165f8115801561103c5750825b90505f8267ffffffffffffffff1660011480156110585750303b155b905081158015611066575080155b1561109d576040517ff92ee8a900000000000000000000000000000000000000000000000000000000815260040160405180910390fd5b84547fffffffffffffffffffffffffffffffffffffffffffffffff000000000000000016600117855583156110fe5784547fffffffffffffffffffffffffffffffffffffffffffffff00ffffffffffffffff16680100000000000000001785555b6001600160a01b03861661116e576040517f08c379a000000000000000000000000000000000000000000000000000000000815260206004820152600d60248201527f496e76616c6964206f776e65720000000000000000000000000000000000000060448201526064016108c1565b6111e26040518060400160405280601881526020017f4d756e6a61205769746864726177616c205265717565737400000000000000008152506040518060400160405280600381526020017f6d575200000000000000000000000000000000000000000000000000000000008152506121d2565b6111ea6121e4565b6111f26121e4565b6111fc5f87611bef565b50831561125e5784547fffffffffffffffffffffffffffffffffffffffffffffff00ffffffffffffffff168555604051600181527fc7f505b2f371ae2175ee4913f4499e1f2633a7b5936321eed1cdaeb6115181d29060200160405180910390a15b505050505050565b60605f7fe6646f2669f59cd2beeb461afb5aac084df6ed909d84d061da0de4f5937be2005f8481526020828152604091829020825160e08101845281546001600160a01b03808216835265ffffffffffff74010000000000000000000000000000000000000000830481169584018690527a0100000000000000000000000000000000000000000000000000009092049091169482019490945260018201546fffffffffffffffffffffffffffffffff80821660608401527001000000000000000000000000000000009091041660808201526002820154841660a082015260039091015490921660c08301529192509061138d576040517f3f6cc76800000000000000000000000000000000000000000000000000000000815260040160405180910390fd5b6060808260a001516001600160a01b03166395d89b416040518163ffffffff1660e01b81526004015f60405180830381865afa1580156113cf573d5f5f3e3d5ffd5b505050506040513d5f823e601f3d908101601f191682016040526113f691908101906136d9565b91508260c001516001600160a01b03166395d89b416040518163ffffffff1660e01b81526004015f60405180830381865afa158015611437573d5f5f3e3d5ffd5b505050506040513d5f823e601f3d908101601f1916820160405261145e91908101906136d9565b905060605f61146f888686866121ec565b90505f61147b86612252565b9050611486896122cf565b6114a587606001516fffffffffffffffffffffffffffffffff16612311565b866114c589608001516fffffffffffffffffffffffffffffffff166122cf565b8786866040516020016114de9796959493929190613765565b60408051601f198184030181528282018252601b8084527f646174613a6170706c69636174696f6e2f6a736f6e3b757466382c000000000060208581019182528351945185840181529d5092975093955093509091908a0190603b85015b8082101561155757815183526020928301929091019061153c565b8460208d0101925060208701915083820190505b8082101561158657815183526020928301929091019061156b565b50505001870160200160405250949695505050505050565b5f8181527fc1f6fe24621ce81ec5827caf0253cadb74709b061630e6b55e82371705932000602081905260408220610d7c90612365565b5f8281527f02dd7bc7dec4dceedda775e58dd541e08a116c6c53815c0bd028192f7b626800602052604090206001015461160e81611be2565b61093d8383611c44565b5f7f31e0210044b4f6757ce6aa31f9c6e8d4896d24a755014887391a926c5224d95961164381611be2565b6001600160a01b038816611683576040517fd92e233d00000000000000000000000000000000000000000000000000000000815260040160405180910390fd5b6001600160a01b038416158015906116a357506001600160a01b03831615155b6116d9576040517f672215de00000000000000000000000000000000000000000000000000000000815260040160405180910390fd5b5f8711611712576040517f60dd3f4400000000000000000000000000000000000000000000000000000000815260040160405180910390fd5b5f861161174b576040517f6edcc52300000000000000000000000000000000000000000000000000000000815260040160405180910390fd5b7fe6646f2669f59cd2beeb461afb5aac084df6ed909d84d061da0de4f5937be20180547fe6646f2669f59cd2beeb461afb5aac084df6ed909d84d061da0de4f5937be200915f61179a83613947565b9190505592506040518060e001604052806117b23390565b6001600160a01b031681526020016117c98861236e565b65ffffffffffff1681525f60208201526040016117e58a6123bd565b6fffffffffffffffffffffffffffffffff168152602001611805896123bd565b6fffffffffffffffffffffffffffffffff90811682526001600160a01b038881166020808501919091528882166040948501525f8881528682528490208551815492870151958701519084167fffffffffffff0000000000000000000000000000000000000000000000000000909316929092177401000000000000000000000000000000000000000065ffffffffffff968716021779ffffffffffffffffffffffffffffffffffffffffffffffffffff167a010000000000000000000000000000000000000000000000000000959092169490940217835560608401516080850151908316700100000000000000000000000000000000919093160291909117600183015560a08301516002830180547fffffffffffffffffffffffff000000000000000000000000000000000000000090811692841692909217905560c0909301516003909201805490931691161790556119628984612412565b6040805189815260208101899052808201889052905184916001600160a01b038c169133917f0c568c57d5bf5dc4ddf678aa3f88cbc3baf689d181448b2464e84a5b0c7dae04919081900360600190a450509695505050505050565b5f7fffffffff0000000000000000000000000000000000000000000000000000000082167f5a05180f0000000000000000000000000000000000000000000000000000000014806107745750610774826124a5565b5f8181527f80bb2b638cc20bc4d0a60d66940f3ab4a00c1d7b313497ca82fb0b4ab007930260205260408120546001600160a01b031680610774576040517f7e273289000000000000000000000000000000000000000000000000000000008152600481018490526024016108c1565b6109d283838360016124fa565b5f8281527f80bb2b638cc20bc4d0a60d66940f3ab4a00c1d7b313497ca82fb0b4ab007930260205260408120547f80bb2b638cc20bc4d0a60d66940f3ab4a00c1d7b313497ca82fb0b4ab0079300906001600160a01b0390811690841615611afd57611afd81858761268e565b6001600160a01b03811615611b3957611b185f865f5f6124fa565b6001600160a01b0381165f908152600383016020526040902080545f190190555b6001600160a01b03861615611b69576001600160a01b0386165f9081526003830160205260409020805460010190555b5f85815260028301602052604080822080547fffffffffffffffffffffffff0000000000000000000000000000000000000000166001600160a01b038a811691821790925591518893918516917fddf252ad1be2c89b69c2b068fc378daa952ba7f163c4a11628f55a4df523b3ef91a495945050505050565b611bec8133612724565b50565b5f7fc1f6fe24621ce81ec5827caf0253cadb74709b061630e6b55e8237170593200081611c1c85856127b0565b90508015610cdc575f858152602083905260409020611c3b908561289a565b50949350505050565b5f7fc1f6fe24621ce81ec5827caf0253cadb74709b061630e6b55e8237170593200081611c7185856128ae565b90508015610cdc575f858152602083905260409020611c3b9085612970565b5f611c9c5f835f611a90565b90506001600160a01b03811661087f576040517f7e273289000000000000000000000000000000000000000000000000000000008152600481018390526024016108c1565b306001600160a01b037f0000000000000000000000000000000000000000000000000000000000000000161480611d7a57507f00000000000000000000000000000000000000000000000000000000000000006001600160a01b0316611d6e7f360894a13ba1a3210667c828492db98dca3e2076cc3735a920a3ca505d382bbc546001600160a01b031690565b6001600160a01b031614155b15611db1576040517fe07c8dba00000000000000000000000000000000000000000000000000000000815260040160405180910390fd5b565b5f61087f81611be2565b816001600160a01b03166352d1902d6040518163ffffffff1660e01b8152600401602060405180830381865afa925050508015611e17575060408051601f3d908101601f19168201909252611e149181019061395f565b60015b611e58576040517f4c9c8ce30000000000000000000000000000000000000000000000000000000081526001600160a01b03831660048201526024016108c1565b7f360894a13ba1a3210667c828492db98dca3e2076cc3735a920a3ca505d382bbc8114611eb4576040517faa1d49a4000000000000000000000000000000000000000000000000000000008152600481018290526024016108c1565b6109d28383612984565b306001600160a01b037f00000000000000000000000000000000000000000000000000000000000000001614611db1576040517fe07c8dba00000000000000000000000000000000000000000000000000000000815260040160405180910390fd5b5f610d7c83836129d9565b7f80bb2b638cc20bc4d0a60d66940f3ab4a00c1d7b313497ca82fb0b4ab00793006001600160a01b038316611f97576040517f5b08ba180000000000000000000000000000000000000000000000000000000081526001600160a01b03841660048201526024016108c1565b6001600160a01b038481165f81815260058401602090815260408083209488168084529482529182902080547fffffffffffffffffffffffffffffffffffffffffffffffffffffffffffffff001687151590811790915591519182527f17307eab39ab6107e8899845ad3d59bd9653f200f220920489ca2b5937696c31910160405180910390a350505050565b60605f610d7c836129ff565b6001600160a01b0383163b156121cb576040517f150b7a020000000000000000000000000000000000000000000000000000000081526001600160a01b0384169063150b7a029061208b908890889087908790600401613976565b6020604051808303815f875af19250505080156120c5575060408051601f3d908101601f191682019092526120c2918101906139ac565b60015b612145573d8080156120f2576040519150601f19603f3d011682016040523d82523d5f602084013e6120f7565b606091505b5080515f0361213d576040517f64a0ae920000000000000000000000000000000000000000000000000000000081526001600160a01b03851660048201526024016108c1565b805181602001fd5b7fffffffff0000000000000000000000000000000000000000000000000000000081167f150b7a02000000000000000000000000000000000000000000000000000000001461125e576040517f64a0ae920000000000000000000000000000000000000000000000000000000081526001600160a01b03851660048201526024016108c1565b5050505050565b6121da612a58565b61087f8282612abf565b611db1612a58565b60606122496040518060a0016040528087815260200186606001516fffffffffffffffffffffffffffffffff16815260200186608001516fffffffffffffffffffffffffffffffff16815260200185815260200184815250612b02565b95945050505050565b606061227382606001516fffffffffffffffffffffffffffffffff166122cf565b61229283608001516fffffffffffffffffffffffffffffffff166122cf565b6122a7846020015165ffffffffffff166122cf565b6040516020016122b9939291906139c7565b6040516020818303038152906040529050919050565b60606080604051019050602081016040525f8152805f19835b928101926030600a8206018453600a9004806122e8575050819003601f19909101908152919050565b6060670de0b6b3a76400008083049064e8d4a5100090840604612333826122cf565b61233c82612b9b565b60405160200161234d929190613b22565b60405160208183030381529060405292505050919050565b5f610774825490565b5f65ffffffffffff8211156123b9576040517f6dfcc65000000000000000000000000000000000000000000000000000000000815260306004820152602481018390526044016108c1565b5090565b5f6fffffffffffffffffffffffffffffffff8211156123b9576040517f6dfcc65000000000000000000000000000000000000000000000000000000000815260806004820152602481018390526044016108c1565b6001600160a01b038216612454576040517f64a0ae920000000000000000000000000000000000000000000000000000000081525f60048201526024016108c1565b5f61246083835f611a90565b90506001600160a01b038116156109d2576040517f73c6ac6e0000000000000000000000000000000000000000000000000000000081525f60048201526024016108c1565b5f7fffffffff0000000000000000000000000000000000000000000000000000000082167f7965db0b000000000000000000000000000000000000000000000000000000001480610774575061077482612bdc565b7f80bb2b638cc20bc4d0a60d66940f3ab4a00c1d7b313497ca82fb0b4ab0079300818061252f57506001600160a01b03831615155b15612646575f61253e85611a13565b90506001600160a01b0384161580159061256a5750836001600160a01b0316816001600160a01b031614155b80156125ba57506001600160a01b038082165f9081527f80bb2b638cc20bc4d0a60d66940f3ab4a00c1d7b313497ca82fb0b4ab0079305602090815260408083209388168352929052205460ff16155b156125fc576040517fa9fbf51f0000000000000000000000000000000000000000000000000000000081526001600160a01b03851660048201526024016108c1565b82156126445784866001600160a01b0316826001600160a01b03167f8c5be1e5ebec7d5bd14f71427d1e84f3dd0314c0f7b2291e5b200ac8c7c3b92560405160405180910390a45b505b5f93845260040160205250506040902080547fffffffffffffffffffffffff0000000000000000000000000000000000000000166001600160a01b0392909216919091179055565b612699838383612cbe565b6109d2576001600160a01b0383166126e0576040517f7e273289000000000000000000000000000000000000000000000000000000008152600481018290526024016108c1565b6040517f177e802f0000000000000000000000000000000000000000000000000000000081526001600160a01b0383166004820152602481018290526044016108c1565b5f8281527f02dd7bc7dec4dceedda775e58dd541e08a116c6c53815c0bd028192f7b626800602090815260408083206001600160a01b038516845290915290205460ff1661087f576040517fe2517d3f0000000000000000000000000000000000000000000000000000000081526001600160a01b0382166004820152602481018390526044016108c1565b5f8281527f02dd7bc7dec4dceedda775e58dd541e08a116c6c53815c0bd028192f7b626800602081815260408084206001600160a01b038616855290915282205460ff16612891575f848152602082815260408083206001600160a01b0387168452909152902080547fffffffffffffffffffffffffffffffffffffffffffffffffffffffffffffff001660011790556128473390565b6001600160a01b0316836001600160a01b0316857f2f8788117e7eff1d82e926ec794901d17c78024a50270940304540a733656f0d60405160405180910390a46001915050610774565b5f915050610774565b5f610d7c836001600160a01b038416612d7c565b5f8281527f02dd7bc7dec4dceedda775e58dd541e08a116c6c53815c0bd028192f7b626800602081815260408084206001600160a01b038616855290915282205460ff1615612891575f848152602082815260408083206001600160a01b038716808552925280832080547fffffffffffffffffffffffffffffffffffffffffffffffffffffffffffffff0016905551339287917ff6391f5c32d9c69d2a47ea670b442974b53935d1edc7fd64eb21e047a839171b9190a46001915050610774565b5f610d7c836001600160a01b038416612dc8565b61298d82612ea2565b6040516001600160a01b038316907fbc7cd75a20ee27fd9adebab32041f755214dbc6bffa90cc0225b39da2e5c2d3b905f90a28051156129d1576109d28282612f49565b61087f612fb2565b5f825f0182815481106129ee576129ee613b5d565b905f5260205f200154905092915050565b6060815f01805480602002602001604051908101604052809291908181526020018280548015612a4c57602002820191905f5260205f20905b815481526020019060010190808311612a38575b50505050509050919050565b7ff0c57e16840df040f15088dc2f81fe391c3923bec73e23a9662efc9c229c6a005468010000000000000000900460ff16611db1576040517fd7e6bcf800000000000000000000000000000000000000000000000000000000815260040160405180910390fd5b612ac7612a58565b7f80bb2b638cc20bc4d0a60d66940f3ab4a00c1d7b313497ca82fb0b4ab007930080612af38482613bce565b506001810161093d8382613bce565b60605f612b11835f01516122cf565b90505f612b218460200151612311565b90505f612b318560400151612311565b90505f83604051602001612b459190613c89565b604051602081830303815290604052905080838760600151848960800151604051602001612b77959493929190613f2d565b6040516020818303038152906040529050612b9181612fea565b9695505050505050565b60405160068152602681015f5b6006811015612bce57600182039150600a84066030018253600a90930492600101612ba8565b505060408101604052919050565b5f7fffffffff0000000000000000000000000000000000000000000000000000000082167f80ac58cd000000000000000000000000000000000000000000000000000000001480612c6e57507fffffffff0000000000000000000000000000000000000000000000000000000082167f5b5e139f00000000000000000000000000000000000000000000000000000000145b8061077457507f01ffc9a7000000000000000000000000000000000000000000000000000000007fffffffff00000000000000000000000000000000000000000000000000000000831614610774565b5f6001600160a01b03831615801590610cdc5750826001600160a01b0316846001600160a01b03161480612d3557506001600160a01b038085165f9081527f80bb2b638cc20bc4d0a60d66940f3ab4a00c1d7b313497ca82fb0b4ab0079305602090815260408083209387168352929052205460ff165b80610cdc5750505f9081527f80bb2b638cc20bc4d0a60d66940f3ab4a00c1d7b313497ca82fb0b4ab007930460205260409020546001600160a01b03908116911614919050565b5f818152600183016020526040812054612dc157508154600181810184555f848152602080822090930184905584548482528286019093526040902091909155610774565b505f610774565b5f8181526001830160205260408120548015612891575f612dea600183614146565b85549091505f90612dfd90600190614146565b9050808214612e5c575f865f018281548110612e1b57612e1b613b5d565b905f5260205f200154905080875f018481548110612e3b57612e3b613b5d565b5f918252602080832090910192909255918252600188019052604090208390555b8554869080612e6d57612e6d614159565b600190038181905f5260205f20015f90559055856001015f8681526020019081526020015f205f905560019350505050610774565b806001600160a01b03163b5f03612ef0576040517f4c9c8ce30000000000000000000000000000000000000000000000000000000081526001600160a01b03821660048201526024016108c1565b7f360894a13ba1a3210667c828492db98dca3e2076cc3735a920a3ca505d382bbc80547fffffffffffffffffffffffff0000000000000000000000000000000000000000166001600160a01b0392909216919091179055565b60605f5f846001600160a01b031684604051612f659190614186565b5f60405180830381855af49150503d805f8114612f9d576040519150601f19603f3d011682016040523d82523d5f602084013e612fa2565b606091505b50915091506122498583836130ab565b3415611db1576040517fb398979f00000000000000000000000000000000000000000000000000000000815260040160405180910390fd5b60605f612ff683613120565b90505f6040518060400160405280601a81526020017f646174613a696d6167652f7376672b786d6c3b6261736536342c000000000000815250905080518251808201604051955080865260208601602085018481015b8082101561306757815183526020928301929091019061304c565b8560208a0101925060208801915084820190505b8082101561309657815183526020928301929091019061307b565b50505085016020016040525092949350505050565b6060826130c0576130bb8261312d565b610d7c565b81511580156130d757506001600160a01b0384163b155b15613119576040517f9996b3150000000000000000000000000000000000000000000000000000000081526001600160a01b03851660048201526024016108c1565b5080610d7c565b6060610774825f5f61316f565b80511561313d5780518082602001fd5b6040517fd6bda27500000000000000000000000000000000000000000000000000000000815260040160405180910390fd5b606083518015613274576003600282010460021b60405192507f4142434445464748494a4b4c4d4e4f505152535455565758595a616263646566601f526106708515027f6768696a6b6c6d6e6f707172737475767778797a303132333435363738392d5f18603f526020830181810183886020010180515f82525b60038a0199508951603f8160121c16515f53603f81600c1c1651600153603f8160061c1651600253603f811651600353505f5184526004840193508284106131ea5790526020016040527f3d3d00000000000000000000000000000000000000000000000000000000000060038406600204808303919091525f8615159091029182900352900382525b509392505050565b7fffffffff0000000000000000000000000000000000000000000000000000000081168114611bec575f5ffd5b5f602082840312156132b9575f5ffd5b8135610d7c8161327c565b5f81518084528060208401602086015e5f602082860101526020601f19601f83011685010191505092915050565b602081525f610d7c60208301846132c4565b5f60208284031215613314575f5ffd5b5035919050565b80356001600160a01b0381168114613331575f5ffd5b919050565b5f5f60408385031215613347575f5ffd5b6133508361331b565b946020939093013593505050565b5f5f5f60608486031215613370575f5ffd5b6133798461331b565b92506133876020850161331b565b929592945050506040919091013590565b5f5f604083850312156133a9575f5ffd5b823591506133b96020840161331b565b90509250929050565b7f4e487b71000000000000000000000000000000000000000000000000000000005f52604160045260245ffd5b604051601f8201601f1916810167ffffffffffffffff81118282101715613418576134186133c2565b604052919050565b5f67ffffffffffffffff821115613439576134396133c2565b50601f01601f191660200190565b5f82601f830112613456575f5ffd5b813561346961346482613420565b6133ef565b81815284602083860101111561347d575f5ffd5b816020850160208301375f918101602001919091529392505050565b5f5f604083850312156134aa575f5ffd5b6134b38361331b565b9150602083013567ffffffffffffffff8111156134ce575f5ffd5b6134da85828601613447565b9150509250929050565b5f602082840312156134f4575f5ffd5b610d7c8261331b565b5f5f6040838503121561350e575f5ffd5b50508035926020909101359150565b5f5f6040838503121561352e575f5ffd5b6135378361331b565b91506020830135801515811461354b575f5ffd5b809150509250929050565b602080825282518282018190525f918401906040840190835b818110156135965783516001600160a01b031683526020938401939092019160010161356f565b509095945050505050565b5f5f5f5f608085870312156135b4575f5ffd5b6135bd8561331b565b93506135cb6020860161331b565b925060408501359150606085013567ffffffffffffffff8111156135ed575f5ffd5b6135f987828801613447565b91505092959194509250565b5f5f60408385031215613616575f5ffd5b61361f8361331b565b91506133b96020840161331b565b5f5f5f5f5f5f60c08789031215613642575f5ffd5b61364b8761331b565b955060208701359450604087013593506060870135925061366e6080880161331b565b915061367c60a0880161331b565b90509295509295509295565b600181811c9082168061369c57607f821691505b6020821081036136d3577f4e487b71000000000000000000000000000000000000000000000000000000005f52602260045260245ffd5b50919050565b5f602082840312156136e9575f5ffd5b815167ffffffffffffffff8111156136ff575f5ffd5b8201601f8101841361370f575f5ffd5b805161371d61346482613420565b818152856020838501011115613731575f5ffd5b8160208401602083015e5f91810160200191909152949350505050565b5f81518060208401855e5f93019283525090919050565b7f7b226e616d65223a225769746864726177616c2052657175657374202300000081525f613796601d83018a61374e565b7f222c226465736372697074696f6e223a2250656e64696e67207769746864726181527f77616c206f66200000000000000000000000000000000000000000000000000060208201526137ec602782018a61374e565b90507f2000000000000000000000000000000000000000000000000000000000000000815261381e600182018961374e565b90507f20287368617265733a20000000000000000000000000000000000000000000008152613850600a82018861374e565b90507f20000000000000000000000000000000000000000000000000000000000000008152613882600182018761374e565b90507f29222c22696d616765223a22000000000000000000000000000000000000000081526138b4600c82018661374e565b90507f222c2261747472696275746573223a000000000000000000000000000000000081526138e6600f82018561374e565b7f7d0000000000000000000000000000000000000000000000000000000000000081526001019a9950505050505050505050565b7f4e487b71000000000000000000000000000000000000000000000000000000005f52601160045260245ffd5b5f5f1982036139585761395861391a565b5060010190565b5f6020828403121561396f575f5ffd5b5051919050565b6001600160a01b03851681526001600160a01b0384166020820152826040820152608060608201525f612b9160808301846132c4565b5f602082840312156139bc575f5ffd5b8151610d7c8161327c565b7f5b7b2274726169745f74797065223a22417373657473222c2276616c7565223a81527f220000000000000000000000000000000000000000000000000000000000000060208201525f613a1e602183018661374e565b7f222c22646973706c61795f74797065223a226e756d626572227d2c000000000081527f7b2274726169745f74797065223a22536861726573222c2276616c7565223a22601b820152613a74603b82018661374e565b90507f222c22646973706c61795f74797065223a226e756d626572227d2c000000000081527f7b2274726169745f74797065223a2254696d657374616d70222c2276616c7565601b8201527f223a220000000000000000000000000000000000000000000000000000000000603b820152613af2603e82018561374e565b7f222c22646973706c61795f74797065223a2264617465227d5d0000000000000081526019019695505050505050565b5f613b2d828561374e565b7f2e000000000000000000000000000000000000000000000000000000000000008152612249600182018561374e565b7f4e487b71000000000000000000000000000000000000000000000000000000005f52603260045260245ffd5b601f8211156109d257805f5260205f20601f840160051c81016020851015613baf5750805b601f840160051c820191505b818110156121cb575f8155600101613bbb565b815167ffffffffffffffff811115613be857613be86133c2565b613bfc81613bf68454613688565b84613b8a565b6020601f821160018114613c2e575f8315613c175750848201515b5f19600385901b1c1916600184901b1784556121cb565b5f84815260208120601f198516915b82811015613c5d5787850151825560209485019460019092019101613c3d565b5084821015613c7a57868401515f19600387901b60f8161c191681555b50505050600190811b01905550565b7f3c73766720786d6c6e733d22687474703a2f2f7777772e77332e6f72672f323081527f30302f737667222076696577426f783d223020302034303020343030223e000060208201527f3c726563742077696474683d2234303022206865696768743d22343030222066603e8201527f696c6c3d2223303030303030222f3e0000000000000000000000000000000000605e8201527f3c7265637420783d2231302220793d223130222077696474683d223338302220606d8201527f6865696768743d22333830222066696c6c3d226e6f6e6522207374726f6b653d608d8201527f222366666666666622207374726f6b652d77696474683d2233222f3e0000000060ad8201527f3c7465787420783d2233302220793d223630222066696c6c3d2223666666666660c98201527f662220666f6e742d73697a653d2233322220666f6e742d66616d696c793d226d60e98201527f6f6e6f73706163652220666f6e742d7765696768743d22333030223e000000006101098201527f7769746864726177616c2023000000000000000000000000000000000000000061012582019081525f906101318301612249613e6c613e43838861374e565b7f3c2f746578743e00000000000000000000000000000000000000000000000000815260070190565b7f3c7465787420783d223230302220793d223233302220746578742d616e63686f81527f723d226d6964646c65222066696c6c3d22236666666666662220666f6e742d7360208201527f697a653d2236342220666f6e742d66616d696c793d226d6f6e6f73706163652260408201527f20666f6e742d7765696768743d22626f6c64223e266c743b202623393838393b60608201527f202667743b3c2f746578743e00000000000000000000000000000000000000006080820152608c0190565b5f613f38828861374e565b7f3c7465787420783d2233302220793d22333430222066696c6c3d22236666666681527f66662220666f6e742d73697a653d2232302220666f6e742d66616d696c793d2260208201527f6d6f6e6f73706163652220666f6e742d7765696768743d22333030223e00000060408201527f417373657473207c200000000000000000000000000000000000000000000000605d820152613fda606682018861374e565b90507f2000000000000000000000000000000000000000000000000000000000000000815261400c600182018761374e565b7f3c2f746578743e0000000000000000000000000000000000000000000000000081527f3c7465787420783d2233302220793d22333730222066696c6c3d22236666666660078201527f66662220666f6e742d73697a653d2232302220666f6e742d66616d696c793d2260278201527f6d6f6e6f73706163652220666f6e742d7765696768743d22333030223e00000060478201527f536861726573207c200000000000000000000000000000000000000000000000606482019081529150606d0161413961411061410a6140e1848a61374e565b7f2000000000000000000000000000000000000000000000000000000000000000815260010190565b8761374e565b7f3c2f746578743e3c2f7376673e000000000000000000000000000000000000008152600d0190565b9998505050505050505050565b818103818111156107745761077461391a565b7f4e487b71000000000000000000000000000000000000000000000000000000005f52603160045260245ffd5b5f610d7c828461374e56fe64306262623263326630613235333062656131633333303435336265346633333834366530303930a2646970667358221220df68a0ef9a5b6da40d1822bb2484d4b4b9b9cb9aecf76e29f673ceb31610e84864736f6c634300081d0033","linkReferences":{}},"methodIdentifiers":{"DEFAULT_ADMIN_ROLE()":"a217fddf","GIT_COMMIT()":"b8a15e3a","GIT_TAG()":"b175eb4d","UPGRADE_INTERFACE_VERSION()":"ad3cb1cc","VAULT_ROLE()":"98c4f1ac","approve(address,uint256)":"095ea7b3","balanceOf(address)":"70a08231","burn(uint256)":"42966c68","getApproved(uint256)":"081812fc","getRoleAdmin(bytes32)":"248a9ca3","getRoleMember(bytes32,uint256)":"9010d07c","getRoleMemberCount(bytes32)":"ca15c873","getRoleMembers(bytes32)":"a3246ad3","getWithdrawalRequest(uint256)":"ae485651","grantRole(bytes32,address)":"2f2ff15d","hasRole(bytes32,address)":"91d14854","initialize(address)":"c4d66de8","isApprovedForAll(address,address)":"e985e9c5","mint(address,uint256,uint256,uint256,address,address)":"ff525efa","name()":"06fdde03","ownerOf(uint256)":"6352211e","proxiableUUID()":"52d1902d","renounceRole(bytes32,address)":"36568abe","revokeRole(bytes32,address)":"d547741f","safeTransferFrom(address,address,uint256)":"42842e0e","safeTransferFrom(address,address,uint256,bytes)":"b88d4fde","setApprovalForAll(address,bool)":"a22cb465","supportsInterface(bytes4)":"01ffc9a7","symbol()":"95d89b41","tokenURI(uint256)":"c87b56dd","transferFrom(address,address,uint256)":"23b872dd","upgradeToAndCall(address,bytes)":"4f1ef286"},"id":121}