{"abi":[{"type":"constructor","inputs":[],"stateMutability":"nonpayable"},{"type":"function","name":"DEFAULT_ADMIN_ROLE","inputs":[],"outputs":[{"name":"","type":"bytes32","internalType":"bytes32"}],"stateMutability":"view"},{"type":"function","name":"EIP4788","inputs":[],"outputs":[{"name":"","type":"address","internalType":"address"}],"stateMutability":"view"},{"type":"function","name":"EIP4788_TIMEOUT","inputs":[],"outputs":[{"name":"","type":"uint256","internalType":"uint256"}],"stateMutability":"view"},{"type":"function","name":"FEEDER_ROLE","inputs":[],"outputs":[{"name":"","type":"bytes32","internalType":"bytes32"}],"stateMutability":"view"},{"type":"function","name":"GIT_COMMIT","inputs":[],"outputs":[{"name":"","type":"string","internalType":"string"}],"stateMutability":"view"},{"type":"function","name":"GIT_TAG","inputs":[],"outputs":[{"name":"","type":"string","internalType":"string"}],"stateMutability":"view"},{"type":"function","name":"UPGRADE_INTERFACE_VERSION","inputs":[],"outputs":[{"name":"","type":"string","internalType":"string"}],"stateMutability":"view"},{"type":"function","name":"feed","inputs":[{"name":"targetTimestamp","type":"uint48","internalType":"uint48"},{"name":"proof","type":"bytes","internalType":"bytes"},{"name":"publicData","type":"tuple","internalType":"struct LibZkOracleFeed.PublicData","components":[{"name":"appHash","type":"bytes32","internalType":"bytes32"},{"name":"validator","type":"tuple","internalType":"struct LibZkOracleFeed.Validator","components":[{"name":"addr","type":"address","internalType":"address"},{"name":"pubkey","type":"bytes","internalType":"bytes"},{"name":"collateral","type":"uint256","internalType":"uint256"},{"name":"collateralShares","type":"uint256","internalType":"uint256"},{"name":"extraVotingPower","type":"uint256","internalType":"uint256"},{"name":"votingPower","type":"uint256","internalType":"uint256"},{"name":"jailed","type":"bool","internalType":"bool"},{"name":"bonded","type":"bool","internalType":"bool"}]},{"name":"ownerships","type":"tuple[]","internalType":"struct LibZkOracleFeed.CollateralOwnership[]","components":[{"name":"valAddr","type":"address","internalType":"address"},{"name":"owner","type":"address","internalType":"address"},{"name":"shares","type":"uint256","internalType":"uint256"},{"name":"creationHeight","type":"uint256","internalType":"uint256"}]}]}],"outputs":[],"stateMutability":"nonpayable"},{"type":"function","name":"feedType","inputs":[],"outputs":[{"name":"","type":"uint8","internalType":"enum ICollateralOracleFeed.FeedType"}],"stateMutability":"pure"},{"type":"function","name":"getCollateralOwnership","inputs":[{"name":"timestamp","type":"uint48","internalType":"uint48"},{"name":"validator","type":"address","internalType":"address"},{"name":"owner","type":"address","internalType":"address"}],"outputs":[{"name":"","type":"tuple","internalType":"struct ICollateralOracleFeed.CollateralOwnership","components":[{"name":"owner","type":"address","internalType":"address"},{"name":"shares","type":"uint256","internalType":"uint256"}]}],"stateMutability":"view"},{"type":"function","name":"getCollateralOwnershipTWAB","inputs":[{"name":"startTime","type":"uint48","internalType":"uint48"},{"name":"endTime","type":"uint48","internalType":"uint48"},{"name":"validator","type":"address","internalType":"address"},{"name":"owner","type":"address","internalType":"address"}],"outputs":[{"name":"","type":"uint256","internalType":"uint256"}],"stateMutability":"view"},{"type":"function","name":"getCollateralOwnerships","inputs":[{"name":"timestamp","type":"uint48","internalType":"uint48"},{"name":"validator","type":"address","internalType":"address"}],"outputs":[{"name":"","type":"tuple[]","internalType":"struct ICollateralOracleFeed.CollateralOwnership[]","components":[{"name":"owner","type":"address","internalType":"address"},{"name":"shares","type":"uint256","internalType":"uint256"}]}],"stateMutability":"view"},{"type":"function","name":"getCollateralOwnershipsTWAB","inputs":[{"name":"startTime","type":"uint48","internalType":"uint48"},{"name":"endTime","type":"uint48","internalType":"uint48"},{"name":"validator","type":"address","internalType":"address"}],"outputs":[{"name":"","type":"tuple[]","internalType":"struct ICollateralOracleFeed.CollateralOwnership[]","components":[{"name":"owner","type":"address","internalType":"address"},{"name":"shares","type":"uint256","internalType":"uint256"}]}],"stateMutability":"view"},{"type":"function","name":"getHistoricalOwners","inputs":[{"name":"validator","type":"address","internalType":"address"}],"outputs":[{"name":"","type":"address[]","internalType":"address[]"}],"stateMutability":"view"},{"type":"function","name":"getHistoricalOwnersCount","inputs":[{"name":"validator","type":"address","internalType":"address"}],"outputs":[{"name":"","type":"uint256","internalType":"uint256"}],"stateMutability":"view"},{"type":"function","name":"getLastFeedTimestamp","inputs":[{"name":"validator","type":"address","internalType":"address"}],"outputs":[{"name":"","type":"uint48","internalType":"uint48"}],"stateMutability":"view"},{"type":"function","name":"getRoleAdmin","inputs":[{"name":"role","type":"bytes32","internalType":"bytes32"}],"outputs":[{"name":"","type":"bytes32","internalType":"bytes32"}],"stateMutability":"view"},{"type":"function","name":"getRoleMember","inputs":[{"name":"role","type":"bytes32","internalType":"bytes32"},{"name":"index","type":"uint256","internalType":"uint256"}],"outputs":[{"name":"","type":"address","internalType":"address"}],"stateMutability":"view"},{"type":"function","name":"getRoleMemberCount","inputs":[{"name":"role","type":"bytes32","internalType":"bytes32"}],"outputs":[{"name":"","type":"uint256","internalType":"uint256"}],"stateMutability":"view"},{"type":"function","name":"getRoleMembers","inputs":[{"name":"role","type":"bytes32","internalType":"bytes32"}],"outputs":[{"name":"","type":"address[]","internalType":"address[]"}],"stateMutability":"view"},{"type":"function","name":"getTotalTWAB","inputs":[{"name":"validator","type":"address","internalType":"address"},{"name":"startTime","type":"uint48","internalType":"uint48"},{"name":"endTime","type":"uint48","internalType":"uint48"}],"outputs":[{"name":"","type":"uint256","internalType":"uint256"}],"stateMutability":"view"},{"type":"function","name":"getValidator","inputs":[{"name":"timestamp","type":"uint48","internalType":"uint48"},{"name":"validator","type":"address","internalType":"address"}],"outputs":[{"name":"","type":"tuple","internalType":"struct ICollateralOracleFeed.Validator","components":[{"name":"collateral","type":"uint256","internalType":"uint256"},{"name":"collateralShares","type":"uint256","internalType":"uint256"},{"name":"extraVotingPower","type":"uint256","internalType":"uint256"},{"name":"votingPower","type":"uint256","internalType":"uint256"}]}],"stateMutability":"view"},{"type":"function","name":"getValidatorAddressByIndex","inputs":[{"name":"index","type":"uint256","internalType":"uint256"}],"outputs":[{"name":"","type":"address","internalType":"address"}],"stateMutability":"view"},{"type":"function","name":"getValidatorAddressCount","inputs":[],"outputs":[{"name":"","type":"uint256","internalType":"uint256"}],"stateMutability":"view"},{"type":"function","name":"grantRole","inputs":[{"name":"role","type":"bytes32","internalType":"bytes32"},{"name":"account","type":"address","internalType":"address"}],"outputs":[],"stateMutability":"nonpayable"},{"type":"function","name":"hasRole","inputs":[{"name":"role","type":"bytes32","internalType":"bytes32"},{"name":"account","type":"address","internalType":"address"}],"outputs":[{"name":"","type":"bool","internalType":"bool"}],"stateMutability":"view"},{"type":"function","name":"initialize","inputs":[{"name":"initialOwner","type":"address","internalType":"address"},{"name":"_verifier","type":"address","internalType":"address"},{"name":"_programVKey","type":"bytes32","internalType":"bytes32"}],"outputs":[],"stateMutability":"nonpayable"},{"type":"function","name":"initializeV2","inputs":[{"name":"_verifier","type":"address","internalType":"address"},{"name":"_programVKey","type":"bytes32","internalType":"bytes32"}],"outputs":[],"stateMutability":"nonpayable"},{"type":"function","name":"programVKey","inputs":[],"outputs":[{"name":"","type":"bytes32","internalType":"bytes32"}],"stateMutability":"view"},{"type":"function","name":"proxiableUUID","inputs":[],"outputs":[{"name":"","type":"bytes32","internalType":"bytes32"}],"stateMutability":"view"},{"type":"function","name":"renounceRole","inputs":[{"name":"role","type":"bytes32","internalType":"bytes32"},{"name":"callerConfirmation","type":"address","internalType":"address"}],"outputs":[],"stateMutability":"nonpayable"},{"type":"function","name":"revokeRole","inputs":[{"name":"role","type":"bytes32","internalType":"bytes32"},{"name":"account","type":"address","internalType":"address"}],"outputs":[],"stateMutability":"nonpayable"},{"type":"function","name":"setProgramVKey","inputs":[{"name":"_programVKey","type":"bytes32","internalType":"bytes32"}],"outputs":[],"stateMutability":"nonpayable"},{"type":"function","name":"setVerifier","inputs":[{"name":"_verifier","type":"address","internalType":"address"}],"outputs":[],"stateMutability":"nonpayable"},{"type":"function","name":"supportsInterface","inputs":[{"name":"interfaceId","type":"bytes4","internalType":"bytes4"}],"outputs":[{"name":"","type":"bool","internalType":"bool"}],"stateMutability":"view"},{"type":"function","name":"upgradeToAndCall","inputs":[{"name":"newImplementation","type":"address","internalType":"address"},{"name":"data","type":"bytes","internalType":"bytes"}],"outputs":[],"stateMutability":"payable"},{"type":"function","name":"verifier","inputs":[],"outputs":[{"name":"","type":"address","internalType":"contract ISP1Verifier"}],"stateMutability":"view"},{"type":"event","name":"FeedUpdated","inputs":[{"name":"timestamp","type":"uint48","indexed":true,"internalType":"uint48"},{"name":"validator","type":"address","indexed":true,"internalType":"address"},{"name":"ownershipCount","type":"uint256","indexed":false,"internalType":"uint256"},{"name":"metadata","type":"bytes","indexed":false,"internalType":"bytes"}],"anonymous":false},{"type":"event","name":"Initialized","inputs":[{"name":"version","type":"uint64","indexed":false,"internalType":"uint64"}],"anonymous":false},{"type":"event","name":"ProgramVKeyUpdated","inputs":[{"name":"oldVKey","type":"bytes32","indexed":true,"internalType":"bytes32"},{"name":"newVKey","type":"bytes32","indexed":true,"internalType":"bytes32"}],"anonymous":false},{"type":"event","name":"RoleAdminChanged","inputs":[{"name":"role","type":"bytes32","indexed":true,"internalType":"bytes32"},{"name":"previousAdminRole","type":"bytes32","indexed":true,"internalType":"bytes32"},{"name":"newAdminRole","type":"bytes32","indexed":true,"internalType":"bytes32"}],"anonymous":false},{"type":"event","name":"RoleGranted","inputs":[{"name":"role","type":"bytes32","indexed":true,"internalType":"bytes32"},{"name":"account","type":"address","indexed":true,"internalType":"address"},{"name":"sender","type":"address","indexed":true,"internalType":"address"}],"anonymous":false},{"type":"event","name":"RoleRevoked","inputs":[{"name":"role","type":"bytes32","indexed":true,"internalType":"bytes32"},{"name":"account","type":"address","indexed":true,"internalType":"address"},{"name":"sender","type":"address","indexed":true,"internalType":"address"}],"anonymous":false},{"type":"event","name":"Upgraded","inputs":[{"name":"implementation","type":"address","indexed":true,"internalType":"address"}],"anonymous":false},{"type":"event","name":"VerifierUpdated","inputs":[{"name":"oldVerifier","type":"address","indexed":true,"internalType":"address"},{"name":"newVerifier","type":"address","indexed":true,"internalType":"address"}],"anonymous":false},{"type":"error","name":"AccessControlBadConfirmation","inputs":[]},{"type":"error","name":"AccessControlUnauthorizedAccount","inputs":[{"name":"account","type":"address","internalType":"address"},{"name":"neededRole","type":"bytes32","internalType":"bytes32"}]},{"type":"error","name":"AddressEmptyCode","inputs":[{"name":"target","type":"address","internalType":"address"}]},{"type":"error","name":"AppHashMismatch","inputs":[]},{"type":"error","name":"AppHashMismatch","inputs":[]},{"type":"error","name":"CheckpointUnorderedInsertion","inputs":[]},{"type":"error","name":"CollateralOwnershipFeedNotFound","inputs":[]},{"type":"error","name":"EIP4788Timeout","inputs":[]},{"type":"error","name":"ERC1967InvalidImplementation","inputs":[{"name":"implementation","type":"address","internalType":"address"}]},{"type":"error","name":"ERC1967NonPayable","inputs":[]},{"type":"error","name":"FailedCall","inputs":[]},{"type":"error","name":"FeedNotFound","inputs":[]},{"type":"error","name":"FeedTargetOutdated","inputs":[{"name":"timestamp","type":"uint48","internalType":"uint48"},{"name":"lastTimestamp","type":"uint48","internalType":"uint48"}]},{"type":"error","name":"InvalidInitialization","inputs":[]},{"type":"error","name":"InvalidTimeRange","inputs":[]},{"type":"error","name":"NoDataInRange","inputs":[]},{"type":"error","name":"NotInitializing","inputs":[]},{"type":"error","name":"SafeCastOverflowedUintDowncast","inputs":[{"name":"bits","type":"uint8","internalType":"uint8"},{"name":"value","type":"uint256","internalType":"uint256"}]},{"type":"error","name":"UUPSUnauthorizedCallContext","inputs":[]},{"type":"error","name":"UUPSUnsupportedProxiableUUID","inputs":[{"name":"slot","type":"bytes32","internalType":"bytes32"}]},{"type":"error","name":"ZeroAddress","inputs":[]},{"type":"error","name":"ZeroVKey","inputs":[]}],"bytecode":{"object":"0x60a060405230608052348015610013575f5ffd5b5061001c610021565b6100d3565b7ff0c57e16840df040f15088dc2f81fe391c3923bec73e23a9662efc9c229c6a00805468010000000000000000900460ff16156100715760405163f92ee8a960e01b815260040160405180910390fd5b80546001600160401b03908116146100d05780546001600160401b0319166001600160401b0390811782556040519081527fc7f505b2f371ae2175ee4913f4499e1f2633a7b5936321eed1cdaeb6115181d29060200160405180910390a15b50565b608051614b6b6100f95f395f81816115ac015281816115d501526117990152614b6b5ff3fe60806040526004361061025d575f3560e01c80635e27c1231161014b578063a3246ad3116100c6578063ceb209711161007c578063e7baa1b811610062578063e7baa1b8146107ca578063eca1c8d1146107e9578063f6e03f7114610815575f5ffd5b8063ceb2097114610778578063d547741f146107ab575f5ffd5b8063b175eb4d116100ac578063b175eb4d146106fd578063b8a15e3a14610745578063ca15c87314610759575f5ffd5b8063a3246ad31461067c578063ad3cb1cc146106a8575f5ffd5b80639010d07c1161011b57806391d148541161010157806391d14854146105e0578063a217fddf14610643578063a2ad058214610656575f5ffd5b80639010d07c146105a257806390aaa046146105c1575f5ffd5b80635e27c123146105265780636133f9851461054557806361ed2713146105645780638e892d7914610583575f5ffd5b80633d214c45116101db5780635437988d116101ab57806356355c181161019157806356355c18146104cd5780635826cf52146104e85780635ac0fb3414610507575f5ffd5b80635437988d14610482578063547c477d146104a1575f5ffd5b80633d214c45146104105780634f1ef2861461042557806351e7ba441461043857806352d1902d1461046e575f5ffd5b80632b7ac3f3116102305780632f2ff15d116102165780632f2ff15d146103bc57806333caa716146103dd57806336568abe146103f1575f5ffd5b80632b7ac3f3146103715780632cba54da1461039d575f5ffd5b806301ffc9a7146102615780631714b74d146102955780631ddb5d29146102e7578063248a9ca314610324575b5f5ffd5b34801561026c575f5ffd5b5061028061027b366004613f18565b610834565b60405190151581526020015b60405180910390f35b3480156102a0575f5ffd5b506102b46102af366004613f87565b61088f565b60405161028c91908151815260208083015190820152604080830151908201526060918201519181019190915260800190565b3480156102f2575f5ffd5b507f5c59d1aa0ea093fc04b8ee9e6658cc8f04d8ff9a372e945475492f2c87191001545b60405190815260200161028c565b34801561032f575f5ffd5b5061031661033e366004613fb8565b5f9081527f02dd7bc7dec4dceedda775e58dd541e08a116c6c53815c0bd028192f7b626800602052604090206001015490565b34801561037c575f5ffd5b506103856108e8565b6040516001600160a01b03909116815260200161028c565b3480156103a8575f5ffd5b506103166103b7366004613fcf565b61091a565b3480156103c7575f5ffd5b506103db6103d636600461400f565b61094f565b005b3480156103e8575f5ffd5b50610316610998565b3480156103fc575f5ffd5b506103db61040b36600461400f565b6109c7565b34801561041b575f5ffd5b5061031661a8c081565b6103db61043336600461416a565b610a18565b348015610443575f5ffd5b506104576104523660046141b5565b610a37565b60405165ffffffffffff909116815260200161028c565b348015610479575f5ffd5b50610316610a62565b34801561048d575f5ffd5b506103db61049c3660046141b5565b610a90565b3480156104ac575f5ffd5b506104c06104bb3660046141ce565b610aa3565b60405161028c9190614205565b3480156104d8575f5ffd5b50600260405161028c9190614265565b3480156104f3575f5ffd5b50610385610502366004613fb8565b610ad1565b348015610512575f5ffd5b506103db6105213660046142a4565b610afc565b348015610531575f5ffd5b506104c0610540366004613f87565b610c3a565b348015610550575f5ffd5b506103db61055f3660046142cc565b610c67565b34801561056f575f5ffd5b506103db61057e366004613fb8565b610e13565b34801561058e575f5ffd5b5061031661059d3660046141b5565b610e26565b3480156105ad575f5ffd5b506103856105bc366004614306565b610e51565b3480156105cc575f5ffd5b506103166105db366004614326565b610e89565b3480156105eb575f5ffd5b506102806105fa36600461400f565b5f9182527f02dd7bc7dec4dceedda775e58dd541e08a116c6c53815c0bd028192f7b626800602090815260408084206001600160a01b0393909316845291905290205460ff1690565b34801561064e575f5ffd5b506103165f81565b348015610661575f5ffd5b50610385720f3df6d732807ef1319fb7b8bb8522d0beac0281565b348015610687575f5ffd5b5061069b610696366004613fb8565b610ec0565b60405161028c9190614377565b3480156106b3575f5ffd5b506106f06040518060400160405280600581526020017f352e302e3000000000000000000000000000000000000000000000000000000081525081565b60405161028c91906143e5565b348015610708575f5ffd5b506106f06040518060400160405280600d81526020017f6f7261636c652d76302e312e300000000000000000000000000000000000000081525081565b348015610750575f5ffd5b506106f0610efc565b348015610764575f5ffd5b50610316610773366004613fb8565b610f18565b348015610783575f5ffd5b506103167fe6e69a693a749cd395954f571a1f928763ac28c5ebd853c3b42503bef838bfd181565b3480156107b6575f5ffd5b506103db6107c536600461400f565b610f4f565b3480156107d5575f5ffd5b506103db6107e4366004614407565b610f92565b3480156107f4575f5ffd5b506108086108033660046144b0565b61119b565b60405161028c91906144d9565b348015610820575f5ffd5b5061069b61082f3660046141b5565b6111da565b5f7fffffffff0000000000000000000000000000000000000000000000000000000082167f5a05180f000000000000000000000000000000000000000000000000000000001480610889575061088982611206565b92915050565b6108b660405180608001604052805f81526020015f81526020015f81526020015f81525090565b6108e17f88785c098aef98cf22acd5c5c09ab37e1ee6507973d121390c77e8b365477100848461129c565b9392505050565b5f7f5c59d1aa0ea093fc04b8ee9e6658cc8f04d8ff9a372e945475492f2c871910005b546001600160a01b0316919050565b5f6109477f88785c098aef98cf22acd5c5c09ab37e1ee6507973d121390c77e8b36547710084848761140b565b949350505050565b5f8281527f02dd7bc7dec4dceedda775e58dd541e08a116c6c53815c0bd028192f7b6268006020526040902060010154610988816114e9565b61099283836114f6565b50505050565b5f6109c27f88785c098aef98cf22acd5c5c09ab37e1ee6507973d121390c77e8b36547710061154b565b905090565b6001600160a01b0381163314610a09576040517f6697b23200000000000000000000000000000000000000000000000000000000815260040160405180910390fd5b610a138282611555565b505050565b610a206115a1565b610a298261164a565b610a338282611654565b5050565b5f6108897f88785c098aef98cf22acd5c5c09ab37e1ee6507973d121390c77e8b3654771008361175a565b5f610a6b61178e565b507f360894a13ba1a3210667c828492db98dca3e2076cc3735a920a3ca505d382bbc90565b5f610a9a816114e9565b610a33826117f0565b60606109477f88785c098aef98cf22acd5c5c09ab37e1ee6507973d121390c77e8b3654771008585856118b8565b5f6108897f88785c098aef98cf22acd5c5c09ab37e1ee6507973d121390c77e8b36547710083611b24565b7ff0c57e16840df040f15088dc2f81fe391c3923bec73e23a9662efc9c229c6a0080546002919068010000000000000000900460ff1680610b4b5750805467ffffffffffffffff808416911610155b15610b82576040517ff92ee8a900000000000000000000000000000000000000000000000000000000815260040160405180910390fd5b80547fffffffffffffffffffffffffffffffffffffffffffffff0000000000000000001667ffffffffffffffff83161768010000000000000000178155610bc8846117f0565b610bd183611b2f565b80547fffffffffffffffffffffffffffffffffffffffffffffff00ffffffffffffffff16815560405167ffffffffffffffff831681527fc7f505b2f371ae2175ee4913f4499e1f2633a7b5936321eed1cdaeb6115181d29060200160405180910390a150505050565b60606108e17f88785c098aef98cf22acd5c5c09ab37e1ee6507973d121390c77e8b3654771008484611be1565b7ff0c57e16840df040f15088dc2f81fe391c3923bec73e23a9662efc9c229c6a00805468010000000000000000810460ff16159067ffffffffffffffff165f81158015610cb15750825b90505f8267ffffffffffffffff166001148015610ccd5750303b155b905081158015610cdb575080155b15610d12576040517ff92ee8a900000000000000000000000000000000000000000000000000000000815260040160405180910390fd5b84547fffffffffffffffffffffffffffffffffffffffffffffffff00000000000000001660011785558315610d735784547fffffffffffffffffffffffffffffffffffffffffffffff00ffffffffffffffff16680100000000000000001785555b610d7b611d1c565b610d83611d1c565b610d8b611d1c565b610d955f896114f6565b50610d9f876117f0565b610da886611b2f565b8315610e095784547fffffffffffffffffffffffffffffffffffffffffffffff00ffffffffffffffff168555604051600181527fc7f505b2f371ae2175ee4913f4499e1f2633a7b5936321eed1cdaeb6115181d29060200160405180910390a15b5050505050505050565b5f610e1d816114e9565b610a3382611b2f565b5f6108897f88785c098aef98cf22acd5c5c09ab37e1ee6507973d121390c77e8b36547710083611d24565b5f8281527fc1f6fe24621ce81ec5827caf0253cadb74709b061630e6b55e823717059320006020819052604082206109479084611d49565b5f610eb77f88785c098aef98cf22acd5c5c09ab37e1ee6507973d121390c77e8b36547710086868686611d54565b95945050505050565b5f8181527fc1f6fe24621ce81ec5827caf0253cadb74709b061630e6b55e8237170593200060208190526040909120606091906108e190611ee9565b604051806060016040528060288152602001614b0e6028913981565b5f8181527fc1f6fe24621ce81ec5827caf0253cadb74709b061630e6b55e823717059320006020819052604082206108e190611ef5565b5f8281527f02dd7bc7dec4dceedda775e58dd541e08a116c6c53815c0bd028192f7b6268006020526040902060010154610f88816114e9565b6109928383611555565b7fe6e69a693a749cd395954f571a1f928763ac28c5ebd853c3b42503bef838bfd1610fbc816114e9565b7f88785c098aef98cf22acd5c5c09ab37e1ee6507973d121390c77e8b3654771005f80610fe98389611efe565b915091508061100e5765ffffffffffff88165f90815260028401602052604090208290555b7f5c59d1aa0ea093fc04b8ee9e6658cc8f04d8ff9a372e945475492f2c8719100080547f5c59d1aa0ea093fc04b8ee9e6658cc8f04d8ff9a372e945475492f2c8719100154604080516020601f8c018190048102820181019092528a81526110a8936001600160a01b031692918791908d908d90819084018382808284375f920191909152506110a392508d91506145d39050565b612037565b6110f7848a6110ba60208a018a6146da565b6110c89060208101906141b5565b6110dd6110d860208c018c6146da565b6120f3565b6110f26110ed60408d018d614716565b6121bf565b612277565b61110460208701876146da565b6111129060208101906141b5565b6001600160a01b031665ffffffffffff8a167f2362fd90e550bdcea313caf72e3d8946648b9d32fd79ef839b8d7287cfdb40bd61115260408a018a614716565b905061115d8761266e565b60405160200161116d9190614791565b60408051601f198184030181529082905261118892916147ef565b60405180910390a3505050505050505050565b604080518082019091525f80825260208201526109477f88785c098aef98cf22acd5c5c09ab37e1ee6507973d121390c77e8b3654771008585856126b0565b60606108897f88785c098aef98cf22acd5c5c09ab37e1ee6507973d121390c77e8b36547710083612889565b5f7fffffffff0000000000000000000000000000000000000000000000000000000082167f7965db0b00000000000000000000000000000000000000000000000000000000148061088957507f01ffc9a7000000000000000000000000000000000000000000000000000000007fffffffff00000000000000000000000000000000000000000000000000000000831614610889565b6112c360405180608001604052805f81526020015f81526020015f81526020015f81525090565b6001600160a01b0382165f9081526003850160205260408120906112e7828661294a565b90505f8179ffffffffffffffffffffffffffffffffffffffffffffffffffff161161133e576040517ffaa708d200000000000000000000000000000000000000000000000000000000815260040160405180910390fd5b79ffffffffffffffffffffffffffffffffffffffffffffffffffff81165f90815260018084016020908152604092839020835160c08101855281546bffffffffffffffffffffffff80821683526c0100000000000000000000000080830482169584019590955267ffffffffffffffff78010000000000000000000000000000000000000000000000009283900481169784019790975292909401548083166060830152928304909116608082015291900490911660a082015261140190612a10565b9695505050505050565b5f8265ffffffffffff168465ffffffffffff1610611455576040517f536a71af00000000000000000000000000000000000000000000000000000000815260040160405180910390fd5b6001600160a01b0382165f908152600386016020526040812060088101549091600783019165ffffffffffff169003611492575f92505050610947565b5f61149d8388612aa6565b90505f6114aa8488612aa6565b90505f6114b78383614834565b90505f6114c48a8a614847565b65ffffffffffff1690506114da82600183612be5565b9b9a5050505050505050505050565b6114f38133612c92565b50565b5f7fc1f6fe24621ce81ec5827caf0253cadb74709b061630e6b55e82371705932000816115238585612d1e565b90508015610947575f8581526020839052604090206115429085612e08565b50949350505050565b5f61088982611ef5565b5f7fc1f6fe24621ce81ec5827caf0253cadb74709b061630e6b55e82371705932000816115828585612e1c565b90508015610947575f8581526020839052604090206115429085612ede565b306001600160a01b037f000000000000000000000000000000000000000000000000000000000000000016148061161157507f00000000000000000000000000000000000000000000000000000000000000006001600160a01b0316611605612ef2565b6001600160a01b031614155b15611648576040517fe07c8dba00000000000000000000000000000000000000000000000000000000815260040160405180910390fd5b565b5f610a33816114e9565b816001600160a01b03166352d1902d6040518163ffffffff1660e01b8152600401602060405180830381865afa9250505080156116ae575060408051601f3d908101601f191682019092526116ab91810190614865565b60015b6116f4576040517f4c9c8ce30000000000000000000000000000000000000000000000000000000081526001600160a01b03831660048201526024015b60405180910390fd5b7f360894a13ba1a3210667c828492db98dca3e2076cc3735a920a3ca505d382bbc8114611750576040517faa1d49a4000000000000000000000000000000000000000000000000000000008152600481018290526024016116eb565b610a138383612f19565b6001600160a01b0381165f9081526003830160205260408120818061177e83612f6e565b509150915081610eb7575f611401565b306001600160a01b037f00000000000000000000000000000000000000000000000000000000000000001614611648576040517fe07c8dba00000000000000000000000000000000000000000000000000000000815260040160405180910390fd5b6001600160a01b038116611830576040517fd92e233d00000000000000000000000000000000000000000000000000000000815260040160405180910390fd5b7f5c59d1aa0ea093fc04b8ee9e6658cc8f04d8ff9a372e945475492f2c8719100080547fffffffffffffffffffffffff000000000000000000000000000000000000000081166001600160a01b03848116918217845560405192169182907f0243549a92b2412f7a3caf7a2e56d65b8821b91345363faa5f57195384065fcc905f90a3505050565b60608265ffffffffffff168465ffffffffffff1610611903576040517f536a71af00000000000000000000000000000000000000000000000000000000815260040160405180910390fd5b6001600160a01b0382165f90815260038601602052604081209061192960058301611ef5565b90505f808267ffffffffffffffff81111561194657611946614030565b60405190808252806020026020018201604052801561196f578160200160208202803683370190505b5090505f5b83811015611a0d575f61198a6005870183611d49565b6001600160a01b0381165f90815260048801602052604081206001015491925065ffffffffffff90911690036119c05750611a05565b5f6119ce8c8c8c8c86611d54565b9050808484815181106119e3576119e361487c565b60209081029190910101528015611a0257846119fe816148a9565b9550505b50505b600101611974565b508167ffffffffffffffff811115611a2757611a27614030565b604051908082528060200260200182016040528015611a6b57816020015b604080518082019091525f8082526020820152815260200190600190039081611a455790505b5094505f805b84811015611b16575f838281518110611a8c57611a8c61487c565b60200260200101511115611b0e575f611aa86005880183611d49565b90506040518060400160405280826001600160a01b03168152602001858481518110611ad657611ad661487c565b6020026020010151815250888481518110611af357611af361487c565b60200260200101819052508280611b09906148a9565b935050505b600101611a71565b505050505050949350505050565b5f6108e18383611d49565b80611b66576040517fce403dd200000000000000000000000000000000000000000000000000000000815260040160405180910390fd5b7f5c59d1aa0ea093fc04b8ee9e6658cc8f04d8ff9a372e945475492f2c871910018054908290556040517f5c59d1aa0ea093fc04b8ee9e6658cc8f04d8ff9a372e945475492f2c871910009190839082907f480c35d32629463918e991003dbec2e840445024d97973dac0ad40dd686d2096905f90a3505050565b6001600160a01b0381165f9081526003840160205260408120606091611c07828661294a565b90505f8179ffffffffffffffffffffffffffffffffffffffffffffffffffff1611611c5e576040517ffaa708d200000000000000000000000000000000000000000000000000000000815260040160405180910390fd5b611401826002015f8379ffffffffffffffffffffffffffffffffffffffffffffffffffff1681526020019081526020015f20805480602002602001604051908101604052809291908181526020015f905b82821015611d13575f84815260209081902060408051808201909152908401546001600160a01b03811682527401000000000000000000000000000000000000000090046bffffffffffffffffffffffff1681830152825260019092019101611caf565b50505050612fe3565b6116486130dd565b6001600160a01b0381165f90815260038301602052604081206108e190600501611ef5565b5f6108e18383613144565b5f8365ffffffffffff168565ffffffffffff1610611d9e576040517f536a71af00000000000000000000000000000000000000000000000000000000815260040160405180910390fd5b6001600160a01b038084165f90815260038801602090815260408083209386168352600484019091529020600181015465ffffffffffff16611e0c576040517ffaa708d200000000000000000000000000000000000000000000000000000000815260040160405180910390fd5b600181015465ffffffffffff9081169087161115611e56576040517f0a174d5a00000000000000000000000000000000000000000000000000000000815260040160405180910390fd5b5f611e6283868961316a565b90505f611e7084878b61316a565b90505f611e7d8284614834565b90505f611e8a8b8b614847565b65ffffffffffff1690505f8111611ecd576040517f536a71af00000000000000000000000000000000000000000000000000000000815260040160405180910390fd5b611ed982600183612be5565b9c9b505050505050505050505050565b60605f6108e183613282565b5f610889825490565b5f5f82611f096132db565b611f139190614847565b65ffffffffffff1661a8c01015611f7f5765ffffffffffff83165f90815260028501602052604090205480611f74576040517f934d7bf400000000000000000000000000000000000000000000000000000000815260040160405180910390fd5b915060019050612030565b6040805165ffffffffffff851660208201525f918291720f3df6d732807ef1319fb7b8bb8522d0beac02910160408051601f1981840301815290829052611fc5916148e0565b5f60405180830381855afa9150503d805f8114611ffd576040519150601f19603f3d011682016040523d82523d5f602084013e612002565b606091505b50915091508161201457805160208201fd5b808060200190518101906120289190614865565b5f9350935050505b9250929050565b80518314612071576040517f5482988c00000000000000000000000000000000000000000000000000000000815260040160405180910390fd5b846001600160a01b03166341493c608583604051602001612092919061495d565b604051602081830303815290604052856040518463ffffffff1660e01b81526004016120c093929190614a0c565b5f6040518083038186803b1580156120d6575f5ffd5b505afa1580156120e8573d5f5f3e3d5ffd5b505050505050505050565b6040805160c0810182525f80825260208201819052918101829052606081018290526080810182905260a08101919091526040518060c0016040528061213c84604001356132e5565b6bffffffffffffffffffffffff16815260200161215c84606001356132e5565b6bffffffffffffffffffffffff1681525f602082015260400161218260808501356132e5565b6bffffffffffffffffffffffff1681526020016121a28460a001356132e5565b6bffffffffffffffffffffffff1681525f60209091015292915050565b60608167ffffffffffffffff8111156121da576121da614030565b60405190808252806020026020018201604052801561221e57816020015b604080518082019091525f80825260208201528152602001906001900390816121f85790505b5090505f5b828110156122705761224b8484838181106122405761224061487c565b90506080020161333a565b82828151811061225d5761225d61487c565b6020908102919091010152600101612223565b5092915050565b6001600160a01b0383165f908152600386016020526040902061229a868561339c565b6122c2576122a88685612e08565b506122bf6122b7600187614847565b82905f6133bd565b50505b5f80806122ce84612f6e565b9250925092508280156122f057508765ffffffffffff168265ffffffffffff16105b8883909161233c576040517f8f1725a700000000000000000000000000000000000000000000000000000000815265ffffffffffff9283166004820152911660248201526044016116eb565b505f905061234b826001614a36565b79ffffffffffffffffffffffffffffffffffffffffffffffffffff16905083801561237d57505f8365ffffffffffff16115b1561238e5761238e85848b856133d7565b6123a38961239b8361358c565b8791906133bd565b505086856001015f8381526020019081526020015f205f820151815f015f6101000a8154816bffffffffffffffffffffffff02191690836bffffffffffffffffffffffff1602179055506020820151815f01600c6101000a8154816bffffffffffffffffffffffff02191690836bffffffffffffffffffffffff1602179055506040820151815f0160186101000a81548167ffffffffffffffff021916908367ffffffffffffffff1602179055506060820151816001015f6101000a8154816bffffffffffffffffffffffff02191690836bffffffffffffffffffffffff160217905550608082015181600101600c6101000a8154816bffffffffffffffffffffffff02191690836bffffffffffffffffffffffff16021790555060a08201518160010160186101000a81548167ffffffffffffffff021916908367ffffffffffffffff1602179055509050505f5f90505b8651811015612661575f8782815181106125115761251161487c565b60200260200101515f01519050866002015f8481526020019081526020015f208883815181106125435761254361487c565b6020908102919091018101518254600181810185555f94855293839020825192909301516bffffffffffffffffffffffff1674010000000000000000000000000000000000000000026001600160a01b03909216919091179101556125a9908390614a68565b5f84815260038901602090815260408083206001600160a01b038616845282528083209390935560048a0190529081206001015465ffffffffffff169003612638576001600160a01b0381165f908152600488016020526040902060010180547fffffffffffffffffffffffffffffffffffffffffffffffffffff0000000000001665ffffffffffff8d161790555b612645600588018261339c565b612658576126566005880182612e08565b505b506001016124f5565b5050505050505050505050565b6060612679826135eb565b805161307882526002017ffffffffffffffffffffffffffffffffffffffffffffffffffffffffffffffffe90910190815292915050565b604080518082019091525f80825260208201526001600160a01b0383165f9081526003860160205260408120906126e7828761294a565b90505f8179ffffffffffffffffffffffffffffffffffffffffffffffffffff161161273e576040517ffaa708d200000000000000000000000000000000000000000000000000000000815260040160405180910390fd5b79ffffffffffffffffffffffffffffffffffffffffffffffffffff81165f90815260038301602090815260408083206001600160a01b0388168452909152902054806127b6576040517f95389b8d00000000000000000000000000000000000000000000000000000000815260040160405180910390fd5b79ffffffffffffffffffffffffffffffffffffffffffffffffffff82165f908152600284016020526040902061287d906127f1600184614834565b815481106128015761280161487c565b5f918252602080832060408051808201825293909101546001600160a01b038082168552740100000000000000000000000000000000000000009091046bffffffffffffffffffffffff908116858501908152835180850185528781528501969096528251808401909352935116815292519091169082015290565b98975050505050505050565b6001600160a01b0381165f90815260038301602052604081206060916128b160058301611ef5565b90508067ffffffffffffffff8111156128cc576128cc614030565b6040519080825280602002602001820160405280156128f5578160200160208202803683370190505b5092505f5b818110156129415761290f6005840182611d49565b8482815181106129215761292161487c565b6001600160a01b03909216602092830291909101909101526001016128fa565b50505092915050565b81545f90818160058111156129a6575f6129638461364c565b61296d9085614834565b5f8881526020902090915081015465ffffffffffff9081169087161015612996578091506129a4565b6129a1816001614a68565b92505b505b5f6129b3878785856137b1565b90508015612a03576129d7876129ca600184614834565b5f91825260209091200190565b546601000000000000900479ffffffffffffffffffffffffffffffffffffffffffffffffffff16612a05565b5f5b979650505050505050565b612a3760405180608001604052805f81526020015f81526020015f81526020015f81525090565b6040518060800160405280835f01516bffffffffffffffffffffffff16815260200183602001516bffffffffffffffffffffffff16815260200183606001516bffffffffffffffffffffffff16815260200183608001516bffffffffffffffffffffffff168152509050919050565b60088201545f90600784019065ffffffffffff90811690841610612acc57549050610889565b835f612ad6825490565b9050805f03612aea575f9350505050610889565b5f612af6838784613810565b90505f6002880181612b09846001614a68565b79ffffffffffffffffffffffffffffffffffffffffffffffffffff16815260208101919091526040015f9081209150805b8254811015612b9a57828181548110612b5557612b5561487c565b5f91825260209091200154612b90907401000000000000000000000000000000000000000090046bffffffffffffffffffffffff1683614a68565b9150600101612b3a565b5060018601545f90612bb5908a9065ffffffffffff16614847565b65ffffffffffff169050612bcb82826001612be5565b8754612bd79190614834565b9a9950505050505050505050565b82820281838583041485151702612c8b577fffffffffffffffffffffffffffffffffffffffffffffffffffffffffffffffff8385098181108201900382848609835f038416828511612c3e5763ae47f7025f526004601cfd5b93849004938382119092035f8390038390046001010292030417600260038302811880840282030280840282030280840282030280840282030280840282030280840290910302026108e1565b0492915050565b5f8281527f02dd7bc7dec4dceedda775e58dd541e08a116c6c53815c0bd028192f7b626800602090815260408083206001600160a01b038516845290915290205460ff16610a33576040517fe2517d3f0000000000000000000000000000000000000000000000000000000081526001600160a01b0382166004820152602481018390526044016116eb565b5f8281527f02dd7bc7dec4dceedda775e58dd541e08a116c6c53815c0bd028192f7b626800602081815260408084206001600160a01b038616855290915282205460ff16612dff575f848152602082815260408083206001600160a01b0387168452909152902080547fffffffffffffffffffffffffffffffffffffffffffffffffffffffffffffff00166001179055612db53390565b6001600160a01b0316836001600160a01b0316857f2f8788117e7eff1d82e926ec794901d17c78024a50270940304540a733656f0d60405160405180910390a46001915050610889565b5f915050610889565b5f6108e1836001600160a01b038416613878565b5f8281527f02dd7bc7dec4dceedda775e58dd541e08a116c6c53815c0bd028192f7b626800602081815260408084206001600160a01b038616855290915282205460ff1615612dff575f848152602082815260408083206001600160a01b038716808552925280832080547fffffffffffffffffffffffffffffffffffffffffffffffffffffffffffffff0016905551339287917ff6391f5c32d9c69d2a47ea670b442974b53935d1edc7fd64eb21e047a839171b9190a46001915050610889565b5f6108e1836001600160a01b0384166138c4565b5f7f360894a13ba1a3210667c828492db98dca3e2076cc3735a920a3ca505d382bbc61090b565b612f228261399e565b6040516001600160a01b038316907fbc7cd75a20ee27fd9adebab32041f755214dbc6bffa90cc0225b39da2e5c2d3b905f90a2805115612f6657610a138282613a45565b610a33613aae565b80545f9081908190808203612f8c575f5f5f93509350935050612fdc565b5f612f9c866129ca600185614834565b546001955065ffffffffffff811694506601000000000000900479ffffffffffffffffffffffffffffffffffffffffffffffffffff169250612fdc915050565b9193909250565b6060815167ffffffffffffffff811115612fff57612fff614030565b60405190808252806020026020018201604052801561304357816020015b604080518082019091525f808252602082015281526020019060019003908161301d5790505b5090505f5b82518110156130d7576130b28382815181106130665761306661487c565b60200260200101516040805180820182525f808252602091820152815180830190925282516001600160a01b03168252918201516bffffffffffffffffffffffff169181019190915290565b8282815181106130c4576130c461487c565b6020908102919091010152600101613048565b50919050565b7ff0c57e16840df040f15088dc2f81fe391c3923bec73e23a9662efc9c229c6a005468010000000000000000900460ff16611648576040517fd7e6bcf800000000000000000000000000000000000000000000000000000000815260040160405180910390fd5b5f825f0182815481106131595761315961487c565b905f5260205f200154905092915050565b6001600160a01b0382165f9081526004840160205260408120600181015465ffffffffffff908116908416036131a2575490506108e1565b845f6131ae828661294a565b90505f8179ffffffffffffffffffffffffffffffffffffffffffffffffffff1611613205576040517ffaa708d200000000000000000000000000000000000000000000000000000000815260040160405180910390fd5b5f613211888389613ae6565b845460018601549192509065ffffffffffff8089169116111561287d5760018501545f9061324890899065ffffffffffff16614847565b65ffffffffffff1690505f61325f84836001612be5565b905082811115613278575f9750505050505050506108e1565b6114da8184614834565b6060815f018054806020026020016040519081016040528092919081815260200182805480156132cf57602002820191905f5260205f20905b8154815260200190600101908083116132bb575b50505050509050919050565b5f6109c242613bb8565b5f6bffffffffffffffffffffffff821115613336576040517f6dfcc65000000000000000000000000000000000000000000000000000000000815260606004820152602481018390526044016116eb565b5090565b604080518082019091525f8082526020820152604051806040016040528083602001602081019061336b91906141b5565b6001600160a01b0316815260200161338684604001356132e5565b6bffffffffffffffffffffffff16905292915050565b6001600160a01b0381165f90815260018301602052604081205415156108e1565b5f806133ca858585613c03565b915091505b935093915050565b5f6133e28484614847565b79ffffffffffffffffffffffffffffffffffffffffffffffffffff83165f908152600287016020526040812065ffffffffffff929092169250805b8254811015613524575f8382815481106134395761343961487c565b5f91825260208220015485546001600160a01b0390911692508590849081106134645761346461487c565b5f918252602080832091909101546001600160a01b038516835260048d019091526040909120740100000000000000000000000000000000000000009091046bffffffffffffffffffffffff1691506134bf82886001612be5565b815f015f8282546134d09190614a68565b90915550506001810180547fffffffffffffffffffffffffffffffffffffffffffffffffffff0000000000001665ffffffffffff8b161790556135138286614a68565b9450506001909201915061341d9050565b506007870161353582856001612be5565b815f015f8282546135469190614a68565b909155505060010180547fffffffffffffffffffffffffffffffffffffffffffffffffffff0000000000001665ffffffffffff9690961695909517909455505050505050565b5f79ffffffffffffffffffffffffffffffffffffffffffffffffffff821115613336576040517f6dfcc65000000000000000000000000000000000000000000000000000000000815260d06004820152602481018390526044016116eb565b60606080604051019050602081016040525f8152806f30313233343536373839616263646566600f52600119835b600f811651938201936001850153600f8160041c1651845360081c80613619575050819003601f19909101908152919050565b5f60018211613659575090565b816001700100000000000000000000000000000000821061367f5760809190911c9060401b5b68010000000000000000821061369a5760409190911c9060201b5b64010000000082106136b15760209190911c9060101b5b6201000082106136c65760109190911c9060081b5b61010082106136da5760089190911c9060041b5b601082106136ed5760049190911c9060021b5b600482106136f95760011b5b600302600190811c9081858161371157613711614a7b565b048201901c9050600181858161372957613729614a7b565b048201901c9050600181858161374157613741614a7b565b048201901c9050600181858161375957613759614a7b565b048201901c9050600181858161377157613771614a7b565b048201901c9050600181858161378957613789614a7b565b048201901c90506137a88185816137a2576137a2614a7b565b04821190565b90039392505050565b5f5b81831015613808575f6137c68484613dc4565b5f8781526020902090915065ffffffffffff86169082015465ffffffffffff1611156137f457809250613802565b6137ff816001614a68565b93505b506137b3565b509392505050565b5f805b8281101561386c575f6138268683613dde565b90508465ffffffffffff16815f015165ffffffffffff1610613863575f821161384f575f61385a565b61385a600183614834565b925050506108e1565b50600101613813565b50610947600183614834565b5f8181526001830160205260408120546138bd57508154600181810184555f848152602080822090930184905584548482528286019093526040902091909155610889565b505f610889565b5f8181526001830160205260408120548015612dff575f6138e6600183614834565b85549091505f906138f990600190614834565b9050808214613958575f865f0182815481106139175761391761487c565b905f5260205f200154905080875f0184815481106139375761393761487c565b5f918252602080832090910192909255918252600188019052604090208390555b855486908061396957613969614aa8565b600190038181905f5260205f20015f90559055856001015f8681526020019081526020015f205f905560019350505050610889565b806001600160a01b03163b5f036139ec576040517f4c9c8ce30000000000000000000000000000000000000000000000000000000081526001600160a01b03821660048201526024016116eb565b7f360894a13ba1a3210667c828492db98dca3e2076cc3735a920a3ca505d382bbc80547fffffffffffffffffffffffff0000000000000000000000000000000000000000166001600160a01b0392909216919091179055565b60605f5f846001600160a01b031684604051613a6191906148e0565b5f60405180830381855af49150503d805f8114613a99576040519150601f19603f3d011682016040523d82523d5f602084013e613a9e565b606091505b5091509150610eb7858383613e61565b3415611648576040517fb398979f00000000000000000000000000000000000000000000000000000000815260040160405180910390fd5b79ffffffffffffffffffffffffffffffffffffffffffffffffffff82165f90815260038401602090815260408083206001600160a01b0385168452909152812054808203613b37575f9150506108e1565b79ffffffffffffffffffffffffffffffffffffffffffffffffffff84165f9081526002860160205260409020613b6e600183614834565b81548110613b7e57613b7e61487c565b5f918252602090912001547401000000000000000000000000000000000000000090046bffffffffffffffffffffffff1695945050505050565b5f65ffffffffffff821115613336576040517f6dfcc65000000000000000000000000000000000000000000000000000000000815260306004820152602481018390526044016116eb565b82545f9081908015613d54575f613c1f876129ca600185614834565b805490915065ffffffffffff808216916601000000000000900479ffffffffffffffffffffffffffffffffffffffffffffffffffff16908816821115613c91576040517f2520601d00000000000000000000000000000000000000000000000000000000815260040160405180910390fd5b8765ffffffffffff168265ffffffffffff1603613ce057825465ffffffffffff16660100000000000079ffffffffffffffffffffffffffffffffffffffffffffffffffff891602178355613d46565b6040805180820190915265ffffffffffff808a16825279ffffffffffffffffffffffffffffffffffffffffffffffffffff808a1660208085019182528d54600181018f555f8f815291909120945191519092166601000000000000029216919091179101555b94508593506133cf92505050565b50506040805180820190915265ffffffffffff808516825279ffffffffffffffffffffffffffffffffffffffffffffffffffff80851660208085019182528854600181018a555f8a81529182209551925190931666010000000000000291909316179201919091559050816133cf565b5f613dd26002848418614ad5565b6108e190848416614a68565b604080518082019091525f8082526020820152825f018263ffffffff1681548110613e0b57613e0b61487c565b5f9182526020918290206040805180820190915291015465ffffffffffff811682526601000000000000900479ffffffffffffffffffffffffffffffffffffffffffffffffffff16918101919091529392505050565b606082613e7657613e7182613ed6565b6108e1565b8151158015613e8d57506001600160a01b0384163b155b15613ecf576040517f9996b3150000000000000000000000000000000000000000000000000000000081526001600160a01b03851660048201526024016116eb565b50806108e1565b805115613ee65780518082602001fd5b6040517fd6bda27500000000000000000000000000000000000000000000000000000000815260040160405180910390fd5b5f60208284031215613f28575f5ffd5b81357fffffffff00000000000000000000000000000000000000000000000000000000811681146108e1575f5ffd5b803565ffffffffffff81168114613f6c575f5ffd5b919050565b80356001600160a01b0381168114613f6c575f5ffd5b5f5f60408385031215613f98575f5ffd5b613fa183613f57565b9150613faf60208401613f71565b90509250929050565b5f60208284031215613fc8575f5ffd5b5035919050565b5f5f5f60608486031215613fe1575f5ffd5b613fea84613f71565b9250613ff860208501613f57565b915061400660408501613f57565b90509250925092565b5f5f60408385031215614020575f5ffd5b82359150613faf60208401613f71565b7f4e487b71000000000000000000000000000000000000000000000000000000005f52604160045260245ffd5b6040516080810167ffffffffffffffff8111828210171561408057614080614030565b60405290565b6040516060810167ffffffffffffffff8111828210171561408057614080614030565b604051610100810167ffffffffffffffff8111828210171561408057614080614030565b604051601f8201601f1916810167ffffffffffffffff811182821017156140f6576140f6614030565b604052919050565b5f82601f83011261410d575f5ffd5b813567ffffffffffffffff81111561412757614127614030565b61413a6020601f19601f840116016140cd565b81815284602083860101111561414e575f5ffd5b816020850160208301375f918101602001919091529392505050565b5f5f6040838503121561417b575f5ffd5b61418483613f71565b9150602083013567ffffffffffffffff81111561419f575f5ffd5b6141ab858286016140fe565b9150509250929050565b5f602082840312156141c5575f5ffd5b6108e182613f71565b5f5f5f606084860312156141e0575f5ffd5b6141e984613f57565b92506141f760208501613f57565b915061400660408501613f71565b602080825282518282018190525f918401906040840190835b8181101561425a5761424483855180516001600160a01b03168252602090810151910152565b602093909301926040929092019160010161421e565b509095945050505050565b602081016003831061429e577f4e487b71000000000000000000000000000000000000000000000000000000005f52602160045260245ffd5b91905290565b5f5f604083850312156142b5575f5ffd5b6142be83613f71565b946020939093013593505050565b5f5f5f606084860312156142de575f5ffd5b6142e784613f71565b92506142f560208501613f71565b929592945050506040919091013590565b5f5f60408385031215614317575f5ffd5b50508035926020909101359150565b5f5f5f5f60808587031215614339575f5ffd5b61434285613f57565b935061435060208601613f57565b925061435e60408601613f71565b915061436c60608601613f71565b905092959194509250565b602080825282518282018190525f918401906040840190835b8181101561425a5783516001600160a01b0316835260209384019390920191600101614390565b5f81518084528060208401602086015e5f602082860101526020601f19601f83011685010191505092915050565b602081525f6108e160208301846143b7565b5f606082840312156130d7575f5ffd5b5f5f5f5f6060858703121561441a575f5ffd5b61442385613f57565b9350602085013567ffffffffffffffff81111561443e575f5ffd5b8501601f8101871361444e575f5ffd5b803567ffffffffffffffff811115614464575f5ffd5b876020828401011115614475575f5ffd5b60209190910193509150604085013567ffffffffffffffff811115614498575f5ffd5b6144a4878288016143f7565b91505092959194509250565b5f5f5f606084860312156144c2575f5ffd5b6144cb84613f57565b92506141f760208501613f71565b81516001600160a01b031681526020808301519082015260408101610889565b80358015158114613f6c575f5ffd5b5f82601f830112614517575f5ffd5b813567ffffffffffffffff81111561453157614531614030565b61454060208260051b016140cd565b8082825260208201915060208360071b860101925085831115614561575f5ffd5b602085015b838110156145c9576080818803121561457d575f5ffd5b61458561405d565b61458e82613f71565b815261459c60208301613f71565b60208281019190915260408381013590830152606080840135908301529084529290920191608001614566565b5095945050505050565b5f606082360312156145e3575f5ffd5b6145eb614086565b82358152602083013567ffffffffffffffff811115614608575f5ffd5b830161010036829003121561461b575f5ffd5b6146236140a9565b61462c82613f71565b8152602082013567ffffffffffffffff811115614647575f5ffd5b614653368285016140fe565b60208301525060408281013590820152606080830135908201526080808301359082015260a0808301359082015261468d60c083016144f9565b60c082015261469e60e083016144f9565b60e0820152602083015250604083013567ffffffffffffffff8111156146c2575f5ffd5b6146ce36828601614508565b60408301525092915050565b5f82357fffffffffffffffffffffffffffffffffffffffffffffffffffffffffffffff0183360301811261470c575f5ffd5b9190910192915050565b5f5f83357fffffffffffffffffffffffffffffffffffffffffffffffffffffffffffffffe1843603018112614749575f5ffd5b83018035915067ffffffffffffffff821115614763575f5ffd5b6020019150600781901b3603821315612030575f5ffd5b5f81518060208401855e5f93019283525090919050565b7f7b2274797065223a227a6b222c2261707048617368223a22000000000000000081525f6147c2601883018461477a565b7f227d00000000000000000000000000000000000000000000000000000000000081526002019392505050565b828152604060208201525f61094760408301846143b7565b7f4e487b71000000000000000000000000000000000000000000000000000000005f52601160045260245ffd5b8181038181111561088957610889614807565b65ffffffffffff828116828216039081111561088957610889614807565b5f60208284031215614875575f5ffd5b5051919050565b7f4e487b71000000000000000000000000000000000000000000000000000000005f52603260045260245ffd5b5f7fffffffffffffffffffffffffffffffffffffffffffffffffffffffffffffffff82036148d9576148d9614807565b5060010190565b5f6108e1828461477a565b5f8151808452602084019350602083015f5b828110156149535781516001600160a01b0381511687526001600160a01b0360208201511660208801526040810151604088015260608101516060880152506080860195506020820191506001810190506148fd565b5093949350505050565b60208152815160208201525f6020830151606060408401526001600160a01b038151166080840152602081015161010060a08501526149a06101808501826143b7565b9050604082015160c0850152606082015160e0850152608082015161010085015260a082015161012085015260c0820151151561014085015260e082015191506149ef61016085018315159052565b60408501519150601f19848203016060850152610eb781836148eb565b838152606060208201525f614a2460608301856143b7565b828103604084015261140181856143b7565b79ffffffffffffffffffffffffffffffffffffffffffffffffffff818116838216019081111561088957610889614807565b8082018082111561088957610889614807565b7f4e487b71000000000000000000000000000000000000000000000000000000005f52601260045260245ffd5b7f4e487b71000000000000000000000000000000000000000000000000000000005f52603160045260245ffd5b5f82614b08577f4e487b71000000000000000000000000000000000000000000000000000000005f52601260045260245ffd5b50049056fe33323965376665396161356330366364323065366264353439326530323466396665643662313863a264697066735822122002ff25154ba53b46feceaf24ed736276c0a4e619d482d54c0fcb1a627e5b686164736f6c634300081d0033","linkReferences":{}},"methodIdentifiers":{"DEFAULT_ADMIN_ROLE()":"a217fddf","EIP4788()":"a2ad0582","EIP4788_TIMEOUT()":"3d214c45","FEEDER_ROLE()":"ceb20971","GIT_COMMIT()":"b8a15e3a","GIT_TAG()":"b175eb4d","UPGRADE_INTERFACE_VERSION()":"ad3cb1cc","feed(uint48,bytes,(bytes32,(address,bytes,uint256,uint256,uint256,uint256,bool,bool),(address,address,uint256,uint256)[]))":"e7baa1b8","feedType()":"56355c18","getCollateralOwnership(uint48,address,address)":"eca1c8d1","getCollateralOwnershipTWAB(uint48,uint48,address,address)":"90aaa046","getCollateralOwnerships(uint48,address)":"5e27c123","getCollateralOwnershipsTWAB(uint48,uint48,address)":"547c477d","getHistoricalOwners(address)":"f6e03f71","getHistoricalOwnersCount(address)":"8e892d79","getLastFeedTimestamp(address)":"51e7ba44","getRoleAdmin(bytes32)":"248a9ca3","getRoleMember(bytes32,uint256)":"9010d07c","getRoleMemberCount(bytes32)":"ca15c873","getRoleMembers(bytes32)":"a3246ad3","getTotalTWAB(address,uint48,uint48)":"2cba54da","getValidator(uint48,address)":"1714b74d","getValidatorAddressByIndex(uint256)":"5826cf52","getValidatorAddressCount()":"33caa716","grantRole(bytes32,address)":"2f2ff15d","hasRole(bytes32,address)":"91d14854","initialize(address,address,bytes32)":"6133f985","initializeV2(address,bytes32)":"5ac0fb34","programVKey()":"1ddb5d29","proxiableUUID()":"52d1902d","renounceRole(bytes32,address)":"36568abe","revokeRole(bytes32,address)":"d547741f","setProgramVKey(bytes32)":"61ed2713","setVerifier(address)":"5437988d","supportsInterface(bytes4)":"01ffc9a7","upgradeToAndCall(address,bytes)":"4f1ef286","verifier()":"2b7ac3f3"},"id":118}