{"abi":[{"type":"constructor","inputs":[{"name":"_verifier","type":"address","internalType":"address"},{"name":"_programVKey","type":"bytes32","internalType":"bytes32"}],"stateMutability":"nonpayable"},{"type":"function","name":"DEFAULT_ADMIN_ROLE","inputs":[],"outputs":[{"name":"","type":"bytes32","internalType":"bytes32"}],"stateMutability":"view"},{"type":"function","name":"EIP4788","inputs":[],"outputs":[{"name":"","type":"address","internalType":"address"}],"stateMutability":"view"},{"type":"function","name":"EIP4788_TIMEOUT","inputs":[],"outputs":[{"name":"","type":"uint256","internalType":"uint256"}],"stateMutability":"view"},{"type":"function","name":"FEEDER_ROLE","inputs":[],"outputs":[{"name":"","type":"bytes32","internalType":"bytes32"}],"stateMutability":"view"},{"type":"function","name":"GIT_COMMIT","inputs":[],"outputs":[{"name":"","type":"string","internalType":"string"}],"stateMutability":"view"},{"type":"function","name":"GIT_TAG","inputs":[],"outputs":[{"name":"","type":"string","internalType":"string"}],"stateMutability":"view"},{"type":"function","name":"PROGRAM_VKEY","inputs":[],"outputs":[{"name":"","type":"bytes32","internalType":"bytes32"}],"stateMutability":"view"},{"type":"function","name":"UPGRADE_INTERFACE_VERSION","inputs":[],"outputs":[{"name":"","type":"string","internalType":"string"}],"stateMutability":"view"},{"type":"function","name":"VERIFIFER","inputs":[],"outputs":[{"name":"","type":"address","internalType":"contract ISP1Verifier"}],"stateMutability":"view"},{"type":"function","name":"feed","inputs":[{"name":"targetTimestamp","type":"uint48","internalType":"uint48"},{"name":"proof","type":"bytes","internalType":"bytes"},{"name":"publicData","type":"tuple","internalType":"struct LibZkOracleFeed.PublicData","components":[{"name":"appHash","type":"bytes32","internalType":"bytes32"},{"name":"validator","type":"tuple","internalType":"struct LibZkOracleFeed.Validator","components":[{"name":"addr","type":"address","internalType":"address"},{"name":"pubkey","type":"bytes","internalType":"bytes"},{"name":"collateral","type":"uint256","internalType":"uint256"},{"name":"collateralShares","type":"uint256","internalType":"uint256"},{"name":"extraVotingPower","type":"uint256","internalType":"uint256"},{"name":"votingPower","type":"uint256","internalType":"uint256"},{"name":"jailed","type":"bool","internalType":"bool"},{"name":"bonded","type":"bool","internalType":"bool"}]},{"name":"ownerships","type":"tuple[]","internalType":"struct LibZkOracleFeed.CollateralOwnership[]","components":[{"name":"valAddr","type":"address","internalType":"address"},{"name":"owner","type":"address","internalType":"address"},{"name":"shares","type":"uint256","internalType":"uint256"},{"name":"creationHeight","type":"uint256","internalType":"uint256"}]}]}],"outputs":[],"stateMutability":"nonpayable"},{"type":"function","name":"feedType","inputs":[],"outputs":[{"name":"","type":"uint8","internalType":"enum ICollateralOracleFeed.FeedType"}],"stateMutability":"pure"},{"type":"function","name":"getCollateralOwnership","inputs":[{"name":"timestamp","type":"uint48","internalType":"uint48"},{"name":"validator","type":"address","internalType":"address"},{"name":"owner","type":"address","internalType":"address"}],"outputs":[{"name":"","type":"tuple","internalType":"struct ICollateralOracleFeed.CollateralOwnership","components":[{"name":"owner","type":"address","internalType":"address"},{"name":"shares","type":"uint256","internalType":"uint256"}]}],"stateMutability":"view"},{"type":"function","name":"getCollateralOwnershipTWAB","inputs":[{"name":"startTime","type":"uint48","internalType":"uint48"},{"name":"endTime","type":"uint48","internalType":"uint48"},{"name":"validator","type":"address","internalType":"address"},{"name":"owner","type":"address","internalType":"address"}],"outputs":[{"name":"","type":"uint256","internalType":"uint256"}],"stateMutability":"view"},{"type":"function","name":"getCollateralOwnerships","inputs":[{"name":"timestamp","type":"uint48","internalType":"uint48"},{"name":"validator","type":"address","internalType":"address"}],"outputs":[{"name":"","type":"tuple[]","internalType":"struct ICollateralOracleFeed.CollateralOwnership[]","components":[{"name":"owner","type":"address","internalType":"address"},{"name":"shares","type":"uint256","internalType":"uint256"}]}],"stateMutability":"view"},{"type":"function","name":"getCollateralOwnershipsTWAB","inputs":[{"name":"startTime","type":"uint48","internalType":"uint48"},{"name":"endTime","type":"uint48","internalType":"uint48"},{"name":"validator","type":"address","internalType":"address"}],"outputs":[{"name":"","type":"tuple[]","internalType":"struct ICollateralOracleFeed.CollateralOwnership[]","components":[{"name":"owner","type":"address","internalType":"address"},{"name":"shares","type":"uint256","internalType":"uint256"}]}],"stateMutability":"view"},{"type":"function","name":"getHistoricalOwners","inputs":[{"name":"validator","type":"address","internalType":"address"}],"outputs":[{"name":"","type":"address[]","internalType":"address[]"}],"stateMutability":"view"},{"type":"function","name":"getHistoricalOwnersCount","inputs":[{"name":"validator","type":"address","internalType":"address"}],"outputs":[{"name":"","type":"uint256","internalType":"uint256"}],"stateMutability":"view"},{"type":"function","name":"getLastFeedTimestamp","inputs":[{"name":"validator","type":"address","internalType":"address"}],"outputs":[{"name":"","type":"uint48","internalType":"uint48"}],"stateMutability":"view"},{"type":"function","name":"getRoleAdmin","inputs":[{"name":"role","type":"bytes32","internalType":"bytes32"}],"outputs":[{"name":"","type":"bytes32","internalType":"bytes32"}],"stateMutability":"view"},{"type":"function","name":"getRoleMember","inputs":[{"name":"role","type":"bytes32","internalType":"bytes32"},{"name":"index","type":"uint256","internalType":"uint256"}],"outputs":[{"name":"","type":"address","internalType":"address"}],"stateMutability":"view"},{"type":"function","name":"getRoleMemberCount","inputs":[{"name":"role","type":"bytes32","internalType":"bytes32"}],"outputs":[{"name":"","type":"uint256","internalType":"uint256"}],"stateMutability":"view"},{"type":"function","name":"getRoleMembers","inputs":[{"name":"role","type":"bytes32","internalType":"bytes32"}],"outputs":[{"name":"","type":"address[]","internalType":"address[]"}],"stateMutability":"view"},{"type":"function","name":"getTotalTWAB","inputs":[{"name":"validator","type":"address","internalType":"address"},{"name":"startTime","type":"uint48","internalType":"uint48"},{"name":"endTime","type":"uint48","internalType":"uint48"}],"outputs":[{"name":"","type":"uint256","internalType":"uint256"}],"stateMutability":"view"},{"type":"function","name":"getValidator","inputs":[{"name":"timestamp","type":"uint48","internalType":"uint48"},{"name":"validator","type":"address","internalType":"address"}],"outputs":[{"name":"","type":"tuple","internalType":"struct ICollateralOracleFeed.Validator","components":[{"name":"collateral","type":"uint256","internalType":"uint256"},{"name":"collateralShares","type":"uint256","internalType":"uint256"},{"name":"extraVotingPower","type":"uint256","internalType":"uint256"},{"name":"votingPower","type":"uint256","internalType":"uint256"}]}],"stateMutability":"view"},{"type":"function","name":"getValidatorAddressByIndex","inputs":[{"name":"index","type":"uint256","internalType":"uint256"}],"outputs":[{"name":"","type":"address","internalType":"address"}],"stateMutability":"view"},{"type":"function","name":"getValidatorAddressCount","inputs":[],"outputs":[{"name":"","type":"uint256","internalType":"uint256"}],"stateMutability":"view"},{"type":"function","name":"grantRole","inputs":[{"name":"role","type":"bytes32","internalType":"bytes32"},{"name":"account","type":"address","internalType":"address"}],"outputs":[],"stateMutability":"nonpayable"},{"type":"function","name":"hasRole","inputs":[{"name":"role","type":"bytes32","internalType":"bytes32"},{"name":"account","type":"address","internalType":"address"}],"outputs":[{"name":"","type":"bool","internalType":"bool"}],"stateMutability":"view"},{"type":"function","name":"initialize","inputs":[{"name":"initialOwner","type":"address","internalType":"address"}],"outputs":[],"stateMutability":"nonpayable"},{"type":"function","name":"proxiableUUID","inputs":[],"outputs":[{"name":"","type":"bytes32","internalType":"bytes32"}],"stateMutability":"view"},{"type":"function","name":"renounceRole","inputs":[{"name":"role","type":"bytes32","internalType":"bytes32"},{"name":"callerConfirmation","type":"address","internalType":"address"}],"outputs":[],"stateMutability":"nonpayable"},{"type":"function","name":"revokeRole","inputs":[{"name":"role","type":"bytes32","internalType":"bytes32"},{"name":"account","type":"address","internalType":"address"}],"outputs":[],"stateMutability":"nonpayable"},{"type":"function","name":"supportsInterface","inputs":[{"name":"interfaceId","type":"bytes4","internalType":"bytes4"}],"outputs":[{"name":"","type":"bool","internalType":"bool"}],"stateMutability":"view"},{"type":"function","name":"upgradeToAndCall","inputs":[{"name":"newImplementation","type":"address","internalType":"address"},{"name":"data","type":"bytes","internalType":"bytes"}],"outputs":[],"stateMutability":"payable"},{"type":"event","name":"FeedUpdated","inputs":[{"name":"timestamp","type":"uint48","indexed":true,"internalType":"uint48"},{"name":"validator","type":"address","indexed":true,"internalType":"address"},{"name":"ownershipCount","type":"uint256","indexed":false,"internalType":"uint256"},{"name":"metadata","type":"bytes","indexed":false,"internalType":"bytes"}],"anonymous":false},{"type":"event","name":"Initialized","inputs":[{"name":"version","type":"uint64","indexed":false,"internalType":"uint64"}],"anonymous":false},{"type":"event","name":"RoleAdminChanged","inputs":[{"name":"role","type":"bytes32","indexed":true,"internalType":"bytes32"},{"name":"previousAdminRole","type":"bytes32","indexed":true,"internalType":"bytes32"},{"name":"newAdminRole","type":"bytes32","indexed":true,"internalType":"bytes32"}],"anonymous":false},{"type":"event","name":"RoleGranted","inputs":[{"name":"role","type":"bytes32","indexed":true,"internalType":"bytes32"},{"name":"account","type":"address","indexed":true,"internalType":"address"},{"name":"sender","type":"address","indexed":true,"internalType":"address"}],"anonymous":false},{"type":"event","name":"RoleRevoked","inputs":[{"name":"role","type":"bytes32","indexed":true,"internalType":"bytes32"},{"name":"account","type":"address","indexed":true,"internalType":"address"},{"name":"sender","type":"address","indexed":true,"internalType":"address"}],"anonymous":false},{"type":"event","name":"Upgraded","inputs":[{"name":"implementation","type":"address","indexed":true,"internalType":"address"}],"anonymous":false},{"type":"error","name":"AccessControlBadConfirmation","inputs":[]},{"type":"error","name":"AccessControlUnauthorizedAccount","inputs":[{"name":"account","type":"address","internalType":"address"},{"name":"neededRole","type":"bytes32","internalType":"bytes32"}]},{"type":"error","name":"AddressEmptyCode","inputs":[{"name":"target","type":"address","internalType":"address"}]},{"type":"error","name":"AppHashMismatch","inputs":[]},{"type":"error","name":"AppHashMismatch","inputs":[]},{"type":"error","name":"CheckpointUnorderedInsertion","inputs":[]},{"type":"error","name":"CollateralOwnershipFeedNotFound","inputs":[]},{"type":"error","name":"EIP4788Timeout","inputs":[]},{"type":"error","name":"ERC1967InvalidImplementation","inputs":[{"name":"implementation","type":"address","internalType":"address"}]},{"type":"error","name":"ERC1967NonPayable","inputs":[]},{"type":"error","name":"FailedCall","inputs":[]},{"type":"error","name":"FeedNotFound","inputs":[]},{"type":"error","name":"FeedTargetOutdated","inputs":[{"name":"timestamp","type":"uint48","internalType":"uint48"},{"name":"lastTimestamp","type":"uint48","internalType":"uint48"}]},{"type":"error","name":"InvalidInitialization","inputs":[]},{"type":"error","name":"InvalidTimeRange","inputs":[]},{"type":"error","name":"NoDataInRange","inputs":[]},{"type":"error","name":"NotInitializing","inputs":[]},{"type":"error","name":"SafeCastOverflowedUintDowncast","inputs":[{"name":"bits","type":"uint8","internalType":"uint8"},{"name":"value","type":"uint256","internalType":"uint256"}]},{"type":"error","name":"UUPSUnauthorizedCallContext","inputs":[]},{"type":"error","name":"UUPSUnsupportedProxiableUUID","inputs":[{"name":"slot","type":"bytes32","internalType":"bytes32"}]}],"bytecode":{"object":"0x60e060405230608052348015610013575f5ffd5b506040516148b03803806148b083398101604081905261003291610102565b61003a610050565b6001600160a01b0390911660a05260c052610139565b7ff0c57e16840df040f15088dc2f81fe391c3923bec73e23a9662efc9c229c6a00805468010000000000000000900460ff16156100a05760405163f92ee8a960e01b815260040160405180910390fd5b80546001600160401b03908116146100ff5780546001600160401b0319166001600160401b0390811782556040519081527fc7f505b2f371ae2175ee4913f4499e1f2633a7b5936321eed1cdaeb6115181d29060200160405180910390a15b50565b5f5f60408385031215610113575f5ffd5b82516001600160a01b0381168114610129575f5ffd5b6020939093015192949293505050565b60805160a05160c05161473161017f5f395f818161076b0152610e0201525f81816104870152610de101525f81816113450152818161136e015261155b01526147315ff3fe60806040526004361061020f575f3560e01c80639010d07c11610117578063b8a15e3a116100ac578063d547741f1161007c578063eca1c8d111610062578063eca1c8d11461072e578063f04a832d1461075a578063f6e03f711461078d575f5ffd5b8063d547741f146106f0578063e7baa1b81461070f575f5ffd5b8063b8a15e3a1461066b578063c4d66de81461067f578063ca15c8731461069e578063ceb20971146106bd575f5ffd5b8063a2ad0582116100e7578063a2ad05821461057c578063a3246ad3146105a2578063ad3cb1cc146105ce578063b175eb4d14610623575f5ffd5b80639010d07c146104c857806390aaa046146104e757806391d1485414610506578063a217fddf14610569575f5ffd5b80634f1ef286116101a757806356355c18116101775780635e27c1231161015d5780635e27c12314610457578063889bf462146104765780638e892d79146104a9575f5ffd5b806356355c18146104055780635826cf5214610420575f5ffd5b80634f1ef2861461037c57806351e7ba441461038f57806352d1902d146103c5578063547c477d146103d9575f5ffd5b80632f2ff15d116101e25780632f2ff15d1461031357806333caa7161461033457806336568abe146103485780633d214c4514610367575f5ffd5b806301ffc9a7146102135780631714b74d14610247578063248a9ca3146102995780632cba54da146102f4575b5f5ffd5b34801561021e575f5ffd5b5061023261022d366004613b40565b6107ac565b60405190151581526020015b60405180910390f35b348015610252575f5ffd5b50610266610261366004613baf565b610807565b60405161023e91908151815260208083015190820152604080830151908201526060918201519181019190915260800190565b3480156102a4575f5ffd5b506102e66102b3366004613be0565b5f9081527f02dd7bc7dec4dceedda775e58dd541e08a116c6c53815c0bd028192f7b626800602052604090206001015490565b60405190815260200161023e565b3480156102ff575f5ffd5b506102e661030e366004613bf7565b610860565b34801561031e575f5ffd5b5061033261032d366004613c37565b610895565b005b34801561033f575f5ffd5b506102e66108de565b348015610353575f5ffd5b50610332610362366004613c37565b61090d565b348015610372575f5ffd5b506102e661a8c081565b61033261038a366004613d92565b61095e565b34801561039a575f5ffd5b506103ae6103a9366004613ddd565b61097d565b60405165ffffffffffff909116815260200161023e565b3480156103d0575f5ffd5b506102e66109a8565b3480156103e4575f5ffd5b506103f86103f3366004613df6565b6109d6565b60405161023e9190613e2d565b348015610410575f5ffd5b50600260405161023e9190613e8d565b34801561042b575f5ffd5b5061043f61043a366004613be0565b610a04565b6040516001600160a01b03909116815260200161023e565b348015610462575f5ffd5b506103f8610471366004613baf565b610a2f565b348015610481575f5ffd5b5061043f7f000000000000000000000000000000000000000000000000000000000000000081565b3480156104b4575f5ffd5b506102e66104c3366004613ddd565b610a5c565b3480156104d3575f5ffd5b5061043f6104e2366004613ecc565b610a87565b3480156104f2575f5ffd5b506102e6610501366004613eec565b610abf565b348015610511575f5ffd5b50610232610520366004613c37565b5f9182527f02dd7bc7dec4dceedda775e58dd541e08a116c6c53815c0bd028192f7b626800602090815260408084206001600160a01b0393909316845291905290205460ff1690565b348015610574575f5ffd5b506102e65f81565b348015610587575f5ffd5b5061043f720f3df6d732807ef1319fb7b8bb8522d0beac0281565b3480156105ad575f5ffd5b506105c16105bc366004613be0565b610af6565b60405161023e9190613f3d565b3480156105d9575f5ffd5b506106166040518060400160405280600581526020017f352e302e3000000000000000000000000000000000000000000000000000000081525081565b60405161023e9190613fab565b34801561062e575f5ffd5b506106166040518060400160405280600681526020017f76302e302e33000000000000000000000000000000000000000000000000000081525081565b348015610676575f5ffd5b50610616610b32565b34801561068a575f5ffd5b50610332610699366004613ddd565b610b4e565b3480156106a9575f5ffd5b506102e66106b8366004613be0565b610ce6565b3480156106c8575f5ffd5b506102e67fe6e69a693a749cd395954f571a1f928763ac28c5ebd853c3b42503bef838bfd181565b3480156106fb575f5ffd5b5061033261070a366004613c37565b610d1d565b34801561071a575f5ffd5b50610332610729366004613fcd565b610d60565b348015610739575f5ffd5b5061074d610748366004614076565b610f5a565b60405161023e919061409f565b348015610765575f5ffd5b506102e67f000000000000000000000000000000000000000000000000000000000000000081565b348015610798575f5ffd5b506105c16107a7366004613ddd565b610f99565b5f7fffffffff0000000000000000000000000000000000000000000000000000000082167f5a05180f000000000000000000000000000000000000000000000000000000001480610801575061080182610fc5565b92915050565b61082e60405180608001604052805f81526020015f81526020015f81526020015f81525090565b6108597f88785c098aef98cf22acd5c5c09ab37e1ee6507973d121390c77e8b365477100848461105b565b9392505050565b5f61088d7f88785c098aef98cf22acd5c5c09ab37e1ee6507973d121390c77e8b3654771008484876111ca565b949350505050565b5f8281527f02dd7bc7dec4dceedda775e58dd541e08a116c6c53815c0bd028192f7b62680060205260409020600101546108ce81611282565b6108d8838361128f565b50505050565b5f6109087f88785c098aef98cf22acd5c5c09ab37e1ee6507973d121390c77e8b3654771006112e4565b905090565b6001600160a01b038116331461094f576040517f6697b23200000000000000000000000000000000000000000000000000000000815260040160405180910390fd5b61095982826112ee565b505050565b61096661133a565b61096f8261140c565b6109798282611416565b5050565b5f6108017f88785c098aef98cf22acd5c5c09ab37e1ee6507973d121390c77e8b3654771008361151c565b5f6109b1611550565b507f360894a13ba1a3210667c828492db98dca3e2076cc3735a920a3ca505d382bbc90565b606061088d7f88785c098aef98cf22acd5c5c09ab37e1ee6507973d121390c77e8b3654771008585856115b2565b5f6108017f88785c098aef98cf22acd5c5c09ab37e1ee6507973d121390c77e8b3654771008361181e565b60606108597f88785c098aef98cf22acd5c5c09ab37e1ee6507973d121390c77e8b3654771008484611829565b5f6108017f88785c098aef98cf22acd5c5c09ab37e1ee6507973d121390c77e8b36547710083611964565b5f8281527fc1f6fe24621ce81ec5827caf0253cadb74709b061630e6b55e8237170593200060208190526040822061088d9084611989565b5f610aed7f88785c098aef98cf22acd5c5c09ab37e1ee6507973d121390c77e8b36547710086868686611994565b95945050505050565b5f8181527fc1f6fe24621ce81ec5827caf0253cadb74709b061630e6b55e82371705932000602081905260409091206060919061085990611b29565b6040518060600160405280602881526020016146d46028913981565b7ff0c57e16840df040f15088dc2f81fe391c3923bec73e23a9662efc9c229c6a00805468010000000000000000810460ff16159067ffffffffffffffff165f81158015610b985750825b90505f8267ffffffffffffffff166001148015610bb45750303b155b905081158015610bc2575080155b15610bf9576040517ff92ee8a900000000000000000000000000000000000000000000000000000000815260040160405180910390fd5b84547fffffffffffffffffffffffffffffffffffffffffffffffff00000000000000001660011785558315610c5a5784547fffffffffffffffffffffffffffffffffffffffffffffff00ffffffffffffffff16680100000000000000001785555b610c62611b35565b610c6a611b35565b610c72611b35565b610c7c5f8761128f565b508315610cde5784547fffffffffffffffffffffffffffffffffffffffffffffff00ffffffffffffffff168555604051600181527fc7f505b2f371ae2175ee4913f4499e1f2633a7b5936321eed1cdaeb6115181d29060200160405180910390a15b505050505050565b5f8181527fc1f6fe24621ce81ec5827caf0253cadb74709b061630e6b55e8237170593200060208190526040822061085990611b3d565b5f8281527f02dd7bc7dec4dceedda775e58dd541e08a116c6c53815c0bd028192f7b6268006020526040902060010154610d5681611282565b6108d883836112ee565b7fe6e69a693a749cd395954f571a1f928763ac28c5ebd853c3b42503bef838bfd1610d8a81611282565b7f88785c098aef98cf22acd5c5c09ab37e1ee6507973d121390c77e8b3654771005f80610db78389611b46565b9150915080610ddc5765ffffffffffff88165f90815260028401602052604090208290555b610e687f00000000000000000000000000000000000000000000000000000000000000007f0000000000000000000000000000000000000000000000000000000000000000848a8a8080601f0160208091040260200160405190810160405280939291908181526020018383808284375f92019190915250610e6392508c91506141999050565b611c7f565b610eb78389610e7a60208901896142a0565b610e88906020810190613ddd565b610e9d610e9860208b018b6142a0565b611d3b565b610eb2610ead60408c018c6142dc565b611e07565b611ebf565b610ec460208601866142a0565b610ed2906020810190613ddd565b6001600160a01b031665ffffffffffff89167f2362fd90e550bdcea313caf72e3d8946648b9d32fd79ef839b8d7287cfdb40bd610f1260408901896142dc565b9050610f1d866122b6565b604051602001610f2d9190614357565b60408051601f1981840301815290829052610f4892916143b5565b60405180910390a35050505050505050565b604080518082019091525f808252602082015261088d7f88785c098aef98cf22acd5c5c09ab37e1ee6507973d121390c77e8b3654771008585856122f8565b60606108017f88785c098aef98cf22acd5c5c09ab37e1ee6507973d121390c77e8b365477100836124c9565b5f7fffffffff0000000000000000000000000000000000000000000000000000000082167f7965db0b00000000000000000000000000000000000000000000000000000000148061080157507f01ffc9a7000000000000000000000000000000000000000000000000000000007fffffffff00000000000000000000000000000000000000000000000000000000831614610801565b61108260405180608001604052805f81526020015f81526020015f81526020015f81525090565b6001600160a01b0382165f9081526003850160205260408120906110a6828661258a565b90505f8179ffffffffffffffffffffffffffffffffffffffffffffffffffff16116110fd576040517ffaa708d200000000000000000000000000000000000000000000000000000000815260040160405180910390fd5b79ffffffffffffffffffffffffffffffffffffffffffffffffffff81165f90815260018084016020908152604092839020835160c08101855281546bffffffffffffffffffffffff80821683526c0100000000000000000000000080830482169584019590955267ffffffffffffffff78010000000000000000000000000000000000000000000000009283900481169784019790975292909401548083166060830152928304909116608082015291900490911660a08201526111c090612650565b9695505050505050565b5f8265ffffffffffff168465ffffffffffff1610611214576040517f536a71af00000000000000000000000000000000000000000000000000000000815260040160405180910390fd5b6001600160a01b0382165f908152600386016020526040812060088101549091600783019165ffffffffffff169003611251575f9250505061088d565b5f61125c83886126e6565b90505f61126984886126e6565b905061127582826143fa565b9998505050505050505050565b61128c8133612825565b50565b5f7fc1f6fe24621ce81ec5827caf0253cadb74709b061630e6b55e82371705932000816112bc85856128b1565b9050801561088d575f8581526020839052604090206112db908561299b565b50949350505050565b5f61080182611b3d565b5f7fc1f6fe24621ce81ec5827caf0253cadb74709b061630e6b55e823717059320008161131b85856129af565b9050801561088d575f8581526020839052604090206112db9085612a71565b306001600160a01b037f00000000000000000000000000000000000000000000000000000000000000001614806113d357507f00000000000000000000000000000000000000000000000000000000000000006001600160a01b03166113c77f360894a13ba1a3210667c828492db98dca3e2076cc3735a920a3ca505d382bbc546001600160a01b031690565b6001600160a01b031614155b1561140a576040517fe07c8dba00000000000000000000000000000000000000000000000000000000815260040160405180910390fd5b565b5f61097981611282565b816001600160a01b03166352d1902d6040518163ffffffff1660e01b8152600401602060405180830381865afa925050508015611470575060408051601f3d908101601f1916820190925261146d9181019061440d565b60015b6114b6576040517f4c9c8ce30000000000000000000000000000000000000000000000000000000081526001600160a01b03831660048201526024015b60405180910390fd5b7f360894a13ba1a3210667c828492db98dca3e2076cc3735a920a3ca505d382bbc8114611512576040517faa1d49a4000000000000000000000000000000000000000000000000000000008152600481018290526024016114ad565b6109598383612a85565b6001600160a01b0381165f9081526003830160205260408120818061154083612ada565b509150915081610aed575f6111c0565b306001600160a01b037f0000000000000000000000000000000000000000000000000000000000000000161461140a576040517fe07c8dba00000000000000000000000000000000000000000000000000000000815260040160405180910390fd5b60608265ffffffffffff168465ffffffffffff16106115fd576040517f536a71af00000000000000000000000000000000000000000000000000000000815260040160405180910390fd5b6001600160a01b0382165f90815260038601602052604081209061162360058301611b3d565b90505f808267ffffffffffffffff81111561164057611640613c58565b604051908082528060200260200182016040528015611669578160200160208202803683370190505b5090505f5b83811015611707575f6116846005870183611989565b6001600160a01b0381165f90815260048801602052604081206001015491925065ffffffffffff90911690036116ba57506116ff565b5f6116c88c8c8c8c86611994565b9050808484815181106116dd576116dd614424565b602090810291909101015280156116fc57846116f881614451565b9550505b50505b60010161166e565b508167ffffffffffffffff81111561172157611721613c58565b60405190808252806020026020018201604052801561176557816020015b604080518082019091525f808252602082015281526020019060019003908161173f5790505b5094505f805b84811015611810575f83828151811061178657611786614424565b60200260200101511115611808575f6117a26005880183611989565b90506040518060400160405280826001600160a01b031681526020018584815181106117d0576117d0614424565b60200260200101518152508884815181106117ed576117ed614424565b6020026020010181905250828061180390614451565b935050505b60010161176b565b505050505050949350505050565b5f6108598383611989565b6001600160a01b0381165f908152600384016020526040812060609161184f828661258a565b90505f8179ffffffffffffffffffffffffffffffffffffffffffffffffffff16116118a6576040517ffaa708d200000000000000000000000000000000000000000000000000000000815260040160405180910390fd5b6111c0826002015f8379ffffffffffffffffffffffffffffffffffffffffffffffffffff1681526020019081526020015f20805480602002602001604051908101604052809291908181526020015f905b8282101561195b575f84815260209081902060408051808201909152908401546001600160a01b03811682527401000000000000000000000000000000000000000090046bffffffffffffffffffffffff16818301528252600190920191016118f7565b50505050612b4f565b6001600160a01b0381165f908152600383016020526040812061085990600501611b3d565b5f6108598383612c49565b5f8365ffffffffffff168565ffffffffffff16106119de576040517f536a71af00000000000000000000000000000000000000000000000000000000815260040160405180910390fd5b6001600160a01b038084165f90815260038801602090815260408083209386168352600484019091529020600181015465ffffffffffff16611a4c576040517ffaa708d200000000000000000000000000000000000000000000000000000000815260040160405180910390fd5b600181015465ffffffffffff9081169087161115611a96576040517f0a174d5a00000000000000000000000000000000000000000000000000000000815260040160405180910390fd5b5f611aa2838689612c6f565b90505f611ab084878b612c6f565b90505f611abd82846143fa565b90505f611aca8b8b614488565b65ffffffffffff1690505f8111611b0d576040517f536a71af00000000000000000000000000000000000000000000000000000000815260040160405180910390fd5b611b1982600183612d96565b9c9b505050505050505050505050565b60605f61085983612e43565b61140a612e9c565b5f610801825490565b5f5f82611b51612f03565b611b5b9190614488565b65ffffffffffff1661a8c01015611bc75765ffffffffffff83165f90815260028501602052604090205480611bbc576040517f934d7bf400000000000000000000000000000000000000000000000000000000815260040160405180910390fd5b915060019050611c78565b6040805165ffffffffffff851660208201525f918291720f3df6d732807ef1319fb7b8bb8522d0beac02910160408051601f1981840301815290829052611c0d916144a6565b5f60405180830381855afa9150503d805f8114611c45576040519150601f19603f3d011682016040523d82523d5f602084013e611c4a565b606091505b509150915081611c5c57805160208201fd5b80806020019051810190611c70919061440d565b5f9350935050505b9250929050565b80518314611cb9576040517f5482988c00000000000000000000000000000000000000000000000000000000815260040160405180910390fd5b846001600160a01b03166341493c608583604051602001611cda9190614523565b604051602081830303815290604052856040518463ffffffff1660e01b8152600401611d08939291906145d2565b5f6040518083038186803b158015611d1e575f5ffd5b505afa158015611d30573d5f5f3e3d5ffd5b505050505050505050565b6040805160c0810182525f80825260208201819052918101829052606081018290526080810182905260a08101919091526040518060c00160405280611d848460400135612f0d565b6bffffffffffffffffffffffff168152602001611da48460600135612f0d565b6bffffffffffffffffffffffff1681525f6020820152604001611dca6080850135612f0d565b6bffffffffffffffffffffffff168152602001611dea8460a00135612f0d565b6bffffffffffffffffffffffff1681525f60209091015292915050565b60608167ffffffffffffffff811115611e2257611e22613c58565b604051908082528060200260200182016040528015611e6657816020015b604080518082019091525f8082526020820152815260200190600190039081611e405790505b5090505f5b82811015611eb857611e93848483818110611e8857611e88614424565b905060800201612f62565b828281518110611ea557611ea5614424565b6020908102919091010152600101611e6b565b5092915050565b6001600160a01b0383165f9081526003860160205260409020611ee28685612fc4565b611f0a57611ef0868561299b565b50611f07611eff600187614488565b82905f612fe5565b50505b5f8080611f1684612ada565b925092509250828015611f3857508765ffffffffffff168265ffffffffffff16105b88839091611f84576040517f8f1725a700000000000000000000000000000000000000000000000000000000815265ffffffffffff9283166004820152911660248201526044016114ad565b505f9050611f938260016145fc565b79ffffffffffffffffffffffffffffffffffffffffffffffffffff169050838015611fc557505f8365ffffffffffff16115b15611fd657611fd685848b85612fff565b611feb89611fe3836131b4565b879190612fe5565b505086856001015f8381526020019081526020015f205f820151815f015f6101000a8154816bffffffffffffffffffffffff02191690836bffffffffffffffffffffffff1602179055506020820151815f01600c6101000a8154816bffffffffffffffffffffffff02191690836bffffffffffffffffffffffff1602179055506040820151815f0160186101000a81548167ffffffffffffffff021916908367ffffffffffffffff1602179055506060820151816001015f6101000a8154816bffffffffffffffffffffffff02191690836bffffffffffffffffffffffff160217905550608082015181600101600c6101000a8154816bffffffffffffffffffffffff02191690836bffffffffffffffffffffffff16021790555060a08201518160010160186101000a81548167ffffffffffffffff021916908367ffffffffffffffff1602179055509050505f5f90505b86518110156122a9575f87828151811061215957612159614424565b60200260200101515f01519050866002015f8481526020019081526020015f2088838151811061218b5761218b614424565b6020908102919091018101518254600181810185555f94855293839020825192909301516bffffffffffffffffffffffff1674010000000000000000000000000000000000000000026001600160a01b03909216919091179101556121f190839061462e565b5f84815260038901602090815260408083206001600160a01b038616845282528083209390935560048a0190529081206001015465ffffffffffff169003612280576001600160a01b0381165f908152600488016020526040902060010180547fffffffffffffffffffffffffffffffffffffffffffffffffffff0000000000001665ffffffffffff8d161790555b61228d6005880182612fc4565b6122a05761229e600588018261299b565b505b5060010161213d565b5050505050505050505050565b60606122c182613213565b805161307882526002017ffffffffffffffffffffffffffffffffffffffffffffffffffffffffffffffffe90910190815292915050565b604080518082019091525f80825260208201526001600160a01b0383165f90815260038601602052604081209061232f828761258a565b90505f8179ffffffffffffffffffffffffffffffffffffffffffffffffffff1611612386576040517ffaa708d200000000000000000000000000000000000000000000000000000000815260040160405180910390fd5b79ffffffffffffffffffffffffffffffffffffffffffffffffffff81165f90815260038301602090815260408083206001600160a01b0388168452909152902054806123fe576040517f95389b8d00000000000000000000000000000000000000000000000000000000815260040160405180910390fd5b6124bd836002015f8479ffffffffffffffffffffffffffffffffffffffffffffffffffff1681526020019081526020015f20828154811061244157612441614424565b5f918252602080832060408051808201825293909101546001600160a01b038082168552740100000000000000000000000000000000000000009091046bffffffffffffffffffffffff908116858501908152835180850185528781528501969096528251808401909352935116815292519091169082015290565b98975050505050505050565b6001600160a01b0381165f90815260038301602052604081206060916124f160058301611b3d565b90508067ffffffffffffffff81111561250c5761250c613c58565b604051908082528060200260200182016040528015612535578160200160208202803683370190505b5092505f5b818110156125815761254f6005840182611989565b84828151811061256157612561614424565b6001600160a01b039092166020928302919091019091015260010161253a565b50505092915050565b81545f90818160058111156125e6575f6125a384613274565b6125ad90856143fa565b5f8881526020902090915081015465ffffffffffff90811690871610156125d6578091506125e4565b6125e181600161462e565b92505b505b5f6125f3878785856133d9565b90508015612643576126178761260a6001846143fa565b5f91825260209091200190565b546601000000000000900479ffffffffffffffffffffffffffffffffffffffffffffffffffff16612645565b5f5b979650505050505050565b61267760405180608001604052805f81526020015f81526020015f81526020015f81525090565b6040518060800160405280835f01516bffffffffffffffffffffffff16815260200183602001516bffffffffffffffffffffffff16815260200183606001516bffffffffffffffffffffffff16815260200183608001516bffffffffffffffffffffffff168152509050919050565b60088201545f90600784019065ffffffffffff9081169084161061270c57549050610801565b835f612716825490565b9050805f0361272a575f9350505050610801565b5f612736838784613438565b90505f600288018161274984600161462e565b79ffffffffffffffffffffffffffffffffffffffffffffffffffff16815260208101919091526040015f9081209150805b82548110156127da5782818154811061279557612795614424565b5f918252602090912001546127d0907401000000000000000000000000000000000000000090046bffffffffffffffffffffffff168361462e565b915060010161277a565b5060018601545f906127f5908a9065ffffffffffff16614488565b65ffffffffffff16905061280b82826001612d96565b875461281791906143fa565b9a9950505050505050505050565b5f8281527f02dd7bc7dec4dceedda775e58dd541e08a116c6c53815c0bd028192f7b626800602090815260408083206001600160a01b038516845290915290205460ff16610979576040517fe2517d3f0000000000000000000000000000000000000000000000000000000081526001600160a01b0382166004820152602481018390526044016114ad565b5f8281527f02dd7bc7dec4dceedda775e58dd541e08a116c6c53815c0bd028192f7b626800602081815260408084206001600160a01b038616855290915282205460ff16612992575f848152602082815260408083206001600160a01b0387168452909152902080547fffffffffffffffffffffffffffffffffffffffffffffffffffffffffffffff001660011790556129483390565b6001600160a01b0316836001600160a01b0316857f2f8788117e7eff1d82e926ec794901d17c78024a50270940304540a733656f0d60405160405180910390a46001915050610801565b5f915050610801565b5f610859836001600160a01b0384166134a0565b5f8281527f02dd7bc7dec4dceedda775e58dd541e08a116c6c53815c0bd028192f7b626800602081815260408084206001600160a01b038616855290915282205460ff1615612992575f848152602082815260408083206001600160a01b038716808552925280832080547fffffffffffffffffffffffffffffffffffffffffffffffffffffffffffffff0016905551339287917ff6391f5c32d9c69d2a47ea670b442974b53935d1edc7fd64eb21e047a839171b9190a46001915050610801565b5f610859836001600160a01b0384166134ec565b612a8e826135c6565b6040516001600160a01b038316907fbc7cd75a20ee27fd9adebab32041f755214dbc6bffa90cc0225b39da2e5c2d3b905f90a2805115612ad257610959828261366d565b6109796136d6565b80545f9081908190808203612af8575f5f5f93509350935050612b48565b5f612b088661260a6001856143fa565b546001955065ffffffffffff811694506601000000000000900479ffffffffffffffffffffffffffffffffffffffffffffffffffff169250612b48915050565b9193909250565b6060815167ffffffffffffffff811115612b6b57612b6b613c58565b604051908082528060200260200182016040528015612baf57816020015b604080518082019091525f8082526020820152815260200190600190039081612b895790505b5090505f5b8251811015612c4357612c1e838281518110612bd257612bd2614424565b60200260200101516040805180820182525f808252602091820152815180830190925282516001600160a01b03168252918201516bffffffffffffffffffffffff169181019190915290565b828281518110612c3057612c30614424565b6020908102919091010152600101612bb4565b50919050565b5f825f018281548110612c5e57612c5e614424565b905f5260205f200154905092915050565b6001600160a01b0382165f9081526004840160205260408120600181015465ffffffffffff90811690841603612ca757549050610859565b845f612cb3828661258a565b90505f8179ffffffffffffffffffffffffffffffffffffffffffffffffffff1611612d0a576040517ffaa708d200000000000000000000000000000000000000000000000000000000815260040160405180910390fd5b5f612d1688838961370e565b845460018601549192509065ffffffffffff808916911611156124bd5760018501545f90612d4d90899065ffffffffffff16614488565b65ffffffffffff1690505f612d6484836001612d96565b905082811115612d7d575f975050505050505050610859565b612d8781846143fa565b9b9a5050505050505050505050565b82820281838583041485151702612e3c577fffffffffffffffffffffffffffffffffffffffffffffffffffffffffffffffff8385098181108201900382848609835f038416828511612def5763ae47f7025f526004601cfd5b93849004938382119092035f839003839004600101029203041760026003830281188084028203028084028203028084028203028084028203028084028203028084029091030202610859565b0492915050565b6060815f01805480602002602001604051908101604052809291908181526020018280548015612e9057602002820191905f5260205f20905b815481526020019060010190808311612e7c575b50505050509050919050565b7ff0c57e16840df040f15088dc2f81fe391c3923bec73e23a9662efc9c229c6a005468010000000000000000900460ff1661140a576040517fd7e6bcf800000000000000000000000000000000000000000000000000000000815260040160405180910390fd5b5f610908426137e0565b5f6bffffffffffffffffffffffff821115612f5e576040517f6dfcc65000000000000000000000000000000000000000000000000000000000815260606004820152602481018390526044016114ad565b5090565b604080518082019091525f80825260208201526040518060400160405280836020016020810190612f939190613ddd565b6001600160a01b03168152602001612fae8460400135612f0d565b6bffffffffffffffffffffffff16905292915050565b6001600160a01b0381165f9081526001830160205260408120541515610859565b5f80612ff285858561382b565b915091505b935093915050565b5f61300a8484614488565b79ffffffffffffffffffffffffffffffffffffffffffffffffffff83165f908152600287016020526040812065ffffffffffff929092169250805b825481101561314c575f83828154811061306157613061614424565b5f91825260208220015485546001600160a01b03909116925085908490811061308c5761308c614424565b5f918252602080832091909101546001600160a01b038516835260048d019091526040909120740100000000000000000000000000000000000000009091046bffffffffffffffffffffffff1691506130e782886001612d96565b815f015f8282546130f8919061462e565b90915550506001810180547fffffffffffffffffffffffffffffffffffffffffffffffffffff0000000000001665ffffffffffff8b1617905561313b828661462e565b945050600190920191506130459050565b506007870161315d82856001612d96565b815f015f82825461316e919061462e565b909155505060010180547fffffffffffffffffffffffffffffffffffffffffffffffffffff0000000000001665ffffffffffff9690961695909517909455505050505050565b5f79ffffffffffffffffffffffffffffffffffffffffffffffffffff821115612f5e576040517f6dfcc65000000000000000000000000000000000000000000000000000000000815260d06004820152602481018390526044016114ad565b60606080604051019050602081016040525f8152806f30313233343536373839616263646566600f52600119835b600f811651938201936001850153600f8160041c1651845360081c80613241575050819003601f19909101908152919050565b5f60018211613281575090565b81600170010000000000000000000000000000000082106132a75760809190911c9060401b5b6801000000000000000082106132c25760409190911c9060201b5b64010000000082106132d95760209190911c9060101b5b6201000082106132ee5760109190911c9060081b5b61010082106133025760089190911c9060041b5b601082106133155760049190911c9060021b5b600482106133215760011b5b600302600190811c9081858161333957613339614641565b048201901c9050600181858161335157613351614641565b048201901c9050600181858161336957613369614641565b048201901c9050600181858161338157613381614641565b048201901c9050600181858161339957613399614641565b048201901c905060018185816133b1576133b1614641565b048201901c90506133d08185816133ca576133ca614641565b04821190565b90039392505050565b5f5b81831015613430575f6133ee84846139ec565b5f8781526020902090915065ffffffffffff86169082015465ffffffffffff16111561341c5780925061342a565b61342781600161462e565b93505b506133db565b509392505050565b5f805b82811015613494575f61344e8683613a06565b90508465ffffffffffff16815f015165ffffffffffff161061348b575f8211613477575f613482565b6134826001836143fa565b92505050610859565b5060010161343b565b5061088d6001836143fa565b5f8181526001830160205260408120546134e557508154600181810184555f848152602080822090930184905584548482528286019093526040902091909155610801565b505f610801565b5f8181526001830160205260408120548015612992575f61350e6001836143fa565b85549091505f90613521906001906143fa565b9050808214613580575f865f01828154811061353f5761353f614424565b905f5260205f200154905080875f01848154811061355f5761355f614424565b5f918252602080832090910192909255918252600188019052604090208390555b85548690806135915761359161466e565b600190038181905f5260205f20015f90559055856001015f8681526020019081526020015f205f905560019350505050610801565b806001600160a01b03163b5f03613614576040517f4c9c8ce30000000000000000000000000000000000000000000000000000000081526001600160a01b03821660048201526024016114ad565b7f360894a13ba1a3210667c828492db98dca3e2076cc3735a920a3ca505d382bbc80547fffffffffffffffffffffffff0000000000000000000000000000000000000000166001600160a01b0392909216919091179055565b60605f5f846001600160a01b03168460405161368991906144a6565b5f60405180830381855af49150503d805f81146136c1576040519150601f19603f3d011682016040523d82523d5f602084013e6136c6565b606091505b5091509150610aed858383613a89565b341561140a576040517fb398979f00000000000000000000000000000000000000000000000000000000815260040160405180910390fd5b79ffffffffffffffffffffffffffffffffffffffffffffffffffff82165f90815260038401602090815260408083206001600160a01b038516845290915281205480820361375f575f915050610859565b79ffffffffffffffffffffffffffffffffffffffffffffffffffff84165f90815260028601602052604090206137966001836143fa565b815481106137a6576137a6614424565b5f918252602090912001547401000000000000000000000000000000000000000090046bffffffffffffffffffffffff1695945050505050565b5f65ffffffffffff821115612f5e576040517f6dfcc65000000000000000000000000000000000000000000000000000000000815260306004820152602481018390526044016114ad565b82545f908190801561397c575f6138478761260a6001856143fa565b805490915065ffffffffffff808216916601000000000000900479ffffffffffffffffffffffffffffffffffffffffffffffffffff169088168211156138b9576040517f2520601d00000000000000000000000000000000000000000000000000000000815260040160405180910390fd5b8765ffffffffffff168265ffffffffffff160361390857825465ffffffffffff16660100000000000079ffffffffffffffffffffffffffffffffffffffffffffffffffff89160217835561396e565b6040805180820190915265ffffffffffff808a16825279ffffffffffffffffffffffffffffffffffffffffffffffffffff808a1660208085019182528d54600181018f555f8f815291909120945191519092166601000000000000029216919091179101555b9450859350612ff792505050565b50506040805180820190915265ffffffffffff808516825279ffffffffffffffffffffffffffffffffffffffffffffffffffff80851660208085019182528854600181018a555f8a8152918220955192519093166601000000000000029190931617920191909155905081612ff7565b5f6139fa600284841861469b565b6108599084841661462e565b604080518082019091525f8082526020820152825f018263ffffffff1681548110613a3357613a33614424565b5f9182526020918290206040805180820190915291015465ffffffffffff811682526601000000000000900479ffffffffffffffffffffffffffffffffffffffffffffffffffff16918101919091529392505050565b606082613a9e57613a9982613afe565b610859565b8151158015613ab557506001600160a01b0384163b155b15613af7576040517f9996b3150000000000000000000000000000000000000000000000000000000081526001600160a01b03851660048201526024016114ad565b5080610859565b805115613b0e5780518082602001fd5b6040517fd6bda27500000000000000000000000000000000000000000000000000000000815260040160405180910390fd5b5f60208284031215613b50575f5ffd5b81357fffffffff0000000000000000000000000000000000000000000000000000000081168114610859575f5ffd5b803565ffffffffffff81168114613b94575f5ffd5b919050565b80356001600160a01b0381168114613b94575f5ffd5b5f5f60408385031215613bc0575f5ffd5b613bc983613b7f565b9150613bd760208401613b99565b90509250929050565b5f60208284031215613bf0575f5ffd5b5035919050565b5f5f5f60608486031215613c09575f5ffd5b613c1284613b99565b9250613c2060208501613b7f565b9150613c2e60408501613b7f565b90509250925092565b5f5f60408385031215613c48575f5ffd5b82359150613bd760208401613b99565b7f4e487b71000000000000000000000000000000000000000000000000000000005f52604160045260245ffd5b6040516080810167ffffffffffffffff81118282101715613ca857613ca8613c58565b60405290565b6040516060810167ffffffffffffffff81118282101715613ca857613ca8613c58565b604051610100810167ffffffffffffffff81118282101715613ca857613ca8613c58565b604051601f8201601f1916810167ffffffffffffffff81118282101715613d1e57613d1e613c58565b604052919050565b5f82601f830112613d35575f5ffd5b813567ffffffffffffffff811115613d4f57613d4f613c58565b613d626020601f19601f84011601613cf5565b818152846020838601011115613d76575f5ffd5b816020850160208301375f918101602001919091529392505050565b5f5f60408385031215613da3575f5ffd5b613dac83613b99565b9150602083013567ffffffffffffffff811115613dc7575f5ffd5b613dd385828601613d26565b9150509250929050565b5f60208284031215613ded575f5ffd5b61085982613b99565b5f5f5f60608486031215613e08575f5ffd5b613e1184613b7f565b9250613e1f60208501613b7f565b9150613c2e60408501613b99565b602080825282518282018190525f918401906040840190835b81811015613e8257613e6c83855180516001600160a01b03168252602090810151910152565b6020939093019260409290920191600101613e46565b509095945050505050565b6020810160038310613ec6577f4e487b71000000000000000000000000000000000000000000000000000000005f52602160045260245ffd5b91905290565b5f5f60408385031215613edd575f5ffd5b50508035926020909101359150565b5f5f5f5f60808587031215613eff575f5ffd5b613f0885613b7f565b9350613f1660208601613b7f565b9250613f2460408601613b99565b9150613f3260608601613b99565b905092959194509250565b602080825282518282018190525f918401906040840190835b81811015613e825783516001600160a01b0316835260209384019390920191600101613f56565b5f81518084528060208401602086015e5f602082860101526020601f19601f83011685010191505092915050565b602081525f6108596020830184613f7d565b5f60608284031215612c43575f5ffd5b5f5f5f5f60608587031215613fe0575f5ffd5b613fe985613b7f565b9350602085013567ffffffffffffffff811115614004575f5ffd5b8501601f81018713614014575f5ffd5b803567ffffffffffffffff81111561402a575f5ffd5b87602082840101111561403b575f5ffd5b60209190910193509150604085013567ffffffffffffffff81111561405e575f5ffd5b61406a87828801613fbd565b91505092959194509250565b5f5f5f60608486031215614088575f5ffd5b61409184613b7f565b9250613e1f60208501613b99565b81516001600160a01b031681526020808301519082015260408101610801565b80358015158114613b94575f5ffd5b5f82601f8301126140dd575f5ffd5b813567ffffffffffffffff8111156140f7576140f7613c58565b61410660208260051b01613cf5565b8082825260208201915060208360071b860101925085831115614127575f5ffd5b602085015b8381101561418f5760808188031215614143575f5ffd5b61414b613c85565b61415482613b99565b815261416260208301613b99565b6020828101919091526040838101359083015260608084013590830152908452929092019160800161412c565b5095945050505050565b5f606082360312156141a9575f5ffd5b6141b1613cae565b82358152602083013567ffffffffffffffff8111156141ce575f5ffd5b83016101003682900312156141e1575f5ffd5b6141e9613cd1565b6141f282613b99565b8152602082013567ffffffffffffffff81111561420d575f5ffd5b61421936828501613d26565b60208301525060408281013590820152606080830135908201526080808301359082015260a0808301359082015261425360c083016140bf565b60c082015261426460e083016140bf565b60e0820152602083015250604083013567ffffffffffffffff811115614288575f5ffd5b614294368286016140ce565b60408301525092915050565b5f82357fffffffffffffffffffffffffffffffffffffffffffffffffffffffffffffff018336030181126142d2575f5ffd5b9190910192915050565b5f5f83357fffffffffffffffffffffffffffffffffffffffffffffffffffffffffffffffe184360301811261430f575f5ffd5b83018035915067ffffffffffffffff821115614329575f5ffd5b6020019150600781901b3603821315611c78575f5ffd5b5f81518060208401855e5f93019283525090919050565b7f7b2274797065223a227a6b222c2261707048617368223a22000000000000000081525f6143886018830184614340565b7f227d00000000000000000000000000000000000000000000000000000000000081526002019392505050565b828152604060208201525f61088d6040830184613f7d565b7f4e487b71000000000000000000000000000000000000000000000000000000005f52601160045260245ffd5b81810381811115610801576108016143cd565b5f6020828403121561441d575f5ffd5b5051919050565b7f4e487b71000000000000000000000000000000000000000000000000000000005f52603260045260245ffd5b5f7fffffffffffffffffffffffffffffffffffffffffffffffffffffffffffffffff8203614481576144816143cd565b5060010190565b65ffffffffffff8281168282160390811115610801576108016143cd565b5f6108598284614340565b5f8151808452602084019350602083015f5b828110156145195781516001600160a01b0381511687526001600160a01b0360208201511660208801526040810151604088015260608101516060880152506080860195506020820191506001810190506144c3565b5093949350505050565b60208152815160208201525f6020830151606060408401526001600160a01b038151166080840152602081015161010060a0850152614566610180850182613f7d565b9050604082015160c0850152606082015160e0850152608082015161010085015260a082015161012085015260c0820151151561014085015260e082015191506145b561016085018315159052565b60408501519150601f19848203016060850152610aed81836144b1565b838152606060208201525f6145ea6060830185613f7d565b82810360408401526111c08185613f7d565b79ffffffffffffffffffffffffffffffffffffffffffffffffffff8181168382160190811115610801576108016143cd565b80820180821115610801576108016143cd565b7f4e487b71000000000000000000000000000000000000000000000000000000005f52601260045260245ffd5b7f4e487b71000000000000000000000000000000000000000000000000000000005f52603160045260245ffd5b5f826146ce577f4e487b71000000000000000000000000000000000000000000000000000000005f52601260045260245ffd5b50049056fe62643731663266646233373135623838633465616137393962666262323365343631623931373163a264697066735822122039cf33d9bb43d6cec47fa76ad354113bbc7f2e05eba447527536b1a2216de24364736f6c634300081d0033","linkReferences":{}},"methodIdentifiers":{"DEFAULT_ADMIN_ROLE()":"a217fddf","EIP4788()":"a2ad0582","EIP4788_TIMEOUT()":"3d214c45","FEEDER_ROLE()":"ceb20971","GIT_COMMIT()":"b8a15e3a","GIT_TAG()":"b175eb4d","PROGRAM_VKEY()":"f04a832d","UPGRADE_INTERFACE_VERSION()":"ad3cb1cc","VERIFIFER()":"889bf462","feed(uint48,bytes,(bytes32,(address,bytes,uint256,uint256,uint256,uint256,bool,bool),(address,address,uint256,uint256)[]))":"e7baa1b8","feedType()":"56355c18","getCollateralOwnership(uint48,address,address)":"eca1c8d1","getCollateralOwnershipTWAB(uint48,uint48,address,address)":"90aaa046","getCollateralOwnerships(uint48,address)":"5e27c123","getCollateralOwnershipsTWAB(uint48,uint48,address)":"547c477d","getHistoricalOwners(address)":"f6e03f71","getHistoricalOwnersCount(address)":"8e892d79","getLastFeedTimestamp(address)":"51e7ba44","getRoleAdmin(bytes32)":"248a9ca3","getRoleMember(bytes32,uint256)":"9010d07c","getRoleMemberCount(bytes32)":"ca15c873","getRoleMembers(bytes32)":"a3246ad3","getTotalTWAB(address,uint48,uint48)":"2cba54da","getValidator(uint48,address)":"1714b74d","getValidatorAddressByIndex(uint256)":"5826cf52","getValidatorAddressCount()":"33caa716","grantRole(bytes32,address)":"2f2ff15d","hasRole(bytes32,address)":"91d14854","initialize(address)":"c4d66de8","proxiableUUID()":"52d1902d","renounceRole(bytes32,address)":"36568abe","revokeRole(bytes32,address)":"d547741f","supportsInterface(bytes4)":"01ffc9a7","upgradeToAndCall(address,bytes)":"4f1ef286"},"id":117}